:1000000000800020BD01000009140200D513020089
:10001000D5130200D5130200D5130200D513020038
:10002000D5130200D5130200D513020009140200F3
:1000300009140200D513020009140200C5130200BE
:100040000914020009140200091402000914020034
:100050000914020009140200091402000914020024
:100060000914020009140200091402000914020014
:100070000914020009140200091402000914020004
:1000800009140200091402000914020009140200F4
:1000900009140200091402000914020009140200E4
:1000A00009140200091402000914020009140200D4
:1000B00009140200091402000914020009140200C4
:1000C00009140200091402000914020009140200B4
:1000D00009140200091402000914020009140200A4
:1000E0000914020009140200091402000914020094
:1000F00009140200E534020009140200592F02001D
:1001000009140200152A0200091402000914020051
:100110000914020009140200091402000914020063
:100120000914020009140200091402000914020053
:100130000914020009140200091402000914020043
:100140000914020009140200091402000914020033
:100150000914020009140200091402000914020023
:100160000914020059810100091402000914020057
:100170000914020009140200091402000914020003
:1001800009140200091402000914020009140200F3
:1001900009140200091402000914020009140200E3
:1001A00009140200091402000914020009140200D3
:1001B000091402000914020009140200564B4CF203
:1001C000205210B51A804DF628121A8000BF00BFC9
:1001D00021F01EF9514B4FF010621A60504A9A609C
:1001E000504ADA60A3F53043203B1A6812F480725B
:1001F00004D14D490A604FF4A8521A604B4B1A784B
:10020000110703D51A7842F008021A70484B2A22C7
:100210001A700023474A48499818884204D247492F
:10022000595899500433F5E7454A464B9A424FF0E6
:10023000000302D242F8043BF7E74349434A5958C6
:1002400099500433B3F5DE7FF7D1414B802103F899
:10025000011B40498B42F9D13F4B1A603F4B0A22A8
:100260001A70A3F5805324225A70A0221A709A792A
:100270009207FCD59A79D406FCD4394B9A7902F0CE
:100280000C02082AF9D105221A7143225A719A796F
:100290009006FCD5324B9A795106FBD5314A4FF086
:1002A000817111600521516020221A702C4B9B79BD
:1002B00003F00C030C2BF9D12B4B2C4A1A602C4B5E
:1002C0002C4A1A6000225A60072243F8042C2A4A5A
:1002D000C3F80C2D62B618F027FD134B1B68DA0724
:1002E00005D5264818F0ACFB254B264A1A60264B4C
:1002F0001B785B0609D5224C224A2368934204D11D
:100300001E4818F09DFB0023236024F079F921F0AA
:1003100085F822F015F9FEE70E20054030800440F4
:10032000823F04000100002B14D0034002D007409C
:1003300000E00740708CFF1F0492FF1FAC9002008A
:100340000892FF1F74E8FF1F000000000082FF1FDB
:1003500000E400E05FE400E008ED00E0005006404B
:10036000004006404480044004800440C010050062
:1003700014E000E03F1901000000202088D3A96AA2
:100380001CE00340A5C3945A00F00740FFFFFFFFA5
:10039000FFFFFFFFFFFFFFFFFFFFFFFFFFFFFFFF6D
:1003A000FFFFFFFFFFFFFFFFFFFFFFFFFFFFFFFF5D
:1003B000FFFFFFFFFFFFFFFFFFFFFFFFFFFFFFFF4D
:1003C000FFFFFFFFFFFFFFFFFFFFFFFFFFFFFFFF3D
:1003D000FFFFFFFFFFFFFFFFFFFFFFFFFFFFFFFF2D
:1003E000FFFFFFFFFFFFFFFFFFFFFFFFFFFFFFFF1D
:1003F000FFFFFFFFFFFFFFFFFFFFFFFFFFFFFFFF0D
:10040000FFFFFFFFFFFFFFFFFFFFFFFFFEFFFFFFFD
:1004100010B5054C237833B9044B13B10448AFF33E
:1004200000800123237010BD0892FF1F0000000010
:10043000AC90020008B5064B1BB106480649AFF365
:1004400000800648036813B1054B03B1984708BD07
:1004500000000000AC9002000C92FF1F0492FF1FEE
:100460000000000038B5044608460D4624F0DAFBCB
:10047000236802465B6820462946984738BD08B580
:10048000FFF7F0FF08BD0A22002322F083B8D2B2A2
:10049000002322F07FB838B50446FFF7E3FF054696
:1004A000204622F067F8284438BDFFFF10B5044C01
:1004B000204606F0C9FA21460248FFF7ECFF10BDBE
:1004C00062580200A8E6FF1F70B5384B384A1B7807
:1004D0001078384C4BB1AA2807D121680A7822B18C
:1004E000092A02D001312160F3E72168087818B9A0
:1004F0003148FFF7C4FF4DE0012804D1002B43D160
:100500004FF22B002CE0022804D1002B3CD14FF2FB
:10051000280025E0092818D1284B1B78022B43D04E
:1005200025482749274CFFF7B6FF01232360264BB8
:100530001E681D4606F57A6622684AB32B68B342E8
:1005400026D2002009F0A8FEF6E7A0F10A02D1B2F7
:10055000152904D8C3B94FF47A70504312E09BB9FF
:100560001A4D21F0F9F92B78032213FB03F393FBC7
:10057000F2F0904018F0C2FB21F03AFA287810FB14
:1005800000F0400018F0BAFB23680133236070BD0F
:10059000002323600E480F4901F066FB0C480E490A
:1005A000BDE8704001F091BB70BD00BF45BDFF1FAD
:1005B000C6BCFF1F3C92FF1FA8E6FF1F18BEFF1F0F
:1005C0006E58020060BFFF1F6CE4FF1FA08CFF1F6E
:1005D0009093FF1F4092FF1F2892FF1F38B50446DB
:1005E000FFF751FF0546204621F0C4FF284438BDDF
:1005F00038B5044622F006F80546204621F0BAFF39
:10060000284438BD4FF0FF3070474FF0FF3070473F
:100610004FF0FF307047FFFFF8B5684B684D694CED
:10062000694800221A70694B06221A70684B012231
:100630001A70684B16221A70674B17221A70674B94
:1006400011221A70664B0F221A70664B10221A7014
:100650000E232B7020211523237004F01DFE624A07
:10066000624B1168186001311160614A1278442AA6
:1006700027461C4610D044200AF09AF95D490646E8
:100680005D48FFF7FCFE1EB15B485C49FFF7F7FED3
:1006900059485B49FFF7FFFE266876B904F09CFDD8
:1006A000584802F056F8584B5849534801221A70DE
:1006B000574B1E70FFF7EFFE43E04D4B1B78442B6A
:1006C0003CD120215348544C04F02AFE534804F0F6
:1006D0003DFE534804F070FE204602F08DF851496B
:1006E0004548FFF7D8FE44482178FFF777FF237885
:1006F0000BB9042323704C4C4C4802F097F8414846
:1007000002F01FF8204602F084F849493A48FFF702
:10071000C2FE21783848FFF761FF18F053FB3A4BCF
:100720004449354800221A70394B01221A70FFF7EC
:10073000B2FE4148414901F0C8FA02E0404B414A4B
:100740001A60414B41491A68414801321A6040F22F
:10075000FD720BF0E9FE01F05BFA287821F07CFCD9
:100760000422014608233A480BF096FE387821F01F
:1007700073FC04220823014635480BF08DFE3549F1
:100780001D48FFF77CFE40F2A5711B48FFF730FFC4
:10079000174B194819781022FFF779FE164821F0F7
:1007A000E9FE04F0E1FB06F01DFC06F0FFFB224829
:1007B0002949BDE8F84001F088BA00BF18BEFF1F04
:1007C00008BEFF1F09BEFF1F9C93FF1F6EBDFF1FCA
:1007D0004CBEFF1F4DBEFF1F4EBEFF1F4FBEFF1F73
:1007E00011BEFF1FA0BEFF1F9493FF1F049FFF1F9A
:1007F000020002407E580200A8E6FF1F9358020044
:1008000098580200B88CFF1F80BDFF1FAD58020032
:100810004CBDFF1FBC93FF1FA08CFF1FFC93FF1F4D
:10082000DC93FF1FC25802006EE8FF1F12BEFF1FBD
:10083000CF580200625802009093FF1F5492FF1F8E
:100840000CED00E00400FA059893FF1F4B5C0200DA
:10085000A4BEFF1FE15802002892FF1F08B5C82060
:1008600018F04CFA074A0023137053709370D3703A
:1008700013715371044A1370044A1370BDE80840A1
:1008800020F0DCBF66E6FF1F6CE6FF1F6DE6FF1F72
:10089000194B1A4870B500251D70194B194E0124CB
:1008A0001C7001F0BDFA184B18481C602946202224
:1008B00023F006FF0823337020F0C0FF144B0F22F3
:1008C0001A7020F0BBFFFFF7C9FF347020F0B6FFAD
:1008D000104C0323337020F0B1FF8023237020F0ED
:1008E000ADFF4FF4FA7018F009FA257020F0A6FF5A
:1008F000BDE87040FFF7B2BF80BDFF1FF4BDFF1F12
:10090000808CFF1F6CE6FF1F848CFF1F1C94FF1F51
:1009100066E6FF1F6DE6FF1F2DE9F04FB34CA3B055
:10092000002306460DF11F00237001F08CFFB04A32
:100930001378904623B99DF81F3003F00F0305E0AC
:10094000012B08D19DF81F301B090C339E4202D1A8
:10095000FFF79EFF46E331460DF11E0002F02EFF29
:10096000A449A548A44FFFF796FDA3489DF81E1083
:10097000FFF734FE9DF81EA0CAF3C0038DF81E30A9
:100980009E4B93F800B0BBF1000F40F02B839C49C5
:100990003846FFF774FD9B4B196812AD3039384665
:1009A000FFF726FE59464022284623F089FE594685
:1009B000F022954823F084FE2846314604F026FDB7
:1009C000B0F100094DDD91493846FFF764FD9049CB
:1009D0003846FFF754FD38464946FFF709FE98F8B8
:1009E0000030022B18D038468A49FFF754FD15F81D
:1009F0000B10814810220BF1010BFFF748FDCB458E
:100A0000F5D17D4821F0B6FDCDF800902846F1B231
:100A10000F22814B07F01CFB28467B4923784A466E
:100A200004F09BFB74487D49FFF735FD4FF0000B48
:100A300015F80B10704810220BF1010BFFF727FD82
:100A4000CB45F5D16C4821F095FD75496A4884F88D
:100A500000B0FFF720FD23786B4A0221D154013307
:100A6000237000214022284623F02AFE28463146E2
:100A700002F030FF9DF8483013B94FF0000B1CE036
:100A800068495D48FFF707FD67495B48FFF7F7FCDA
:100A90009DF848105848FFF7F6FC57486349FFF7A0
:100AA000FAFC9DF848B0BBF11E0FE6D82378564AF1
:100AB0000BF10A01D154013323701AF0040F0ED048
:100AC0005B494D48FFF7E7FC23784F4A4A4801212C
:100AD000D1545849FFF7DFFC2378013323702846AF
:100AE000314604F0DDFFB0F1000946DD52494248CD
:100AF000FFF7D1FC51494048FFF7C1FC3E48494649
:100B0000FFF776FD98F80030022B19D03A4841499A
:100B1000FFF7C1FC0023E95C374803931022FFF77D
:100B2000B6FC039B01334B45F5D1334821F022FD40
:100B3000CDF800902846F1B20222374B07F088FA30
:100B40002378314928464A4604F007FB2A483349AE
:100B5000FFF7A1FC0023E95C274803931022FFF76D
:100B600096FC039B01334B45F5D12348039321F0B9
:100B700001FD2278039B134423700AF003092846E1
:100B80000021402223F09CFDB9F1000F1FD0B9F1E4
:100B9000010F0AD12A491848FFF77DFC23781A4A29
:100BA000154802F8039023490CE0B9F1020F0ED169
:100BB00023491148FFF76FFC2378134A0E4802F8C7
:100BC00003902049FFF767FC23780133237000214D
:100BD0004022284623F074FD2846314602F006FFE5
:100BE0009DF8483083BB002204924BE02492FF1F03
:100BF00018BEFF1FAD650200A8E6FF1F45BDFF1F21
:100C0000EE580200D09EFF1F6C92FF1FFB5802009F
:100C100015590200235902001C94FF1F2D59020090
:100C200039590200525902007059020077590200E6
:100C300099590200BC590200C0590200DF59020054
:100C4000F2590200145A0200A849A948FFF723FCF0
:100C5000A849A748FFF713FC9DF84810A448FFF7E0
:100C600012FCA348A449FFF716FC9DF848301E2B40
:100C7000B9D80493049A237802F10A019F4AD15407
:100C8000013323702846314602F0CAFAB0F1000958
:100C900046DD9B499648FFF7FEFB9A499448FFF7CB
:100CA000EEFB93484946FFF7A3FC98F80030022B6F
:100CB00019D08F489449FFF7EEFB0023E95C8C487C
:100CC00003931022FFF7E3FB039B01334B45F5D160
:100CD000874821F04FFCCDF800902846F1B205225C
:100CE0008A4B07F0B5F92378844928464A4604F030
:100CF00034FA7F488649FFF7CEFB0023E95C7C4845
:100D000003931022FFF7C3FB039B01334B45F5D13F
:100D10007748039321F02EFC2278039B1344237021
:100D2000CAF3011928460021402223F0C9FCB9F179
:100D3000000F1BD06E487749FFF7ADFBB9F1010FEB
:100D400006D123786D4A6A4802F80390724908E098
:100D5000B9F1020F0AD12378684A654802F8039076
:100D60006E49FFF798FB237801332370002140225E
:100D7000284623F0A5FC2846314602F0C3FE9DF824
:100D8000483013B9002305931DE065495848FFF723
:100D900082FB58495648FFF772FB9DF848105448AB
:100DA000FFF771FB52485F49FFF775FB9DF848302C
:100DB0001E2BE7D80593059A237802F10A014F4AC2
:100DC000D1540133237028460021402223F078FCBF
:100DD0009DF81E3073B154494548FFF75CFB2378FA
:100DE000464A43480121D1544B49FFF754FB23782D
:100DF000013323702846314602F040FF9DF8483009
:100E0000002B00F0CD80672B40F0A980474938487F
:100E1000FFF741FB3146284605F0BCF93A498146C7
:100E20003348FFF738FB00234B45314807DAE95CCC
:100E300003931022FFF72BFB039B0133F4E721F010
:100E400099FB3B492A48FFF71AFB29484946FFF717
:100E5000CFFB98F80030022B07D0CDF80090284641
:100E6000F1B20922294B07F0F3F8284623492378E9
:100E70004A4604F072F91E482549FFF70CFB00268C
:100E80004E451B4805DAA95D1022FFF700FB01362D
:100E9000F6E721F06FFB4A46294608A801F07AFBE5
:100EA00001F0E0FB5844DDF810B0059B83449B44FF
:100EB00059460F4821F0A6FB0D4821F05BFB59462F
:100EC00008A801F06BFB064601F008FC0B4B2278EA
:100ED00080BB4E219954134453214F225A70D9702C
:100EE000542245219A70197130E000BF1B5A02004C
:100EF000A8E6FF1F70590200395A02006C92FF1FCA
:100F00005B5A02007B5A0200235902001C94FF1F07
:100F10002D5902008E5A0200BC590200145A0200D8
:100F2000B05A0200CE5A0200EB5A0200095B0200DE
:100F3000285B020031789954134471785970B27863
:100F40009A70F278DA7032791A7172795A7123785C
:100F50002846063300214022237023F0B1FB9DF880
:100F60004830224D792B0ED198F80030022B0AD050
:100F70001F492048FFF78FFA2078284405F064FCC9
:100F800023782C3323709DF84830752B08D198F8BE
:100F90000030022B04D023780922EA540133237055
:100FA0001AF0400F114D0DD013491248FFF773FA94
:100FB0002378104811490222EA54FFF76CFA23788B
:100FC0000133237023780B480D490E4C0022EA545C
:100FD000FFF761FA14F8011F21B13B6805481B684F
:100FE0009847F7E723B0BDE8F08F00BF6C92FF1F72
:100FF0003B5B0200A8E6FF1F545B0200145A02008C
:10100000715B02006B92FF1F044B1A78044B186847
:101010000AB1243800E03038FFF77EBC18BEFF1F4D
:10102000D09EFF1F054B1A78054B18680AB124386B
:1010300000E030380630FFF76FBC00BF18BEFF1F5E
:10104000D09EFF1F2DE9F04FA04F3B7885B006469C
:101050000BB92D2000E0002005F0E2FF9C4B1A6840
:10106000022A9A460DDD9B489B49FFF708FA9B48E8
:1010700005F0EAFC9A4B012205201A7005F0F2FFF8
:10108000F5E7984D2B6801332B60974B1A789B46F8
:10109000002A45D002A801F0F0FB9DF8083003B308
:1010A00003A801F0DDFB91498A48FFF7F4F989486C
:1010B0009DF80C10FFF792FA9DF80C30132B0AD90B
:1010C00000238B48FF221A540133202BF9D107F05B
:1010D0000DFD002003E001338DF80C3003A801F072
:1010E000C7FB844B1A6801321A609DF808302A68E1
:1010F0000133DBB201320A2B8DF808302A6009D99E
:101100007D497448FFF7C7F99DF808107148FFF74B
:1011100065FA36E002A801F0B8FB00238BF8003036
:10112000DFF8D0917548D9F80020754C0132C9F824
:101130000020734A117800F066FE2A6801322A60A6
:10114000704A12680323B2FBF3F101EB4101501A1C
:101150001A40104417F0D2FD3A78C846A2B9674841
:1011600000F078FE80B9654800F06CFF60B9634814
:1011700001F05EF8002800F0998256486249FFF7B6
:101180008AF905F0B1FDDCE2D8F8003097F800905C
:101190000133C8F80030B9F1000F41D1484601F0E1
:1011A00074FB564800F03CFE584BCAF800901A7881
:1011B0001D4612B9564805F047FC56485649484C5A
:1011C00000F052FD55494348FFF765F9207805F0D6
:1011D00059FB552006F0DEF8514B1B78022B2646B2
:1011E00006D007F01FF912F0F1FF002001F040FBDC
:1011F0004C4B4D4A196811602A78012038701C4602
:1012000012B1307005F03EFB2568C8352368AB424B
:1012100003D2002009F040F8F8E716F05BFE90E2F8
:10122000424B1878D0B9592E18DD2368312B05D1DF
:101230003B4B1B78022B11D0012006E0322B07D14B
:10124000374B1B78022B09D0022007F0F9FE78E219
:10125000332B03D1324B1B78022BF6D1344B1B6856
:1012600023B9344B1B68002B6CD16AE2032B02DCE0
:10127000184831490CE0062B02DC16482F4907E0DC
:10128000092B1ADC264B1B78022B08D011482C495D
:10129000FFF7F5F821680F483039FFF7A9F91B4B24
:1012A0001B78002B00F04D820D4C2D230120237064
:1012B00005F0D8FE0123237043E20A2B42D105F04A
:1012C000BFFD2368312BBFD1B6E700BF80BDFF1F34
:1012D0006892FF1FA8E6FF1F915B02008B5B020074
:1012E000C6BCFF1F9493FF1F808CFF1FEB5B0200A7
:1012F000BC93FF1F9893FF1F275C0200F4BDFF1FE4
:10130000D09EFF1FF0BDFF1F0F5D020031BEFF1F0B
:10131000435C02009093FF1F5492FF1F585C020031
:1013200018BEFF1F6CE4FF1F34BEFF1F4CBDFF1F24
:1013300014BEFF1F049FFF1F645C0200615C02007B
:101340007C5C0200DFF80093A449A548DFF8FCA20A
:10135000002389F80030FFF792F82168A04830395F
:10136000FFF746F99F4BA04A196811609F4A12780F
:10137000022A00F06D819E4B1A78012A99460BD102
:101380009C490878DAF8001081422ED19A490978F0
:1013900059B3934899490CE0022A18D19849087822
:1013A000DAF80010814220D193490978E9B18C48DC
:1013B00094490193FFF763F8DAF800108848303950
:1013C000FFF716F9019B1A7801321A70B9E1032A66
:1013D0000BD18D4BDAF800101B78994205D1864B62
:1013E0001B7813B1894B1B7813BB894B1B78012BDE
:1013F000864B05D18049097811B11978ED2917D0AC
:1014000084490978012904D17B49097809B11978FF
:1014100071B9032A05D11978F52902D176490978DD
:1014200031B91B78F62B68D1734B1B78002B64D035
:1014300079496B48FFF723F821686948734C3039C4
:10144000FFF7D6F80423724A89F80030002313709E
:10145000704A1370714B1B78012B1CD0042B1AD0CF
:101460002378F02B17D86E4E4FF2280020F074FA34
:101470003378032513FB03F393FBF5F0A84017F033
:101480003DFC20F0B5FA337813FB03F393FBF5F042
:10149000A84017F033FC23785C4AED2B06D1614855
:1014A00003715378437103F04DFA1FE0F02B06D11E
:1014B0005C4803715378437103F0BAFB16E0F52BD7
:1014C00002D102F037FF11E0F62B0FD1454A564DFD
:1014D000166801232B6006F57A662B6823B1414A12
:1014E0001368B342C0F0298100232B60002089F8E3
:1014F0000000207005F04EFF23E1A2B33D4A002317
:1015000013703F4A89F8003013703F4A012013706E
:1015100005F040FF454805F097FA454BFF21187844
:1015200017F0E8FA3D4B1B78012B00F00A81042BE1
:1015300000F007813A4D4FF2280020F00DFA2B7889
:10154000032413FB03F393FBF4F0A04017F0D6FB46
:1015500020F04EFA2B7813FB03F393FBF4F0A0403A
:1015600017F0CCFBEDE0592E72DD2368312B0ED144
:10157000214B1B78002B6BD12E482F4900F074FBB8
:1015800007F05CFF2B482C4900F09FFBD9E0322B81
:101590000AD1194B1B78002B5AD1012005F050FBC2
:1015A000012005F06DFACCE0362B51D1124B1B789F
:1015B000002B4DD12B6821483A7001332B60204B12
:1015C00001241C708BF8004000F02AFCD8F8003091
:1015D0002344C8F800301B4B1C60B2E0A05C020042
:1015E000A8E6FF1F6CE4FF1F34BEFF1F18BEFF1FDD
:1015F000F0BCFF1F81BDFF1F45BDFF1FB05C020097
:1016000030BEFF1FC35C020082BDFF1FC89BFF1FCF
:1016100010BEFF1FD89EFF1FD65C0200C8BCFF1F74
:10162000A08CFF1FF8BCFF1F60BFFF1FE95C02001A
:101630006EBDFF1F9093FF1F2892FF1FF4BDFF1F79
:1016400031BEFF1F848CFF1F6C92FF1FD09EFF1FB7
:10165000002005F0E5FC142E05DC3B4B1B7813B98C
:10166000FFF7D2FC14E0A6F11503442B05D8364B46
:101670001B786BB9FFF7D6FC0AE0592E08DD324B18
:101680001B782BB9314B012202201A7005F0EAFCBD
:101690002F4B304A304831491A6000F0E5FA304BA0
:1016A0002D4830491A7800F0F1FA4AE02E4CD9F86A
:1016B000002023680132092BC9F8002015DC2B49D2
:1016C0002B48FEF7DCFE2B4B294819683039FEF712
:1016D0008FFF29492648FEF7D2FE25482168FEF7EC
:1016E00087FF2368013323602BE0DAF800300125FF
:1016F0002B44CAF80030154B8BF8005003201D70A6
:1017000005F0B0FC1D491A48FEF7B9FE02A801F029
:10171000B4F89DF808101648C1F10A0120F072FFD4
:1017200017491348FEF7B7FE16491148FEF7B3FEF6
:10173000154800F075FB256003E0002008F0ACFDC3
:10174000CBE605B0BDE8F08F31BEFF1FC6BCFF1F62
:101750003C92FF1F6C92FF1F9093FF1F2892FF1F68
:10176000A08CFF1F4092FF1F848CFF1F645C02004F
:10177000A8E6FF1FD09EFF1F295D0200555D0200F5
:101780006E5D0200A45D0200F4BDFF1F70B5212054
:1017900017F086F9E8B9434B1D6804461E463268C7
:1017A00040F6B733521B9A4207D8642017F0A6FAC6
:1017B000212017F075F90444F1E754B920460121BE
:1017C00020F022FB0120014620F01EFB364B374A59
:1017D0001A60374B1B7A012B0BD1364B1B7843B960
:1017E000354B1B78032B02D0032003F0C1FC08F01B
:1017F000D5FF324B324C1A6801321A60314B1A68ED
:101800000623B2FBF3F003FB102017F077FA2278DF
:101810002D4BDAB11A68002001321A6008F03CFD45
:101820002A4B1B78ABB12A4B1B6893B105F01EF80D
:10183000284B1B786BB11B4A1168274A12688A1A19
:101840004EF660214B439A4217D202E01A680132E9
:101850001A60224B1B784BB123783BB1154B1B7898
:1018600023B91F4B0120187005F00CF805F0D2FCCD
:10187000B8B1BDE87040FFF7E5BB1A4B1A48002528
:1018800001261E70257000F0CBFA184B18481E6018
:101890002946202222F014FF1648174900F015FAB5
:1018A000D7E770BD6CE4FF1F0CED00E00400FA0503
:1018B0004DBDFF1F45BDFF1FC8BCFF1F9493FF1FF9
:1018C00080BDFF1FF0BDFF1F9893FF1F4CBDFF1F82
:1018D000049FFF1FB88CFF1F34BEFF1F31BEFF1FC8
:1018E000C6BCFF1F808CFF1FF4BDFF1F848CFF1F31
:1018F0001C94FF1F9093FF1F5492FF1F08B520F008
:1019000039FA3221084A094800F022FA3221084AFD
:10191000084800F01DFA0848084A4FF47A71BDE8FB
:10192000084000F015BA00BF8D1700002892FF1F75
:10193000C90400004092FF1F5492FF1FAD04000035
:101940002DE9F04F0A46C9B00023CD5CD47844EAB3
:101950000564557844EA0544957803F1200644EA85
:10196000052404336D46402B745102F10402ECD17E
:1019700008AB002208AF9C6B5E6ABD5859683544BD
:101980004FEA744686EAF44686EA94242C444FEAE9
:10199000F11585EAB14585EAD10104322144C02A16
:1019A000196403F10403E5D1026D0092436D426EA8
:1019B0000193856D836EC66D076E02950396C56EA5
:1019C0000497059217469DE8140006931E46DDF81D
:1019D0000CC0049B02990795A846002505F1200B31
:1019E000E9465BF809A0DFF8989055F80990D144D2
:1019F0004FEAB31A8AEAF32A8AEA736AD14426EADA
:101A0000030B07EA030A8BEA0A0AD144C84481EAB5
:101A1000040901EA040A09EA020989EA0A094FEA03
:101A2000B20A8AEA723A8AEAB25A0435D144B5F562
:101A3000807FC444C14408D0B0463E461F4663463A
:101A40008C46214614464A46C8E7009D4D4405652C
:101A5000019D2A444265029A039D1444049A8465B8
:101A600062440266059A134429444366079D069B17
:101A7000C1651F442E448766C66649B0BDE8F08F35
:101A8000E45D02000023036400220023C0E9122366
:101A90000A4B03650A4B43650A4B83650A4BC365D2
:101AA0000A4B03660A4B43660A4B836603F1745381
:101AB000A3F52303A3F69243C366704767E6096A5A
:101AC00085AE67BB72F36E3C3AF54FA57F520E515F
:101AD0008C68059BABD9831F2DE9F04106460F4664
:101AE00001EB0208474516D0336C17F8012BF2546E
:101AF0000133402B3364F5D130463146FFF720FFE8
:101B0000D6E9124514F5007445F100050023C6E935
:101B100012453364E6E7BDE8F081026C2DE9F84F29
:101B2000372A88464FF08001814602F10103815433
:101B300006D8382B14D0002209F803200133F8E727
:101B40003F2B04D8002209F803200133F8E7484668
:101B50004946FFF7F5FE48460021382222F0B0FD45
:101B6000D9F84030D900D9E91223521843F10003C3
:101B70004FEA122A160C140E4AEA036A4FEA132B94
:101B800046EA03461F0C44EA03241D0EC9E912234A
:101B900089F83B30494689F83F2089F83EA089F80A
:101BA0003D6089F83C4089F83AB089F8397089F885
:101BB00038504846FFF7C4FE43460321D9F8500089
:101BC000CA00D0401870D9F85400D0401871D9F824
:101BD0005800D0401872D9F85C00D0401873D9F87A
:101BE0006000D0401874D9F86400D0401875D9F856
:101BF0006800D0401876D9F86C00013920FA02F25A
:101C00001A774A1C03F10103D8D1BDE8F88FFFFF12
:101C100007B5064B06499A680092DA6801920CCB28
:101C2000044822F081FF03B05DF804FB5C93FF1FC2
:101C3000E45E02006C93FF1F064B1A68064B1A60A5
:101C4000064A12685A60064A12689A60054A126883
:101C5000DA607047548004405C93FF1F5880044052
:101C60005C80044060800440036873B18B4205D1FE
:101C70001B69036070478A4204D013461A69002A20
:101C8000F9D102E00A691A617047704770B50646DB
:101C90000C461546FFF7E8FF33680BB9346004E0E3
:101CA0001A690AB11346FBE71C6117F007F82368AD
:101CB0000322C01A4FF4FA536B43B5FBF2F55D43B0
:101CC000002360602560236170BD38B505460C4671
:101CD000FFF7CAFF2B680BB92C6004E01A690AB140
:101CE0001346FBE71C6116F0E9FF2368C01A0023C6
:101CF0006060236138BD38B50C4616F0DFFF6268BE
:101D0000236813449842054605D36268934208D27B
:101D10006268824205D86268954207D262689A4238
:101D200004D8A560E36820469847656038BD38B59B
:101D300005462C68002CFCD021462846FFF7DBFF27
:101D40002469F7E708B50148FFF7F1FF9093FF1FFB
:101D500010B54FF47A746143C260002201604260A2
:101D6000026110BD4FF47A73594301607047FFFF61
:101D7000F8B504460E4615461F46044AFFF7E8FF2D
:101D80006661E561A7612046F8BD00BFB11D000096
:101D900010B50021044680F82010FFF7E3FF21462C
:101DA0000248BDE81040FFF790BF00BF9093FF1FAF
:101DB00010B590F8203004463BB9012380F820305C
:101DC0004169BDE81040FFF7CDBF012B10D1094894
:101DD0002146FFF749FFE36913B9A06920B910BD97
:101DE0002046984720B1F8E7BDE81040FFF7D0BF84
:101DF00010BD00BF9093FF1F0022016102730270AB
:101E0000704701617047037B0B2B07D05A1CD2B27D
:101E10000273C1540023835401207047002070478F
:101E2000002303730370704710B5046902782178AA
:101E3000002321B9D2F1010038BF002010BD91422A
:101E400006D1E2185178C21801330B2B5278F0D129
:101E5000002010BD2DE9F043B7B0054622F0E2FEA8
:101E60000628044603D81E2016F048FFD3E01AA81F
:101E7000FFF708FE294622461AA8FFF72DFE20226A
:101E80001AA86749674CFFF727FE1AA80AA9FFF7A7
:101E900044FE9DF8283023F007038DF828309DF884
:101EA000473003F03F0343F040030AA900222046D5
:101EB0008DF8473009F0AEFA1AA8FFF7E3FD12A833
:101EC00000F0E8FC1AA812A91022FFF705FE1AA8D4
:101ED00055491022FFF700FE20221AA82146FFF7DD
:101EE000FBFD21461AA8FFF718FE1AA8FFF7CAFD46
:101EF0001AA812A91022FFF7EFFD1AA84A491022CA
:101F0000FFF7EAFD20221AA84849FFF7E5FD1AA8C5
:101F100002A9FFF702FE464B9DF80850D3F8008057
:101F2000444B20781A68531C02F11F0902F1200C5F
:101F3000C2EB08014B4503F1FF37C2F1000619441B
:101F400055D13B4B3B4C19608542276004D0394B3F
:101F50001A6801321A605EE00DF1070000F03FFCE4
:101F60009DF807302F48012B0AD103F03BFA18B92E
:101F70002C48314A0AA909E002A80AA92E4A0BE016
:101F800003F030FA28B92748284A0AA909F042FA8A
:101F900025E0264A02A80AA909F03CFA1AA8FFF788
:101FA00071FD1AA812A92022FFF796FD1AA823494D
:101FB0001022FFF791FD1AA802A92022FFF78CFD3D
:101FC00020221AA81649FFF787FD1AA80AA9FFF7C9
:101FD000A4FD144819490AAA202307F0FBFE236830
:101FE00001332360164B00221A70012014E0854251
:101FF00004D00F4B19600F4B1F60A8E702A83044B4
:102000002644C55CF05C1E460133634590D1084B05
:102010001960084B1E60002037B0BDE8F08300BF98
:102020009C93FF1F1C94FF1F7C93FF1FBC93FF1FFB
:102030009493FF1F9893FF1FDC93FF1F6C93FF1F68
:1020400018BEFF1F2DE9F043B7B0054622F0EAFDA8
:102050000628044603D81E2016F050FE73E01AA886
:10206000FFF710FD294622461AA8FFF735FD20226A
:102070001AA86549654CFFF72FFD1AA80AA9FFF7B2
:102080004CFD9DF8283023F007038DF828309DF88B
:10209000473003F03F0343F040030AA900222046E3
:1020A0008DF8473009F0B6F91AA8FFF7EBFC12A833
:1020B00000F0F0FB1AA812A91022FFF70DFD1AA8D4
:1020C00053491022FFF708FD20221AA82146FFF7E6
:1020D00003FD21461AA8FFF720FD1AA8FFF7D2FC3E
:1020E0001AA812A91022FFF7F7FC1AA848491022D3
:1020F000FFF7F2FC20221AA84649FFF7EDFC1AA8C8
:1021000002A9FFF70AFD444B9DF80850D3F8008060
:10211000424B20781A68531C02F11F0902F1200C6F
:10212000C2EB08014B4503F1FF37C2F10006194429
:1021300052D1394B394C19608542276005D0374B55
:102140001A6801321A6000205BE00DF1070000F010
:1021500046FB9DF80730022B33D02C4803F042F9A0
:1021600028B90AA92E4A294809F054F925E00AA9F4
:102170002B4A02A809F04EF91AA8FFF783FC1AA807
:1021800012A92022FFF7A8FC1AA826491022FFF75F
:10219000A3FC1AA802A92022FFF79EFC20221AA85D
:1021A0001949FFF799FC1AA80AA9FFF7B6FC1748C6
:1021B0001C490AAA202307F00DFE1B4B01221A70AE
:1021C00005E01A4A1278002ABDD1174A1370236815
:1021D00001332360012014E0854204D00E4B1960C6
:1021E0000E4B1F60ABE702A830442644C55CF05C90
:1021F0001E460133634593D1074B1960074B1E60A0
:10220000A1E737B0BDE8F0839C93FF1F1C94FF1F2C
:102210007C93FF1FDC93FF1F9493FF1F9893FF1F76
:10222000BC93FF1F6C93FF1F18BEFF1F31BEFF1F23
:1022300030B59DB0054622F0F5FC0628044603D8CB
:102240001E2016F05BFD22E06846FFF71BFC2246CD
:10225000684629460F4CFFF73FFC202268460E498E
:10226000FFF73AFC68462146FFF757FC0B492078F8
:102270000A78002382420AD1CA18E01801331E2BC3
:1022800052784078F6D1131A5842584100E00020A5
:102290001DB030BD1C94FF1F9C93FF1FFC93FF1FBC
:1022A0001FF068BD10B5084B00F14C0203F114019A
:1022B00053F8044B42F8044B8B42F9D100230366D8
:1022C00080F8483010BD00BF888CFF1F2DE9F04F0B
:1022D000416D826DC36DD0F84C80D0F850C085B090
:1022E00099460191029203934646134600240A46FA
:1022F0006146E5B20F2D07D883EA020A0AEA010A0D
:102300008AEA030A334F3FE004F10D0B04F108079A
:102310000BF00F0B07F00F070BF1020B023705F064
:102320000F0A50F8277050F82BB000EB8A0A8BEA9E
:10233000070BDAF808708BEA070BA71C07F00F07EA
:102340000237132D50F827708BEA07074FEAF7770B
:10235000CAF80870D0D9272D05D882EA010A8AEA7E
:10236000030A1D4F10E03B2D09D842EA010A02EA98
:1023700001070AEA030A4AEA070A184F04E082EA58
:10238000010A174F8AEA030A05F00F050235574480
:1023900050F82550013405EBF6653D44502C4D4472
:1023A0004FEAB10105D0994613460A4631462E46FA
:1023B0009FE7019C2144416502990A448265039A82
:1023C000454466441344C5640665C36505B0BDE86D
:1023D000F08F00BF9979825AA1EBD96EDCBC1B8FBC
:1023E000D6C162CA90F8483083F003020133DBB2F1
:1023F0000244402B10B51172044680F8483004D1D5
:10240000FFF764FF002384F8483010BD08B5026E62
:1024100001320266FFF7E6FF012008BD10B58021FA
:102420000446FFF7DFFF94F84830382B20464FF082
:102430000001F6D1FFF7D6FF20460021FFF7D2FFBB
:1024400020460021FFF7CEFF216E2046490FFFF7FF
:10245000C9FF216E2046C1F34751FFF7C3FF216E2C
:102460002046C1F34731FFF7BDFF216E2046C1F37F
:102470004711FFF7B7FF216EC900204601F0F801B0
:10248000BDE81040FFF7AEBF10B50446FFF7C6FF2A
:102490000023E2180433D16C142B09BAD164F8D1AB
:1024A00004F14C0010BDF8B500F16406174604466F
:1024B0000D4630460021402222F002F9402F18DD5F
:1024C0002046FFF7EFFE2F44BD4206D0236815F8E3
:1024D000011B1B6820469847F6E72046FFF7D4FF0C
:1024E00000F1140250F8041B46F8041B9042F9D185
:1024F00004E0304629463A4615F032FC2046FFF704
:10250000D1FE254604F1400695F864102368204664
:102510001B6881F0360101359847B542F4D1F8BD0A
:1025200070B50446FFF7B0FF04F1A40300F11402F4
:1025300050F8041B43F8041B9042F9D12046FFF7E2
:10254000B1FE04F14006254695F864102368204644
:102550001B6881F05C0101359847B542F4D104F164
:1025600014062546236895F8A4101B6820460135FB
:102570009847B542F6D12046BDE87040FFF784BFCA
:10258000024B00221A71024A1A6070473C94FF1FE6
:10259000085F020080E806007047FFFF1E2391FBE2
:1025A000F3F10B0E70B51E4E03740B140446002598
:1025B00043740B1281608374C174057394E8060040
:1025C00045738573C5733046FFF76DFF336804F1BB
:1025D0000C015B680822304698473046FFF7A0FFA1
:1025E0006061C37CE56103F00F03A361E269C11878
:1025F0001202E261495D01350A43042DE261F5D121
:10260000084B22F0004292FBF3F103FB1122E2613E
:1026100020342046044922F087FA204670BD00BFCE
:102620003C94FF1F40420F00105F0200074B1860F0
:10263000074B1B681844074B1860074B02221A709F
:10264000064B1A68064B1A60704700BFF494FF1FD0
:102650009C8CFF1F0495FF1FF894FF1F6CE4FF1F65
:102660000095FF1F70B51649164C0A682368164876
:102670000068801AB0F57A7F02F57A7603F10105D9
:1026800002D32B463246F2E7104D0A602A682360D7
:102690009A4213D80E4B1B6883B1984710B1FFF7CD
:1026A000C5FF0BE00B4B1A68064B1B6813442B60ED
:1026B000094B1A78003218BF01221A70206870BDC9
:1026C0000095FF1FF494FF1F6CE4FF1F0495FF1F8C
:1026D000FC94FF1F9C8CFF1FF894FF1F08B5FFF7A9
:1026E000C1FF014B187808BDF894FF1FF8B50646E6
:1026F0000D468F180C46BC4206D020461FF070FBDA
:10270000731B18550134F6E7F8BDF8B506460D46BB
:102710008F180C46BC4206D0731B2046195D1FF073
:1027200073FB0134F6E7F8BD08B54FF4D56101221B
:10273000FFF7DCFF012008BD4FF4D5610122FFF750
:10274000E4BF08B540F2A9610122FFF7CFFF0120E5
:1027500008BD40F2A9610122FFF7D7BF08B540F2DA
:10276000AA610122FFF7C2FF012008BD40F2AA6161
:102770000122FFF7CABF08B540F2D561D022FFF7AA
:10278000B5FFD02008BD40F2D561D022FFF7BDBF14
:1027900008B540F2AB610122FFF7A8FF012008BD98
:1027A00040F2AB610122FFF7B0BF08B540F2AC6167
:1027B0000122FFF79BFF012008BD40F2AC6101221E
:1027C000FFF7A3BF08B540F2AD610122FFF78EFF0E
:1027D000012008BD40F2AD610122FFF796BF08B5A8
:1027E00040F2AE610122FFF781FF012008BD40F2F7
:1027F000AE610122FFF789BF08B540F2AF61012247
:10280000FFF774FF012008BD40F2AF610122FFF71E
:102810007CBF08B54FF4D6610122FFF767FF0120A6
:1028200008BD4FF4D6610122FFF76FBF08B540F233
:10283000D3610122FFF75AFF012008BD40F2D361A6
:102840000122FFF762BF08B540F2D4610122FFF711
:102850004DFF012008BD40F2D4610122FFF755BFB2
:1028600008B540F2B1610122FFF740FF012008BD29
:1028700040F2B1610122FFF748BF08B540F2B261F2
:102880000122FFF733FF012008BD40F2B2610122AF
:10289000FFF73BBF08B540F2B3612022FFF726FFE8
:1028A000202008BD40F2B3612022FFF72EBF08B5FB
:1028B00040F2A5610222FFF719FF022008BD40F295
:1028C000A5610222FFF721BF08B540F21C61012279
:1028D000FFF70CFF012008BD40F21C610122FFF749
:1028E00014BF08B540F21D610122FFF7FFFE012071
:1028F00008BD40F21D610122FFF707BF08B540F295
:102900001E610122FFF7F2FE012008BD40F21E61A8
:102910000122FFF7FABE08B540F21F610122FFF75E
:10292000E5FE012008BD40F21F610122FFF7EDBE68
:1029300008B54FF4C4610122FFF7D8FE012008BD9D
:102940004FF4C4610122FFF7E0BE08B540F22161F7
:102950000122FFF7CBFE012008BD40F221610122D8
:10296000FFF7D3BE08B540F222610122FFF7BEFE99
:10297000012008BD40F222610122FFF7C6BE08B562
:1029800040F223610122FFF7B1FE012008BD40F2B1
:1029900023610122FFF7B9BE08B540F2246101228C
:1029A000FFF7A4FE012008BD40F224610122FFF7D9
:1029B000ACBE08B540F225610122FFF797FE012069
:1029C00008BD40F225610122FFF79FBE08B540F225
:1029D00026610122FFF78AFE012008BD40F2266130
:1029E0000122FFF792BE08B540F227610122FFF7EE
:1029F0007DFE012008BD40F227610122FFF785BE60
:102A000008B54FF4C5610122FFF770FE012008BD33
:102A10004FF4C5610122FFF778BE08B540F2296185
:102A20000122FFF763FE012008BD40F22961012267
:102A3000FFF76BBE08B540F22A610122FFF756FE90
:102A4000012008BD40F22A610122FFF75EBE08B5F1
:102A500040F22B610122FFF749FE012008BD40F240
:102A60002B610122FFF751BE08B540F22C61012213
:102A7000FFF73CFE012008BD40F22C610122FFF768
:102A800044BE08B540F22D610122FFF72FFE012060
:102A900008BD40F22D610122FFF737BE08B540F2B4
:102AA0002E610122FFF722FE012008BD40F22E61B7
:102AB0000122FFF72ABE08B540F22F610122FFF77D
:102AC00015FE012008BD40F22F610122FFF71DBE57
:102AD00008B54FF4C6610122FFF708FE012008BDCA
:102AE0004FF4C6610122FFF710BE08B540F2316114
:102AF0000122FFF7FBFD012008BD40F231610122F8
:102B0000FFF703BE08B540F232610122FFF7EEFD88
:102B1000012008BD40F232610122FFF7F6BD08B581
:102B200040F233610122FFF7E1FD012008BD40F2D0
:102B300033610122FFF7E9BD08B5AC210122FFF79F
:102B4000D5FD012008BDAC210122FFF7DEBD08B58F
:102B5000AD210122FFF7CAFD012008BDAD210122F0
:102B6000FFF7D3BD08B5AE210122FFF7BFFD01205D
:102B700008BDAE210122FFF7C8BD08B5AF21012273
:102B8000FFF7B4FD012008BDAF210122FFF7BDBD55
:102B900008B5B0210122FFF7A9FD012008BDB02131
:102BA0000122FFF7B2BD08B5B1210122FFF79EFD5A
:102BB000012008BDB1210122FFF7A7BD08B5B22150
:102BC0000122FFF793FD012008BDB2210122FFF78A
:102BD0009CBD08B5B3210122FFF788FD012008BD87
:102BE000B3210122FFF791BD08B5B4210122FFF7FF
:102BF0007DFD012008BDB4210122FFF786BD08B587
:102C0000B5210122FFF772FD012008BDB521012287
:102C1000FFF77BBD08B5B6210122FFF767FD012054
:102C200008BDB6210122FFF770BD08B5B72101220A
:102C3000FFF75CFD012008BDB7210122FFF765BD4C
:102C400008B5B8210122FFF751FD012008BDB821C8
:102C50000122FFF75ABD08B5B9210122FFF746FD51
:102C6000012008BDB9210122FFF74FBD08B5BA21E7
:102C70000122FFF73BFD012008BDBA210122FFF729
:102C800044BD08B5BB210122FFF730FD012008BD7E
:102C9000BB210122FFF739BD08B5BC210122FFF796
:102CA00025FD012008BDBC210122FFF72EBD08B57E
:102CB000BD210122FFF71AFD012008BDBD2101221F
:102CC000FFF723BD08B5BE210122FFF70FFD01204C
:102CD00008BDBE210122FFF718BD08B5BF210122A2
:102CE000FFF704FD012008BDBF210122FFF70DBD44
:102CF00008B5C0210122FFF7F9FC012008BDC02161
:102D00000122FFF702BD08B5C1210122FFF7EEFC49
:102D1000012008BDC1210122FFF7F7BC08B5C2217F
:102D20000122FFF7E3FC012008BDC2210122FFF7C9
:102D3000ECBC08B5C3210122FFF7D8FC012008BD77
:102D4000C3210122FFF7E1BC08B564210122FFF78E
:102D5000CDFC012008BD64210122FFF7D6BC08B5D7
:102D600065210122FFF7C2FC012008BD6521012277
:102D7000FFF7CBBC08B566210122FFF7B7FC0120A5
:102D800008BD66210122FFF7C0BC08B567210122FA
:102D9000FFF7ACFC012008BD67210122FFF7B5BC9D
:102DA00008B568210122FFF7A1FC012008BD6821B8
:102DB0000122FFF7AABC08B569210122FFF796FCA2
:102DC000012008BD69210122FFF79FBC08B56A21D7
:102DD0000122FFF78BFC012008BD6A210122FFF7C9
:102DE00094BC08B56B210122FFF780FC012008BDCF
:102DF0006B210122FFF789BC08B56C210122FFF786
:102E000075FC012008BD6C210122FFF77EBC08B5CE
:102E10006D210122FFF76AFC012008BD6D2101220E
:102E2000FFF773BC08B56E210122FFF75FFC01209C
:102E300008BD6E210122FFF768BC08B56F21012291
:102E4000FFF754FC012008BD6F210122FFF75DBC94
:102E500008B570210122FFF749FC012008BD70214F
:102E60000122FFF752BC08B571210122FFF73EFC99
:102E7000012008BD71210122FFF747BC08B572216E
:102E80000122FFF733FC012008BD72210122FFF768
:102E90003CBC08B573210122FFF728FC012008BDC6
:102EA00073210122FFF731BC08B574210122FFF71D
:102EB0001DFC012008BD74210122FFF726BC08B5C6
:102EC00075210122FFF712FC012008BD75210122A6
:102ED000FFF71BBC08B576210122FFF707FC012094
:102EE00008BD76210122FFF710BC08B57721012229
:102EF000FFF7FCFB012008BD77210122FFF705BC8D
:102F000008B578210122FFF7F1FB012008BD7821E7
:102F10000122FFF7FABB08B579210122FFF7E6FB92
:102F2000012008BD79210122FFF7EFBB08B57A2106
:102F30000122FFF7DBFB012008BD7A210122FFF708
:102F4000E4BB08B57B210122FFF7D0FB012008BDBF
:102F50007B210122FFF7D9BB08B540F26461012251
:102F6000FFF7C4FB012008BD40F264610122FFF7B6
:102F7000CCBB08B540F265610122FFF7B7FB012029
:102F800008BD40F265610122FFF7BFBB08B540F202
:102F900066610122FFF7AAFB012008BD40F26661CD
:102FA0000122FFF7B2BB08B540F267610122FFF7CB
:102FB0009DFB012008BD40F267610122FFF7A5BB20
:102FC00008B54FF4CD610122FFF790FB012008BD49
:102FD0004FF4CD610122FFF798BB08B540F269615B
:102FE0000122FFF783FB012008BD40F26961012245
:102FF000FFF78BBB08B540F26A610122FFF776FB51
:10300000012008BD40F26A610122FFF77EBB08B5CE
:1030100040F26B610122FFF769FB012008BD40F21D
:103020006B610122FFF771BB08B540F26C610122B0
:10303000FFF75CFB012008BD40F26C610122FFF745
:1030400064BB08B540F26D610122FFF74FFB012020
:1030500008BD40F26D610122FFF757BB08B540F291
:103060006E610122FFF742FB012008BD40F26E6154
:103070000122FFF74ABB08B540F26F610122FFF75A
:1030800035FB012008BD40F26F610122FFF73DBB17
:1030900008B54FF4CE610122FFF728FB012008BDDF
:1030A0004FF4CE610122FFF730BB08B540F27161E9
:1030B0000122FFF71BFB012008BD40F271610122D4
:1030C000FFF723BB08B540F272610122FFF70EFB48
:1030D000012008BD40F272610122FFF716BB08B55E
:1030E00040F273610122FFF701FB012008BD40F2AD
:1030F00073610122FFF709BB08B540F27461012238
:10310000FFF7F4FA012008BD40F274610122FFF7D5
:10311000FCBA08B540F275610122FFF7E7FA012019
:1031200008BD40F275610122FFF7EFBA08B540F221
:1031300076610122FFF7DAFA012008BD40F27661DC
:103140000122FFF7E2BA08B540F277610122FFF7EA
:10315000CDFA012008BD40F277610122FFF7D5BA10
:1031600008B54FF4CF610122FFF7C0FA012008BD76
:103170004FF4CF610122FFF7C8BA08B540F2796178
:103180000122FFF7B3FA012008BD40F27961012264
:10319000FFF7BBBA08B540F27A610122FFF7A6FA41
:1031A000012008BD40F27A610122FFF7AEBA08B5EE
:1031B00040F27B610122FFF799FA012008BD40F23D
:1031C0007B610122FFF7A1BA08B546211022FFF763
:1031D0008DFA102008BD46211022FFF796BA08B5D7
:1031E00062210222FFF782FA022008BD6221022238
:1031F000FFF78BBA08B55C210622FFF777FA0620A5
:1032000008BD5C210622FFF780BA08B556210622C8
:10321000FFF76CFA062008BD56210622FFF775BAA3
:1032200037B501390446172900F25581DFE811F05E
:103230001800240031003E004B0058006500720069
:103240007F008C009900A600B300C000CD00DA001A
:10325000E700F40001010E011B01280135014201C4
:103260000DF10700FFF730FB9DF807502046382D81
:10327000A8BF3825DC2129E10DF10700FFF731FB5C
:103280009DF807502046382DA8BF38254FF48A7185
:103290001CE10DF10700FFF731FB9DF807502046B8
:1032A000382DA8BF38254FF4A6710FE10DF10700A6
:1032B000FFF731FB9DF807502046382DA8BF382571
:1032C0004FF4C27102E10DF10700FFF731FB9DF8E9
:1032D00007502046382DA8BF38254FF4DE71F5E0A1
:1032E0000DF10700FFF731FB9DF807502046382D00
:1032F000A8BF38254FF4FA71E8E00DF10700FFF799
:1033000031FB9DF807502046382DA8BF38254FF4D3
:103310000B71DBE00DF10700FFF731FB9DF8075063
:103320002046382DA8BF38254FF41971CEE00DF195
:103330000700FFF731FB9DF807502046382DA8BF46
:1033400038254FF42771C1E00DF10700FFF731FB7D
:103350009DF807502046382DA8BF38254FF4357109
:10336000B4E00DF10700FFF731FB9DF80750204650
:10337000382DA8BF38254FF44371A7E00DF10700A1
:10338000FFF731FB9DF807502046382DA8BF3825A0
:103390004FF451719AE00DF10700FFF731FB9DF8F2
:1033A00007502046382DA8BF38254FF45F718DE0B7
:1033B0000DF10700FFF731FB9DF807502046382D2F
:1033C000A8BF38254FF46D7180E00DF10700FFF7BD
:1033D00031FB9DF807502046382DA8BF38254FF403
:1033E0007B7173E00DF10700FFF731FB9DF807508B
:1033F0002046382DA8BF382540F2244166E00DF163
:103400000700FFF731FB9DF807502046382DA8BF75
:10341000382540F25C4159E00DF10700FFF731FB20
:103420009DF807502046382DA8BF382540F294411A
:103430004CE00DF10700FFF731FB9DF807502046E7
:10344000382DA8BF382540F2CC413FE00DF10700F0
:10345000FFF731FB9DF807502046382DA8BF3825CF
:1034600040F2045132E00DF10700FFF731FB9DF807
:1034700007502046382DA8BF382540F23C5125E0A2
:103480000DF10700FFF731FB9DF807502046382D5E
:10349000A8BF382540F2745118E00DF10700FFF77E
:1034A00031FB9DF807502046382DA8BF382540F243
:1034B000AC510BE00DF10700FFF731FB9DF8075011
:1034C0002046382DA8BF382540F2E4513822FFF7B6
:1034D0000DF9284600E0002003B030BD013A13B5D5
:1034E0000C46172A00F26881DFE812F01800250068
:1034F000330041004F005D006B00790087009500AC
:10350000A300B100BF00CD00DB00E900F70005011A
:10351000130121012F013D014B015901DC2138220A
:10352000FFF7F3F802A8382CA8BF382400F8014DA3
:10353000FFF7D2F940E14FF48A713822FFF7E5F83E
:1035400002A8382CA8BF382400F8014DFFF7D1F9A4
:1035500032E14FF4A6713822FFF7D7F802A8382CD1
:10356000A8BF382400F8014DFFF7D0F924E14FF44B
:10357000C2713822FFF7C9F802A8382CA8BF382436
:1035800000F8014DFFF7CFF916E14FF4DE71382254
:10359000FFF7BBF802A8382CA8BF382400F8014D6B
:1035A000FFF7CEF908E14FF4FA713822FFF7ADF8D2
:1035B00002A8382CA8BF382400F8014DFFF7CDF938
:1035C000FAE04FF40B713822FFF79FF802A8382C6D
:1035D000A8BF382400F8014DFFF7CCF9ECE04FF418
:1035E00019713822FFF791F802A8382CA8BF3824A7
:1035F00000F8014DFFF7CBF9DEE04FF427713822D8
:10360000FFF783F802A8382CA8BF382400F8014D32
:10361000FFF7CAF9D0E04FF435713822FFF775F89B
:1036200002A8382CA8BF382400F8014DFFF7C9F9CB
:10363000C2E04FF443713822FFF767F802A8382C34
:10364000A8BF382400F8014DFFF7C8F9B4E04FF4E3
:1036500051713822FFF759F802A8382CA8BF382436
:1036600000F8014DFFF7C7F9A6E04FF45F7138226B
:10367000FFF74BF802A8382CA8BF382400F8014DFA
:10368000FFF7C6F998E04FF46D713822FFF73DF867
:1036900002A8382CA8BF382400F8014DFFF7C5F95F
:1036A0008AE04FF47B713822FFF72FF802A8382CFC
:1036B000A8BF382400F8014DFFF7C4F97CE040F2C0
:1036C00024413822FFF721F802A8382CA8BF38245B
:1036D00000F8014DFFF7C3F96EE040F25C4138227B
:1036E000FFF713F802A8382CA8BF382400F8014DC2
:1036F000FFF7C2F960E040F294413822FFF705F885
:1037000002A8382CA8BF382400F8014DFFF7C1F9F2
:1037100052E040F2CC413822FEF7F7FF02A8382CE5
:10372000A8BF382400F8014DFFF7C0F944E040F28B
:1037300004513822FEF7E9FF02A8382CA8BF38242C
:1037400000F8014DFFF7BFF936E040F23C51382256
:10375000FEF7DBFF02A8382CA8BF382400F8014D83
:10376000FFF7BEF928E040F274513822FEF7CDFF92
:1037700002A8382CA8BF382400F8014DFFF7BDF986
:103780001AE040F2AC513822FEF7BFFF02A8382CF5
:10379000A8BF382400F8014DFFF7BCF90CE040F257
:1037A000E4513822FEF7B1FF02A8382CA8BF382414
:1037B00000F8014DFFF7BBF902B010BD013908B5A3
:1037C000172941D8DFE801F00C0E10121416181A50
:1037D0001C1E20222426282A2C2E30323436383A39
:1037E0007C212CE07D212AE07E2128E07F2126E03B
:1037F000802124E0812122E0822120E083211EE03B
:1038000084211CE085211AE0862118E0872116E03A
:10381000882114E0892112E08A2110E08B210EE03A
:103820008C210CE08D210AE08E2108E08F2106E03A
:10383000902104E0912102E0922100E093210122F5
:10384000FEF754FF012008BD002008BD01391729EB
:103850003FD8DFE801F00C0E10121416181A1C1EC7
:1038600020222426282A2C2E30323436383A7C2145
:103870002CE07D212AE07E2128E07F2126E08021A6
:1038800024E0812122E0822120E083211EE08421A6
:103890001CE085211AE0862118E0872116E08821A6
:1038A00014E0892112E08A2110E08B210EE08C21A6
:1038B0000CE08D210AE08E2108E08F2106E09021A6
:1038C00004E0912102E0922100E093210122FEF721
:1038D0001CBF7047013908B5172941D8DFE801F04E
:1038E0000C0E10121416181A1C1E20222426282A28
:1038F0002C2E30323436383A94212CE095212AE0AF
:10390000962128E0972126E0982124E0992122E0C1
:103910009A2120E09B211EE09C211CE09D211AE0C1
:103920009E2118E09F2116E0A02114E0A12112E0C1
:10393000A22110E0A3210EE0A4210CE0A5210AE0C1
:10394000A62108E0A72106E0A82104E0A92102E0C1
:10395000AA2100E0AB210122FEF7C8FE012008BD2C
:10396000002008BD013917293FD8DFE801F00C0E0F
:1039700010121416181A1C1E20222426282A2C2E57
:1039800030323436383A94212CE095212AE09621C1
:1039900028E0972126E0982124E0992122E09A212D
:1039A00020E09B211EE09C211CE09D211AE09E212D
:1039B00018E09F2116E0A02114E0A12112E0A2212D
:1039C00010E0A3210EE0A4210CE0A5210AE0A6212D
:1039D00008E0A72106E0A82104E0A92102E0AA212D
:1039E00000E0AB210122FEF790BE7047013908B517
:1039F000172941D8DFE801F00C0E10121416181A1E
:103A00001C1E20222426282A2C2E30323436383A06
:103A1000C4212CE0C5212AE0C62128E0C72126E0E8
:103A2000C82124E0C92122E0CA2120E0CB211EE0E8
:103A3000CC211CE0CD211AE0CE2118E0CF2116E0E8
:103A4000D02114E0D12112E0D22110E0D3210EE0E8
:103A5000D4210CE0D5210AE0D62108E0D72106E0E8
:103A6000D82104E0D92102E0DA2100E0DB210122A3
:103A7000FEF73CFE012008BD002008BD01391729D2
:103A80003FD8DFE801F00C0E10121416181A1C1E95
:103A900020222426282A2C2E30323436383AC421CB
:103AA0002CE0C5212AE0C62128E0C72126E0C82154
:103AB00024E0C92122E0CA2120E0CB211EE0CC2154
:103AC0001CE0CD211AE0CE2118E0CF2116E0D02154
:103AD00014E0D12112E0D22110E0D3210EE0D42154
:103AE0000CE0D5210AE0D62108E0D72106E0D82154
:103AF00004E0D92102E0DA2100E0DB210122FEF717
:103B000004BE7047013908B5172959D8DFE801F01C
:103B10000C0F1215181B1E2124272A2D303336397D
:103B20003C3F4245484B4E5140F2346143E040F245
:103B3000356140E040F236613DE040F237613AE005
:103B40004FF4C76137E040F2396134E040F23A6146
:103B500031E040F23B612EE040F23C612BE040F26C
:103B60003D6128E040F23E6125E040F23F6122E005
:103B70004FF4C8611FE040F241611CE040F2426135
:103B800019E040F2436116E040F2446113E040F274
:103B9000456110E040F246610DE040F247610AE005
:103BA0004FF4C96107E040F2496104E040F24A6124
:103BB00001E040F24B610122FEF798FD012008BDB3
:103BC000002008BD0139172957D8DFE801F00C0F94
:103BD0001215181B1E2124272A2D303336393C3F5D
:103BE0004245484B4E5140F2346143E040F235616A
:103BF00040E040F236613DE040F237613AE04FF498
:103C0000C76137E040F2396134E040F23A6131E0B7
:103C100040F23B612EE040F23C612BE040F23D611E
:103C200028E040F23E6125E040F23F6122E04FF49F
:103C3000C8611FE040F241611CE040F2426119E0BE
:103C400040F2436116E040F2446113E040F2456106
:103C500010E040F246610DE040F247610AE04FF4A7
:103C6000C96107E040F2496104E040F24A6101E0C5
:103C700040F24B610122FEF748BD7047013908B59B
:103C8000172959D8DFE801F00C0F1215181B1E2157
:103C900024272A2D303336393C3F4245484B4E517C
:103CA00040F24C6143E040F24D6140E040F24E6131
:103CB0003DE040F24F613AE04FF4CA6137E040F234
:103CC000516134E040F2526131E040F253612EE044
:103CD00040F254612BE040F2556128E040F2566119
:103CE00025E040F2576122E04FF4CB611FE040F243
:103CF00059611CE040F25A6119E040F25B6116E044
:103D000040F25C6113E040F25D6110E040F25E6100
:103D10000DE040F25F610AE04FF4CC6107E040F251
:103D2000616104E040F2626101E040F263610122FE
:103D3000FEF7DCFC012008BD002008BD0139172971
:103D400057D8DFE801F00C0F1215181B1E2124278D
:103D50002A2D303336393C3F4245484B4E5140F2D4
:103D60004C6143E040F24D6140E040F24E613DE085
:103D700040F24F613AE04FF4CA6137E040F25161DE
:103D800034E040F2526131E040F253612EE040F203
:103D900054612BE040F2556128E040F2566125E085
:103DA00040F2576122E04FF4CB611FE040F25961CD
:103DB0001CE040F25A6119E040F25B6116E040F20B
:103DC0005C6113E040F25D6110E040F25E610DE085
:103DD00040F25F610AE04FF4CC6107E040F26161BC
:103DE00004E040F2626101E040F263610122FEF70B
:103DF0008CBC7047653908B51F2975D8DFE801F01C
:103E0000101316191C1F2225282B2E3134373A3D4A
:103E1000404346494C4F5255585B5E6164676A6D3A
:103E200040F27C615BE040F27D6158E040F27E61EF
:103E300055E040F27F6152E04FF4D0614FE040F234
:103E400081614CE040F2826149E040F2836146E0EA
:103E500040F2846143E040F2856140E040F28661D7
:103E60003DE040F287613AE04FF4D16137E040F243
:103E7000896134E040F28A6131E040F28B612EE0EA
:103E800040F28C612BE040F28D6128E040F28E61BF
:103E900025E040F28F6122E04FF4D2611FE040F252
:103EA00091611CE040F2926119E040F2936116E0EA
:103EB00040F2946113E040F2956110E040F29661A7
:103EC0000DE040F297610AE04FF4D36107E040F261
:103ED000996104E040F29A6101E040F29B610122A5
:103EE000FEF704FC012008BD002008BD65391F292C
:103EF00073D8DFE801F0101316191C1F2225282B98
:103F00002E3134373A3D404346494C4F5255585B69
:103F10005E6164676A6D40F27C615BE040F27D61E6
:103F200058E040F27E6155E040F27F6152E04FF48C
:103F3000D0614FE040F281614CE040F2826149E0A3
:103F400040F2836146E040F2846143E040F28561E3
:103F500040E040F286613DE040F287613AE04FF494
:103F6000D16137E040F2896134E040F28A6131E0AA
:103F700040F28B612EE040F28C612BE040F28D61CB
:103F800028E040F28E6125E040F28F6122E04FF49C
:103F9000D2611FE040F291611CE040F2926119E0B1
:103FA00040F2936116E040F2946113E040F29561B3
:103FB00010E040F296610DE040F297610AE04FF4A4
:103FC000D36107E040F2996104E040F29A6101E0B8
:103FD00040F29B610122FEF798BB7047013908B59A
:103FE000032913D8DFE801F00205080B40F29C61B9
:103FF00007E040F29D6104E040F29E6101E040F282
:104000009F610122FEF772FB012008BD002008BD60
:104010000139032911D8DFE801F00205080B40F24D
:104020009C6107E040F29D6104E040F29E6101E086
:1040300040F29F610122FEF768BB704708B5084651
:10404000114603F095FA002008BDFFFF10B50446A5
:1040500012480AF075FD6379642B1ED9A37903F029
:104060000F03012B04D1E01D202103F081FA0DE0A4
:10407000022B02D10AF06AFD03E0032B06D10AF0FD
:1040800069FD0246E11D06480AF068FD044800216A
:104090004122BDE8104020F013BB10BD7175000037
:1040A0008498FF1F034B044819780022C901134666
:1040B00002F012BC0895FF1F7499FF1F10B50B4C3E
:1040C000407904F05FF8002220461346402102F0B8
:1040D00003FC20460021402220F0F2FA044800218F
:1040E0002022BDE8104020F0EBBA00BF8498FF1FEB
:1040F000B895FF1F30B504469DB084200D4604F0EE
:1041000041F800214122154820F0DAFA6846FDF70F
:10411000B9FC684612492022FDF7DEFC68462946B4
:104120002022FDF7D9FC68460D49FDF7F6FC012C6D
:1041300004D10A480A4908F063FE0DE0022C02D1BE
:104140000AF004FD03E0032C06D10AF003FD024649
:10415000024903480AF0A2FD1DB030BD8498FF1F3C
:10416000B895FF1F10B504464079A379042808D8F4
:104170004BB904F079F8E8B12046BDE81040FFF7EC
:1041800091BF812808D83BB903F0FCFF90B12046CD
:10419000BDE81040FFF792BF032B0BD81846E11D76
:1041A000FFF7A8FF0022044840211346BDE8104055
:1041B00002F092BB10BD00BF8498FF1FF0B5494DBF
:1041C000494E4A4C2B6831787278F9B00746009313
:1041D0002068474B03F03CFF56A80021882220F0BE
:1041E0006FFA444B5693444B5793444B5893402398
:1041F000599320235A9336AB5B937B79C92B37466F
:104200003F4E08D129682368203919440120FFF75F
:1042100071FF012314E0CA2B08D1296823682039D3
:1042200019440220FFF766FF022309E0CB2B08D1D7
:1042300029682368203919440320FFF75BFF032313
:1042400033702B68202B02DD264A203B13601AA80E
:10425000FDF718FC2A6821681AA8FDF73DFC1AA88A
:1042600002A9FDF75AFC3378012B0AAD0AD11D4B88
:1042700024491B6800931D4B234A1B68284608F0FD
:104280003BFD10E0022B02D10AF060FC03E0032B9F
:1042900009D10AF05FFC019000951A4802A920227A
:1042A00056AB0AF03BFD194BBA781A700022134640
:1042B0002846402102F010FB552003F06BF82068DF
:1042C00000214FF4806220F0FBF9002141220E48CA
:1042D00020F0F6F90B480021202279B0BDE8F0402B
:1042E00020F0EEB93CBDFF1FC89BFF1FB48CFF1F21
:1042F0001C94FF1F91400100974001009D40010068
:104300000895FF1FB895FF1F8498FF1FC8BCFF1FAB
:10431000064B197811B90A4603F03CBE042901D1B5
:10432000FFF74CBF024B23221A707047F0BCFF1FEF
:10433000C5BCFF1F70B55E4B1B78042B88B040F0E6
:10434000B5805C4D284603F05DF92C46064660B901
:1043500031460922584820F0B3F928463146502208
:1043600008B0BDE8704020F0ABB9822003F00AFF2E
:10437000524B1B781BB195F840301B070ED094F8B8
:104380004010002301F00F01CA180DF8032001337B
:10439000202BF9D100206946FFF7ACFE94F83920B4
:1043A000444B202A17D193F83A20202A2AD193F897
:1043B0003B20202A26D193F83C20202A22D193F8B2
:1043C0003D20202A1ED193F83E20202A1AD193F8AE
:1043D0003F30202B12E0AAB993F83A2092B993F813
:1043E0003B207AB993F83C2062B993F83D204AB952
:1043F00093F83E2032B993F83F30002B0CBF2025B4
:10440000402500E040252E4E2E4930461422FEF76E
:104410004AF8336827495B682A4630469847304651
:10442000FEF77EF86A46034600F1100618685968E0
:10443000154603C50833B3422A46F7D118682860E9
:10444000202200211F4820F03BF9142168460AF081
:104450008DFDBDF80420A28008AA054652F8191D5A
:1044600000989DF8063020601748A160A3719188DC
:104470009279C023E3718271C1228180E27308AA1C
:10448000103052F8121D2161928820F8042CC222AB
:10449000E2750021382220F013F9E84380B2C323EB
:1044A000A075E37700124B232076237708B070BD08
:1044B000F0BCFF1F50BEFF1F4DBDFF1F0895FF1F23
:1044C0003C94FF1FB895FF1F58BEFF1F38B5184B0F
:1044D0001B78013B04460D46032B23D8DFE803F08D
:1044E000020B0E1B0846134A21460EF00BFE00304D
:1044F00018BF012038BD0AF029FB01E00AF02AFBB1
:1045000003460C4920462A460AF064FBD0F101001C
:1045100038BF002038BD08462246064906F07AFF1B
:10452000002038BD044802F08FFA012038BD00BFDA
:104530000895FF1FB895FF1F165F0200F0B5A1B0E8
:1045400000210446402210A820F0BAF81F4B197829
:1045500021B920460A4603F01DFD34E0042932D17A
:104560001B490B686A4603F140070D4618685968F5
:10457000144603C40833BB422246F7D1684610A94B
:10458000FFF7A4FF044618B1124802F05DFA1AE0E2
:10459000552002F0FFFE214628684FF4806220F08B
:1045A0008FF8214610A8402220F08AF821464122A7
:1045B000094820F085F809482146202221B0BDE8AD
:1045C000F04020F07DB821B0F0BD00BFF0BCFF1F6F
:1045D000B48CFF1F2F5F02008498FF1FB895FF1F48
:1045E0007FB505460C46164600210C2201A820F096
:1045F00067F8284601A9054A234616B105F0EAFBEB
:1046000001E004F0F3F904B070BD00BFB895FF1FDE
:104610002DE9F04F91B0DFF8E481734D98F8003048
:1046200092466A46A2EBC3128B46002104AF0646AF
:10463000954628460A460DF0D6FC07F10C000CF012
:1046400090F807F118000CF08CF807F124000CF03A
:1046500088F898F8003005F11400DB014FF00111E3
:104660006B600CF0F1F80DF11009044600286CD1D4
:104670005E4B98F800207B60194605F12C009201F2
:104680000CF03DF97B68044600285ED198F80020C4
:10469000920105F1380099180CF031F90446002810
:1046A00053D105F1080005F12C0105F138020CF099
:1046B000FEFB0446002848D107F10C0005F12C014F
:1046C00001220CF0DEFB044600283ED107F1180061
:1046D00005F1380101220CF0D4FB0446A8BB07F118
:1046E000240007F10C0107F118020CF0E0FB04466E
:1046F00058BB05F1200005F1140107F124020DF06B
:104700000BF9044608BB05F1440005F1200107F14F
:104710000C020CF009FE0446B8B905F1500005F191
:10472000200107F118020CF0FFFD044668B905F1FD
:104730005C00A0F12401A0F130020DF0EDF8044678
:1047400018B928460DF088FC044607F10C000CF05F
:104750000FF807F118000CF00BF807F124000CF02B
:1047600007F80CB1224836E098F8003080226FF04C
:10477000090112FB0311B142DCBF6FF00A0612FB04
:104780000366202E0CD003DC1C2E0BD105230AE07F
:10479000302E03D0402E05D1082304E0072302E089
:1047A000062300E000238DE848081249CDF80C905C
:1047B000012300220C480DF0CFFF98F8002004469A
:1047C0004946D201504613F0CBFA07480EF092F852
:1047D000204624B1084802F037F94FF0FF30343753
:1047E000BD46BDE8F08F00BFD897FF1FD895FF1FCB
:1047F0004C5F02003D400000F75F02000895FF1F7C
:104800002DE9F04F95B0444B19784FF0FF3202EB91
:10481000C11202F10109083222F0070202AF6E460E
:10482000ADEB020D3D4A117802AC9A4619B90A4621
:1048300003F0B0FB6AE0042965D1DFF800B1384D20
:10484000DBF800301C2BD84610D023F01002202AB1
:104850000CD0402B0AD0334802F0F6F8012002F0C9
:1048600099FD0021CBF80010286847E0DFF8D0B0B0
:104870009BF800109BF80120009328682A4B03F056
:10488000E7FB2A4B2D6824221A702946D8F800200D
:104890007B6007F1080013F063FA284600214FF40B
:1048A00080621FF00DFFD8F80000214D07F10801CC
:1048B0002246FFF7ADFE7B6868B9F6229AF8001031
:1048C0001A709BF802302B7001222046C901134652
:1048D00002F002F804E0002216481A7002F0B4F860
:1048E000552002F057FD204600214A461FF0E8FE01
:1048F0002B78012B0AD0104B186800214FF48062EE
:104900001FF0DEFE02E0094B23221A704C37B54639
:10491000BD46BDE8F08F00BF0895FF1FF0BCFF1F2C
:10492000B48CFF1F705F02001C94FF1FC5BCFF1FEB
:10493000C8BCFF1F995F0200AC8CFF1F3CBDFF1F6E
:10494000C89BFF1F10B504461A480AF0F9F86079B1
:1049500064280DD803F088FC174B1B780BB9174857
:104960001AE0420617D52046BDE81040FFF748BFC1
:1049700000F13702D2B2022A15D900F17E02D2B27A
:10498000022A15D903F0FEFBC0B20B4B1B78002B9B
:10499000E5D0430607D40A4802F056F80020BDE8E7
:1049A000104002F0F7BC2046BDE81040FFF7B0BC55
:1049B0000020EAE7717500000895FF1FB05F020054
:1049C000CE5F02002DE9F0434E4C4F4D884600214A
:1049D0008FB08146174620460A460DF004FB05A815
:1049E0000BF0BFFE08A80BF0BCFE0BA80BF0B9FE45
:1049F0002B7804F11400DB014FF0011163600BF020
:104A000023FF00284FD1414E2A7804F12C00314673
:104A100092010BF074FF002845D12A78920104F12D
:104A20003800B1180BF06BFF00283CD104F10800EE
:104A300004F12C0104F138020CF039FA98BB05A8F6
:104A400004F12C0101220CF01CFA60BB08A804F14F
:104A5000380101220CF015FA28BB0BA805A908AAF9
:104A60000CF025FAF8B904F1200004F114010BAAA6
:104A70000CF052FFB8B904F1440004F1200105AA7A
:104A80000CF052FC78B904F1500004F1200108AA9E
:104A90000CF04AFC38B904F15C00A0F12401A0F14B
:104AA00030020CF039FF05A80BF062FE08A80BF0ED
:104AB0005FFE0BA80BF05CFE12480DF0CDFA044629
:104AC00068B1134801F0C0FF0E480DF013FF2046F7
:104AD000ACB1104801F0B8FF4FF0FF300FE04FF4D9
:104AE0000073039321462246CDF80090CDF8048050
:104AF0000297044801230DF0B3FD0446E4E70FB02C
:104B0000BDE8F0830C95FF1F0895FF1FD895FF1F88
:104B10004C5F0200F15F02002DE9F04F85B0394B88
:104B200002AF197800247C6019B90A4603F032FA02
:104B300064E004295FD1344DDFF8ECB02B689BF8BA
:104B40000020324EB3EBC21FEA4609D0304801F0D4
:104B50007BFF012002F01EFC2C603068214644E0FF
:104B6000DFF8C880DFF8BC9098F8001098F80120B2
:104B700000933068274B03F06BFA242389F8003048
:104B80009BF800303668AAEBC31295460DF1080B6E
:104B900031462A68204D584613F0E2F83046214647
:104BA0004FF480621FF08CFD381D59462A681B4E59
:104BB000FFF708FF60B9F62389F80030012298F862
:104BC0000230337028687968134601F085FE04E0EE
:104BD000134889F8004001F037FF552002F0DAFB56
:104BE0003378012B05D0286800214FF480621FF034
:104BF00067FDD54602E00B4B23221A700C37BD46E9
:104C0000BDE8F08FF0BCFF1F3CBDFF1FB48CFF1F41
:104C1000206002001C94FF1FAC8CFF1FC8BCFF1F4C
:104C20004C600200C5BCFF1F0895FF1FC89BFF1FFB
:104C300038B504461748184D09F082FF607964289A
:104C400014D803F011FB2B780BB9144807E0820647
:104C500004D52046BDE83840FFF75EBF104801F09C
:104C6000F3FE0020BDE8384002F094BB00F17E0264
:104C7000D2B2022A03D903F085FAC0B200E00020C4
:104C80002B78002BE1D08306E8D52046BDE83840DC
:104C9000FFF754BC717500000895FF1FB05F02005C
:104CA00066600200F0B58BB0064601A80BF059FD16
:104CB00036B204A8184F0BF054FDB50107A80BF04D
:104CC00050FD01A839462A460BF019FE044698B952
:104CD00004A879192A460BF012FE044660B907A809
:104CE00001A904AA0CF0E3F8044628B907A80B4967
:104CF000F2010BF03EFE044601A80BF039FD04A8BA
:104D00000BF036FD07A80BF033FD14B1044801F099
:104D10009BFE0BB0F0BD00BFD895FF1F7499FF1F1D
:104D20008A6002002DE9F043474C484D8846002137
:104D30008FB08146174620460A460DF054F905A863
:104D40000BF00FFD08A80BF00CFD0BA80BF009FDF4
:104D50002B7804F11400DB014FF0011163600BF0BC
:104D600073FD00284FD13A4E2A7804F12C003146C9
:104D700092010BF0C4FD002845D12A78920104F17C
:104D80003800B1180BF0BBFD00283CD104F108003D
:104D900004F12C0104F138020CF089F898BB05A845
:104DA00004F12C0101220CF06CF860BB08A804F19E
:104DB000380101220CF065F828BB0BA805A908AA48
:104DC0000CF075F8F8B904F1200004F114010BAAF5
:104DD0000CF0A2FDB8B904F1440004F1200105AAC9
:104DE0000CF0A2FA78B904F1500004F1200108AAED
:104DF0000CF09AFA38B904F15C00A0F12401A0F19A
:104E000030020CF089FD05A80BF0B2FC08A80BF0ED
:104E1000AFFC0BA80BF0ACFC0B480DF0F1F8024610
:104E200070B90C49CDF800901346CDF80480029774
:104E300005480DF09FFB044603480DF05BFD20463E
:104E40000FB0BDE8F08300BFC898FF1F0895FF1F93
:104E5000D895FF1F3D40000010B5064C064920467E
:104E6000FCF702FF20460549FCF7FEFE044B00203C
:104E7000187010BD9093FF1F1CBEFF1F38BEFF1F90
:104E800045BDFF1F10B5204B204C1B78012B02D1D4
:104E90002078002110E02B2B04D820784008014610
:104EA000002217E0552B02D80020217811E0802B3A
:104EB00004D82178002049080A460BE0AA2B03D821
:104EC00000200146227805E0D52B0AD82078002161
:104ED0004008024608F090FB002102460C4808F00A
:104EE0006FFB0B4808F0D2FA23780833DBB223704B
:104EF0004BB908480849FCF7B7FE06480749BDE822
:104F00001040FCF7E2BE10BDC6BCFF1FECBDFF1F8A
:104F1000D8BDFF1F9093FF1F1CBEFF1F38BEFF1F91
:104F200013B5422420461CF05BFF02AB234401343E
:104F3000462C03F8460CF5D1019802B010BD37B5E8
:104F40004224019002AB2344204613F8465C1CF037
:104F500047FF854203D0204629461CF055FF013407
:104F6000462CEFD103B030BD2DE9F74F614B624FB6
:104F70001878DFF8C081DFF8C091DFF8C0B1DFF842
:104F8000C0A11DF069F80546294604225B4810239C
:104F900007F082FA5A4B18781CF07AFA594B04221F
:104FA0000326014618601346544807F075FAB5FB0E
:104FB000F6F303EB4303E81A524B39681A688B186F
:104FC000D8F800201344B3FBF6F202EB42029B1A1E
:104FD000184413F093FEDFF86CC1DCF800300133A5
:104FE000CCF80030484B1878CDF804C01CF050FACB
:104FF0000422014613463860404807F04DFA434BFF
:1050000018781CF045FA042201461346C8F800003F
:105010003A4807F041FA3E4B18781CF039FA04225E
:1050200001461346C9F80000344807F035FA394BF9
:1050300018781CF02DFA042201461346CBF8000024
:105040002E4807F029FA344B18781CF021FA042274
:1050500001461346CAF80000284807F01DFA2F4BF6
:1050600018781CF0F9FF0446214604221023234837
:1050700007F012FA214807F0EDF9B4FBF6F303EB61
:105080004303E11ADAF80020DBF800301344D9F8C2
:1050900000201344B3FBF6F606EB4606981B0844C3
:1050A00013F02CFE1E4ADDF804C0136801331360B0
:1050B000DCF800209A4206D01A4B00221A701A4BD4
:1050C0001A4A1A6013E0DBF80020DAF800300D49C4
:1050D0001344D9F800201344D8F8002013443A6848
:1050E00013440A6813441D44114B6C401C6003B008
:1050F000BDE8F08F08BEFF1F7CBDFF1FA4BEFF1FD1
:105100004CBEFF1F48BDFF1F4DBEFF1F4EBEFF1F01
:105110004FBEFF1F11BEFF1FA0BEFF1F09BEFF1F16
:105120009893FF1F80BDFF1F0CED00E00400FA05FF
:10513000F0BDFF1FD49EFF1F58BDFF1F5CBDFF1FAA
:1051400060BDFF1F9493FF1F10B50023934203D04F
:10515000C45CCC540133F9E710BD70B5002494420F
:1051600004D0CD18065D2E550134F8E770BDFFFF61
:10517000034B00211860402202481FF0A1BA00BF73
:10518000C8BCFF1F88BDFF1F70B5044614F8010B93
:10519000C0B1FF28FAD00E4E1CF0DEFB3378032599
:1051A00013FB03F393FBF5F0A84013F0A7FD1CF0ED
:1051B0001FFC337813FB03F393FBF5F0A84013F0C7
:1051C0009DFDE3E70348BDE870401DF0D3B900BF83
:1051D000A08CFF1FA0E6FF1F10B54224204600212F
:1051E00001341CF011FEB4F5006FF7D110BD10B5FD
:1051F0004FF46A342046002104F5006405F0B4FB46
:10520000B4F57E3FF6D110BD30B50023D41E9C42CC
:105210000DDDCC58240EC454CD58C4182D0C657027
:10522000CD582D0AA570CD58E5700433EEE730BD9A
:10523000F7B50F461646C41C0025F31EAB4207EB1C
:10524000050004F1040416DD14F8062C14F8053CDE
:10525000120442EA032214F8043C1A4314F8073CEF
:1052600002A942EA036241F8042D0022134605F028
:105270004BFB0435E1E703B0F0BD70B505460C46C5
:1052800016460846002105F06FFB284621463246A7
:10529000BDE87040FFF7CCBF10B50A464FF46C3143
:1052A0000446FFF7B1FF00231846E15C0133202BD1
:1052B0000844FAD1B0F5FF5018BF012010BDFFFF20
:1052C00030B5154BC1B0012205461A704FF46C3150
:1052D000FE226846FFF798FF104A2B4605F1200191
:1052E00053F8040B42F8040B8B42F9D100242B5DD8
:1052F0000DF804300134202CF9D168464FF46C319C
:10530000FE22FFF7BAFF28464FF46C312246FFF722
:105310007BFF41B030BD00BF4CBDFF1F9C93FF1F02
:1053200010B5044608492022FFF76EFF2378FF2BB3
:1053300007D16378FF2B04D1A078FF3818BF012074
:1053400010BD012010BD00BF20B0030010B5044601
:1053500008492022FFF758FF2378FF2B07D16378F5
:10536000FF2B04D1A078FF3818BF012010BD012009
:1053700010BD00BF40B0030030B5C1B005464FF4CA
:105380006C316846FE22FFF73FFF002400AB234448
:105390002A5D83F840200134202CF7D168464FF471
:1053A0006C31FE22FFF769FF28464FF46C3122462C
:1053B000FFF72AFF41B030BD10B50446084920224E
:1053C000FFF722FF2378FF2B07D16378FF2B04D14F
:1053D000A078FF3818BF012010BD012010BD00BF0C
:1053E00060B0030010B5084920220446FFF70CFF07
:1053F00000231846E15C0133202B0844FAD1B0F5B4
:10540000FF5018BF012010BD80B0030037B501392F
:105410000446172900F23F81DFE811F0180025004B
:1054200031003D004900550061006D0079008500A4
:1054300091009D00A900B500C100CD00D900E50094
:10544000F100FD000901150121012D010DF10700F9
:10545000FDF77AFC9DF807502046382DA8BF382567
:105460004FF46E3112E10DF10700FDF778FC9DF865
:1054700007508A49382DA8BF3825204606E10DF18E
:105480000700FDF777FC9DF807508549382DA8BF28
:1054900038252046FAE00DF10700FDF776FC9DF86F
:1054A00007508049382DA8BF38252046EEE00DF181
:1054B0000700FDF775FC9DF807507B49382DA8BF04
:1054C00038252046E2E00DF10700FDF774FC9DF859
:1054D00007507649382DA8BF38252046D6E00DF173
:1054E0000700FDF773FC9DF807507149382DA8BFE0
:1054F00038252046CAE00DF10700FDF772FC9DF843
:1055000007506C49382DA8BF38252046BEE00DF164
:105510000700FDF771FC9DF807506749382DA8BFBB
:1055200038252046B2E00DF10700FDF770FC9DF82C
:1055300007506249382DA8BF38252046A6E00DF156
:105540000700FDF76FFC9DF807505D49382DA8BF97
:10555000382520469AE00DF10700FDF76EFC9DF816
:1055600007505849382DA8BF382520468EE00DF148
:105570000700FDF76DFC9DF807505349382DA8BF73
:105580003825204682E00DF10700FDF76CFC9DF800
:1055900007504E49382DA8BF3825204676E00DF13A
:1055A0000700FDF76BFC9DF807504949382DA8BF4F
:1055B000382520466AE00DF10700FDF76AFC9DF8EA
:1055C00007504449382DA8BF382520465EE00DF12C
:1055D0000700FDF769FC9DF807503F49382DA8BF2B
:1055E0003825204652E00DF10700FDF768FC9DF8D4
:1055F00007503A49382DA8BF3825204646E00DF11E
:105600000700FDF767FC9DF807503549382DA8BF06
:10561000382520463AE00DF10700FDF766FC9DF8BD
:1056200007503049382DA8BF382520462EE00DF10F
:105630000700FDF765FC9DF807502B49382DA8BFE2
:105640003825204622E00DF10700FDF764FC9DF8A7
:1056500007502649382DA8BF3825204616E00DF101
:105660000700FDF763FC9DF807502149382DA8BFBE
:10567000382520460AE00DF10700FDF762FC9DF891
:1056800007501C49382DA8BF382520463822FFF77F
:10569000BBFD284600E0002003B030BD38B8030051
:1056A00070B80300A8B80300E0B8030018B90300FD
:1056B00050B9030088B90300C0B90300F8B903006A
:1056C00030BA030068BA0300A0BA0300D8BA0300D6
:1056D00010BB030048BB030080BB0300B8BB030042
:1056E000F0BB030028BC030060BC030098BC0300AF
:1056F000D0BC030008BD030070B5ADF6080D15461B
:1057000006460C4602A84FF46E314FF40062FFF7D4
:105710007BFD013D38206843002302AA0244F15C6E
:10572000D1540133382BF8D14FF46E30002105F0FD
:105730001BF9172D00F2B181DFE815F018002900E0
:105740003A004B005C006D007E008F00A000B100AD
:10575000C200D300E400F500060117012801390159
:105760004A015B016C017D018E019F0102A84FF48B
:105770006E314FF40062FFF75BFD382CA8BF382470
:105780000DF107008DF80740FDF7E5FA85E102A865
:105790004FF46E314FF40062FFF74AFD382CA8BF7A
:1057A00038240DF107008DF80740FDF7DFFA74E1AA
:1057B00002A84FF46E314FF40062FFF739FD382C28
:1057C000A8BF38240DF107008DF80740FDF7D9FA7E
:1057D00063E102A84FF46E314FF40062FFF728FD39
:1057E000382CA8BF38240DF107008DF80740FDF7CD
:1057F000D3FA52E102A84FF46E314FF40062FFF782
:1058000017FD382CA8BF38240DF107008DF807408C
:10581000FDF7CDFA41E102A84FF46E314FF400627A
:10582000FFF706FD382CA8BF38240DF107008DF8CE
:105830000740FDF7C7FA30E102A84FF46E314FF48C
:105840000062FFF7F5FC382CA8BF38240DF10700E3
:105850008DF80740FDF7C1FA1FE102A84FF46E3141
:105860004FF40062FFF7E4FC382CA8BF38240DF198
:1058700007008DF80740FDF7BBFA0EE102A84FF4D0
:105880006E314FF40062FFF7D3FC382CA8BF3824E8
:105890000DF107008DF80740FDF7B5FAFDE002A80D
:1058A0004FF46E314FF40062FFF7C2FC382CA8BFF2
:1058B00038240DF107008DF80740FDF7AFFAECE052
:1058C00002A84FF46E314FF40062FFF7B1FC382CA0
:1058D000A8BF38240DF107008DF80740FDF7A9FA9D
:1058E000DBE002A84FF46E314FF40062FFF7A0FC3A
:1058F000382CA8BF38240DF107008DF80740FDF7BC
:10590000A3FACAE002A84FF46E314FF40062FFF729
:105910008FFC382CA8BF38240DF107008DF8074004
:10592000FDF79DFAB9E002A84FF46E314FF4006222
:10593000FFF77EFC382CA8BF38240DF107008DF846
:105940000740FDF797FAA8E002A84FF46E314FF434
:105950000062FFF76DFC382CA8BF38240DF107005A
:105960008DF80740FDF791FA97E002A84FF46E31E9
:105970004FF40062FFF75CFC382CA8BF38240DF10F
:1059800007008DF80740FDF78BFA86E002A84FF478
:105990006E314FF40062FFF74BFC382CA8BF38245F
:1059A0000DF107008DF80740FDF785FA75E002A8B4
:1059B0004FF46E314FF40062FFF73AFC382CA8BF69
:1059C00038240DF107008DF80740FDF77FFA64E0F9
:1059D00002A84FF46E314FF40062FFF729FC382C17
:1059E000A8BF38240DF107008DF80740FDF779FABC
:1059F00053E002A84FF46E314FF40062FFF718FC39
:105A0000382CA8BF38240DF107008DF80740FDF7AA
:105A100073FA42E002A84FF46E314FF40062FFF7D0
:105A200007FC382CA8BF38240DF107008DF807407B
:105A3000FDF76DFA31E002A84FF46E314FF40062C9
:105A4000FFF7F6FB382CA8BF38240DF107008DF8BE
:105A50000740FDF767FA20E002A84FF46E314FF4DB
:105A60000062FFF7E5FB382CA8BF38240DF10700D2
:105A70008DF80740FDF761FA0FE002A84FF46E3190
:105A80004FF40062FFF7D4FB382CA8BF38240DF187
:105A900007008DF80740FDF75BFA0DF6080D70BDA5
:105AA00037B501390446172900F23F81DFE811F0CC
:105AB0001800250031003D004900550061006D00CF
:105AC0007900850091009D00A900B500C100CD00BE
:105AD000D900E500F100FD000901150121012D01AA
