:1000000000800020BD010000719902003D990200AE
:100010003D9902003D9902003D9902003D99020080
:100020003D9902003D9902003D990200719902003C
:10003000719902003D990200719902002D99020008
:100040007199020071990200719902007199020080
:100050007199020071990200719902007199020070
:100060007199020071990200719902007199020060
:100070007199020071990200719902007199020050
:100080007199020071990200719902007199020040
:100090007199020071990200719902007199020030
:1000A0007199020071990200719902007199020020
:1000B0007199020071990200719902007199020010
:1000C0007199020071990200719902007199020000
:1000D00071990200719902007199020071990200F0
:1000E00071990200719902007199020071990200E0
:1000F00071990200C1BB02007199020035B602007D
:1001000071990200F1B00200719902007199020028
:1001100071990200719902007199020071990200AF
:10012000719902007199020071990200719902009F
:10013000719902007199020071990200719902008F
:10014000719902007199020071990200719902007F
:10015000719902007199020071990200719902006F
:100160007199020055FD0100719902007199020018
:10017000719902007199020071990200719902004F
:10018000719902007199020071990200719902003F
:10019000719902007199020071990200719902002F
:1001A000719902007199020071990200719902001F
:1001B000719902007199020071990200564B4CF23C
:1001C000205210B51A804DF628121A8000BF00BFC9
:1001D00029F0D2FB514B4FF010621A60504A9A60DE
:1001E000504ADA60A3F53043203B1A6812F480725B
:1001F00004D14D490A604FF4A8521A604B4B1A784B
:10020000110703D51A7842F008021A70484B2A22C7
:100210001A700023474A48499818884204D247492F
:10022000595899500433F5E7454A464B9A424FF0E6
:10023000000302D242F8043BF7E74349434A5958C6
:1002400099500433B3F5DE7FF7D1414B802103F899
:10025000011B40498B42F9D13F4B1A603F4B0A22A8
:100260001A70A3F5805324225A70A0221A709A792A
:100270009207FCD59A79D406FCD4394B9A7902F0CE
:100280000C02082AF9D105221A7143225A719A796F
:100290009006FCD5324B9A795106FBD5314A4FF086
:1002A000817111600521516020221A702C4B9B79BD
:1002B00003F00C030C2BF9D12B4B2C4A1A602C4B5E
:1002C0002C4A1A6000225A60072243F8042C2A4A5A
:1002D000C3F80C2D62B620F031FB134B1B68DA0714
:1002E00005D5264820F0B6F9254B264A1A60264B3C
:1002F0001B785B0609D5224C224A2368934204D11D
:100300001E4820F0A7F9002323602DF02BF929F0D7
:1003100039FB2AF0F3FBFEE70E2005403080044055
:10032000823F04000100002B14D0034002D007409C
:1003300000E00740708CFF1F0492FF1F445403002D
:100340000892FF1FD4E9FF1F000000000082FF1F7A
:1003500000E400E05FE400E008ED00E0005006404B
:10036000004006404480044004800440C010050062
:1003700014E000E03F1901000000202020C2A96A1B
:100380001CE00340A5C3945A00F00740FFFFFFFFA5
:10039000FFFFFFFFFFFFFFFFFFFFFFFFFFFFFFFF6D
:1003A000FFFFFFFFFFFFFFFFFFFFFFFFFFFFFFFF5D
:1003B000FFFFFFFFFFFFFFFFFFFFFFFFFFFFFFFF4D
:1003C000FFFFFFFFFFFFFFFFFFFFFFFFFFFFFFFF3D
:1003D000FFFFFFFFFFFFFFFFFFFFFFFFFFFFFFFF2D
:1003E000FFFFFFFFFFFFFFFFFFFFFFFFFFFFFFFF1D
:1003F000FFFFFFFFFFFFFFFFFFFFFFFFFFFFFFFF0D
:10040000FFFFFFFFFFFFFFFFFFFFFFFFFEFFFFFFFD
:1004100010B5054C237833B9044B13B10448AFF33E
:1004200000800123237010BD0892FF1F0000000010
:100430004454030008B5064B1BB106480649AFF308
:1004400000800648036813B1054B03B1984708BD07
:1004500000000000445403000C92FF1F0492FF1F91
:100460000000000038B5044608460D462DF08CFB10
:10047000236802465B6820462946984738BD08B580
:10048000FFF7F0FF08BD0A2200232AF06EBB38B543
:100490000446FFF7E7FF054620462AF049FB2844BB
:1004A00038BD38B50446FFF7EEFF054620462AF072
:1004B0003FFB284438BD38B504462AF08EFB05467C
:1004C00020462AF035FB284438BD4FF0FF307047F6
:1004D00008B5C82020F01CFA074A00231370537097
:1004E0009370D37013715371044A1370044A1370DC
:1004F000BDE8084029F04EBCC4E7FF1FCAE7FF1F54
:10050000CBE7FF1FF8B51A4B1A481B4E1B4F0025AF
:100510001D701B4B01241C7001F0AEFE194B1A48D4
:100520001C60202229462DF07DF80823337029F025
:1005300031FC0F233B7029F02DFCFFF7C9FF34700D
:1005400029F028FC0923337029F024FC14233B7084
:1005500029F020FC4FF4FA7020F0DAF90B4B1D70F3
:1005600029F018FCFFF7B4FF094B0A4A1A60F8BDDE
:10057000B1BDFF1F0CBEFF1FCAE7FF1FC4E7FF1F6F
:10058000808CFF1F848CFF1F2894FF1FCBE7FF1F69
:100590000CED00E00400FA052DE9F04F9F4C9FB0F0
:1005A000002305460DF10F00237002F083FD9C4BE4
:1005B0001B7823B99DF80F3003F00F0305E0012BE2
:1005C00008D19DF80F301B090C339D4202D1FFF773
:1005D00099FF20E329460DF10E0003F03DFD9149FE
:1005E0009148FFF754FF90489DF80E10FFF759FF10
:1005F0009DF80E80C8F3C0038DF80E308B4B1E782B
:10060000002E40F008838A498748DFF86092FFF7A0
:1006100036FF884B844819683039FFF74CFF314664
:1006200040220EA82CF0FEFF3146FB2248462CF05B
:10063000F9FF0EA8294606F073FC071E41DD7E492E
:100640007948FFF724FF7D497748FFF718FF3946BF
:100650007548FFF730FF7A497348FFF718FF0EA877
:10066000394606F0C3F9774B00970EA8E9B20F227E
:100670000AF0FEFE9DF83830082B0AD1013F0DF13B
:10068000390049463A4623780DF022FB01262770AF
:1006900017E00EA849463A4623780DF019FBFBB245
:1006A000022209F8032068495F487B1C2370FFF78A
:1006B000EEFE0EA8394606F099F95B486349FFF74C
:1006C000E6FE002140220EA82CF0ACFF0EA8294621
:1006D00003F04EFD9DF83870C8F3800AFFB1002E7C
:1006E00032D15B495048FFF7D2FE5A494E48FFF7D6
:1006F000C6FE9DF838104C48FFF7C5FE4A485649DB
:10070000FFF7C5FE9DF838701E2F00F27E82237819
:1007100007F10A0209F803200133237076E2BAF1E7
:10072000000F13D09EB937464C493F48FFF7AFFE44
:1007300023783D484A49012209F80320FFF7A7FE24
:1007400023780133237002E0002700E057460EA80B
:10075000294606F045FFB0F1000925DD4149324840
:10076000FFF795FE40493048FFF789FE49462E487D
:10077000FFF7A1FE49460EA806F038F9CDF8009023
:100780000EA8E9B202222F4B0AF072FE4A462378E5
:1007900036490EA80DF09CFA49460EA806F026F937
:1007A0002378994484F800900EA80021402208F094
:1007B00003092CF037FFDFF8B4B0B9F1000F1ED0F9
:1007C000EEB9B9F1010F09D129491748FFF75FFECA
:1007D000237815480BF8039021490BE0B9F1020F7B
:1007E0000DD123491048FFF752FE23780E480BF82D
:1007F00003902049FFF74BFE23780133237000213B
:1008000040220EA82CF00EFF0EA8294603F03CFD56
:100810009DF8383083BB4FF0000A4CE04C92FF1F2C
:1008200038BEFF1FDFF8020008E8FF1F75BDFF1F7D
:10083000730E0300089FFF1F4AE3020064E30200F7
:1008400072E302002894FF1F7CE3020088E30200A9
:10085000A1E30200BFE30200C6E30200E8E30200F6
:100860000BE402000FE402002EE402006892FF1F76
:1008700041E4020063E40200002ECCD1904991488B
:10088000FFF705FE90498F48FFF7F9FD9DF83810F6
:100890008C48FFF7F8FD8B488C49FFF7F8FD9DF871
:1008A00038A0BAF11E0FB6D823780AF10A020BF865
:1008B0000320013323700EA8294603F0FFF8B0F19E
:1008C00000092DDD82497F48FFF7E1FD81497D4820
:1008D000FFF7D5FD49467B48FFF7EDFD7E49794896
:1008E000FFF7D5FD49460EA806F080F8CDF8009038
:1008F0000EA8E9B20522794B0AF0BAFD4A462378E0
:1009000077490EA80DF0E4F976496E48FFF7BFFD70
:1009100049460EA806F06AF82378994484F80090B6
:100920000EA800214022C8F301192CF07BFEDFF84D
:10093000B0B1B9F1000F1AD0CEB962486A49FFF7D9
:10094000A6FDB9F1010F05D123785E480BF803909D
:10095000664907E0B9F1020F09D1237859480BF82D
:1009600003906349FFF793FD23780133237000213F
:1009700040220EA82CF056FE0EA8294603F010FDCA
:100980009DF8383013B94FF000091EE0002EFAD15F
:1009900058494C48FFF77BFD4B494A48FFF76FFD2C
:1009A0009DF838104748FFF76EFD46485249FFF75B
:1009B0006EFD9DF83890B9F11E0FE4D8237809F147
:1009C0000A020BF80320013323700EA800214022F5
:1009D0002CF028FE9DF80E307BB176B94749394896
:1009E000FFF755FD23783748404901220BF80320D3
:1009F000FFF74DFD2378013323700EA8294603F03D
:100A00008BFD9DF83830002B00F0CC80672B40F038
:100A100091803B492B48DFF8C8B0FFF738FD2946E5
:100A20000EA807F04DF92C4906462648FFF72FFD82
:100A300031460EA805F0DAFF32492248FFF71FFDC4
:100A400031462048FFF737FD00960EA8E9B209228B
:100A5000224B0AF00DFD237832460EA859460DF0C0
:100A600037F920491748FFF712FD31460EA805F067
:100A7000BDFF32460EA904A802F0C0F802F0C8F982
:100A800038448244D14449460E482AF0A6F80D481D
:100A90002AF04EF8494604A802F0B4F8064602F0DF
:100AA0002DFA237880BB4E220BF803205B444F22A3
:100AB00053215A70D970542245219A70197130E02F
:100AC0006AE4020008E8FF1FBFE3020088E40200B6
:100AD000AAE40200CAE4020072E302002894FF1FA5
:100AE0006892FF1F7CE30200DDE402000BE40200D9
:100AF00063E40200FFE402001DE502003AE50200A3
:100B000058E5020077E5020032780BF803205B44D9
:100B100072785A70B2789A70F278DA7032791A7103
:100B200072795A7123780EA806330021402223706F
:100B30002CF078FD9DF83830384E792B0FD1384B9A
:100B40001B78022B0BD037493748FFF7A0FC2078E1
:100B5000002130440BF024FB23782C3323709DF8C4
:100B60003830592B11D12E4B1B78022B0DD02F4929
:100B70002D48FFF78CFC2078E9B230440BF010FBD5
:100B80002378203303EB400020709DF83830752B1C
:100B900008D1234B1B78022B04D023780922F2546E
:100BA000013323705FEAD8131C4D0DD020491E4835
:100BB000FFF76DFC23781C481E490122EA54FFF719
:100BC00066FC23780133237018F0400F0DD01849CC
:100BD0001548FFF75CFC2378134817490222EA54B2
:100BE000FFF755FC23780133237023780E4813490F
:100BF000134C0022EA54FFF74AFC14F8011F51B1CC
:100C0000094803681B689847F7E73746BAF1000FB1
:100C10007FF48AAD9BE51FB0BDE8F08F6892FF1F9F
:100C200038BEFF1F8AE5020008E8FF1FAAE50200A0
:100C3000C3E502000BE4020063E40200E0E5020009
:100C40006792FF1F044B1A78044B18680AB12438C6
:100C500000E03038FFF7A0BC38BEFF1F089FFF1F21
:100C6000054B1A78054B18680AB1243800E0303873
:100C70000630FFF791BC00BF38BEFF1F089FFF1F63
:100C8000F0B5ADF5844D9BB0054646F2600468466C
:100C900021464FF4804205F045FF46F260039C4236
:100CA00004D1284669464FF4804210E02B460DF5EA
:100CB000804605F1400718685968324603C2083378
:100CC000BB421646F7D12846694644F2400200234B
:100CD00016F09EF8044B04F580449C42D7D10DF5E4
:100CE000844D1BB0F0BD00BF60A0030010B5464BA3
:100CF0001B6804461878A0F13103082B06D84FF47E
:100D00007A73303858431FF003FE42E074285CD0F9
:100D100072285ED03D4B1B78002B3AD01CB129F0D5
:100D2000CFF8002435E0702832D0682855D07528D7
:100D300055D06F2855D0652855D0642855D06228E5
:100D400055D04C2855D0522855D0552855D0442838
:100D500055D0452855D0632804D12D4B1A7842F040
:100D6000010213E0732804D1294B1A7842F00202E1
:100D70000CE0612804D1264B1A7842F0040205E009
:100D8000672806D1224B1A7842F008021A7000E058
:100D90004624204B1A780AB91C7012E05A780AB916
:100DA0005C700EE09A780AB99C700AE0DA780AB9A9
:100DB000DC7006E01A790AB91C7102E05A7902B9AE
:100DC0005C71BDE8104028F0E5BF002CA7D12B24B2
:100DD000DFE7002CA3D12824DBE74A24D9E74B2402
:100DE000D7E74E24D5E74D24D3E74C24D1E72A2476
:100DF000CFE75024CDE74F24CBE75224C9E7512455
:100E0000C7E72924C5E700BF6493FF1F94BDFF1FF8
:100E1000CAE7FF1FC4E7FF1FF8B5574B1A78574BB7
:100E20001878574C4AB1AA2807D121680B7823B10A
:100E3000092B02D001312160F3E7524B21681E7863
:100E40000B784F4F16FB06F6032596FBF5F5ED00E4
:100E500076001BB94C48FFF712FB81E0012B04D14F
:100E6000002A77D14FF22B006AE0022B04D1002A2E
:100E700070D14FF2280063E0092B19D1434B1B7846
:100E8000022B77D040484249424CFFF700FB012338
:100E90002360414B1E681D4606F57A662268002ACB
:100EA0005CD02B68B34259D200200CF0C9F9F5E7A9
:100EB000A3F10A005FFA80FCBCF1150F0AD8002AE2
:100EC00058D14FF47A7358431FF022FD3B68013329
:100ED0003B60F8BD202B31D148785C282ED1013100
:100EE000396092B1F8BD5C2B14D1254B01321A60E8
:100EF0000020FFF7FBFE28461FF00AFD23685A1C5E
:100F000022605A78202A07D04AB122681378002B31
:100F1000E9D112E00120ECE7194A0233136029F00D
:100F20001BF828461FF0F4FC29F016F8FFF7D0FA5A
:100F30003046BDE8F8401FF0EBBCF8BD52B918468A
:100F400028F0BEFF28461FF0E3FC29F005F83046E4
:100F50001FF0DEFC236801332360F8BD002323600B
:100F60000E480F4901F0ACF80C480E49BDE8F840B6
:100F700001F0D7B8F8BD00BF75BDFF1FFEBCFF1F55
:100F80006493FF1FA08CFF1F08E8FF1F38BEFF1FE0
:100F9000FAE5020084BFFF1FCCE5FF1F9C93FF1FF3
:100FA0005092FF1F2492FF1F08B507480749FFF71B
:100FB00066FA074807F040FC064B012205201A702C
:100FC00007F02CFDF5E700BF08E8FF1F10E6020060
:100FD0000AE60200FEBCFF1F2DE9F74FA34E33784F
:100FE00004466BB9A24B1B6803F00F03092B05D114
:100FF000142803DD9F4B1A6803321A602D2000E08D
:1010000000209D4F07F0DAFC3B68022B01DDFFF763
:10101000CBFF9A4D2B6801332B60994B1A78984679
:10102000002A45D0684602F05FF89DF8003003B30F
:1010300001A802F04CF89DF80430132B0AD90023C4
:101040009048FF221A540133202BF9D109F022FADB
:10105000002003E001338DF8043001A802F03FF8CE
:1010600089498A48FFF713FA88489DF80410FFF76A
:1010700018FA874B1A6801321A609DF800302A6806
:101080000133DBB201320A2B8DF800302A6009D916
:1010900080497E48FFF7FBF99DF800107B48FFF779
:1010A00000FA56E0684602F027F8002388F800307E
:1010B000DFF8DCB1DFF8BCA1DBF800309AF80010F3
:1010C00075480133CBF8003001F0C9F82B680133C3
:1010D0002B60724B1B680322B3FBF2F101EB410161
:1010E000581A134018441FF013FC604B19785646E9
:1010F000D94689BB684801F0D9F868BB664801F059
:1011000061FA48BB18E3472C00F3DD81A4F14802E3
:10111000352A40F2F881564A126802F00F02092A75
:1011200040F0EE81B4F5877F80F2ED81592C504F6D
:1011300040F3FC813268322A40F03C82584A1278EF
:10114000002A00F037823A6802F00F02092A40F0C4
:10115000318207F08DFB4DE3444BD9F8002093F822
:1011600000A00132C9F80020BAF1000F44D1504666
:1011700001F0C2FF484801F07FF8494BC7F800A0D2
:101180001A781D4622B947480BF06CFF07F054FB54
:1011900045484649464C00F093FF46493B48FFF717
:1011A00076F9207807F008F9552007F075FD424BD5
:1011B0001B78022B274606D018F0FDF9002001F01D
:1011C0008EFF0CF08FFD3D4B3D4A19681160274A98
:1011D000012010702A781C4612B1387007F0ECF824
:1011E0002568C8352368AB4203D200200CF028F8EC
:1011F000F8E71EF06DFCFDE2324A107800286FD14E
:10120000542C6DDD3268312A1FD12B4A1278022A04
:1012100066D0174B1B6803F00F03092B11D1062072
:1012200010E0092A6FDD0A2A40F0888007F076FB7B
:101230003368312B17D10E4B1B6803F00F03092BBA
:1012400011D0012009F050FAD4E2322A3CD11A4AD6
:101250001278022A44D0064B1B6803F00F03092BB7
:1012600001D10520EEE70220ECE700BFB1BDFF1F72
:1012700024800440089FFF1F6492FF1FA093FF1F5C
:10128000808CFF1FC893FF1F6AE6020008E8FF1F5B
:10129000A493FF1FA6E602000CBEFF1F08BEFF1F9F
:1012A00031BEFF1FC2E602009C93FF1F3892FF1F52
:1012B000FEBCFF1FD6E6020038BEFF1FCCE5FF1FB5
:1012C00054BEFF1F7CBDFF1F332A09D1994A1278F3
:1012D000022A05D0984A126802F00F02092AB1D1F9
:1012E000964A12682AB9964A1268002A00F0828249
:1012F00024E0032A02DC934893490AE0062A90DCA2
:101300009048924905E08B4A1278022A08D08D480D
:101310008F49FFF7B4F831688A483039FFF7CBF8C6
:101320008C4B1B78002B00F065828B4C2D23012009
:10133000237007F073FB012323705BE2874F88491A
:101340008048DFF868B200223A70FFF798F83168F9
:101350007C483039FFF7AFF8824A8349106808604B
:1013600074490978022900F0A381DFF844A29AF8B1
:101370000010012957460CD17C4890F800E0DBF8BA
:101380000000704529D17A48007830B36D4879491A
:101390000DE0022919D1784890F800E0DBF8000050
:1013A00070451AD172480078B8B166487349FFF7A2
:1013B00066F8DBF8001063483039FFF77CF89AF8DC
:1013C000003001338AF8003014E2032905D16C4A59
:1013D000DBF800001278904207D06A4A1278012A9E
:1013E00003D0694A1278012A05D1614A127812B1F4
:1013F000664A12787AB90329644A05D11078F5282B
:1014000002D15B48007830B91278F62A44D1584AA4
:101410001278002A40D05E494A485C4CFFF72FF80A
:10142000316848483039FFF746F80423554A3B7085
:1014300000231370544A13702378ED2B06D15548BE
:1014400003716378437104F009FC1FE0F02B06D1AF
:10145000504803716378437104F07CFD16E0F52B6E
:1014600002D104F0C5FD11E0F62B0FD14A4D012346
:101470002B603C4B1E6806F57A662B6823B1394A0F
:101480001368B342C0F0A98100232B60002038709C
:10149000207007F001FCADE100293FF434AE334A7F
:1014A00000231370344A3B701370354A01201370C7
:1014B00007F0F2FB394807F0BFF9394BFF211878E4
:1014C0001FF022F996E17D2C06DD1B4A126802F01E
:1014D0000F02092A3FF41AAE3268312A7FF416AEA1
:1014E000234A1278002A7FF411AE2E482E4900F0CC
:1014F000E7FD0AF07DFE2B482B4900F012FE79E152
:101500008B2C7FF713AE3268322A7FF40FAE184A65
:101510001278002A7FF40AAE012007F02BF98B2CF9
:1015200040F36881012007F06FF863E1472C7FDD0D
:1015300047E000BF38BEFF1F2480044034BEFF1FB9
:101540003C9FFF1F08E8FF1FE2E60200DFE6020003
:10155000FAE6020031BEFF1FFEBCFF1F6892FF1FAC
:101560001EE70200CCE5FF1F54BEFF1F50BEFF1F49
:1015700075BDFF1F2FE7020051BEFF1F42E70200AB
:1015800052BEFF1FB4BDFF1FB0BDFF1FBD9EFF1F9A
:1015900055E7020029BDFF1F84BFFF1F68E7020057
:1015A00005BEFF1F9C93FF1F2492FF1F089FFF1F74
:1015B00028BDFF1F7D2C04DD3A6802F00F02092AC6
:1015C00036D03268332A33D18C4A92F800A0BAF16F
:1015D000000F2DD18A4B8B4883F800A0012488F896
:1015E000004000F049FE884B88481C60514620228C
:1015F0002CF018F88648874900F093FD864BC3F815
:1016000000A03B6803F00F03092B0DD1834D2B780D
:101610002E46002B40F0E5807A4800F0D3FF0028EA
:1016200000F0DF802C70E2E07D4B7E4A1A60E1E042
:101630003A6802F00F02092A05D1B4F5877F37DB3B
:101640003268332A03E0472C32DD3268362A2FD144
:101650006A4A92F800A0BAF1000F29D12A686948B5
:1016600001322A60704A01241470654A88F80040EB
:1016700082F800A000F000FED9F800202244C9F84A
:101680000020614A14603A6802F00F02092A40F013
:10169000B1805C48C6F800A000F008FE002840F0C9
:1016A000A680584800F08EFF002840F0A080A1E0FE
:1016B000002007F083F95D4A126802F00F02092A40
:1016C0000FD1A4F1B402582A04D832680332326030
:1016D00015240EE07D2C04DD3268033232600A24CA
:1016E00001E0142C05DC504B1B7813B9FFF7AAFA64
:1016F00014E0A4F11503442B05D84B4B1B786BB9B0
:10170000FFF7AEFA0AE0592C08DD474B1B782BB9DE
:10171000474B012202201A7007F080F9454B464AD8
:101720003B4846491A6000F0CBFC454B38484549D8
:101730001A7800F0D7FC5DE0324801F093F820B150
:1017400041494248FEF7A3FE03E5DBF800302E4C8A
:101750000133CBF800302368092B15DC3C493B48AA
:10176000FEF78DFEDAF8001038483039FEF7A3FE98
:1017700038493648FEF783FE34482168FEF79BFE61
:1017800023680133236035E03B6801252B443B602F
:10179000274B88F8005003201D7007F03FF92E49B1
:1017A0002A48FEF76CFE684601F09EFC9DF800108A
:1017B0002648C1F10A0129F010FA28492348FEF70A
:1017C00066FE27492148FEF762FE0E4800F054FDF0
:1017D0003B682560022B0DDD19E400200BF030FD85
:1017E0004BE6337833B1074800F060FD5CE70A2030
:1017F000FFF7F2FB03B0BDE8F08F00BF75BDFF1F20
:10180000B1BDFF1F0CBEFF1F848CFF1F2894FF1F5C
:101810009C93FF1F3892FF1F089FFF1FE0BDFF1F13
:101820000CED00E00400FA0531BEFF1F24800440E7
:10183000FEBCFF1F6493FF1F6892FF1F2492FF1FCF
:10184000A08CFF1F5092FF1F8EE7020008E8FF1FC9
:10185000E2E60200A8E70200D4E70200EDE702009A
:1018600023E8020073B5102028F0AAFE7F4B804DBC
:10187000804C8148814E00221A70814B06221A70DA
:10188000804B01221A70804B16221A707F4B172250
:101890001A707F4B11221A707E4B0F221A707E4BEA
:1018A00010221A700E2320212B701523237005F0AF
:1018B000D9F9306000F0D8FB287828F0ABFE009012
:1018C000207828F0A7FE754B01901A6801321A6043
:1018D000734B1B78442B24D07248FFF7D1F90224B4
:1018E000704D6319204613F8021C013428F040FDA6
:1018F000422CF5D100214FF4006228462BF092FED5
:1019000044200CF0FBFA684904466848FEF7B7FD2E
:101910001CB166486649FEF7B2FD64486549FEF7AA
:10192000B6FD346874B905F07DF8634801F021FB19
:10193000624B63495D4801221A70624B1C70FEF7CE
:10194000A6FD49E0564B1B78442B42D120215E482E
:101950005E4C05F0F5F95E4805F020FA5D4805F0AB
:1019600087FA204601F072FB5B4801F055FB5B49AA
:101970004E48FEF78CFD4D482178FEF792FD237806
:101980000BB9042323705648564C01F079FB564896
:1019900001F083FB484801F0E4FA204601F063FBC4
:1019A00052494248FEF773FD21784048FEF779FD21
:1019B0001FF012F8414B4E493C4800221A70414B2F
:1019C00001221A70FEF763FD4A484B4900F0A9FB5B
:1019D00002E04A4B4A4A1A604A4B4B481A684B4944
:1019E00001321A6040F2FD720EF044F84648694632
:1019F000022204230DF0F6FF02220423424801A92B
:101A00000DF0F0FF42492948FEF739FD40F2A5717B
:101A10002648FEF750FD224B244819781022002357
:101A200029F0A3F8214829F083F807F067FA06F0B7
:101A3000A3FF07F017FD2F48364900F072FB364B25
:101A40001B6803F00F03092B0DD11E4B1B7853B1FC
:101A5000324800F02BFC18B9304800F0B3FD10B14B
:101A60000A20FFF7B9FA02B070BD00BF38BEFF1FF1
:101A700024BEFF1FBC9EFF1FA893FF1F3C9FFF1F9C
:101A800005BEFF1F6CBEFF1F6DBEFF1FB2BDFF1F57
:101A900074BEFF1F30BEFF1FC5BEFF1FA093FF1FF8
:101AA00002000240449FFF1F62E8020008E8FF1F97
:101AB00077E802007CE80200C88CFF1FB1BDFF1F61
:101AC00091E802007CBDFF1FC893FF1FA08CFF1F81
:101AD0000894FF1FE893FF1F94BDFF1FA6E80200B4
:101AE00025BEFF1FCEE9FF1FB3BDFF1FB3E80200F5
:101AF0001F1003009C93FF1F3892FF1F0CED00E0A6
:101B00000400FA05A493FF1FC8BEFF1FCAE6020027
:101B1000C5E802002492FF1F248004400CBEFF1F72
:101B2000F8B521201EF0C6FDE8B94B4B1D680446F0
:101B30001E46326840F6B733521B9A4207D86420DB
:101B40001EF0E6FE21201EF0B5FD0444F1E754B975
:101B50002046012128F00CFC0120014628F008FC59
:101B60003E4B3F4A1A603F4B3F4D1B7A012B0DD134
:101B70003E4B1B780BB12B7843B13D4B1B78032BAD
:101B800002D0032004F0FEFE0BF02EFE394B3A4C3F
:101B90001A6801321A60394B1A680623B2FBF3F057
:101BA00003FB10201EF0B4FE2278354BDAB11A6820
:101BB000002001321A600BF043FB324B1B78ABB1B3
:101BC000314B1B6893B106F0EBFB304B1B786BB1CC
:101BD000214A11682E4A12688A1A4EF660214B4338
:101BE0009A4221D202E01A6801321A602B784BB176
:101BF00023783BB11D4B1B7823B9264B012018706D
:101C000006F0DAFB07F05CFA234A12780A32D2B205
:101C1000012A04D82D20BDE8F84006F0CFBEC8B197
:101C2000BDE8F840FFF7D8B91C4B1D480026012736
:101C30001F70267000F020FB1A4B1B481F602022EB
:101C400031462BF0EFFC1948194900F06AFA044AB2
:101C5000024BCAE7F8BD00BFCCE5FF1F0CED00E06A
:101C60000400FA057DBDFF1F31BEFF1F75BDFF1FBC
:101C700000BDFF1FA093FF1FB1BDFF1F08BEFF1FC8
:101C8000A493FF1F7CBDFF1F3C9FFF1FC88CFF1F3D
:101C900054BEFF1FFEBCFF1FFDBCFF1F808CFF1F3B
:101CA0000CBEFF1F848CFF1F2894FF1F9C93FF1FF7
:101CB0003892FF1F70B51D4D2B6803F00F03092BE1
:101CC0002BD11B4C0021204628F02EFD18B3237980
:101CD000E12B20D163792F2B1DD9164B1B78D3B163
:101CE000154B1E78BEB92B6803F00F03092B12D1D8
:101CF000124B134801221A7000F0BEFA0BF0D6FF07
:101D0000104B0A201860FFF767F920463146402241
:101D10002BF088FC04E00C4800E00C4806F08CFD39
:101D20000A490B48FEF7B3FB70BD00BF2480044096
:101D300029BDFF1F7CBDFF1FB1BDFF1F808CFF1F92
:101D40000CBEFF1F848CFF1FD2E802001F1003008F
:101D500008E8FF1F08B528F0C1FA3221084A0948EF
:101D600000F022FA3221084A084800F01DFA08481B
:101D7000084A4FF47A71BDE8084000F015BA00BF78
:101D8000211B00002492FF1F190E00005092FF1F1C
:101D90003892FF1FB51C00002DE9F04F0A46C9B06C
:101DA0000023CD5CD47844EA0564557844EA0544C0
:101DB000957803F1200644EA052404336D46402B50
:101DC000745102F10402ECD108AB002208AF9C6B05
:101DD0005E6ABD58596835444FEA744686EAF4464F
:101DE00086EA94242C444FEAF11585EAB14585EA48
:101DF000D10104322144C02A196403F10403E5D15E
:101E0000026D0092436D426E0193856D836EC66DC7
:101E1000076E02950396C56E0497059217469DE8D6
:101E2000140006931E46DDF80CC0049B029907952A
:101E3000A846002505F1200BE9465BF809A0DFF86C
:101E4000989055F80990D1444FEAB31A8AEAF32AD8
:101E50008AEA736AD14426EA030B07EA030A8BEA8B
:101E60000A0AD144C84481EA040901EA040A09EAD9
:101E7000020989EA0A094FEAB20A8AEA723A8AEA48
:101E8000B25A0435D144B5F5807FC444C14408D06A
:101E9000B0463E461F4663468C46214614464A4697
:101EA000C8E7009D4D440565019D2A444265029A9C
:101EB000039D1444049A846562440266059A13449F
:101EC00029444366079D069BC1651F442E448766CF
:101ED000C66649B0BDE8F08FE0E802000023036465
:101EE00000220023C0E912230A4B03650A4B436515
:101EF0000A4B83650A4BC3650A4B03660A4B43666C
:101F00000A4B836603F17453A3F52303A3F69243AC
:101F1000C366704767E6096A85AE67BB72F36E3CBD
:101F20003AF54FA57F520E518C68059BABD9831FA4
:101F30002DE9F04106460F4601EB0208474516D051
:101F4000336C17F8012BF2540133402B3364F5D175
:101F500030463146FFF720FFD6E9124514F50074EC
:101F600045F100050023C6E912453364E6E7BDE804
:101F7000F081026C2DE9F84F372A88464FF0800136
:101F8000814602F10103815406D8382B14D0002277
:101F900009F803200133F8E73F2B04D8002209F8A1
:101FA00003200133F8E748464946FFF7F5FE484667
:101FB000002138222BF036FBD9F84030D900D9E97E
:101FC0001223521843F100034FEA122A160C140E82
:101FD0004AEA036A4FEA132B46EA03461F0C44EA17
:101FE00003241D0EC9E9122389F83B30494689F8BC
:101FF0003F2089F83EA089F83D6089F83C4089F887
:102000003AB089F8397089F838504846FFF7C4FE6D
:1020100043460321D9F85000CA00D0401870D9F8BF
:102020005400D0401871D9F85800D0401872D9F82F
:102030005C00D0401873D9F86000D0401874D9F80B
:102040006400D0401875D9F86800D0401876D9F8E7
:102050006C00013920FA02F21A774A1C03F10103DD
:10206000D8D1BDE8F88FFFFF07B5064B06499A683F
:102070000092DA6801920CCB04482BF007FD03B004
:102080005DF804FB6893FF1FE0E902007893FF1FEF
:10209000064B1A68064B1A60064A12685A60064ACE
:1020A00012689A60054A1268DA60704754800440EA
:1020B0006893FF1F588004405C80044060800440A7
:1020C000036873B18B4205D11B69036070478A4274
:1020D00004D013461A69002AF9D102E00A691A618C
:1020E0007047704770B506460C461546FFF7E8FF87
:1020F00033680BB9346004E01A690AB11346FBE790
:102100001C611EF0E5FB23680322C01A4FF4FA534A
:102110006B43B5FBF2F55D430023606025602361EE
:1021200070BD38B505460C46FFF7CAFF2B680BB9E2
:102130002C6004E01A690AB11346FBE71C611EF02B
:10214000C7FB2368C01A00236060236138BD38B51F
:102150000C461EF0BDFB6268236813449842054696
:1021600005D36268934208D26268824205D86268E9
:10217000954207D262689A4204D8A560E368204677
:102180009847656038BD38B505462C68002CFCD0F2
:1021900021462846FFF7DBFF2469F7E708B5014829
:1021A000FFF7F1FF9C93FF1F10B54FF47A74614362
:1021B000C260002201604260026110BD4FF47A7378
:1021C000594301607047FFFFF8B504460E461546B7
:1021D0001F46044AFFF7E8FF6661E561A7612046F4
:1021E000F8BD00BF0922000010B50021044680F8A8
:1021F0002010FFF7E3FF21460248BDE81040FFF73B
:1022000090BF00BF9C93FF1F10B590F8203004468C
:102210003BB9012380F820304169BDE81040FFF749
:10222000CDBF012B10D109482146FFF749FFE369D3
:1022300013B9A06920B910BD2046984720B1F8E72E
:10224000BDE81040FFF7D0BF10BD00BF9C93FF1F3B
:102250000022416142740270704741617047437CC3
:10226000102B07D05A1CD2B24274C154002383549D
:1022700001207047002070470023437403707047AB
:1022800010B5446902782178002321B9D2F1010008
:1022900038BF002010BD914206D1E2185178C21813
:1022A0000133102B5278F0D1002010BD2DE9F043FE
:1022B000B7B004462BF068FCAB4B1B6803F00F0370
:1022C000092B054613D1A94B1A78012A02D1002007
:1022D000187046E158B9A64B224603F1100153F895
:1022E000040B42F8040B8B42F9D1102505E00628B7
:1022F00003D81E201EF00CFB32E11AA8FFF7EEFDFA
:102300002A4621461AA8FFF713FE9A499A48FEF773
:10231000BEF82046294604F069FB98499648984C37
:10232000FEF7ADF89748202104F060FB20221AA8A0
:102330009449FFF7FDFD1AA80AA9FFF71AFE9DF8B8
:10234000283023F007038DF828309DF8473003F03C
:102350003F0343F0400300220AA920468DF847308E
:102360000CF0FEFA88498448FEF789F820212046BF
:1023700004F03CFB1AA8FFF7B1FD12A800F0C1FE63
:102380001AA812A91022FFF7D3FD1AA87F4910221C
:10239000FFF7CEFD20221AA82146FFF7C9FD2146EE
:1023A0001AA8FFF7E6FD1AA8FFF798FD1AA812A9C8
:1023B0001022FFF7BDFD1AA874491022FFF7B8FDDF
:1023C00020221AA87249FFF7B3FD1AA802A9FFF745
:1023D000D0FD70496848FEF752F82046202104F0ED
:1023E00005FB6D496448FEF74AF802A8202104F075
:1023F000FDFA6A4B9DF80850D3F80080684B2078AE
:102400001A68531C02F11F0902F1200CC2EB0801EB
:102410004B4503F1FF37C2F10006194440F08B80B1
:102420005E4B5F4C19608542276004D05C4B1A6894
:1024300001321A6094E00DF1070000F0FAFD5949ED
:102440004D48FEF71CF800234B489DF807100A2260
:1024500028F08BFB9DF807304948012B22D104F06E
:1024600035FD18B94648504A0AA921E04E4A0AA942
:1024700002A80CF075FA4D493F48FEF700F802A893
:10248000202104F0B3FA4A493B48FDF7F8FF12A8AF
:10249000202104F0ABFA47493748FDF7F0FF4648E2
:1024A000102113E004F012FD28B93548384A0AA972
:1024B0000CF056FA2DE00AA9354A02A80CF050FAA1
:1024C0003A492D48FDF7DBFF02A8202104F08EFADF
:1024D0001AA8FFF703FD1AA812A92022FFF728FD6A
:1024E0001AA835491022FFF723FD1AA802A92022B5
:1024F000FFF71EFD20221AA82249FFF719FD1AA88E
:102500000AA9FFF736FD1E482B490AAA202304F02A
:10251000BFF82A491848FDF7B2FF1948202104F0F6
:1025200065FA2368264A01332360002313700F4A9B
:102530000120137015E0854204D0184B1960184B28
:102540001F6073E702A830442644C55CF05C1E4659
:10255000013363457FF45AAF104B1960104B1E6076
:10256000002037B0BDE8F08324800440E0BDFF1FA9
:102570008A93FF1FF8E9020008E8FF1F0EEA020035
:102580002894FF1FA893FF1F1AEA02008893FF1FD9
:10259000C893FF1F32EA02004AEA0200A093FF1F1D
:1025A000A493FF1F65EA0200E893FF1F7FEA020081
:1025B00097EA020072F602007893FF1F72EA0200A7
:1025C00038BEFF1F2DE9F043B7B004462BF0DCFA0C
:1025D000904B1B6803F00F03092B05460CD158B92B
:1025E0008D4B224603F1100153F8040B42F8040B03
:1025F0008B42F9D1102505E0062803D81E201EF0D5
:1026000087F993E01AA8FFF769FC2A4621461AA821
:10261000FFF78EFC81498248FDF739FF20462946A5
:1026200004F0E4F97F497E487F4CFDF728FF7F489E
:10263000202104F0DBF920221AA87C49FFF778FC5E
:102640001AA80AA9FFF795FC9DF8283023F0070384
:102650008DF828309DF8473003F03F0343F04003E6
:102660000AA9002220468DF847300CF079F91AA803
:10267000FFF734FC12A800F044FD1AA812A910229A
:10268000FFF756FC1AA86A491022FFF751FC2022D6
:102690001AA82146FFF74CFC21461AA8FFF769FC4F
:1026A0001AA8FFF71BFC1AA812A91022FFF740FC7A
:1026B0001AA85F491022FFF73BFC20221AA85D49A7
:1026C000FFF736FC1AA802A9FFF753FC5A495448F1
:1026D000FDF7D5FE2046202104F088F957495048DF
:1026E000FDF7CDFE02A8202104F080F9544B9DF89F
:1026F0000850D3F80080534B20781A68531C02F11D
:102700001F0902F1200CC2EB08014B4503F1FF3712
:10271000C2F10006194465D1494B4A4C1960854203
:10272000276005D0474B1A6801321A6000206EE01E
:102730000DF1070000F07DFC9DF80730022B46D01C
:10274000394804F0C3FB28B90AA93F4A36480CF0BF
:1027500007F92DE03C4A0AA902A80CF001F93B490F
:102760002F48FDF78CFE202102A804F03FF91AA89B
:10277000FFF7B4FB1AA812A92022FFF7D9FB1AA869
:1027800033491022FFF7D4FB1AA802A92022FFF731
:10279000CFFB20221AA82549FFF7CAFB1AA80AA9CD
:1027A000FFF7E7FB20482A490AAA202303F070FF1D
:1027B00028491B48FDF763FE1B48202104F016F949
:1027C000254B01221A70254B54221A7005E0244A29
:1027D0001278002AAAD1204A13702368013323609B
:1027E000012014E0854204D0154B1960154B1F6081
:1027F00098E702A830442644C55CF05C1E460133CD
:10280000634580D10E4B19600E4B1E608EE737B0CA
:10281000BDE8F083248004408B93FF1F9EEA0200F2
:1028200008E8FF1F0EEA02002894FF1FA893FF1F6D
:102830008893FF1FE893FF1F32EA0200B4EA020008
:10284000A093FF1FA493FF1FC893FF1FD3EA0200AA
:102850007893FF1F72EA020038BEFF1FE0BDFF1F22
:1028600031BEFF1F30B59DB005462BF08DF906280F
:10287000044603D81E201EF04BF835E06846FFF7EB
:102880002DFB224629466846FFF752FB1849194896
:10289000194D1A4CFDF7F3FD1948202104F0A6F854
:1028A000202268461649FFF743FB29466846FFF792
:1028B00060FB104828F03CF912490E48FDF7DFFD97
:1028C0002046202104F092F82278287800238242C2
:1028D0000AD1E218E91801331E2B52784878F6D154
:1028E000131A5842584100E000201DB030BD00BF0F
:1028F0000EEA020008E8FF1F2894FF1F0894FF1F3C
:10290000A893FF1FEBEA020027F0E8BC10B5084BC4
:1029100000F14C0203F1140153F8044B42F8044B4C
:102920008B42F9D10023036680F8483010BD00BF08
:10293000888CFF1F2DE9F04F416D826DC36DD0F87B
:102940004C80D0F850C085B0994601910292039313
:102950004646134600240A466146E5B20F2D07D8C5
:1029600083EA020A0AEA010A8AEA030A334F3FE0CD
:1029700004F10D0B04F108070BF00F0B07F00F0724
:102980000BF1020B023705F00F0A50F8277050F8D0
:102990002BB000EB8A0A8BEA070BDAF808708BEA97
:1029A000070BA71C07F00F070237132D50F82770ED
:1029B0008BEA07074FEAF777CAF80870D0D9272DB6
:1029C00005D882EA010A8AEA030A1D4F10E03B2D6E
:1029D00009D842EA010A02EA01070AEA030A4AEAB6
:1029E000070A184F04E082EA010A174F8AEA030A2D
:1029F00005F00F050235574450F82550013405EB1A
:102A0000F6653D44502C4D444FEAB10105D099463E
:102A100013460A4631462E469FE7019C21444165F4
:102A200002990A448265039A454466441344C56486
:102A30000665C36505B0BDE8F08F00BF9979825A7D
:102A4000A1EBD96EDCBC1B8FD6C162CA90F84830AE
:102A500083F003020133DBB20244402B10B5117244
:102A6000044680F8483004D1FFF764FF002384F85F
:102A7000483010BD08B5026E01320266FFF7E6FF6E
:102A8000012008BD10B580210446FFF7DFFF94F850
:102A90004830382B20464FF00001F6D1FFF7D6FF23
:102AA00020460021FFF7D2FF20460021FFF7CEFF8E
:102AB000216E2046490FFFF7C9FF216E2046C1F362
:102AC0004751FFF7C3FF216E2046C1F34731FFF79F
:102AD000BDFF216E2046C1F34711FFF7B7FF216EFE
:102AE000C900204601F0F801BDE81040FFF7AEBF75
:102AF00010B50446FFF7C6FF0023E2180433D16C7B
:102B0000142B09BAD164F8D104F14C0010BDF8B50A
:102B100000F16406174604460D4630460021402267
:102B20002AF080FD402F18DD2046FFF7EFFE2F44EE
:102B3000BD4206D0236815F8011B1B682046984744
:102B4000F6E72046FFF7D4FF00F1140250F8041B0B
:102B500046F8041B9042F9D104E0304629463A4633
:102B60001CF0FCFE2046FFF7D1FE254604F140068E
:102B700095F86410236820461B6881F03601013502
:102B80009847B542F4D1F8BD70B50446FFF7B0FFE1
:102B900004F1A40300F1140250F8041B43F8041BD1
:102BA0009042F9D12046FFF7B1FE04F140062546D8
:102BB00095F86410236820461B6881F05C0101359C
:102BC0009847B542F4D104F114062546236895F8D8
:102BD000A4101B68204601359847B542F6D120461F
:102BE000BDE87040FFF784BF024B00221A71024A11
:102BF0001A6070474894FF1F08EB020080E8060047
:102C00007047FFFF1E2391FBF3F10B0E70B51E4EB4
:102C100003740B140446002543740B128160837403
:102C2000C174057394E8060045738573C573304617
:102C3000FFF76DFF336804F10C015B680822304632
:102C400098473046FFF7A0FF6061C37CE56103F061
:102C50000F03A361E269C1181202E261495D013507
:102C60000A43042DE261F5D1084B22F0004292FBA9
:102C7000F3F103FB1122E2612034204604492AF0DB
:102C800005FF204670BD00BF4894FF1F40420F0063
:102C900010EB02003C23B0FBF3F203FB12000870C0
:102CA000B2FBF3F003FB10234B701823B0FBF3F2DD
:102CB00003FB12008870131D0720B3FBF0F0C0EB7C
:102CC000C0001B1AF0B501330024CB702046E7B2D8
:102CD00007F2B27313F0030612D1642593FBF5FCDF
:102CE00005FB1C357DB94FF4C87593FBF5FC05FB5E
:102CF0001C35002D40F26D1508BF4FF4B77504E088
:102D000040F26D1501E04FF4B7752844904204F18C
:102D10000104DCD98F7196B9642493FBF4F504FBAC
:102D200015347CB94FF4C87493FBF4F504FB1534E7
:102D3000002C40F26D1408BF4FF4B77404E040F269
:102D40006D1401E04FF4B774041B141B642293FB51
:102D5000F2F702FB17374FF4C87293FBF2F002FB55
:102D600010330022D5B2012D06D146B94FB9002B40
:102D70000CBF1D201C2005E00948105C02E01C204F
:102D800000E01D20844205D301320C2AC0EB04046C
:102D9000E8D11546013501344D710C71F0BD00BF0D
:102DA00016EB020038B5054C23689842054603D05F
:102DB0000349FFF76FFF256038BD00BF0095FF1F77
:102DC0000495FF1F08B5FFF7EDFF024B987900F25D
:102DD000B27008BD0495FF1F074B1860074B1B68B6
:102DE0001844074B1860074B02221A70064B1A68EA
:102DF000064B1A60704700BF0C95FF1F9C8CFF1F8D
:102E00001C95FF1F1095FF1FCCE5FF1F1895FF1F96
:102E100070B51649164C0A68236816480068801A6F
:102E2000B0F57A7F02F57A7603F1010502D32B46DD
:102E30003246F2E7104D0A602A6823609A4213D89E
:102E40000E4B1B6883B1984710B1FFF7C5FF0BE02D
:102E50000B4B1A68064B1B6813442B60094B1A78FE
:102E6000003218BF01221A70206870BD1895FF1F2C
:102E70000C95FF1FCCE5FF1F1C95FF1F1495FF1F2E
:102E80009C8CFF1F1095FF1F08B5FFF7C1FFFFF7D0
:102E900089FF014B987808BD0495FF1F08B5FFF71F
:102EA000B7FFFFF77FFF014B587808BD0495FF1F60
:102EB00008B5FFF7ADFFFFF775FF014B187808BDA8
:102EC0000495FF1F08B5FFF7A3FFFFF76BFF014B4A
:102ED000187908BD0495FF1F08B5FFF799FFFFF7A4
:102EE00061FF014B587908BD0495FF1F08B5FFF736
:102EF0008FFFBDE80840FFF765BFFFFF08B5FFF78C
:102F000087FF014B187808BD1095FF1FF8B50646DE
:102F10000D468F180C46BC4206D0204627F014FA06
:102F2000731B18550134F6E7F8BDF8B506460D4693
:102F30008F180C46BC4206D0731B2046195D27F043
:102F400017FA0134F6E7F8BD08B54FF4D561012250
:102F5000FFF7DCFF012008BD4FF4D5610122FFF728
:102F6000E4BF08B540F2A9610122FFF7CFFF0120BD
:102F700008BD40F2A9610122FFF7D7BF08B540F2B2
:102F8000AA610122FFF7C2FF012008BD40F2AA6139
:102F90000122FFF7CABF08B540F2D561D022FFF782
:102FA000B5FFD02008BD40F2D561D022FFF7BDBFEC
:102FB00008B540F2AB610122FFF7A8FF012008BD70
:102FC00040F2AB610122FFF7B0BF08B540F2AC613F
:102FD0000122FFF79BFF012008BD40F2AC610122F6
:102FE000FFF7A3BF08B540F2AD610122FFF78EFFE6
:102FF000012008BD40F2AD610122FFF796BF08B580
:1030000040F2A5710122FFF781FF012008BD40F2C7
:10301000A5710122FFF789BF08B540F2A671012210
:10302000FFF774FF012008BD40F2A6710122FFF7EF
:103030007CBF08B540F2AE610122FFF767FF0120B7
:1030400008BD40F2AE610122FFF76FBF08B540F244
:10305000AF610122FFF75AFF012008BD40F2AF61C6
:103060000122FFF762BF08B54FF4D6610122FFF7D6
:103070004DFF012008BD4FF4D6610122FFF755BF77
:1030800008B540F2D3610122FFF740FF012008BDDF
:1030900040F2D3610122FFF748BF08B540F2BF718B
:1030A0000122FFF733FF012008BD40F2BF7101226A
:1030B000FFF73BBF08B540F2D4610122FFF726FFBE
:1030C000012008BD40F2D4610122FFF72EBF08B5F0
:1030D00040F2B1610122FFF719FF012008BD40F263
:1030E000B1610122FFF721BF08B540F2B2610122B0
:1030F000FFF70CFF012008BD40F2B2610122FFF78B
:1031000014BF08B540F2B3612022FFF7FFFE202074
:1031100008BD40F2B3612022FFF707BF08B540F2B7
:103120001C610122FFF7F2FE012008BD40F21C6184
:103130000122FFF7FABE08B540F21D610122FFF738
:10314000E5FE012008BD40F21D610122FFF7EDBE42
:1031500008B540F21E610122FFF7D8FE012008BD2C
:1031600040F21E610122FFF7E0BE08B540F21F6188
:103170000122FFF7CBFE012008BD40F21F610122B2
:10318000FFF7D3BE08B54FF4C4610122FFF7BEFEBE
:10319000012008BD4FF4C4610122FFF7C6BE08B587
:1031A00040F221610122FFF7B1FE012008BD40F28B
:1031B00021610122FFF7B9BE08B540F22261012268
:1031C000FFF7A4FE012008BD40F222610122FFF7B3
:1031D000ACBE08B540F223610122FFF797FE012043
:1031E00008BD40F223610122FFF79FBE08B540F2FF
:1031F00024610122FFF78AFE012008BD40F224610C
:103200000122FFF792BE08B540F225610122FFF7C7
:103210007DFE012008BD40F225610122FFF785BE39
:1032200008B540F226610122FFF770FE012008BDBB
:1032300040F226610122FFF778BE08B540F227610F
:103240000122FFF763FE012008BD40F22761012241
:10325000FFF76BBE08B54FF4C5610122FFF756FEBC
:10326000012008BD4FF4C5610122FFF75EBE08B51D
:1032700040F229610122FFF749FE012008BD40F21A
:1032800029610122FFF751BE08B540F22A610122EF
:10329000FFF73CFE012008BD40F22A610122FFF742
:1032A00044BE08B540F22B610122FFF72FFE01203A
:1032B00008BD40F22B610122FFF737BE08B540F28E
:1032C0002C610122FFF722FE012008BD40F22C6193
:1032D0000122FFF72ABE08B540F22D610122FFF757
:1032E00015FE012008BD40F22D610122FFF71DBE31
:1032F00008B540F22E610122FFF708FE012008BD4B
:1033000040F22E610122FFF710BE08B540F22F6196
:103310000122FFF7FBFD012008BD40F22F610122D1
:10332000FFF703BE08B54FF4C6610122FFF7EEFDBB
:10333000012008BD4FF4C6610122FFF7F6BD08B5B4
:1033400040F231610122FFF7E1FD012008BD40F2AA
:1033500031610122FFF7E9BD08B540F23261012277
:10336000FFF7D4FD012008BD40F232610122FFF7D2
:10337000DCBD08B540F233610122FFF7C7FD012033
:1033800008BD40F233610122FFF7CFBD08B5AC2183
:103390000122FFF7BBFD012008BDAC210122FFF790
:1033A000C4BD08B5AD210122FFF7B0FD012008BD65
:1033B000AD210122FFF7B9BD08B5AE210122FFF70B
:1033C000A5FD012008BDAE210122FFF7AEBD08B565
:1033D000AF210122FFF79AFD012008BDAF21012294
:1033E000FFF7A3BD08B5B0210122FFF78FFD012033
:1033F00008BDB0210122FFF798BD08B5B121012217
:10340000FFF784FD012008BDB1210122FFF78DBD2A
:1034100008B5B2210122FFF779FD012008BDB221D4
:103420000122FFF782BD08B5B3210122FFF76EFD2F
:10343000012008BDB3210122FFF777BD08B5B421F3
:103440000122FFF763FD012008BDB4210122FFF72F
:103450006CBD08B5B5210122FFF758FD012008BD5C
:10346000B5210122FFF761BD08B5B6210122FFF7A2
:103470004DFD012008BDB6210122FFF756BD08B55C
:10348000B7210122FFF742FD012008BDB72101222B
:10349000FFF74BBD08B5B8210122FFF737FD01202A
:1034A00008BDB8210122FFF740BD08B5B9210122AE
:1034B000FFF72CFD012008BDB9210122FFF735BD22
:1034C00008B5BA210122FFF721FD012008BDBA216C
:1034D0000122FFF72ABD08B5BB210122FFF716FD27
:1034E000012008BDBB210122FFF71FBD08B5BC218B
:1034F0000122FFF70BFD012008BDBC210122FFF7CF
:1035000014BD08B5BD210122FFF700FD012008BD53
:10351000BD210122FFF709BD08B5BE210122FFF739
:10352000F5FC012008BDBE210122FFF7FEBC08B555
:10353000BF210122FFF7EAFC012008BDBF210122C3
:10354000FFF7F3BC08B5C0210122FFF7DFFC012023
:1035500008BDC0210122FFF7E8BC08B5C121012246
:10356000FFF7D4FC012008BDC1210122FFF7DDBC1B
:1035700008B5C2210122FFF7C9FC012008BDC22104
:103580000122FFF7D2BC08B5C3210122FFF7BEFC20
:10359000012008BDC3210122FFF7C7BC08B5642183
:1035A0000122FFF7B3FC012008BD64210122FFF7CF
:1035B000BCBC08B565210122FFF7A8FC012008BDAD
:1035C00065210122FFF7B1BC08B566210122FFF792
:1035D0009DFC012008BD66210122FFF7A6BC08B5AD
:1035E00067210122FFF792FC012008BD672101221B
:1035F000FFF79BBC08B568210122FFF787FC01207B
:1036000008BD68210122FFF790BC08B5692101229D
:10361000FFF77CFC012008BD69210122FFF785BC72
:1036200008B56A210122FFF771FC012008BD6A215B
:103630000122FFF77ABC08B56B210122FFF766FC77
:10364000012008BD6B210122FFF76FBC08B56C217A
:103650000122FFF75BFC012008BD6C210122FFF76E
:1036600064BC08B56D210122FFF750FC012008BDA4
:103670006D210122FFF759BC08B56E210122FFF729
:1036800045FC012008BD6E210122FFF74EBC08B5A4
:103690006F210122FFF73AFC012008BD6F210122B2
:1036A000FFF743BC08B570210122FFF72FFC012072
:1036B00008BD70210122FFF738BC08B57121012235
:1036C000FFF724FC012008BD71210122FFF72DBC6A
:1036D00008B572210122FFF719FC012008BD7221F3
:1036E0000122FFF722BC08B573210122FFF70EFC6F
:1036F000012008BD73210122FFF717BC08B5742112
:103700000122FFF703FC012008BD74210122FFF70D
:103710000CBC08B575210122FFF7F8FB012008BD9C
:1037200075210122FFF701BC08B576210122FFF7C0
:10373000EDFB012008BD76210122FFF7F6BB08B59D
:1037400077210122FFF7E2FB012008BD772101224A
:10375000FFF7EBBB08B578210122FFF7D7FB01206B
:1037600008BD78210122FFF7E0BB08B579210122CD
:10377000FFF7CCFB012008BD79210122FFF7D5BB63
:1037800008B57A210122FFF7C1FB012008BD7A218B
:103790000122FFF7CABB08B57B210122FFF7B6FB68
:1037A000012008BD7B210122FFF7BFBB08B540F215
:1037B00064610122FFF7AAFB012008BD40F26461A9
:1037C0000122FFF7B2BB08B540F265610122FFF7A5
:1037D0009DFB012008BD40F265610122FFF7A5BBFA
:1037E00008B540F266610122FFF790FB012008BD99
:1037F00040F266610122FFF798BB08B540F26761AD
:103800000122FFF783FB012008BD40F2676101221E
:10381000FFF78BBB08B54FF4CD610122FFF776FBB4
:10382000012008BD4FF4CD610122FFF77EBB08B532
:1038300040F269610122FFF769FB012008BD40F2F7
:1038400069610122FFF771BB08B540F26A6101228C
:10385000FFF75CFB012008BD40F26A610122FFF71F
:1038600064BB08B540F26B610122FFF74FFB0120FA
:1038700008BD40F26B610122FFF757BB08B540F26B
:103880006C610122FFF742FB012008BD40F26C6130
:103890000122FFF74ABB08B540F26D610122FFF734
:1038A00035FB012008BD40F26D610122FFF73DBBF1
:1038B00008B540F26E610122FFF728FB012008BD28
:1038C00040F26E610122FFF730BB08B540F26F6134
:1038D0000122FFF71BFB012008BD40F26F610122AE
:1038E000FFF723BB08B54FF4CE610122FFF70EFBB3
:1038F000012008BD4FF4CE610122FFF716BB08B5C9
:1039000040F271610122FFF701FB012008BD40F286
:1039100071610122FFF709BB08B540F27261012213
:10392000FFF7F4FA012008BD40F272610122FFF7AF
:10393000FCBA08B540F273610122FFF7E7FA0120F3
:1039400008BD40F273610122FFF7EFBA08B540F2FB
:1039500074610122FFF7DAFA012008BD40F27461B8
:103960000122FFF7E2BA08B540F275610122FFF7C4
:10397000CDFA012008BD40F275610122FFF7D5BAEA
:1039800008B540F276610122FFF7C0FA012008BDB8
:1039900040F276610122FFF7C8BA08B540F27761BC
:1039A0000122FFF7B3FA012008BD40F2776101223E
:1039B000FFF7BBBA08B54FF4CF610122FFF7A6FAB3
:1039C000012008BD4FF4CF610122FFF7AEBA08B560
:1039D00040F279610122FFF799FA012008BD40F217
:1039E00079610122FFF7A1BA08B540F27A6101229C
:1039F000FFF78CFA012008BD40F27A610122FFF73F
:103A000094BA08B540F27B610122FFF77FFA0120EA
:103A100008BD40F27B610122FFF787BA08B5462155
:103A20001022FFF773FA102008BD46211022FFF77D
:103A30007CBA38B505460C4611B9622102220BE06A
:103A40004B1E172B0AD801F263610122FFF75EFAC1
:103A5000681C04F2A6710122FFF758FA022038BD53
:103A600038B505460C4611B9622102220BE04B1E07
:103A7000172B0CD801F263610122FFF756FA681C7C
:103A800004F2A6710122BDE83840FFF74EBA38BDF6
:103A900008B55C210622FFF739FA062008BD5C2133
:103AA0000622FFF742BA08B556210622FFF72EFA82
:103AB000062008BD56210622FFF737BA37B501396F
:103AC0000446172900F25581DFE811F018002400A0
:103AD00031003E004B005800650072007F008C00F2
:103AE0009900A600B300C000CD00DA00E700F400A2
:103AF00001010E011B012801350142010DF10700F2
:103B0000FFF70CFB9DF807502046382DA8BF38253D
:103B1000DC2129E10DF10700FFF70DFB9DF80750AF
:103B20002046382DA8BF38254FF48A711CE10DF1CD
:103B30000700FFF70DFB9DF807502046382DA8BF62
:103B400038254FF4A6710FE10DF10700FFF70DFBCB
:103B50009DF807502046382DA8BF38254FF4C27174
:103B600002E10DF10700FFF70DFB9DF8075020461D
:103B7000382DA8BF38254FF4DE71F5E00DF10700B0
:103B8000FFF70DFB9DF807502046382DA8BF3825BC
:103B90004FF4FA71E8E00DF10700FFF70DFB9DF817
:103BA00007502046382DA8BF38254FF40B71DBE0B5
:103BB0000DF10700FFF70DFB9DF807502046382D4B
:103BC000A8BF38254FF41971CEE00DF10700FFF7BB
:103BD0000DFB9DF807502046382DA8BF38254FF41F
:103BE0002771C1E00DF10700FFF70DFB9DF80750AD
:103BF0002046382DA8BF38254FF43571B4E00DF1BB
:103C00000700FFF70DFB9DF807502046382DA8BF91
:103C100038254FF44371A7E00DF10700FFF70DFBC6
:103C20009DF807502046382DA8BF38254FF4517114
:103C30009AE00DF10700FFF70DFB9DF807502046B5
:103C4000382DA8BF38254FF45F718DE00DF10700C6
:103C5000FFF70DFB9DF807502046382DA8BF3825EB
:103C60004FF46D7180E00DF10700FFF70DFB9DF83B
:103C700007502046382DA8BF38254FF47B7173E0DC
:103C80000DF10700FFF70DFB9DF807502046382D7A
:103C9000A8BF382540F2244166E00DF10700FFF788
:103CA0000DFB9DF807502046382DA8BF382540F25F
:103CB0005C4159E00DF10700FFF70DFB9DF807503F
:103CC0002046382DA8BF382540F294414CE00DF134
:103CD0000700FFF70DFB9DF807502046382DA8BFC1
:103CE000382540F2CC413FE00DF10700FFF70DFB16
:103CF0009DF807502046382DA8BF382540F20451C2
:103D000032E00DF10700FFF70DFB9DF8075020464C
:103D1000382DA8BF382540F23C5125E00DF10700B1
:103D2000FFF70DFB9DF807502046382DA8BF38251A
:103D300040F2745118E00DF10700FFF70DFB9DF8FC
:103D400007502046382DA8BF382540F2AC510BE073
:103D50000DF10700FFF70DFB9DF807502046382DA9
:103D6000A8BF382540F2E4513822FFF7CFF82846A3
:103D700000E0002003B030BD013A13B50C46172A0D
:103D800000F26881DFE812F01800250033004100DE
:103D90004F005D006B00790087009500A300B10023
:103DA000BF00CD00DB00E900F70005011301210190
:103DB0002F013D014B015901DC213822FFF7B5F8F5
:103DC00002A8382CA8BF382400F8014DFFF7AEF93F
:103DD00040E14FF48A713822FFF7A7F802A8382C87
:103DE000A8BF382400F8014DFFF7ADF932E14FF4D8
:103DF000A6713822FFF799F802A8382CA8BF3824FA
:103E000000F8014DFFF7ACF924E14FF4C2713822FC
:103E1000FFF78BF802A8382CA8BF382400F8014D12
:103E2000FFF7ABF916E14FF4DE713822FFF77DF8AA
:103E300002A8382CA8BF382400F8014DFFF7AAF9D2
:103E400008E14FF4FA713822FFF76FF802A8382C16
:103E5000A8BF382400F8014DFFF7A9F9FAE04FF4A4
:103E60000B713822FFF761F802A8382CA8BF38245C
:103E700000F8014DFFF7A8F9ECE04FF41971382272
:103E8000FFF753F802A8382CA8BF382400F8014DDA
:103E9000FFF7A7F9DEE04FF427713822FFF745F866
:103EA00002A8382CA8BF382400F8014DFFF7A6F966
:103EB000D0E04FF435713822FFF737F802A8382CDC
:103EC000A8BF382400F8014DFFF7A5F9C2E04FF470
:103ED00043713822FFF729F802A8382CA8BF3824EC
:103EE00000F8014DFFF7A4F9B4E04FF45171382206
:103EF000FFF71BF802A8382CA8BF382400F8014DA2
:103F0000FFF7A3F9A6E04FF45F713822FFF70DF831
:103F100002A8382CA8BF382400F8014DFFF7A2F9F9
:103F200098E04FF46D713822FEF7FFFF02A8382C9D
:103F3000A8BF382400F8014DFFF7A1F98AE04FF43B
:103F40007B713822FEF7F1FF02A8382CA8BF382475
:103F500000F8014DFFF7A0F97CE040F2244138223F
:103F6000FEF7E3FF02A8382CA8BF382400F8014D63
:103F7000FFF79FF96EE040F25C413822FEF7D5FF73
:103F800002A8382CA8BF382400F8014DFFF79EF98D
:103F900060E040F294413822FEF7C7FF02A8382CB7
:103FA000A8BF382400F8014DFFF79DF952E040F218
:103FB000CC413822FEF7B9FF02A8382CA8BF38241C
:103FC00000F8014DFFF79CF944E040F2045138221B
:103FD000FEF7ABFF02A8382CA8BF382400F8014D2B
:103FE000FFF79BF936E040F23C513822FEF79DFF87
:103FF00002A8382CA8BF382400F8014DFFF79AF921
:1040000028E040F274513822FEF78FFF02A8382CC6
:10401000A8BF382400F8014DFFF799F91AE040F2E3
:10402000AC513822FEF781FF02A8382CA8BF3824F3
:1040300000F8014DFFF798F90CE040F2E451382206
:10404000FEF773FF02A8382CA8BF382400F8014DF2
:10405000FFF797F902B010BD013908B5172941D80B
:10406000DFE801F00C0E10121416181A1C1E202284
:104070002426282A2C2E30323436383A7C212CE063
:104080007D212AE07E2128E07F2126E0802124E096
:10409000812122E0822120E083211EE084211CE096
:1040A00085211AE0862118E0872116E0882114E096
:1040B000892112E08A2110E08B210EE08C210CE096
:1040C0008D210AE08E2108E08F2106E0902104E096
:1040D000912102E0922100E093210122FEF716FFD8
:1040E000012008BD002008BD013917293FD8DFE8AD
:1040F00001F00C0E10121416181A1C1E2022242671
:10410000282A2C2E30323436383A7C212CE07D217E
:104110002AE07E2128E07F2126E0802124E0812101
:1041200022E0822120E083211EE084211CE0852101
:104130001AE0862118E0872116E0882114E0892101
:1041400012E08A2110E08B210EE08C210CE08D2101
:104150000AE08E2108E08F2106E0902104E0912101
:1041600002E0922100E093210122FEF7DEBE7047BB
:10417000013908B5172941D8DFE801F00C0E1012FB
:104180001416181A1C1E20222426282A2C2E3032FF
:104190003436383A94212CE095212AE0962128E003
:1041A000972126E0982124E0992122E09A2120E01D
:1041B0009B211EE09C211CE09D211AE09E2118E01D
:1041C0009F2116E0A02114E0A12112E0A22110E01D
:1041D000A3210EE0A4210CE0A5210AE0A62108E01D
:1041E000A72106E0A82104E0A92102E0AA2100E01D
:1041F000AB210122FEF78AFE012008BD002008BD88
:10420000013917293FD8DFE801F00C0E10121416FF
:10421000181A1C1E20222426282A2C2E303234362E
:10422000383A94212CE095212AE0962128E0972124
:1042300026E0982124E0992122E09A2120E09B2188
:104240001EE09C211CE09D211AE09E2118E09F2188
:1042500016E0A02114E0A12112E0A22110E0A32188
:104260000EE0A4210CE0A5210AE0A62108E0A72188
:1042700006E0A82104E0A92102E0AA2100E0AB2188
:104280000122FEF752BE7047013908B5172941D8FF
:10429000DFE801F00C0E10121416181A1C1E202252
:1042A0002426282A2C2E30323436383AC4212CE0E9
:1042B000C5212AE0C62128E0C72126E0C82124E044
:1042C000C92122E0CA2120E0CB211EE0CC211CE044
:1042D000CD211AE0CE2118E0CF2116E0D02114E044
:1042E000D12112E0D22110E0D3210EE0D4210CE044
:1042F000D5210AE0D62108E0D72106E0D82104E044
:10430000D92102E0DA2100E0DB210122FEF7FEFDE7
:10431000012008BD002008BD013917293FD8DFE87A
:1043200001F00C0E10121416181A1C1E202224263E
:10433000282A2C2E30323436383AC4212CE0C521BC
:104340002AE0C62128E0C72126E0C82124E0C921AF
:1043500022E0CA2120E0CB211EE0CC211CE0CD21AF
:104360001AE0CE2118E0CF2116E0D02114E0D121AF
:1043700012E0D22110E0D3210EE0D4210CE0D521AF
:104380000AE0D62108E0D72106E0D82104E0D921AF
:1043900002E0DA2100E0DB210122FEF7C6BD704712
:1043A000013908B5172959D8DFE801F00C0F1215AB
:1043B000181B1E2124272A2D303336393C3F424515
:1043C000484B4E5140F2346143E040F2356140E0E9
:1043D00040F236613DE040F237613AE04FF4C761A8
:1043E00037E040F2396134E040F23A6131E040F2C6
:1043F0003B612EE040F23C612BE040F23D6128E061
:1044000040F23E6125E040F23F6122E04FF4C86196
:104410001FE040F241611CE040F2426119E040F2CD
:10442000436116E040F2446113E040F2456110E060
:1044300040F246610DE040F247610AE04FF4C96185
:1044400007E040F2496104E040F24A6101E040F2D5
:104450004B610122FEF75AFD012008BD002008BD76
:104460000139172957D8DFE801F00C0F1215181B76
:104470001E2124272A2D303336393C3F4245484BF4
:104480004E5140F2346143E040F2356140E040F289
:1044900036613DE040F237613AE04FF4C76137E002
:1044A00040F2396134E040F23A6131E040F23B6180
:1044B0002EE040F23C612BE040F23D6128E040F20A
:1044C0003E6125E040F23F6122E04FF4C8611FE009
:1044D00040F241611CE040F2426119E040F2436168
:1044E00016E040F2446113E040F2456110E040F212
:1044F00046610DE040F247610AE04FF4C96107E010
:1045000040F2496104E040F24A6101E040F24B614F
:104510000122FEF70ABD7047013908B5172959D89D
:10452000DFE801F00C0F1215181B1E2124272A2D7D
:10453000303336393C3F4245484B4E5140F24C6196
:1045400043E040F24D6140E040F24E613DE040F218
:104550004F613AE04FF4CA6137E040F2516134E014
:1045600040F2526131E040F253612EE040F254617A
:104570002BE040F2556128E040F2566125E040F220
:10458000576122E04FF4CB611FE040F259611CE01B
:1045900040F25A6119E040F25B6116E040F25C6162
:1045A00013E040F25D6110E040F25E610DE040F228
:1045B0005F610AE04FF4CC6107E040F2616104E022
:1045C00040F2626101E040F263610122FEF79EFC6D
:1045D000012008BD002008BD0139172957D8DFE8A0
:1045E00001F00C0F1215181B1E2124272A2D303321
:1045F00036393C3F4245484B4E5140F24C6143E016
:1046000040F24D6140E040F24E613DE040F24F61CA
:104610003AE04FF4CA6137E040F2516134E040F2D1
:10462000526131E040F253612EE040F254612BE0E0
:1046300040F2556128E040F2566125E040F25761B2
:1046400022E04FF4CB611FE040F259611CE040F2E0
:104650005A6119E040F25B6116E040F25C6113E0E0
:1046600040F25D6110E040F25E610DE040F25F619A
:104670000AE04FF4CC6107E040F2616104E040F2EF
:10468000626101E040F263610122FEF74EBC7047B7
:10469000653908B51F2975D8DFE801F01013161920
:1046A0001C1F2225282B2E3134373A3D40434649E2
:1046B0004C4F5255585B5E6164676A6D40F27C6195
:1046C0005BE040F27D6158E040F27E6155E040F2EF
:1046D0007F6152E04FF4D0614FE040F281614CE0E5
:1046E00040F2826149E040F2836146E040F2846139
:1046F00043E040F2856140E040F286613DE040F2F7
:1047000087613AE04FF4D16137E040F2896134E0EB
:1047100040F28A6131E040F28B612EE040F28C6120
:104720002BE040F28D6128E040F28E6125E040F2FE
:104730008F6122E04FF4D2611FE040F291611CE0F2
:1047400040F2926119E040F2936116E040F2946108
:1047500013E040F2956110E040F296610DE040F206
:1047600097610AE04FF4D36107E040F2996104E0F9
:1047700040F29A6101E040F29B610122FEF7C6FB24
:10478000012008BD002008BD65391F2973D8DFE866
:1047900001F0101316191C1F2225282B2E31343737
:1047A0003A3D404346494C4F5255585B5E61646701
:1047B0006A6D40F27C615BE040F27D6158E040F25E
:1047C0007E6155E040F27F6152E04FF4D0614FE0EE
:1047D00040F281614CE040F2826149E040F2836145
:1047E00046E040F2846143E040F2856140E040F2FF
:1047F00086613DE040F287613AE04FF4D16137E0F5
:1048000040F2896134E040F28A6131E040F28B612C
:104810002EE040F28C612BE040F28D6128E040F206
:104820008E6125E040F28F6122E04FF4D2611FE0FB
:1048300040F291611CE040F2926119E040F2936114
:1048400016E040F2946113E040F2956110E040F20E
:1048500096610DE040F297610AE04FF4D36107E002
:1048600040F2996104E040F29A6101E040F29B61FC
:104870000122FEF75ABB7047013908B5032913D846
:10488000DFE801F00205080B40F29C6107E040F20E
:104890009D6104E040F29E6101E040F29F610122CF
:1048A000FEF734FB012008BD002008BD01390329B3
:1048B00011D8DFE801F00205080B40F29C6107E027
:1048C00040F29D6104E040F29E6101E040F29F6190
:1048D0000122FEF72ABB704708B50846114604F0CE
:1048E000DDFD002008BD38B50A220023044626F06D
:1048F0003CF90546204626F01BF9284438BD38B55A
:104900000A220023044626F030F90546204626F008
:104910000FF9284438BDFFFF10B5044616480DF0C6
:1049200041FD164826F004F914481549FBF7AFFD80
:104930006379642B1ED9A37903F00F03012B04D1F3
:10494000E11D104812F064F80DE0022B02D10DF0C9
:104950002FFD03E0032B06D10DF02EFD0246E11DD5
:1049600008480DF02DFD074800214122BDE8104008
:1049700028F058BE10BD00BF9D94000008E8FF1F3E
:1049800098EB02009C98FF1F70B5084D084C2978E1
:104990002046C90102F02AF8297801222046C901DF
:1049A0001346BDE8704003F03BBD00BF2095FF1FDC
:1049B0008C99FF1F38B5254B1B78032B05460C46F9
:1049C0001CD006D8012B10D0022B39D10DF0F0FCF1
:1049D00016E0662B1FD0672B28D0042B30D1084659
:1049E0002A461B4909F0BCFF1EE00846184A294622
:1049F00012F01CF8003018BF012038BD0DF0DCFCAF
:104A000003461349284622460DF016FDD0F1010059
:104A100038BF002038BD0DF0CBFC0D4903462246BF
:104A200028460DF091FD08B1002038BD0DF0C4FC02
:104A300007490346224628460DF086FD0028F3D19B
:104A4000044803F0F9FE012038BD00BF2095FF1F88
:104A5000D095FF1FB6EB02002DE9F04F91B0DFF8C3
:104A60005082874D98F8003093466A46A2EBC312F5
:104A70008A46002104AF0646954628460A4610F0AD
:104A800046FF07F10C000FF000FB07F118000FF0D4
:104A9000FCFA07F124000FF0F8FA98F8003005F15D
:104AA0001400DB014FF001116B600FF061FB0DF1A1
:104AB00010090446002875D1724B98F800207B60DD
:104AC000194605F12C0092010FF0ADFB7B680446FE
:104AD000002867D198F80020920105F13800991854
:104AE0000FF0A1FB044600285CD105F1080005F198
:104AF0002C0105F138020FF06EFE0446002851D15A
:104B000007F10C0005F12C0101220FF04EFE0446C6
:104B1000002847D107F1180005F1380101220FF0F4
:104B200044FE044600283DD107F1240007F10C01A2
:104B300007F118020FF04FFE044698BB05F1200064
:104B400005F1140107F1240210F07AFB044648BB7A
:104B500005F1440005F1200107F10C0210F078F88E
:104B60000446F8B905F1500005F1200107F11802DB
:104B700010F06EF80446A8B905F15C0005F13801A3
:104B800005F12C0210F05CFB044658B93E493F4841
:104B900025F0DEFF69683D48FFF7A5FE284610F0C6
:104BA000EFFE044607F10C000FF076FA07F118004B
:104BB0000FF072FA07F124000FF06EFA33482CB1AF
:104BC0003349224625F0C4FF324851E03249FBF711
:104BD00056FC31462D48FBF76EFC98F800308022D9
:104BE0006FF0090112FB0311B142DCBF6FF00A063E
:104BF00012FB0366202E0CD003DC1C2E0BD10523E8
:104C00000AE0302E03D0402E05D1082304E007230C
:104C100002E0062300E0002300228DE848041F493B
:104C2000CDF80C900123164811F02AFA1C490446CD
:104C30001648FBF724FC5046314601F0D7FE98F8A1
:104C400000204946D20158461AF088FE0C4811F05F
:104C5000E5FA0E4824B91349FBF719FC20460BE08E
:104C60001149FBF70CFC09482146FBF724FC0F48CF
:104C700003F0E2FD4FF0FF303437BD46BDE8F08F62
:104C8000F097FF1FF095FF1FCFEB020008E8FF1F12
:104C9000DBEB0200F4EB020018EC0200D948000044
:104CA00033EC020041EC020058EC02002BED020054
:104CB0002095FF1F2DE9F04F95B05B4B19784FF011
:104CC000FF3202EBC11202F1010A083222F00702A0
:104CD00002AFE946ADEB020D544A117802AC9B4697
:104CE00021B90A4606F05EFBF82295E0042940F05F
:104CF0008E80DFF868814E4ED8F800301C2B454678
:104D000019D023F01002202A15D0402B13D0494887
:104D100003F092FD47494848FBF7B9FBD8F800106B
:104D20004548FBF7C8FB012003F0B6FF0021C8F897
:104D30000010306866E0DFF8288198F8001098F8D5
:104D40000120009330683D4B06F092FB3A4825F075
:104D5000EFFE2A683A49384825F0FAFE364825F031
:104D6000E7FE3068296801F041FE364B36682422A0
:104D70001A7031462A687B6007F108001AF0EEFDD0
:104D8000304600214FF4806228F04CFC28682E4DFC
:104D900007F108012246FFF75FFE7B680646F0B97F
:104DA000F6222A4924481A70FBF769FB204651462F
:104DB00001F01CFE98F802209BF800102A70012ACE
:104DC00020464FEAC11103D1134603F029FB0BE043
:104DD0003246334603F024FB04F002F804E00022DC
:104DE0001B481A7003F028FD552003F055FF20469C
:104DF0000021524628F016FC2B78012B0ED0154BC3
:104E0000186800214FF4806228F00CFC06E00A4884
:104E10001149FBF73CFB23220A4B1A704C37CD4655
:104E2000BD46BDE8F08F00BF2095FF1F28BDFF1FC6
:104E3000C48CFF1F78EC020008E8FF1F2894FF1FB6
:104E4000A1EC0200FDBCFF1F00BDFF1FBAEC020079
:104E5000C7EC0200A48CFF1FDEEC02006CBDFF1F3C
:104E6000BD9EFF1F2DE9F0438FB00EAC002544F826
:104E7000285D064688466E486E49174625F068FE4E
:104E800021466D4C6A48FFF73AFD29462A462046DE
:104E900010F03DFD05A80FF0F8F8684D08A80FF0D8
:104EA000F4F80BA80FF0F1F82B7804F11400DB01F3
:104EB0004FF0011163600FF05BF90490002862D19C
:104EC0002A78DFF8949104F12C00494692010FF002
:104ED000AAF90490002856D12A78920104F13800EA
:104EE00009EB02010FF09FF9049000284BD104F167
:104EF000080004F12C0104F138020FF06CFC04905E
:104F0000002840D105A804F12C0101220FF04DFC2E
:104F10000490002837D108A804F1380101220FF0CD
:104F200044FC049078BB0BA805A908AA0FF053FC19
:104F3000049040BB04F1200004F114010BAA10F00E
:104F40007FF90490F8B904F1440004F1200105AAA6
:104F50000FF07EFE0490B0B904F1500004F120017E
:104F600008AA0FF075FE049068B904F15C0004F122
:104F7000380104F12C0210F063F9049018B92C48A0
:104F80006168FFF7B0FC05A80FF086F808A80FF0DD
:104F900083F80BA80FF080F82949254825F0D8FDA3
:104FA00061682348FFF79FFC234810F0E9FC049058
:104FB00050B124491E48FBF762FA1D480499FBF7DB
:104FC0007AFA214803F038FC049C84B91F49184838
:104FD000FBF755FA4FF4007303938DE840010297F5
:104FE000154821462246012310F0CEFF04901248B6
:104FF00011F014F9049C0E4854B91549FBF747FA0F
:105000000B4831680A22234625F0AFFD20460BE00D
:105010000C49FBF734FA04990548FBF74CFA0D48A4
:1050200003F00AFC4FF0FF300FB0BDE8F08300BF83
:1050300008E8FF1F0AED02002495FF1F2095FF1FBF
:10504000CFEB020058EC0200F4EB020018ED020076
:1050500041EC020025ED0200F095FF1F2DE9F04F15
:1050600085B0574B02AF197800257D6021B90A46FB
:1050700006F098F9F9229DE0042940F09680514C01
:10508000DFF874B123689BF800204F4EB3EBC21FCA
:10509000EA4611D04D4803F0CFFB4C494C48FBF792
:1050A000F6F921684A48FBF706FA012003F0F4FDFF
:1050B00025603068294672E0DFF84081DFF83491DE
:1050C00098F8001098F8012000933068414B06F0E2
:1050D000CFF93F4825F02CFD22683F493C4825F098
:1050E00037FD3B4825F024FD3068216801F07EFC47
:1050F000242389F800309BF800303668AAEBC312ED
:1051000095460DF1080B31462268344C58461AF08A
:1051100025FC304629464FF4806228F083FA594630
:10512000381D22682E4EFFF79DFE834650BBF623A6
:10513000274889F8003025F0FBFC2A492448FBF772
:105140009EF979682248FFF7CEFB27492048FBF7F4
:1051500096F97968206801F049FC1D4825F0E8FCC3
:1051600098F802203270012A2068796803D113462A
:1051700003F056F90BE05A465B4603F051F903F091
:105180002FFE04E0194889F8005003F055FB552024
:1051900003F082FD3378012B05D0206800214FF405
:1051A000806228F03FFAD54606E009481049FBF72F
:1051B0006EF923220F4B1A700C37BD46BDE8F08FF5
:1051C00028BDFF1F6CBDFF1FC48CFF1F54ED0200E4
:1051D00008E8FF1F2894FF1F80ED0200A48CFF1F2A
:1051E00000BDFF1F9CED0200ADED0200BAED020014
:1051F000DEEC0200FDBCFF1F2095FF1FBD9EFF1FC0
:10520000F0B52349234F8BB005462348FBF737F908
:1052100001A80EF03AFF2DB204A80EF036FFAE0141
:1052200007A80EF032FF01A8394632460EF0FBFF08
:10523000044698B904A8B91932460EF0F4FF0446A2
:1052400060B907A801A904AA0FF0C5FA044628B955
:1052500007A81249EA010FF020F8044601A80EF051
:105260001BFF04A80EF018FF07A80EF015FF14B9D5
:1052700009480B4904E00B4803F0DEFA06480A49E6
:10528000FBF7FDF80548E90101F0B0FB0BB0F0BDFC
:10529000D4ED0200F095FF1F08E8FF1F8C99FF1F57
:1052A000EBED0200FFED02001DEE02002DE9F043E0
:1052B0008FB00EAC002544F8285D80460F4660484C
:1052C0006049164625F044FC21465F4C5C48FFF7D8
:1052D00016FB29462A46204610F019FB05A80EF0B9
:1052E000D4FE5A4D08A80EF0D0FE0BA80EF0CDFE4D
:1052F0002B7804F11400DB014FF0011163600EF014
:1053000037FF0490002862D12A78DFF8549104F125
:105310002C00494692010EF086FF0490002856D1D9
:105320002A78920104F1380009EB02010EF07BFFAC
:10533000049000284BD104F1080004F12C0104F181
:1053400038020FF048FA0490002840D105A804F173
:105350002C0101220FF029FA0490002837D108A867
:1053600004F1380101220FF020FA049078BB0BA859
:1053700005A908AA0FF02FFA049040BB04F1200001
:1053800004F114010BAA0FF05BFF0490F8B904F1CB
:10539000440004F1200105AA0FF05AFC0490B0B9B2
:1053A00004F1500004F1200108AA0FF051FC049010
:1053B00068B904F15C0004F1380104F12C020FF02B
:1053C0003FFF049018B91E486168FFF78CFA05A8E2
:1053D0000EF062FE08A80EF05FFE0BA80EF05CFE59
:1053E0001B49174825F0B4FB61681548FFF77BFAA5
:1053F000154810F099FA0246049008B1104814E0DC
:105400001449CDF800801346019702960E4810F01B
:1054100045FD04900C4810F001FF049C084824B995
:105420000D49FBF72CF8204607E00C49FBF727F85D
:1054300003480499FBF73FF804980FB0BDE8F083E8
:1054400008E8FF1F39EE0200E098FF1F2095FF1FBC
:10545000CFEB0200D948000041EC020058EC0200FA
:10546000F095FF1FF0B50025ECB20B1B0444DBB236
:10547000E4B29C4205F1010504D2165DD75C1755D4
:10548000D654F1E7F0BDFFFF08B5174B1B78012B91
:1054900004D1164816490BF07BF91AE0022B02D111
:1054A0000CF086FF03E0032B07D10CF085FF0246CA
:1054B0000E490F480DF087F80BE0042B09D10020AE
:1054C0001F210B4AFFF7CEFF08480949002209F0C7
:1054D00047FA08490848FAF7DAFF04484121BDE8CD
:1054E000084001F083BA00BF2095FF1F9C98FF1F62
:1054F000D095FF1F47EE020008E8FF1F38B5184C93
:105500000546407905F0C0FF2378012B05D1AB7922
:10551000042B02D12370FFF7B7FF12491248FAF7A4
:10552000B6FF1248412101F061FA2378042B04D020
:10553000012B14BF4021202100E02021012213462D
:105540000A4802F06DFF00214022084828F06AF85E
:10555000074800212022BDE8384028F063B800BF8A
:105560002095FF1F57EE020008E8FF1F9C98FF1FC1
:10557000D095FF1F38B505462C4609F0F9FC044BC1
:1055800044F8783B20460AF077FE6C60284638BD28
:1055900030EB02002DE9F04FADF5097D02AF044676
:1055A00007F1A0009A46F96090460AF005FC07F161
:1055B000A0000AF0ABFB073020F00700ADEB000DB8
:1055C00007F1A0000AF0A2FB07F58C76BAFBF0FB0E
:1055D00000213046FF2228F025F802AD4FF00009E7
:1055E0009F4B4B441B79022B28D19E499E48FAF7CA
:1055F00046FF4946304601F0F9F907F13000FCF763
:105600006DFC4A4607F130003146FCF791FC07F18A
:1056100030003146FCF7ADFC94499348FAF72FFF70
:105620003046202101F0E2F984B9214607F110004B
:10563000212227F0F7FF07F1100407E0B9F1FF0F6F
:10564000D3D006F8093009F10109C9E7884986482D
:10565000FAF715FF2046212101F0C8F9214607F18C
:10566000A00021220AF027FDF968202207F1A000FE
:105670000AF090FC07F1A0000AF048FB2146212225
:1056800000902B4607F1A0000AF02EFD07F1A000C4
:105690000AF03CFB00F1210300F12009283020F042
:1056A0000700ADEB000D02ACFB60012304F80930EC
:1056B00007F1A0000AF02AFB07F59C7E221833466A
:1056C00003CB7345106051601E4602F10802F6D10B
:1056D00007F1A0000AF01AFB2946024607F1A000D4
:1056E0000AF0E9FC07F1A0000AF010FB21222118C2
:1056F00007F1A0000AF04EFC07F1A0000AF006FB3B
:10570000064607F1A0000AF001FB32462946009048
:10571000434607F1A0000AF0E7FC14F80930013312
:1057200004F8093007F1A0000AF0F0FA41460246F9
:1057300020461AF013F901265E4507F1A0003DDA74
:105740000AF0E4FA2946024607F1A0000AF0B3FC89
:105750002146FA6807F1A0000AF01CFC07F1A0003E
:105760000AF0D4FA024607F1A0007A600AF0CEFAF5
:1057700006FB008307F1A000BB600AF0C7FA0090A7
:105780007A68BB68294607F1A0000AF0ADFC14F85E
:105790000930013304F8093007F1A0000AF0B6FA25
:1057A00006FB008107F1A000B9600AF0AFFAB96802
:1057B000024620461AF0D2F80136BDE70AF0A6FAF2
:1057C000BAFBF0F303FB10A000283CD007F1A000C7
:1057D0000AF09CFA073020F00700E946ADEB000D17
:1057E00007F1A0000AF092FA0BFB10AA07F1A00043
:1057F0000AF08CFA2946024607F1A0000AF05BFC89
:105800002146FA6807F1A0000AF0C4FB07F1A000E6
:105810000AF07CFA044607F1A0000AF077FA02AE1B
:10582000009029462246334607F1A0000AF05CFCAE
:1058300007F1A0000AF06AFA31460BFB00805246DD
:105840001AF08CF8CD4607F1A0000AF08FFA07F1A4
:10585000A0000AF097FA07F50777BD46BDE8F08F7C
:10586000449FFF1F7EEE020008E8FF1F83EE020048
:105870008DEE020070B506469CB00D461446F2B996
:10588000842005F001FE21464122244827F0CAFE6B
:105890006846FCF723FB684621492022FCF748FBB9
:1058A000202268462946FCF743FB1D496846FCF761
:1058B00060FB1C4825F03CF91A481B4922E0802A6D
:1058C00026D1104605F0E0FD164825F031F91749BC
:1058D0001448FAF7DCFD1248202101F087F814493A
:1058E0001048FAF7D4FD2846212101F07FF80C4931
:1058F00028460A462023FFF74DFE0A4825F018F9EE
:1059000008480C49FAF7C3FD0548202101F06EF85C
:10591000094B1E70FFF7B8FD1CB070BD9C98FF1FAF
:10592000D095FF1F08E8FF1F92EE0200AFEE0200C5
:10593000C2EE0200CDEE02002095FF1F10B5044616
:10594000174825F0F5F816481649FAF7A0FD6079D2
:10595000042809D8A3794BB905F018FEF8B1204600
:10596000BDE81040FFF710B8742807D805F08CFD8B
:10597000A8B12046BDE81040FFF7C0BD84280ED175
:10598000A07904280BD8E11D0022FFF773FF002245
:10599000054840211346BDE8104002F041BD10BD4E
:1059A00008E8FF1FD6EE02009C98FF1F2DE9F04388
:1059B000814D824E824C2B6872783178F1B0074667
:1059C000009320687F4B05F053FD7F4825F0B0F829
:1059D0007E497D48FAF753FD29687B48FAF76BFD4D
:1059E0002068296801F002F84EA80021882227F0DB
:1059F00019FE774B4E93774B4F93774B50937879B3
:105A00004023519320235293C8282EAB5393B14681
:105A100032D9C92804D1296823682039012005E03A
:105A2000CA2806D129682368203902201944002297
:105A30001CE0CB2804D12968236820390320F5E72E
:105A4000D32804D129682368203901200CE0D42808
:105A500004D1296823682039022005E0D52807D120
:105A6000296823682039032019448022FFF702FFA8
:105A70002B68203B2B6006E0A0F165030F2B00F2A2
:105A8000978005F001FD2A684B4FDFF87481202ACA
:105A900012AE01D0402A04D102A8216819F05EFF9D
:105AA00011E03046FCF71AFA304621683A68FCF7F4
:105AB0003FFA304602A9FCF75CFA98F80030012B57
:105AC0001CBF20233B6045493F483B4FFAF7DFFCB2
:105AD000296802A800F08AFF41493B48FAF7CFFC49
