:1000000000800020BD0100001D930200E992020063
:10001000E9920200E9920200E9920200E9920200EC
:10002000E9920200E9920200E99202001D930200A7
:100030001D930200E99202001D930200D992020072
:100040001D9302001D9302001D9302001D930200E8
:100050001D9302001D9302001D9302001D930200D8
:100060001D9302001D9302001D9302001D930200C8
:100070001D9302001D9302001D9302001D930200B8
:100080001D9302001D9302001D9302001D930200A8
:100090001D9302001D9302001D9302001D93020098
:1000A0001D9302001D9302001D9302001D93020088
:1000B0001D9302001D9302001D9302001D93020078
:1000C0001D9302001D9302001D9302001D93020068
:1000D0001D9302001D9302001D9302001D93020058
:1000E0001D9302001D9302001D9302001D93020048
:1000F0001D93020069B502001D930200DDAF0200EE
:100100001D93020099AA02001D9302001D93020094
:100110001D9302001D9302001D9302001D93020017
:100120001D9302001D9302001D9302001D93020007
:100130001D9302001D9302001D9302001D930200F7
:100140001D9302001D9302001D9302001D930200E7
:100150001D9302001D9302001D9302001D930200D7
:100160001D93020019F701001D9302001D93020068
:100170001D9302001D9302001D9302001D930200B7
:100180001D9302001D9302001D9302001D930200A7
:100190001D9302001D9302001D9302001D93020097
:1001A0001D9302001D9302001D9302001D93020087
:1001B0001D9302001D9302001D930200564B4CF24A
:1001C000205210B51A804DF628121A8000BF00BFC9
:1001D00029F0A8F8514B4FF010621A60504A9A600B
:1001E000504ADA60A3F53043203B1A6812F480725B
:1001F00004D14D490A604FF4A8521A604B4B1A784B
:10020000110703D51A7842F008021A70484B2A22C7
:100210001A700023474A48499818884204D247492F
:10022000595899500433F5E7454A464B9A424FF0E6
:10023000000302D242F8043BF7E74349434A5958C6
:1002400099500433B3F5DE7FF7D1414B802103F899
:10025000011B40498B42F9D13F4B1A603F4B0A22A8
:100260001A70A3F5805324225A70A0221A709A792A
:100270009207FCD59A79D406FCD4394B9A7902F0CE
:100280000C02082AF9D105221A7143225A719A796F
:100290009006FCD5324B9A795106FBD5314A4FF086
:1002A000817111600521516020221A702C4B9B79BD
:1002B00003F00C030C2BF9D12B4B2C4A1A602C4B5E
:1002C0002C4A1A6000225A60072243F8042C2A4A5A
:1002D000C3F80C2D62B620F007F8134B1B68DA0741
:1002E00005D526481FF08CFE254B264A1A60264B62
:1002F0001B785B0609D5224C224A2368934204D11D
:100300001E481FF07DFE002323602CF0FFFD29F026
:100310000FF82AF0C9F8FEE70E20054030800440AF
:10032000823F04000100002B14D0034002D007409C
:1003300000E00740708CFF1F0492FF1F744D030004
:100340000892FF1FA4E9FF1F000000000082FF1FAA
:1003500000E400E05FE400E008ED00E0005006404B
:10036000004006404480044004800440C010050062
:1003700014E000E03F1901000000202094C9A96AA0
:100380001CE00340A5C3945A00F00740FFFFFFFFA5
:10039000FFFFFFFFFFFFFFFFFFFFFFFFFFFFFFFF6D
:1003A000FFFFFFFFFFFFFFFFFFFFFFFFFFFFFFFF5D
:1003B000FFFFFFFFFFFFFFFFFFFFFFFFFFFFFFFF4D
:1003C000FFFFFFFFFFFFFFFFFFFFFFFFFFFFFFFF3D
:1003D000FFFFFFFFFFFFFFFFFFFFFFFFFFFFFFFF2D
:1003E000FFFFFFFFFFFFFFFFFFFFFFFFFFFFFFFF1D
:1003F000FFFFFFFFFFFFFFFFFFFFFFFFFFFFFFFF0D
:10040000FFFFFFFFFFFFFFFFFFFFFFFFFEFFFFFFFD
:1004100010B5054C237833B9044B13B10448AFF33E
:1004200000800123237010BD0892FF1F0000000010
:10043000744D030008B5064B1BB106480649AFF3DF
:1004400000800648036813B1054B03B1984708BD07
:1004500000000000744D03000C92FF1F0492FF1F68
:100460000000000038B5044608460D462DF060F83F
:10047000236802465B6820462946984738BD08B580
:10048000FFF7F0FF08BD0A2200232AF044B838B570
:100490000446FFF7E7FF054620462AF01FF82844E8
:1004A00038BD38B50446FFF7EEFF054620462AF072
:1004B00015F8284438BD38B504462AF064F80546D6
:1004C00020462AF00BF8284438BD4FF0FF30704723
:1004D00008B5C8201FF0F2FE074A002313705370BE
:1004E0009370D37013715371044A1370044A1370DC
:1004F000BDE8084029F024B996E7FF1F9CE7FF1FDD
:100500009DE7FF1F1A4B1B4870B500251D701A4B45
:100510001A4E01241C7001F07BFE194B19481C6017
:10052000294620222CF052FD0823337029F008F9C7
:10053000154B0F221A7029F003F9FFF7C9FF347029
:1005400029F0FEF8114C0323337029F0F9F88023C9
:10055000237029F0F5F84FF4FA701FF0AFFE257004
:1005600029F0EEF8FFF7B4FF094B0A4A1A6070BD94
:10057000A5BDFF1F00BEFF1F808CFF1F9CE7FF1F54
:10058000848CFF1F1C94FF1F96E7FF1F9DE7FF1F32
:100590000CED00E00400FA052DE9F04F9F4C9FB0F0
:1005A000002305460DF10F00237002F042FD9C4A26
:1005B000137823B99DF80F3003F00F0305E0012BEA
:1005C00008D19DF80F301B090C339D4202D1FFF773
:1005D00099FFF8E229460DF10E0003F0D8FC91498D
:1005E0009148FFF754FF90489DF80E10FFF759FF10
:1005F0009DF80E80C8F3C0038DF80E308B4B1E782B
:10060000002E40F0E0828A498748DFF86092FFF7C9
:1006100036FF884B844819683039FFF74CFF314664
:1006200040220EA82CF0D2FC3146F02248462CF095
:10063000CDFC0EA8294606F00FFC071E41DD7E49C1
:100640007948FFF724FF7D497748FFF718FF3946BF
:100650007548FFF730FF7A497348FFF718FF0EA877
:10066000394606F05FF9774B00970EA8E9B20F22E2
:100670000AF0F6F99DF83830082B0AD1013F0DF148
:10068000390049463A4623780DF0D0F80126277004
:1006900017E00EA849463A4623780DF0C7F8FBB29A
:1006A000022209F8032068495F487B1C2370FFF78A
:1006B000EEFE0EA8394606F035F95B486349FFF7B0
:1006C000E6FE002140220EA82CF080FC0EA8294650
:1006D00003F0E9FC9DF83870C8F3800AFFB1002EE2
:1006E00032D15B495048FFF7D2FE5A494E48FFF7D6
:1006F000C6FE9DF838104C48FFF7C5FE4A485649DB
:10070000FFF7C5FE9DF838701E2F00F25682237841
:1007100007F10A0209F80320013323704EE2BAF10F
:10072000000F13D09EB937464C493F48FFF7AFFE44
:1007300023783D484A49012209F80320FFF7A7FE24
:1007400023780133237002E0002700E057460EA80B
:10075000294606F0E1FEB0F1000925DD41493248A5
:10076000FFF795FE40493048FFF789FE49462E487D
:10077000FFF7A1FE49460EA806F0D4F8CDF8009088
:100780000EA8E9B202222F4B0AF06AF94A462378F2
:1007900036490EA80DF04AF849460EA806F0C2F8F0
:1007A0002378994484F800900EA80021402208F094
:1007B000030A2CF00BFCDFF8B490BAF1000F1ED046
:1007C000EEB9BAF1010F09D129491748FFF75FFEC9
:1007D0002378154809F803A021490BE0BAF1020F6C
:1007E0000DD123491048FFF752FE23780E4809F82F
:1007F00003A02049FFF74BFE23780133237000212B
:1008000040220EA82CF0E2FB0EA8294603F0D7FCEC
:100810009DF8383083BB4FF0000B4CE04C92FF1F2B
:100820002CBEFF1F4FFE0200D8E7FF1F6DBDFF1F4C
:10083000CF070300FC9EFF1FF2DC02000CDD02006C
:100840001ADD02001C94FF1F24DD020030DD0200CF
:1008500049DD020067DD02006EDD020090DD02006E
:10086000B3DD0200B7DD0200D6DD02006892FF1F93
:10087000E9DD02000BDE0200002ECCD19049914848
:10088000FFF705FE90498F48FFF7F9FD9DF83810F6
:100890008C48FFF7F8FD8B488C49FFF7F8FD9DF871
:1008A00038B0BBF11E0FB6D823780BF10A0209F855
:1008B0000320013323700EA8294603F09AF8B0F103
:1008C00000092DDD82497F48FFF7E1FD81497D4820
:1008D000FFF7D5FD49467B48FFF7EDFD7E49794896
:1008E000FFF7D5FD49460EA806F01CF8CDF800909C
:1008F0000EA8E9B20522794B0AF0B2F84A462378ED
:1009000077490EA80CF092FF76496E48FFF7BFFDBD
:1009100049460EA806F006F82378994484F800901A
:100920000EA800214022C8F3011A2CF04FFBDFF87B
:10093000B091BAF1000F1AD0CEB962486A49FFF7F8
:10094000A6FDBAF1010F05D123785E4809F803A08E
:10095000664907E0BAF1020F09D12378594809F82E
:1009600003A06349FFF793FD23780133237000212F
:1009700040220EA82CF02AFB0EA8294603F0ABFC5F
:100980009DF8383013B94FF0000A1EE0002EFAD15E
:1009900058494C48FFF77BFD4B494A48FFF76FFD2C
:1009A0009DF838104748FFF76EFD46485249FFF75B
:1009B0006EFD9DF838A0BAF11E0FE4D823780AF135
:1009C0000A0209F80320013323700EA800214022F7
:1009D0002CF0FCFA9DF80E307BB176B947493948C6
:1009E000FFF755FD237837484049012209F80320D5
:1009F000FFF74DFD2378013323700EA8294603F03D
:100A000026FD9DF83830002B00F0B580672B40F0B4
:100A100091803B492B48DFF8C890FFF738FD294605
:100A20000EA807F0E9F82C4906462648FFF72FFDE7
:100A30000EA8314605F076FF32492248FFF71FFD28
:100A400031462048FFF737FDE9B20EA80922234BB3
:100A500000960AF005F8237832460EA849460CF0B5
:100A6000E5FE20491748FFF712FD0EA8314605F0B4
:100A700059FF32460EA904A802F08CF802F094F94E
:100A800038448344DA4451460E4829F07CFD0D4831
:100A900029F024FD514604A802F080F8054602F032
:100AA000F9F9237880BB4E2209F803204B444F22EA
:100AB00053215A70D970542245219A70197130E02F
:100AC00012DE0200D8E7FF1F67DD020030DE020001
:100AD00052DE020072DE02001ADD02001C94FF1FCB
:100AE0006892FF1F24DD020085DE0200B3DD0200F4
:100AF0000BDE0200A7DE0200C5DE0200E2DE02001D
:100B000000DF02001FDF02002A7809F803204B44AF
:100B10006A785A70AA789A70EA78DA702A791A7123
:100B20006A795A7123780EA8063300214022237077
:100B30002CF04CFA9DF83830244D792B0ED1244AF4
:100B40001378022B0AD023492348FFF7A0FC207812
:100B5000284407F0C1FB23782C3323709DF83830EC
:100B6000752B08D11A4A1378022B04D02378092256
:100B7000EA540133237018F0400F144D0DD017497B
:100B80001548FFF784FC2378134815490222EA54DC
:100B9000FFF77DFC23780133237023780E48114939
:100BA000114C0022EA54FFF772FC14F8011F51B1F6
:100BB000094803681B689847F7E73746BAF1000F02
:100BC0007FF4B2ADC3E51FB0BDE8F08F6892FF1FA0
:100BD0002CBEFF1F32DF0200D8E7FF1F4BDF0200F1
:100BE0000BDE020068DF02006792FF1F044B1A78D9
:100BF000044B18680AB1243800E03038FFF7CCBC49
:100C00002CBEFF1FFC9EFF1F054B1A78054B186872
:100C10000AB1243800E030380630FFF7BDBC00BF11
:100C20002CBEFF1FFC9EFF1FF0B5ADF5844D9BB0A1
:100C3000054646F26004684621464FF4804205F0BE
:100C40000DFF46F260039C4204D1284669464FF4EA
:100C5000804210E02B460DF5804605F140071868EC
:100C60005968324603C20833BB421646F7D12846BC
:100C7000694644F24002002315F086FE044B04F559
:100C800080449C42D7D10DF5844D1BB0F0BD00BF10
:100C900060A0030010B5444B1B6804461878A0F10F
:100CA0003103082B06D84FF47A73303858431FF0BD
:100CB00005FB46E074283FD072283FD03B4B1B78A1
:100CC000002B3ED01CB128F0D1FD002439E0702863
:100CD00036D0682851D0752851D06F2851D065285A
:100CE00051D0642851D0622851D04C2851D052287C
:100CF00051D0552851D0442851D0452851D063288F
:100D000004D12B4B1A7842F0010213E0732804D16E
:100D1000274B1A7842F002020CE0612804D1244BE0
:100D20001A7842F0040205E067280AD1204B1A78AD
:100D300042F008021A7004E02B2402E0282400E0AC
:100D400046241C4B1A780AB91C7012E05A780AB96A
:100D50005C700EE09A780AB99C700AE0DA780AB9F9
:100D6000DC7006E01A790AB91C7102E05A7902B9FE
:100D70005C71BDE8104028F0E3BC4A24E1E74B2455
:100D8000DFE74E24DDE74D24DBE74C24D9E72A24B6
:100D9000D7E75024D5E74F24D3E75224D1E7512495
:100DA000CFE72924CDE700BF5893FF1F049FFF1F03
:100DB0009CE7FF1F96E7FF1FF8B5574B1A78574B74
:100DC0001878574C4AB1AA2807D121680B7823B16B
:100DD000092B02D001312160F3E7524B21681E78C4
:100DE0000B784F4F16FB06F6032596FBF5F5ED0045
:100DF00076001BB94C48FFF742FB81E0012B04D180
:100E0000002A77D14FF22B006AE0022B04D1002A8E
:100E100070D14FF2280063E0092B19D1434B1B78A6
:100E2000022B77D040484249424CFFF730FB012368
:100E30002360414B1E681D4606F57A662268002A2B
:100E40005CD02B68B34259D200200CF0B5F8F5E71E
:100E5000A3F10A005FFA80FCBCF1150F0AD8002A42
:100E600058D14FF47A7358431FF028FA3B68013386
:100E70003B60F8BD202B31D148785C282ED1013160
:100E8000396092B1F8BD5C2B14D1254B01321A6048
:100E90000020FFF7FFFE28461FF010FA23685A1CB7
:100EA00022605A78202A07D04AB122681378002B92
:100EB000E9D112E00120ECE7194A0233136028F06F
:100EC00021FD28461FF0FAF928F01CFDFFF700FB72
:100ED0003046BDE8F8401FF0F1B9F8BD52B91846E8
:100EE00028F0C4FC28461FF0E9F928F00BFD304635
:100EF0001FF0E4F9236801332360F8BD0023236069
:100F00000E480F4901F0A8F80C480E49BDE8F8401A
:100F100001F0D3B8F8BD00BF6DBDFF1FF6BCFF1FC9
:100F20005893FF1FA08CFF1FD8E7FF1F2CBEFF1F89
:100F300082DF020074BFFF1F9CE5FF1F9093FF1F1D
:100F40005092FF1F2492FF1F08B507480749FFF77B
:100F500096FA074807F01EFC064B012205201A707E
:100F600007F00AFDF5E700BFD8E7FF1F98DF020092
:100F700092DF0200F6BCFF1F2DE9F74FA44E337835
:100F800004466BB9A34B1B6803F00F03092B05D173
:100F9000142803DDA04B1A6803321A602D2000E0EC
:100FA00000209E4F07F0B8FC3B68022B01DDFFF7E5
:100FB000CBFF9B4D2B6801332B609A4B1A789846D8
:100FC000002A45D0684602F04EF89DF8003003B381
:100FD00001A802F03BF89DF80430132B0AD9002336
:100FE0009148FF221A540133202BF9D108F04AFD11
:100FF000002003E001338DF8043001A802F02EF840
:101000008A498B48FFF743FA89489DF80410FFF797
:1010100048FA884B1A6801321A609DF800302A6835
:101020000133DBB201320A2B8DF800302A6009D976
:1010300081497F48FFF72BFA9DF800107C48FFF7A5
:1010400030FA56E0684602F016F8002388F80030BF
:10105000DFF8E0B1DFF8C0A1DBF800309AF800104B
:1010600076480133CBF8003001F0C5F82B68013326
:101070002B60734B1B680322B3FBF2F101EB4101C0
:10108000581A134018441FF019F9614B1978564645
:10109000D94689BB694801F0D5F868BB674801F0BB
:1010A0005DFA48BB1AE3472C00F3DF81A4F1480244
:1010B000352A40F2FA81574A126802F00F02092AD3
:1010C00040F0F081B4F5877F80F2EF81592C514FC9
:1010D00040F3FE813268322A40F03E82594A12784B
:1010E000002A00F039823A6802F00F02092A40F023
:1010F000338207F06BFB4FE3454BD9F8002093F8A0
:1011000000A00132C9F80020BAF1000F46D15046C4
:1011100001F0B1FF494801F07BF84A4BC7F800A045
:101120001A781D4622B948480BF058FE07F032FBEA
:1011300046484749474C00F08FFF47493C48FFF776
:10114000A6F9207807F0E6F8552007F04BFD434B51
:101150001B78022B274608D009F0CCFE17F0E1FFE0
:10116000002001F07BFF0CF06BFB3D4B3D4A196802
:101170001160274A012010702A781C4612B138707D
:1011800007F0C8F82568C8352368AB4203D20020B1
:101190000BF012FFF8E71EF07DF9FDE2324A1078FD
:1011A00000286FD1542C6DDD3268312A1FD12B4AB3
:1011B0001278022A66D0174B1B6803F00F03092B25
:1011C00011D1062010E0092A6FDD0A2A40F088803C
:1011D00007F052FB3368312B17D10E4B1B6803F01D
:1011E0000F03092B11D0012008F076FDD4E2322A3A
:1011F0003CD11A4A1278022A44D0064B1B6803F0ED
:101200000F03092B01D10520EEE70220ECE700BF18
:10121000A5BDFF1F24800440FC9EFF1F6492FF1F9A
:101220009493FF1F808CFF1FBC93FF1FF2DF02000F
:10123000D8E7FF1F9893FF1F2EE0020000BEFF1F9C
:10124000FCBDFF1F46BEFF1F4AE002009093FF1F38
:101250003892FF1FF6BCFF1F5EE002002CBEFF1F8E
:101260009CE5FF1F48BEFF1F74BDFF1F332A09D135
:10127000994A1278022A05D0984A126802F00F02A1
:10128000092AB1D1964A12682AB9964A1268002AE8
:1012900000F0828224E0032A02DC934893490AE0AA
:1012A000062A90DC9048924905E08B4A1278022A7F
:1012B00008D08D488F49FFF7E2F831688A48303905
:1012C000FFF7F9F88C4B1B78002B00F065828B4CF4
:1012D0002D230120237007F04FFB012323705BE2D5
:1012E000874F88498048DFF868B200223A70FFF7DC
:1012F000C6F831687C483039FFF7DDF8824A834907
:101300001068086074490978022900F0A381DFF8A9
:1013100044A29AF80010012957460CD17C4890F855
:1013200000E0DBF80000704529D17A48007830B33E
:101330006D4879490DE0022919D1784890F800E00C
:10134000DBF8000070451AD172480078B8B16648E1
:101350007349FFF794F8DBF8001063483039FFF762
:10136000AAF89AF8003001338AF8003014E2032911
:1013700005D16C4ADBF800001278904207D06A4A27
:101380001278012A03D0694A1278012A05D1614AEC
:10139000127812B1664A12787AB90329644A05D1E3
:1013A0001078F52802D15B48007830B91278F62A17
:1013B00044D1584A1278002A40D05E494A485C4CD1
:1013C000FFF75DF8316848483039FFF774F80423B7
:1013D000554A3B7000231370544A13702378ED2B49
:1013E00006D1554803716378437104F0B9FB1FE0DF
:1013F000F02B06D1504803716378437104F024FD4B
:1014000016E0F52B02D104F06DFD11E0F62B0FD1A3
:101410004A4D01232B603C4B1E6806F57A662B680B
:1014200023B1394A1368B342C0F0A98100232B606D
:1014300000203870207007F0D5FBADE100293FF4A3
:1014400032AE334A00231370344A3B701370354A6E
:101450000120137007F0C6FB394807F09BF9394BA0
:10146000FF2118781EF026FE96E17D2C06DD1B4A32
:10147000126802F00F02092A3FF418AE3268312ACE
:101480007FF414AE234A1278002A7FF40FAE2E4860
:101490002E4900F0E1FD0AF0B1FD2B482B4900F088
:1014A0000CFE79E18B2C7FF711AE3268322A7FF483
:1014B0000DAE184A1278002A7FF408AE012007F01A
:1014C00007F98B2C40F36881012007F04BF863E1AA
:1014D000472C7FDD47E000BF2CBEFF1F2480044067
:1014E00028BEFF1F349FFF1FD8E7FF1F6AE00200DE
:1014F00067E0020082E0020046BEFF1FF6BCFF1F4D
:101500006892FF1FA6E002009CE5FF1F48BEFF1F78
:1015100044BEFF1F6DBDFF1FB7E0020045BEFF1FA9
:10152000CAE00200A7BDFF1FA6BDFF1FA4BDFF1F8D
:10153000B19EFF1FDDE0020021BDFF1F74BFFF1F32
:10154000F0E00200F9BDFF1F9093FF1F2492FF1FE0
:10155000FC9EFF1F20BDFF1F7D2C04DD3A6802F0BA
:101560000F02092A36D03268332A33D18C4A92F8D6
:1015700000A0BAF1000F2DD18A4B8B4883F800A050
:10158000012488F8004000F043FE884B88481C6026
:10159000514620222BF01AFD8648874900F08DFD28
:1015A000864BC3F800A03B6803F00F03092B0DD155
:1015B000834D2B782E46002B40F0E5807A4800F0D2
:1015C000CDFF002800F0DF802C70E2E07D4B7E4AEA
:1015D0001A60E1E03A6802F00F02092A05D1B4F579
:1015E000877F37DB3268332A03E0472C32DD3268ED
:1015F000362A2FD16A4A92F800A0BAF1000F29D1F9
:101600002A68694801322A60704A01241470654AC8
:1016100088F8004082F800A000F0FAFDD9F8002018
:101620002244C9F80020614A14603A6802F00F02AF
:10163000092A40F0B1805C48C6F800A000F002FE24
:10164000002840F0A680584800F088FF002840F0AD
:10165000A080A1E0002007F05FF95D4A126802F067
:101660000F02092A0FD1A4F1B402582A04D8326813
:101670000332326015240EE07D2C04DD3268033223
:1016800032600A2401E0142C05DC504B1B7813B99E
:10169000FFF7ACFA14E0A4F11503442B05D84B4B2B
:1016A0001B786BB9FFF7B0FA0AE0592C08DD474BFD
:1016B0001B782BB9474B012202201A7007F05CF906
:1016C000454B464A3B4846491A6000F0C5FC454B2D
:1016D000384845491A7800F0D1FC5DE0324801F005
:1016E0008DF820B141494248FEF7D1FE01E5DBF813
:1016F00000302E4C0133CBF800302368092B15DC69
:101700003C493B48FEF7BBFEDAF800103848303958
:10171000FEF7D1FE38493648FEF7B1FE344821685D
:10172000FEF7C9FE23680133236035E03B680125DD
:101730002B443B60274B88F8005003201D7007F0B6
:101740001BF92E492A48FEF79AFE684601F08BFCE9
:101750009DF800102648C1F10A0128F014FF28491D
:101760002348FEF794FE27492148FEF790FE0E48D5
:1017700000F04EFD3B682560022B0DDD17E40020D4
:101780000BF01AFC4BE6337833B1074800F05AFDF2
:101790005CE70A20FFF7F0FB03B0BDE8F08F00BF65
:1017A0006DBDFF1FA5BDFF1F00BEFF1F848CFF1F67
:1017B0001C94FF1F9093FF1F3892FF1FFC9EFF1F7A
:1017C000D4BDFF1F0CED00E00400FA0546BEFF1F6C
:1017D00024800440F6BCFF1F5893FF1F6892FF1F30
:1017E0002492FF1FA08CFF1F5092FF1F16E10200E2
:1017F000D8E7FF1F6AE0020030E102005CE102006E
:1018000075E10200ABE1020073B5102028F0AEFBD9
:101810007D4B7E4D7E4C7F487F4E00221A707F4B61
:1018200006221A707E4B01221A707E4B16221A7005
:101830007D4B17221A707D4B11221A707C4B0F22A0
:101840001A707C4B10221A700E2320212B70152346
:10185000237005F0A3F9306000F0D2FB287828F05F
:10186000AFFB0090207828F0ABFB734B01901A6817
:1018700001321A60714B1B78442B24D07048FFF75B
:10188000D3F902246E4D6319204613F8021C01346B
:1018900028F044FA422CF5D100214FF4006228468A
:1018A0002BF094FB44200CF0D7F8664904466648B8
:1018B000FEF7E5FD1CB164486449FEF7E0FD6248AF
:1018C0006349FEF7E4FD346874B905F047F86148F0
:1018D00001F01BFB604B61495B4801221A70604BB1
:1018E0001C70FEF7D4FD46E0544B1B78442B3FD1CF
:1018F00020215C485C4C05F0BFF95C4805F0EAF932
:101900005B4805F051FA204601F06CFB594801F0A4
:101910004FFB59494C48FEF7BAFD4B482178FEF77A
:10192000C0FD23780BB904232370544C544801F0B4
:1019300073FB484801F0E1FA204601F060FB514991
:101940004148FEF7A4FD21783F48FEF7AAFD1EF0AE
:1019500019FD414B4C493C4800221A70404B012272
:101960001A70FEF794FD4948494900F0A6FB02E0D1
:10197000484B494A1A60494B49481A68494901325B
:101980001A6040F2FD720DF023FE454869460222BE
:1019900004230DF0D5FD02220423414801A90DF0D6
:1019A000CFFD41492848FEF76AFD40F2A57126485F
:1019B000FEF781FD214B244819781022002328F0DE
:1019C000AAFD214828F08AFD07F024FA06F082FFDC
:1019D00007F0BEFC2D48354900F06FFB344B1B6807
:1019E00003F00F03092B0DD11D4B1B7853B1314868
:1019F00000F028FC18B92F4800F0B0FD10B10A2003
:101A0000FFF7BAFA02B070BD2CBEFF1F18BEFF1F51
:101A1000B09EFF1F9C93FF1F349FFF1FF9BDFF1F48
:101A200060BEFF1F61BEFF1F62BEFF1F63BEFF1FC0
:101A300024BEFF1FB4BEFF1F9493FF1F020002408D
:101A40003C9FFF1FEAE10200D8E7FF1FFFE1020011
:101A500004E20200C88CFF1FA5BDFF1F19E20200AF
:101A600074BDFF1FBC93FF1FA08CFF1FFC93FF1FC3
:101A7000DC93FF1F049FFF1F2EE202009EE9FF1F61
:101A800019BEFF1F3BE202007B0903009093FF1F7A
:101A90003892FF1F0CED00E00400FA059893FF1F39
:101AA000B8BEFF1F52E002004DE202002492FF1F69
:101AB0002480044000BEFF1FF8B521201EF0D0FA9C
:101AC000E8B94B4B1D6804461E46326840F6B733F2
:101AD000521B9A4207D864201EF0F0FB21201EF012
:101AE000BFFA0444F1E754B92046012128F016F961
:101AF0000120014628F012F93E4B3F4A1A603F4B45
:101B00003F4D1B7A012B0DD13E4B1B780BB12B782F
:101B100043B13D4B1B78032B02D0032004F0CEFED3
:101B20000BF01EFD394B3A4C1A6801321A60394BE2
:101B30001A680623B2FBF3F003FB10201EF0BEFB75
:101B40002278354BDAB11A68002001321A600BF0A6
:101B500033FA324B1B78ABB1314B1B6893B106F0B3
:101B6000CDFB304B1B786BB1214A11682E4A1268AD
:101B70008A1A4EF660214B439A4221D202E01A683B
:101B800001321A602B784BB123783BB11D4B1B7887
:101B900023B9264B0120187006F0BCFB07F01CFA95
:101BA000234A12780A32D2B2012A04D82D20BDE885
:101BB000F84006F0B1BEC8B1BDE8F840FFF7DCB9A7
:101BC0001C4B1D48002601271F70267000F020FBCB
:101BD0001A4B1B481F60202231462BF0F7F9194899
:101BE000194900F06AFA044A024BCAE7F8BD00BF7F
:101BF0009CE5FF1F0CED00E00400FA0575BDFF1F1A
:101C000046BEFF1F6DBDFF1FF8BCFF1F9493FF1F53
:101C1000A5BDFF1FFCBDFF1F9893FF1F74BDFF1FD5
:101C2000349FFF1FC88CFF1F48BEFF1FF6BCFF1F5D
:101C3000F5BCFF1F808CFF1F00BEFF1F848CFF1FA1
:101C40001C94FF1F9093FF1F3892FF1F70B51D4D0E
:101C50002B6803F00F03092B2BD11B4C00212046CE
:101C600028F038FA18B32379E12B20D163792F2B90
:101C70001DD9164B1B78D3B1154B1E78BEB92B68F6
:101C800003F00F03092B12D1124B134801221A70D3
:101C900000F0BEFA0BF0B8FD104B0A201860FFF7F9
:101CA0006BF92046314640222BF090F904E00C48B5
:101CB00000E00C4806F06EFD0A490B48FEF7E7FB12
:101CC00070BD00BF2480044021BDFF1F74BDFF1FF5
:101CD000A5BDFF1F808CFF1F00BEFF1F848CFF1F50
:101CE0005AE202007B090300D8E7FF1F08B527F07E
:101CF000CBFF3221084A094800F022FA3221084A73
:101D0000084800F01DFA0848084A4FF47A71BDE807
:101D1000084000F015BA00BFB91A00002492FF1F56
:101D2000B90D00005092FF1F3892FF1F4D1C00009C
:101D30002DE9F04F0A46C9B00023CD5CD47844EABF
:101D40000564557844EA0544957803F1200644EA91
:101D5000052404336D46402B745102F10402ECD18A
:101D600008AB002208AF9C6B5E6ABD5859683544C9
:101D70004FEA744686EAF44686EA94242C444FEAF5
:101D8000F11585EAB14585EAD10104322144C02A22
:101D9000196403F10403E5D1026D0092436D426EB4
:101DA0000193856D836EC66D076E02950396C56EB1
:101DB0000497059217469DE8140006931E46DDF829
:101DC0000CC0049B02990795A846002505F1200B3D
:101DD000E9465BF809A0DFF8989055F80990D144DE
:101DE0004FEAB31A8AEAF32A8AEA736AD14426EAE6
:101DF000030B07EA030A8BEA0A0AD144C84481EAC2
:101E0000040901EA040A09EA020989EA0A094FEA0F
:101E1000B20A8AEA723A8AEAB25A0435D144B5F56E
:101E2000807FC444C14408D0B0463E461F46634646
:101E30008C46214614464A46C8E7009D4D44056538
:101E4000019D2A444265029A039D1444049A8465C4
:101E500062440266059A134429444366079D069B23
:101E6000C1651F442E448766C66649B0BDE8F08F41
:101E700068E202000023036400220023C0E9122369
:101E80000A4B03650A4B43650A4B83650A4BC365DE
:101E90000A4B03660A4B43660A4B836603F174538D
:101EA000A3F52303A3F69243C366704767E6096A66
:101EB00085AE67BB72F36E3C3AF54FA57F520E516B
:101EC0008C68059BABD9831F2DE9F04106460F4670
:101ED00001EB0208474516D0336C17F8012BF2547A
:101EE0000133402B3364F5D130463146FFF720FFF4
:101EF000D6E9124514F5007445F100050023C6E942
:101F000012453364E6E7BDE8F081026C2DE9F84F35
:101F1000372A88464FF08001814602F1010381543F
:101F200006D8382B14D0002209F803200133F8E733
:101F30003F2B04D8002209F803200133F8E7484674
:101F40004946FFF7F5FE4846002138222BF03EF8BF
:101F5000D9F84030D900D9E91223521843F10003CF
:101F60004FEA122A160C140E4AEA036A4FEA132BA0
:101F700046EA03461F0C44EA03241D0EC9E9122356
:101F800089F83B30494689F83F2089F83EA089F816
:101F90003D6089F83C4089F83AB089F8397089F891
:101FA00038504846FFF7C4FE43460321D9F8500095
:101FB000CA00D0401870D9F85400D0401871D9F830
:101FC0005800D0401872D9F85C00D0401873D9F886
:101FD0006000D0401874D9F86400D0401875D9F862
:101FE0006800D0401876D9F86C00013920FA02F266
:101FF0001A774A1C03F10103D8D1BDE8F88FFFFF1F
:1020000007B5064B06499A680092DA6801920CCB34
:1020100004482BF00FFA03B05DF804FB5C93FF1F3C
:1020200068E302006C93FF1F064B1A68064B1A60A8
:10203000064A12685A60064A12689A60054A12688F
:10204000DA607047548004405C93FF1F588004405E
:102050005C80044060800440036873B18B4205D10A
:102060001B69036070478A4204D013461A69002A2C
:10207000F9D102E00A691A617047704770B50646E7
:102080000C461546FFF7E8FF33680BB9346004E0EF
:102090001A690AB11346FBE71C611EF0EFF82368CA
:1020A0000322C01A4FF4FA536B43B5FBF2F55D43BC
:1020B000002360602560236170BD38B505460C467D
:1020C000FFF7CAFF2B680BB92C6004E01A690AB14C
:1020D0001346FBE71C611EF0D1F82368C01A0023E9
:1020E0006060236138BD38B50C461EF0C7F86268E1
:1020F000236813449842054605D36268934208D288
:102100006268824205D86268954207D262689A4244
:1021100004D8A560E36820469847656038BD38B5A7
:1021200005462C68002CFCD021462846FFF7DBFF33
:102130002469F7E708B50148FFF7F1FF9093FF1F07
:1021400010B54FF47A746143C260002201604260AE
:10215000026110BD4FF47A73594301607047FFFF6D
:10216000F8B504460E4615461F46044AFFF7E8FF39
:102170006661E561A7612046F8BD00BFA1210000AE
:1021800010B50021044680F82010FFF7E3FF214638
:102190000248BDE81040FFF790BF00BF9093FF1FBB
:1021A00010B590F8203004463BB9012380F8203068
:1021B0004169BDE81040FFF7CDBF012B10D10948A0
:1021C0002146FFF749FFE36913B9A06920B910BDA3
:1021D0002046984720B1F8E7BDE81040FFF7D0BF90
:1021E00010BD00BF9093FF1F002241614274027036
:1021F000704741617047437C102B07D05A1CD2B204
:102200004274C1540023835401207047002070475A
:10221000002343740370704710B544690278217835
:10222000002321B9D2F1010038BF002010BD914236
:1022300006D1E2185178C2180133102B5278F0D130
:10224000002010BD2DE9F043B7B004462BF070F923
:10225000AB4B1B6803F00F03092B054613D1A94BA9
:102260001A78012A02D10020187046E158B9A64B0D
:10227000224603F1100153F8040B42F8040B8B4281
:10228000F9D1102505E0062803D81E201EF016F807
:1022900032E11AA8FFF7EEFD2A4621461AA8FFF7F9
:1022A00013FE9A499A48FEF7F2F82046294604F0B0
:1022B00039FB98499648984CFEF7E1F89748202159
:1022C00004F030FB20221AA89449FFF7FDFD1AA85C
:1022D0000AA9FFF71AFE9DF8283023F007038DF8AE
:1022E00028309DF8473003F03F0343F040030022BD
:1022F0000AA920468DF847300CF0E0F88849844858
:10230000FEF7BDF82021204604F00CFB1AA8FFF7C9
:10231000B1FD12A800F0B4FE1AA812A91022FFF70E
:10232000D3FD1AA87F491022FFF7CEFD20221AA85C
:102330002146FFF7C9FD21461AA8FFF7E6FD1AA8B6
:10234000FFF798FD1AA812A91022FFF7BDFD1AA8E1
:1023500074491022FFF7B8FD20221AA87249FFF72E
:10236000B3FD1AA802A9FFF7D0FD70496848FEF72F
:1023700086F82046202104F0D5FA6D496448FEF71E
:102380007EF802A8202104F0CDFA6A4B9DF808508F
:10239000D3F80080684B20781A68531C02F11F099B
:1023A00002F1200CC2EB08014B4503F1FF37C2F1EB
:1023B0000006194440F08B805E4B5F4C19608542EB
:1023C000276004D05C4B1A6801321A6094E00DF16A
:1023D000070000F0FAFD59494D48FEF750F8002378
:1023E0004B489DF807100A2228F095F89DF8073011
:1023F0004948012B22D104F005FD18B94648504A3E
:102400000AA921E04E4A0AA902A80CF057F84D4942
:102410003F48FEF734F802A8202104F083FA4A4925
:102420003B48FEF72CF812A8202104F07BFA47491C
:102430003748FEF724F84648102113E004F0E2FC88
:1024400028B93548384A0AA90CF038F82DE00AA90D
:10245000354A02A80CF032F83A492D48FEF70FF839
:1024600002A8202104F05EFA1AA8FFF703FD1AA8BB
:1024700012A92022FFF728FD1AA835491022FFF7DC
:1024800023FD1AA802A92022FFF71EFD20221AA868
:102490002249FFF719FD1AA80AA9FFF736FD1E48C1
:1024A0002B490AAA202304F08FF82A491848FDF77F
:1024B000E6FF1948202104F035FA2368264A013343
:1024C0002360002313700F4A0120137015E085422A
:1024D00004D0184B1960184B1F6073E702A83044F2
:1024E0002644C55CF05C1E46013363457FF45AAF59
:1024F000104B1960104B1E60002037B0BDE8F08310
:1025000024800440D4BDFF1F7E93FF1F80E30200A0
:10251000D8E7FF1F96E302001C94FF1F9C93FF1F48
:10252000A2E302007C93FF1FBC93FF1FBAE30200EB
:10253000D2E302009493FF1F9893FF1FEDE3020084
:10254000DC93FF1F07E402001FE402009C0003006D
:102550006C93FF1FFAE302002CBEFF1F2DE9F0432E
:10256000B7B004462AF0E4FF904B1B6803F00F035A
:10257000092B05460CD158B98D4B224603F11001A9
:1025800053F8040B42F8040B8B42F9D1102505E0F7
:10259000062803D81E201DF091FE93E01AA8FFF72D
:1025A00069FC2A4621461AA8FFF78EFC8149824819
:1025B000FDF76DFF2046294604F0B4F97F497E48B7
:1025C0007F4CFDF75CFF7F48202104F0ABF920220F
:1025D0001AA87C49FFF778FC1AA80AA9FFF795FC0E
:1025E0009DF8283023F007038DF828309DF84730F8
:1025F00003F03F0343F040030AA9002220468DF870
:1026000047300BF05BFF1AA8FFF734FC12A800F06C
:1026100037FD1AA812A91022FFF756FC1AA86A491A
:102620001022FFF751FC20221AA82146FFF74CFC8C
:1026300021461AA8FFF769FC1AA8FFF71BFC1AA885
:1026400012A91022FFF740FC1AA85F491022FFF7D9
:102650003BFC20221AA85D49FFF736FC1AA802A904
:10266000FFF753FC5A495448FDF709FF2046202143
:1026700004F058F957495048FDF701FF02A82021FE
:1026800004F050F9544B9DF80850D3F80080534B98
:1026900020781A68531C02F11F0902F1200CC2EBCA
:1026A00008014B4503F1FF37C2F10006194465D11B
:1026B000494B4A4C19608542276005D0474B1A6840
:1026C00001321A6000206EE00DF1070000F07DFC81
:1026D0009DF80730022B46D0394804F093FB28B907
:1026E0000AA93F4A36480BF0E9FE2DE03C4A0AA908
:1026F00002A80BF0E3FE3B492F48FDF7C0FE202166
:1027000002A804F00FF91AA8FFF7B4FB1AA812A93F
:102710002022FFF7D9FB1AA833491022FFF7D4FB78
:102720001AA802A92022FFF7CFFB20221AA82549C8
:10273000FFF7CAFB1AA80AA9FFF7E7FB20482A49B6
:102740000AAA202303F040FF28491B48FDF797FE03
:102750001B48202104F0E6F8254B01221A70254B76
:1027600054221A7005E0244A1278002AAAD1204A7D
:102770001370236801332360012014E0854204D0E4
:10278000154B1960154B1F6098E702A8304426448A
:10279000C55CF05C1E460133634580D10E4B196069
:1027A0000E4B1E608EE737B0BDE8F08324800440F6
:1027B0007F93FF1F26E40200D8E7FF1F96E3020085
:1027C0001C94FF1F9C93FF1F7C93FF1FDC93FF1F34
:1027D000BAE302003CE402009493FF1F9893FF1FAA
:1027E000BC93FF1F5BE402006C93FF1FFAE302003F
:1027F0002CBEFF1FD4BDFF1F46BEFF1F30B59DB0CE
:1028000005462AF095FE0628044603D81E201DF032
:1028100055FD35E06846FFF72DFB22462946684600
:10282000FFF752FB18491948194D1A4CFDF727FEBE
:102830001948202104F076F8202268461649FFF74F
:1028400043FB29466846FFF760FB104827F046FE29
:1028500012490E48FDF713FE2046202104F062F8CD
:1028600022782878002382420AD1E218E91801333D
:102870001E2B52784878F6D1131A5842584100E07E
:1028800000201DB030BD00BF96E30200D8E7FF1F57
:102890001C94FF1FFC93FF1F9C93FF1F73E4020017
:1028A00027F0F2B910B5084B00F14C0203F1140106
:1028B00053F8044B42F8044B8B42F9D100230366D2
:1028C00080F8483010BD00BF888CFF1F2DE9F04F05
:1028D000416D826DC36DD0F84C80D0F850C085B08A
:1028E00099460191029203934646134600240A46F4
:1028F0006146E5B20F2D07D883EA020A0AEA010A07
:102900008AEA030A334F3FE004F10D0B04F1080794
:102910000BF00F0B07F00F070BF1020B023705F05E
:102920000F0A50F8277050F82BB000EB8A0A8BEA98
:10293000070BDAF808708BEA070BA71C07F00F07E4
:102940000237132D50F827708BEA07074FEAF77705
:10295000CAF80870D0D9272D05D882EA010A8AEA78
:10296000030A1D4F10E03B2D09D842EA010A02EA92
:1029700001070AEA030A4AEA070A184F04E082EA52
:10298000010A174F8AEA030A05F00F05023557447A
:1029900050F82550013405EBF6653D44502C4D446C
:1029A0004FEAB10105D0994613460A4631462E46F4
:1029B0009FE7019C2144416502990A448265039A7C
:1029C000454466441344C5640665C36505B0BDE867
:1029D000F08F00BF9979825AA1EBD96EDCBC1B8FB6
:1029E000D6C162CA90F8483083F003020133DBB2EB
:1029F0000244402B10B51172044680F8483004D1CF
:102A0000FFF764FF002384F8483010BD08B5026E5C
:102A100001320266FFF7E6FF012008BD10B58021F4
:102A20000446FFF7DFFF94F84830382B20464FF07C
:102A30000001F6D1FFF7D6FF20460021FFF7D2FFB5
:102A400020460021FFF7CEFF216E2046490FFFF7F9
:102A5000C9FF216E2046C1F34751FFF7C3FF216E26
:102A60002046C1F34731FFF7BDFF216E2046C1F379
:102A70004711FFF7B7FF216EC900204601F0F801AA
:102A8000BDE81040FFF7AEBF10B50446FFF7C6FF24
:102A90000023E2180433D16C142B09BAD164F8D1A5
:102AA00004F14C0010BDF8B500F164061746044669
:102AB0000D463046002140222AF088FA402F18DDCA
:102AC0002046FFF7EFFE2F44BD4206D0236815F8DD
:102AD000011B1B6820469847F6E72046FFF7D4FF06
:102AE00000F1140250F8041B46F8041B9042F9D17F
:102AF00004E0304629463A461CF012FC2046FFF717
:102B0000D1FE254604F1400695F86410236820465E
:102B10001B6881F0360101359847B542F4D1F8BD04
:102B200070B50446FFF7B0FF04F1A40300F11402EE
:102B300050F8041B43F8041B9042F9D12046FFF7DC
:102B4000B1FE04F14006254695F86410236820463E
:102B50001B6881F05C0101359847B542F4D104F15E
:102B600014062546236895F8A4101B6820460135F5
:102B70009847B542F6D12046BDE87040FFF784BFC4
:102B8000024B00221A71024A1A6070473C94FF1FE0
:102B900090E4020080E806007047FFFF1E2391FBCF
:102BA000F3F10B0E70B51E4E03740B140446002592
:102BB00043740B1281608374C174057394E806003A
:102BC00045738573C5733046FFF76DFF336804F1B5
:102BD0000C015B680822304698473046FFF7A0FF9B
:102BE0006061C37CE56103F00F03A361E269C11872
:102BF0001202E261495D01350A43042DE261F5D11B
:102C0000084B22F0004292FBF3F103FB1122E26138
:102C10002034204604492AF00DFC204670BD00BF38
:102C20003C94FF1F40420F0098E402003C23B0FB9D
:102C3000F3F203FB12000870B2FBF3F003FB102366
:102C40004B701823B0FBF3F203FB12008870131DC6
:102C50000720B3FBF0F0C0EBC0001B1AF0B5013346
:102C60000024CB702046E7B207F2B27313F00306DC
:102C700012D1642593FBF5FC05FB1C357DB94FF49F
:102C8000C87593FBF5FC05FB1C35002D40F26D1556
:102C900008BF4FF4B77504E040F26D1501E04FF442
:102CA000B7752844904204F10104DCD98F7196B9BC
:102CB000642493FBF4F504FB15347CB94FF4C87419
:102CC00093FBF4F504FB1534002C40F26D1408BF9F
:102CD0004FF4B77404E040F26D1401E04FF4B774A0
:102CE000041B141B642293FBF2F702FB17374FF40B
:102CF000C87293FBF2F002FB10330022D5B2012D13
:102D000006D146B94FB9002B0CBF1D201C2005E091
:102D10000948105C02E01C2000E01D20844205D31D
:102D200001320C2AC0EB0404E8D115460135013408
:102D30004D710C71F0BD00BF9EE4020038B5054C2A
:102D400023689842054603D00349FFF76FFF2560CB
:102D500038BD00BFF494FF1FF894FF1F08B5FFF7BC
:102D6000EDFF024B987900F2B27008BDF894FF1F96
:102D7000074B1860074B1B681844074B1860074B3C
:102D800002221A70064B1A68064B1A60704700BF81
:102D90000095FF1F9C8CFF1F1095FF1F0495FF1FC0
:102DA0009CE5FF1F0C95FF1F70B51649164C0A686D
:102DB000236816480068801AB0F57A7F02F57A76A3
:102DC00003F1010502D32B463246F2E7104D0A60AB
:102DD0002A6823609A4213D80E4B1B6883B1984728
:102DE00010B1FFF7C5FF0BE00B4B1A68064B1B68D1
:102DF00013442B60094B1A78003218BF01221A7055
:102E0000206870BD0C95FF1F0095FF1F9CE5FF1FFC
:102E10001095FF1F0895FF1F9C8CFF1F0495FF1F37
:102E200008B5FFF7C1FFFFF789FF014B987808BD90
:102E3000F894FF1F08B5FFF7B7FFFFF77FFF014BBF
:102E4000587808BDF894FF1F08B5FFF7ADFFFFF7EE
:102E500075FF014B187808BDF894FF1F08B5FFF700
:102E6000A3FFFFF76BFF014B187908BDF894FF1F14
:102E700008B5FFF799FFFFF761FF014B587908BDCF
:102E8000F894FF1F08B5FFF78FFFBDE80840FFF774
:102E900065BFFFFF08B5FFF787FF014B187808BD36
:102EA0000495FF1FF8B506460D468F180C46BC4228
:102EB00006D0204626F01EFF731B18550134F6E796
:102EC000F8BDF8B506460D468F180C46BC4206D034
:102ED000731B2046195D26F021FF0134F6E7F8BD8B
:102EE00008B54FF4D5610122FFF7DCFF012008BDD2
:102EF0004FF4D5610122FFF7E4BF08B540F2A961A4
:102F00000122FFF7CFFF012008BD40F2A961012295
:102F1000FFF7D7BF08B540F2AA610122FFF7C2FF51
:102F2000012008BD40F2AA610122FFF7CABF08B51F
:102F300040F2D561D022FFF7B5FFD02008BD40F2A6
:102F4000D561D022FFF7BDBF08B540F2AB610122C9
:102F5000FFF7A8FF012008BD40F2AB610122FFF797
:102F6000B0BF08B540F2AC610122FFF79BFF012022
:102F700008BD40F2AC610122FFF7A3BF08B540F2E3
:102F8000AD610122FFF78EFF012008BD40F2AD6167
:102F90000122FFF796BF08B540F2A5710122FFF7A5
:102FA00081FF012008BD40F2A5710122FFF789BF12
:102FB00008B540F2A6710122FFF774FF012008BD99
:102FC00040F2A6710122FFF77CBF08B540F2AE6166
:102FD0000122FFF767FF012008BD40F2AE61012228
:102FE000FFF76FBF08B540F2AF610122FFF75AFF4C
:102FF000012008BD40F2AF610122FFF762BF08B5B2
:103000004FF4D6610122FFF74DFF012008BD4FF4B8
:10301000D6610122FFF755BF08B540F2D361012206
:10302000FFF740FF012008BD40F2D3610122FFF706
:1030300048BF08B540F2D4610122FFF733FF0120F9
:1030400008BD40F2D4610122FFF73BBF08B540F252
:10305000B1610122FFF726FF012008BD40F2B161F6
:103060000122FFF72EBF08B540F2B2610122FFF73F
:1030700019FF012008BD40F2B2610122FFF721BF14
:1030800008B540F2B3612022FFF70CFF202008BDF5
:1030900040F2B3612022FFF714BF08B540F21C6173
:1030A0000122FFF7FFFE012008BD40F21C61012252
:1030B000FFF707BF08B540F21D610122FFF7F2FEDE
:1030C000012008BD40F21D610122FFF7FABE08B5DC
:1030D00040F21E610122FFF7E5FE012008BD40F22B
:1030E0001E610122FFF7EDBE08B540F21F6101220B
:1030F000FFF7D8FE012008BD40F21F610122FFF753
:10310000E0BE08B54FF4C4610122FFF7CBFE0120F9
:1031100008BD4FF4C4610122FFF7D3BE08B540F2E9
:1031200021610122FFF7BEFE012008BD40F22161AE
:103130000122FFF7C6BE08B540F222610122FFF767
:10314000B1FE012008BD40F222610122FFF7B9BEA5
:1031500008B540F223610122FFF7A4FE012008BD5B
:1031600040F223610122FFF7ACBE08B540F22461B2
:103170000122FFF797FE012008BD40F224610122E1
:10318000FFF79FBE08B540F225610122FFF78AFED6
:10319000012008BD40F225610122FFF792BE08B56B
:1031A00040F226610122FFF77DFE012008BD40F2BA
:1031B00026610122FFF785BE08B540F22761012292
:1031C000FFF770FE012008BD40F227610122FFF7E2
:1031D00078BE08B54FF4C5610122FFF763FE0120F8
:1031E00008BD4FF4C5610122FFF76BBE08B540F280
:1031F00029610122FFF756FE012008BD40F2296136
:103200000122FFF75EBE08B540F22A610122FFF7F6
:1032100049FE012008BD40F22A610122FFF751BE9C
:1032200008B540F22B610122FFF73CFE012008BDEA
:1032300040F22B610122FFF744BE08B540F22C6139
:103240000122FFF72FFE012008BD40F22C61012270
:10325000FFF737BE08B540F22D610122FFF722FECD
:10326000012008BD40F22D610122FFF72ABE08B5FA
:1032700040F22E610122FFF715FE012008BD40F249
:103280002E610122FFF71DBE08B540F22F61012219
:10329000FFF708FE012008BD40F22F610122FFF771
:1032A00010BE08B54FF4C6610122FFF7FBFD0120F7
:1032B00008BD4FF4C6610122FFF703BE08B540F216
:1032C00031610122FFF7EEFD012008BD40F23161BE
:1032D0000122FFF7F6BD08B540F232610122FFF787
:1032E000E1FD012008BD40F232610122FFF7E9BD96
:1032F00008B540F233610122FFF7D4FD012008BD7B
:1033000040F233610122FFF7DCBD08B5AC21012298
:10331000FFF7C8FD012008BDAC210122FFF7D1BD98
:1033200008B5AD210122FFF7BDFD012008BDAD218B
:103330000122FFF7C6BD08B5AE210122FFF7B2FD9D
:10334000012008BDAE210122FFF7BBBD08B5AF21AA
:103350000122FFF7A7FD012008BDAF210122FFF7E1
:10336000B0BD08B5B0210122FFF79CFD012008BDCA
:10337000B0210122FFF7A5BD08B5B1210122FFF759
:1033800091FD012008BDB1210122FFF79ABD08B5CA
:10339000B2210122FFF786FD012008BDB2210122E2
:1033A000FFF78FBD08B5B3210122FFF77BFD012098
:1033B00008BDB3210122FFF784BD08B5B421012265
:1033C000FFF770FD012008BDB4210122FFF779BD90
:1033D00008B5B5210122FFF765FD012008BDB52123
:1033E0000122FFF76EBD08B5B6210122FFF75AFD95
:1033F000012008BDB6210122FFF763BD08B5B72142
:103400000122FFF74FFD012008BDB7210122FFF780
:1034100058BD08B5B8210122FFF744FD012008BDC1
:10342000B8210122FFF74DBD08B5B9210122FFF7F0
:1034300039FD012008BDB9210122FFF742BD08B5C1
:10344000BA210122FFF72EFD012008BDBA21012279
:10345000FFF737BD08B5BB210122FFF723FD01208F
:1034600008BDBB210122FFF72CBD08B5BC210122FC
:10347000FFF718FD012008BDBC210122FFF721BD87
:1034800008B5BD210122FFF70DFD012008BDBD21BA
:103490000122FFF716BD08B5BE210122FFF702FD8C
:1034A000012008BDBE210122FFF70BBD08B5BF21D9
:1034B0000122FFF7F7FC012008BDBF210122FFF721
:1034C00000BD08B5C0210122FFF7ECFC012008BDBA
:1034D000C0210122FFF7F5BC08B5C1210122FFF789
:1034E000E1FC012008BDC1210122FFF7EABC08B5BB
:1034F000C2210122FFF7D6FC012008BDC221012212
:10350000FFF7DFBC08B5C3210122FFF7CBFC012088
:1035100008BDC3210122FFF7D4BC08B564210122F4
:10352000FFF7C0FC012008BD64210122FFF7C9BCE0
:1035300008B565210122FFF7B5FC012008BD652112
:103540000122FFF7BEBC08B566210122FFF7AAFCE5
:10355000012008BD66210122FFF7B3BC08B5672131
:103560000122FFF79FFC012008BD67210122FFF720
:10357000A8BC08B568210122FFF794FC012008BD12
:1035800068210122FFF79DBC08B569210122FFF7E0
:1035900089FC012008BD69210122FFF792BC08B512
:1035A0006A210122FFF77EFC012008BD6A21012269
:1035B000FFF787BC08B56B210122FFF773FC0120E0
:1035C00008BD6B210122FFF77CBC08B56C210122EC
:1035D000FFF768FC012008BD6C210122FFF771BCD8
:1035E00008B56D210122FFF75DFC012008BD6D21AA
:1035F0000122FFF766BC08B56E210122FFF752FCDD
:10360000012008BD6E210122FFF75BBC08B56F21C8
:103610000122FFF747FC012008BD6F210122FFF7BF
:1036200050BC08B570210122FFF73CFC012008BD09
:1036300070210122FFF745BC08B571210122FFF777
:1036400031FC012008BD71210122FFF73ABC08B509
:1036500072210122FFF726FC012008BD7221012200
:10366000FFF72FBC08B573210122FFF71BFC0120D7
:1036700008BD73210122FFF724BC08B57421012283
:10368000FFF710FC012008BD74210122FFF719BCCF
:1036900008B575210122FFF705FC012008BD752141
:1036A0000122FFF70EBC08B576210122FFF7FAFBD5
:1036B000012008BD76210122FFF703BC08B5772160
:1036C0000122FFF7EFFB012008BD77210122FFF760
:1036D000F8BB08B578210122FFF7E4FB012008BD03
:1036E00078210122FFF7EDBB08B579210122FFF710
:1036F000D9FB012008BD79210122FFF7E2BB08B503
:103700007A210122FFF7CEFB012008BD7A21012298
:10371000FFF7D7BB08B57B210122FFF7C3FB0120D0
:1037200008BD7B210122FFF7CCBB08B540F26461E4
:103730000122FFF7B7FB012008BD40F264610122BE
:10374000FFF7BFBB08B540F265610122FFF7AAFB96
:10375000012008BD40F265610122FFF7B2BB08B548
:1037600040F266610122FFF79DFB012008BD40F297
:1037700066610122FFF7A5BB08B540F2676101222F
:10378000FFF790FB012008BD40F267610122FFF7BF
:1037900098BB08B54FF4CD610122FFF783FB0120F0
:1037A00008BD4FF4CD610122FFF78BBB08B540F295
:1037B00069610122FFF776FB012008BD40F26961D3
:1037C0000122FFF77EBB08B540F26A610122FFF7D4
:1037D00069FB012008BD40F26A610122FFF771BB5D
:1037E00008B540F26B610122FFF75CFB012008BDC8
:1037F00040F26B610122FFF764BB08B540F26C61D7
:103800000122FFF74FFB012008BD40F26C6101224D
:10381000FFF757BB08B540F26D610122FFF742FB8D
:10382000012008BD40F26D610122FFF74ABB08B5D7
:1038300040F26E610122FFF735FB012008BD40F226
:103840006E610122FFF73DBB08B540F26F610122B6
:10385000FFF728FB012008BD40F26F610122FFF74E
:1038600030BB08B54FF4CE610122FFF71BFB0120EE
:1038700008BD4FF4CE610122FFF723BB08B540F22B
:1038800071610122FFF70EFB012008BD40F271615A
:103890000122FFF716BB08B540F272610122FFF763
:1038A00001FB012008BD40F272610122FFF709BB54
:1038B00008B540F273610122FFF7F4FA012008BD58
:1038C00040F273610122FFF7FCBA08B540F274615F
:1038D0000122FFF7E7FA012008BD40F274610122DE
:1038E000FFF7EFBA08B540F275610122FFF7DAFA87
:1038F000012008BD40F275610122FFF7E2BA08B568
:1039000040F276610122FFF7CDFA012008BD40F2B6
:1039100076610122FFF7D5BA08B540F2776101223E
:10392000FFF7C0FA012008BD40F277610122FFF7DE
:10393000C8BA08B54FF4CF610122FFF7B3FA0120EE
:1039400008BD4FF4CF610122FFF7BBBA08B540F2C2
:1039500079610122FFF7A6FA012008BD40F27961E2
:103960000122FFF7AEBA08B540F27A610122FFF7F3
:1039700099FA012008BD40F27A610122FFF7A1BA4D
:1039800008B540F27B610122FFF78CFA012008BDE7
:1039900040F27B610122FFF794BA08B5462110225C
:1039A000FFF780FA102008BD46211022FFF789BAE0
:1039B00008B562210222FFF775FA022008BD6221D4
:1039C0000222FFF77EBA08B55C210622FFF76AFAE9
:1039D000062008BD5C210622FFF773BA08B5562100
:1039E0000622FFF75FFA062008BD56210622FFF7E0
:1039F00068BA37B501390446172900F25581DFE866
:103A000011F01800240031003E004B005800650002
:103A100072007F008C009900A600B300C000CD00AA
:103A2000DA00E700F40001010E011B012801350155
:103A300042010DF10700FFF730FB9DF807502046CB
:103A4000382DA8BF3825DC2129E10DF10700FFF74B
:103A500031FB9DF807502046382DA8BF38254FF47C
:103A60008A711CE10DF10700FFF731FB9DF807504B
:103A70002046382DA8BF38254FF4A6710FE10DF16F
:103A80000700FFF731FB9DF807502046382DA8BFEF
:103A900038254FF4C27102E10DF10700FFF731FB49
:103AA0009DF807502046382DA8BF38254FF4DE7109
:103AB000F5E00DF10700FFF731FB9DF807502046B8
:103AC000382DA8BF38254FF4FA71E8E00DF1070052
:103AD000FFF731FB9DF807502046382DA8BF382549
:103AE0004FF40B71DBE00DF10700FFF731FB9DF8A0
:103AF00007502046382DA8BF38254FF41971CEE065
:103B00000DF10700FFF731FB9DF807502046382DD7
:103B1000A8BF38254FF42771C1E00DF10700FFF76A
:103B200031FB9DF807502046382DA8BF38254FF4AB
:103B30003571B4E00DF10700FFF731FB9DF8075038
:103B40002046382DA8BF38254FF44371A7E00DF16A
:103B50000700FFF731FB9DF807502046382DA8BF1E
:103B600038254FF451719AE00DF10700FFF731FB52
:103B70009DF807502046382DA8BF38254FF45F71B7
:103B80008DE00DF10700FFF731FB9DF8075020464F
:103B9000382DA8BF38254FF46D7180E00DF1070076
:103BA000FFF731FB9DF807502046382DA8BF382578
:103BB0004FF47B7173E00DF10700FFF731FB9DF8C7
:103BC00007502046382DA8BF382540F2244166E032
:103BD0000DF10700FFF731FB9DF807502046382D07
:103BE000A8BF382540F25C4159E00DF10700FFF70E
:103BF00031FB9DF807502046382DA8BF382540F2EC
:103C000094414CE00DF10700FFF731FB9DF80750A0
:103C10002046382DA8BF382540F2CC413FE00DF1B9
:103C20000700FFF731FB9DF807502046382DA8BF4D
:103C3000382540F2045132E00DF10700FFF731FB67
:103C40009DF807502046382DA8BF382540F23C513A
:103C500025E00DF10700FFF731FB9DF807502046E6
:103C6000382DA8BF382540F2745118E00DF1070037
:103C7000FFF731FB9DF807502046382DA8BF3825A7
:103C800040F2AC510BE00DF10700FFF731FB9DF85E
:103C900007502046382DA8BF382540F2E45138227D
:103CA000FFF700F9284600E0002003B030BD013ADC
:103CB00013B50C46172A00F26881DFE812F01800ED
:103CC0002500330041004F005D006B007900870044
:103CD0009500A300B100BF00CD00DB00E900F700B4
:103CE0000501130121012F013D014B015901DC2187
:103CF0003822FFF7E6F802A8382CA8BF382400F8CD
:103D0000014DFFF7D2F940E14FF48A713822FFF7F5
:103D1000D8F802A8382CA8BF382400F8014DFFF7C6
:103D2000D1F932E14FF4A6713822FFF7CAF802A8A0
:103D3000382CA8BF382400F8014DFFF7D0F924E152
:103D40004FF4C2713822FFF7BCF802A8382CA8BF84
:103D5000382400F8014DFFF7CFF916E14FF4DE717A
:103D60003822FFF7AEF802A8382CA8BF382400F894
:103D7000014DFFF7CEF908E14FF4FA713822FFF751
:103D8000A0F802A8382CA8BF382400F8014DFFF78E
:103D9000CDF9FAE04FF40B713822FFF792F802A840
:103DA000382CA8BF382400F8014DFFF7CCF9ECE01F
:103DB0004FF419713822FFF784F802A8382CA8BFF5
:103DC000382400F8014DFFF7CBF9DEE04FF42771FE
:103DD0003822FFF776F802A8382CA8BF382400F85C
:103DE000014DFFF7CAF9D0E04FF435713822FFF7E3
:103DF00068F802A8382CA8BF382400F8014DFFF756
:103E0000C9F9C2E04FF443713822FFF75AF802A80B
:103E1000382CA8BF382400F8014DFFF7C8F9B4E0EA
:103E20004FF451713822FFF74CF802A8382CA8BF84
:103E3000382400F8014DFFF7C7F9A6E04FF45F7191
:103E40003822FFF73EF802A8382CA8BF382400F823
:103E5000014DFFF7C6F998E04FF46D713822FFF776
:103E600030F802A8382CA8BF382400F8014DFFF71D
:103E7000C5F98AE04FF47B713822FFF722F802A8D7
:103E8000382CA8BF382400F8014DFFF7C4F97CE0B6
:103E900040F224413822FFF714F802A8382CA8BFBA
:103EA000382400F8014DFFF7C3F96EE040F25C41A1
:103EB0003822FFF706F802A8382CA8BF382400F8EB
:103EC000014DFFF7C2F960E040F294413822FEF75D
:103ED000F8FF02A8382CA8BF382400F8014DFFF7DE
:103EE000C1F952E040F2CC413822FEF7EAFF02A8C5
:103EF000382CA8BF382400F8014DFFF7C0F944E082
:103F000040F204513822FEF7DCFF02A8382CA8BF8B
:103F1000382400F8014DFFF7BFF936E040F23C517C
:103F20003822FEF7CEFF02A8382CA8BF382400F8AC
:103F3000014DFFF7BEF928E040F274513822FEF738
:103F4000C0FF02A8382CA8BF382400F8014DFFF7A5
:103F5000BDF91AE040F2AC513822FEF7B2FF02A8D8
:103F6000382CA8BF382400F8014DFFF7BCF90CE04D
:103F700040F2E4513822FEF7A4FF02A8382CA8BF73
:103F8000382400F8014DFFF7BBF902B010BD01392C
:103F900008B5172941D8DFE801F00C0E10121416ED
:103FA000181A1C1E20222426282A2C2E30323436A1
:103FB000383A7C212CE07D212AE07E2128E07F21F7
:103FC00026E0802124E0812122E0822120E083215B
:103FD0001EE084211CE085211AE0862118E087215B
:103FE00016E0882114E0892112E08A2110E08B215B
:103FF0000EE08C210CE08D210AE08E2108E08F215B
:1040000006E0902104E0912102E0922100E093215A
:104010000122FEF747FF012008BD002008BD01393D
:1040200017293FD8DFE801F00C0E10121416181AE9
:104030001C1E20222426282A2C2E30323436383AD0
:104040007C212CE07D212AE07E2128E07F2126E0D2
:10405000802124E0812122E0822120E083211EE0D2
:1040600084211CE085211AE0862118E0872116E0D2
:10407000882114E0892112E08A2110E08B210EE0D2
:104080008C210CE08D210AE08E2108E08F2106E0D2
:10409000902104E0912102E0922100E0932101228D
:1040A000FEF70FBF7047013908B5172941D8DFE87F
:1040B00001F00C0E10121416181A1C1E20222426B1
:1040C000282A2C2E30323436383A94212CE095218F
:1040D0002AE0962128E0972126E0982124E09921E2
:1040E00022E09A2120E09B211EE09C211CE09D21E2
:1040F0001AE09E2118E09F2116E0A02114E0A121E2
:1041000012E0A22110E0A3210EE0A4210CE0A521E1
:104110000AE0A62108E0A72106E0A82104E0A921E1
:1041200002E0AA2100E0AB210122FEF7BBFE012044
:1041300008BD002008BD013917293FD8DFE801F08C
:104140000C0E10121416181A1C1E20222426282ABF
:104150002C2E30323436383A94212CE095212AE046
:10416000962128E0972126E0982124E0992122E059
:104170009A2120E09B211EE09C211CE09D211AE059
:104180009E2118E09F2116E0A02114E0A12112E059
:10419000A22110E0A3210EE0A4210CE0A5210AE059
:1041A000A62108E0A72106E0A82104E0A92102E059
:1041B000AA2100E0AB210122FEF783BE704701393E
:1041C00008B5172941D8DFE801F00C0E10121416BB
:1041D000181A1C1E20222426282A2C2E303234366F
:1041E000383AC4212CE0C5212AE0C62128E0C721A5
:1041F00026E0C82124E0C92122E0CA2120E0CB2109
:104200001EE0CC211CE0CD211AE0CE2118E0CF2108
:1042100016E0D02114E0D12112E0D22110E0D32108
:104220000EE0D4210CE0D5210AE0D62108E0D72108
:1042300006E0D82104E0D92102E0DA2100E0DB2108
:104240000122FEF72FFE012008BD002008BD013924
:1042500017293FD8DFE801F00C0E10121416181AB7
:104260001C1E20222426282A2C2E30323436383A9E
:10427000C4212CE0C5212AE0C62128E0C72126E080
:10428000C82124E0C92122E0CA2120E0CB211EE080
:10429000CC211CE0CD211AE0CE2118E0CF2116E080
:1042A000D02114E0D12112E0D22110E0D3210EE080
:1042B000D4210CE0D5210AE0D62108E0D72106E080
:1042C000D82104E0D92102E0DA2100E0DB2101223B
:1042D000FEF7F7BD7047013908B5172959D8DFE84F
:1042E00001F00C0F1215181B1E2124272A2D303324
:1042F00036393C3F4245484B4E5140F2346143E031
:1043000040F2356140E040F236613DE040F2376115
:104310003AE04FF4C76137E040F2396134E040F2EF
:104320003A6131E040F23B612EE040F23C612BE02B
:1043300040F23D6128E040F23E6125E040F23F61FD
:1043400022E04FF4C8611FE040F241611CE040F2FE
:10435000426119E040F2436116E040F2446113E02B
:1043600040F2456110E040F246610DE040F24761E5
:104370000AE04FF4C96107E040F2496104E040F20D
:104380004A6101E040F24B610122FEF78BFD012002
:1043900008BD002008BD0139172957D8DFE801F012
:1043A0000C0F1215181B1E2124272A2D30333639E5
:1043B0003C3F4245484B4E5140F2346143E040F2AD
:1043C000356140E040F236613DE040F237613AE06D
:1043D0004FF4C76137E040F2396134E040F23A61AE
:1043E00031E040F23B612EE040F23C612BE040F2D4
:1043F0003D6128E040F23E6125E040F23F6122E06D
:104400004FF4C8611FE040F241611CE040F242619C
:1044100019E040F2436116E040F2446113E040F2DB
:10442000456110E040F246610DE040F247610AE06C
:104430004FF4C96107E040F2496104E040F24A618B
:1044400001E040F24B610122FEF73BBD70470139AC
:1044500008B5172959D8DFE801F00C0F1215181B01
:104460001E2124272A2D303336393C3F4245484B04
:104470004E5140F24C6143E040F24D6140E040F269
:104480004E613DE040F24F613AE04FF4CA6137E0DF
:1044900040F2516134E040F2526131E040F2536148
:1044A0002EE040F254612BE040F2556128E040F2EA
:1044B000566125E040F2576122E04FF4CB611FE0E6
:1044C00040F259611CE040F25A6119E040F25B6130
:1044D00016E040F25C6113E040F25D6110E040F2F2
:1044E0005E610DE040F25F610AE04FF4CC6107E0ED
:1044F00040F2616104E040F2626101E040F2636118
:104500000122FEF7CFFC012008BD002008BD0139C3
:10451000172957D8DFE801F00C0F1215181B1E21C0
:1045200024272A2D303336393C3F4245484B4E51E3
:1045300040F24C6143E040F24D6140E040F24E6198
:104540003DE040F24F613AE04FF4CA6137E040F29B
:10455000516134E040F2526131E040F253612EE0AB
:1045600040F254612BE040F2556128E040F2566180
:1045700025E040F2576122E04FF4CB611FE040F2AA
:1045800059611CE040F25A6119E040F25B6116E0AB
:1045900040F25C6113E040F25D6110E040F25E6168
:1045A0000DE040F25F610AE04FF4CC6107E040F2B9
:1045B000616104E040F2626101E040F26361012266
:1045C000FEF77FBC7047653908B51F2975D8DFE84D
:1045D00001F0101316191C1F2225282B2E313437F9
:1045E0003A3D404346494C4F5255585B5E616467C3
:1045F0006A6D40F27C615BE040F27D6158E040F220
:104600007E6155E040F27F6152E04FF4D0614FE0AF
:1046100040F281614CE040F2826149E040F2836106
:1046200046E040F2846143E040F2856140E040F2C0
:1046300086613DE040F287613AE04FF4D16137E0B6
:1046400040F2896134E040F28A6131E040F28B61EE
:104650002EE040F28C612BE040F28D6128E040F2C8
:104660008E6125E040F28F6122E04FF4D2611FE0BD
:1046700040F291611CE040F2926119E040F29361D6
:1046800016E040F2946113E040F2956110E040F2D0
:1046900096610DE040F297610AE04FF4D36107E0C4
:1046A00040F2996104E040F29A6101E040F29B61BE
:1046B0000122FEF7F7FB012008BD002008BD653987
:1046C0001F2973D8DFE801F0101316191C1F2225CB
:1046D000282B2E3134373A3D404346494C4F5255F2
:1046E000585B5E6164676A6D40F27C615BE040F23A
:1046F0007D6158E040F27E6155E040F27F6152E01A
:104700004FF4D0614FE040F281614CE040F28261B1
:1047100049E040F2836146E040F2846143E040F2C8
:10472000856140E040F286613DE040F287613AE019
:104730004FF4D16137E040F2896134E040F28A61A0
:1047400031E040F28B612EE040F28C612BE040F2D0
:104750008D6128E040F28E6125E040F28F6122E019
:104760004FF4D2611FE040F291611CE040F292618F
:1047700019E040F2936116E040F2946113E040F2D8
:10478000956110E040F296610DE040F297610AE019
:104790004FF4D36107E040F2996104E040F29A617E
:1047A00001E040F29B610122FEF78BBB70470139AB
:1047B00008B5032913D8DFE801F00205080B40F221
:1047C0009C6107E040F29D6104E040F29E6101E0DF
:1047D00040F29F610122FEF765FB012008BD002029
:1047E00008BD0139032911D8DFE801F00205080BE3
:1047F00040F29C6107E040F29D6104E040F29E615E
:1048000001E040F29F610122FEF75BBB704708B5F3
:104810000846114604F0B8FD002008BD38B50A224C
:104820000023044625F077FE0546204625F056FE77
:10483000284438BD38B50A220023044625F06BFE13
:104840000546204625F04AFE284438BD10B50446EA
:1048500016480DF061FB164825F040FE1448154936
:10486000FBF715FE6379642B1ED9A37903F00F03C0
:10487000012B04D1E11D104811F086FE0DE0022B42
:1048800002D10DF04FFB03E0032B06D10DF04EFBE0
:104890000246E11D08480DF04DFB0748002141226A
:1048A000BDE8104028F092BB10BD00BF8993000006
:1048B000D8E7FF1F20E502009098FF1F70B5084D54
:1048C000084C29782046C90102F02CF829780122E9
:1048D0002046C9011346BDE8704003F04FBD00BF3C
:1048E0001495FF1F8099FF1F38B5254B1B78032BAC
:1048F00005460C461CD006D8012B10D0022B39D10E
:104900000DF010FB16E0662B1FD0672B28D0042B70
:1049100030D108462A461B4909F0D0FD1EE0084662
:10492000184A294611F03EFE003018BF012038BD5C
:104930000DF0FCFA03461349284622460DF036FBDB
:10494000D0F1010038BF002038BD0DF0EBFA0D4961
:104950000346224628460DF0B1FB08B1002038BDC1
:104960000DF0E4FA07490346224628460DF0A6FB5F
:104970000028F3D1044803F00DFF012038BD00BF2B
:104980001495FF1FC495FF1F3EE502002DE9F04F6F
:1049900091B0DFF85082874D98F8003093466A4610
:1049A000A2EBC3128A46002104AF0646954628466C
:1049B0000A4610F068FD07F10C000FF022F907F12C
:1049C00018000FF01EF907F124000FF01AF998F8FB
:1049D000003005F11400DB014FF001116B600FF0A6
:1049E00083F90DF110090446002875D1724B98F82F
:1049F00000207B60194605F12C0092010FF0CFF9E1
:104A00007B680446002867D198F80020920105F1E0
:104A1000380099180FF0C3F9044600285CD105F15D
:104A2000080005F12C0105F138020FF090FC044656
:104A3000002851D107F10C0005F12C0101220FF0E3
:104A400070FC0446002847D107F1180005F1380131
:104A500001220FF066FC044600283DD107F1240036
:104A600007F10C0107F118020FF071FC044698BB26
:104A700005F1200005F1140107F1240210F09CF962
:104A8000044648BB05F1440005F1200107F10C0282
:104A90000FF09AFE0446F8B905F1500005F1200127
:104AA00007F118020FF090FE0446A8B905F15C006A
:104AB00005F1380105F12C0210F07EF9044658B9D1
:104AC0003E493F4825F01AFD69683D48FFF7A6FEBC
:104AD000284610F011FD044607F10C000FF098F87D
:104AE00007F118000FF094F807F124000FF090F888
:104AF00033482CB13349224625F000FD324851E0BD
:104B00003249FBF7BCFC31462D48FBF7D4FC98F842
:104B1000003080226FF0090112FB0311B142DCBFAB
:104B20006FF00A0612FB0366202E0CD003DC1C2E4D
:104B30000BD105230AE0302E03D0402E05D10823E7
:104B400004E0072302E0062300E0002300228DE8B2
:104B500048041F49CDF80C900123164811F04CF879
:104B60001C4904461648FBF78AFC5046314601F0C2
:104B7000D9FE98F800204946D20158461AF0D0FBD9
:104B80000C4811F007F90E4824B91349FBF77FFCD4
:104B900020460BE01149FBF772FC09482146FBF760
:104BA0008AFC0F4803F0F6FD4FF0FF303437BD4666
:104BB000BDE8F08FE497FF1FE495FF1F57E5020063
:104BC000D8E7FF1F63E502007CE50200A0E50200D4
:104BD0000F480000BBE50200C9E50200E0E5020065
:104BE000B3E602001495FF1F2DE9F04F95B0574B27
:104BF00019784FF0FF3202EBC11202F1010A0832BC
:104C000022F0070202AFE946ADEB020D504A1178DF
:104C100002AC9B4621B90A4605F0BCFEF8228EE0A4
:104C2000042940F08780DFF858814A4ED8F80030D8
:104C30001C2B454619D023F01002202A15D0402BFA
:104C400013D0454803F0A6FD43494448FBF71FFC39
:104C5000D8F800104148FBF72EFC012003F0C2FFFA
:104C60000021C8F8001030685FE0DFF8188198F87C
:104C7000001098F8012000933068394B05F0F0FEE1
:104C8000364825F02BFC2A683649344825F036FC96
:104C9000324825F023FC3068296801F043FE324B8E
:104CA000366824221A7031462A687B6007F10800B2
:104CB0001AF036FB304600214FF4806228F086F966
:104CC00028682A4D07F108012246FFF75FFE7B683E
:104CD0000646B8B9F622264920481A70FBF7CFFBE2
:104CE0002046514601F01EFE98F802209BF8001065
:104CF0002A70012A18BF32462046C901134603F024
:104D00003DFB04E000221B481A7003F043FD5520D0
:104D100003F068FF20460021524628F057F92B780F
:104D2000012B0ED0144B186800214FF4806228F03C
:104D30004DF906E009481149FBF7A9FB23220A4B6C
:104D40001A704C37CD46BD46BDE8F08F1495FF1F55
:104D500020BDFF1FC48CFF1F00E60200D8E7FF1F25
:104D60001C94FF1F29E60200F5BCFF1FF8BCFF1FC3
:104D700042E602004FE60200A48CFF1F66E6020036
:104D800064BDFF1FB19EFF1F2DE9F0438FB00EAC35
:104D9000002544F8285D064688466E486E49174649
:104DA00025F0ACFB21466D4C6A48FFF743FD2946D0
:104DB0002A46204610F067FB05A80EF022FF684D3A
:104DC00008A80EF01EFF0BA80EF01BFF2B7804F1B5
:104DD0001400DB014FF0011163600EF085FF0490B9
:104DE000002862D12A78DFF8949104F12C0049461A
:104DF00092010EF0D4FF0490002856D12A78920137
:104E000004F1380009EB02010EF0C9FF04900028FC
:104E10004BD104F1080004F12C0104F138020FF029
:104E200096FA0490002840D105A804F12C01012233
:104E30000FF077FA0490002837D108A804F1380160
:104E400001220FF06EFA049078BB0BA805A908AAFE
:104E50000FF07DFA049040BB04F1200004F114012E
:104E60000BAA0FF0A9FF0490F8B904F1440004F173
:104E7000200105AA0FF0A8FC0490B0B904F150007D
:104E800004F1200108AA0FF09FFC049068B904F116
:104E90005C0004F1380104F12C020FF08DFF049046
:104EA00018B92C486168FFF7B9FC05A80EF0B0FEF0
:104EB00008A80EF0ADFE0BA80EF0AAFE2949254861
:104EC00025F01CFB61682348FFF7A8FC234810F07D
:104ED00013FB049050B124491E48FBF7D0FA1D483B
:104EE0000499FBF7E8FA214803F054FC049C84B9C8
:104EF0001F491848FBF7C3FA4FF4007303938DE87A
:104F000040010297154821462246012310F0F8FD82
:104F10000490124810F03EFF049C0E4854B9154905
:104F2000FBF7B5FA0B4831680A22234625F0F3FA5D
:104F300020460BE00C49FBF7A2FA04990548FBF761
:104F4000BAFA0D4803F026FC4FF0FF300FB0BDE871
:104F5000F08300BFD8E7FF1F92E602001895FF1FFD
:104F60001495FF1F57E50200E0E502007CE5020012
:104F7000A0E60200C9E50200ADE60200E495FF1FCD
:104F80002DE9F04F85B0544B02AF197800257D60B4
:104F900021B90A4605F0FEFCF92297E0042940F009
:104FA00090804E4CDFF868B123689BF800204C4E8F
:104FB000B3EBC21FEA4611D04A4803F0EBFB494964
:104FC0004948FBF764FA21684748FBF774FA012067
:104FD00003F008FE2560306829466CE0DFF8348174
:104FE000DFF8289198F8001098F8012000933068B5
:104FF0003E4B05F035FD3C4825F070FA22683C49EF
:10500000394825F07BFA384825F068FA306821687D
:1050100001F088FC242389F800309BF800303668C2
:10502000AAEBC31295460DF1080B31462268314CAC
:1050300058461AF075F9304629464FF4806227F039
:10504000C5FF5946381D22682B4EFFF79DFE83464B
:1050500020BBF623244889F8003025F03FFA274981
:105060002148FBF70CFA79681F48FFF7D7FB244962
:105070001D48FBF704FA7968206801F053FC1A48D0
:1050800025F02CFA98F802203270012A18BF5A46EF
:1050900020687968134603F071F904E0194889F82B
:1050A000005003F077FB552003F09CFD3378012B73
:1050B00005D0206800214FF4806227F087FFD54695
:1050C00006E009481049FBF7E2F923220F4B1A705A
:1050D0000C37BD46BDE8F08F20BDFF1F64BDFF1F2C
:1050E000C48CFF1FDCE60200D8E7FF1F1C94FF1FE3
:1050F00008E70200A48CFF1FF8BCFF1F24E7020092
:1051000035E7020042E7020066E60200F5BCFF1F39
:105110001495FF1FB19EFF1FF0B52349234F8BB09D
:1051200005462348FBF7ABF901A80EF06AFD2DB246
:1051300004A80EF066FDAE0107A80EF062FD01A8FE
:10514000394632460EF02BFE044698B904A8B91928
:1051500032460EF024FE044660B907A801A904AA4D
:105160000FF0F5F8044628B907A81249EA010EF035
:1051700050FE044601A80EF04BFD04A80EF048FDB9
:1051800007A80EF045FD14B909480B4904E00B4887
:1051900003F000FB06480A49FBF771F90548E901ED
:1051A00001F0C0FB0BB0F0BD5CE70200E495FF1F0F
:1051B000D8E7FF1F8099FF1F73E7020087E702000F
:1051C000A5E702002DE9F0438FB00EAC002544F8AE
:1051D000285D80460F4660486049164625F08EF9E6
:1051E00021465F4C5C48FFF725FB29462A462046AE
:1051F00010F049F905A80EF004FD5A4D08A80EF06C
:1052000000FD0BA80EF0FDFC2B7804F11400DB016F
:105210004FF0011163600EF067FD0490002862D129
:105220002A78DFF8549104F12C00494692010EF0DF
:10523000B6FD0490002856D12A78920104F1380076
:1052400009EB02010EF0ABFD049000284BD104F1F4
:10525000080004F12C0104F138020FF078F80490F2
:10526000002840D105A804F12C0101220FF059F8C3
:105270000490002837D108A804F1380101220FF06A
:1052800050F8049078BB0BA805A908AA0FF05FF8A6
:10529000049040BB04F1200004F114010BAA0FF0AC
:1052A0008BFD0490F8B904F1440004F1200105AA33
:1052B0000FF08AFA0490B0B904F1500004F1200113
:1052C00008AA0FF081FA049068B904F15C0004F1B7
:1052D000380104F12C020FF06FFD049018B91E483C
:1052E0006168FFF79BFA05A80EF092FC08A80EF083
:1052F0008FFC0BA80EF08CFC1B49174825F0FEF81C
:1053000061681548FFF78AFA154810F0C9F8024697
:10531000049008B1104814E01449CDF800801346F9
:10532000019702960E4810F075FB04900C4810F09F
:1053300031FD049C084824B90D49FBF7A0F820462C
:1053400007E00C49FBF79BF803480499FBF7B3F817
:1053500004980FB0BDE8F083D8E7FF1FC1E7020053
:10536000D498FF1F1495FF1F57E502000F48000057
:10537000C9E50200E0E50200E495FF1FF0B5002555
:10538000ECB20B1B0444DBB2E4B29C4205F1010514
:1053900004D2165DD75C1755D654F1E7F0BDFFFF78
:1053A00008B5174B1B78012B04D1164816490AF093
:1053B0009DFF1AE0022B02D10CF0B4FD03E0032B99
:1053C00007D10CF0B3FD02460E490F480CF0B5FEB4
:1053D0000BE0042B09D100201F210B4AFFF7CEFF61
:1053E00008480949002209F069F808490848FBF70C
:1053F0004EF804484121BDE8084001F093BA00BFCF
:105400001495FF1F9098FF1FC495FF1FCFE7020060
:10541000D8E7FF1F38B5184C0546407905F02CFB3E
:105420002378012B05D1AB79042B02D12370FFF730
:10543000B7FF12491248FBF72AF81248412101F040
:1054400071FA2378042B04D0012B14BF40212021B2
:1054500000E02021012213460A4802F08FFF0021BC
:105460004022084827F0B2FD074800212022BDE86D
:10547000384027F0ABBD00BF1495FF1FDFE70200E7
:10548000D8E7FF1F9098FF1FC495FF1F38B505464A
:105490002C4609F01BFB044B44F8783B20460AF0ED
:1054A00099FC6C60284638BDB8E402002DE9F04F45
:1054B000ADF5097D02AF044607F1A0009A46F960F8
:1054C00090460AF027FA07F1A0000AF0CDF907305C
:1054D00020F00700ADEB000D07F1A0000AF0C4F9C1
:1054E00007F58C76BAFBF0FB00213046FF2227F04F
:1054F0006DFD02AD4FF000099F4B4B441B79022B11
:1055000028D19E499E48FAF7BAFF4946304601F035
:1055100009FA07F13000FCF7ADFC4A4607F130000C
:105520003146FCF7D1FC07F130003146FCF7EDFCC9
:1055300094499348FAF7A3FF3046202101F0F2F98D
:1055400084B9214607F11000212227F03FFD07F121
:10555000100407E0B9F1FF0FD3D006F8093009F1C4
:105560000109C9E788498648FAF789FF20462121C1
:1055700001F0D8F9214607F1A00021220AF049FBE9
:10558000F968202207F1A0000AF0B2FA07F1A000A2
:105590000AF06AF92146212200902B4607F1A0006B
:1055A0000AF050FB07F1A0000AF05EF900F12103B8
:1055B00000F12009283020F00700ADEB000D02AC0F
:1055C000FB60012304F8093007F1A0000AF04CF950
:1055D00007F59C7E2218334603CB7345106051605B
:1055E0001E4602F10802F6D107F1A0000AF03CF9CC
:1055F0002946024607F1A0000AF00BFB07F1A000C4
:105600000AF032F92122211807F1A0000AF070FAFD
:1056100007F1A0000AF028F9064607F1A0000AF0F9
:1056200023F9324629460090434607F1A0000AF0CC
:1056300009FB14F80930013304F8093007F1A00020
:105640000AF012F941460246204619F069FE012689
:105650005E4507F1A0003DDA0AF006F92946024648
:1056600007F1A0000AF0D5FA2146FA6807F1A00078
:105670000AF03EFA07F1A0000AF0F6F8024607F138
:10568000A0007A600AF0F0F806FB008307F1A000A2
:10569000BB600AF0E9F800907A68BB68294607F118
:1056A000A0000AF0CFFA14F80930013304F80930E9
:1056B00007F1A0000AF0D8F806FB008107F1A0006E
:1056C000B9600AF0D1F8B9680246204619F028FE00
:1056D0000136BDE70AF0C8F8BAFBF0F303FB10A0EF
:1056E00000283CD007F1A0000AF0BEF8073020F0F7
:1056F0000700E946ADEB000D07F1A0000AF0B4F891
:105700000BFB10AA07F1A0000AF0AEF829460246EA
:1057100007F1A0000AF07DFA2146FA6807F1A0001F
:105720000AF0E6F907F1A0000AF09EF8044607F136
:10573000A0000AF099F802AE0090294622463346AE
:1057400007F1A0000AF07EFA07F1A0000AF08CF839
:1057500031460BFB0080524619F0E2FDCD4607F1C1
:10576000A0000AF0B1F807F1A0000AF0B9F807F5B7
:105770000777BD46BDE8F08F3C9FFF1F06E802009B
:10578000D8E7FF1F0BE8020015E8020070B50646D7
:105790009CB00D461446F2B9842005F06DF92146FF
:1057A0004122244827F012FC6846FCF763FB684658
:1057B00021492022FCF788FB202268462946FCF775
:1057C00083FB1D496846FCF7A0FB1C4824F086FEBD
:1057D0001A481B4922E0802A26D1104605F04CF9D0
:1057E000164824F07BFE17491448FAF750FE124879
:1057F000202101F097F814491048FAF748FE28468E
:10580000212101F08FF80C4928460A462023FFF792
:105810004DFE0A4824F062FE08480C49FAF737FEAC
:105820000548202101F07EF8094B1E70FFF7B8FDF6
:105830001CB070BD9098FF1FC495FF1FD8E7FF1FD5
:105840001AE8020037E802004AE8020055E80200C0
:105850001495FF1F10B50446174824F03FFE164864
:105860001649FAF714FE6079042809D8A3794BB9D0
:1058700005F084F9F8B12046BDE81040FFF71EB8E6
:10588000742807D805F0F8F8A8B12046BDE8104004
:10589000FFF7C0BD84280ED1A07904280BD8E11DE4
:1058A0000022FFF773FF0022054840211346BDE8A0
:1058B000104002F063BD10BDD8E7FF1F5EE8020094
:1058C0009098FF1F2DE9F0437C4D7D4E7D4C2B6859
:1058D00072783178F1B00746009320687A4B05F072
:1058E000BFF87A4824F0FAFD79497848FAF7C7FDFD
:1058F00029687648FAF7DFFD2068296801F012F878
:105900004EA80021882227F061FB724B4E93724B08
:105910004F93724B509378794023519320235293A5
:10592000C8282EAB5393B14632D9C92804D129686F
:1059300023682039012005E0CA2806D12968236898
:1059400020390220194400221CE0CB2804D1296808
:10595000236820390320F5E7D32804D12968236878
:10596000203901200CE0D42804D12968236820398B
:10597000022005E0D52807D12968236820390320B3
:1059800019448022FFF702FF2B68203B2B6006E0C2
:10599000A0F165030F2B00F28E8005F06DF82A68E8
:1059A000464FDFF86081202A12AE01D0402A04D190
:1059B00002A8216819F0B4FC11E03046FCF75AFA4D
:1059C000304621683A68FCF77FFA304602A9FCF7B6
:1059D0009CFA98F80030012B1CBF20233B60404903
:1059E0003A48364FFAF753FD296802A800F09AFFAB
:1059F0003C493648FAF743FD98F800103348FAF767
:105A000050FD39493148FAF742FD3848202100F06D
:105A100089FF374A2423137098F80030012B15466C
:105A200008D13B68009330463049324A23680AF077
:105A3000D9FB16E0022B0FD10CF074FA01900096FE
:105A40002A483A6802A94EAB0CF0B7FB48B92A497C
:105A50001E48FAF71CFD04E0032B02D10CF066FA95
:105A6000ECE726491948FAF70AFD3046402100F0D4
:105A700059FFF6232B70224B99F802201A7001224D
:105A800013463046402102F079FC552003F0AAF875
:105A9000206800214FF4806227F098FA002141220B
:105AA000144827F093FA11480021202271B0BDE874
:105AB000F04327F08BBA71B0BDE8F08364BDFF1FDF
:105AC000B19EFF1FC48CFF1F1C94FF1FD8E7FF1F50
:105AD0007BE80200758F01007B8F0100818F010040
