:1000000000800020BD010000D14902009D4902008E
:100010009D4902009D4902009D4902009D49020040
:100020009D4902009D4902009D490200D1490200FC
:10003000D14902009D490200D14902008D490200C8
:10004000D1490200D1490200D1490200D149020040
:10005000D1490200D1490200D1490200D149020030
:10006000D1490200D1490200D1490200D149020020
:10007000D1490200D1490200D1490200D149020010
:10008000D1490200D1490200D1490200D149020000
:10009000D1490200D1490200D1490200D1490200F0
:1000A000D1490200D1490200D1490200D1490200E0
:1000B000D1490200D1490200D1490200D1490200D0
:1000C000D1490200D1490200D1490200D1490200C0
:1000D000D1490200D1490200D1490200D1490200B0
:1000E000D1490200D1490200D1490200D1490200A0
:1000F000D1490200716A0200D1490200E5640200A0
:10010000D1490200A15F0200D1490200D149020099
:10011000D1490200D1490200D1490200D14902006F
:10012000D1490200D1490200D1490200D14902005F
:10013000D1490200D1490200D1490200D14902004F
:10014000D1490200D1490200D1490200D14902003F
:10015000D1490200D1490200D1490200D14902002F
:10016000D1490200B5AD0100D1490200D1490200D8
:10017000D1490200D1490200D1490200D14902000F
:10018000D1490200D1490200D1490200D1490200FF
:10019000D1490200D1490200D1490200D1490200EF
:1001A000D1490200D1490200D1490200D1490200DF
:1001B000D1490200D1490200D1490200564B4CF20C
:1001C000205210B51A804DF628121A8000BF00BFC9
:1001D00024F002FC514B4FF010621A60504A9A60B2
:1001E000504ADA60A3F53043203B1A6812F480725B
:1001F00004D14D490A604FF4A8521A604B4B1A784B
:10020000110703D51A7842F008021A70484B2A22C7
:100210001A700023474A48499818884204D247492F
:10022000595899500433F5E7454A464B9A424FF0E6
:10023000000302D242F8043BF7E74349434A5958C6
:1002400099500433B3F5DE7FF7D1414B802103F899
:10025000011B40498B42F9D13F4B1A603F4B0A22A8
:100260001A70A3F5805324225A70A0221A709A792A
:100270009207FCD59A79D406FCD4394B9A7902F0CE
:100280000C02082AF9D105221A7143225A719A796F
:100290009006FCD5324B9A795106FBD5314A4FF086
:1002A000817111600521516020221A702C4B9B79BD
:1002B00003F00C030C2BF9D12B4B2C4A1A602C4B5E
:1002C0002C4A1A6000225A60072243F8042C2A4A5A
:1002D000C3F80C2D62B61BF061FB134B1B68DA07E9
:1002E00005D526481BF0E6F9254B264A1A60264B11
:1002F0001B785B0609D5224C224A2368934204D11D
:100300001E481BF0D7F90023236027F0A5FA24F03C
:1003100069FB25F01BFCFEE70E2005403080044001
:10032000823F04000100002B14D0034002D007409C
:1003300000E00740708CFF1FEC8EFF1F04B9020025
:10034000F08EFF1FCCE6FF1F000000000082FF1FA1
:1003500000E400E05FE400E008ED00E0005006404B
:10036000004006404480044004800440C010050062
:1003700014E000E03F19010000002020AFBFA96A8F
:100380001CE00340A5C3945A00F00740FFFFFFFFA5
:10039000FFFFFFFFFFFFFFFFFFFFFFFFFFFFFFFF6D
:1003A000FFFFFFFFFFFFFFFFFFFFFFFFFFFFFFFF5D
:1003B000FFFFFFFFFFFFFFFFFFFFFFFFFFFFFFFF4D
:1003C000FFFFFFFFFFFFFFFFFFFFFFFFFFFFFFFF3D
:1003D000FFFFFFFFFFFFFFFFFFFFFFFFFFFFFFFF2D
:1003E000FFFFFFFFFFFFFFFFFFFFFFFFFFFFFFFF1D
:1003F000FFFFFFFFFFFFFFFFFFFFFFFFFFFFFFFF0D
:10040000FFFFFFFFFFFFFFFFFFFFFFFFFEFFFFFFFD
:1004100010B5054C237833B9044B13B10448AFF33E
:1004200000800123237010BDF08EFF1F000000002C
:1004300004B9020008B5064B1BB106480649AFF3E4
:1004400000800648036813B1054B03B1984708BD07
:100450000000000004B90200F48EFF1FEC8EFF1FA5
:100460000000000008B5C8201BF082FA074A0023EC
:10047000137053709370D37013715371044A1370D7
:10048000044A1370BDE8084024F0ACBCBCE4FF1F74
:10049000C2E4FF1FC3E4FF1FF8B51A4B1A481B4EF6
:1004A0001B4F00251D701B4B01241C7001F02AFC02
:1004B000194B1A481C602022294627F02DFA0823E0
:1004C000337024F08FFC0F233B7024F08BFCFFF77C
:1004D000C9FF347024F086FC0923337024F082FCB9
:1004E00014233B7024F07EFC4FF4FA701BF040FAAA
:1004F0000B4B1D7024F076FCFFF7B4FF094B0A4A42
:100500001A60F8BD99BAFF1FF8BAFF1FC2E4FF1FB7
:10051000BCE4FF1F808CFF1F848CFF1F1091FF1F06
:10052000C3E4FF1F0CED00E00400FA052DE9F04FD5
:100530008E4C9FB0002305460DF10F00237002F092
:1005400055F98B4B1B7823B99DF80F3003F00F033F
:1005500005E0012B08D19DF80F301B090C339D429B
:1005600002D1FFF799FFB9E10DF10E00294603F022
:100570000FF99DF80E90C9F3C0038DF80E307D4B36
:100580001F78002F40F0AA817B4E394640220EA8EA
:1005900027F0C2F93946FB22304627F0BDF90EA8F4
:1005A000294605F0C3FAB0F1000826DD734BCDF8FB
:1005B00000800EA8E9B20F2209F06CFA9DF83830DD
:1005C000082B0CD108F1FF380DF1390031464246B5
:1005D00023780BF07FFB012784F800800DE0424672
:1005E00023780EA831460BF075FB5FFA88F30222E0
:1005F00008F10108F25484F80080002140220EA87E
:1006000027F08AF90EA8294603F04EF99DF83830F4
:10061000C9F3800A5BB1AFB91E2B00F2598198462D
:10062000237808F10A02F2540133237051E1BAF140
:10063000000F0AD05FB9B84623780122F254134460
:10064000237005E04FF0000802E0D04600E0984635
:100650000EA8294605F0B4FDB0F1000A11DDCDF871
:1006600000A00EA8E9B20222444B09F013FA524648
:10067000237841490EA80BF02DFB23789A4484F887
:1006800000A009F0030A0EA80021402227F044F937
:10069000BAF1000F0BD057B9BAF1010F02D0BAF17D
:1006A000020F04D1237806F803A001332370002140
:1006B00040220EA827F030F90EA8294603F080F951
:1006C0009DF838B00BF1FF331D2B07D837B92378CD
:1006D0000BF10A02F2540133237001E04FF0000BDA
:1006E0000EA8294602F086FDB0F1000A11DDCDF812
:1006F00000A00EA8E9B20522204B09F0CBF9524622
:1007000023781D490EA80BF0E5FA23789A4484F863
:1007100000A0C9F3011A0EA80021402227F0FCF81E
:10072000BAF1000F0BD057B9BAF1010F02D0BAF1EC
:10073000020F04D1237806F803A0013323700021AF
:1007400040220EA827F0E8F80EA8294603F0C4F9C5
:100750009DF838A00AF1FF331D2B11D887B92378F3
:100760000AF10A02F254013323700BE0348FFF1FA9
:100770002CBBFF1F55BAFF1F508FFF1F1091FF1F8B
:100780004FF0000A0EA80021402227F0C5F89DF87E
:100790000E302BB127B923780122F2541344237071
:1007A0000EA8294603F054FA9DF83830002B7AD071
:1007B000672B46D129460EA806F05CF8494F0090F9
:1007C0000646E9B20EA80922474B09F063F92378DF
:1007D00032460EA839460BF07DFA32460EA904A81F
:1007E00001F084FE01F0EAFE404400EB0B015144AD
:1007F00004A801F07FFE064601F01CFF237858B9DB
:100800004E22FA541F4453224F237B70FA70542314
:100810004522BB703A710BE03278FA541F4472786B
:100820007A70B378BB70F378FB7033793B7173796E
:100830007B7123780EA8063300214022237027F015
:100840006BF89DF83830274E792B0BD1274B1B784E
:10085000022B07D020780021304409F02FFE2378A6
:100860002C3323709DF83830322B01D0592B0DD109
:100870001E4B1B78022B09D02078E9B2304409F0D6
:100880001DFE2378203303EB400020709DF83830A4
:10089000752B08D1154B1B78022B04D02378092225
:1008A000F254013323705FEAD9130E4B04D022783F
:1008B000012199540A44227019F0400F04D0227883
:1008C000022199540132227022780021995405E0C6
:1008D000B846BAF1000F7FF4AFAEB9E61FB0BDE87D
:1008E000F08F00BF508FFF1F1091FF1F2CBBFF1F09
:1008F000044B1A78044B18680AB1243800E03038E9
:10090000FFF714BE2CBBFF1FE09BFF1F054B1A789F
:10091000054B18680AB1243800E030380630FFF77C
:1009200005BE00BF2CBBFF1FE09BFF1FF0B5ADF560
:10093000844D9BB0054646F26004684621464FF45C
:10094000804204F0CBFF46F260039C4204D128466B
:1009500069464FF4804210E02B460DF5804605F1C4
:10096000400718685968324603C20833BB4216462E
:10097000F7D12846694644F24002002314F04CFAAD
:10098000044B04F580449C42D7D10DF5844D1BB037
:10099000F0BD00BF60A0030010B5464B1B680446C5
:1009A0001878A0F13103082B06D84FF47A73303849
:1009B00058431AF0DDFF42E074285CD072285ED004
:1009C0003D4B1B78002B3AD01CB124F0A1FA002437
:1009D00035E0702832D0682855D0752855D06F285A
:1009E00055D0652855D0642855D0622855D04C285C
:1009F00055D0522855D0552855D0442855D0452893
:100A000055D0632804D12D4B1A7842F0010213E02F
:100A1000732804D1294B1A7842F002020CE06128B5
:100A200004D1264B1A7842F0040205E0672806D16B
:100A3000224B1A7842F008021A7000E04624204B3C
:100A40001A780AB91C7012E05A780AB95C700EE084
:100A50009A780AB99C700AE0DA780AB9DC7006E084
:100A60001A790AB91C7102E05A7902B95C71BDE8C1
:100A7000104024F0B7B9002CA7D12B24DFE7002CBD
:100A8000A3D12824DBE74A24D9E74B24D7E74E2417
:100A9000D5E74D24D3E74C24D1E72A24CFE75024CF
:100AA000CDE74F24CBE75224C9E75124C7E72924D7
:100AB000C5E700BF4C90FF1F1CBBFF1FC2E4FF1F18
:100AC000BCE4FF1FF8B5534B1A78534B1878534CBE
:100AD0004AB1AA2807D121680B7823B1092B02D08B
:100AE00001312160F3E74E4B21681E780B784B4FA4
:100AF00016FB06F6032596FBF5F5ED007600002BB8
:100B00007DD0012B04D1002A73D14FF22B0066E077
:100B1000022B04D1002A6CD14FF228005FE0092B90
:100B200015D1404B1B78022B73D03F4C012323601F
:100B30003E4B1E681D4606F57A662268002A5CD088
:100B40002B68B34259D200200AF0CEFBF5E7A3F19F
:100B50000A005FFA80FCBCF1150F0AD8002A58D1B0
:100B60004FF47A7358431AF003FF3B6801333B603C
:100B7000F8BD202B31D148785C282ED10131396065
:100B800092B1F8BD5C2B14D1244B01321A600020C5
:100B9000FFF702FF28461AF0EBFE23685A1C22607A
:100BA0005A78202A07D04AB122681378002BE9D15D
:100BB00012E00120ECE7194A0233136024F0F4F943
:100BC00028461AF0D5FE24F0EFF9FFF74BFC30462B
:100BD000BDE8F8401AF0CCBEF8BD52B9184624F072
:100BE00097F928461AF0C4FE24F0DEF930461AF0D0
:100BF000BFFE236801332360F8BD002323600C4847
:100C00000C4900F0A3FF0A480B49BDE8F84000F08A
:100C1000CEBFF8BD55BAFF1FD6B9FF1F4C90FF1FBE
:100C2000A48CFF1F2CBBFF1F7CBCFF1FC4E2FF1F57
:100C30008490FF1F388FFF1F0C8FFF1F08B50548DA
:100C400006F088FB044B012205201A7006F090FC88
:100C5000F5E700BF50840200D6B9FF1F2DE9F74F1A
:100C6000A84F3B7804465BB9A74B1B78092B05D1ED
:100C7000142803DDA54B1A6803321A602D2000E00A
:100C8000002006F02BFCA24B1A68022A994601DDCF
:100C9000FFF7D4FF9F4E3368013333609E4B1A78C1
:100CA00092B3684601F0BCFD9DF80030BBB101A8CD
:100CB00001F0A9FD9DF80430132B0AD900239748B1
:100CC000FF221A540133202BF9D108F00FF800202D
:100CD00003E001338DF8043001A801F09CFD904B36
:100CE0001A6801321A609DF8003032680133DBB2B5
:100CF00001320A2B8DF80030326055D8684601F079
:100D000097FD854A00231370DFF814827F4DD8F8D1
:100D10000030297883480133C8F8003000F0E5FF3F
:100D2000336801333360804B1B684FF0030BB3FB18
:100D3000FBF202EB4202981A03EA0B0318441AF082
:100D400017FE3A78C246002A5CD1764800F0F4FFDC
:100D5000002857D1734801F007F9002852D126E046
:100D6000472C00F3BB81A4F14802352A40F2D4811C
:100D7000654A1278092A40F0CC81B4F5877F80F269
:100D8000CB81592CDFF8808140F3D9812A68322A3F
:100D900040F0D881654A1278002A00F0D38198F893
:100DA0000020092A40F0CE8106F0F0FACDE25D483D
:100DB00001F0EAF90028F7D1D8F800305C4C013393
:100DC000C8F800302368092B02DC01332360BCE241
:100DD000514B01251D70D9F800302B44C9F8003063
:100DE000544B58461D7006F0C3FB684601F018FDD1
:100DF0004C4800F087FFD9F800302560022B40F303
:100E0000A48245E7DAF8002097F800800132CAF89A
:100E10000020B8F1000F3FD1404601F009FD4148E4
:100E200000F070FF414BC9F800801A781D4622B9C6
:100E300041480AF0C3F906F08DFA3E4C3F4940485C
:100E400000F084FE207806F087F8552006F038FC84
:100E50003C4B1B78022B264606D015F028F90020C3
:100E600001F0D9FC0AF040FF374B384A196811608D
:100E70002A78012038701C4612B1307006F06CF8E8
:100E80002568C8352368AB4203D200200AF02CFA4B
:100E9000F8E719F04DFE58E22D4A1078A0B9542C0D
:100EA00012DD2A68312A09D1264A1278022A0BD08B
:100EB000154B1B78092B18D1062017E0322A4BD18D
:100EC000204A1278022A14D1224A1268002A4ED0EF
:100ED000092A52DD0A2A5ED106F09AFA2B68312BD4
:100EE0000DD1094B1B78092B09D0012007F0F2FF27
:100EF0002BE2054B1B78092B01D10520F6E70220D8
:100F0000F4E700BF99BAFF1FB78CFF1FE09BFF1FDC
:100F10004C8FFF1F8890FF1F808CFF1FB090FF1F1A
:100F20008C90FF1FF8BAFF1FF4BAFF1F24BBFF1FEE
:100F3000848CFF1FD6B9FF1FB0840200208FFF1FD3
:100F40008490FF1F2CBBFF1FC4E2FF1F48BBFF1F85
:100F50005CBAFF1F74BAFF1F332AB5D19C4A1278BE
:100F6000022AB1D09B4A1278092ABFD1ACE79A4A2B
:100F70001268002A00F0E9810DE0984B1B78002BE5
:100F800000F0E381964C2D230120237006F0F0FA47
:100F900001232370D9E1934A9348002111709349AA
:100FA0000B6803608A48007802288B46914600F05F
:100FB0007D818F480178012980460AD18D4A92F8B7
:100FC00000C02A68624519D18B4A1278B2B1022357
:100FD0000BE002290BD1894A92F800C02A686245C9
:100FE0000CD1854A12784AB103230370ADE103297D
:100FF00004D1834A10782A68824207D0814A127845
:10100000012A03D0804A1278012A05D17A4A12783F
:1010100012B17E4A12787AB903297C4A05D1107838
:10102000F52802D17448007830B91278F62A3DD1FB
:10103000714A1278002A39D00423724A88F80030A5
:1010400000231370714C704A13702378ED2B06D176
:101050006F4803716378437103F060FF1FE0F02B6A
:1010600006D16B4803716378437104F06BF816E0A6
:10107000F52B02D104F0A6F811E0F62B0FD1654D47
:10108000DBF8006001232B6006F57A662B6823B13C
:10109000DBF80030B342C0F04B8100232B6000200E
:1010A00088F80000207006F00BFB4EE100293FF4A9
:1010B00057AE504A00231370504A88F8003013701E
:1010C0004F4A0120137006F0FBFA534806F042F92C
:1010D000524BFF2118781AF047FB36E17D2C04DDD6
:1010E0003C4A1278092A3FF43EAE2A68312A7FF43E
:1010F0003AAE414A1278002A7FF435AE4848494951
:1011000000F024FD09F002FA4548464900F04FFD81
:101110001BE18B2C7FF735AE2A68322A7FF431AE83
:10112000354A1278002A7FF42CAE012006F0BAF876
:101130008B2C40F30A81012006F00AF805E1472CC8
:101140003BDD05E07D2C03DD98F80020092A34D032
:101150002A68332A31D1284A92F800B0BBF1000F37
:101160002BD1314B314887F800B001241C7000F0BE
:10117000C9FD2F4B2F481C605946202226F0CCFB7E
:1011800027482D4900F013FD2C4BC3F800B098F808
:101190000030092B0DD12A4D2B782E46002B40F024
:1011A000CB80224800F0E0FE002800F0C5802C70C3
:1011B000C8E0244B244A1A60C7E098F80020092AA6
:1011C00044D1B4F5877F71DB2A68332A42E000BF3F
:1011D0002CBBFF1FB78CFF1F149CFF1F24BBFF1FDE
:1011E000D6B9FF1F508FFF1F48BBFF1FC4E2FF1F70
:1011F00000BAFF1F44BBFF1F55BAFF1F45BBFF1FAF
:1012000046BBFF1F9CBAFF1F98BAFF1F999BFF1F89
:101210000CBAFF1F7CBCFF1FC4840200F1BAFF1F81
:101220008490FF1F0C8FFF1F808CFF1FF8BAFF1FD9
:10123000848CFF1F1091FF1F208FFF1FE09BFF1F5B
:10124000CCBAFF1F0CED00E00400FA05472C2DDDA1
:101250002A68362A2AD13E4A92F800B0BBF1000F24
:1012600024D132683B4887F800B0013232603A4AF4
:1012700001241470394A147000F044FD384BDAF838
:1012800000201C6098F800302244092BCAF8002086
:101290005BD13048C5F800B000F04EFD002851D1B8
:1012A0002C4800F061FE00284CD14EE0002006F0F2
:1012B00015F92C4B1B78092B0FD1A4F1B403582B33
:1012C00004D82B6803332B6015240EE07D2C04DD3D
:1012D0002B6803332B600A2401E0142C05DC1E4B21
:1012E0001B7813B9FFF704FB14E0A4F11503442B9A
:1012F00005D8194B1B786BB9FFF708FB0AE0592C8E
:1013000008DD154B1B782BB9174B012202201A70F0
:1013100006F02EF9154B16481649C3F8009000F058
:1013200015FC154B124815491A7800F021FC0CE009
:10133000002009F0D9FFA9E6337833B1054800F061
:10134000FBFCB0E70A20FFF789FC03B0BDE8F08F93
:1013500055BAFF1FF8BAFF1F24BBFF1F808CFF1F69
:10136000848CFF1FB78CFF1FD6B9FF1F4C90FF1F47
:101370008490FF1F0C8FFF1FA48CFF1F388FFF1F4F
:1013800073B5102024F044F9684B694D694C6A48E4
:101390006A4E00221A706A4B06221A70694B0122AB
:1013A0001A70694B16221A70684B17221A70684B14
:1013B00011221A70674B0F221A70674B10221A7095
:1013C0000E2320212B701523237004F0F6FA3060D1
:1013D00000F090FB287824F045F90090207824F064
:1013E00041F95E4B01901A6801321A605C4B1B7820
:1013F000442B16D05B48FFF799FA0224594D631924
:10140000204613F8021C013423F0DAFF422CF5D1F8
:10141000284600214FF4006226F07EFA44200AF0AC
:101420006FFD34687CB904F041FA4FF4F860022192
:1014300023F0C6FF4C4801F038F94C4B01221A70DA
:101440004B4B1C7034E0464B1B78442B2DD1202194
:101450004848494C04F0F4FA484804F007FB48486F
:1014600004F03AFB204601F08DF9464801F070F98E
:1014700023780BB904232370434801F09DF94348B6
:1014800001F0A7F9384801F008F9414801F087F95F
:101490001AF0D2FA354B3F483F4900221A70344BBC
:1014A00001221A7000F083FB02E03C4B3C4A1A60B8
:1014B0003C4B3D481A683D4901321A6040F2FD72CA
:1014C0000CF0DAFA38486946022204230CF08CFA50
:1014D00002220423344801A90CF086FA06F05EFAD1
:1014E00005F0DCFF06F050FC2A48314900F05FFBB4
:1014F000304B1A78092A1C460AD11D4B1B783BB188
:101500002D4800F019FC50B92B4800F02DFD30B9E2
:101510002378092B07D1214B214A1A6003E00A20C6
:10152000FFF79CFBF4E702B070BD00BF2CBBFF1FB0
:1015300010BBFF1F989BFF1F9090FF1F149CFF1F65
:10154000F1BAFF1F64BBFF1F65BBFF1F9ABAFF1FE5
:101550006CBBFF1F1DBBFF1FBDBBFF1F8890FF1F84
:10156000020002401C9CFF1FBC8CFF1F99BAFF1F8A
:101570005CBAFF1FB090FF1FA48CFF1FF090FF1FED
:10158000D090FF1F1CBBFF1F11BBFF1F9BBAFF1F8B
:10159000C6E6FF1F8490FF1F208FFF1F0CED00E0A9
:1015A0000400FA058C90FF1FC0BBFF1FB884020027
:1015B0000C8FFF1FB78CFF1FF8BAFF1FF8B5212053
:1015C0001AF0A8F8E8B94B4B1D6804461E4632686D
:1015D00040F6B733521B9A4207D864201AF0C8F974
:1015E00021201AF097F80444F1E754B9204601216C
:1015F00023F0E6FE0120014623F0E2FE3E4B3F4A87
:101600001A603F4B3F4D1B7A012B0DD13E4B1B788F
:101610000BB12B7843B13D4B1B78032B02D0032039
:1016200004F010F90AF0C6F8394B3A4C1A68013246
:101630001A60394B1A680623B2FBF3F003FB102043
:101640001AF096F92278354BDAB11A680020013287
:101650001A6009F049FE324B1B78ABB1314B1B6865
:1016600093B105F06DFC304B1B786BB1214A1168CA
:101670002E4A12688A1A4EF660214B439A4221D2B2
:1016800002E01A6801321A602B784BB123783BB123
:101690001D4B1B7823B9264B0120187005F05CFC0C
:1016A00006F096FB234A12780A32D2B2012A04D8F5
:1016B0002D20BDE8F84005F011BFC8B1BDE8F840E5
:1016C000FFF7CCBA1C4B1D48002601271F7026705F
:1016D00000F018FB1A4B1B481F602022314626F0F1
:1016E0001BF91948194900F062FA044A024BCAE78B
:1016F000F8BD00BFC4E2FF1F0CED00E00400FA05D6
:101700005DBAFF1F24BBFF1F55BAFF1FD8B9FF1FCB
:101710008890FF1F99BAFF1FF4BAFF1F8C90FF1F1C
:101720005CBAFF1F149CFF1FBC8CFF1F48BBFF1F30
:10173000D6B9FF1FD5B9FF1F808CFF1FF8BAFF1F56
:10174000848CFF1F1091FF1F8490FF1F208FFF1FAD
:1017500070B51A4D2B78092B2AD1194C002120463F
:1017600024F00AF810B32379E12B1FD163792F2BD2
:101770001CD9144B1B78CBB1134B1E78B6B92B7800
:10178000092B13D1114B124801221A7000F0BAFA3A
:101790000AF08EFA0F4B0A201860FFF75FFA204616
:1017A00031464022BDE8704026F0B6B80A4800E055
:1017B0000A48BDE8704005F0CDBD00BFB78CFF1FE3
:1017C0000CBAFF1F5CBAFF1F99BAFF1F808CFF1F66
:1017D000F8BAFF1F848CFF1FEA840200F88402001D
:1017E00008B523F0A3FD3221084A094800F022FA87
:1017F0003221084A084800F01DFA0848084A4FF408
:101800007A71BDE8084000F015BA00BFBD150000B0
:101810000C8FFF1FC50A0000388FFF1F208FFF1F8E
:10182000511700002DE9F04F0A46C9B00023CD5CE6
:10183000D47844EA0564557844EA0544957803F180
:10184000200644EA052404336D46402B745102F10E
:101850000402ECD108AB002208AF9C6B5E6ABD5855
:10186000596835444FEA744686EAF44686EA942479
:101870002C444FEAF11585EAB14585EAD1010432DD
:101880002144C02A196403F10403E5D1026D0092DA
:10189000436D426E0193856D836EC66D076E029532
:1018A0000396C56E0497059217469DE814000693AB
:1018B0001E46DDF80CC0049B02990795A84600253A
:1018C00005F1200BE9465BF809A0DFF8989055F880
:1018D0000990D1444FEAB31A8AEAF32A8AEA736A72
:1018E000D14426EA030B07EA030A8BEA0A0AD14429
:1018F000C84481EA040901EA040A09EA020989EAFA
:101900000A094FEAB20A8AEA723A8AEAB25A0435F6
:10191000D144B5F5807FC444C14408D0B0463E46AA
:101920001F4663468C46214614464A46C8E7009D3A
:101930004D440565019D2A444265029A039D144465
:10194000049A846562440266059A134429444366F6
:10195000079D069BC1651F442E448766C66649B035
:10196000BDE8F08F048502000023036400220023F9
:10197000C0E912230A4B03650A4B43650A4B836592
:101980000A4BC3650A4B03660A4B43660A4B8366E0
:1019900003F17453A3F52303A3F69243C366704780
:1019A00067E6096A85AE67BB72F36E3C3AF54FA5F0
:1019B0007F520E518C68059BABD9831F2DE9F041F6
:1019C00006460F4601EB0208474516D0336C17F860
:1019D000012BF2540133402B3364F5D130463146AC
:1019E000FFF720FFD6E9124514F5007445F1000514
:1019F0000023C6E912453364E6E7BDE8F081026CD6
:101A00002DE9F84F372A88464FF08001814602F1D0
:101A10000103815406D8382B14D0002209F8032082
:101A20000133F8E73F2B04D8002209F803200133E3
:101A3000F8E748464946FFF7F5FE484600213822B8
:101A400025F06AFFD9F84030D900D9E9122352189D
:101A500043F100034FEA122A160C140E4AEA036AF5
:101A60004FEA132B46EA03461F0C44EA03241D0EDB
:101A7000C9E9122389F83B30494689F83F2089F8A3
:101A80003EA089F83D6089F83C4089F83AB089F871
:101A9000397089F838504846FFF7C4FE43460321A1
:101AA000D9F85000CA00D0401870D9F85400D0407E
:101AB0001871D9F85800D0401872D9F85C00D0409D
:101AC0001873D9F86000D0401874D9F86400D04079
:101AD0001875D9F86800D0401876D9F86C0001392B
:101AE00020FA02F21A774A1C03F10103D8D1BDE8AB
:101AF000F88FFFFF07B5064B06499A680092DA682F
:101B000001920CCB044826F03BF903B05DF804FBCE
:101B10005090FF1F048602006090FF1F064B1A685A
:101B2000064B1A60064A12685A60064A12689A60A2
:101B3000054A1268DA607047548004405090FF1FD5
:101B4000588004405C80044060800440036873B1A6
:101B50008B4205D11B69036070478A4204D013464B
:101B60001A69002AF9D102E00A691A6170477047C0
:101B700070B506460C461546FFF7E8FF33680BB90B
:101B8000346004E01A690AB11346FBE71C6119F0DE
:101B9000CFFE23680322C01A4FF4FA536B43B5FB00
:101BA000F2F55D43002360602560236170BD38B5A8
:101BB00005460C46FFF7CAFF2B680BB92C6004E002
:101BC0001A690AB11346FBE71C6119F0B1FE2368DC
:101BD000C01A00236060236138BD38B50C4619F087
:101BE000A7FE6268236813449842054605D36268DD
:101BF000934208D26268824205D86268954207D251
:101C000062689A4204D8A560E368204698476560F8
:101C100038BD38B505462C68002CFCD02146284636
:101C2000FFF7DBFF2469F7E708B50148FFF7F1FF8D
:101C30008490FF1F10B54FF47A746143C260002294
:101C400001604260026110BD4FF47A735943016034
:101C50007047FFFFF8B504460E4615461F46044A76
:101C6000FFF7E8FF6661E561A7612046F8BD00BFA8
:101C7000951C000010B50021044680F82010FFF7E5
:101C8000E3FF21460248BDE81040FFF790BF00BFC8
:101C90008490FF1F10B590F8203004463BB9012313
:101CA00080F820304169BDE81040FFF7CDBF012B1F
:101CB00010D109482146FFF749FFE36913B9A0692C
:101CC00020B910BD2046984720B1F8E7BDE8104084
:101CD000FFF7D0BF10BD00BF8490FF1F00224161FD
:101CE00042740270704741617047437C102B07D0EB
:101CF0005A1CD2B24274C15400238354012070474D
:101D000000207047002343740370704710B5446986
:101D100002782178002321B9D2F1010038BF0020D8
:101D200010BD914206D1E2185178C2180133102B30
:101D30005278F0D1002010BD2DE9F043B7B0044631
:101D400026F059F87C4B1B78092B054613D17B4BA9
:101D50001A78012A02D100201870E9E058B9784BAE
:101D6000224603F1100153F8040B42F8040B8B4296
:101D7000F9D1102505E0062803D81E2019F0F8FD3A
:101D8000D5E01AA8FFF7F0FD21462A461AA8FFF76A
:101D900015FE20221AA86B496B4CFFF70FFE1AA8FC
:101DA0000AA9FFF72CFE9DF8283023F007038DF8D1
:101DB00028309DF8473003F03F0343F040030AA961
:101DC000002220468DF847300AF0CCFD1AA8FFF714
:101DD000CBFD12A800F031FD1AA812A91022FFF7BE
:101DE000EDFD1AA859491022FFF7E8FD20221AA894
:101DF0002146FFF7E3FD21461AA8FFF700FE1AA8C7
:101E0000FFF7B2FD1AA812A91022FFF7D7FD1AA8F2
:101E10004E491022FFF7D2FD20221AA84C49FFF7A5
:101E2000CDFD1AA802A9FFF7EAFD4A4B9DF808501C
:101E3000D3F80080484B20781A68531C02F11F0920
:101E400002F1200CC2EB08014B4503F1FF37C2F150
:101E50000006194457D13F4B3F4C1960854227601B
:101E600004D03D4B1A6801321A6060E00DF10700A2
:101E700000F07BFC9DF807303348012B0AD103F0BA
:101E800041FE18B93048354A0AA909E002A80AA952
:101E9000324A0BE003F036FE28B92B482C4A0AA937
:101EA0000AF060FD25E02A4A02A80AA90AF05AFDB4
:101EB0001AA8FFF759FD1AA812A92022FFF77EFDE4
:101EC0001AA827491022FFF779FD1AA802A9202293
:101ED000FFF774FD20221AA81A49FFF76FFD1AA810
:101EE0000AA9FFF78CFD18481D490AAA202303F010
:101EF00098FB23681B4A01332360002313700F4AA9
:101F00000120137014E0854204D0124B1960124B6B
:101F10001F60A6E702A830442644C55CF05C1E465C
:101F2000013363458ED10B4B19600B4B1E600020B3
:101F300037B0BDE8F08300BFB78CFF1FCCBAFF1FDE
:101F40007290FF1F9090FF1F1091FF1F7090FF1F56
:101F5000B090FF1F8890FF1F8C90FF1FD090FF1F35
:101F60006090FF1F2CBBFF1F2DE9F043B7B0044664
:101F700025F041FF774B1B78092B05460CD158B94A
:101F8000754B224603F1100153F8040B42F8040B81
:101F90008B42F9D1102505E0062803D81E2019F040
:101FA000E7FC73E01AA8FFF7DFFC21462A461AA8CF
:101FB000FFF704FD20221AA86849694CFFF7FEFCD0
:101FC0001AA80AA9FFF71BFD9DF8283023F0070384
:101FD0008DF828309DF8473003F03F0343F040036D
:101FE0000AA9002220468DF847300AF0BBFC1AA847
:101FF000FFF7BAFC12A800F020FC1AA812A91022C0
:10200000FFF7DCFC1AA857491022FFF7D7FC202263
:102010001AA82146FFF7D2FC21461AA8FFF7EFFCC9
:102020001AA8FFF7A1FC1AA812A91022FFF7C6FCF4
:102030001AA84C491022FFF7C1FC20221AA84A49CD
:10204000FFF7BCFC1AA802A9FFF7D9FC474B9DF883
:102050000850D3F80080464B20781A68531C02F1D0
:102060001F0902F1200CC2EB08014B4503F1FF37B9
:10207000C2F10006194455D13C4B3D4C19608542D4
:10208000276005D03A4B1A6801321A6000205EE0E2
:102090000DF1070000F069FB9DF80730022B36D0E8
:1020A0002F4803F02FFD28B90AA9324A2C480AF01C
:1020B00059FC25E00AA92F4A02A80AF053FC1AA8E5
:1020C000FFF752FC1AA812A92022FFF777FC1AA8E2
:1020D00029491022FFF772FC1AA802A92022FFF753
:1020E0006DFC20221AA81D49FFF768FC1AA80AA94E
:1020F000FFF785FC1A4820490AAA202303F091FA29
:102100001E4B01221A701E4B54221A7005E01D4A04
:102110001278002ABAD1194A137023680133236058
:10212000012014E0854204D0104B1960104B1F6051
:10213000A8E702A830442644C55CF05C1E46013383
:10214000634590D1094B1960094B1E609EE737B07B
:10215000BDE8F083B78CFF1F7390FF1F9090FF1FA7
:102160001091FF1F7090FF1FD090FF1F8890FF1FDE
:102170008C90FF1FB090FF1F6090FF1F2CBBFF1FB4
:10218000CCBAFF1F24BBFF1F30B59DB0054625F01C
:1021900032FE0628044603D81E2019F0E9FB22E08F
:1021A0006846FFF7E1FB2246684629460F4CFFF7D9
:1021B00005FC202268460E49FFF700FC68462146D0
:1021C000FFF71DFC0B4920780A78002382420AD1D0
:1021D000CA18E01801331E2B52784078F6D1131A32
:1021E0005842584100E000201DB030BD1091FF1F43
:1021F0009090FF1FF090FF1F23F098B810B5084B88
:1022000000F14C0203F1140153F8044B42F8044B63
:102210008B42F9D10023036680F8483010BD00BF1F
:10222000888CFF1F2DE9F04F416D826DC36DD0F892
:102230004C80D0F850C085B099460191029203932A
:102240004646134600240A466146E5B20F2D07D8DC
:1022500083EA020A0AEA010A8AEA030A334F3FE0E4
:1022600004F10D0B04F108070BF00F0B07F00F073B
:102270000BF1020B023705F00F0A50F8277050F8E7
:102280002BB000EB8A0A8BEA070BDAF808708BEAAE
:10229000070BA71C07F00F070237132D50F8277004
:1022A0008BEA07074FEAF777CAF80870D0D9272DCD
:1022B00005D882EA010A8AEA030A1D4F10E03B2D85
:1022C00009D842EA010A02EA01070AEA030A4AEACD
:1022D000070A184F04E082EA010A174F8AEA030A44
:1022E00005F00F050235574450F82550013405EB31
:1022F000F6653D44502C4D444FEAB10105D0994656
:1023000013460A4631462E469FE7019C214441650B
:1023100002990A448265039A454466441344C5649D
:102320000665C36505B0BDE8F08F00BF9979825A94
:10233000A1EBD96EDCBC1B8FD6C162CA90F84830C5
:1023400083F003020133DBB20244402B10B511725B
:10235000044680F8483004D1FFF764FF002384F876
:10236000483010BD08B5026E01320266FFF7E6FF85
:10237000012008BD10B580210446FFF7DFFF94F867
:102380004830382B20464FF00001F6D1FFF7D6FF3A
:1023900020460021FFF7D2FF20460021FFF7CEFFA5
:1023A000216E2046490FFFF7C9FF216E2046C1F379
:1023B0004751FFF7C3FF216E2046C1F34731FFF7B6
:1023C000BDFF216E2046C1F34711FFF7B7FF216E15
:1023D000C900204601F0F801BDE81040FFF7AEBF8C
:1023E00010B50446FFF7C6FF0023E2180433D16C92
:1023F000142B09BAD164F8D104F14C0010BDF8B522
:1024000000F16406174604460D463046002140227E
:1024100025F082FA402F18DD2046FFF7EFFE2F440B
:10242000BD4206D0236815F8011B1B68204698475B
:10243000F6E72046FFF7D4FF00F1140250F8041B22
:1024400046F8041B9042F9D104E0304629463A464A
:1024500018F0B4FA2046FFF7D1FE254604F14006F5
:1024600095F86410236820461B6881F03601013519
:102470009847B542F4D1F8BD70B50446FFF7B0FFF8
:1024800004F1A40300F1140250F8041B43F8041BE8
:102490009042F9D12046FFF7B1FE04F140062546EF
:1024A00095F86410236820461B6881F05C010135B3
:1024B0009847B542F4D104F114062546236895F8EF
:1024C000A4101B68204601359847B542F6D1204636
:1024D000BDE87040FFF784BF024B00221A71024A28
:1024E0001A6070473091FF1F2886020080E80600BE
:1024F0007047FFFF1E2391FBF3F10B0E70B51E4ECC
:1025000003740B140446002543740B12816083741A
:10251000C174057394E8060045738573C57330462E
:10252000FFF76DFF336804F10C015B680822304649
:1025300098473046FFF7A0FF6061C37CE56103F078
:102540000F03A361E269C1181202E261495D01351E
:102550000A43042DE261F5D1084B22F0004292FBC0
:10256000F3F103FB1122E26120342046044925F0F7
:1025700007FC204670BD00BF3091FF1F40420F0096
:1025800030860200074B1860074B1B681844074B46
:102590001860074B02221A70064B1A68064B1A6025
:1025A000704700BFE891FF1F9C8CFF1FF891FF1F31
:1025B000EC91FF1FC4E2FF1FF491FF1F70B5164995
:1025C000164C0A68236816480068801AB0F57A7FAE
:1025D00002F57A7603F1010502D32B463246F2E783
:1025E000104D0A602A6823609A4213D80E4B1B686C
:1025F00083B1984710B1FFF7C5FF0BE00B4B1A688A
:10260000064B1B6813442B60094B1A78003218BF25
:1026100001221A70206870BDF491FF1FE891FF1F1E
:10262000C4E2FF1FF891FF1FF091FF1F9C8CFF1F5A
:10263000EC91FF1F08B5FFF7C1FF014B187808BDEB
:10264000EC91FF1FF8B506460D468F180C46BC42AC
:1026500006D0204622F0A0FE731B18550134F6E781
:10266000F8BDF8B506460D468F180C46BC4206D09C
:10267000731B2046195D22F0A3FE0134F6E7F8BD76
:1026800008B54FF4D5610122FFF7DCFF012008BD3A
:102690004FF4D5610122FFF7E4BF08B540F2A9610C
:1026A0000122FFF7CFFF012008BD40F2A9610122FE
:1026B000FFF7D7BF08B540F2AA610122FFF7C2FFBA
:1026C000012008BD40F2AA610122FFF7CABF08B588
:1026D00040F2D561D022FFF7B5FFD02008BD40F20F
:1026E000D561D022FFF7BDBF08B540F2AB61012232
:1026F000FFF7A8FF012008BD40F2AB610122FFF700
:10270000B0BF08B540F2AC610122FFF79BFF01208A
:1027100008BD40F2AC610122FFF7A3BF08B540F24B
:10272000AD610122FFF78EFF012008BD40F2AD61CF
:102730000122FFF796BF08B540F2A5710122FFF70D
:1027400081FF012008BD40F2A5710122FFF789BF7A
:1027500008B540F2A6710122FFF774FF012008BD01
:1027600040F2A6710122FFF77CBF08B540F2AE61CE
:102770000122FFF767FF012008BD40F2AE61012290
:10278000FFF76FBF08B540F2AF610122FFF75AFFB4
:10279000012008BD40F2AF610122FFF762BF08B51A
:1027A0004FF4D6610122FFF74DFF012008BD4FF421
:1027B000D6610122FFF755BF08B540F2D36101226F
:1027C000FFF740FF012008BD40F2D3610122FFF76F
:1027D00048BF08B540F2BF710122FFF733FF012067
:1027E00008BD40F2BF710122FFF73BBF08B540F2C0
:1027F000D4610122FFF726FF012008BD40F2D46119
:102800000122FFF72EBF08B540F2B1610122FFF7A8
:1028100019FF012008BD40F2B1610122FFF721BF7D
:1028200008B540F2B2610122FFF70CFF012008BD9C
:1028300040F2B2610122FFF714BF08B540F2B36164
:102840002022FFF7FFFE202008BD40F2B3612022C6
:10285000FFF707BF08B540F21C610122FFF7F2FE47
:10286000012008BD40F21C610122FFF7FABE08B545
:1028700040F21D610122FFF7E5FE012008BD40F294
:102880001D610122FFF7EDBE08B540F21E61012275
:10289000FFF7D8FE012008BD40F21E610122FFF7BC
:1028A000E0BE08B540F21F610122FFF7CBFE012018
:1028B00008BD40F21F610122FFF7D3BE08B54FF4F7
:1028C000C4610122FFF7BEFE012008BD4FF4C461C0
:1028D0000122FFF7C6BE08B540F221610122FFF7D1
:1028E000B1FE012008BD40F221610122FFF7B9BE0F
:1028F00008B540F222610122FFF7A4FE012008BDC5
:1029000040F222610122FFF7ACBE08B540F223611C
:102910000122FFF797FE012008BD40F2236101224A
:10292000FFF79FBE08B540F224610122FFF78AFE3F
:10293000012008BD40F224610122FFF792BE08B5D4
:1029400040F225610122FFF77DFE012008BD40F223
:1029500025610122FFF785BE08B540F226610122FC
:10296000FFF770FE012008BD40F226610122FFF74B
:1029700078BE08B540F227610122FFF763FE01200F
:1029800008BD40F227610122FFF76BBE08B54FF486
:10299000C5610122FFF756FE012008BD4FF4C56155
:1029A0000122FFF75EBE08B540F229610122FFF760
:1029B00049FE012008BD40F229610122FFF751BE06
:1029C00008B540F22A610122FFF73CFE012008BD54
:1029D00040F22A610122FFF744BE08B540F22B61A4
:1029E0000122FFF72FFE012008BD40F22B610122DA
:1029F000FFF737BE08B540F22C610122FFF722FE37
:102A0000012008BD40F22C610122FFF72ABE08B563
:102A100040F22D610122FFF715FE012008BD40F2B2
:102A20002D610122FFF71DBE08B540F22E61012283
:102A3000FFF708FE012008BD40F22E610122FFF7DA
:102A400010BE08B540F22F610122FFF7FBFD012007
:102A500008BD40F22F610122FFF703BE08B54FF415
:102A6000C6610122FFF7EEFD012008BD4FF4C661EB
:102A70000122FFF7F6BD08B540F231610122FFF7F0
:102A8000E1FD012008BD40F231610122FFF7E9BDFF
:102A900008B540F232610122FFF7D4FD012008BDE4
:102AA00040F232610122FFF7DCBD08B540F233612C
:102AB0000122FFF7C7FD012008BD40F2336101226A
:102AC000FFF7CFBD08B5AC210122FFF7BBFD012008
:102AD00008BDAC210122FFF7C4BD08B5AD2101221C
:102AE000FFF7B0FD012008BDAD210122FFF7B9BD00
:102AF00008B5AE210122FFF7A5FD012008BDAE21DA
:102B00000122FFF7AEBD08B5AF210122FFF79AFD04
:102B1000012008BDAF210122FFF7A3BD08B5B021F8
:102B20000122FFF78FFD012008BDB0210122FFF730
:102B300098BD08B5B1210122FFF784FD012008BD31
:102B4000B1210122FFF78DBD08B5B2210122FFF7A7
:102B500079FD012008BDB2210122FFF782BD08B531
:102B6000B3210122FFF76EFD012008BDB321012230
:102B7000FFF777BD08B5B4210122FFF763FD0120FF
:102B800008BDB4210122FFF76CBD08B5B5210122B3
:102B9000FFF758FD012008BDB5210122FFF761BDF7
:102BA00008B5B6210122FFF74DFD012008BDB62171
:102BB0000122FFF756BD08B5B7210122FFF742FDFC
:102BC000012008BDB7210122FFF74BBD08B5B82190
:102BD0000122FFF737FD012008BDB8210122FFF7D0
:102BE00040BD08B5B9210122FFF72CFD012008BD29
:102BF000B9210122FFF735BD08B5BA210122FFF73F
:102C000021FD012008BDBA210122FFF72ABD08B528
:102C1000BB210122FFF716FD012008BDBB210122C7
:102C2000FFF71FBD08B5BC210122FFF70BFD0120F6
:102C300008BDBC210122FFF714BD08B5BD2101224A
:102C4000FFF700FD012008BDBD210122FFF709BDEE
:102C500008B5BE210122FFF7F5FC012008BDBE2109
:102C60000122FFF7FEBC08B5BF210122FFF7EAFCF5
:102C7000012008BDBF210122FFF7F3BC08B5C02128
:102C80000122FFF7DFFC012008BDC0210122FFF770
:102C9000E8BC08B5C1210122FFF7D4FC012008BD22
:102CA000C1210122FFF7DDBC08B5C2210122FFF7D7
:102CB000C9FC012008BDC2210122FFF7D2BC08B522
:102CC000C3210122FFF7BEFC012008BDC321012260
:102CD000FFF7C7BC08B564210122FFF7B3FC012050
:102CE00008BD64210122FFF7BCBC08B565210122A3
:102CF000FFF7A8FC012008BD65210122FFF7B1BC48
:102D000008B566210122FFF79DFC012008BD662160
:102D10000122FFF7A6BC08B567210122FFF792FC4C
:102D2000012008BD67210122FFF79BBC08B568217F
:102D30000122FFF787FC012008BD68210122FFF76F
:102D400090BC08B569210122FFF77CFC012008BD79
:102D500069210122FFF785BC08B56A210122FFF72E
:102D600071FC012008BD6A210122FFF77ABC08B579
:102D70006B210122FFF766FC012008BD6B210122B7
:102D8000FFF76FBC08B56C210122FFF75BFC012047
:102D900008BD6C210122FFF764BC08B56D2101223A
:102DA000FFF750FC012008BD6D210122FFF759BC3F
:102DB00008B56E210122FFF745FC012008BD6E21F8
:102DC0000122FFF74EBC08B56F210122FFF73AFC44
:102DD000012008BD6F210122FFF743BC08B5702117
:102DE0000122FFF72FFC012008BD70210122FFF70F
:102DF00038BC08B571210122FFF724FC012008BD71
:102E000071210122FFF72DBC08B572210122FFF7C5
:102E100019FC012008BD72210122FFF722BC08B570
:102E200073210122FFF70EFC012008BD732101224E
:102E3000FFF717BC08B574210122FFF703FC01203E
:102E400008BD74210122FFF70CBC08B575210122D1
:102E5000FFF7F8FB012008BD75210122FFF701BC37
:102E600008B576210122FFF7EDFB012008BD762190
:102E70000122FFF7F6BB08B577210122FFF7E2FB3D
:102E8000012008BD77210122FFF7EBBB08B57821AF
:102E90000122FFF7D7FB012008BD78210122FFF7AF
:102EA000E0BB08B579210122FFF7CCFB012008BD6A
:102EB00079210122FFF7D5BB08B57A210122FFF75E
:102EC000C1FB012008BD7A210122FFF7CABB08B56A
:102ED0007B210122FFF7B6FB012008BD7B210122E7
:102EE000FFF7BFBB08B540F264610122FFF7AAFB00
:102EF000012008BD40F264610122FFF7B2BB08B5B2
:102F000040F265610122FFF79DFB012008BD40F200
:102F100065610122FFF7A5BB08B540F26661012299
:102F2000FFF790FB012008BD40F266610122FFF728
:102F300098BB08B540F267610122FFF783FB0120CF
:102F400008BD40F267610122FFF78BBB08B54FF463
:102F5000CD610122FFF776FB012008BD4FF4CD6162
:102F60000122FFF77EBB08B540F269610122FFF73D
:102F700069FB012008BD40F269610122FFF771BBC6
:102F800008B540F26A610122FFF75CFB012008BD31
:102F900040F26A610122FFF764BB08B540F26B6141
:102FA0000122FFF74FFB012008BD40F26B610122B7
:102FB000FFF757BB08B540F26C610122FFF742FBF7
:102FC000012008BD40F26C610122FFF74ABB08B541
:102FD00040F26D610122FFF735FB012008BD40F290
:102FE0006D610122FFF73DBB08B540F26E61012221
:102FF000FFF728FB012008BD40F26E610122FFF7B8
:1030000030BB08B540F26F610122FFF71BFB0120C6
:1030100008BD40F26F610122FFF723BB08B54FF4F2
:10302000CE610122FFF70EFB012008BD4FF4CE61F7
:103030000122FFF716BB08B540F271610122FFF7CC
:1030400001FB012008BD40F271610122FFF709BBBD
:1030500008B540F272610122FFF7F4FA012008BDC1
:1030600040F272610122FFF7FCBA08B540F27361C9
:103070000122FFF7E7FA012008BD40F27361012247
:10308000FFF7EFBA08B540F274610122FFF7DAFAF0
:10309000012008BD40F274610122FFF7E2BA08B5D1
:1030A00040F275610122FFF7CDFA012008BD40F220
:1030B00075610122FFF7D5BA08B540F276610122A9
:1030C000FFF7C0FA012008BD40F276610122FFF748
:1030D000C8BA08B540F277610122FFF7B3FA0120C0
:1030E00008BD40F277610122FFF7BBBA08B54FF483
:1030F000CF610122FFF7A6FA012008BD4FF4CF618E
:103100000122FFF7AEBA08B540F279610122FFF75C
:1031100099FA012008BD40F279610122FFF7A1BAB6
:1031200008B540F27A610122FFF78CFA012008BD50
:1031300040F27A610122FFF794BA08B540F27B6150
:103140000122FFF77FFA012008BD40F27B610122D6
:10315000FFF787BA08B546211022FFF773FA10204F
:1031600008BD46211022FFF77CBA38B505460C464B
:1031700011B9622102220BE04B1E172B0AD801F273
:1031800063610122FFF75EFA681C04F2A671012256
:10319000FFF758FA022038BD38B505460C4611B97C
:1031A000622102220BE04B1E172B0CD801F2636147
:1031B0000122FFF756FA681C04F2A6710122BDE84D
:1031C0003840FFF74EBA38BD08B55C210622FFF73C
:1031D00039FA062008BD5C210622FFF742BA08B57D
:1031E00056210622FFF72EFA062008BD5621062298
:1031F000FFF737BA37B501390446172900F2558170
:10320000DFE811F01800240031003E004B005800A8
:10321000650072007F008C009900A600B300C0001A
:10322000CD00DA00E700F40001010E011B012801C6
:10323000350142010DF10700FFF70CFB9DF8075027
:103240002046382DA8BF3825DC2129E10DF10700E3
:10325000FFF70DFB9DF807502046382DA8BF3825F5
:103260004FF48A711CE10DF10700FFF70DFB9DF88B
:1032700007502046382DA8BF38254FF4A6710FE11E
:103280000DF10700FFF70DFB9DF807502046382D84
:10329000A8BF38254FF4C27102E10DF10700FFF716
:1032A0000DFB9DF807502046382DA8BF38254FF458
:1032B000DE71F5E00DF10700FFF70DFB9DF80750FB
:1032C0002046382DA8BF38254FF4FA71E8E00DF1FB
:1032D0000700FFF70DFB9DF807502046382DA8BFCB
:1032E00038254FF40B71DBE00DF10700FFF70DFB04
:1032F0009DF807502046382DA8BF38254FF4197186
:10330000CEE00DF10700FFF70DFB9DF807502046BA
:10331000382DA8BF38254FF42771C1E00DF1070003
:10332000FFF70DFB9DF807502046382DA8BF382524
:103330004FF43571B4E00DF10700FFF70DFB9DF878
:1033400007502046382DA8BF38254FF44371A7E019
:103350000DF10700FFF70DFB9DF807502046382DB3
:10336000A8BF38254FF451719AE00DF10700FFF71F
:103370000DFB9DF807502046382DA8BF38254FF487
:103380005F718DE00DF10700FFF70DFB9DF8075011
:103390002046382DA8BF38254FF46D7180E00DF11F
:1033A0000700FFF70DFB9DF807502046382DA8BFFA
:1033B00038254FF47B7173E00DF10700FFF70DFB2B
:1033C0009DF807502046382DA8BF382540F22441EB
:1033D00066E00DF10700FFF70DFB9DF80750204652
:1033E000382DA8BF382540F25C4159E00DF10700A7
:1033F000FFF70DFB9DF807502046382DA8BF382554
:1034000040F294414CE00DF10700FFF70DFB9DF8F1
:1034100007502046382DA8BF382540F2CC413FE068
:103420000DF10700FFF70DFB9DF807502046382DE2
:10343000A8BF382540F2045132E00DF10700FFF734
:103440000DFB9DF807502046382DA8BF382540F2C7
:103450003C5125E00DF10700FFF70DFB9DF80750EB
:103460002046382DA8BF382540F2745118E00DF1E0
:103470000700FFF70DFB9DF807502046382DA8BF29
:10348000382540F2AC510BE00DF10700FFF70DFBC2
:103490009DF807502046382DA8BF382540F2E4514A
:1034A0003822FFF7CFF8284600E0002003B030BDF7
:1034B000013A13B50C46172A00F26881DFE812F0D2
:1034C00018002500330041004F005D006B007900BB
:1034D00087009500A300B100BF00CD00DB00E9002C
:1034E000F7000501130121012F013D014B01590195
:1034F000DC213822FFF7B5F802A8382CA8BF382401
:1035000000F8014DFFF7AEF940E14FF48A7138221F
:10351000FFF7A7F802A8382CA8BF382400F8014DFF
:10352000FFF7ADF932E14FF4A6713822FFF799F8B1
:1035300002A8382CA8BF382400F8014DFFF7ACF9D9
:1035400024E14FF4C2713822FFF78BF802A8382C1F
:10355000A8BF382400F8014DFFF7ABF916E14FF48E
:10356000DE713822FFF77DF802A8382CA8BF382476
:1035700000F8014DFFF7AAF908E14FF4FA7138227B
:10358000FFF76FF802A8382CA8BF382400F8014DC7
:10359000FFF7A9F9FAE04FF40B713822FFF761F851
:1035A00002A8382CA8BF382400F8014DFFF7A8F96D
:1035B000ECE04FF419713822FFF753F802A8382CC9
:1035C000A8BF382400F8014DFFF7A7F9DEE04FF45B
:1035D00027713822FFF745F802A8382CA8BF3824F5
:1035E00000F8014DFFF7A6F9D0E04FF4357138220D
:1035F000FFF737F802A8382CA8BF382400F8014D8F
:10360000FFF7A5F9C2E04FF443713822FFF729F81C
:1036100002A8382CA8BF382400F8014DFFF7A4F900
:10362000B4E04FF451713822FFF71BF802A8382C90
:10363000A8BF382400F8014DFFF7A3F9A6E04FF426
:103640005F713822FFF70DF802A8382CA8BF382484
:1036500000F8014DFFF7A2F998E04FF46D713822A0
:10366000FEF7FFFF02A8382CA8BF382400F8014D50
:10367000FFF7A1F98AE04FF47B713822FEF7F1FFE2
:1036800002A8382CA8BF382400F8014DFFF7A0F994
:103690007CE040F224413822FEF7E3FF02A8382CF8
:1036A000A8BF382400F8014DFFF79FF96EE040F203
:1036B0005C413822FEF7D5FF02A8382CA8BF382479
:1036C00000F8014DFFF79EF960E040F29441382286
:1036D000FEF7C7FF02A8382CA8BF382400F8014D18
:1036E000FFF79DF952E040F2CC413822FEF7B9FFD6
:1036F00002A8382CA8BF382400F8014DFFF79CF928
:1037000044E040F204513822FEF7ABFF02A8382C07
:10371000A8BF382400F8014DFFF79BF936E040F2CE
:103720003C513822FEF79DFF02A8382CA8BF382450
:1037300000F8014DFFF79AF928E040F27451382261
:10374000FEF78FFF02A8382CA8BF382400F8014DDF
:10375000FFF799F91AE040F2AC513822FEF781FFE9
:1037600002A8382CA8BF382400F8014DFFF798F9BB
:103770000CE040F2E4513822FEF773FF02A8382C27
:10378000A8BF382400F8014DFFF797F902B010BD2B
:10379000013908B5172941D8DFE801F00C0E1012E5
:1037A0001416181A1C1E20222426282A2C2E3032E9
:1037B0003436383A7C212CE07D212AE07E2128E035
:1037C0007F2126E0802124E0812122E0822120E067
:1037D00083211EE084211CE085211AE0862118E067
:1037E000872116E0882114E0892112E08A2110E067
:1037F0008B210EE08C210CE08D210AE08E2108E067
:103800008F2106E0902104E0912102E0922100E066
:1038100093210122FEF716FF012008BD002008BDFC
:10382000013917293FD8DFE801F00C0E10121416E9
:10383000181A1C1E20222426282A2C2E3032343618
:10384000383A7C212CE07D212AE07E2128E07F216E
:1038500026E0802124E0812122E0822120E08321D2
:103860001EE084211CE085211AE0862118E08721D2
:1038700016E0882114E0892112E08A2110E08B21D2
:103880000EE08C210CE08D210AE08E2108E08F21D2
:1038900006E0902104E0912102E0922100E09321D2
:1038A0000122FEF7DEBE7047013908B5172941D85D
:1038B000DFE801F00C0E10121416181A1C1E20223C
:1038C0002426282A2C2E30323436383A94212CE003
:1038D00095212AE0962128E0972126E0982124E0EE
:1038E000992122E09A2120E09B211EE09C211CE0EE
:1038F0009D211AE09E2118E09F2116E0A02114E0EE
:10390000A12112E0A22110E0A3210EE0A4210CE0ED
:10391000A5210AE0A62108E0A72106E0A82104E0ED
:10392000A92102E0AA2100E0AB210122FEF78AFED4
:10393000012008BD002008BD013917293FD8DFE864
:1039400001F00C0E10121416181A1C1E2022242628
:10395000282A2C2E30323436383A94212CE0952106
:103960002AE0962128E0972126E0982124E0992159
:1039700022E09A2120E09B211EE09C211CE09D2159
:103980001AE09E2118E09F2116E0A02114E0A12159
:1039900012E0A22110E0A3210EE0A4210CE0A52159
:1039A0000AE0A62108E0A72106E0A82104E0A92159
:1039B00002E0AA2100E0AB210122FEF752BE7047CF
:1039C000013908B5172941D8DFE801F00C0E1012B3
:1039D0001416181A1C1E20222426282A2C2E3032B7
:1039E0003436383AC4212CE0C5212AE0C62128E02B
:1039F000C72126E0C82124E0C92122E0CA2120E015
:103A0000CB211EE0CC211CE0CD211AE0CE2118E014
:103A1000CF2116E0D02114E0D12112E0D22110E014
:103A2000D3210EE0D4210CE0D5210AE0D62108E014
:103A3000D72106E0D82104E0D92102E0DA2100E014
:103A4000DB210122FEF7FEFD012008BD002008BD9C
:103A5000013917293FD8DFE801F00C0E10121416B7
:103A6000181A1C1E20222426282A2C2E30323436E6
:103A7000383AC4212CE0C5212AE0C62128E0C7211C
:103A800026E0C82124E0C92122E0CA2120E0CB2180
:103A90001EE0CC211CE0CD211AE0CE2118E0CF2180
:103AA00016E0D02114E0D12112E0D22110E0D32180
:103AB0000EE0D4210CE0D5210AE0D62108E0D72180
:103AC00006E0D82104E0D92102E0DA2100E0DB2180
:103AD0000122FEF7C6BD7047013908B5172959D82C
:103AE000DFE801F00C0F1215181B1E2124272A2DC8
:103AF000303336393C3F4245484B4E5140F23461F9
:103B000043E040F2356140E040F236613DE040F292
:103B100037613AE04FF4C76137E040F2396134E091
:103B200040F23A6131E040F23B612EE040F23C610C
:103B30002BE040F23D6128E040F23E6125E040F29A
:103B40003F6122E04FF4C8611FE040F241611CE098
:103B500040F2426119E040F2436116E040F24461F4
:103B600013E040F2456110E040F246610DE040F2A2
:103B700047610AE04FF4C96107E040F2496104E09F
:103B800040F24A6101E040F24B610122FEF75AFD2A
:103B9000012008BD002008BD0139172957D8DFE8EA
:103BA00001F00C0F1215181B1E2124272A2D30336B
:103BB00036393C3F4245484B4E5140F2346143E078
:103BC00040F2356140E040F236613DE040F237615D
:103BD0003AE04FF4C76137E040F2396134E040F237
:103BE0003A6131E040F23B612EE040F23C612BE073
:103BF00040F23D6128E040F23E6125E040F23F6145
:103C000022E04FF4C8611FE040F241611CE040F245
:103C1000426119E040F2436116E040F2446113E072
:103C200040F2456110E040F246610DE040F247612C
:103C30000AE04FF4C96107E040F2496104E040F254
:103C40004A6101E040F24B610122FEF70ABD704774
:103C5000013908B5172959D8DFE801F00C0F121502
:103C6000181B1E2124272A2D303336393C3F42456C
:103C7000484B4E5140F24C6143E040F24D6140E010
:103C800040F24E613DE040F24F613AE04FF4CA61CC
:103C900037E040F2516134E040F2526131E040F2ED
:103CA00053612EE040F254612BE040F2556128E070
:103CB00040F2566125E040F2576122E04FF4CB61BB
:103CC0001FE040F259611CE040F25A6119E040F2F5
:103CD0005B6116E040F25C6113E040F25D6110E070
:103CE00040F25E610DE040F25F610AE04FF4CC61AA
:103CF00007E040F2616104E040F2626101E040F2FD
:103D000063610122FEF79EFC012008BD002008BD72
:103D10000139172957D8DFE801F00C0F1215181BCD
:103D20001E2124272A2D303336393C3F4245484B4B
:103D30004E5140F24C6143E040F24D6140E040F2B0
:103D40004E613DE040F24F613AE04FF4CA6137E026
:103D500040F2516134E040F2526131E040F253618F
:103D60002EE040F254612BE040F2556128E040F231
:103D7000566125E040F2576122E04FF4CB611FE02D
:103D800040F259611CE040F25A6119E040F25B6177
:103D900016E040F25C6113E040F25D6110E040F239
:103DA0005E610DE040F25F610AE04FF4CC6107E034
:103DB00040F2616104E040F2626101E040F263615F
:103DC0000122FEF74EBC7047653908B51F2975D82A
:103DD000DFE801F0101316191C1F2225282B2E31A5
:103DE00034373A3D404346494C4F5255585B5E612B
:103DF00064676A6D40F27C615BE040F27D6158E08F
:103E000040F27E6155E040F27F6152E04FF4D061B4
:103E10004FE040F281614CE040F2826149E040F2C3
:103E2000836146E040F2846143E040F2856140E016
:103E300040F286613DE040F287613AE04FF4D161A3
:103E400037E040F2896134E040F28A6131E040F2CB
:103E50008B612EE040F28C612BE040F28D6128E016
:103E600040F28E6125E040F28F6122E04FF4D26192
:103E70001FE040F291611CE040F2926119E040F2D3
:103E8000936116E040F2946113E040F2956110E016
:103E900040F296610DE040F297610AE04FF4D36181
:103EA00007E040F2996104E040F29A6101E040F2DB
:103EB0009B610122FEF7C6FB012008BD002008BD62
:103EC00065391F2973D8DFE801F0101316191C1F7C
:103ED0002225282B2E3134373A3D404346494C4F5A
:103EE0005255585B5E6164676A6D40F27C615BE0CD
:103EF00040F27D6158E040F27E6155E040F27F6122
:103F000052E04FF4D0614FE040F281614CE040F26A
:103F1000826149E040F2836146E040F2846143E01F
:103F200040F2856140E040F286613DE040F2876109
:103F30003AE04FF4D16137E040F2896134E040F279
:103F40008A6131E040F28B612EE040F28C612BE01F
:103F500040F28D6128E040F28E6125E040F28F61F1
:103F600022E04FF4D2611FE040F291611CE040F288
:103F7000926119E040F2936116E040F2946113E01F
:103F800040F2956110E040F296610DE040F29761D9
:103F90000AE04FF4D36107E040F2996104E040F297
:103FA0009A6101E040F29B610122FEF75ABB704723
:103FB000013908B5032913D8DFE801F00205080B21
:103FC00040F29C6107E040F29D6104E040F29E6196
:103FD00001E040F29F610122FEF734FB012008BDA1
:103FE000002008BD0139032911D8DFE801F00205DE
:103FF000080B40F29C6107E040F29D6104E040F252
:104000009E6101E040F29F610122FEF72ABB7047EA
:1040100008B50846114604F045F8002008BDFFFF2A
:1040200010B5044612480CF0BFF96379642B1ED911
:10403000A37903F00F03012B04D1E11D0D4810F00B
:10404000EBFC0DE0022B02D10CF0B4F903E0032BE2
:1040500006D10CF0B3F90246E11D06480CF0B2F9A6
:10406000044800214122BDE8104023F055BC10BD9A
:10407000A58000007895FF1F034B044819780122A2
:10408000C901134602F09CBFFC91FF1F6896FF1FF9
:1040900038B5254B1B78032B05460C461CD006D89B
:1040A000012B10D0022B39D10CF084F916E0662BCD
:1040B0001FD0672B28D0042B30D108462A461B4935
:1040C00008F050FC1EE00846184A294610F0B2FCE1
:1040D000003018BF012038BD0CF070F903461349B9
:1040E000284622460CF0AAF9D0F1010038BF002082
:1040F00038BD0CF05FF90D490346224628460CF006
:1041000025FA08B1002038BD0CF058F907490346DC
:10411000224628460CF01AFA0028F3D1044803F08E
:1041200019F9012038BD00BFFC91FF1FAC92FF1FA1
:10413000A88602002DE9F04F91B0DFF8E481734DBD
:1041400098F8003092466A46A2EBC3128B460021D3
:1041500004AF0646954628460A460FF0DCFB07F1F9
:104160000C000DF096FF07F118000DF092FF07F11B
:1041700024000DF08EFF98F8003005F11400DB01EB
:104180004FF001116B600DF0F7FF0DF110090446BF
:1041900000286CD15E4B98F800207B60194605F131
:1041A0002C0092010EF043F87B68044600285ED193
:1041B00098F80020920105F1380099180EF037F8B0
:1041C0000446002853D105F1080005F12C0105F142
:1041D00038020EF004FB0446002848D107F10C0019
:1041E00005F12C0101220EF0E4FA044600283ED12C
:1041F00007F1180005F1380101220EF0DAFA044641
:10420000A8BB07F1240007F10C0107F118020EF01A
:10421000E6FA044658BB05F1200005F1140107F148
:1042200024020FF011F8044608BB05F1440005F123
:10423000200107F10C020EF00FFD0446B8B905F19C
:10424000500005F1200107F118020EF005FD0446AB
:1042500068B905F15C00A0F12401A0F130020EF074
:10426000F3FF044618B928460FF08EFB044607F109
:104270000C000DF015FF07F118000DF011FF07F10C
:1042800024000DF00DFF0CB1224836E098F8003004
:1042900080226FF0090112FB0311B142DCBF6FF005
:1042A0000A0612FB0366202E0CD003DC1C2E0BD159
:1042B00005230AE0302E03D0402E05D1082304E068
:1042C000072302E0062300E000238DE84808124996
:1042D000CDF80C90012300220C480FF0D5FE98F881
:1042E000002004464946D201504616F067FB0748B5
:1042F0000FF098FF204624B1084803F02BF84FF048
:10430000FF303437BD46BDE8F08F00BFCC94FF1FAF
:10431000CC92FF1FC1860200114000002B870200D3
:10432000FC91FF1F2DE9F04F95B0454B19784FF0E8
:10433000FF3202EBC11202F1010A083222F0070239
:1043400002AFE846ADEB020D3E4A117802AC9B4647
:1043500021B90A4605F040FBF8226AE0042967D13A
:10436000394E3A4D33681C2BB1460FD023F0100262
:10437000202A0BD0402B09D0354802F0EBFF01205A
:1043800003F09EF90021316028684CE0314E31780D
:10439000727800932868304B05F07CFB2F4B2D681A
:1043A00024221A702946D9F800207B6007F1080002
:1043B00016F004FB284600214FF4806223F0ACFA8B
:1043C0002246D9F80000264D07F10801FFF7B2FE9A
:1043D0007B680246A0B9F6211970B3789BF80010EB
:1043E0002B70012B20464FEAC11103D11A4602F06F
:1043F000E7FD0AE0134602F0E3FD03F049FA04E0AA
:10440000002218481A7002F0A5FF552003F058F951
:1044100020460021524623F07FFA2B78012B0AD048
:10442000114B186800214FF4806223F075FA02E006
:1044300023220A4B1A704C37C546BD46BDE8F08FA3
:10444000FC91FF1F00BAFF1F4CBAFF1FB88CFF1F63
:10445000E5860200999BFF1F1091FF1FD5B9FF1F32
:10446000D8B9FF1F0E870200A88CFF1F2DE9F0436B
:104470004E4C4F4D884600218FB08146174620464E
:104480000A460FF048FA05A80DF003FE08A80DF043
:1044900000FE0BA80DF0FDFD2B7804F11400DB01EC
:1044A0004FF0011163600DF067FE00284FD1414EBF
:1044B0002A7804F12C00314692010DF0B8FE002854
:1044C00045D12A78920104F13800B1180DF0AFFE01
:1044D00000283CD104F1080004F12C0104F1380259
:1044E0000EF07DF998BB05A804F12C0101220EF015
:1044F00060F960BB08A804F1380101220EF059F9F7
:1045000028BB0BA805A908AA0EF069F9F8B904F1AF
:10451000200004F114010BAA0EF096FEB8B904F1C4
:10452000440004F1200105AA0EF096FB78B904F1CD
:10453000500004F1200108AA0EF08EFB38B904F1F6
:104540005C00A0F12401A0F130020EF07DFE05A870
:104550000DF0A6FD08A80DF0A3FD0BA80DF0A0FD21
:1045600012480FF011FA044668B1134802F0F2FE47
:104570000E480FF057FE2046ACB1104802F0EAFE9C
:104580004FF0FF300FE04FF40073039321462246B3
:10459000CDF80090CDF804800297044801230FF075
:1045A000F7FC0446E4E70FB0BDE8F0830092FF1F7C
:1045B000FC91FF1FCC92FF1FC186020025870200DD
:1045C0002DE9F04F85B03E4B02AF197800247C6096
:1045D00021B90A4605F000FAF9226AE0042967D1F8
:1045E000384DDFF800B12B689BF80020364EB3EB56
:1045F000C21FEA4609D0354802F0ACFE012003F0A4
:104600005FF82C60306821464CE0DFF8DC80DFF892
:10461000D09098F8001098F80120009330682C4B47
:1046200005F038FA242389F800309BF8003036680A
:10463000AAEBC31295460DF1080B31462A68254DA9
:10464000584616F0BBF9304621464FF4806223F0FD
:1046500063F92A68204E381D5946FFF707FF0246C6
:1046600098B9F62389F8003098F802303370012B9E
:104670002868796803D11A4602F0A2FC0AE01346C2
:1046800002F09EFC03F004F904E0144889F80040AD
:1046900002F060FE552003F013F83378012B05D0AB
:1046A000286800214FF4806223F036F9D54602E0F5
:1046B00023220B4B1A700C37BD46BDE8F08F00BFAC
:1046C00000BAFF1F4CBAFF1FB88CFF1F54870200AF
:1046D0001091FF1FA88CFF1FD8B9FF1F8087020011
:1046E000D5B9FF1FFC91FF1F999BFF1FF0B58BB041
:1046F000064601A80DF0CDFC36B204A8184F0DF007
:10470000C8FCB50107A80DF0C4FC01A839462A462B
:104710000DF08DFD044698B904A879192A460DF0CC
:1047200086FD044660B907A801A904AA0EF057F84F
:10473000044628B907A80B49F2010DF0B2FD044662
:1047400001A80DF0ADFC04A80DF0AAFC07A80DF01F
:10475000A7FC14B1044802F0FDFD0BB0F0BD00BF92
:10476000CC92FF1F6896FF1F9A8702002DE9F04345
:10477000474C484D884600218FB081461746204659
:104780000A460FF0C8F805A80DF083FC08A80DF044
:1047900080FC0BA80DF07DFC2B7804F11400DB01EC
:1047A0004FF0011163600DF0E7FC00284FD13A4E45
:1047B0002A7804F12C00314692010DF038FD0028D2
:1047C00045D12A78920104F13800B1180DF02FFD7F
:1047D00000283CD104F1080004F12C0104F1380256
:1047E0000DF0FDFF98BB05A804F12C0101220DF08E
:1047F000E0FF60BB08A804F1380101220DF0D9FFE9
:1048000028BB0BA805A908AA0DF0E9FFF8B904F127
:10481000200004F114010BAA0EF016FDB8B904F142
:10482000440004F1200105AA0EF016FA78B904F14B
:10483000500004F1200108AA0EF00EFA38B904F174
:104840005C00A0F12401A0F130020EF0FDFC05A8EF
:104850000DF026FC08A80DF023FC0BA80DF020FCA1
:104860000B480FF065F8024670B90C49CDF800907E
:104870001346CDF80480029705480FF013FB044659
:1048800003480FF0CFFC20460FB0BDE8F08300BF17
:10489000BC95FF1FFC91FF1FCC92FF1F1140000031
:1048A000F0B50025ECB20B1B0444DBB2E4B29C4231
:1048B00005F1010504D2165DD75C1755D654F1E712
:1048C000F0BDFFFF08B517480021412223F024F86E
:1048D000154B1B78012B05D112481449BDE808403F
:1048E00009F058BF022B02D10BF064FD03E0032B4B
:1048F00008D10BF063FD02460A490C48BDE80840A8
:104900000BF063BE042B0BD100201F21074AFFF7D9
:10491000C7FF044805490022BDE8084008F022B856
:1049200008BD00BF7895FF1FFC91FF1FAC92FF1FD1
:1049300038B5144D0446407905F0F6F82B78012B74
:1049400005D1A379042B02D12B70FFF7BBFF2B7885
:10495000042B04D0012B14BF4021202100E0202192
:1049600001221346084802F02BFB00214022064892
:1049700022F0D2FF054800212022BDE8384022F075
:10498000CBBF00BFFC91FF1F7895FF1FAC92FF1FAC
:1049900038B505462C4608F0EDFA044B44F8783B50
:1049A000204609F06BFC6C60284638BD408602004A
:1049B0002DE9F04FADF5097D02AF044607F1A000E7
:1049C0009A468846164609F0F9F907F1A00009F061
:1049D0009FF9073020F00700ADEB000D07F1A000B4
:1049E00009F096F907F58C79FF22BAFBF0FB00215C
:1049F000484622F091FF02AD0022954B13441B79EB
:104A0000022B19D107F130007A60FCF7ADFF07F1F6
:104A1000300049467A68FCF7D1FF07F1300049467B
:104A2000FCF7EDFF74B9214607F11000212222F0B6
:104A300073FF07F1100405E0FF2AE3D009F8023004
:104A40000132DAE7214607F1A000212209F035FB07
:104A50004146202207F1A00009F09EFA07F1A000CC
:104A600009F056F92146212200902B4607F1A000BB
:104A700009F03CFB07F1A00009F04AF900F121031D
:104A800000F12008283020F00700ADEB000D02AC4B
:104A9000FB60012304F8083007F1A00009F038F9A1
:104AA00007F59C7E22184B4603CB7345106051607E
:104AB000994602F10802F6D107F1A00009F028F9A1
:104AC0002946024607F1A00009F0F7FA07F1A00015
:104AD00009F01EF92122211807F1A00009F05CFA63
:104AE00007F1A00009F014F9814607F1A00009F0D0
:104AF0000FF94A4629460090334607F1A00009F015
:104B0000F5FA14F80830013304F8083007F1A00072
:104B100009F0FEF831460246204615F04FFF4FF0EF
:104B20000109D94507F1A0003EDA09F0F1F829465C
:104B3000024607F1A00009F0C0FA2146FA6807F121
:104B4000A00009F029FA07F1A00009F0E1F80246F7
:104B500007F1A0007A6009F0DBF809FB006307F1B8
:104B6000A000BB6009F0D4F800907A68BB682946C1
:104B700007F1A00009F0BAFA14F80830013304F87C
:104B8000083007F1A00009F0C3F809FB006107F144
:104B9000A000B96009F0BCF8B9680246204615F0DB
:104BA0000DFF09F10109BCE709F0B2F8BAFBF0F317
:104BB00003FB10A000283DD007F1A00009F0A8F8E1
:104BC000073020F00700E946ADEB000D07F1A0002B
:104BD00009F09EF80BFB10AA07F1A00009F098F865
:104BE0002946024607F1A00009F067FA2146FA6853
:104BF00007F1A00009F0D0F907F1A00009F088F84A
:104C0000044607F1A00009F083F80DF108080090B0
:104C100029462246434607F1A00009F067FA07F14A
:104C2000A00009F075F841460BFB0060524615F0F4
:104C3000C5FECD4607F1A00009F09AF807F1A000E3
:104C400009F0A2F807F50777BD46BDE8F08F00BF71
:104C50001C9CFF1F70B506469CB00D461446CAB991
:104C6000842004F061FF21464122134822F054FEC3
:104C70006846FCF779FE684610492022FCF79EFE44
:104C8000684629462022FCF799FE68460B49FCF746
:104C9000B6FE0AE0802A08D1104604F045FF074915
:104CA00028460A462023FFF783FE054B1E70FFF7B8
:104CB00009FE1CB070BD00BF7895FF1FAC92FF1FAE
:104CC000FC91FF1F10B504464079042809D8A37948
:104CD0004BB904F07DFFF8B12046BDE81040FFF766
:104CE000CBB9742807D804F01FFFA8B12046BDE84F
:104CF0001040FFF71DBE84280ED1A07904280BD8E0
:104D0000E11D0022FFF7A6FF0022044840211346C0
:104D1000BDE8104002F054B910BD00BF7895FF1FE8
:104D20002DE9F043654C664E664D23683178727804
:104D3000F1B0074600932868634B04F0ABFE4EA821
:104D40000021882222F0E8FD604B4E93604B4F9388
:104D5000604B509378794023519320235293C82875
:104D60002EAB5393B04632D9C92804D121682B68A1
:104D70002039012005E0CA2806D121682B68203996
:104D80000220194400221CE0CB2804D121682B68A2
:104D900020390320F5E7D32804D121682B68203976
:104DA00001200CE0D42804D121682B68203902208E
:104DB00005E0D52807D121682B6820390320194444
:104DC0008022FFF747FF2368203B236005E0A0F126
:104DD00065030F2B6ED804F0A7FE2268DFF8DC9085
:104DE0003D4F202A12AE01D0402A04D102A82968E2
:104DF00015F0E4FD12E03046FCF7B6FD30462968B8
:104E0000D9F80020FCF7DAFD304602A9FCF7F7FDDF
:104E10003B78012B1CBF2023C9F800302F4A2423E4
:104E200013703B78012B174608D123680093304656
:104E30002B492C4A2B6809F029FC10E0022B02D1E7
:104E40000BF0B8FA03E0032B09D10BF0B7FA01908D
:104E500000962348226802A94EAB0BF0F6FBF6231E
:104E600098F802203B70204B012A1A7030464FF010
:104E7000400103D1134602F0A3F805E001221346D6
:104E800002F09EF802F004FD552002F019FC28689B
:104E900000214FF4806222F03FFD002141221148A1
:104EA00022F03AFD0E480021202271B0BDE8F04307
:104EB00022F032BD71B0BDE8F08300BF4CBAFF1FD5
:104EC000999BFF1FB88CFF1F1091FF1F3D5F0100D2
:104ED000435F0100495F0100FC91FF1FD5B9FF1F2F
:104EE000AC92FF1F7895FF1FD8B9FF1F08B5094B7B
:104EF000197821B90A4604F06FFDF82206E004296A
:104F000003D1BDE80840FFF70BBF2322024B1A7004
:104F100008BD00BF00BAFF1FD5B9FF1F10B504467A
:104F20001A480BF041FA607964280DD804F050FE5D
:104F3000174B1B780BB9174819E0420616D52046C7
:104F4000BDE81040FFF7EEB900F13702D2B2032AF4
:104F500014D9A0F165020F2A15D804F0E5FDC0B2FE
:104F60000B4B1B78002BE6D0430607D40A4802F00F
:104F7000F1F90020BDE8104002F0A2BB2046BDE8D8
:104F80001040FFF7B3BF0020EAE700BFA580000094
:104F9000FC91FF1FB8870200D68702002DE9F0417F
:104FA00094B00446002103A8412222F0B5FC5B4BDB
:104FB0001E7846B932462046314604F00DFD584B66
:104FC000F9221A70A7E0042E40F0A580DFF8708166
:104FD000544F554DD8F8003039787A7828680093C6
:104FE000524B04F057FD6079C928444632D9CA288B
:104FF00004D121682B682039022005E0CB2806D196
:1050000021682B6820390320194400221CE0CC2899
:1050100004D121682B6820393046F5E7D42804D123
:1050200021682B68203902200CE0D52804D12168A2
:105030002B682039032005E0D62807D121682B688A
:105040002039304619448022FFF704FE2368203BB4
:10505000236005E0A0F165020F2A5CD804F064FD2E
:10506000334B1A78911E01299CBF64321A701B7849
:10507000012B06D12E4B04221A702026FFF722FCAA
:1050800000E040262268212A01D0412A05D1296862
:105090002848013A2260013105E0202A01D0402A47
:1050A00003D12448296815F089FC1D4A2323137075
:1050B0002368402B144601D0202B03D11D4803A99F
:1050C000FEF7E6FFF623BA7823701B4B012A1A700D
:1050D00003A8314603D1134601F072FF05E0012217
:1050E000134601F06DFF02F0D3FB552002F0E8FA01
:1050F000286800214FF4806222F00EFC002141223A
:105100000C4822F009FC0D480021202214B0BDE813
:10511000F04122F001BC14B0BDE8F08100BAFF1FDD
:10512000D5B9FF1F999BFF1FB88CFF1F1091FF1F60
:10513000FC91FF1F7895FF1FD8B9FF1FAC92FF1F8E
:105140004CBAFF1F10B504461A480BF02DF96079D0
:1051500064280DD804F03CFD174B1B780BB9174899
:1051600019E0820616D52046BDE81040FFF728BAA0
:1051700000F13702D2B2032A14D9A0F165020F2A36
:1051800015D804F0D1FCC0B20B4B1B78002BE6D035
:10519000830607D40A4802F0DDF80020BDE810407D
:1051A00002F08EBA2046BDE81040FFF7F7BE00209F
:1051B000EAE700BFA5800000FC91FF1FB88702004E
:1051C000F9870200F0B55D4B5D4E1B7896F84050B4
:1051D000042B89B0344640F0AF80304603F010F81D
:1051E000074660B939460922564822F095FB3046F9
:1051F0003946502209B0BDE8F04022F08DBB524B39
:105200000022382D1A701E4601D1812002E0302D77
:1052100003D1822004F088FC06E06B1E172B03D814
:105220004A48294604F042FC494B1B7853B9EA1816
:105230000DF803200133202BF9D1002069460246E6
:10524000FFF708FD94F839200323202A33703C4BE4
:1052500017D193F83A20202A13D193F83B20202A23
:105260000FD193F83C20202A0BD193F83D20202A1F
:1052700007D193F83E20202A03D193F83F60202ED7
:1052800007D03F22A35C13B9013A0E2AFAD10132AA
:10529000D6B2304D2D4928461422FDF7B0F82B68C0
:1052A00027495B683246284698472846FDF7E4F8C8
:1052B0006A46034600F1100618685968154603C58A
:1052C0000833B3422A46F7D118682860202200210B
:1052D0001E4822F021FB142168460BF0DDFABDF8D0
:1052E0000420A28008AA054652F8191D00989DF8CE
:1052F000063020601848A160A37191889279C0237C
:10530000E3718271C1228180E27308AA103052F8E1
:10531000121D2161928820F8042CC222E27500211E
:10532000382222F0F9FAE84380B2C323A075E3776C
:1053300000124B232076237709B0F0BD00BAFF1F7F
:105340006DBBFF1F5DBAFF1FD8B9FF1FAC92FF1FD7
:10535000FC91FF1F3091FF1F75BBFF1F10B5054B60
:10536000044640F82C3B08F0F7FE204609F034FBD9
:10537000204610BD808602002DE9F041CAB00546E6
:105380000BAC68460E4690461F4609F057FB0F4B84
:105390000093204608F072FF6846019409F039FB3B
:1053A00041466846202209F0EFFA3146684610224D
:1053B00009F0FDFA684629462A463B4609F08EFA6E
:1053C0006846FFF7CBFF4AB0BDE8F0818086020057
:1053D0002DE9F041CAB005460BAC68460E46904632
:1053E0001F4609F02BFB0F4B0093204608F046FFA9
:1053F0006846019409F00DFB41466846202209F0F9
:10540000C3FA31466846102209F0D1FA68462946A7
:105410002A463B4609F08DFA6846FFF79FFF4AB0DF
:10542000BDE8F0818086020010B50446FFF796FFC4
:10543000204620F0B5FB204610BDFFFF10B5054B00
:10544000044640F8783B08F087FE204607F010FD40
:10545000204610BD408602002DE9F041ADF5227DC9
:1054600007460C4644A898461546FFF791FA8DF872
:10547000004001AC0C2120468DF8015000F09DFA4F
:105480000CA8FCF771FA244E0CA821460C22FCF75C
:1054900095FA0CA869460222FCF790FA04AD0CA814
:1054A00031462022FCF78AFA0CA82946FCF7A7FA15
:1054B00095E8070084E8070028A8FCF755FA28A813
:1054C00041461022FCF77AFA28A869460222FCF726
:1054D00075FA202228A83146FCF770FA294628A838
:1054E000FCF78DFA44A807F021FC294644A82022A5
:1054F00007F02FFC214644A80C2207F0B7FB44A874
:1055000039463A46A89B07F04BFB44A8FFF796FFA5
:105510000DF5227DBDE8F0816090FF1F2DE9F0417F
:10552000ADF5227D07460C4644A898461546FFF780
:105530002FFA8DF8004001AC0C2120468DF8015067
:1055400000F03BFA0CA8FCF70FFA244E0CA82146F9
:105550000C22FCF733FA0CA869460222FCF72EFA5B
:1055600004AD0CA831462022FCF728FA0CA82946E5
:10557000FCF745FA95E8070084E8070028A8FCF73F
:10558000F3F928A841461022FCF718FA28A8694622
:105590000222FCF713FA202228A83146FCF70EFA63
:1055A000294628A8FCF72BFA44A807F0BFFB294698
:1055B00044A8202207F0CDFB214644A80C2207F086
:1055C00055FB44A839463A46A89B07F06EFC44A810
:1055D000FFF734FF0DF5227DBDE8F0816090FF1FDD
:1055E000F0B5DFB0044668461E460D461746FFF785
:1055F000CFF9684607F09AFB39466846202207F043
:10560000A8FB294668460C2207F030FB6846214675
:105610002246334607F0C4FA6846FFF70FFF5FB033
:10562000F0BDF0B5DFB0044668461E460D4617468D
:10563000FFF7AEF9684607F079FB39466846202245
:1056400007F087FB294668460C2207F00FFB6846E7
:1056500021462246334607F028FC6846FFF7EEFE57
:105660005FB0F0BD7FB505460C46164600210C2202
:1056700001A822F051F9284601A9054A234616B18E
:10568000FFF7CFFF01E0FFF7ABFF04B070BD00BF35
:10569000EEDEFF1F10B50446FFF7D0FE204620F0D7
:1056A0007FFA204610BDFFFF10B5064C0649204684
:1056B000FCF74CFA20460549FCF748FA044B002059
:1056C000187010BD8490FF1F30BBFF1F4CBBFF1F25
:1056D00055BAFF1F38B5434B434C1D78012D12D1ED
:1056E00000210A46207809F051FC002102463F487B
:1056F00009F030FC00210A46207809F047FC2946D1
:1057000002463A4858E02B2D0FD820784008014631
:10571000002209F03BFC00210246344809F01AFC43
:10572000207840080146002241E0552D0CD8002089
:105730002178024609F02AFC002102462B4809F094
:1057400009FC0020217831E0802D0FD8217849080C
:105750000A46002009F01AFC00210246234809F0FD
:10576000F9FB2178490800200A4620E0AA2D0DD82F
:1057700000200146227809F009FC002102461B485E
:1057800009F0E8FB00200146227810E0D52D15D85D
:10579000207840080021024609F0F8FB002102466B
:1057A000124809F0D7FB207800214008024609F092
:1057B000EDFB02460D48012109F0CCFB0B4809F036
:1057C0002FFB23780833DBB223704BB90848094913
:1057D000FCF7BCF906480849BDE83840FCF7E7B9D2
:1057E00038BD00BFD6B9FF1FF0BAFF1FDCBAFF1FDC
:1057F0008490FF1F30BBFF1F4CBBFF1F13B542241B
:1058000020461FF0C9FD02AB23440134462C03F8A7
:10581000460CF5D1019802B010BD37B54224019075
:1058200002AB2344204613F8465C1FF0B5FD8542C9
:1058300003D0204629461FF0C3FD0134462CEFD18A
:1058400003B030BD034B002118604022024822F013
:1058500063B800BFD8B9FF1F9E9BFF1F70B50446F9
:1058600014F8010BC0B1FF28FAD00E4E1FF050FB08
:105870003378032513FB03F393FBF5F0A84016F0F0
:1058800077F81FF091FB337813FB03F393FBF5F0EC
:10589000A84016F06DF8E3E70348BDE8704020F03B
:1058A0006FB900BFA48CFF1FF8E4FF1F10B542249E
:1058B0002046002101341FF083FDB4F5006FF7D1BD
:1058C00010BD10B54FF46A342046002104F5006481
:1058D00006F0F2FAB4F57E3FF6D110BD30B50023E4
:1058E000D41E9C420DDDCC58240EC454CD58C4188F
:1058F0002D0C6570CD582D0AA570CD58E570043378
:10590000EEE730BDF7B50F461646C41C0025F31E62
:10591000AB4207EB050004F1040416DD14F8062C75
:1059200014F8053C120442EA032214F8043C1A431A
:1059300014F8073C02A942EA036241F8042D002250
:10594000134606F089FA0435E1E703B0F0BD30B53F
:105950000D46ADF6040D04464FF4723168464FF41F
:105960000062013DFFF7BAFF2D01002300AA2A447F
:10597000E15CD1540133102BF8D1237823B14FF4DB
:105980007230002106F098FA68464FF472314FF4F5
:105990000062FFF7B7FF0DF6040D30BD70B5054688
:1059A0000C4616460846002106F086FA284621468F
:1059B0003246BDE87040FFF7A5BF10B50A464FF468
:1059C0006C310446FFF78AFF00231846E15C01337F
:1059D000202B0844FAD1B0F5FF5018BF012010BDAC
:1059E00030B5154BC1B0012205461A704FF46C3129
:1059F000FE226846FFF772FF104A2B4605F1200190
:105A000053F8040B42F8040B8B42F9D100242B5DB0
:105A10000DF804300134202CF9D168464FF46C3174
:105A2000FE22FFF7BBFF28464FF46C312246FFF7FA
:105A300055FF41B030BD00BF5CBAFF1F9090FF1F03
:105A400010B5044608492022FFF748FF2378FF2BB2
:105A500007D16378FF2B04D1A078FF3818BF01204D
:105A600010BD012010BD00BF20B0030010B50446DA
:105A700008492022FFF732FF2378FF2B07D16378F4
:105A8000FF2B04D1A078FF3818BF012010BD0120E2
:105A900010BD00BF40B0030030B5C1B005464FF4A3
:105AA0006C316846FE22FFF719FF002400AB234447
:105AB0002A5D83F840200134202CF7D168464FF44A
:105AC0006C31FE22FFF76AFF28464FF46C31224604
:105AD000FFF704FF41B030BD10B50446084920224D
