:1000000000800020BD01000031A20200FDA102001D
:10001000FDA10200FDA10200FDA10200FDA1020060
:10002000FDA10200FDA10200FDA1020031A202001B
:1000300031A20200FDA1020031A20200EDA10200E6
:1000400031A2020031A2020031A2020031A202005C
:1000500031A2020031A2020031A2020031A202004C
:1000600031A2020031A2020031A2020031A202003C
:1000700031A2020031A2020031A2020031A202002C
:1000800031A2020031A2020031A2020031A202001C
:1000900031A2020031A2020031A2020031A202000C
:1000A00031A2020031A2020031A2020031A20200FC
:1000B00031A2020031A2020031A2020031A20200EC
:1000C00031A2020031A2020031A2020031A20200DC
:1000D00031A2020031A2020031A2020031A20200CC
:1000E00031A2020031A2020031A2020031A20200BC
:1000F00031A2020081C4020031A20200F5BE02005A
:1001000031A20200B1B9020031A2020031A2020004
:1001100031A2020031A2020031A2020031A202008B
:1001200031A2020031A2020031A2020031A202007B
:1001300031A2020031A2020031A2020031A202006B
:1001400031A2020031A2020031A2020031A202005B
:1001500031A2020031A2020031A2020031A202004B
:1001600031A202001506020031A2020031A20200F3
:1001700031A2020031A2020031A2020031A202002B
:1001800031A2020031A2020031A2020031A202001B
:1001900031A2020031A2020031A2020031A202000B
:1001A00031A2020031A2020031A2020031A20200FB
:1001B00031A2020031A2020031A20200564B4CF2E1
:1001C000205210B51A804DF628121A8000BF00BFC9
:1001D0002AF032F8514B4FF010621A60504A9A6080
:1001E000504ADA60A3F53043203B1A6812F480725B
:1001F00004D14D490A604FF4A8521A604B4B1A784B
:10020000110703D51A7842F008021A70484B2A22C7
:100210001A700023474A48499818884204D247492F
:10022000595899500433F5E7454A464B9A424FF0E6
:10023000000302D242F8043BF7E74349434A5958C6
:1002400099500433B3F5DE7FF7D1414B802103F899
:10025000011B40498B42F9D13F4B1A603F4B0A22A8
:100260001A70A3F5805324225A70A0221A709A792A
:100270009207FCD59A79D406FCD4394B9A7902F0CE
:100280000C02082AF9D105221A7143225A719A796F
:100290009006FCD5324B9A795106FBD5314A4FF086
:1002A000817111600521516020221A702C4B9B79BD
:1002B00003F00C030C2BF9D12B4B2C4A1A602C4B5E
:1002C0002C4A1A6000225A60072243F8042C2A4A5A
:1002D000C3F80C2D62B620F091FF134B1B68DA07B0
:1002E00005D5264820F016FE254B264A1A60264BD7
:1002F0001B785B0609D5224C224A2368934204D11D
:100300001E4820F007FE002323602DF08BFD29F00E
:1003100099FF2BF053F8FEE70E2005403080044093
:10032000823F04000100002B14D0034002D007409C
:1003300000E00740708CFF1FEC8EFF1F746003000D
:10034000F08EFF1FDCE6FF1F000000000082FF1F91
:1003500000E400E05FE400E008ED00E0005006404B
:10036000004006404480044004800440C010050062
:1003700014E000E03F19010000002020A1BAA96AA2
:100380001CE00340A5C3945A00F00740FFFFFFFFA5
:10039000FFFFFFFFFFFFFFFFFFFFFFFFFFFFFFFF6D
:1003A000FFFFFFFFFFFFFFFFFFFFFFFFFFFFFFFF5D
:1003B000FFFFFFFFFFFFFFFFFFFFFFFFFFFFFFFF4D
:1003C000FFFFFFFFFFFFFFFFFFFFFFFFFFFFFFFF3D
:1003D000FFFFFFFFFFFFFFFFFFFFFFFFFFFFFFFF2D
:1003E000FFFFFFFFFFFFFFFFFFFFFFFFFFFFFFFF1D
:1003F000FFFFFFFFFFFFFFFFFFFFFFFFFFFFFFFF0D
:10040000FFFFFFFFFFFFFFFFFFFFFFFFFEFFFFFFFD
:1004100010B5054C237833B9044B13B10448AFF33E
:1004200000800123237010BDF08EFF1F000000002C
:100430007460030008B5064B1BB106480649AFF3CC
:1004400000800648036813B1054B03B1984708BD07
:100450000000000074600300F48EFF1FEC8EFF1F8D
:100460000000000038B5044608460D462DF0ECFFAC
:10047000236802465B6820462946984738BD08B580
:10048000FFF7F0FF08BD0A2200232AF0CEBF38B5DF
:100490000446FFF7E7FF054620462AF0A9FF284457
:1004A00038BD38B50446FFF7EEFF054620462AF072
:1004B0009FFF284438BD38B504462AF0EEFF0546B4
:1004C00020462AF095FF284438BD4FF0FF30704792
:1004D00008B5C82020F07CFE074A00231370537033
:1004E0009370D37013715371044A1370044A1370DC
:1004F000BDE808402AF0AEB8CCE4FF1FD2E4FF1FED
:10050000D3E4FF1FF8B51A4B1A481B4E1B4F0025AA
:100510001D701B4B01241C7001F098FE194B1A48EA
:100520001C60202229462DF0DDFC082333702AF0C0
:1005300091F80F233B702AF08DF8FFF7C9FF347054
:100540002AF088F8092333702AF084F814233B70CA
:100550002AF080F84FF4FA7020F03AFE0B4B1D7031
:100560002AF078F8FFF7B4FF094B0A4A1A60F8BD81
:10057000A5BAFF1F04BBFF1FD2E4FF1FCCE4FF1F7F
:10058000808CFF1F848CFF1F1091FF1FD3E4FF1F7F
:100590000CED00E00400FA052DE9F04F9F4C9FB0F0
:1005A000002305460DF10F00237002F069FD9C4BFE
:1005B0001B7823B99DF80F3003F00F0305E0012BE2
:1005C00008D19DF80F301B090C339D4202D1FFF773
:1005D00099FF22E329460DF10E0003F023FD914916
:1005E0009148FFF754FF90489DF80E10FFF759FF10
:1005F0009DF80E80C8F3C0038DF80E308B4B1E782B
:10060000002E40F00A838A498748DFF86092FFF79E
:1006100036FF884B844819683039FFF74CFF314664
:1006200040220EA82DF05EFC3146FB2248462DF0FC
:1006300059FC0EA8294606F0B3FC071E41DD7E4991
:100640007948FFF724FF7D497748FFF718FF3946BF
:100650007548FFF730FF7A497348FFF718FF0EA877
:10066000394606F003FA774B00970EA8E9B20F223D
:100670000BF0C6F99DF83830082B0AD1013F0DF177
:10068000390049463A4623780DF05CFF0126277071
:1006900017E00EA849463A4623780DF053FFFBB207
:1006A000022209F8032068495F487B1C2370FFF78A
:1006B000EEFE0EA8394606F0D9F95B486349FFF70C
:1006C000E6FE002140220EA82DF00CFC0EA82946C3
:1006D00003F034FD9DF83870C8F3800AFFB1002E96
:1006E00032D15B495048FFF7D2FE5A494E48FFF7D6
:1006F000C6FE9DF838104C48FFF7C5FE4A485649DB
:10070000FFF7C5FE9DF838701E2F00F28082237817
:1007100007F10A0209F803200133237078E2BAF1E5
:10072000000F13D09EB937464C493F48FFF7AFFE44
:1007300023783D484A49012209F80320FFF7A7FE24
:1007400023780133237002E0002700E057460EA80B
:10075000294606F085FFB0F1000925DD4149324800
:10076000FFF795FE40493048FFF789FE49462E487D
:10077000FFF7A1FE49460EA806F078F9CDF80090E3
:100780000EA8E9B202222F4B0BF03AF94A46237821
:1007900036490EA80DF0D6FE49460EA806F066F9B9
:1007A0002378994484F800900EA80021402208F094
:1007B00003092DF097FBDFF8B4B0B9F1000F1ED09C
:1007C000EEB9B9F1010F09D129491748FFF75FFECA
:1007D000237815480BF8039021490BE0B9F1020F7B
:1007E0000DD123491048FFF752FE23780E480BF82D
:1007F00003902049FFF74BFE23780133237000213B
:1008000040220EA82DF06EFB0EA8294603F022FD13
:100810009DF8383083BB4FF0000A4CE0348FFF1F47
:1008200038BBFF1F1D02030010E5FF1F61BAFF1F49
:10083000CA170300EC9BFF1F0AEC020024EC020025
:1008400032EC02001091FF1F3CEC020048EC020069
:1008500061EC02007FEC020086EC0200A8EC0200D2
:10086000CBEC0200CFEC0200EEEC0200508FFF1F39
:1008700001ED020023ED0200002ECCD190499148F9
:10088000FFF705FE90498F48FFF7F9FD9DF83810F6
:100890008C48FFF7F8FD8B488C49FFF7F8FD9DF871
:1008A00038A0BAF11E0FB6D823780AF10A020BF865
:1008B0000320013323700EA8294603F0E5F8B0F1B8
:1008C00000092DDD82497F48FFF7E1FD81497D4820
:1008D000FFF7D5FD49467B48FFF7EDFD7E49794896
:1008E000FFF7D5FD49460EA806F0C0F8CDF80090F8
:1008F0000EA8E9B20522794B0BF082F84A4623781C
:1009000077490EA80DF01EFE76496E48FFF7BFFD31
:1009100049460EA806F0AAF82378994484F8009076
:100920000EA800214022C8F301192DF0DBFADFF8F0
:10093000B0B1B9F1000F1AD0CEB962486A49FFF7D9
:10094000A6FDB9F1010F05D123785E480BF803909D
:10095000664907E0B9F1020F09D1237859480BF82D
:1009600003906349FFF793FD23780133237000213F
:1009700040220EA82DF0B6FA0EA8294603F0F6FC88
:100980009DF8383013B94FF000091EE0002EFAD15F
:1009900058494C48FFF77BFD4B494A48FFF76FFD2C
:1009A0009DF838104748FFF76EFD46485249FFF75B
:1009B0006EFD9DF83890B9F11E0FE4D8237809F147
:1009C0000A020BF80320013323700EA800214022F5
:1009D0002DF088FA9DF80E307BB176B94749394839
:1009E000FFF755FD23783748404901220BF80320D3
:1009F000FFF74DFD2378013323700EA8294603F03D
:100A000071FD9DF83830002B00F0CE80672B40F050
:100A100091803B492B48DFF8C8B0FFF738FD2946E5
:100A20000EA807F08DF92C4906462648FFF72FFD42
:100A300031460EA806F01AF832492248FFF71FFD8A
:100A400031462048FFF737FD00960EA8E9B209228B
:100A5000224B0AF0D5FF237832460EA859460DF0F6
:100A600071FD20491748FFF712FD31460EA805F029
:100A7000FDFF32460EA904A802F0A6F802F0AEF976
:100A800038448244D14449460E482AF006FD0D48B8
:100A90002AF0AEFC494604A802F09AF8064602F095
:100AA00013FA237880BB4E220BF803205B444F22BD
:100AB00053215A70D970542245219A70197130E02F
:100AC0002AED020010E5FF1F7FEC020048ED020056
:100AD0006AED02008AED020032EC02001091FF1F65
:100AE000508FFF1F3CEC02009DED0200CBEC02009A
:100AF00023ED0200BFED0200DDED0200FAED020081
:100B000018EE020037EE020032780BF803205B4447
:100B100072785A70B2789A70F278DA7032791A7103
:100B200072795A7123780EA806330021402223706F
:100B30002DF0D8F99DF83830394E792B0FD1394B3B
:100B40001B78022B0BD038493848FFF7A0FC2078DF
:100B5000002130440BF03EFE23782C3323709DF8A7
:100B60003830322B01D0592B11D12E4B1B78022B50
:100B70000DD02F492D48FFF78AFC2078E9B2304488
:100B80000BF028FE2378203303EB400020709DF803
:100B90003830752B08D1234B1B78022B04D02378D7
:100BA0000922F254013323705FEAD8131C4D0DD093
:100BB00020491E48FFF76BFC23781C481E49012280
:100BC000EA54FFF764FC23780133237018F0400FD8
:100BD0000DD018491548FFF75AFC237813481749D8
:100BE0000222EA54FFF753FC237801332370237861
:100BF0000E481349134C0022EA54FFF748FC14F83E
:100C0000011F51B1094803681B689847F7E7374649
:100C1000BAF1000F7FF488AD99E51FB0BDE8F08F01
:100C2000508FFF1F38BBFF1F4AEE020010E5FF1F69
:100C30006AEE020083EE0200CBEC020023ED02001C
:100C4000A0EE02004F8FFF1F044B1A78044B186868
:100C50000AB1243800E03038FFF79EBC38BBFF1FD4
:100C6000EC9BFF1F054B1A78054B18680AB1243816
:100C700000E030380630FFF78FBC00BF38BBFF1FE5
:100C8000EC9BFF1FF0B5ADF5844D9BB0054646F2D9
:100C90006004684621464FF4804205F083FF46F227
:100CA00060039C4204D1284669464FF4804210E01C
:100CB0002B460DF5804605F1400718685968324605
:100CC00003C20833BB421646F7D12846694644F2B0
:100CD0004002002316F0D8FC044B04F580449C42EB
:100CE000D7D10DF5844D1BB0F0BD00BF60A003004F
:100CF00010B5464B1B6804461878A0F13103082B49
:100D000006D84FF47A733038584320F061FA42E045
:100D100074285CD072285ED03D4B1B78002B3AD0F3
:100D20001CB129F02DFD002435E0702832D0682850
:100D300055D0752855D06F2855D0652855D06428D2
:100D400055D0622855D04C2855D0522855D055281A
:100D500055D0442855D0452855D0632804D12D4B73
:100D60001A7842F0010213E0732804D1294B1A7853
:100D700042F002020CE0612804D1264B1A7842F0BE
:100D8000040205E0672806D1224B1A7842F00802D7
:100D90001A7000E04624204B1A780AB91C7012E041
:100DA0005A780AB95C700EE09A780AB99C700AE029
:100DB000DA780AB9DC7006E01A790AB91C7102E027
:100DC0005A7902B95C71BDE8104029F043BC002C8F
:100DD000A7D12B24DFE7002CA3D12824DBE74A246A
:100DE000D9E74B24D7E74E24D5E74D24D3E74C244D
:100DF000D1E72A24CFE75024CDE74F24CBE7522474
:100E0000C9E75124C7E72924C5E700BF4C90FF1F5D
:100E100028BBFF1FD2E4FF1FCCE4FF1FF8B5574BE0
:100E20001A78574B1878574C4AB1AA2807D121682D
:100E30000B7823B1092B02D001312160F3E7524B2B
:100E400021681E780B784F4F16FB06F6032596FB9C
:100E5000F5F5ED0076001BB94C48FFF710FB81E07B
:100E6000012B04D1002A77D14FF22B006AE0022B2C
:100E700004D1002A70D14FF2280063E0092B19D168
:100E8000434B1B78022B77D040484249424CFFF736
:100E9000FEFA01232360414B1E681D4606F57A6663
:100EA0002268002A5CD02B68B34259D200200CF093
:100EB000A5FDF5E7A3F10A005FFA80FCBCF1150F70
:100EC0000AD8002A58D14FF47A73584320F080F999
:100ED0003B6801333B60F8BD202B31D148785C285A
:100EE0002ED10131396092B1F8BD5C2B14D1254B64
:100EF00001321A600020FFF7FBFE284620F068F957
:100F000023685A1C22605A78202A07D04AB12268E6
:100F10001378002BE9D112E00120ECE7194A0233E3
:100F2000136029F079FC284620F052F929F074FC6E
:100F3000FFF7CEFA3046BDE8F84020F049B9F8BDD9
:100F400052B9184629F01CFC284620F041F929F036
:100F500063FC304620F03CF9236801332360F8BD80
:100F6000002323600E480F4901F094F80C480E4905
:100F7000BDE8F84001F0BFB8F8BD00BF61BAFF1F7F
:100F8000E2B9FF1F4C90FF1FA48CFF1F10E5FF1F4D
:100F900038BBFF1FBAEE020088BCFF1FD4E2FF1F60
:100FA0008490FF1F388FFF1F0C8FFF1F08B5074865
:100FB0000749FFF764FA074807F08AFC064B01224D
:100FC00005201A7007F0A6FDF5E700BF10E5FF1F2A
:100FD000D0EE0200CAEE0200E2B9FF1F2DE9F74F82
:100FE000A94E337804465BB9A84B1B78092B05D171
:100FF000142803DDA64B1A6803321A602D2000E086
:101000000020A44F07F03CFD3B68022B01DDFFF7F9
:10101000CDFFA14D2B6801332B60A04B1A78984669
:10102000002A45D0684602F045F89DF8003003B329
:1010300001A802F032F89DF80430132B0AD90023DE
:101040009748FF221A540133202BF9D109F0E4FC10
:10105000002003E001338DF8043001A802F025F8E8
:1010600090499148FFF713FA8F489DF80410FFF755
:1010700018FA8E4B1A6801321A609DF800302A68FF
:101080000133DBB201320A2B8DF800302A6009D916
:1010900087498548FFF7FBF99DF800108248FFF764
:1010A00000FA52E0684602F00DF8002388F800309C
:1010B000DFF8F8B1DFF8D8A1DBF800309AF80010BB
:1010C0007C480133CBF8003001F0B3F82B680133D2
:1010D0002B60794B1B680322B3FBF2F101EB41015A
:1010E000581A1340184420F073F8674B1978564685
:1010F000D94669BB6F4801F0C3F848BB6D4801F0A1
:1011000049FA28BB0CE3472C00F3D781A4F148022D
:10111000352A40F2F0815D4A1278092A40F0E881D0
:10112000B4F5877F80F2E781592C584F40F3F68160
:101130003268322A40F0F681604A1278002A00F0C4
:10114000F1813A78092A40F0ED8107F0DDFB45E3B3
:101150004D4BD9F8002093F800A00132C9F80020C7
:10116000BAF1000F44D1504601F0ACFF514801F0F4
:101170006DF8524BC7F800A01A781D4622B95048A6
:101180000CF050FB07F0A4FB4E484F494F4C00F0C9
:1011900081FF4F494448FFF77AF9207807F058F962
:1011A000552007F0F5FD4B4B1B78022B274606D048
:1011B00018F03DFE002001F078FF0DF0CDF9464B10
:1011C000464A19681160304A012010702A781C467E
:1011D00012B1387007F03CF92568C8352368AB4276
:1011E00003D200200CF00AFCF8E71FF0D1F8F5E27A
:1011F0003B4A1078002838D1542C36DD3268312A29
:101200001BD1344A1278022A2FD0204B1B78092B8D
:101210000FD106200EE0092A6FDD0A2A40F08880EF
:1012200007F0C8FB3368312B13D1184B1B78092BFF
:101230000FD0012009F01AFDD0E2322A0BD1254A45
:101240001278022A11D0114B1B78092B01D10520ED
:10125000F0E70220EEE7332A07D11E4A1278022A6D
:1012600003D00A4A1278092AE4D11E4A12682AB920
:101270001D4A1268002A00F0B18259E0032A37DCC7
:1012800009481A493FE000BFA5BAFF1FB78CFF1FEE
:10129000EC9BFF1F4C8FFF1F8890FF1F808CFF1F50
:1012A000B090FF1F2AEF020010E5FF1F8C90FF1F78
:1012B00066EF020004BBFF1F00BBFF1F30BBFF1F18
:1012C00082EF02008490FF1F208FFF1FE2B9FF1FF3
:1012D00096EF020038BBFF1FD4E2FF1F54BBFF1F75
:1012E00068BAFF1F80BAFF1F209CFF1FA2EF0200F9
:1012F000062A90DCA648A74905E0A74A1278022AE8
:1013000008D0A348A549FFF7BAF83168A04830399A
:10131000FFF7D1F8A24B1B78002B00F05F82A14CA5
:101320002D230120237007F0F5FB0123237055E2E4
:101330009D4F9E499648DFF8D8B200223A70FFF7D9
:101340009EF8316892483039FFF7B5F8984A9949C4
:101350001068086090490978022900F09F81DFF841
:10136000B8A29AF80010012957460CD1924890F87B
:1013700000E0DBF80000704529D19048007830B3D8
:1013800083488F490DE0022919D18E4890F800E07A
:10139000DBF8000070451AD188480078B8B17C4865
:1013A0008949FFF76CF8DBF8001079483039FFF70E
:1013B00082F89AF8003001338AF800300EE20329EF
:1013C00005D1824ADBF800001278904207D0804AAB
:1013D0001278012A03D07F4A1278012A05D1774A70
:1013E000127812B17C4A12787AB903297A4A05D167
:1013F0001078F52802D17148007830B91278F62AB1
:1014000044D16E4A1278002A40D074496048724C28
:10141000FFF735F831685E483039FFF74CF80423A0
:101420006B4A3B70002313706A4A13702378ED2BCC
:1014300006D16B4803716378437104F0F9FB1FE038
:10144000F02B06D1664803716378437104F06CFD9C
:1014500016E0F52B02D104F0B5FD11E0F62B0FD10B
:10146000604D01232B60524B1E6806F57A662B688F
:1014700023B14F4A1368B342C0F0A38100232B600D
:1014800000203870207007F083FCA7E100293FF4AA
:101490003AAE494A002313704A4A3B7013704B4AD4
:1014A0000120137007F074FC4F4807F011FA4F4BFE
:1014B000FF2118781FF088FD90E17D2C04DD4C4A57
:1014C0001278092A3FF422AE3268312A7FF41EAE28
:1014D0003A4A1278002A7FF419AE4648464900F08D
:1014E000D9FD0BF09FF94348434900F004FE75E134
:1014F0008B2C7FF719AE3268322A7FF415AE2F4A53
:101500001278002A7FF410AE012007F07FF98B2CAF
:1015100040F36481012007F0C3F85FE1472C40F3FA
:10152000818004E07D2C02DD3A78092A7AD0326885
:10153000332A77D1214A92F800A0BAF1000F71D175
:101540002E4B2F4883F800A0012488F8004000F0BB
:101550007DFE2C4B2C481C60514620222CF0C2FCF6
:1015600024482A4900F0C7FD294BC3F800A03B7866
:10157000092B53D1274D2B782E46002B40F0258187
:101580001F4801F007F8002800F01F812C7022E1AD
:1015900010E5FF1F9FEF020038BBFF1FBAEF0200EC
:1015A00030BBFF1FE2B9FF1F508FFF1FDEEF0200AD
:1015B000D4E2FF1F54BBFF1F50BBFF1F61BAFF1FC8
:1015C000EFEF020051BBFF1F02F0020052BBFF1FF2
:1015D000A8BAFF1FA4BAFF1FA59BFF1F15F00200AA
:1015E00018BAFF1F88BCFF1F28F00200FDBAFF1FBA
:1015F000B78CFF1F8490FF1F0C8FFF1FA5BAFF1F22
:1016000004BBFF1F848CFF1F1091FF1F208FFF1F43
:10161000EC9BFF1FD8BAFF1F0CBAFF1F714B724A19
:101620001A60DBE03A78092A05D1B4F5877F35DB0B
:101630003268332A03E0472C30DD3268362A2DD158
:101640006A4A92F800A0BAF1000F27D12A686848C8
:1016500001322A60674A01241470674A88F8004002
:1016600082F800A000F0F2FDD9F800202244C9F869
:101670000020624A14603A78092A40F0AF805C4842
:10168000C6F800A000F0FCFD002840F0A4805848F7
:1016900000F080FF002840F09E809FE0002007F0CF
:1016A000EFF9574A1278092A0FD1A4F1B402582A47
:1016B00004D832680332326015240EE07D2C04DD3C
:1016C0003268033232600A2401E0142C05DC494BF5
:1016D0001B7813B9FFF7B8FA14E0A4F11503442BF3
:1016E00005D8444B1B786BB9FFF7BCFA0AE0592CBC
:1016F00008DD404B1B782BB9424B012202201A70A7
:1017000007F008FA404B414A414842491A6000F04C
:10171000C1FC414B3E4841491A7800F0CDFC5DE0E8
:10172000334801F085F820B13D493E48FEF7AFFE51
:101730000BE5DBF80030314C0133CBF80030236887
:10174000092B15DC38493748FEF799FEDAF8001006
:1017500034483039FEF7AFFE34493248FEF78FFE89
:1017600030482168FEF7A7FE23680133236035E087
:101770003B6801252B443B60224B88F80050032036
:101780001D7007F0C7F92A492648FEF778FE68461B
:1017900001F090FC9DF800102248C1F10A0129F0E7
:1017A0007CFE24491F48FEF772FE23491D48FEF7C0
:1017B0006EFE0F4800F04AFD3B682560022B0DDDF0
:1017C00025E400200CF01AF951E6337833B10848CB
:1017D00000F056FD5EE70A20FFF700FC03B0BDE80D
:1017E000F08F00BF0CED00E00400FA0561BAFF1FA6
:1017F00004BBFF1F30BBFF1FA5BAFF1F848CFF1F58
:10180000B78CFF1FE2B9FF1F4C90FF1F508FFF1FC7
:101810008490FF1F0C8FFF1FA48CFF1F388FFF1FAA
:101820004EF0020010E5FF1FA2EF020068F0020078
:1018300094F00200ADF00200E3F0020073B5102056
:1018400029F01EFB804B814D814C8248824E002244
:101850001A70824B06221A70814B01221A70814B3A
:1018600016221A70804B17221A70804B11221A70A0
:101870007F4B0F221A707F4B10221A700E232021EB
:101880002B701523237005F02DFA306000F0D6FB85
:10189000287829F01FFB0090207829F01BFB764B5D
:1018A00001901A6801321A60744B1B78442B24D0C3
:1018B0007348FFF7E7F90224714D6319204613F8C6
:1018C000021C013429F0B4F9422CF5D100214FF467
:1018D000006228462CF006FB44200CF049FF6949C1
:1018E00004466948FEF7CBFD1CB167486749FEF71F
:1018F000C6FD65486649FEF7CAFD34689CB905F027
:10190000D1F802214FF4F86029F092F9614801F012
:1019100016FB614B61495C4801221A70604B1C70D8
:10192000FEF7B5FD49E0554B1B78442B42D12021F1
:101930005C485D4C05F044FA5C4805F06FFA5C4881
:1019400005F0D6FA204601F067FB5A4801F04AFB41
:1019500059494D48FEF79BFD4B482178FEF7A1FD04
:1019600023780BB9042323705448554C01F06EFBC7
:10197000544801F078FB474801F0D9FA204601F0BD
:1019800058FB51494048FEF782FD21783E48FEF75A
:1019900088FD1FF081FC404B4C493B4800221A70E7
:1019A0003F4B01221A70FEF772FD4948494900F089
:1019B000A2FB02E0484B494A1A60494B49481A6861
:1019C000494901321A6040F2FD720EF08DFC454823
:1019D0006946022204230EF03FFC02220423414800
:1019E00001A90EF039FC41492748FEF748FD40F2B5
:1019F000A5712548FEF75FFD204B2348197810227A
:101A0000002329F012FD204829F0F2FC07F036FBF4
:101A100007F016F807F0B2FD2D48354900F06BFBD2
:101A2000344B1B78092B0DD11D4B1B7853B1324819
:101A300000F026FC18B9304800F0ACFD10B10A20C7
:101A4000FFF7CCFA02B070BD38BBFF1F1CBBFF1FF5
:101A5000A49BFF1F9090FF1F209CFF1FFDBAFF1F3C
:101A600070BBFF1F71BBFF1FA6BAFF1F78BBFF1F14
:101A700029BBFF1FC9BBFF1F8890FF1F0200024048
:101A8000289CFF1F22F1020010E5FF1F37F1020022
:101A90003CF10200BC8CFF1FA5BAFF1F51F10200F0
:101AA00068BAFF1FB090FF1FA48CFF1FF090FF1FAC
:101AB000D090FF1F28BBFF1F66F102001DBBFF1F58
:101AC000D6E6FF1FA7BAFF1F73F1020094190300A7
:101AD0008490FF1F208FFF1F0CED00E00400FA052B
:101AE0008C90FF1FCCBBFF1F8AEF020085F1020024
:101AF0000C8FFF1FB78CFF1F04BBFF1FF8B5212001
:101B00001FF038FAE8B94B4B1D6804461E46326890
:101B100040F6B733521B9A4207D864201FF058FB97
:101B200021201FF027FA0444F1E754B9204601218F
:101B300029F07EF80120014629F07AF83E4B3F4A11
:101B40001A603F4B3F4D1B7A012B0DD13E4B1B784A
:101B50000BB12B7843B13D4B1B78032B02D00320F4
:101B600004F050FF0CF01CFA394B3A4C1A68013261
:101B70001A60394B1A680623B2FBF3F003FB1020FE
:101B80001FF026FB2278354BDAB11A6800200132AB
:101B90001A600BF033FF324B1B78ABB1314B1B6833
:101BA00093B106F049FC304B1B786BB1214A1168A8
:101BB0002E4A12688A1A4EF660214B439A4221D26D
:101BC00002E01A6801321A602B784BB123783BB1DE
:101BD0001D4B1B7823B9264B0120187006F038FCEA
:101BE00007F0F0FC234A12780A32D2B2012A04D854
:101BF0002D20BDE8F84006F043BFC8B1BDE8F8406D
:101C0000FFF7ECB91C4B1D48002601271F702670FA
:101C100000F01CFB1A4B1B481F60202231462CF0A1
:101C200061F91948194900F066FA044A024BCAE7FB
:101C3000F8BD00BFD4E2FF1F0CED00E00400FA0580
:101C400069BAFF1F30BBFF1F61BAFF1FE4B9FF1F56
:101C50008890FF1FA5BAFF1F00BBFF1F8C90FF1FBE
:101C600068BAFF1F209CFF1FBC8CFF1F54BBFF1FC7
:101C7000E2B9FF1FE1B9FF1F808CFF1F04BBFF1FEC
:101C8000848CFF1F1091FF1F8490FF1F208FFF1F68
:101C900070B51B4D2B78092B29D11A4C00212046F9
:101CA00029F0A2F908B32379E12B1ED163792F2BF8
:101CB0001BD9154B1B78C3B1144B1E78AEB92B78CA
:101CC000092B12D1124B134801221A7000F0BEFAF0
:101CD0000CF026FC104B0A201860FFF77FF9204615
:101CE000314640222CF0FEF804E00C4800E00C489D
:101CF00006F0EEFD0A490B48FEF7C9FB70BD00BFB8
:101D0000B78CFF1F18BAFF1F68BAFF1FA5BAFF1FC5
:101D1000808CFF1F04BBFF1F848CFF1F92F1020009
:101D20009419030010E5FF1F08B528F037FF322192
:101D3000084A094800F022FA3221084A084800F00F
:101D40001DFA0848084A4FF47A71BDE8084000F0CF
:101D500015BA00BFFD1A00000C8FFF1F1D0E0000FA
:101D6000388FFF1F208FFF1F911C00002DE9F04FBF
:101D70000A46C9B00023CD5CD47844EA056455789E
:101D800044EA0544957803F1200644EA0524043327
:101D90006D46402B745102F10402ECD108AB0022D5
:101DA00008AF9C6B5E6ABD58596835444FEA74466B
:101DB00086EAF44686EA94242C444FEAF11585EA33
:101DC000B14585EAD10104322144C02A196403F1E6
:101DD0000403E5D1026D0092436D426E0193856D5F
:101DE000836EC66D076E02950396C56E04970592C5
:101DF00017469DE8140006931E46DDF80CC0049BB0
:101E000002990795A846002505F1200BE9465BF8E5
:101E100009A0DFF8989055F80990D1444FEAB31A19
:101E20008AEAF32A8AEA736AD14426EA030B07EAAC
:101E3000030A8BEA0A0AD144C84481EA040901EA88
:101E4000040A09EA020989EA0A094FEAB20A8AEA97
:101E5000723A8AEAB25A0435D144B5F5807FC44457
:101E6000C14408D0B0463E461F4663468C462146D4
:101E700014464A46C8E7009D4D440565019D2A4425
:101E80004265029A039D1444049A84656244026682
:101E9000059A134429444366079D069BC1651F4468
:101EA0002E448766C66649B0BDE8F08FA0F10200F7
:101EB0000023036400220023C0E912230A4B0365B8
:101EC0000A4B43650A4B83650A4BC3650A4B03669D
:101ED0000A4B43660A4B836603F17453A3F523034D
:101EE000A3F69243C366704767E6096A85AE67BB8F
:101EF00072F36E3C3AF54FA57F520E518C68059BEC
:101F0000ABD9831F2DE9F04106460F4601EB0208CD
:101F1000474516D0336C17F8012BF2540133402B90
:101F20003364F5D130463146FFF720FFD6E912453C
:101F300014F5007445F100050023C6E91245336429
:101F4000E6E7BDE8F081026C2DE9F84F372A8846B4
:101F50004FF08001814602F10103815406D8382BED
:101F600014D0002209F803200133F8E73F2B04D8EE
:101F7000002209F803200133F8E748464946FFF7F5
:101F8000F5FE4846002138222BF0ACFFD9F840304E
:101F9000D900D9E91223521843F100034FEA122A5B
:101FA000160C140E4AEA036A4FEA132B46EA03465C
:101FB0001F0C44EA03241D0EC9E9122389F83B30A3
:101FC000494689F83F2089F83EA089F83D6089F8A4
:101FD0003C4089F83AB089F8397089F83850484659
:101FE000FFF7C4FE43460321D9F85000CA00D04091
:101FF0001870D9F85400D0401871D9F85800D04062
:102000001872D9F85C00D0401873D9F86000D0403D
:102010001874D9F86400D0401875D9F86800D04019
:102020001876D9F86C00013920FA02F21A774A1CA6
:1020300003F10103D8D1BDE8F88FFFFF07B5064BC8
:1020400006499A680092DA6801920CCB04482CF099
:102050007DF903B05DF804FB5090FF1FA0F2020071
:102060006090FF1F064B1A68064B1A60064A1268FA
:102070005A60064A12689A60054A1268DA60704728
:10208000548004405090FF1F588004405C800440FE
:1020900060800440036873B18B4205D11B69036003
:1020A00070478A4204D013461A69002AF9D102E027
:1020B0000A691A617047704770B506460C461546A6
:1020C000FFF7E8FF33680BB9346004E01A690AB11E
:1020D0001346FBE71C611FF05BF823680322C01A5C
:1020E0004FF4FA536B43B5FBF2F55D430023606098
:1020F0002560236170BD38B505460C46FFF7CAFF61
:102100002B680BB92C6004E01A690AB11346FBE78F
:102110001C611FF03DF82368C01A00236060236132
:1021200038BD38B50C461FF033F862682368134495
:102130009842054605D36268934208D2626882429B
:1021400005D86268954207D262689A4204D8A560B1
:10215000E36820469847656038BD38B505462C6869
:10216000002CFCD021462846FFF7DBFF2469F7E767
:1021700008B50148FFF7F1FF8490FF1F10B54FF439
:102180007A746143C260002201604260026110BD46
:102190004FF47A73594301607047FFFFF8B5044666
:1021A0000E4615461F46044AFFF7E8FF6661E561E3
:1021B000A7612046F8BD00BFDD21000010B5002159
:1021C000044680F82010FFF7E3FF21460248BDE8EF
:1021D0001040FFF790BF00BF8490FF1F10B590F82C
:1021E000203004463BB9012380F820304169BDE826
:1021F0001040FFF7CDBF012B10D109482146FFF752
:1022000049FFE36913B9A06920B910BD204698477A
:1022100020B1F8E7BDE81040FFF7D0BF10BD00BF08
:102220008490FF1F00224161427402707047416137
:102230007047437C102B07D05A1CD2B24274C15451
:10224000002383540120704700207047002343740B
:102250000370704710B5446902782178002321B9D2
:10226000D2F1010038BF002010BD914206D1E21822
:102270005178C2180133102B5278F0D1002010BDD4
:102280002DE9F043B7B004462CF0DEF8AA4B1B78DA
:10229000092B054613D1A94B1A78012A02D1002037
:1022A000187046E158B9A64B224603F1100153F8C5
:1022B000040B42F8040B8B42F9D1102505E00628E7
:1022C00003D81E201EF084FF32E11AA8FFF7F0FDAC
:1022D0002A4621461AA8FFF715FE9A499A48FEF7A2
:1022E000D6F82046294604F0C1FB98499648984CF8
:1022F000FEF7C5F89748202104F0B8FB20221AA861
:102300009449FFF7FFFD1AA80AA9FFF71CFE9DF8E4
:10231000283023F007038DF828309DF8473003F06C
:102320003F0343F0400300220AA920468DF84730BE
:102330000CF050FF88498448FEF7A1F82021204680
:1023400004F094FB1AA8FFF7B3FD12A800F0BFFE3B
:102350001AA812A91022FFF7D5FD1AA87F4910224A
:10236000FFF7D0FD20221AA82146FFF7CBFD21461A
:102370001AA8FFF7E8FD1AA8FFF79AFD1AA812A9F4
:102380001022FFF7BFFD1AA874491022FFF7BAFD0B
:1023900020221AA87249FFF7B5FD1AA802A9FFF773
:1023A000D2FD70496848FEF76AF82046202104F003
:1023B0005DFB6D496448FEF762F802A8202104F035
:1023C00055FB6A4B9DF80850D3F80080684B207885
:1023D0001A68531C02F11F0902F1200CC2EB08011C
:1023E0004B4503F1FF37C2F10006194440F08B80E2
:1023F0005E4B5F4C19608542276004D05C4B1A68C5
:1024000001321A6094E00DF1070000F0F8FD59491F
:102410004D48FEF734F800234B489DF807100A2278
:1024200029F003F89DF807304948012B22D104F028
:102430008DFD18B94648504A0AA921E04E4A0AA91A
:1024400002A80CF0C7FE4D493F48FEF718F802A855
:10245000202104F00BFB4A493B48FEF710F812A874
:10246000202104F003FB47493748FEF708F84648A7
:10247000102113E004F06AFD28B93548384A0AA94A
:102480000CF0A8FE2DE00AA9354A02A80CF0A2FE25
:102490003A492D48FDF7F3FF02A8202104F0E6FA9F
:1024A0001AA8FFF705FD1AA812A92022FFF72AFD96
:1024B0001AA835491022FFF725FD1AA802A92022E3
:1024C000FFF720FD20221AA82249FFF71BFD1AA8BA
:1024D0000AA9FFF738FD1E482B490AAA202304F059
:1024E000D1F82A491848FDF7CAFF1948202104F0FD
:1024F000BDFA2368264A01332360002313700F4A74
:102500000120137015E0854204D0184B1960184B58
:102510001F6073E702A830442644C55CF05C1E4689
:10252000013363457FF45AAF104B1960104B1E60A6
:10253000002037B0BDE8F083B78CFF1FD8BAFF1F6B
:102540007290FF1FB8F2020010E5FF1FCEF20200EA
:102550001091FF1F9090FF1FDAF202007090FF1F92
:10256000B090FF1FF2F202000AF302008890FF1FF2
:102570008C90FF1F25F30200D090FF1F3FF3020055
:1025800057F30200860403006090FF1F32F302003D
:1025900038BBFF1F2DE9F043B7B004462BF054FFC2
:1025A0008F4B1B78092B05460CD158B98D4B224611
:1025B00003F1100153F8040B42F8040B8B42F9D1DC
:1025C000102505E0062803D81E201EF001FE93E02A
:1025D0001AA8FFF76DFC2A4621461AA8FFF792FCBD
:1025E00081498248FDF753FF2046294604F03EFA10
:1025F0007F497E487F4CFDF742FF7F48202104F051
:1026000035FA20221AA87C49FFF77CFC1AA80AA9EF
:10261000FFF799FC9DF8283023F007038DF8283048
:102620009DF8473003F03F0343F040030AA900221E
:1026300020468DF847300CF0CDFD1AA8FFF738FC86
:1026400012A800F044FD1AA812A91022FFF75AFCA4
:102650001AA86A491022FFF755FC20221AA8214621
:10266000FFF750FC21461AA8FFF76DFC1AA8FFF7E8
:102670001FFC1AA812A91022FFF744FC1AA85F49F0
:102680001022FFF73FFC20221AA85D49FFF73AFC11
:102690001AA802A9FFF757FC5A495448FDF7EFFE64
:1026A0002046202104F0E2F957495048FDF7E7FEA3
:1026B00002A8202104F0DAF9544B9DF80850D3F811
:1026C0000080534B20781A68531C02F11F0902F155
:1026D000200CC2EB08014B4503F1FF37C2F10006A5
:1026E000194465D1494B4A4C19608542276005D091
:1026F000474B1A6801321A6000206EE00DF10700A6
:1027000000F07DFC9DF80730022B46D0394804F0DC
:102710001DFC28B90AA93F4A36480CF05BFD2DE0A4
:102720003C4A0AA902A80CF055FD3B492F48FDF789
:10273000A6FE202102A804F099F91AA8FFF7B8FB19
:102740001AA812A92022FFF7DDFB1AA8334910228C
:10275000FFF7D8FB1AA802A92022FFF7D3FB2022FB
:102760001AA82549FFF7CEFB1AA80AA9FFF7EBFB29
:1027700020482A490AAA202303F084FF28491B483D
:10278000FDF77DFE1B48202104F070F9254B012246
:102790001A70254B54221A7005E0244A1278002A38
:1027A000AAD1204A1370236801332360012014E06A
:1027B000854204D0154B1960154B1F6098E702A89D
:1027C00030442644C55CF05C1E460133634580D12D
:1027D0000E4B19600E4B1E608EE737B0BDE8F083DC
:1027E000B78CFF1F7390FF1F5EF3020010E5FF1F01
:1027F000CEF202001091FF1F9090FF1F7090FF1FFC
:10280000D090FF1FF2F2020074F302008890FF1FC5
:102810008C90FF1FB090FF1F93F302006090FF1F8A
:1028200032F3020038BBFF1FD8BAFF1F30BBFF1FB7
:1028300030B59DB005462BF007FE0628044603D8A8
:102840001E201EF0C5FC35E06846FFF731FB22462E
:1028500029466846FFF756FB18491948194D1A4C86
:10286000FDF70DFE1948202104F000F920226846EA
:102870001649FFF747FB29466846FFF764FB1048F7
:1028800028F0B6FD12490E48FDF7F9FD204620213B
:1028900004F0ECF822782878002382420AD1E2186A
:1028A000E91801331E2B52784878F6D1131A584292
:1028B000584100E000201DB030BD00BFCEF2020044
:1028C00010E5FF1F1091FF1FF090FF1F9090FF1F5A
:1028D000ABF3020028F062B910B5084B00F14C02CE
:1028E00003F1140153F8044B42F8044B8B42F9D125
:1028F0000023036680F8483010BD00BF888CFF1F9E
:102900002DE9F04F416D826DC36DD0F84C80D0F849
:1029100050C085B0994601910292039346461346F2
:1029200000240A466146E5B20F2D07D883EA020A61
:102930000AEA010A8AEA030A334F3FE004F10D0B69
:1029400004F108070BF00F0B07F00F070BF1020B58
:10295000023705F00F0A50F8277050F82BB000EB43
:102960008A0A8BEA070BDAF808708BEA070BA71CB8
:1029700007F00F070237132D50F827708BEA07076F
:102980004FEAF777CAF80870D0D9272D05D882EA20
:10299000010A8AEA030A1D4F10E03B2D09D842EADA
:1029A000010A02EA01070AEA030A4AEA070A184F7B
:1029B00004E082EA010A174F8AEA030A05F00F05CC
:1029C0000235574450F82550013405EBF6653D4477
:1029D000502C4D444FEAB10105D0994613460A46A2
:1029E00031462E469FE7019C2144416502990A44E5
:1029F0008265039A454466441344C5640665C3650D
:102A000005B0BDE8F08F00BF9979825AA1EBD96E6D
:102A1000DCBC1B8FD6C162CA90F8483083F0030239
:102A20000133DBB20244402B10B51172044680F82A
:102A3000483004D1FFF764FF002384F8483010BD0C
:102A400008B5026E01320266FFF7E6FF012008BDFD
:102A500010B580210446FFF7DFFF94F84830382B8B
:102A600020464FF00001F6D1FFF7D6FF20460021A7
:102A7000FFF7D2FF20460021FFF7CEFF216E204650
:102A8000490FFFF7C9FF216E2046C1F34751FFF7F9
:102A9000C3FF216E2046C1F34731FFF7BDFF216E12
:102AA0002046C1F34711FFF7B7FF216EC90020464A
:102AB00001F0F801BDE81040FFF7AEBF10B50446C5
:102AC000FFF7C6FF0023E2180433D16C142B09BAB8
:102AD000D164F8D104F14C0010BDF8B500F16406E2
:102AE000174604460D463046002140222BF0FAF9E5
:102AF000402F18DD2046FFF7EFFE2F44BD4206D0E1
:102B0000236815F8011B1B6820469847F6E7204606
:102B1000FFF7D4FF00F1140250F8041B46F8041B21
:102B20009042F9D104E0304629463A461DF076FB42
:102B30002046FFF7D1FE254604F1400695F86410C3
:102B4000236820461B6881F0360101359847B5425D
:102B5000F4D1F8BD70B50446FFF7B0FF04F1A4034B
:102B600000F1140250F8041B43F8041B9042F9D101
:102B70002046FFF7B1FE04F14006254695F86410A3
:102B8000236820461B6881F05C0101359847B542F7
:102B9000F4D104F114062546236895F8A4101B68A7
:102BA000204601359847B542F6D12046BDE8704031
:102BB000FFF784BF024B00221A71024A1A60704765
:102BC0003091FF1FC8F3020080E806007047FFFF46
:102BD0001E2391FBF3F10B0E70B51E4E03740B1404
:102BE0000446002543740B1281608374C17405731D
:102BF00094E8060045738573C5733046FFF76DFF93
:102C0000336804F10C015B6808223046984730466F
:102C1000FFF7A0FF6061C37CE56103F00F03A361D0
:102C2000E269C1181202E261495D01350A43042DCF
:102C3000E261F5D1084B22F0004292FBF3F103FB75
:102C40001122E2612034204604492BF07FFB20460C
:102C500070BD00BF3091FF1F40420F00D0F3020053
:102C60003C23B0FBF3F203FB12000870B2FBF3F05D
:102C700003FB10234B701823B0FBF3F203FB12008D
:102C80008870131D0720B3FBF0F0C0EBC0001B1AC7
:102C9000F0B501330024CB702046E7B207F2B273DF
:102CA00013F0030612D1642593FBF5FC05FB1C35DC
:102CB0007DB94FF4C87593FBF5FC05FB1C35002D61
:102CC00040F26D1508BF4FF4B77504E040F26D1582
:102CD00001E04FF4B7752844904204F10104DCD9B7
:102CE0008F7196B9642493FBF4F504FB15347CB919
:102CF0004FF4C87493FBF4F504FB1534002C40F238
:102D00006D1408BF4FF4B77404E040F26D1401E095
:102D10004FF4B774041B141B642293FBF2F702FBFD
:102D200017374FF4C87293FBF2F002FB1033002206
:102D3000D5B2012D06D146B94FB9002B0CBF1D20CD
:102D40001C2005E00948105C02E01C2000E01D206A
:102D5000844205D301320C2AC0EB0404E8D11546A5
:102D6000013501344D710C71F0BD00BFD6F3020086
:102D700038B5054C23689842054603D00349FFF750
:102D80006FFF256038BD00BFE891FF1FEC91FF1F6A
:102D900008B5FFF7EDFF024B987900F2B27008BD5D
:102DA000EC91FF1F074B1860074B1B681844074B3B
:102DB0001860074B02221A70064B1A68064B1A60FD
:102DC000704700BFF491FF1F9C8CFF1F0492FF1FF0
:102DD000F891FF1FD4E2FF1F0092FF1F70B5164944
:102DE000164C0A68236816480068801AB0F57A7F86
:102DF00002F57A7603F1010502D32B463246F2E75B
:102E0000104D0A602A6823609A4213D80E4B1B6843
:102E100083B1984710B1FFF7C5FF0BE00B4B1A6861
:102E2000064B1B6813442B60094B1A78003218BFFD
:102E300001221A70206870BD0092FF1FF491FF1FDD
:102E4000D4E2FF1F0492FF1FFC91FF1F9C8CFF1F09
:102E5000F891FF1F08B5FFF7C1FFFFF789FF014B8E
:102E6000987808BDEC91FF1F08B5FFF7B7FFFFF793
:102E70007FFF014B587808BDEC91FF1F08B5FFF7A5
:102E8000ADFFFFF775FF014B187808BDEC91FF1FF0
:102E900008B5FFF7A3FFFFF76BFF014B187908BDDB
:102EA000EC91FF1F08B5FFF799FFFFF761FF014B9A
:102EB000587908BDEC91FF1F08B5FFF78FFFBDE8FB
:102EC0000840FFF765BFFFFF08B5FFF787FF014B1D
:102ED000187808BDF891FF1FF8B506460D468F1803
:102EE0000C46BC4206D0204627F08EFE731B1855B8
:102EF0000134F6E7F8BDF8B506460D468F180C46C6
:102F0000BC4206D0731B2046195D27F091FE0134A8
:102F1000F6E7F8BD08B54FF4D5610122FFF7DCFFF5
:102F2000012008BD4FF4D5610122FFF7E4BF08B5C9
:102F300040F2A9610122FFF7CFFF012008BD40F256
:102F4000A9610122FFF7D7BF08B540F2AA610122AB
:102F5000FFF7C2FF012008BD40F2AA610122FFF77E
:102F6000CABF08B540F2D561D022FFF7B5FFD02027
:102F700008BD40F2D561D022FFF7BDBF08B540F2D1
:102F8000AB610122FFF7A8FF012008BD40F2AB6151
:102F90000122FFF7B0BF08B540F2AC610122FFF794
:102FA0009BFF012008BD40F2AC610122FFF7A3BFE7
:102FB00008B540F2AD610122FFF78EFF012008BD88
:102FC00040F2AD610122FFF796BF08B540F2A5714E
:102FD0000122FFF781FF012008BD40F2A571012207
:102FE000FFF789BF08B540F2A6710122FFF774FF11
:102FF000012008BD40F2A6710122FFF77CBF08B591
:1030000040F2AE610122FFF767FF012008BD40F2E8
:10301000AE610122FFF76FBF08B540F2AF61012238
:10302000FFF75AFF012008BD40F2AF610122FFF710
:1030300062BF08B54FF4D6610122FFF74DFF0120B2
:1030400008BD4FF4D6610122FFF755BF08B540F225
:10305000D3610122FFF740FF012008BD40F2D36198
:103060000122FFF748BF08B540F2BF710122FFF708
:1030700033FF012008BD40F2BF710122FFF73BBFC3
:1030800008B540F2D4610122FFF726FF012008BDF8
:1030900040F2D4610122FFF72EBF08B540F2B161C2
:1030A0000122FFF719FF012008BD40F2B1610122A2
:1030B000FFF721BF08B540F2B2610122FFF70CFF14
:1030C000012008BD40F2B2610122FFF714BF08B52C
:1030D00040F2B3612022FFF7FFFE202008BD40F23E
:1030E000B3612022FFF707BF08B540F21C6101223F
:1030F000FFF7F2FE012008BD40F21C610122FFF73C
:10310000FABE08B540F21D610122FFF7E5FE01207D
:1031100008BD40F21D610122FFF7EDBE08B540F287
:103120001E610122FFF7D8FE012008BD40F21E619A
:103130000122FFF7E0BE08B540F21F610122FFF750
:10314000CBFE012008BD40F21F610122FFF7D3BE74
:1031500008B54FF4C4610122FFF7BEFE012008BD8F
:103160004FF4C4610122FFF7C6BE08B540F22161E9
:103170000122FFF7B1FE012008BD40F221610122CA
:10318000FFF7B9BE08B540F222610122FFF7A4FEA5
:10319000012008BD40F222610122FFF7ACBE08B554
:1031A00040F223610122FFF797FE012008BD40F2A3
:1031B00023610122FFF79FBE08B540F2246101227E
:1031C000FFF78AFE012008BD40F224610122FFF7CB
:1031D00092BE08B540F225610122FFF77DFE012075
:1031E00008BD40F225610122FFF785BE08B540F217
:1031F00026610122FFF770FE012008BD40F2266122
:103200000122FFF778BE08B540F227610122FFF7DF
:1032100063FE012008BD40F227610122FFF76BBE6B
:1032200008B54FF4C5610122FFF756FE012008BD25
:103230004FF4C5610122FFF75EBE08B540F2296177
:103240000122FFF749FE012008BD40F22961012259
:10325000FFF751BE08B540F22A610122FFF73CFE9C
:10326000012008BD40F22A610122FFF744BE08B5E3
:1032700040F22B610122FFF72FFE012008BD40F232
:103280002B610122FFF737BE08B540F22C61012205
:10329000FFF722FE012008BD40F22C610122FFF75A
:1032A0002ABE08B540F22D610122FFF715FE01206C
:1032B00008BD40F22D610122FFF71DBE08B540F2A6
:1032C0002E610122FFF708FE012008BD40F22E61A9
:1032D0000122FFF710BE08B540F22F610122FFF76F
:1032E000FBFD012008BD40F22F610122FFF703BE64
:1032F00008B54FF4C6610122FFF7EEFD012008BDBD
:103300004FF4C6610122FFF7F6BD08B540F2316106
:103310000122FFF7E1FD012008BD40F231610122E9
:10332000FFF7E9BD08B540F232610122FFF7D4FD95
:10333000012008BD40F232610122FFF7DCBD08B573
:1033400040F233610122FFF7C7FD012008BD40F2C2
:1033500033610122FFF7CFBD08B5AC210122FFF791
:10336000BBFD012008BDAC210122FFF7C4BD08B59B
:10337000AD210122FFF7B0FD012008BDAD210122E2
:10338000FFF7B9BD08B5AE210122FFF7A5FD012069
:1033900008BDAE210122FFF7AEBD08B5AF21012265
:1033A000FFF79AFD012008BDAF210122FFF7A3BD61
:1033B00008B5B0210122FFF78FFD012008BDB02123
:1033C0000122FFF798BD08B5B1210122FFF784FD66
:1033D000012008BDB1210122FFF78DBD08B5B22142
:1033E0000122FFF779FD012008BDB2210122FFF77C
:1033F00082BD08B5B3210122FFF76EFD012008BD93
:10340000B3210122FFF777BD08B5B4210122FFF7F0
:1034100063FD012008BDB4210122FFF76CBD08B592
:10342000B5210122FFF758FD012008BDB521012279
:10343000FFF761BD08B5B6210122FFF74DFD012060
:1034400008BDB6210122FFF756BD08B5B7210122FC
:10345000FFF742FD012008BDB7210122FFF74BBD58
:1034600008B5B8210122FFF737FD012008BDB821BA
:103470000122FFF740BD08B5B9210122FFF72CFD5D
:10348000012008BDB9210122FFF735BD08B5BA21D9
:103490000122FFF721FD012008BDBA210122FFF71B
:1034A0002ABD08B5BB210122FFF716FD012008BD8A
:1034B000BB210122FFF71FBD08B5BC210122FFF788
:1034C0000BFD012008BDBC210122FFF714BD08B58A
:1034D000BD210122FFF700FD012008BDBD21012211
:1034E000FFF709BD08B5BE210122FFF7F5FC012059
:1034F00008BDBE210122FFF7FEBC08B5BF21012295
:10350000FFF7EAFC012008BDBF210122FFF7F3BC51
:1035100008B5C0210122FFF7DFFC012008BDC02152
:103520000122FFF7E8BC08B5C1210122FFF7D4FC56
:10353000012008BDC1210122FFF7DDBC08B5C22171
:103540000122FFF7C9FC012008BDC2210122FFF7BB
:10355000D2BC08B5C3210122FFF7BEFC012008BD83
:10356000C3210122FFF7C7BC08B564210122FFF780
:10357000B3FC012008BD64210122FFF7BCBC08B5E3
:1035800065210122FFF7A8FC012008BD6521012269
:10359000FFF7B1BC08B566210122FFF79DFC0120B1
:1035A00008BD66210122FFF7A6BC08B567210122EC
:1035B000FFF792FC012008BD67210122FFF79BBCA9
:1035C00008B568210122FFF787FC012008BD6821AA
:1035D0000122FFF790BC08B569210122FFF77CFCAE
:1035E000012008BD69210122FFF785BC08B56A21C9
:1035F0000122FFF771FC012008BD6A210122FFF7BB
:103600007ABC08B56B210122FFF766FC012008BDDA
:103610006B210122FFF76FBC08B56C210122FFF777
:103620005BFC012008BD6C210122FFF764BC08B5DA
:103630006D210122FFF750FC012008BD6D21012200
:10364000FFF759BC08B56E210122FFF745FC0120A8
:1036500008BD6E210122FFF74EBC08B56F21012283
:10366000FFF73AFC012008BD6F210122FFF743BCA0
:1036700008B570210122FFF72FFC012008BD702141
:103680000122FFF738BC08B571210122FFF724FCA5
:10369000012008BD71210122FFF72DBC08B5722160
:1036A0000122FFF719FC012008BD72210122FFF75A
:1036B00022BC08B573210122FFF70EFC012008BDD2
:1036C00073210122FFF717BC08B574210122FFF70F
:1036D00003FC012008BD74210122FFF70CBC08B5D2
:1036E00075210122FFF7F8FB012008BD7521012299
:1036F000FFF701BC08B576210122FFF7EDFB0120A1
:1037000008BD76210122FFF7F6BB08B5772101221B
:10371000FFF7E2FB012008BD77210122FFF7EBBB99
:1037200008B578210122FFF7D7FB012008BD7821D9
:103730000122FFF7E0BB08B579210122FFF7CCFB9E
:10374000012008BD79210122FFF7D5BB08B57A21F8
:103750000122FFF7C1FB012008BD7A210122FFF7FA
:10376000CABB08B57B210122FFF7B6FB012008BDCB
:103770007B210122FFF7BFBB08B540F26461012243
:10378000FFF7AAFB012008BD40F264610122FFF7A8
:10379000B2BB08B540F265610122FFF79DFB012035
:1037A00008BD40F265610122FFF7A5BB08B540F2F4
:1037B00066610122FFF790FB012008BD40F26661BF
:1037C0000122FFF798BB08B540F267610122FFF7BD
:1037D00083FB012008BD40F267610122FFF78BBB2C
:1037E00008B54FF4CD610122FFF776FB012008BD3B
:1037F0004FF4CD610122FFF77EBB08B540F269614D
:103800000122FFF769FB012008BD40F26961012236
:10381000FFF771BB08B540F26A610122FFF75CFB5C
:10382000012008BD40F26A610122FFF764BB08B5C0
:1038300040F26B610122FFF74FFB012008BD40F20F
:103840006B610122FFF757BB08B540F26C610122A2
:10385000FFF742FB012008BD40F26C610122FFF737
:103860004ABB08B540F26D610122FFF735FB01202C
:1038700008BD40F26D610122FFF73DBB08B540F283
:103880006E610122FFF728FB012008BD40F26E6146
:103890000122FFF730BB08B540F26F610122FFF74C
:1038A0001BFB012008BD40F26F610122FFF723BB23
:1038B00008B54FF4CE610122FFF70EFB012008BDD1
:1038C0004FF4CE610122FFF716BB08B540F27161DB
:1038D0000122FFF701FB012008BD40F271610122C6
:1038E000FFF709BB08B540F272610122FFF7F4FA55
:1038F000012008BD40F272610122FFF7FCBA08B551
:1039000040F273610122FFF7E7FA012008BD40F29F
:1039100073610122FFF7EFBA08B540F2746101222A
:10392000FFF7DAFA012008BD40F274610122FFF7C7
:10393000E2BA08B540F275610122FFF7CDFA012025
:1039400008BD40F275610122FFF7D5BA08B540F213
:1039500076610122FFF7C0FA012008BD40F27661CE
:103960000122FFF7C8BA08B540F277610122FFF7DC
:10397000B3FA012008BD40F277610122FFF7BBBA1C
:1039800008B54FF4CF610122FFF7A6FA012008BD68
:103990004FF4CF610122FFF7AEBA08B540F279616A
:1039A0000122FFF799FA012008BD40F27961012256
:1039B000FFF7A1BA08B540F27A610122FFF78CFA4D
:1039C000012008BD40F27A610122FFF794BA08B5E0
:1039D00040F27B610122FFF77FFA012008BD40F22F
:1039E0007B610122FFF787BA08B546211022FFF755
:1039F00073FA102008BD46211022FFF77CBA38B5B3
:103A000005460C4611B9622102220BE04B1E172B12
:103A10000AD801F263610122FFF75EFA681C04F222
:103A2000A6710122FFF758FA022038BD38B50546C5
:103A30000C4611B9622102220BE04B1E172B0CD849
:103A400001F263610122FFF756FA681C04F2A671C5
:103A50000122BDE83840FFF74EBA38BD08B55C21F9
:103A60000622FFF739FA062008BD5C210622FFF77F
:103A700042BA08B556210622FFF72EFA062008BDE5
:103A800056210622FFF737BA37B501390446172900
:103A900000F25581DFE811F01800240031003E00EB
:103AA0004B005800650072007F008C009900A60052
:103AB000B300C000CD00DA00E700F40001010E0100
:103AC0001B012801350142010DF10700FFF70CFB36
:103AD0009DF807502046382DA8BF3825DC2129E164
:103AE0000DF10700FFF70DFB9DF807502046382D1C
:103AF000A8BF38254FF48A711CE10DF10700FFF7CC
:103B00000DFB9DF807502046382DA8BF38254FF4EF
:103B1000A6710FE10DF10700FFF70DFB9DF80750AF
:103B20002046382DA8BF38254FF4C27102E10DF1AF
:103B30000700FFF70DFB9DF807502046382DA8BF62
:103B400038254FF4DE71F5E00DF10700FFF70DFBAE
:103B50009DF807502046382DA8BF38254FF4FA713C
:103B6000E8E00DF10700FFF70DFB9DF80750204638
:103B7000382DA8BF38254FF40B71DBE00DF107009D
:103B8000FFF70DFB9DF807502046382DA8BF3825BC
:103B90004FF41971CEE00DF10700FFF70DFB9DF812
:103BA00007502046382DA8BF38254FF42771C1E0B3
:103BB0000DF10700FFF70DFB9DF807502046382D4B
:103BC000A8BF38254FF43571B4E00DF10700FFF7B9
:103BD0000DFB9DF807502046382DA8BF38254FF41F
:103BE0004371A7E00DF10700FFF70DFB9DF80750AB
:103BF0002046382DA8BF38254FF451719AE00DF1B9
:103C00000700FFF70DFB9DF807502046382DA8BF91
:103C100038254FF45F718DE00DF10700FFF70DFBC4
:103C20009DF807502046382DA8BF38254FF46D71F8
:103C300080E00DF10700FFF70DFB9DF807502046CF
:103C4000382DA8BF38254FF47B7173E00DF10700C4
:103C5000FFF70DFB9DF807502046382DA8BF3825EB
:103C600040F2244166E00DF10700FFF70DFB9DF8DF
:103C700007502046382DA8BF382540F25C4159E056
:103C80000DF10700FFF70DFB9DF807502046382D7A
:103C9000A8BF382540F294414CE00DF10700FFF732
:103CA0000DFB9DF807502046382DA8BF382540F25F
:103CB000CC413FE00DF10700FFF70DFB9DF80750E9
:103CC0002046382DA8BF382540F2045132E00DF1CE
:103CD0000700FFF70DFB9DF807502046382DA8BFC1
:103CE000382540F23C5125E00DF10700FFF70DFBB0
:103CF0009DF807502046382DA8BF382540F2745152
:103D000018E00DF10700FFF70DFB9DF80750204666
:103D1000382DA8BF382540F2AC510BE00DF107005B
:103D2000FFF70DFB9DF807502046382DA8BF38251A
:103D300040F2E4513822FFF7CFF8284600E0002097
:103D400003B030BD013A13B50C46172A00F2688162
:103D5000DFE812F018002500330041004F005D003D
:103D60006B00790087009500A300B100BF00CD0073
:103D7000DB00E900F7000501130121012F013D01DE
:103D80004B015901DC213822FFF7B5F802A8382C85
:103D9000A8BF382400F8014DFFF7AEF940E14FF419
:103DA0008A713822FFF7A7F802A8382CA8BF382458
:103DB00000F8014DFFF7ADF932E14FF4A67138225A
:103DC000FFF799F802A8382CA8BF382400F8014D55
:103DD000FFF7ACF924E14FF4C2713822FFF78BF8FA
:103DE00002A8382CA8BF382400F8014DFFF7ABF922
:103DF00016E14FF4DE713822FFF77DF802A8382C67
:103E0000A8BF382400F8014DFFF7AAF908E14FF4E4
:103E1000FA713822FFF76FF802A8382CA8BF3824AF
:103E200000F8014DFFF7A9F9FAE04FF40B713822C1
:103E3000FFF761F802A8382CA8BF382400F8014D1C
:103E4000FFF7A8F9ECE04FF419713822FFF753F8A7
:103E500002A8382CA8BF382400F8014DFFF7A7F9B5
:103E6000DEE04FF427713822FFF745F802A8382C1E
:103E7000A8BF382400F8014DFFF7A6F9D0E04FF4B1
:103E800035713822FFF737F802A8382CA8BF38243C
:103E900000F8014DFFF7A5F9C2E04FF44371382255
:103EA000FFF729F802A8382CA8BF382400F8014DE4
:103EB000FFF7A4F9B4E04FF451713822FFF71BF873
:103EC00002A8382CA8BF382400F8014DFFF7A3F949
:103ED000A6E04FF45F713822FFF70DF802A8382CE6
:103EE000A8BF382400F8014DFFF7A2F998E04FF47D
:103EF0006D713822FEF7FFFF02A8382CA8BF3824C6
:103F000000F8014DFFF7A1F98AE04FF47B713822E8
:103F1000FEF7F1FF02A8382CA8BF382400F8014DA5
:103F2000FFF7A0F97CE040F224413822FEF7E3FFDE
:103F300002A8382CA8BF382400F8014DFFF79FF9DC
:103F40006EE040F25C413822FEF7D5FF02A8382C23
:103F5000A8BF382400F8014DFFF79EF960E040F259
:103F600094413822FEF7C7FF02A8382CA8BF382496
:103F700000F8014DFFF79DF952E040F2CC413822A4
:103F8000FEF7B9FF02A8382CA8BF382400F8014D6D
:103F9000FFF79CF944E040F204513822FEF7ABFFF2
:103FA00002A8382CA8BF382400F8014DFFF79BF970
:103FB00036E040F23C513822FEF79DFF02A8382C33
:103FC000A8BF382400F8014DFFF79AF928E040F225
:103FD00074513822FEF78FFF02A8382CA8BF38246E
:103FE00000F8014DFFF799F91AE040F2AC51382280
:103FF000FEF781FF02A8382CA8BF382400F8014D35
:10400000FFF798F90CE040F2E4513822FEF773FF15
:1040100002A8382CA8BF382400F8014DFFF797F903
:1040200002B010BD013908B5172941D8DFE801F009
:104030000C0E10121416181A1C1E20222426282AD0
:104040002C2E30323436383A7C212CE07D212AE087
:104050007E2128E07F2126E0802124E0812122E0CA
:10406000822120E083211EE084211CE085211AE0CA
:10407000862118E0872116E0882114E0892112E0CA
:104080008A2110E08B210EE08C210CE08D210AE0CA
:104090008E2108E08F2106E0902104E0912102E0CA
:1040A000922100E093210122FEF716FF012008BDB6
:1040B000002008BD013917293FD8DFE801F00C0EB8
:1040C00010121416181A1C1E20222426282A2C2E00
:1040D00030323436383A7C212CE07D212AE07E21B2
:1040E00028E07F2126E0802124E0812122E0822136
:1040F00020E083211EE084211CE085211AE0862136
:1041000018E0872116E0882114E0892112E08A2135
:1041100010E08B210EE08C210CE08D210AE08E2135
:1041200008E08F2106E0902104E0912102E0922135
:1041300000E093210122FEF7DEBE7047013908B589
:10414000172941D8DFE801F00C0E10121416181AC6
:104150001C1E20222426282A2C2E30323436383AAF
:1041600094212CE095212AE0962128E0972126E051
:10417000982124E0992122E09A2120E09B211EE051
:104180009C211CE09D211AE09E2118E09F2116E051
:10419000A02114E0A12112E0A22110E0A3210EE051
:1041A000A4210CE0A5210AE0A62108E0A72106E051
:1041B000A82104E0A92102E0AA2100E0AB2101220C
:1041C000FEF78AFE012008BD002008BD013917292D
:1041D0003FD8DFE801F00C0E10121416181A1C1E3E
:1041E00020222426282A2C2E30323436383A9421A4
:1041F0002CE095212AE0962128E0972126E09821BD
:1042000024E0992122E09A2120E09B211EE09C21BC
:104210001CE09D211AE09E2118E09F2116E0A021BC
:1042200014E0A12112E0A22110E0A3210EE0A421BC
:104230000CE0A5210AE0A62108E0A72106E0A821BC
:1042400004E0A92102E0AA2100E0AB210122FEF74F
:1042500052BE7047013908B5172941D8DFE801F08F
:104260000C0E10121416181A1C1E20222426282A9E
:104270002C2E30323436383AC4212CE0C5212AE0C5
:10428000C62128E0C72126E0C82124E0C92122E078
:10429000CA2120E0CB211EE0CC211CE0CD211AE078
:1042A000CE2118E0CF2116E0D02114E0D12112E078
:1042B000D22110E0D3210EE0D4210CE0D5210AE078
:1042C000D62108E0D72106E0D82104E0D92102E078
:1042D000DA2100E0DB210122FEF7FEFD012008BD0E
:1042E000002008BD013917293FD8DFE801F00C0E86
:1042F00010121416181A1C1E20222426282A2C2ECE
:1043000030323436383AC4212CE0C5212AE0C621A7
:1043100028E0C72126E0C82124E0C92122E0CA21E3
:1043200020E0CB211EE0CC211CE0CD211AE0CE21E3
:1043300018E0CF2116E0D02114E0D12112E0D221E3
:1043400010E0D3210EE0D4210CE0D5210AE0D621E3
:1043500008E0D72106E0D82104E0D92102E0DA21E3
:1043600000E0DB210122FEF7C6BD7047013908B528
:10437000172959D8DFE801F00C0F1215181B1E2160
:1043800024272A2D303336393C3F4245484B4E5185
:1043900040F2346143E040F2356140E040F2366182
:1043A0003DE040F237613AE04FF4C76137E040F258
:1043B000396134E040F23A6131E040F23B612EE095
:1043C00040F23C612BE040F23D6128E040F23E616A
:1043D00025E040F23F6122E04FF4C8611FE040F267
:1043E00041611CE040F2426119E040F2436116E095
:1043F00040F2446113E040F2456110E040F2466152
:104400000DE040F247610AE04FF4C96107E040F275
:10441000496104E040F24A6101E040F24B6101224F
:10442000FEF75AFD012008BD002008BD01391729FB
:1044300057D8DFE801F00C0F1215181B1E21242796
:104440002A2D303336393C3F4245484B4E5140F2DD
:10445000346143E040F2356140E040F236613DE0D6
:1044600040F237613AE04FF4C76137E040F239611A
:1044700034E040F23A6131E040F23B612EE040F23C
:104480003C612BE040F23D6128E040F23E6125E0D6
:1044900040F23F6122E04FF4C8611FE040F2416109
:1044A0001CE040F2426119E040F2436116E040F244
:1044B000446113E040F2456110E040F246610DE0D6
:1044C00040F247610AE04FF4C96107E040F24961F8
:1044D00004E040F24A6101E040F24B610122FEF744
:1044E0000ABD7047013908B5172959D8DFE801F02E
:1044F0000C0F1215181B1E2124272A2D3033363994
:104500003C3F4245484B4E5140F24C6143E040F243
:104510004D6140E040F24E613DE040F24F613AE0D3
:104520004FF4CA6137E040F2516134E040F2526129
:1045300031E040F253612EE040F254612BE040F252
:10454000556128E040F2566125E040F2576122E0D3
:104550004FF4CB611FE040F259611CE040F25A6118
:1045600019E040F25B6116E040F25C6113E040F25A
:104570005D6110E040F25E610DE040F25F610AE0D3
:104580004FF4CC6107E040F2616104E040F2626107
:1045900001E040F263610122FEF79EFC012008BDAC
:1045A000002008BD0139172957D8DFE801F00C0FAA
:1045B0001215181B1E2124272A2D303336393C3F73
:1045C0004245484B4E5140F24C6143E040F24D6150
:1045D00040E040F24E613DE040F24F613AE04FF47E
:1045E000CA6137E040F2516134E040F2526131E09B
:1045F00040F253612EE040F254612BE040F25561ED
:1046000028E040F2566125E040F2576122E04FF485
:10461000CB611FE040F259611CE040F25A6119E0A1
:1046200040F25B6116E040F25C6113E040F25D61D4
:1046300010E040F25E610DE040F25F610AE04FF48D
:10464000CC6107E040F2616104E040F2626101E0A8
:1046500040F263610122FEF74EBC7047653908B530
:104660001F2975D8DFE801F0101316191C1F222529
:10467000282B2E3134373A3D404346494C4F525552
:10468000585B5E6164676A6D40F27C615BE040F29A
:104690007D6158E040F27E6155E040F27F6152E07A
:1046A0004FF4D0614FE040F281614CE040F2826112
:1046B00049E040F2836146E040F2846143E040F229
:1046C000856140E040F286613DE040F287613AE07A
:1046D0004FF4D16137E040F2896134E040F28A6101
:1046E00031E040F28B612EE040F28C612BE040F231
:1046F0008D6128E040F28E6125E040F28F6122E07A
:104700004FF4D2611FE040F291611CE040F29261EF
:1047100019E040F2936116E040F2946113E040F238
:10472000956110E040F296610DE040F297610AE079
:104730004FF4D36107E040F2996104E040F29A61DE
:1047400001E040F29B610122FEF7C6FB012008BD9B
:10475000002008BD65391F2973D8DFE801F0101368
:1047600016191C1F2225282B2E3134373A3D404381
:1047700046494C4F5255585B5E6164676A6D40F222
:104780007C615BE040F27D6158E040F27E6155E083
:1047900040F27F6152E04FF4D0614FE040F281611E
:1047A0004CE040F2826149E040F2836146E040F231
:1047B000846143E040F2856140E040F286613DE083
:1047C00040F287613AE04FF4D16137E040F289610D
:1047D00034E040F28A6131E040F28B612EE040F239
:1047E0008C612BE040F28D6128E040F28E6125E083
:1047F00040F28F6122E04FF4D2611FE040F29161FC
:104800001CE040F2926119E040F2936116E040F240
:10481000946113E040F2956110E040F296610DE082
:1048200040F297610AE04FF4D36107E040F29961EA
:1048300004E040F29A6101E040F29B610122FEF740
:104840005ABB7047013908B5032913D8DFE801F0D6
:104850000205080B40F29C6107E040F29D6104E014
:1048600040F29E6101E040F29F610122FEF734FBBD
:10487000012008BD002008BD0139032911D8DFE857
:1048800001F00205080B40F29C6107E040F29D61D7
:1048900004E040F29E6101E040F29F610122FEF7D8
:1048A0002ABB704708B50846114604F0F5FF002002
:1048B00008BD38B50A220023044626F0B6FD054699
:1048C000204626F095FD284438BD38B50A2200233D
:1048D000044626F0AAFD0546204626F089FD284418
:1048E00038BDFFFF10B5044616480EF095F916487E
:1048F00026F07EFD14481549FBF7C9FD6379642B4A
:104900001ED9A37903F00F03012B04D1E11D104838
:1049100012F0BAFC0DE0022B02D10EF083F903E095
:10492000032B06D10EF082F90246E11D08480EF075
:1049300081F9074800214122BDE8104029F0D2BA90
:1049400010BD00BF9998000010E5FF1F58F4020049
:104950008495FF1F70B5084D084C29782046C90181
:1049600002F084F8297801222046C9011346BDE8E7
:10497000704003F0A1BD00BF0892FF1F7496FF1F97
:1049800038B5254B1B78032B05460C461CD006D8A2
:10499000012B10D0022B39D10EF044F916E0662B12
:1049A0001FD0672B28D0042B30D108462A461B493C
:1049B0000AF010FC1EE00846184A294612F072FC64
:1049C000003018BF012038BD0EF030F903461349FE
:1049D000284622460EF06AF9D0F1010038BF0020C7
:1049E00038BD0EF01FF90D490346224628460EF049
:1049F000E5F908B1002038BD0EF018F90749034663
:104A0000224628460EF0DAF90028F3D1044803F0D4
:104A10005FFF012038BD00BF0892FF1FB892FF1F43
:104A200076F402002DE9F04F91B0DFF85082874D07
:104A300098F8003093466A46A2EBC3128A460021DA
:104A400004AF0646954628460A4611F09CFB07F13E
:104A50000C000FF056FF07F118000FF052FF07F19E
:104A600024000FF04EFF98F8003005F11400DB0130
:104A70004FF001116B600FF0B7FF0DF11009044604
:104A8000002875D1724B98F800207B60194605F11B
:104A90002C00920110F003F87B680446002867D1CF
:104AA00098F80020920105F1380099180FF0F7FFEF
:104AB000044600285CD105F1080005F12C0105F140
:104AC000380210F0C4FA0446002851D107F10C0056
:104AD00005F12C01012210F0A4FA0446002847D168
:104AE00007F1180005F13801012210F09AFA044686
:104AF00000283DD107F1240007F10C0107F118024D
:104B000010F0A5FA044698BB05F1200005F1140148
:104B100007F1240210F0D0FF044648BB05F1440021
:104B200005F1200107F10C0210F0CEFC0446F8B9A3
:104B300005F1500005F1200107F1180210F0C4FC46
:104B40000446A8B905F15C0005F1380105F12C0215
:104B500010F0B2FF044658B93E493F4826F058FCD1
:104B600069683D48FFF7A5FE284611F045FB04465D
:104B700007F10C000FF0CCFE07F118000FF0C8FE93
:104B800007F124000FF0C4FE33482CB1334922460C
:104B900026F03EFC324851E03249FBF770FC3146CA
:104BA0002D48FBF788FC98F8003080226FF009014F
:104BB00012FB0311B142DCBF6FF00A0612FB036661
:104BC000202E0CD003DC1C2E0BD105230AE0302E46
:104BD00003D0402E05D1082304E0072302E006237A
:104BE00000E0002300228DE848041F49CDF80C9016
:104BF0000123164811F080FE1C4904461648FBF7B5
:104C00003EFC5046314601F031FF98F800204946FD
:104C1000D20158461BF002FB0C4811F03BFF0E4836
:104C200024B91349FBF733FC20460BE01149FBF78D
:104C300026FC09482146FBF73EFC0F4803F048FEDE
:104C40004FF0FF303437BD46BDE8F08FD894FF1FDA
:104C5000D892FF1F8FF4020010E5FF1F9BF40200A3
:104C6000B4F40200D8F40200A5480000F3F40200F6
:104C700001F5020018F50200EBF502000892FF1F93
:104C80002DE9F04F95B05B4B19784FF0FF3202EBF6
:104C9000C11202F1010A083222F0070202AFE9460E
:104CA000ADEB020D544A117802AC9B4621B90A467D
:104CB00006F040FEF82295E0042940F08E80DFF8EF
:104CC00068814E4ED8F800301C2B454619D023F091
:104CD0001002202A15D0402B13D0494803F0F8FDCC
:104CE00047494848FBF7D3FBD8F800104548FBF785
:104CF000E2FB012004F04CF80021C8F800103068F5
:104D000066E0DFF8288198F8001098F801200093F9
:104D100030683D4B06F074FE3A4826F069FB2A687D
:104D20003A49384826F074FB364826F061FB306873
:104D3000296801F09BFE364B366824221A703146F2
:104D40002A687B6007F108001BF068FA30460021F2
:104D50004FF4806229F0C6F828682E4D07F108014B
:104D60002246FFF75FFE7B680646F0B9F6222A4925
:104D700024481A70FBF783FB2046514601F076FE6B
:104D800098F802209BF800102A70012A20464FEA6A
:104D9000C11103D1134603F08FFB0BE032463346BB
:104DA00003F08AFB04F0DCF804E000221B481A70D0
:104DB00003F08EFD552003F0EBFF20460021524604
:104DC00029F090F82B78012B0ED0154B1868002194
:104DD0004FF4806229F086F806E00A481149FBF793
:104DE00056FB23220A4B1A704C37CD46BD46BDE810
:104DF000F08F00BF0892FF1F0CBAFF1FB88CFF1F77
:104E000038F5020010E5FF1F1091FF1F61F5020049
:104E1000E1B9FF1FE4B9FF1F7AF5020087F5020030
:104E2000A88CFF1F9EF5020058BAFF1FA59BFF1F0D
:104E30002DE9F0438FB00EAC002544F8285D0646FE
:104E400088466E486E49174626F0E2FA21466D4CB8
:104E50006A48FFF73AFD29462A46204611F093F9A1
:104E600005A80FF04EFD684D08A80FF04AFD0BA8ED
:104E70000FF047FD2B7804F11400DB014FF0011116
:104E800063600FF0B1FD0490002862D12A78DFF84A
:104E9000949104F12C00494692010FF000FE049019
:104EA000002856D12A78920104F1380009EB02015A
:104EB0000FF0F5FD049000284BD104F1080004F137
:104EC0002C0104F1380210F0C2F80490002840D1FF
:104ED00005A804F12C01012210F0A3F80490002889
:104EE00037D108A804F13801012210F09AF8049093
:104EF00078BB0BA805A908AA10F0A9F8049040BB3C
:104F000004F1200004F114010BAA10F0D5FD049067
:104F1000F8B904F1440004F1200105AA10F0D4FA14
:104F20000490B0B904F1500004F1200108AA10F077
:104F3000CBFA049068B904F15C0004F1380104F183
:104F40002C0210F0B9FD049018B92C486168FFF7E5
:104F5000B0FC05A80FF0DCFC08A80FF0D9FC0BA8EA
:104F60000FF0D6FC2949254826F052FA61682348FB
:104F7000FFF79FFC234811F03FF9049050B12449FA
:104F80001E48FBF77CFA1D480499FBF794FA214868
:104F900003F09EFC049C84B91F491848FBF76FFA84
:104FA0004FF4007303938DE84001029715482146A2
:104FB0002246012311F024FC0490124811F06AFDEE
:104FC000049C0E4854B91549FBF761FA0B48316847
:104FD0000A22234626F029FA20460BE00C49FBF76B
:104FE0004EFA04990548FBF766FA0D4803F070FC89
:104FF0004FF0FF300FB0BDE8F08300BF10E5FF1F9A
:10500000CAF502000C92FF1F0892FF1F8FF40200E6
:1050100018F50200B4F40200D8F5020001F5020010
:10502000E5F50200D892FF1F2DE9F04F85B0574BF0
:1050300002AF197800257D6021B90A4606F07AFC96
:10504000F9229DE0042940F09680514CDFF874B1BC
:1050500023689BF800204F4EB3EBC21FEA4611D0E5
:105060004D4803F035FC4C494C48FBF710FA2168D9
:105070004A48FBF720FA012003F08AFE25603068D9
:10508000294672E0DFF84081DFF8349198F800108B
:1050900098F8012000933068414B06F0B1FC3F487E
:1050A00026F0A6F922683F493C4826F0B1F93B4872
:1050B00026F09EF93068216801F0D8FC242389F895
:1050C00000309BF800303668AAEBC31295460DF10C
:1050D000080B31462268344C58461BF09FF8304686
:1050E00029464FF4806228F0FDFE5946381D22689B
:1050F0002E4EFFF79DFE834650BBF623274889F8C6
:10510000003026F075F92A492448FBF7B8F9796888
:105110002248FFF7CEFB27492048FBF7B0F9796812
:10512000206801F0A3FC1D4826F062F998F80220DF
:105130003270012A2068796803D1134603F0BCF964
:105140000BE05A465B4603F0B7F903F009FF04E0B1
:10515000194889F8005003F0BBFB552003F018FEF6
:105160003378012B05D0206800214FF4806228F0AD
:10517000B9FED54606E009481049FBF788F9232215
:105180000F4B1A700C37BD46BDE8F08F0CBAFF1FED
:1051900058BAFF1FB88CFF1F14F6020010E5FF1F5E
:1051A0001091FF1F40F60200A88CFF1FE4B9FF1FFB
:1051B0005CF602006DF602007AF602009EF502002F
:1051C000E1B9FF1F0892FF1FA59BFF1FF0B5234900
:1051D000234F8BB005462348FBF751F901A80FF088
:1051E00090FB2DB204A80FF08CFBAE0107A80FF0C6
:1051F00088FB01A8394632460FF051FC044698B9A5
:1052000004A8B91932460FF04AFC044660B907A851
:1052100001A904AA0FF01BFF044628B907A81249E8
:10522000EA010FF076FC044601A80FF071FB04A818
:105230000FF06EFB07A80FF06BFB14B909480B4980
:1052400004E00B4803F044FB06480A49FBF717F952
:105250000548E90101F00AFC0BB0F0BD94F602002C
:10526000D892FF1F10E5FF1F7496FF1FABF60200D8
:10527000BFF60200DDF602002DE9F0438FB00EAC60
:10528000002544F8285D80460F4660486049164670
:1052900026F0BEF821465F4C5C48FFF716FB294616
:1052A0002A46204610F06FFF05A80FF02AFB5A4D42
:1052B00008A80FF026FB0BA80FF023FB2B7804F1B6
:1052C0001400DB014FF0011163600FF08DFB0490BF
:1052D000002862D12A78DFF8549104F12C00494665
:1052E00092010FF0DCFB0490002856D12A7892013D
:1052F00004F1380009EB02010FF0D1FB0490002803
:105300004BD104F1080004F12C0104F138020FF034
:105310009EFE0490002840D105A804F12C01012232
:105320000FF07FFE0490002837D108A804F138015F
:1053300001220FF076FE049078BB0BA805A908AAFD
:105340000FF085FE049040BB04F1200004F114012D
:105350000BAA10F0B1FB0490F8B904F1440004F179
:10536000200105AA10F0B0F80490B0B904F1500083
:1053700004F1200108AA10F0A7F8049068B904F11C
:105380005C0004F1380104F12C0210F095FB04904C
:1053900018B91E486168FFF78CFA05A80FF0B8FA33
:1053A00008A80FF0B5FA0BA80FF0B2FA1B4917487E
:1053B00026F02EF861681548FFF77BFA154810F0C3
:1053C000EFFE0246049008B1104814E01449CDF8ED
:1053D00000801346019702960E4811F09BF9049045
:1053E0000C4811F057FB049C084824B90D49FBF701
:1053F00046F8204607E00C49FBF741F803480499BA
:10540000FBF759F804980FB0BDE8F08310E5FF1FD3
:10541000F9F60200C895FF1F0892FF1F8FF40200E3
:10542000A548000001F5020018F50200D892FF1F00
:10543000F0B50025ECB20B1B0444DBB2E4B29C4295
:1054400005F1010504D2165DD75C1755D654F1E776
:10545000F0BDFFFF08B519480021412228F042FDA8
:10546000174B1B78012B04D1144816490BF0CAFDC9
:105470001AE0022B02D10DF0D5FB03E0032B07D17C
:105480000DF0D4FB02460D490E480DF0D6FC0BE0A2
:10549000042B09D100201F210A4AFFF7C9FF074842
:1054A0000849002209F096FE07490848FAF7EFFF7D
:1054B00002484121BDE8084001F0D8BA8495FF1F99
:1054C0000892FF1FB892FF1F07F7020010E5FF1FA9
:1054D00038B5184C0546407906F0DCFA2378012BE4
:1054E00005D1AB79042B02D12370FFF7B3FF12492A
:1054F0001248FAF7CCFF1248412101F0B7FA23789D
:10550000042B04D0012B14BF4021202100E02021D6
:10551000012213460A4802F0CFFF0021402208482A
:1055200028F0E0FC074800212022BDE8384028F0A0
:10553000D9BC00BF0892FF1F17F7020010E5FF1F3C
:105540008495FF1FB892FF1F38B505462C460AF018
:1055500049F9044B44F8783B20460BF0C7FA6C60DD
:10556000284638BDF0F302002DE9F04FADF5097D76
:1055700002AF044607F1A0009A46F96090460BF08E
:1055800055F807F1A0000AF0FBFF073020F00700F4
:10559000ADEB000D07F1A0000AF0F2FF07F58C76E5
:1055A000BAFBF0FB00213046FF2228F09BFC02AD45
:1055B0004FF000099F4B4B441B79022B28D19E4989
:1055C0009E48FAF75CFF4946304601F04FFA07F172
:1055D0003000FCF76DFC4A4607F130003146FCF71D
:1055E00091FC07F130003146FCF7ADFC944993483B
:1055F000FAF745FF3046202101F038FA84B92146F8
:1056000007F11000212228F06DFC07F1100407E0DB
:10561000B9F1FF0FD3D006F8093009F10109C9E744
:1056200088498648FAF72BFF2046212101F01EFA0F
:10563000214607F1A00021220BF077F9F96820221A
:1056400007F1A0000BF0E0F807F1A0000AF098FFC6
:105650002146212200902B4607F1A0000BF07EF995
:1056600007F1A0000AF08CFF00F1210300F12009EE
:10567000283020F00700ADEB000D02ACFB600123E9
:1056800004F8093007F1A0000AF07AFF07F59C7EC4
:105690002218334603CB7345106051601E4602F159
:1056A0000802F6D107F1A0000AF06AFF2946024677
:1056B00007F1A0000BF039F907F1A0000AF060FF34
:1056C0002122211807F1A0000BF09EF807F1A0009D
:1056D0000AF056FF064607F1A0000AF051FF3246D5
:1056E00029460090434607F1A0000BF037F914F863
:1056F0000930013304F8093007F1A0000AF040FF37
:105700004146024620461AF089FD01265E4507F112
:10571000A0003DDA0AF034FF2946024607F1A00056
:105720000BF003F92146FA6807F1A0000BF06CF8C2
:1057300007F1A0000AF024FF024607F1A0007A60FA
:105740000AF01EFF06FB008307F1A000BB600AF011
:1057500017FF00907A68BB68294607F1A0000BF09C
:10576000FDF814F80930013304F8093007F1A000FE
:105770000AF006FF06FB008107F1A000B9600AF0FD
:10578000FFFEB968024620461AF048FD0136BDE723
:105790000AF0F6FEBAFBF0F303FB10A000283CD0A1
:1057A00007F1A0000AF0ECFE073020F00700E94600
:1057B000ADEB000D07F1A0000AF0E2FE0BFB10AA12
:1057C00007F1A0000AF0DCFE2946024607F1A0001E
:1057D0000BF0ABF82146FA6807F1A0000BF014F8C3
:1057E00007F1A0000AF0CCFE044607F1A0000AF081
:1057F000C7FE02AE009029462246334607F1A000BC
:105800000BF0ACF807F1A0000AF0BAFE31460BFB32
:10581000008052461AF002FDCD4607F1A0000AF0C2
:10582000DFFE07F1A0000AF0E7FE07F50777BD46A7
:10583000BDE8F08F289CFF1F3EF7020010E5FF1F18
:1058400043F702004DF7020070B506469CB00D46C6
:105850001446F2B9842006F01DF92146412224485D
:1058600028F040FB6846FCF723FB684621492022CC
:10587000FCF748FB202268462946FCF743FB1D49FC
:105880006846FCF760FB1C4825F0B2FD1A481B492E
:1058900022E0802A26D1104606F0FCF8164825F0B2
:1058A000A7FD17491448FAF7F2FD1248202101F02C
:1058B000DDF814491048FAF7EAFD2846212101F0E5
:1058C000D5F80C4928460A462023FFF74DFE0A4822
:1058D00025F08EFD08480C49FAF7D9FD054820212E
:1058E00001F0C4F8094B1E70FFF7B4FD1CB070BD89
:1058F0008495FF1FB892FF1F10E5FF1F52F70200AB
:105900006FF7020082F702008DF702000892FF1F76
:1059100010B50446174825F06BFD16481649FAF7EE
:10592000B6FD6079042809D8A3794BB906F034F99B
:10593000F8B12046BDE81040FFF70CB8742807D82E
:1059400006F0A8F8A8B12046BDE81040FFF7C0BD9A
:1059500084280ED1A07904280BD8E11D0022FFF77E
:1059600073FF0022054840211346BDE8104002F0B5
:10597000A3BD10BD10E5FF1F96F702008495FF1F21
:105980002DE9F043814D824E824C2B68727831783C
:10599000F1B00746009320687F4B06F031F87F484E
:1059A00025F026FD7E497D48FAF769FD29687B4888
:1059B000FAF781FD2068296801F058F84EA8002107
:1059C000882228F08FFA774B4E93774B4F93774B83
:1059D000509378794023519320235293C8282EABBB
:1059E0005393B14632D9C92804D129682368203994
:1059F000012005E0CA2806D1296823682039022041
:105A0000194400221CE0CB2804D1296823682039DE
:105A10000320F5E7D32804D1296823682039012021
:105A20000CE0D42804D1296823682039022005E03D
:105A3000D52807D1296823682039032019448022FA
:105A4000FFF702FF2B68203B2B6006E0A0F1650307
:105A50000F2B00F2978006F01DF82A684B4FDFF8F5
:105A60007481202A12AE01D0402A04D102A82168F4
:105A70001AF0D4FB11E03046FCF71AFA30462168E0
:105A80003A68FCF73FFA304602A9FCF75CFA98F84E
:105A90000030012B1CBF20233B6045493F483B4F52
:105AA000FAF7F5FC296802A800F0E0FF41493B48FD
:105AB000FAF7E5FC98F800103848FAF7F2FC3E498E
:105AC0003648FAF7E4FC3D48202100F0CFFF3C4A7D
:105AD0002423137098F80030012B154608D13B6839
