:1000000000800020BD010000055B0200D15A020003
:10001000D15A0200D15A0200D15A0200D15A02002C
:10002000D15A0200D15A0200D15A0200055B0200E7
:10003000055B0200D15A0200055B0200C15A0200B2
:10004000055B0200055B0200055B0200055B020028
:10005000055B0200055B0200055B0200055B020018
:10006000055B0200055B0200055B0200055B020008
:10007000055B0200055B0200055B0200055B0200F8
:10008000055B0200055B0200055B0200055B0200E8
:10009000055B0200055B0200055B0200055B0200D8
:1000A000055B0200055B0200055B0200055B0200C8
:1000B000055B0200055B0200055B0200055B0200B8
:1000C000055B0200055B0200055B0200055B0200A8
:1000D000055B0200055B0200055B0200055B020098
:1000E000055B0200055B0200055B0200055B020088
:1000F000055B0200357C0200055B0200A976020068
:10010000055B020065710200055B0200055B0200F1
:10011000055B0200055B0200055B0200055B020057
:10012000055B0200055B0200055B0200055B020047
:10013000055B0200055B0200055B0200055B020037
:10014000055B0200055B0200055B0200055B020027
:10015000055B0200055B0200055B0200055B020017
:10016000055B0200E9BE0100055B0200055B0200C1
:10017000055B0200055B0200055B0200055B0200F7
:10018000055B0200055B0200055B0200055B0200E7
:10019000055B0200055B0200055B0200055B0200D7
:1001A000055B0200055B0200055B0200055B0200C7
:1001B000055B0200055B0200055B0200564B4CF23A
:1001C000205210B51A804DF628121A8000BF00BFC9
:1001D00025F09CFC514B4FF010621A60504A9A6017
:1001E000504ADA60A3F53043203B1A6812F480725B
:1001F00004D14D490A604FF4A8521A604B4B1A784B
:10020000110703D51A7842F008021A70484B2A22C7
:100210001A700023474A48499818884204D247492F
:10022000595899500433F5E7454A464B9A424FF0E6
:10023000000302D242F8043BF7E74349434A5958C6
:1002400099500433B3F5DE7FF7D1414B802103F899
:10025000011B40498B42F9D13F4B1A603F4B0A22A8
:100260001A70A3F5805324225A70A0221A709A792A
:100270009207FCD59A79D406FCD4394B9A7902F0CE
:100280000C02082AF9D105221A7143225A719A796F
:100290009006FCD5324B9A795106FBD5314A4FF086
:1002A000817111600521516020221A702C4B9B79BD
:1002B00003F00C030C2BF9D12B4B2C4A1A602C4B5E
:1002C0002C4A1A6000225A60072243F8042C2A4A5A
:1002D000C3F80C2D62B61CF0FBFB134B1B68DA074E
:1002E00005D526481CF080FA254B264A1A60264B75
:1002F0001B785B0609D5224C224A2368934204D11D
:100300001E481CF071FA0023236028F087FB25F0BB
:1003100003FC26F0BDFCFEE70E20054030800440C3
:10032000823F04000100002B14D0034002D007409C
:1003300000E00740708CFF1FF08EFF1F84D3020087
:10034000F08EFF1FD4E6FF1F000000000082FF1F99
:1003500000E400E05FE400E008ED00E0005006404B
:10036000004006404480044004800440C010050062
:1003700014E000E03F19010000002020AD8DA96AC3
:100380001CE00340A5C3945A00F00740FFFFFFFFA5
:10039000FFFFFFFFFFFFFFFFFFFFFFFFFFFFFFFF6D
:1003A000FFFFFFFFFFFFFFFFFFFFFFFFFFFFFFFF5D
:1003B000FFFFFFFFFFFFFFFFFFFFFFFFFFFFFFFF4D
:1003C000FFFFFFFFFFFFFFFFFFFFFFFFFFFFFFFF3D
:1003D000FFFFFFFFFFFFFFFFFFFFFFFFFFFFFFFF2D
:1003E000FFFFFFFFFFFFFFFFFFFFFFFFFFFFFFFF1D
:1003F000FFFFFFFFFFFFFFFFFFFFFFFFFFFFFFFF0D
:10040000FFFFFFFFFFFFFFFFFFFFFFFFFEFFFFFFFD
:1004100010B5054C237833B9044B13B10448AFF33E
:1004200000800123237010BDF08EFF1F000000002C
:1004300084D3020008B5064B1BB106480649AFF34A
:1004400000800648036813B1054B03B1984708BD07
:100450000000000084D30200F48EFF1FF08EFF1F07
:100460000000000038B5044608460D4628F0A5FDFA
:10047000236802465B6820462946984738BD08B580
:10048000FFF7F0FF08BD0A22002326F02BBC38B589
:100490000446FFF7E7FF0546204626F013FC2844F4
:1004A00038BD38B50446FFF7EEFF0546204626F076
:1004B00009FC284438BD38B5044626F04BFC0546F7
:1004C000204626F0FFFB284438BDFFFF08B5C820B2
:1004D0001CF0E8FA074A0023137053709370D3702E
:1004E00013715371044A1370044A1370BDE8084035
:1004F00025F012BDC4E4FF1FCAE4FF1FCBE4FF1FB9
:10050000F8B51A4B1A481B4E1B4F00251D701B4B8C
:1005100001241C7001F0AEFE194B1A481C60202209
:10052000294628F0DBFA0823337025F0F5FC0F2369
:100530003B7025F0F1FCFFF7C9FF347025F0ECFCAF
:100540000923337025F0E8FC14233B7025F0E4FC0C
:100550004FF4FA701CF0A6FA0B4B1D7025F0DCFC72
:10056000FFF7B4FF094B0A4A1A60F8BD99BAFF1F9A
:10057000FCBAFF1FCAE4FF1FC4E4FF1F808CFF1FEB
:10058000848CFF1F1091FF1FCBE4FF1F0CED00E0D8
:100590000400FA052DE9F04FA74C9FB00023054653
:1005A0000DF10F00237002F029FCA44B1B7823B936
:1005B0009DF80F3003F00F0305E0012B08D19DF8E3
:1005C0000F301B090C339D4202D1FFF799FF34E332
:1005D0009B4E2946304602F09DFB317811B93046DA
:1005E00002F098FB337813B9954B04221A70294610
:1005F0000DF10E0003F0D4FB92499348FFF747FF3B
:1006000091489DF80E10FFF74CFF9DF80E80C8F33F
:10061000C0038DF80E308D4B1E78002E40F00D83F8
:100620008B498948DFF86492FFF729FF894B864898
:1006300019683039FFF73FFF314640220EA828F0F5
:100640004DFA3146FB22484628F048FA0EA82946C2
:1006500005F0C4FF071E41DD7F497B48FFF717FF08
:100660007E497948FFF70BFF39467748FFF723FFAC
:100670007B497548FFF70BFF0EA8394605F06CFE65
:10068000784B00970EA8E9B20F220AF021F89DF8E6
:100690003830082B0AD1013F0DF1390049463A465E
:1006A00023780CF065F90126277017E00EA849465B
:1006B0003A4623780CF05CF9FBB2022209F80320D9
:1006C000694961487B1C2370FFF7E1FE0EA839469B
:1006D00005F042FE5C486549FFF7D9FE0021402243
:1006E0000EA828F0FBF90EA8294603F0E5FB9DF8BB
:1006F0003870C8F3800AFFB1002E32D15C495248ED
:10070000FFF7C5FE5B495048FFF7B9FE9DF838106A
:100710004D48FFF7B8FE4C485749FFF7B8FE9DF823
:1007200038701E2F00F28382237807F10A0209F83D
:100730000320013323707BE2BAF1000F13D09EB97E
:1007400037464E494048FFF7A2FE23783E484C49C1
:10075000012209F80320FFF79AFE23780133237062
:1007600002E0002700E057460EA8294606F080FA6E
:10077000B0F1000925DD43493348FFF788FE4249BF
:100780003148FFF77CFE49462F48FFF794FE494663
:100790000EA805F0E1FDCDF800900EA8E9B2022206
:1007A000304B09F095FF4A46237838490EA80CF0E3
:1007B000DFF849460EA805F0CFFD2378994484F868
:1007C00000900EA80021402208F0030928F086F9C5
:1007D000DFF8B8B0B9F1000F1ED0EEB9B9F1010FD2
:1007E00009D12B491848FFF752FE237816480BF819
:1007F000039023490BE0B9F1020F0DD124491248AF
:10080000FFF745FE237810480BF803902149FFF7C6
:100810003EFE237801332370002140220EA828F0E9
:100820005DF90EA8294603F0D3FB9DF838309BBB39
:100830004FF0000A4FE000BF348FFF1F30BBFF1F97
:10084000A48CFF1F2AA1020008E5FF1F55BAFF1F55
:1008500014960200E09BFF1F219602003B960200C7
:10086000499602001091FF1F539602005F96020006
:1008700078960200969602009D960200BF960200AE
:10088000E2960200E696020005970200508FFF1FD5
:10089000189702003A970200002EC9D1904991485A
:1008A000FFF7F5FD90498F48FFF7E9FD9DF83810F7
:1008B0008C48FFF7E8FD8B488C49FFF7E8FD9DF871
:1008C00038A0BAF11E0FB3D823780AF10A020BF848
:1008D0000320013323700EA8294602F093FFB0F1E4
:1008E00000092DDD82497F48FFF7D1FD81497D4810
:1008F000FFF7C5FD49467B48FFF7DDFD7E49794896
:10090000FFF7C5FD49460EA805F026FDCDF800907D
:100910000EA8E9B20522794B09F0DAFE4A4623789F
:1009200077490EA80CF024F876496E48FFF7AFFD22
:1009300049460EA805F010FD2378994484F80090EC
:100940000EA800214022C8F3011928F0C7F8DFF8EB
:10095000B0B1B9F1000F1AD0CEB962486A49FFF7B9
:1009600096FDB9F1010F05D123785E480BF803908D
:10097000664907E0B9F1020F09D1237859480BF80D
:1009800003906349FFF783FD23780133237000212F
:1009900040220EA828F0A2F80EA8294603F0A4FBD6
:1009A0009DF8383013B94FF000091EE0002EFAD13F
:1009B00058494C48FFF76BFD4B494A48FFF75FFD2C
:1009C0009DF838104748FFF75EFD46485249FFF74B
:1009D0005EFD9DF83890B9F11E0FE4D8237809F137
:1009E0000A020BF80320013323700EA800214022D5
:1009F00028F074F89DF80E307BB176B94749394834
:100A0000FFF745FD23783748404901220BF80320C2
:100A1000FFF73DFD2378013323700EA8294603F02C
:100A20001FFC9DF83830002B00F0CE80672B40F083
:100A300091803B492B48DFF8C8B0FFF728FD2946D5
:100A40000EA806F06FFC2C4906462648FFF71FFD4E
:100A500031460EA805F080FC32492248FFF70FFD11
:100A600031462048FFF727FD00960EA8E9B209227B
:100A7000224B09F02DFE237832460EA859460BF082
:100A800077FF20491748FFF702FD31460EA805F011
:100A900063FC32460EA904A801F0F0FF02F056F8FC
:100AA00038448244D14449460E4826F053F90D4853
:100AB00026F008F9494604A801F0E4FF064602F0D2
:100AC00081F8237880BB4E220BF803205B444F2231
:100AD00053215A70D970542245219A70197130E00F
:100AE0004197020008E5FF1F969602005F970200FB
:100AF00081970200A1970200499602001091FF1F02
:100B0000508FFF1F53960200B4970200E296020036
:100B10003A970200D6970200F4970200119802005B
:100B20002F9802004E98020032780BF803205B44A5
:100B300072785A70B2789A70F278DA7032791A71E3
:100B400072795A7123780EA806330021402223704F
:100B500027F0C4FF9DF83830394E792B0FD1394B2F
:100B60001B78022B0BD038493848FFF790FC2078CF
:100B7000002130440AF0B6FA23782C3323709DF814
:100B80003830322B01D0592B11D12E4B1B78022B30
:100B90000DD02F492D48FFF77AFC2078E9B2304478
:100BA0000AF0A0FA2378203303EB400020709DF870
:100BB0003830752B08D1234B1B78022B04D02378B7
:100BC0000922F254013323705FEAD8131C4D0DD073
:100BD00020491E48FFF75BFC23781C481E49012270
:100BE000EA54FFF754FC23780133237018F0400FC8
:100BF0000DD018491548FFF74AFC237813481749C8
:100C00000222EA54FFF743FC237801332370237850
:100C10000E481349134C0022EA54FFF738FC14F82D
:100C2000011F51B1094803681B689847F7E7374629
:100C3000BAF1000F7FF485AD96E51FB0BDE8F08FE7
:100C4000508FFF1F30BBFF1F6198020008E5FF1F98
:100C5000819802009A980200E29602003A970200F8
:100C6000B79802004F8FFF1F0A4B1A780A4B18687B
:100C70001AB90A4A5278022A01D1243807E0012A17
:100C800001D12A3803E0032A0CBF1E383038FFF7A1
:100C900081BC00BF30BBFF1FE09BFF1F88BAFF1F56
:100CA0000D4B1A780D4B18681AB90D4A5278022A62
:100CB00001D1243807E0012A01D12A3803E0032AB0
:100CC0000CBF1E383038074B1B78092B0CBF033084
:100CD0000630FFF75FBC00BF30BBFF1FE09BFF1F6C
:100CE00088BAFF1FB78CFF1FF0B5ADF5844D9BB0E0
:100CF000054646F26004684621464FF4804205F0FE
:100D000044FB46F260039C4204D1284669464FF4F6
:100D1000804210E02B460DF5804605F1400718682B
:100D20005968324603C20833BB421646F7D12846FB
:100D3000694644F24002002315F06AF8044B04F5BA
:100D400080449C42D7D10DF5844D1BB0F0BD00BF4F
:100D500060A0030010B5464B1B6804461878A0F14C
:100D60003103082B06D84FF47A73303858431BF000
:100D700099FE42E074285CD072285ED03D4B1B780F
:100D8000002B3AD01CB125F065F9002435E070281D
:100D900032D0682855D0752855D06F2855D0652891
:100DA00055D0642855D0622855D04C2855D05228AB
:100DB00055D0552855D0442855D0452855D06328BE
:100DC00004D12D4B1A7842F0010213E0732804D1AC
:100DD000294B1A7842F002020CE0612804D1264B1C
:100DE0001A7842F0040205E0672806D1224B1A78EF
:100DF00042F008021A7000E04624204B1A780AB923
:100E00001C7012E05A780AB95C700EE09A780AB940
:100E10009C700AE0DA780AB9DC7006E01A790AB93F
:100E20001C7102E05A7902B95C71BDE8104025F0EE
:100E300073B8002CA7D12B24DFE7002CA3D12824E2
:100E4000DBE74A24D9E74B24D7E74E24D5E74D24E6
:100E5000D3E74C24D1E72A24CFE75024CDE74F2411
:100E6000CBE75224C9E75124C7E72924C5E700BFCF
:100E70004C90FF1F20BBFF1FCAE4FF1FC4E4FF1FED
:100E80002DE9F041644B654A1B781078644C4BB1F6
:100E9000AA2807D121680A7822B1092A02D0013193
:100EA0002160F3E721685F4E0D783778DFF87081B5
:100EB000B5B95D48FFF7E3FA5C485D4901F0FEF81B
:100EC0005A485C4901F02BF93046294601F022FFCF
:100ED0003378002B40F09E8004233370BDE8F0810E
:100EE00017FB07F7032697FBF6F6012D4FEAC60618
:100EF0004FEA470704D1002B7BD14FF22B006EE065
:100F0000022D04D1002B74D14FF2280067E0092D87
:100F100019D1494B1B78022B7CD043484749484C98
:100F2000FFF7B5FA01232360464B1E681D4606F500
:100F30007A662268002A61D02B68B3425ED2002014
:100F40000BF00EF8F5E7A5F10A02D0B215280DD87E
:100F5000002B5FD14FF47A7050431BF0A3FDD8F8FB
:100F600000300133C8F80030BDE8F081202D34D1C5
:100F70004A785C2A31D10131C8F800109BB1BDE834
:100F8000F0815C2B14D1264B01321A600020FFF750
:100F9000E1FE30461BF086FD23685A1C22605A7819
:100FA000202A07D04AB122681378002BE9D112E039
:100FB0000120ECE71A4A0233136025F097F8304617
:100FC0001BF070FD25F092F8FFF780FA3846BDE877
:100FD000F0411BF067BDBDE8F08153B9284625F00C
:100FE00039F830461BF05EFD25F080F838461BF0DE
:100FF00059FD236801332360BDE8F08100230B48CD
:101000000B49236001F05AF808480A49BDE8F0414D
:1010100001F085B8BDE8F08155BAFF1FD6B9FF1FB2
:101020004C90FF1FA48CFF1F08E5FF1F8490FF1F3B
:10103000388FFF1F0C8FFF1F30BBFF1FD19802009E
:1010400080BCFF1FCCE2FF1F08B507480749FFF728
:1010500016FA074806F024FF064B012205201A70F5
:1010600007F02CF8F5E700BF08E5FF1FE79802003E
:10107000E1980200D6B9FF1F2DE9F74FAC4F3B783E
:1010800004465BB9AB4B1B78092B05D1142803DD53
:10109000A94B1A6803321A602D2000E0002006F0E8
:1010A000C3FFA64B1A68022A984601DDFFF7CCFF62
:1010B000A34E336801333360A24B1A78002A45D01F
:1010C000684601F0B5FE9DF8003003B301A801F0B9
:1010D000A2FE9DF80430132B0AD900239A48FF2260
:1010E0001A540133202BF9D108F018FC002003E03A
:1010F00001338DF8043001A801F095FE934994481E
:10110000FFF7C5F992489DF80410FFF7CAF9914B13
:101110001A6801321A609DF8003032680133DBB280
:1011200001320A2B8DF80030326009D98A4988488B
:10113000FFF7ADF99DF800108548FFF7B2F939E0E7
:10114000684601F07DFE7F4A00231370DFF804B289
:10115000DFF8E4A1DBF800209AF800107F480132A4
:10116000CBF8002001F079F83268013232607C4A15
:1011700012680323B2FBF3F101EB4101501A1A404C
:1011800010441BF08FFC3A785546D946002A60D1AE
:10119000724801F089F800285BD1704801F0BEF96F
:1011A000002856D16D4801F0B7FA30B168486D4952
:1011B000FFF76DF906F090FE14E36B4CDBF80020AE
:1011C00023680132092BCBF8002015DC6749604801
:1011D000FFF755F9DAF800105D483039FFF76BF981
:1011E00063495B48FFF74BF959482168FFF763F9FA
:1011F000236801332360F5E2524B01251D70D8F8B6
:1012000000302B44C8F800305A4B03201D7006F004
:1012100055FF59494E48FFF732F9684601F008FE7C
:101220009DF800104A48C1F10A0125F093FD534989
:101230004748FFF72CF952494548FFF728F9474836
:1012400001F018F8D8F800302560022B40F3CA826C
:101250002CE7D9F8003097F800A00133C9F8003026
:10126000BAF1000F43D1504601F0EAFD3B4801F0CE
:1012700001F8444BC8F800A01A781D4622B942482C
:101280000AF0CEFD06F00CFE40484149394C00F012
:1012900015FF40492E48FFF7FAF8207806F0B4FB16
:1012A000552006F0B5FF3C4B1B78022B264606D096
:1012B00015F008FF002001F0B6FD0BF063FB374B83
:1012C000374A196811602A78012038701C4612B11B
:1012D000307006F099FB2568C8352368AB4203D20D
:1012E00000200AF03DFEF8E71AF0BCFC7AE22D4B34
:1012F000187800286CD1542C6ADD2B68312B53D11F
:10130000254B1B78022B63D00A4B1B78092B0BD182
:1013100006200AE0092B6EDD0A2B40F0878006F0DC
:101320001DFE2B68312B4BD1012008F0EBFB59E25D
:1013300099BAFF1FB78CFF1FE09BFF1F4C8FFF1F49
:101340008890FF1F808CFF1FB090FF1F4199020003
:1013500008E5FF1F8C90FF1F7D990200FCBAFF1F5C
:10136000F8BAFF1F659A0200848CFF1FB99902002A
:101370007F9A0200D6B9FF1FAB9A0200C49A0200FE
:10138000FA9A020028BBFF1F999902008490FF1F60
:10139000208FFF1FAD99020030BBFF1FCCE2FF1F63
:1013A0004CBBFF1F5CBAFF1F322B0BD1A04B1B782D
:1013B000022B0DD09F4B1B78092B01D10520B4E7E0
:1013C0000220B2E7332B03D1994B1B78022BACD10F
:1013D000994B1B682BB9994B1B68002B00F00282BC
:1013E00024E0032B02DC964896490AE0062B91DCA8
:1013F0009348954905E08E4B1B78022B08D0904806
:101400009249FFF73CF829688D483039FFF753F8C7
:101410008F4B1B78002B00F0E5818E4C2D23012093
:10142000237006F04BFE01232370DBE1DFF874B27A
:1014300089498348DFF870A200238BF80030FFF75A
:101440001EF829687E483039FFF735F8834B844908
:101450001868086076490978022900F09181DFF860
:101460004CB29BF800100129D8460CD17D4890F869
:1014700000C0DAF80000604529D17B48007830B31D
:101480006F487A490DE0022919D1794890F800C0D7
:10149000DAF8000060451AD173480078B8B168489E
:1014A0007449FEF7ECFFDAF8001065483039FFF7B1
:1014B00002F89BF8002001328BF8002092E103290A
:1014C00005D16D4BDAF800201B789A4207D06B4BA0
:1014D0001B78012B03D06A4B1B78012B05D1624B83
:1014E0001B7813B1674B1B787BB90329654B05D17A
:1014F0001A78F52A02D15C4A127832B91B78F62B99
:1015000046D1594B1B78002B42D05F494C485D4C6B
:10151000FEF7B5FF29684A483039FEF7CCFF0423AF
:10152000564A88F8003000231370554A1370237808
:10153000ED2B06D1554803716378437103F0FAFF30
:101540001FE0F02B06D1514803716378437104F01A
:1015500005F916E0F52B02D104F040F911E0F62B65
:101560000FD13E4A4A4D166801232B6006F57A6674
:101570002B6823B1394A1368B342C0F02F8100238E
:101580002B60002088F80000207006F041FE29E161
:10159000A1B1344A00231370354A88F80030137023
:1015A000354A0120137006F033FE3A4806F078FC05
:1015B000394BFF2118781BF071F913E1A4F14803AE
:1015C0006B2B10D82B68312B0DD1274B1B7853B9BF
:1015D0003248334900F072FD09F0ACFD2F48304924
:1015E00000F09DFDFEE0134B1A78092A0BD1B4F5EB
:1015F000B47F08DB2B68322B08D1154B1B782BB13D
:1016000006F06AFCBCE0472C40F3BA802B68322B12
:101610004ED115490978002940F08980012006F053
:1016200099FB8B2C40F3DE80012006F0E9FAD9E02B
:1016300030BBFF1FB78CFF1F74BAFF1F149CFF1F26
:1016400008E5FF1FB9990200B6990200D19902007E
:1016500028BBFF1FD6B9FF1FF5990200CCE2FF1F80
:101660004CBBFF1F48BBFF1F55BAFF1F069A020065
:1016700049BBFF1F199A02004ABBFF1F9CBAFF1FFC
:1016800098BAFF1F999BFF1F2C9A02000CBAFF1FEC
:1016900080BCFF1F3F9A0200F5BAFF1F8490FF1F16
:1016A0000C8FFF1F508FFF1FE09BFF1F00BAFF1F13
:1016B000332B3CD14D490978002938D1092A1ED154
:1016C000B32C1CDC4A4B5A7822B94A4A5421117077
:1016D00001220CE0012A04D1464AD62111700222CF
:1016E00005E0022A05D1434A8021117003225A7075
:1016F00078E0032A76D13F4A5970117072E03E4B70
:101700003E48002401261E703C7000F0B3FD3C4BA7
:101710003C481E602022214627F0E0F93A483B4928
:1017200000F0FDFC3A4B3B4A2C601A605AE0092A53
:1017300003D1B32C24DD312B02E0472C20DD362BE6
:101740001ED12A4B1B78DBB9326801323260324A33
:1017500001241470264A1278A2420BD0264A274848
:101760003B70147000F086FD254B274827491C600C
:1017700000F0D5FCD9F800300133C9F8003031E071
:10178000002006F051FC142C05DC234B1B7813B908
:10179000FFF76AFA14E0A4F11503442B05D81E4B99
:1017A0001B786BB9FFF77CFA0AE0592C08DD1A4B5D
:1017B0001B782BB9194B012202201A7006F07EFC0F
:1017C000174B184A104818491A6000F077FC174B5D
:1017D0000D4817491A7800F083FC03E000200AF056
:1017E000BFFBC5E603B0BDE8F08F00BF55BAFF1FD1
:1017F00088BAFF1FCCBAFF1F808CFF1FFCBAFF1FE7
:10180000848CFF1F1091FF1F8490FF1F208FFF1FEC
:101810000CED00E00400FA0528BBFF1FD6B9FF1F3E
:101820004C90FF1F508FFF1F0C8FFF1FA48CFF1FBA
:10183000388FFF1F73B5102024F08CFF854B864E28
:10184000864C8748874D00221A70874B06221A70F3
:10185000864B01221A70864B16221A70854B17226E
:101860001A70854B11221A70844B0F221A70844B08
:1018700010221A700E23202133701523237004F0D8
:10188000F3FD286000F0EEFB307824F08DFF00902F
:10189000207824F089FF7B4B01901A6801321A608E
:1018A000794B1B78442B24D07848FFF71DFA02248B
:1018B000764EA319204613F8021C013424F022FEB0
:1018C000422CF5D100214FF40062304627F006F992
:1018D00044200BF063F96E4904466E48FEF7CFFDD5
:1018E0001CB16C486C49FEF7CAFD6A486B49FEF7AB
:1018F000CEFD2C689CB904F030FD03214FF4F86054
:1019000024F000FE664801F098F9664B664961488C
:1019100001221A70654B1C70FEF7B9FD4AE05A4B64
:101920001B78442B43D120216148624C04F0E0FD38
:10193000614804F0F3FD614804F026FE00212046D2
:1019400001F0E8F95E4801F0CBF95E495148FEF735
:101950009EFD50482178FEF7A4FD23780BB904239F
:1019600023705948594C01F02FFA594801F039FABF
:101970004B4801F05AF9204601F019FA55494548FB
:10198000FEF785FD21784348FEF78BFD1BF0EEF84E
:10199000444B51493F4800221A70444B01221A70AF
:1019A000FEF775FD4D484E4900F0B9FB02E04D4B86
:1019B0004D4A1A604D4B4E481A684E4901321A6022
:1019C00040F2FD720CF0A6FE49486946022204234B
:1019D0000CF058FE02220423454801A90CF052FEE7
:1019E00045492C48FEF74BFD4FF4FB612948FEF7B3
:1019F00062FD254B274819781022002325F072F943
:101A0000244825F05FF906F071FD06F0EDFA06F0C6
:101A100063FF3248394900F082FB2B684BB93848E4
:101A2000384C01230370237001F03BF9204601F08C
:101A300045F9354B1B78092B09D11C4B1B7833B169
:101A4000324800F031FC10B10A20FFF715FB02B05C
:101A500070BD00BF30BBFF1F14BBFF1F989BFF1F53
:101A60009090FF1F149CFF1FF5BAFF1F68BBFF1F5C
:101A700069BBFF1F9ABAFF1F70BBFF1F21BBFF1F6F
:101A8000C1BBFF1F8890FF1F020002401C9CFF1F6C
:101A9000399B020008E5FF1F4E9B0200539B02008A
:101AA000BC8CFF1F99BAFF1F689B02005CBAFF1F26
:101AB000B090FF1FA48CFF1FF090FF1FD090FF1F5E
:101AC00020BBFF1F7D9B020015BBFF1FCEE6FF1F43
:101AD0009BBAFF1F8A9B02009C9B02008490FF1F01
:101AE000208FFF1F0CED00E00400FA058C90FF1F13
:101AF000C4BBFF1FA1990200A89B02000C8FFF1F0F
:101B00009CBAFF1F98BAFF1FB78CFF1FFCBAFF1FBC
:101B1000F8B521201AF098FEE8B94B4B1D68044631
:101B20001E46326840F6B733521B9A4207D86420EB
:101B30001AF0B8FF21201AF087FE0444F1E754B9E7
:101B40002046012124F0DEFC0120014624F0DAFCCD
:101B50003E4B3F4A1A603F4B3F4D1B7A012B0DD144
:101B60003E4B1B780BB12B7843B13D4B1B78032BBD
:101B700002D0032004F0BCFB0AF06AFC394B3A4C5B
:101B80001A6801321A60394B1A680623B2FBF3F067
:101B900003FB10201AF086FF2278354BDAB11A6861
:101BA000002001321A600AF0DBF9324B1B78ABB12E
:101BB000314B1B6893B105F01BFF304B1B786BB1A9
:101BC000214A11682E4A12688A1A4EF660214B4348
:101BD0009A4221D202E01A6801321A602B784BB186
:101BE00023783BB11D4B1B7823B9264B012018707D
:101BF00005F00AFF06F094FE234A12780A32D2B2A8
:101C0000012A04D82D20BDE8F84006F00DBAC8B16D
:101C1000BDE8F840FFF730BA1C4B1D4800260127ED
:101C20001F70267000F026FB1A4B1B481F602022F5
:101C3000314626F053FF1948194900F070FA044A5A
:101C4000024BCAE7F8BD00BFCCE2FF1F0CED00E07D
:101C50000400FA055DBAFF1F28BBFF1F55BAFF1F1E
:101C6000D8B9FF1F8890FF1F99BAFF1FF8BAFF1F4E
:101C70008C90FF1F5CBAFF1F149CFF1FBC8CFF1FC2
:101C80004CBBFF1FD6B9FF1FD5B9FF1F808CFF1FAC
:101C9000FCBAFF1F848CFF1F1091FF1F8490FF1F51
:101CA000208FFF1FF8B51E4F3B78092B30D11D4CFC
:101CB0000021204624F002FE40B32379E12B25D1F8
:101CC00063792F2B22D9184B1B78FBB1174E35782F
:101CD000E5B93B78092B19D1154B164801221A702A
:101CE00000F0C8FA0AF032FE134B0A201860134BBA
:101CF0001D60FFF7C1F920462946402226F0EEFE7E
:101D0000337843B10E480AF08BF802E00D4800E04A
:101D10000D4806F0C5F80C490C48FEF7B8FBF8BDB5
:101D2000B78CFF1F0CBAFF1F5CBAFF1F99BAFF1FC9
:101D3000808CFF1FFCBAFF1F848CFF1FE09BFF1FDE
:101D400099990200B59B02009C9B020008E5FF1FC9
:101D500008B524F08DFB3221084A094800F022FA28
:101D60003221084A084800F01DFA0848084A4FF492
:101D70007A71BDE8084000F015BA00BF111B0000E1
:101D80000C8FFF1F810E0000388FFF1F208FFF1F59
:101D9000A51C00002DE9F04F0A46C9B00023CD5C18
:101DA000D47844EA0564557844EA0544957803F10B
:101DB000200644EA052404336D46402B745102F199
:101DC0000402ECD108AB002208AF9C6B5E6ABD58E0
:101DD000596835444FEA744686EAF44686EA942404
:101DE0002C444FEAF11585EAB14585EAD101043268
:101DF0002144C02A196403F10403E5D1026D009265
:101E0000436D426E0193856D836EC66D076E0295BC
:101E10000396C56E0497059217469DE81400069335
:101E20001E46DDF80CC0049B02990795A8460025C4
:101E300005F1200BE9465BF809A0DFF8989055F80A
:101E40000990D1444FEAB31A8AEAF32A8AEA736AFC
:101E5000D14426EA030B07EA030A8BEA0A0AD144B3
:101E6000C84481EA040901EA040A09EA020989EA84
:101E70000A094FEAB20A8AEA723A8AEAB25A043581
:101E8000D144B5F5807FC444C14408D0B0463E4635
:101E90001F4663468C46214614464A46C8E7009DC5
:101EA0004D440565019D2A444265029A039D1444F0
:101EB000049A846562440266059A13442944436681
:101EC000079D069BC1651F442E448766C66649B0C0
:101ED000BDE8F08FC49B02000023036400220023AE
:101EE000C0E912230A4B03650A4B43650A4B83651D
:101EF0000A4BC3650A4B03660A4B43660A4B83666B
:101F000003F17453A3F52303A3F69243C36670470A
:101F100067E6096A85AE67BB72F36E3C3AF54FA57A
:101F20007F520E518C68059BABD9831F2DE9F04180
:101F300006460F4601EB0208474516D0336C17F8EA
:101F4000012BF2540133402B3364F5D13046314636
:101F5000FFF720FFD6E9124514F5007445F100059E
:101F60000023C6E912453364E6E7BDE8F081026C60
:101F70002DE9F84F372A88464FF08001814602F15B
:101F80000103815406D8382B14D0002209F803200D
:101F90000133F8E73F2B04D8002209F8032001336E
:101FA000F8E748464946FFF7F5FE48460021382243
:101FB00026F094FDD9F84030D900D9E912235218FF
:101FC00043F100034FEA122A160C140E4AEA036A80
:101FD0004FEA132B46EA03461F0C44EA03241D0E66
:101FE000C9E9122389F83B30494689F83F2089F82E
:101FF0003EA089F83D6089F83C4089F83AB089F8FC
:10200000397089F838504846FFF7C4FE434603212B
:10201000D9F85000CA00D0401870D9F85400D04008
:102020001871D9F85800D0401872D9F85C00D04027
:102030001873D9F86000D0401874D9F86400D04003
:102040001875D9F86800D0401876D9F86C000139B5
:1020500020FA02F21A774A1C03F10103D8D1BDE835
:10206000F88FFFFF07B5064B06499A680092DA68B9
:1020700001920CCB044826F065FF03B05DF804FB29
:102080005090FF1FC49C02006090FF1F064B1A680F
:10209000064B1A60064A12685A60064A12689A602D
:1020A000054A1268DA607047548004405090FF1F60
:1020B000588004405C80044060800440036873B131
:1020C0008B4205D11B69036070478A4204D01346D6
:1020D0001A69002AF9D102E00A691A61704770474B
:1020E00070B506460C461546FFF7E8FF33680BB996
:1020F000346004E01A690AB11346FBE71C611AF068
:10210000B1FC23680322C01A4FF4FA536B43B5FBAA
:10211000F2F55D43002360602560236170BD38B532
:1021200005460C46FFF7CAFF2B680BB92C6004E08C
:102130001A690AB11346FBE71C611AF093FC236885
:10214000C01A00236060236138BD38B50C461AF010
:1021500089FC6268236813449842054605D3626887
:10216000934208D26268824205D86268954207D2DB
:1021700062689A4204D8A560E36820469847656083
:1021800038BD38B505462C68002CFCD021462846C1
:10219000FFF7DBFF2469F7E708B50148FFF7F1FF18
:1021A0008490FF1F10B54FF47A746143C26000221F
:1021B00001604260026110BD4FF47A7359430160BF
:1021C0007047FFFFF8B504460E4615461F46044A01
:1021D000FFF7E8FF6661E561A7612046F8BD00BF33
:1021E0000522000010B50021044680F82010FFF7FA
:1021F000E3FF21460248BDE81040FFF790BF00BF53
:102200008490FF1F10B590F8203004463BB901239D
:1022100080F820304169BDE81040FFF7CDBF012BA9
:1022200010D109482146FFF749FFE36913B9A069B6
:1022300020B910BD2046984720B1F8E7BDE810400E
:10224000FFF7D0BF10BD00BF8490FF1F0022416187
:1022500042740270704741617047437C102B07D075
:102260005A1CD2B24274C1540023835401207047D7
:1022700000207047002343740370704710B5446911
:1022800002782178002321B9D2F1010038BF002063
:1022900010BD914206D1E2185178C2180133102BBB
:1022A0005278F0D1002010BD2DE9F043B9B00446BA
:1022B00026F083FE8C4B00221A708C4A1278092A71
:1022C000054619460ED168B9894B224603F1100024
:1022D00053F8045B42F8045B8342F9D101230B708D
:1022E000102505E0062803D81E201AF0DBFBF6E0D7
:1022F0001CA8FFF7F1FD21462A461CA8FFF716FE91
:1023000020221CA87B497C4CFFF710FE1CA80CA9BE
:10231000FFF72DFE9DF8303023F007038DF83030A5
:102320009DF84F3003F03F0343F040030CA9002217
:1023300020468DF84F300BF063F91CA8FFF7CCFD59
:1023400014A800F082FD1CA814A91022FFF7EEFDCE
:102350001CA86A491022FFF7E9FD20221CA821468B
:10236000FFF7E4FD21461CA8FFF701FE1CA8FFF7BC
:10237000B3FD1CA814A91022FFF7D8FD1CA85F49C3
:102380001022FFF7D3FD20221CA85D49FFF7CEFDE8
:102390001CA804A9FFF7EBFD5A4B9DF81050D3F889
:1023A0000080594B20781A68531C02F11F0902F172
:1023B000200CC2EB08014B4503F1FF37C2F10006C8
:1023C000194477D14F4B504C19608542276004D097
:1023D0004D4B1A6801321A6081E00DF10F0000F0D8
:1023E0008CFC9DF80F504448012D28D104F0E2F8F0
:1023F00018B94148454A0CA927E00CA9434A04A84A
:102400000BF0FEF81CA8FFF767FD1CA814A92022FA
:10241000FFF78CFD1CA83E491022FFF787FD1CA882
:1024200004A92022FFF782FD1CA832492022FFF7D1
:102430007DFD1CA80CA9FFF79AFD00952AE004F089
:10244000B9F828B92C482E4A0CA90BF0D9F827E086
:102450000CA92B4A04A80BF0D3F81CA8FFF73CFDED
:102460001CA814A92022FFF761FD1CA828491022EE
:10247000FFF75CFD1CA804A92022FFF757FD1CA84C
:102480001C492022FFF752FD1CA80CA9FFF76FFD85
:102490000123009318481E490CAA202303F0F2FDE3
:1024A00023681C4A01332360002313701A4A012059
:1024B000136015E0854204D0124B1960124B1F6067
:1024C00086E704A830442644C55CF05C1E46013310
:1024D00063457FF46EAF0B4B19600B4B1E60002001
:1024E00039B0BDE8F08300BF88BAFF1FB78CFF1F6B
:1024F0007290FF1F9090FF1F1091FF1F7090FF1FA1
:10250000B090FF1F8890FF1F8C90FF1FD090FF1F7F
:102510006090FF1F30BBFF1FCCBAFF1F2DE9F043B7
:10252000B9B0054626F049FD0628044603D81E200A
:102530001AF0B8FA73E01CA8FFF7CEFC2946224631
:102540001CA8FFF7F3FC20221CA86849684CFFF781
:10255000EDFC1CA80CA9FFF70AFD9DF8303023F014
:1025600007038DF830309DF84F3003F03F0343F000
:1025700040030CA9002220468DF84F300BF040F8A4
:102580001CA8FFF7A9FC14A800F05FFC1CA814A964
:102590001022FFF7CBFC1CA856491022FFF7C6FCFF
:1025A00020221CA82146FFF7C1FC21461CA8FFF7EA
:1025B000DEFC1CA8FFF790FC1CA814A91022FFF752
:1025C000B5FC1CA84B491022FFF7B0FC20221CA828
:1025D0004949FFF7ABFC1CA804A9FFF7C8FC474B0F
:1025E0009DF81050D3F80080454B20781A68531C92
:1025F00002F11F0902F1200CC2EB08014B4503F167
:10260000FF37C2F10006194457D13C4B3C4C1960CE
:102610008542276005D03A4B1A6801321A600020C3
:1026200060E00DF10F0000F068FB9DF80F30022B09
:1026300038D02F4803F0BEFF28B90CA9314A2C48E6
:102640000AF0DEFF27E00CA92E4A04A80AF0D8FF02
:102650001CA8FFF741FC1CA814A92022FFF766FC68
:102660001CA829491022FFF761FC1CA804A92022FC
:10267000FFF75CFC20221CA81C49FFF757FC1CA894
:102680000CA9FFF774FC0123009319481E490CAAFA
:10269000202303F0F7FC1D4B01221A701C4B54221F
:1026A0001A7005E01B4A1278002AB8D1174A137035
:1026B000236801332360012014E0854204D00F4BCE
:1026C00019600F4B1F60A6E704A830442644C55C80
:1026D000F05C1E46013363458ED1084B1960084BF0
:1026E0001E609CE739B0BDE8F08300BF9090FF1FEB
:1026F0001091FF1F7090FF1FD090FF1F8890FF1F49
:102700008C90FF1FB090FF1F6090FF1F30BBFF1F1A
:10271000CCBAFF1F28BBFF1F30B59DB0054626F081
:102720004CFC0628044603D81E201AF0BBF922E010
:102730006846FFF7D1FB2246684629460F4CFFF753
:10274000F5FB202268460E49FFF7F0FB684621465C
:10275000FFF70DFC0B4920780A78002382420AD14A
:10276000CA18E01801331E2B52784078F6D1131A9C
:102770005842584100E000201DB030BD1091FF1FAD
:102780009090FF1FF090FF1F23F072BE10B5084B12
:1027900000F14C0203F1140153F8044B42F8044BCE
:1027A0008B42F9D10023036680F8483010BD00BF8A
:1027B000888CFF1F2DE9F04F416D826DC36DD0F8FD
:1027C0004C80D0F850C085B0994601910292039395
:1027D0004646134600240A466146E5B20F2D07D847
:1027E00083EA020A0AEA010A8AEA030A334F3FE04F
:1027F00004F10D0B04F108070BF00F0B07F00F07A6
:102800000BF1020B023705F00F0A50F8277050F851
:102810002BB000EB8A0A8BEA070BDAF808708BEA18
:10282000070BA71C07F00F070237132D50F827706E
:102830008BEA07074FEAF777CAF80870D0D9272D37
:1028400005D882EA010A8AEA030A1D4F10E03B2DEF
:1028500009D842EA010A02EA01070AEA030A4AEA37
:10286000070A184F04E082EA010A174F8AEA030AAE
:1028700005F00F050235574450F82550013405EB9B
:10288000F6653D44502C4D444FEAB10105D09946C0
:1028900013460A4631462E469FE7019C2144416576
:1028A00002990A448265039A454466441344C56408
:1028B0000665C36505B0BDE8F08F00BF9979825AFF
:1028C000A1EBD96EDCBC1B8FD6C162CA90F8483030
:1028D00083F003020133DBB20244402B10B51172C6
:1028E000044680F8483004D1FFF764FF002384F8E1
:1028F000483010BD08B5026E01320266FFF7E6FFF0
:10290000012008BD10B580210446FFF7DFFF94F8D1
:102910004830382B20464FF00001F6D1FFF7D6FFA4
:1029200020460021FFF7D2FF20460021FFF7CEFF0F
:10293000216E2046490FFFF7C9FF216E2046C1F3E3
:102940004751FFF7C3FF216E2046C1F34731FFF720
:10295000BDFF216E2046C1F34711FFF7B7FF216E7F
:10296000C900204601F0F801BDE81040FFF7AEBFF6
:1029700010B50446FFF7C6FF0023E2180433D16CFC
:10298000142B09BAD164F8D104F14C0010BDF8B58C
:1029900000F16406174604460D46304600214022E9
:1029A00026F09CF8402F18DD2046FFF7EFFE2F445D
:1029B000BD4206D0236815F8011B1B6820469847C6
:1029C000F6E72046FFF7D4FF00F1140250F8041B8D
:1029D00046F8041B9042F9D104E0304629463A46B5
:1029E00019F086F82046FFF7D1FE254604F140068F
:1029F00095F86410236820461B6881F03601013584
:102A00009847B542F4D1F8BD70B50446FFF7B0FF62
:102A100004F1A40300F1140250F8041B43F8041B52
:102A20009042F9D12046FFF7B1FE04F14006254659
:102A300095F86410236820461B6881F05C0101351D
:102A40009847B542F4D104F114062546236895F859
:102A5000A4101B68204601359847B542F6D12046A0
:102A6000BDE87040FFF784BF024B00221A71024A92
:102A70001A6070473091FF1FE89C020080E8060052
:102A80007047FFFF1E2391FBF3F10B0E70B51E4E36
:102A900003740B140446002543740B128160837485
:102AA000C174057394E8060045738573C573304699
:102AB000FFF76DFF336804F10C015B6808223046B4
:102AC00098473046FFF7A0FF6061C37CE56103F0E3
:102AD0000F03A361E269C1181202E261495D013589
:102AE0000A43042DE261F5D1084B22F0004292FB2B
:102AF000F3F103FB1122E26120342046044926F061
:102B000021FA204670BD00BF3091FF1F40420F00E8
:102B1000F09C0200074B1860074B1B681844074BDA
:102B20001860074B02221A70064B1A68064B1A608F
:102B3000704700BFE891FF1F9C8CFF1FF891FF1F9B
:102B4000EC91FF1FCCE2FF1FF491FF1F70B51649F7
:102B5000164C0A68236816480068801AB0F57A7F18
:102B600002F57A7603F1010502D32B463246F2E7ED
:102B7000104D0A602A6823609A4213D80E4B1B68D6
:102B800083B1984710B1FFF7C5FF0BE00B4B1A68F4
:102B9000064B1B6813442B60094B1A78003218BF90
:102BA00001221A70206870BDF491FF1FE891FF1F89
:102BB000CCE2FF1FF891FF1FF091FF1F9C8CFF1FBD
:102BC000EC91FF1F08B5FFF7C1FF014B187808BD56
:102BD000EC91FF1FF8B506460D468F180C46BC4217
:102BE00006D0204623F07AFC731B18550134F6E713
:102BF000F8BDF8B506460D468F180C46BC4206D007
:102C0000731B2046195D23F07DFC0134F6E7F8BD07
:102C100008B54FF4D5610122FFF7DCFF012008BDA4
:102C20004FF4D5610122FFF7E4BF08B540F2A96176
:102C30000122FFF7CFFF012008BD40F2A961012268
:102C4000FFF7D7BF08B540F2AA610122FFF7C2FF24
:102C5000012008BD40F2AA610122FFF7CABF08B5F2
:102C600040F2D561D022FFF7B5FFD02008BD40F279
:102C7000D561D022FFF7BDBF08B540F2AB6101229C
:102C8000FFF7A8FF012008BD40F2AB610122FFF76A
:102C9000B0BF08B540F2AC610122FFF79BFF0120F5
:102CA00008BD40F2AC610122FFF7A3BF08B540F2B6
:102CB000AD610122FFF78EFF012008BD40F2AD613A
:102CC0000122FFF796BF08B540F2A5710122FFF778
:102CD00081FF012008BD40F2A5710122FFF789BFE5
:102CE00008B540F2A6710122FFF774FF012008BD6C
:102CF00040F2A6710122FFF77CBF08B540F2AE6139
:102D00000122FFF767FF012008BD40F2AE610122FA
:102D1000FFF76FBF10B5044629B940F2AF61012239
:102D2000FFF758FF17E04B1E0B2B08D801F2CB71B1
:102D30000122FFF74FFF237803F00F030AE0A1F110
:102D40000D030B2B07D801F2CB710122FFF742FFD5
:102D500023781B092370012010BD70B501F2CB76DA
:102D60000D460446314601300122FFF733FF1DB9FD
:102D7000204640F2AF6114E06B1E0B2B05D8637840
:102D8000227823F00F03134408E00D3D0B2D0DD8DE
:102D90006378227803F00F0303EB021323702046BD
:102DA00031460122BDE87040FFF723BF70BD08B572
:102DB0004FF4D6610122FFF70DFF012008BD4FF44B
:102DC000D6610122FFF715BF08B540F2D361012299
:102DD000FFF700FF012008BD40F2D3610122FFF799
:102DE00008BF08B540F2BF710122FFF7F3FE0120D2
:102DF00008BD40F2BF710122FFF7FBBE08B540F2EB
:102E0000D4610122FFF7E6FE012008BD40F2D46143
:102E10000122FFF7EEBE08B540F2B1610122FFF7D3
:102E2000D9FE012008BD40F2B1610122FFF7E1BEE9
:102E300008B540F2B2610122FFF7CCFE012008BDC7
:102E400040F2B2610122FFF7D4BE08B540F2B3618F
:102E50002022FFF7BFFE202008BD40F2B3612022F0
:102E6000FFF7C7BE08B540F21C610122FFF7B2FEB2
:102E7000012008BD40F21C610122FFF7BABE08B56F
:102E800040F21D610122FFF7A5FE012008BD40F2BE
:102E90001D610122FFF7ADBE08B540F21E6101229F
:102EA000FFF798FE012008BD40F21E610122FFF7E6
:102EB000A0BE08B540F21F610122FFF78BFE012082
:102EC00008BD40F21F610122FFF793BE08B54FF421
:102ED000C4610122FFF77EFE012008BD4FF4C461EA
:102EE0000122FFF786BE08B540F221610122FFF7FB
:102EF00071FE012008BD40F221610122FFF779BE79
:102F000008B540F222610122FFF764FE012008BDEE
:102F100040F222610122FFF76CBE08B540F2236146
:102F20000122FFF757FE012008BD40F22361012274
:102F3000FFF75FBE08B540F224610122FFF74AFEA9
:102F4000012008BD40F224610122FFF752BE08B5FE
:102F500040F225610122FFF73DFE012008BD40F24D
:102F600025610122FFF745BE08B540F22661012226
:102F7000FFF730FE012008BD40F226610122FFF775
:102F800038BE08B540F227610122FFF723FE012079
:102F900008BD40F227610122FFF72BBE08B54FF4B0
:102FA000C5610122FFF716FE012008BD4FF4C5617F
:102FB0000122FFF71EBE08B540F229610122FFF78A
:102FC00009FE012008BD40F229610122FFF711BE70
:102FD00008B540F22A610122FFF7FCFD012008BD7F
:102FE00040F22A610122FFF704BE08B540F22B61CE
:102FF0000122FFF7EFFD012008BD40F22B61012205
:10300000FFF7F7BD08B540F22C610122FFF7E2FDA2
:10301000012008BD40F22C610122FFF7EABD08B58E
:1030200040F22D610122FFF7D5FD012008BD40F2DD
:103030002D610122FFF7DDBD08B540F22E610122AE
:10304000FFF7C8FD012008BD40F22E610122FFF705
:10305000D0BD08B540F22F610122FFF7BBFD012072
:1030600008BD40F22F610122FFF7C3BD08B54FF440
:10307000C6610122FFF7AEFD012008BD4FF4C66115
:103080000122FFF7B6BD08B540F231610122FFF71A
:10309000A1FD012008BD40F231610122FFF7A9BD69
:1030A00008B540F232610122FFF794FD012008BD0E
:1030B00040F232610122FFF79CBD08B540F2336156
:1030C0000122FFF787FD012008BD40F23361012294
:1030D000FFF78FBD08B5AC210122FFF77BFD012072
:1030E00008BDAC210122FFF784BD08B5AD21012246
:1030F000FFF770FD012008BDAD210122FFF779BD6A
:1031000008B5AE210122FFF765FD012008BDAE2103
:103110000122FFF76EBD08B5AF210122FFF75AFD6E
:10312000012008BDAF210122FFF763BD08B5B02122
:103130000122FFF74FFD012008BDB0210122FFF75A
:1031400058BD08B5B1210122FFF744FD012008BD9B
:10315000B1210122FFF74DBD08B5B2210122FFF7D1
:1031600039FD012008BDB2210122FFF742BD08B59B
:10317000B3210122FFF72EFD012008BDB32101225A
:10318000FFF737BD08B5B4210122FFF723FD012069
:1031900008BDB4210122FFF72CBD08B5B5210122DD
:1031A000FFF718FD012008BDB5210122FFF721BD61
:1031B00008B5B6210122FFF70DFD012008BDB6219B
:1031C0000122FFF716BD08B5B7210122FFF702FD66
:1031D000012008BDB7210122FFF70BBD08B5B821BA
:1031E0000122FFF7F7FC012008BDB8210122FFF7FB
:1031F00000BD08B5B9210122FFF7ECFC012008BD94
:10320000B9210122FFF7F5BC08B5BA210122FFF769
:10321000E1FC012008BDBA210122FFF7EABC08B594
:10322000BB210122FFF7D6FC012008BDBB210122F2
:10323000FFF7DFBC08B5BC210122FFF7CBFC012062
:1032400008BDBC210122FFF7D4BC08B5BD21012275
:10325000FFF7C0FC012008BDBD210122FFF7C9BC5A
:1032600008B5BE210122FFF7B5FC012008BDBE2133
:103270000122FFF7BEBC08B5BF210122FFF7AAFC5F
:10328000012008BDBF210122FFF7B3BC08B5C02152
:103290000122FFF79FFC012008BDC0210122FFF79A
:1032A000A8BC08B5C1210122FFF794FC012008BD8C
:1032B000C1210122FFF79DBC08B5C2210122FFF701
:1032C00089FC012008BDC2210122FFF792BC08B58C
:1032D000C3210122FFF77EFC012008BDC32101228A
:1032E000FFF787BC08B564210122FFF773FC0120BA
:1032F00008BD64210122FFF77CBC08B565210122CD
:10330000FFF768FC012008BD65210122FFF771BCB1
:1033100008B566210122FFF75DFC012008BD66218A
:103320000122FFF766BC08B567210122FFF752FCB6
:10333000012008BD67210122FFF75BBC08B56821A9
:103340000122FFF747FC012008BD68210122FFF799
:1033500050BC08B569210122FFF73CFC012008BDE3
:1033600069210122FFF745BC08B56A210122FFF758
:1033700031FC012008BD6A210122FFF73ABC08B5E3
:103380006B210122FFF726FC012008BD6B210122E1
:10339000FFF72FBC08B56C210122FFF71BFC0120B1
:1033A00008BD6C210122FFF724BC08B56D21012264
:1033B000FFF710FC012008BD6D210122FFF719BCA9
:1033C00008B56E210122FFF705FC012008BD6E2122
:1033D0000122FFF70EBC08B56F210122FFF7FAFBAF
:1033E000012008BD6F210122FFF703BC08B5702141
:1033F0000122FFF7EFFB012008BD70210122FFF73A
:10340000F8BB08B571210122FFF7E4FB012008BDDC
:1034100071210122FFF7EDBB08B572210122FFF7F0
:10342000D9FB012008BD72210122FFF7E2BB08B5DC
:1034300073210122FFF7CEFB012008BD7321012279
:10344000FFF7D7BB08B574210122FFF7C3FB0120AA
:1034500008BD74210122FFF7CCBB08B575210122FC
:10346000FFF7B8FB012008BD75210122FFF7C1BBA2
:1034700008B576210122FFF7ADFB012008BD7621BA
:103480000122FFF7B6BB08B577210122FFF7A2FBA7
:10349000012008BD77210122FFF7ABBB08B57821D9
:1034A0000122FFF797FB012008BD78210122FFF7D9
:1034B000A0BB08B579210122FFF78CFB012008BDD4
:1034C00079210122FFF795BB08B57A210122FFF788
:1034D00081FB012008BD7A210122FFF78ABB08B5D4
:1034E0007B210122FFF776FB012008BD7B21012211
:1034F000FFF77FBB08B540F264610122FFF76AFB6A
:10350000012008BD40F264610122FFF772BB08B5DB
:1035100040F265610122FFF75DFB012008BD40F22A
:1035200065610122FFF765BB08B540F266610122C3
:10353000FFF750FB012008BD40F266610122FFF752
:1035400058BB08B540F267610122FFF743FB012039
:1035500008BD40F267610122FFF74BBB08B54FF48D
:10356000CD610122FFF736FB012008BD4FF4CD618C
:103570000122FFF73EBB08B540F269610122FFF767
:1035800029FB012008BD40F269610122FFF731BB30
:1035900008B540F26A610122FFF71CFB012008BD5B
:1035A00040F26A610122FFF724BB08B540F26B616B
:1035B0000122FFF70FFB012008BD40F26B610122E1
:1035C000FFF717BB08B540F26C610122FFF702FB61
:1035D000012008BD40F26C610122FFF70ABB08B56B
:1035E00040F26D610122FFF7F5FA012008BD40F2BB
:1035F0006D610122FFF7FDBA08B540F26E6101224C
:10360000FFF7E8FA012008BD40F26E610122FFF7E2
:10361000F0BA08B540F26F610122FFF7DBFA012032
:1036200008BD40F26F610122FFF7E3BA08B54FF41D
:10363000CE610122FFF7CEFA012008BD4FF4CE6122
:103640000122FFF7D6BA08B540F271610122FFF7F7
:10365000C1FA012008BD40F271610122FFF7C9BA29
:1036600008B540F272610122FFF7B4FA012008BDEB
:1036700040F272610122FFF7BCBA08B540F27361F3
:103680000122FFF7A7FA012008BD40F27361012271
:10369000FFF7AFBA08B540F274610122FFF79AFA5A
:1036A000012008BD40F274610122FFF7A2BA08B5FB
:1036B00040F275610122FFF78DFA012008BD40F24A
:1036C00075610122FFF795BA08B540F276610122D3
:1036D000FFF780FA012008BD40F276610122FFF772
:1036E00088BA08B540F277610122FFF773FA01202A
:1036F00008BD40F277610122FFF77BBA08B54FF4AD
:10370000CF610122FFF766FA012008BD4FF4CF61B7
:103710000122FFF76EBA08B540F279610122FFF786
:1037200059FA012008BD40F279610122FFF761BA20
:1037300008B540F27A610122FFF74CFA012008BD7A
:1037400040F27A610122FFF754BA08B540F27B617A
:103750000122FFF73FFA012008BD40F27B61012200
:10376000FFF747BA08B546211022FFF733FA1020B9
:1037700008BD46211022FFF73CBA38B505460C4675
:1037800011B9622102220BE04B1E172B0AD801F25D
:1037900063610122FFF71EFA681C04F2A671012280
:1037A000FFF718FA022038BD38B505460C4611B9A6
:1037B000622102220BE04B1E172B0CD801F2636131
:1037C0000122FFF716FA681C04F2A6710122BDE877
:1037D0003840FFF70EBA38BD08B55C210622FFF766
:1037E000F9F9062008BD5C210622FFF702BA08B5E8
:1037F00056210622FFF7EEF9062008BD56210622C3
:10380000FFF7F7B937B501390446172900F255819A
:10381000DFE811F01800240031003E004B00580092
:10382000650072007F008C009900A600B300C00004
:10383000CD00DA00E700F40001010E011B012801B0
:10384000350142010DF10700FFF70CFB9DF8075011
:103850002046382DA8BF3825DC2129E10DF10700CD
:10386000FFF70DFB9DF807502046382DA8BF3825DF
:103870004FF48A711CE10DF10700FFF70DFB9DF875
:1038800007502046382DA8BF38254FF4A6710FE108
:103890000DF10700FFF70DFB9DF807502046382D6E
:1038A000A8BF38254FF4C27102E10DF10700FFF700
:1038B0000DFB9DF807502046382DA8BF38254FF442
:1038C000DE71F5E00DF10700FFF70DFB9DF80750E5
:1038D0002046382DA8BF38254FF4FA71E8E00DF1E5
:1038E0000700FFF70DFB9DF807502046382DA8BFB5
:1038F00038254FF40B71DBE00DF10700FFF70DFBEE
:103900009DF807502046382DA8BF38254FF419716F
:10391000CEE00DF10700FFF70DFB9DF807502046A4
:10392000382DA8BF38254FF42771C1E00DF10700ED
:10393000FFF70DFB9DF807502046382DA8BF38250E
:103940004FF43571B4E00DF10700FFF70DFB9DF862
:1039500007502046382DA8BF38254FF44371A7E003
:103960000DF10700FFF70DFB9DF807502046382D9D
:10397000A8BF38254FF451719AE00DF10700FFF709
:103980000DFB9DF807502046382DA8BF38254FF471
:103990005F718DE00DF10700FFF70DFB9DF80750FB
:1039A0002046382DA8BF38254FF46D7180E00DF109
:1039B0000700FFF70DFB9DF807502046382DA8BFE4
:1039C00038254FF47B7173E00DF10700FFF70DFB15
:1039D0009DF807502046382DA8BF382540F22441D5
:1039E00066E00DF10700FFF70DFB9DF8075020463C
:1039F000382DA8BF382540F25C4159E00DF1070091
:103A0000FFF70DFB9DF807502046382DA8BF38253D
:103A100040F294414CE00DF10700FFF70DFB9DF8DB
:103A200007502046382DA8BF382540F2CC413FE052
:103A30000DF10700FFF70DFB9DF807502046382DCC
:103A4000A8BF382540F2045132E00DF10700FFF71E
:103A50000DFB9DF807502046382DA8BF382540F2B1
:103A60003C5125E00DF10700FFF70DFB9DF80750D5
:103A70002046382DA8BF382540F2745118E00DF1CA
:103A80000700FFF70DFB9DF807502046382DA8BF13
:103A9000382540F2AC510BE00DF10700FFF70DFBAC
:103AA0009DF807502046382DA8BF382540F2E45134
:103AB0003822FFF78FF8284600E0002003B030BD21
:103AC000013A13B50C46172A00F26881DFE812F0BC
:103AD00018002500330041004F005D006B007900A5
:103AE00087009500A300B100BF00CD00DB00E90016
:103AF000F7000501130121012F013D014B0159017F
:103B0000DC213822FFF775F802A8382CA8BF38242A
:103B100000F8014DFFF7AEF940E14FF48A71382209
:103B2000FFF767F802A8382CA8BF382400F8014D29
:103B3000FFF7ADF932E14FF4A6713822FFF759F8DB
:103B400002A8382CA8BF382400F8014DFFF7ACF9C3
:103B500024E14FF4C2713822FFF74BF802A8382C49
:103B6000A8BF382400F8014DFFF7ABF916E14FF478
:103B7000DE713822FFF73DF802A8382CA8BF3824A0
:103B800000F8014DFFF7AAF908E14FF4FA71382265
:103B9000FFF72FF802A8382CA8BF382400F8014DF1
:103BA000FFF7A9F9FAE04FF40B713822FFF721F87B
:103BB00002A8382CA8BF382400F8014DFFF7A8F957
:103BC000ECE04FF419713822FFF713F802A8382CF3
:103BD000A8BF382400F8014DFFF7A7F9DEE04FF445
:103BE00027713822FFF705F802A8382CA8BF38241F
:103BF00000F8014DFFF7A6F9D0E04FF435713822F7
:103C0000FEF7F7FF02A8382CA8BF382400F8014DB2
:103C1000FFF7A5F9C2E04FF443713822FEF7E9FF40
:103C200002A8382CA8BF382400F8014DFFF7A4F9EA
:103C3000B4E04FF451713822FEF7DBFF02A8382CB4
:103C4000A8BF382400F8014DFFF7A3F9A6E04FF410
:103C50005F713822FEF7CDFF02A8382CA8BF3824A8
:103C600000F8014DFFF7A2F998E04FF46D7138228A
:103C7000FEF7BFFF02A8382CA8BF382400F8014D7A
:103C8000FFF7A1F98AE04FF47B713822FEF7B1FF0C
:103C900002A8382CA8BF382400F8014DFFF7A0F97E
:103CA0007CE040F224413822FEF7A3FF02A8382C22
:103CB000A8BF382400F8014DFFF79FF96EE040F2ED
:103CC0005C413822FEF795FF02A8382CA8BF3824A3
:103CD00000F8014DFFF79EF960E040F29441382270
:103CE000FEF787FF02A8382CA8BF382400F8014D42
:103CF000FFF79DF952E040F2CC413822FEF779FF00
:103D000002A8382CA8BF382400F8014DFFF79CF911
:103D100044E040F204513822FEF76BFF02A8382C31
:103D2000A8BF382400F8014DFFF79BF936E040F2B8
:103D30003C513822FEF75DFF02A8382CA8BF38247A
:103D400000F8014DFFF79AF928E040F2745138224B
:103D5000FEF74FFF02A8382CA8BF382400F8014D09
:103D6000FFF799F91AE040F2AC513822FEF741FF13
:103D700002A8382CA8BF382400F8014DFFF798F9A5
:103D80000CE040F2E4513822FEF733FF02A8382C51
:103D9000A8BF382400F8014DFFF797F902B010BD15
:103DA000013908B5172941D8DFE801F00C0E1012CF
:103DB0001416181A1C1E20222426282A2C2E3032D3
:103DC0003436383A7C212CE07D212AE07E2128E01F
:103DD0007F2126E0802124E0812122E0822120E051
:103DE00083211EE084211CE085211AE0862118E051
:103DF000872116E0882114E0892112E08A2110E051
:103E00008B210EE08C210CE08D210AE08E2108E050
:103E10008F2106E0902104E0912102E0922100E050
:103E200093210122FEF7D6FE012008BD002008BD27
:103E3000013917293FD8DFE801F00C0E10121416D3
:103E4000181A1C1E20222426282A2C2E3032343602
:103E5000383A7C212CE07D212AE07E2128E07F2158
:103E600026E0802124E0812122E0822120E08321BC
:103E70001EE084211CE085211AE0862118E08721BC
:103E800016E0882114E0892112E08A2110E08B21BC
:103E90000EE08C210CE08D210AE08E2108E08F21BC
:103EA00006E0902104E0912102E0922100E09321BC
:103EB0000122FEF79EBE7047013908B5172941D887
:103EC000DFE801F00C0E10121416181A1C1E202226
:103ED0002426282A2C2E30323436383A94212CE0ED
:103EE00095212AE0962128E0972126E0982124E0D8
:103EF000992122E09A2120E09B211EE09C211CE0D8
:103F00009D211AE09E2118E09F2116E0A02114E0D7
:103F1000A12112E0A22110E0A3210EE0A4210CE0D7
:103F2000A5210AE0A62108E0A72106E0A82104E0D7
:103F3000A92102E0AA2100E0AB210122FEF74AFEFE
:103F4000012008BD002008BD013917293FD8DFE84E
:103F500001F00C0E10121416181A1C1E2022242612
:103F6000282A2C2E30323436383A94212CE09521F0
:103F70002AE0962128E0972126E0982124E0992143
:103F800022E09A2120E09B211EE09C211CE09D2143
:103F90001AE09E2118E09F2116E0A02114E0A12143
:103FA00012E0A22110E0A3210EE0A4210CE0A52143
:103FB0000AE0A62108E0A72106E0A82104E0A92143
:103FC00002E0AA2100E0AB210122FEF712BE7047F9
:103FD000013908B5172941D8DFE801F00C0E10129D
:103FE0001416181A1C1E20222426282A2C2E3032A1
:103FF0003436383AC4212CE0C5212AE0C62128E015
:10400000C72126E0C82124E0C92122E0CA2120E0FE
:10401000CB211EE0CC211CE0CD211AE0CE2118E0FE
:10402000CF2116E0D02114E0D12112E0D22110E0FE
:10403000D3210EE0D4210CE0D5210AE0D62108E0FE
:10404000D72106E0D82104E0D92102E0DA2100E0FE
:10405000DB210122FEF7BEFD012008BD002008BDC6
:10406000013917293FD8DFE801F00C0E10121416A1
:10407000181A1C1E20222426282A2C2E30323436D0
:10408000383AC4212CE0C5212AE0C62128E0C72106
:1040900026E0C82124E0C92122E0CA2120E0CB216A
:1040A0001EE0CC211CE0CD211AE0CE2118E0CF216A
:1040B00016E0D02114E0D12112E0D22110E0D3216A
:1040C0000EE0D4210CE0D5210AE0D62108E0D7216A
:1040D00006E0D82104E0D92102E0DA2100E0DB216A
:1040E0000122FEF786BD7047013908B5172959D856
:1040F000DFE801F00C0F1215181B1E2124272A2DB2
:10410000303336393C3F4245484B4E5140F23461E2
:1041100043E040F2356140E040F236613DE040F27C
:1041200037613AE04FF4C76137E040F2396134E07B
:1041300040F23A6131E040F23B612EE040F23C61F6
:104140002BE040F23D6128E040F23E6125E040F284
:104150003F6122E04FF4C8611FE040F241611CE082
:1041600040F2426119E040F2436116E040F24461DE
:1041700013E040F2456110E040F246610DE040F28C
:1041800047610AE04FF4C96107E040F2496104E089
:1041900040F24A6101E040F24B610122FEF71AFD54
:1041A000012008BD002008BD0139172957D8DFE8D4
:1041B00001F00C0F1215181B1E2124272A2D303355
:1041C00036393C3F4245484B4E5140F2346143E062
:1041D00040F2356140E040F236613DE040F2376147
:1041E0003AE04FF4C76137E040F2396134E040F221
:1041F0003A6131E040F23B612EE040F23C612BE05D
:1042000040F23D6128E040F23E6125E040F23F612E
:1042100022E04FF4C8611FE040F241611CE040F22F
:10422000426119E040F2436116E040F2446113E05C
:1042300040F2456110E040F246610DE040F2476116
:104240000AE04FF4C96107E040F2496104E040F23E
:104250004A6101E040F24B610122FEF7CABC70479F
:10426000013908B5172959D8DFE801F00C0F1215EC
:10427000181B1E2124272A2D303336393C3F424556
:10428000484B4E5140F24C6143E040F24D6140E0FA
:1042900040F24E613DE040F24F613AE04FF4CA61B6
:1042A00037E040F2516134E040F2526131E040F2D7
:1042B00053612EE040F254612BE040F2556128E05A
:1042C00040F2566125E040F2576122E04FF4CB61A5
:1042D0001FE040F259611CE040F25A6119E040F2DF
:1042E0005B6116E040F25C6113E040F25D6110E05A
:1042F00040F25E610DE040F25F610AE04FF4CC6194
:1043000007E040F2616104E040F2626101E040F2E6
:1043100063610122FEF75EFC012008BD002008BD9C
:104320000139172957D8DFE801F00C0F1215181BB7
:104330001E2124272A2D303336393C3F4245484B35
:104340004E5140F24C6143E040F24D6140E040F29A
:104350004E613DE040F24F613AE04FF4CA6137E010
:1043600040F2516134E040F2526131E040F2536179
:104370002EE040F254612BE040F2556128E040F21B
:10438000566125E040F2576122E04FF4CB611FE017
:1043900040F259611CE040F25A6119E040F25B6161
:1043A00016E040F25C6113E040F25D6110E040F223
:1043B0005E610DE040F25F610AE04FF4CC6107E01E
:1043C00040F2616104E040F2626101E040F2636149
:1043D0000122FEF70EBC7047653908B51F2975D854
:1043E000DFE801F0101316191C1F2225282B2E318F
:1043F00034373A3D404346494C4F5255585B5E6115
:1044000064676A6D40F27C615BE040F27D6158E078
:1044100040F27E6155E040F27F6152E04FF4D0619E
:104420004FE040F281614CE040F2826149E040F2AD
:10443000836146E040F2846143E040F2856140E000
:1044400040F286613DE040F287613AE04FF4D1618D
:1044500037E040F2896134E040F28A6131E040F2B5
:104460008B612EE040F28C612BE040F28D6128E000
:1044700040F28E6125E040F28F6122E04FF4D2617C
:104480001FE040F291611CE040F2926119E040F2BD
:10449000936116E040F2946113E040F2956110E000
:1044A00040F296610DE040F297610AE04FF4D3616B
:1044B00007E040F2996104E040F29A6101E040F2C5
:1044C0009B610122FEF786FB012008BD002008BD8C
:1044D00065391F2973D8DFE801F0101316191C1F66
:1044E0002225282B2E3134373A3D404346494C4F44
:1044F0005255585B5E6164676A6D40F27C615BE0B7
:1045000040F27D6158E040F27E6155E040F27F610B
:1045100052E04FF4D0614FE040F281614CE040F254
:10452000826149E040F2836146E040F2846143E009
:1045300040F2856140E040F286613DE040F28761F3
:104540003AE04FF4D16137E040F2896134E040F263
:104550008A6131E040F28B612EE040F28C612BE009
:1045600040F28D6128E040F28E6125E040F28F61DB
:1045700022E04FF4D2611FE040F291611CE040F272
:10458000926119E040F2936116E040F2946113E009
:1045900040F2956110E040F296610DE040F29761C3
:1045A0000AE04FF4D36107E040F2996104E040F281
:1045B0009A6101E040F29B610122FEF71ABB70474D
:1045C000013908B5032913D8DFE801F00205080B0B
:1045D00040F29C6107E040F29D6104E040F29E6180
:1045E00001E040F29F610122FEF7F4FA012008BDCC
:1045F000002008BD0139032911D8DFE801F00205C8
:10460000080B40F29C6107E040F29D6104E040F23B
:104610009E6101E040F29F610122FEF7EABA704715
:1046200008B50846114604F0E5FA002008BDFFFF72
:1046300010B5044612480CF00FFE6379642B1ED9A6
:10464000A37903F00F03012B04D1E11D0D4811F0F4
:10465000DFF90DE0022B02D10CF004FE03E0032B86
:1046600006D10CF003FE0246E11D06480CF002FEE6
:10467000044800214122BDE8104024F02FBA10BDAB
:10468000F58B00007895FF1F034B04481978012231
:10469000C901134603F0ECB9FC91FF1F6896FF1F98
:1046A00038B5254B1B78032B05460C461CD006D885
:1046B000012B10D0022B39D10CF0D4FD16E0662B63
:1046C0001FD0672B28D0042B30D108462A461B491F
:1046D00008F096FF1EE00846184A294611F0A6F990
:1046E000003018BF012038BD0CF0C0FD034613494F
:1046F000284622460CF0FAFDD0F1010038BF002018
:1047000038BD0CF0AFFD0D490346224628460CF09B
:1047100075FE08B1002038BD0CF0A8FD074903461E
:10472000224628460CF06AFE0028F3D1044803F024
:10473000B7FB012038BD00BFFC91FF1FAC92FF1FEB
:10474000689D02002DE9F04F91B0DFF8E481734DD0
:1047500098F8003092466A46A2EBC3128B460021BD
:1047600004AF0646954628460A4610F02CF807F195
:104770000C000EF0E6FB07F118000EF0E2FB07F16B
:1047800024000EF0DEFB98F8003005F11400DB0188
:104790004FF001116B600EF047FC0DF1100904465B
:1047A00000286CD15E4B98F800207B60194605F11B
:1047B0002C0092010EF093FC7B68044600285ED129
:1047C00098F80020920105F1380099180EF087FC46
:1047D0000446002853D105F1080005F12C0105F12C
:1047E00038020EF054FF0446002848D107F10C00AF
:1047F00005F12C0101220EF034FF044600283ED1C1
:1048000007F1180005F1380101220EF02AFF0446D5
:10481000A8BB07F1240007F10C0107F118020EF004
:1048200036FF044658BB05F1200005F1140107F1DD
:1048300024020FF061FC044608BB05F1440005F1B9
:10484000200107F10C020FF05FF90446B8B905F139
:10485000500005F1200107F118020FF055F9044648
:1048600068B905F15C00A0F12401A0F130020FF05D
:1048700043FC044618B928460FF0DEFF044607F152
:104880000C000EF065FB07F118000EF061FB07F15C
:1048900024000EF05DFB0CB1224836E098F80030A1
:1048A00080226FF0090112FB0311B142DCBF6FF0EF
:1048B0000A0612FB0366202E0CD003DC1C2E0BD143
:1048C00005230AE0302E03D0402E05D1082304E052
:1048D000072302E0062300E000238DE84808124980
:1048E000CDF80C90012300220C4810F025FB98F81D
:1048F000002004464946D201504617F0F9F807480F
:1049000010F0E8FB204624B1084803F0C9FA4FF044
:10491000FF303437BD46BDE8F08F00BFCC94FF1F99
:10492000CC92FF1F819D020021460000EB9D0200FA
:10493000FC91FF1F2DE9F04F95B0454B19784FF0D2
:10494000FF3202EBC11202F1010A083222F0070223
:1049500002AFE846ADEB020D3E4A117802AC9B4631
:1049600021B90A4605F056FEF8226AE0042967D10B
:10497000394E3A4D33681C2BB1460FD023F010024C
:10498000202A0BD0402B09D0354803F089FA0120AA
:1049900003F03EFC0021316028684CE0314E317854
:1049A000727800932868304B05F092FE2F4B2D68EB
:1049B00024221A702946D9F800207B6007F10800EC
:1049C00017F096F8284600214FF4806224F086F80C
:1049D0002246D9F80000264D07F10801FFF7B2FE84
:1049E0007B680246A0B9F6211970B3789BF80010D5
:1049F0002B70012B20464FEAC11103D11A4603F058
:104A000037F80AE0134603F033F803F0E9FC04E05A
:104A1000002218481A7003F043FA552003F0F8FBFF
:104A200020460021524624F059F82B78012B0AD059
:104A3000114B186800214FF4806224F04FF802E017
:104A400023220A4B1A704C37C546BD46BDE8F08F8D
:104A5000FC91FF1F00BAFF1F4CBAFF1FB88CFF1F4D
:104A6000A59D0200999BFF1F1091FF1FD5B9FF1F45
:104A7000D8B9FF1FCE9D0200A88CFF1F2DE9F0437F
:104A80004E4C4F4D884600218FB081461746204638
:104A90000A460FF098FE05A80EF053FA08A80EF08B
:104AA00050FA0BA80EF04DFA2B7804F11400DB013C
:104AB0004FF0011163600EF0B7FA00284FD1414E5C
:104AC0002A7804F12C00314692010EF008FB0028F0
:104AD00045D12A78920104F13800B1180EF0FFFA9E
:104AE00000283CD104F1080004F12C0104F1380243
:104AF0000EF0CDFD98BB05A804F12C0101220EF0AB
:104B0000B0FD60BB08A804F1380101220EF0A9FD38
:104B100028BB0BA805A908AA0EF0B9FDF8B904F145
:104B2000200004F114010BAA0FF0E6FAB8B904F161
:104B3000440004F1200105AA0EF0E6FF78B904F163
:104B4000500004F1200108AA0EF0DEFF38B904F18C
:104B50005C00A0F12401A0F130020FF0CDFA05A80D
:104B60000EF0F6F908A80EF0F3F90BA80EF0F0F924
:104B700012480FF061FE044668B1134803F090F943
:104B80000E4810F0A7FA2046ACB1104803F088F99F
:104B90004FF0FF300FE04FF400730393214622469D
:104BA000CDF80090CDF8048002970448012310F05E
:104BB00047F90446E4E70FB0BDE8F0830092FF1F19
:104BC000FC91FF1FCC92FF1F819D0200E59D02001A
:104BD0002DE9F04F85B03E4B02AF197800247C6080
:104BE00021B90A4605F016FDF9226AE0042967D1C9
:104BF000384DDFF800B12B689BF80020364EB3EB40
:104C0000C21FEA4609D0354803F04AF9012003F0F3
:104C1000FFFA2C60306821464CE0DFF8DC80DFF8DA
:104C2000D09098F8001098F80120009330682C4B31
:104C300005F04EFD242389F800309BF800303668DB
:104C4000AAEBC31295460DF1080B31462A68254D93
:104C5000584616F04DFF304621464FF4806223F04F
:104C60003DFF2A68204E381D5946FFF707FF0246D0
:104C700098B9F62389F8003098F802303370012B88
:104C80002868796803D11A4602F0F2FE0AE013465A
:104C900002F0EEFE03F0A4FB04E0144889F80040A3
:104CA00003F0FEF8552003F0B3FA3378012B05D05A
:104CB000286800214FF4806223F010FFD54602E0FF
:104CC00023220B4B1A700C37BD46BDE8F08F00BF96
:104CD00000BAFF1F4CBAFF1FB88CFF1F149E0200C2
:104CE0001091FF1FA88CFF1FD8B9FF1F409E020024
:104CF000D5B9FF1FFC91FF1F999BFF1FF0B58BB02B
:104D0000064601A80EF01DF936B204A8184F0EF0A1
:104D100018F9B50107A80EF014F901A839462A467A
:104D20000EF0DDF9044698B904A879192A460EF068
:104D3000D6F9044660B907A801A904AA0EF0A7FC99
:104D4000044628B907A80B49F2010EF002FA0446FE
:104D500001A80EF0FDF804A80EF0FAF807A80EF06E
:104D6000F7F814B1044803F09BF80BB0F0BD00BF96
:104D7000CC92FF1F6896FF1F5A9E02002DE9F04358
:104D8000474C484D884600218FB081461746204643
:104D90000A460FF018FD05A80EF0D3F808A80EF08B
:104DA000D0F80BA80EF0CDF82B7804F11400DB013D
:104DB0004FF0011163600EF037F900284FD13A4EE1
:104DC0002A7804F12C00314692010EF088F900286F
:104DD00045D12A78920104F13800B1180EF07FF91C
:104DE00000283CD104F1080004F12C0104F1380240
:104DF0000EF04DFC98BB05A804F12C0101220EF029
:104E000030FC60BB08A804F1380101220EF029FC37
:104E100028BB0BA805A908AA0EF039FCF8B904F1C3
:104E2000200004F114010BAA0FF066F9B8B904F1DF
:104E3000440004F1200105AA0EF066FE78B904F1E1
:104E4000500004F1200108AA0EF05EFE38B904F10A
:104E50005C00A0F12401A0F130020FF04DF905A88B
:104E60000EF076F808A80EF073F80BA80EF070F8A4
:104E70000B480FF0B5FC024670B90C49CDF8009014
:104E80001346CDF80480029705480FF063FF0446EF
:104E9000034810F01FF920460FB0BDE8F08300BFB3
:104EA000BC95FF1FFC91FF1FCC92FF1F2146000005
:104EB000084100F001007047F0B50025ECB20B1B73
:104EC0000444DBB2E4B29C4205F1010504D2165D54
:104ED000D75C1755D654F1E7F0BDFFFF08B517486A
:104EE0000021412223F0FAFD154B1B78012B05D13F
:104EF00012481449BDE808400AF09ABA022B02D1C0
:104F00000CF0B0F903E0032B08D10CF0AFF9024626
:104F10000A490C48BDE808400CF0AFBA042B0BD18D
:104F200000201F21074AFFF7C7FF04480549002258
:104F3000BDE8084008F064BB08BD00BF7895FF1FBE
:104F4000FC91FF1FAC92FF1F38B5144D0446407909
:104F500005F008FC2B78012B05D1A379042B02D195
:104F60002B70FFF7BBFF2B78042B04D0012B14BF51
:104F70004021202100E0202101221346084802F0B0
:104F800077FD00214022064823F0A8FD05480021B6
:104F90002022BDE8384023F0A1BD00BFFC91FF1FD7
:104FA0007895FF1FAC92FF1F38B505462C4608F0D8
:104FB0002FFE044B44F8783B204609F0ADFF6C60AF
:104FC000284638BD009D02002DE9F04FADF5097D62
:104FD00002AF044607F1A0009A468846164609F03B
:104FE0003BFD07F1A00009F0E1FC073020F00700CD
:104FF000ADEB000D07F1A00009F0D8FC07F58C79A6
:10500000FF22BAFBF0FB0021484623F067FD02AD0A
:105010000022954B13441B79022B19D107F1300064
:105020007A60FCF759FF07F1300049467A68FCF7CF
:105030007DFF07F130004946FCF799FF74B921461E
:1050400007F11000212223F049FD07F1100405E0CB
:10505000FF2AE3D009F802300132DAE7214607F1EE
:10506000A000212209F077FE4146202207F1A0008E
:1050700009F0E0FD07F1A00009F098FC214621228B
:1050800000902B4607F1A00009F07EFE07F1A0007A
:1050900009F08CFC00F1210300F12008283020F0F9
:1050A0000700ADEB000D02ACFB60012304F80830F3
:1050B00007F1A00009F07AFC07F59C7E22184B4608
:1050C00003CB734510605160994602F10802F6D196
:1050D00007F1A00009F06AFC2946024607F1A0008A
:1050E00009F039FE07F1A00009F060FC2122211827
:1050F00007F1A00009F09EFD07F1A00009F056FCA1
:10510000814607F1A00009F051FC4A46294600906B
:10511000334607F1A00009F037FE14F808300133D8
:1051200004F8083007F1A00009F040FC31460246BF
:10513000204616F0DDFC4FF00109D94507F1A0002B
:105140003EDA09F033FC2946024607F1A00009F0D7
:1051500002FE2146FA6807F1A00009F06BFD07F195
:10516000A00009F023FC024607F1A0007A6009F0D4
:105170001DFC09FB006307F1A000BB6009F016FCF1
:1051800000907A68BB68294607F1A00009F0FCFD91
:1051900014F80830013304F8083007F1A00009F0D2
:1051A00005FC09FB006107F1A000B96009F0FEFBF6
:1051B000B9680246204616F09BFC09F10109BCE7DC
:1051C00009F0F4FBBAFBF0F303FB10A000283DD07C
:1051D00007F1A00009F0EAFB073020F00700E946DC
:1051E000ADEB000D07F1A00009F0E0FB0BFB10AAEE
:1051F00007F1A00009F0DAFB2946024607F1A000FA
:1052000009F0A9FD2146FA6807F1A00009F012FD96
:1052100007F1A00009F0CAFB044607F1A00009F05D
:10522000C5FB0DF10808009029462246434607F1C8
:10523000A00009F0A9FD07F1A00009F0B7FB414665
:105240000BFB0060524616F053FCCD4607F1A00060
:1052500009F0DCFB07F1A00009F0E4FB07F5077794
:10526000BD46BDE8F08F00BF1C9CFF1F70B5064611
:105270009CB00D461446CAB9842005F073FA214645
:105280004122134823F02AFC6846FCF725FE6846B5
:1052900010492022FCF74AFE684629462022FCF7E6
:1052A00045FE68460B49FCF762FE0AE0802A08D1F9
:1052B000104605F057FA074928460A462023FFF70B
:1052C00083FE054B1E70FFF709FE1CB070BD00BFCA
:1052D0007895FF1FAC92FF1FFC91FF1F10B504468D
:1052E0004079042809D8A3794BB905F08FFAF8B1B1
:1052F0002046BDE81040FFF7C7B9742807D805F06D
:1053000031FAA8B12046BDE81040FFF71DBE842841
:105310000ED1A07904280BD8E11D0022FFF7A6FFCB
:105320000022044840211346BDE8104002F0A0BB13
:1053300010BD00BF7895FF1F2DE9F043654C664E08
:10534000664D236831787278F1B00746009328687B
:10535000634B05F0BDF94EA80021882223F0BEFB67
:10536000604B4E93604B4F93604B50937879402342
:10537000519320235293C8282EAB5393B04632D971
:10538000C92804D121682B682039012005E0CA28EA
:1053900006D121682B6820390220194400221CE024
:1053A000CB2804D121682B6820390320F5E7D328C6
:1053B00004D121682B68203901200CE0D42804D1C5
:1053C00021682B682039022005E0D52807D1216803
:1053D0002B682039032019448022FFF747FF2368F8
:1053E000203B236005E0A0F165030F2B6ED805F08C
:1053F000B9F92268DFF8DC903D4F202A12AE01D0C7
:10540000402A04D102A8296816F072FB12E0304647
:10541000FCF762FD30462968D9F80020FCF786FDCC
:10542000304602A9FCF7A3FD3B78012B1CBF2023CB
:10543000C9F800302F4A242313703B78012B1746FC
:1054400008D12368009330462B492C4A2B6809F079
:105450006BFF10E0022B02D10BF004FF03E0032BE3
:1054600009D10BF003FF019000962348226802A99E
:105470004EAB0CF042F8F62398F802203B70204B1C
:10548000012A1A7030464FF0400103D1134602F052
:10549000EFFA05E00122134602F0EAFA02F0A0FF5B
:1054A000552002F0B5FE286800214FF4806223F0F9
:1054B00015FB00214122114823F010FB0E4800216A
:1054C000202271B0BDE8F04323F008BB71B0BDE805
:1054D000F08300BF4CBAFF1F999BFF1FB88CFF1FC2
:1054E0001091FF1F356F01003B6F0100416F0100FC
:1054F000FC91FF1FD5B9FF1FAC92FF1F7895FF1FCE
:10550000D8B9FF1F08B5094B197821B90A4605F02B
:1055100081F8F82206E0042903D1BDE80840FFF72E
:105520000BBF2322024B1A7008BD00BF00BAFF1F39
:10553000D5B9FF1F10B504461A480BF08DFE6079EF
:1055400064280DD805F062F9174B1B780BB9174882
:1055500019E0420616D52046BDE81040FFF7EAB92B
:1055600000F13702D2B2032A14D9A0F165020F2A42
:1055700015D805F0F7F8C0B20B4B1B78002BE6D01E
:10558000430607D40A4802F08BFC0020BDE8104017
:1055900002F03EBE2046BDE81040FFF7B3BF00203A
:1055A000EAE700BFF58B0000FC91FF1F789E020028
:1055B000969E02002DE9F04194B00446002103A814
:1055C000412223F08BFA5B4B1E7846B932462046C7
:1055D000314605F01FF8584BF9221A70A7E0042E47
:1055E00040F0A580DFF87081544F554DD8F8003059
:1055F00039787A7828680093524B05F069F8607919
:10560000C928444632D9CA2804D121682B682039D8
:10561000022005E0CB2806D121682B682039032021
:10562000194400221CE0CC2804D121682B682039C1
:105630003046F5E7D42804D121682B6820390220B0
:105640000CE0D52804D121682B682039032005E01F
:10565000D62807D121682B6820393046194480228A
:10566000FFF704FE2368203B236005E0A0F16502FC
:105670000F2A5CD805F076F8334B1A78911E012971
:105680009CBF64321A701B78012B06D12E4B04226A
:105690001A702026FFF722FC00E040262268212A0B
:1056A00001D0412A05D129682848013A22600131F8
:1056B00005E0202A01D0402A03D12448296816F0A9
:1056C00017FA1D4A232313702368402B144601D078
:1056D000202B03D11D4803A9FEF7E2FFF623BA7879
:1056E00023701B4B012A1A7003A8314603D11346BD
:1056F00002F0BEF905E00122134602F0B9F902F00A
:105700006FFE552002F084FD286800214FF480626E
:1057100023F0E4F9002141220C4823F0DFF90D4881
:105720000021202214B0BDE8F04123F0D7B914B015
:10573000BDE8F08100BAFF1FD5B9FF1F999BFF1F7D
:10574000B88CFF1F1091FF1FFC91FF1F7895FF1F62
:10575000D8B9FF1FAC92FF1F4CBAFF1F10B504460B
:105760001A480BF079FD607964280DD805F04EF8E1
:10577000174B1B780BB9174819E0820616D520463F
:10578000BDE81040FFF724BA00F13702D2B2032A75
:1057900014D9A0F165020F2A15D804F0E3FFC0B2B6
:1057A0000B4B1B78002BE6D0830607D40A4802F087
:1057B00077FB0020BDE8104002F02ABD2046BDE87E
:1057C0001040FFF7F7BE0020EAE700BFF58B0000AE
:1057D000FC91FF1F789E0200B99E0200F0B55D4B60
:1057E0005D4E1B7896F84050042B89B0344640F04B
:1057F000AF80304603F0AEFA074660B93946092259
:10580000564823F06BF930463946502209B0BDE8BE
:10581000F04023F063B9524B0022382D1A701E4617
:1058200001D1812002E0302D03D1822004F09AFFC3
:1058300006E06B1E172B03D84A48294604F054FF94
:10584000494B1B7853B9EA180DF803200133202B7C
:10585000F9D1002069460246FFF708FD94F8392087
:105860000323202A33703C4B17D193F83A20202A87
:1058700013D193F83B20202A0FD193F83C20202A03
:105880000BD193F83D20202A07D193F83E20202AFF
:1058900003D193F83F60202E07D03F22A35C13B9B9
:1058A000013A0E2AFAD10132D6B2304D2D4928469E
:1058B0001422FDF76CF82B6827495B6832462846AE
:1058C00098472846FDF7A0F86A46034600F11006FF
:1058D00018685968154603C50833B3422A46F7D1FC
:1058E00018682860202200211E4823F0F7F81421B0
:1058F00068460BF029FFBDF80420A28008AA0546DF
:1059000052F8191D00989DF8063020601848A160D3
:10591000A37191889279C023E3718271C122818041
:10592000E27308AA103052F8121D2161928820F803
:10593000042CC222E2750021382223F0CFF8E8437C
:1059400080B2C323A075E37700124B232076237720
:1059500009B0F0BD00BAFF1F71BBFF1F5DBAFF1F8A
:10596000D8B9FF1FAC92FF1FFC91FF1F3091FF1FA2
:1059700079BBFF1F2DE9F04FB5B00C460DF11008B3
:10598000002106469246404618229B4623F0A6F880
:1059900020686168434603C3BBF1010FA06818602B
:1059A00076D19DF811309DF810501D4405F0030587
:1059B00005F5B4551035AD000FCD0AAC0FC495E810
:1059C0000F0084E80F00142112A809F05BFF0AAF52
:1059D000002312A80293039309F027FF394612A867
:1059E000202209F0B1FE414612A8082209F0FCFE6F
:1059F00002A912A8082209F055FF6FF002019AFBD4
:105A0000F1F1514403239AFBF3FA314412A85346AF
:105A10000A460AF03BF89DF811309DF810401C44EE
:105A200004F0030404F5B4541834A4000FCCB946B0
:105A3000A9E80F0094E80F004FEAEA7589E80F0023
:105A4000314652462B46CDF80080019730460FF084
:105A500049FE9DF811309DF810E09E440EF0030EB3
:105A60000EF5B55E4FEA8E0EBEE80F00BC46ACE800
:105A70000F009EE80F0089E80F0006EB0A00CDF842
:105A800000800197014652462B460FF0A1FE28E107
:105A9000BBF1020F52D19DF811309DF810501D44FA
:105AA00005F0030505F5B455AD000FCD0AAC0FC4E4
:105AB00095E80F0084E80F00142112A809F0E2FE17
:105AC0000AAF002312A80293039309F0AEFE3946F1
:105AD00012A8202209F038FE414612A8082209F037
