:1000000000800020BD01000075550200415502002E
:100010004155020041550200415502004155020080
:10002000415502004155020041550200755502003C
:100030007555020041550200755502003155020008
:100040007555020075550200755502007555020080
:100050007555020075550200755502007555020070
:100060007555020075550200755502007555020060
:100070007555020075550200755502007555020050
:100080007555020075550200755502007555020040
:100090007555020075550200755502007555020030
:1000A0007555020075550200755502007555020020
:1000B0007555020075550200755502007555020010
:1000C0007555020075550200755502007555020000
:1000D00075550200755502007555020075550200F0
:1000E00075550200755502007555020075550200E0
:1000F00075550200157602007555020089700200E0
:1001000075550200456B02007555020075550200D9
:1001100075550200755502007555020075550200AF
:10012000755502007555020075550200755502009F
:10013000755502007555020075550200755502008F
:10014000755502007555020075550200755502007F
:10015000755502007555020075550200755502006F
:100160007555020059B90100755502007555020018
:10017000755502007555020075550200755502004F
:10018000755502007555020075550200755502003F
:10019000755502007555020075550200755502002F
:1001A000755502007555020075550200755502001F
:1001B000755502007555020075550200564B4CF2FC
:1001C000205210B51A804DF628121A8000BF00BFC9
:1001D00025F0D4F9514B4FF010621A60504A9A60E2
:1001E000504ADA60A3F53043203B1A6812F480725B
:1001F00004D14D490A604FF4A8521A604B4B1A784B
:10020000110703D51A7842F008021A70484B2A22C7
:100210001A700023474A48499818884204D247492F
:10022000595899500433F5E7454A464B9A424FF0E6
:10023000000302D242F8043BF7E74349434A5958C6
:1002400099500433B3F5DE7FF7D1414B802103F899
:10025000011B40498B42F9D13F4B1A603F4B0A22A8
:100260001A70A3F5805324225A70A0221A709A792A
:100270009207FCD59A79D406FCD4394B9A7902F0CE
:100280000C02082AF9D105221A7143225A719A796F
:100290009006FCD5324B9A795106FBD5314A4FF086
:1002A000817111600521516020221A702C4B9B79BD
:1002B00003F00C030C2BF9D12B4B2C4A1A602C4B5E
:1002C0002C4A1A6000225A60072243F8042C2A4A5A
:1002D000C3F80C2D62B61CF033F9134B1B68DA0718
:1002E00005D526481BF0B8FF254B264A1A60264B39
:1002F0001B785B0609D5224C224A2368934204D11D
:100300001E481BF0A9FF0023236028F077F825F092
:100310003BF926F0EDF9FEE70E2005403080044061
:10032000823F04000100002B14D0034002D007409C
:1003300000E00740708CFF1FF08EFF1F54C80200C2
:10034000F08EFF1FD4E6FF1F000000000082FF1F99
:1003500000E400E05FE400E008ED00E0005006404B
:10036000004006404480044004800440C010050062
:1003700014E000E03F19010000002020AFABA96AA3
:100380001CE00340A5C3945A00F00740FFFFFFFFA5
:10039000FFFFFFFFFFFFFFFFFFFFFFFFFFFFFFFF6D
:1003A000FFFFFFFFFFFFFFFFFFFFFFFFFFFFFFFF5D
:1003B000FFFFFFFFFFFFFFFFFFFFFFFFFFFFFFFF4D
:1003C000FFFFFFFFFFFFFFFFFFFFFFFFFFFFFFFF3D
:1003D000FFFFFFFFFFFFFFFFFFFFFFFFFFFFFFFF2D
:1003E000FFFFFFFFFFFFFFFFFFFFFFFFFFFFFFFF1D
:1003F000FFFFFFFFFFFFFFFFFFFFFFFFFFFFFFFF0D
:10040000FFFFFFFFFFFFFFFFFFFFFFFFFEFFFFFFFD
:1004100010B5054C237833B9044B13B10448AFF33E
:1004200000800123237010BDF08EFF1F000000002C
:1004300054C8020008B5064B1BB106480649AFF385
:1004400000800648036813B1054B03B1984708BD07
:100450000000000054C80200F48EFF1FF08EFF1F42
:100460000000000008B5C8201CF054F8074A00231B
:10047000137053709370D37013715371044A1370D7
:10048000044A1370BDE8084025F07EBAC4E4FF1F9B
:10049000CAE4FF1FCBE4FF1FF8B51A4B1A481B4EE6
:1004A0001B4F00251D701B4B01241C7001F022FC0A
:1004B000194B1A481C602022294627F0FFFF082309
:1004C000337025F061FA0F233B7025F05DFAFFF7DA
:1004D000C9FF347025F058FA0923337025F054FA17
:1004E00014233B7025F050FA4FF4FA701CF012F808
:1004F0000B4B1D7025F048FAFFF7B4FF094B0A4A71
:100500001A60F8BD99BAFF1FFCBAFF1FCAE4FF1FAB
:10051000C4E4FF1F808CFF1F848CFF1F1091FF1FFE
:10052000CBE4FF1F0CED00E00400FA052DE9F04FCD
:10053000964C9FB0002305460DF10F00237002F08A
:100540009DF9934B1B7823B99DF80F3003F00F03EF
:1005500005E0012B08D19DF80F301B090C339D429B
:1005600002D1FFF799FFCBE18A4E2946304602F0CF
:1005700011F9317811B9304602F00CF9337813B91A
:10058000844B04221A700DF10E00294603F048F93D
:100590009DF80E90C9F3C0038DF80E307E4B1F7886
:1005A000002F40F0AD817D4E394640220EA827F045
:1005B00085FF3946FB22304627F080FF0EA82946EA
:1005C00005F046FDB0F1000826DD754BCDF8008042
:1005D0000EA8E9B20F2209F0C7FD9DF83830082BAC
:1005E0000CD108F1FF380DF139003146424623782D
:1005F0000BF018FF012784F800800DE042462378B5
:100600000EA831460BF00EFF5FFA88F3022208F1C4
:100610000108F25484F80080002140220EA827F03F
:100620004DFF0EA8294603F087F99DF83830C9F32D
:10063000800A5BB1AFB91E2B00F25C81984623782B
:1006400008F10A02F2540133237054E1BAF1000FA9
:100650000AD05FB9B84623780122F25413442370BC
:1006600005E04FF0000802E0D04600E098460EA8F2
:10067000294606F037F8B0F1000A11DDCDF800A0E8
:100680000EA8E9B20222464B09F06EFD52462378CD
:1006900042490EA80BF0C6FE23789A4484F800A0C5
:1006A00009F0030A0EA80021402227F007FFBAF143
:1006B000000F0BD057B9BAF1010F02D0BAF1020FF7
:1006C00004D1237806F803A00133237000214022CF
:1006D0000EA827F0F3FE0EA8294603F0B9F99DF8FD
:1006E00038B00BF1FF331D2B07D837B923780BF146
:1006F0000A02F2540133237001E04FF0000B0EA800
:10070000294602F0BFFDB0F1000A11DDCDF800A0CE
:100710000EA8E9B20522224B09F026FD52462378A5
:100720001E490EA80BF07EFE23789A4484F800A0A0
:10073000C9F3011A0EA80021402227F0BFFEBAF12A
:10074000000F0BD057B9BAF1010F02D0BAF1020F66
:1007500004D1237806F803A001332370002140223E
:100760000EA827F0ABFE0EA8294603F0FDF99DF870
:1007700038A00AF1FF331D2B14D89FB923780AF152
:100780000A02F254013323700EE000BF348FFF1FC2
:1007900030BBFF1FA48CFF1F55BAFF1F508FFF1FD8
:1007A0001091FF1F4FF0000A0EA80021402227F0F1
:1007B00085FE9DF80E302BB127B923780122F25423
:1007C000134423700EA8294603F08AFA9DF83830A6
:1007D000002B7AD0672B46D129460EA806F0DCFA0A
:1007E000494F00900646E9B20EA80922474B09F08E
:1007F000BBFC237832460EA839460BF013FE324676
:100800000EA904A801F07AFE01F0E0FE404400EBDE
:100810000B01514404A801F075FE064601F012FFD9
:10082000237858B94E22FA541F4453224F237B7029
:10083000FA7054234522BB703A710BE03278FA54B7
:100840001F4472787A70B378BB70F378FB70337999
:100850003B7173797B7123780EA806330021402207
:10086000237027F02BFE9DF83830274E792B0BD1C3
:10087000274B1B78022B07D02078002130440AF048
:100880008DF923782C3323709DF83830322B01D02A
:10089000592B0DD11E4B1B78022B09D02078E9B2C1
:1008A00030440AF07BF92378203303EB40002070BA
:1008B0009DF83830752B08D1154B1B78022B04D0CE
:1008C00023780922F254013323705FEAD9130E4BC7
:1008D00004D02278012199540A44227019F0400F63
:1008E00004D022780221995401322270227800210A
:1008F000995405E0B846BAF1000F7FF4ACAEB6E605
:100900001FB0BDE8F08F00BF508FFF1F1091FF1F79
:1009100030BBFF1F0A4B1A780A4B18681AB90A4AEB
:100920005278022A01D1243807E0012A01D12A385D
:1009300003E0032A0CBF1E383038FFF7F7BD00BFB5
:1009400030BBFF1FE09BFF1F88BAFF1F0D4B1A78BB
:100950000D4B18681AB90D4A5278022A01D1243871
:1009600007E0012A01D12A3803E0032A0CBF1E3810
:100970003038074B1B78092B0CBF03300630FFF7CC
:10098000D5BD00BF30BBFF1FE09BFF1F88BAFF1F14
:10099000B78CFF1FF0B5ADF5844D9BB0054646F210
:1009A0006004684621464FF4804205F029FA46F279
:1009B00060039C4204D1284669464FF4804210E00F
:1009C0002B460DF5804605F14007186859683246F8
:1009D00003C20833BB421646F7D12846694644F2A3
:1009E0004002002314F06CFF044B04F580449C4249
:1009F000D7D10DF5844D1BB0F0BD00BF60A0030042
:100A000010B5464B1B6804461878A0F13103082B3B
:100A100006D84FF47A73303858431BF07BFD42E020
:100A200074285CD072285ED03D4B1B78002B3AD0E6
:100A30001CB125F03FF8002435E0702832D068283A
:100A400055D0752855D06F2855D0652855D06428C5
:100A500055D0622855D04C2855D0522855D055280D
:100A600055D0442855D0452855D0632804D12D4B66
:100A70001A7842F0010213E0732804D1294B1A7846
:100A800042F002020CE0612804D1264B1A7842F0B1
:100A9000040205E0672806D1224B1A7842F00802CA
:100AA0001A7000E04624204B1A780AB91C7012E034
:100AB0005A780AB95C700EE09A780AB99C700AE01C
:100AC000DA780AB9DC7006E01A790AB91C7102E01A
:100AD0005A7902B95C71BDE8104024F055BF002C72
:100AE000A7D12B24DFE7002CA3D12824DBE74A245D
:100AF000D9E74B24D7E74E24D5E74D24D3E74C2440
:100B0000D1E72A24CFE75024CDE74F24CBE7522466
:100B1000C9E75124C7E72924C5E700BF4C90FF1F50
:100B200020BBFF1FCAE4FF1FC4E4FF1F2DE9F041F3
:100B3000614B624A1B781078614C4BB1AA2807D1EF
:100B400021680A7822B1092A02D001312160F3E735
:100B500022685C4E15783778DFF864819DB95A4871
:100B60005A4900F0EBFF5848594901F018F830464F
:100B7000294601F00FFE3378002B40F09A800423C1
:100B80003370BDE8F08117FB07F7032697FBF6F6F5
:100B9000012D4FEAC6064FEA470704D1002B77D153
:100BA0004FF22B006AE0022D04D1002B70D14FF2DE
:100BB000280063E0092D15D1464B1B78022B78D015
:100BC000454C01232360454B1E681D4606F57A6699
:100BD0002268002A61D02B68B3425ED200200AF05E
:100BE0001BFFF5E7A5F10A01C8B215280DD8002BA7
:100BF0005FD14FF47A7048431BF08CFCD8F800307A
:100C00000133C8F80030BDE8F081202D34D151788F
:100C10005C2931D10132C8F800209BB1BDE8F081D8
:100C20005C2B14D1264B01321A600020FFF7E8FE3E
:100C300030461BF06FFC23685A1C22605A78202A29
:100C400007D04AB122681378002BE9D112E00120C5
:100C5000ECE71B4A0233136024F078FF30461BF0A8
:100C600059FC24F073FFFFF7FDFB3846BDE8F04167
:100C70001BF050BCBDE8F08153B9284624F01AFFA0
:100C800030461BF047FC24F061FF38461BF042FC65
:100C9000236801332360BDE8F08100230A480B4933
:100CA000236000F04BFF08480949BDE8F04100F01F
:100CB00076BFBDE8F08100BF55BAFF1FD6B9FF1F50
:100CC0004C90FF1FA48CFF1F8490FF1F388FFF1FC5
:100CD0000C8FFF1F30BBFF1F80BCFF1FCCE2FF1F2C
:100CE00008B5054806F016FE044B012205201A70CF
:100CF00006F01EFFF5E700BFF48F0200D6B9FF1F14
:100D00002DE9F74F9F4F3B7804465BB99E4B1B780C
:100D1000092B05D1142803DD9C4B1A6803321A6095
:100D20002D2000E0002006F0B9FE994B1A68022A37
:100D3000994601DDFFF7D4FF964E336801333360E7
:100D4000954B1A7892B3684601F0B2FD9DF80030D9
:100D5000BBB101A801F09FFD9DF80430132B0AD907
:100D600000238E48FF221A540133202BF9D108F0BA
:100D700005FB002003E001338DF8043001A801F0E9
:100D800092FD874B1A6801321A609DF80030326874
:100D90000133DBB201320A2B8DF80030326032D8D9
:100DA000684601F08DFD7C4A00231370DFF8F08166
:100DB000764DD8F8003029787A480133C8F80030E9
:100DC00000F08BFF336801333360774B1B684FF0C3
:100DD000030BB3FBFBF202EB4202981A03EA0B038C
:100DE00018441BF097FB3A78C246002A34D16D486C
:100DF00000F09AFF80BB6B4801F0D0F860BB6948F7
:100E000001F0CAF910B106F0A1FD95E2D8F8003062
:100E1000664C0133C8F800302368092B02DC01332B
:100E2000236089E25C4B01251D70D9F800302B440A
:100E3000C9F800305E4B58461D7006F079FE6846D2
:100E400001F036FD574800F055FFD9F80030256015
:100E5000022B40F371826DE7DAF8002097F80080EA
:100E60000132CAF80020B8F1000F3FD1404601F02E
:100E700027FD4C4800F03EFF4E4BC9F800801A7821
:100E80001D4622B94C480AF027FD06F043FD484CA8
:100E90004A494B4800F052FE207806F0EFFA552000
:100EA00006F0F0FE474B1B78022B264606D015F0C5
:100EB00053FE002001F0F7FC0BF0BEFA424B434A10
:100EC000196811602A78012038701C4612B1307000
:100ED00006F0D4FA2568C8352368AB4203D2002057
:100EE0000AF09AFDF8E71AF0F5FB25E2384A107887
:100EF000A0B9542C12DD2A68312A09D1314A12785E
:100F0000022A0BD0204B1B78092B13D1062012E0AC
:100F1000322A1BD12B4A1278022A0FD12D4A12688D
:100F2000DAB1092A1FDD0A2A58D106F051FD2B68D3
:100F3000312B09D1012008F015FBFDE1124B1B7884
:100F4000092B01D10520F6E70220F4E7332AE5D189
:100F50001C4A1278022AEED1E0E71F4A1268002AE2
:100F600000F0EA813AE0134B1B78002B00F0E4819B
:100F70000F4C2D230120237006F0DAFD012323708E
:100F8000DAE100BF99BAFF1FB78CFF1FE09BFF1F7C
:100F90004C8FFF1F8890FF1F808CFF1FB090FF1F9A
:100FA0008C90FF1FFCBAFF1FF8BAFF1F848CFF1F35
:100FB000D6B9FF1F28BBFF1F54900200208FFF1FD0
:100FC0008490FF1F30BBFF1FCCE2FF1F4CBBFF1FF5
:100FD0005CBAFF1F74BAFF1F149CFF1F914A92480E
:100FE0000021117091490B68036091480078022834
:100FF0008B46914600F073818E4801780129804626
:101000000AD18D4A92F800C02A68624519D18B4AEC
:101010001278B2B102230BE002290BD1884A92F870
:1010200000C02A6862450CD1844A12784AB1032371
:10103000037081E1032904D1824A10782A68824230
:1010400007D0814A1278012A03D0804A1278012AF7
:1010500005D17A4A127812B17D4A12787AB90329F9
:101060007B4A05D11078F52802D17448007830B950
:101070001278F62A40D1714A1278002A3CD0042313
:10108000714A88F8003000231370714C6F4A137056
:101090002378ED2B06D16F4803716378437103F019
:1010A00085FF22E0F02B06D16A4803716378437113
:1010B00004F090F819E0F52B02D104F0CBF814E01D
:1010C000F62B12D1644DDBF8006001232B6006F58E
:1010D0007A662B683BB1DBF80030B34203D20020C4
:1010E0000AF09AFCF5E700232B60002088F8000046
:1010F000207006F0C7FD1FE1A1B14F4A0023137015
:101100004F4A88F8003013704E4A0120137006F0E1
:10111000B9FD524806F0FEFB514BFF2118781BF039
:10112000F5F809E1A4F148026B2A10D82A68312A9F
:101130000DD1424A127852B94A484B4900F0FEFCA0
:1011400009F054FD4748484900F029FDF4E0474ABA
:10115000117809290BD1B4F5B47F08DB2A68322A4B
:1011600008D1434A12782AB106F0F0FBB7E0472CC9
:1011700040F3B5802A68322A0DD130480078002823
:1011800049D1012006F020FB8B2C40F3D5800120B3
:1011900006F070FAD0E0332A3DD1284800780028C4
:1011A00039D109291FD1B32C1DDC324B5A7822B911
:1011B000314A5421117001220CE0012A04D12E4A37
:1011C000D6211170022205E0022A05D12A4A802187
:1011D000117003225A70AFE0032A40F0AD80264A16
:1011E00058701070A8E0254B2548002401261E7079
:1011F0003C7000F07FFD234B23481E6020222146D7
:1012000027F05CF91748214900F0C9FC204B214A1E
:101210002C601A6090E009293ED1B32C5FDD312AA1
:101220003DE000BF508FFF1F4CBBFF1FCCE2FF1FF4
:1012300030BBFF1F00BAFF1F48BBFF1F55BAFF1F7F
:1012400049BBFF1F4ABBFF1F9CBAFF1F98BAFF1F75
:10125000999BFF1F0CBAFF1F80BCFF1F6890020004
:10126000F5BAFF1F8490FF1F0C8FFF1FB78CFF1F65
:1012700028BBFF1F88BAFF1FCCBAFF1F808CFF1F3F
:10128000FCBAFF1F848CFF1F1091FF1F208FFF1FD0
:101290000CED00E00400FA05472C20DD362A1ED1B3
:1012A000274A1278DAB931680131316025490124C1
:1012B0000C7025490978A1420BD03A70234A244882
:1012C000147000F017FD234A23482449146000F0ED
:1012D00066FCDAF800200132CAF800202CE0002079
:1012E00006F0DCFB142C05DC164B1B7813B9FFF75A
:1012F00011FB14E0A4F11503442B05D8114B1B7806
:101300006BB9FFF723FB0AE0592C08DD0D4B1B7866
:101310002BB9134B012202201A7006F009FC114B65
:101320000D481149C3F8009000F008FC0F4B0A4823
:101330000F491A7800F014FC03B0BDE8F08F00BF2D
:1013400055BAFF1F28BBFF1F88BAFF1F808CFF1FE5
:10135000FCBAFF1F848CFF1F8490FF1F208FFF1F8C
:10136000D6B9FF1F4C90FF1F0C8FFF1FA48CFF1FCF
:10137000388FFF1F73B5102024F01CFF624B634DA4
:10138000634C6448644E00221A70644B06221A7043
:10139000634B01221A70634B16221A70624B17229C
:1013A0001A70624B11221A70614B0F221A70614B36
:1013B00010221A700E2320212B701523237004F0A5
:1013C0008EFD306000F08EFB287824F01DFF009029
:1013D000207824F019FF584B01901A6801321A60E6
:1013E000564B1B78442B16D05548FFF7D3FA0224EE
:1013F000534D6319204613F8021C013424F0B2FD4A
:10140000422CF5D1284600214FF4006227F056F80F
:1014100044200BF01DF934687CB904F0D9FC4FF47A
:10142000F860032124F09EFD464801F046F9464B42
:1014300001221A70454B1C7035E0404B1B78442B41
:101440002ED120214248434C04F08CFD424804F048
:101450009FFD424804F0D2FD0021204601F09AF998
:101460003F4801F07DF923780BB9042323703D48F0
:1014700001F0EAF93C4801F0F4F9324801F015F9BD
:101480003A4801F0D4F91BF0A9F82F4B38483949F4
:1014900000221A702D4B01221A7000F080FB02E02E
:1014A000354B364A1A60364B36481A68364901328F
:1014B0001A6040F2FD720CF087FE32486946022243
:1014C00004230CF039FE04232E4801A902220CF05B
:1014D00033FE06F045FD06F0C1FA06F02DFF244864
:1014E0002A4900F05CFB2A4B1B78092B09D1174BCA
:1014F0001B7833B1274800F017FC10B10A20FFF722
:10150000FFFB02B070BD00BF30BBFF1F14BBFF1F4D
:10151000989BFF1F9090FF1F149CFF1FF5BAFF1FA1
:1015200068BBFF1F69BBFF1F9ABAFF1F70BBFF1F7D
:1015300021BBFF1FC1BBFF1F8890FF1F020002409D
:101540001C9CFF1FBC8CFF1F99BAFF1F5CBAFF1FBA
:10155000B090FF1FA48CFF1FF090FF1FD090FF1FC3
:1015600020BBFF1F15BBFF1F9BBAFF1FCEE6FF1F4F
:101570008490FF1F208FFF1F0CED00E00400FA0590
:101580008C90FF1FC4BBFF1F5C9002000C8FFF1FDD
:10159000B78CFF1FFCBAFF1FF8B521201AF08CFE94
:1015A000E8B94B4B1D6804461E46326840F6B73317
:1015B000521B9A4207D864201AF0ACFF21201AF07F
:1015C0007BFE0444F1E754B92046012124F0CAFC13
:1015D0000120014624F0C6FC3E4B3F4A1A603F4BB7
:1015E0003F4D1B7A012B0DD13E4B1B780BB12B7855
:1015F00043B13D4B1B78032B02D0032004F0B4FB16
:101600000AF07EFC394B3A4C1A6801321A60394BA9
:101610001A680623B2FBF3F003FB10201AF07AFFDE
:101620002278354BDAB11A68002001321A600AF0CC
:10163000F3F9324B1B78ABB1314B1B6893B105F01A
:1016400011FF304B1B786BB1214A11682E4A12688A
:101650008A1A4EF660214B439A4221D202E01A6860
:1016600001321A602B784BB123783BB11D4B1B78AC
:1016700023B9264B0120187005F000FF06F080FE0C
:10168000234A12780A32D2B2012A04D82D20BDE8AA
:10169000F84006F003BAC8B1BDE8F840FFF730BB28
:1016A0001C4B1D48002601271F70267000F022FBEE
:1016B0001A4B1B481F602022314626F0FFFE1948B6
:1016C000194900F06CFA044A024BCAE7F8BD00BFA2
:1016D000CCE2FF1F0CED00E00400FA055DBAFF1F2D
:1016E00028BBFF1F55BAFF1FD8B9FF1F8890FF1FE7
:1016F00099BAFF1FF8BAFF1F8C90FF1F5CBAFF1F3B
:10170000149CFF1FBC8CFF1F4CBBFF1FD6B9FF1FD3
:10171000D5B9FF1F808CFF1FFCBAFF1F848CFF1FF1
:101720001091FF1F8490FF1F208FFF1FF8B51D4FE2
:101730003B78092B30D11C4C0021204624F0EEFDD3
:1017400040B32379E12B25D163792F2B22D9174B75
:101750001B78FBB1164E3578E5B93B78092B19D1CA
:10176000144B154801221A7000F0C4FA0AF048FE22
:10177000124B0A201860124B1D60FFF7C1FA204679
:101780002946402226F09AFE337853B10D480AF0DC
:10179000A3F802E00C4800E00C48BDE8F84006F071
:1017A000B9B8F8BDB78CFF1F0CBAFF1F5CBAFF1F9A
:1017B00099BAFF1F808CFF1FFCBAFF1F848CFF1F8C
:1017C000E09BFF1F549002008E9002009C9002004C
:1017D00008B524F07DFB3221084A094800F022FABE
:1017E0003221084A084800F01DFA0848084A4FF418
:1017F0007A71BDE8084000F015BA00BF99150000E5
:101800000C8FFF1F2D0B0000388FFF1F208FFF1F35
:101810002D1700002DE9F04F0A46C9B00023CD5C1A
:10182000D47844EA0564557844EA0544957803F190
:10183000200644EA052404336D46402B745102F11E
:101840000402ECD108AB002208AF9C6B5E6ABD5865
:10185000596835444FEA744686EAF44686EA942489
:101860002C444FEAF11585EAB14585EAD1010432ED
:101870002144C02A196403F10403E5D1026D0092EA
:10188000436D426E0193856D836EC66D076E029542
:101890000396C56E0497059217469DE814000693BB
:1018A0001E46DDF80CC0049B02990795A84600254A
:1018B00005F1200BE9465BF809A0DFF8989055F890
:1018C0000990D1444FEAB31A8AEAF32A8AEA736A82
:1018D000D14426EA030B07EA030A8BEA0A0AD14439
:1018E000C84481EA040901EA040A09EA020989EA0A
:1018F0000A094FEAB20A8AEA723A8AEAB25A043507
:10190000D144B5F5807FC444C14408D0B0463E46BA
:101910001F4663468C46214614464A46C8E7009D4A
:101920004D440565019D2A444265029A039D144475
:10193000049A846562440266059A13442944436606
:10194000079D069BC1651F442E448766C66649B045
:10195000BDE8F08FA890020000230364002200235A
:10196000C0E912230A4B03650A4B43650A4B8365A2
:101970000A4BC3650A4B03660A4B43660A4B8366F0
:1019800003F17453A3F52303A3F69243C366704790
:1019900067E6096A85AE67BB72F36E3C3AF54FA500
:1019A0007F520E518C68059BABD9831F2DE9F04106
:1019B00006460F4601EB0208474516D0336C17F870
:1019C000012BF2540133402B3364F5D130463146BC
:1019D000FFF720FFD6E9124514F5007445F1000524
:1019E0000023C6E912453364E6E7BDE8F081026CE6
:1019F0002DE9F84F372A88464FF08001814602F1E1
:101A00000103815406D8382B14D0002209F8032092
:101A10000133F8E73F2B04D8002209F803200133F3
:101A2000F8E748464946FFF7F5FE484600213822C8
:101A300026F044FDD9F84030D900D9E912235218D4
:101A400043F100034FEA122A160C140E4AEA036A05
:101A50004FEA132B46EA03461F0C44EA03241D0EEB
:101A6000C9E9122389F83B30494689F83F2089F8B3
:101A70003EA089F83D6089F83C4089F83AB089F881
:101A8000397089F838504846FFF7C4FE43460321B1
:101A9000D9F85000CA00D0401870D9F85400D0408E
:101AA0001871D9F85800D0401872D9F85C00D040AD
:101AB0001873D9F86000D0401874D9F86400D04089
:101AC0001875D9F86800D0401876D9F86C0001393B
:101AD00020FA02F21A774A1C03F10103D8D1BDE8BB
:101AE000F88FFFFF07B5064B06499A680092DA683F
:101AF00001920CCB044826F015FF03B05DF804FBFF
:101B00005090FF1FA89102006090FF1F064B1A68BB
:101B1000064B1A60064A12685A60064A12689A60B2
:101B2000054A1268DA607047548004405090FF1FE5
:101B3000588004405C80044060800440036873B1B6
:101B40008B4205D11B69036070478A4204D013465B
:101B50001A69002AF9D102E00A691A6170477047D0
:101B600070B506460C461546FFF7E8FF33680BB91B
:101B7000346004E01A690AB11346FBE71C611AF0ED
:101B8000A9FC23680322C01A4FF4FA536B43B5FB38
:101B9000F2F55D43002360602560236170BD38B5B8
:101BA00005460C46FFF7CAFF2B680BB92C6004E012
:101BB0001A690AB11346FBE71C611AF08BFC236813
:101BC000C01A00236060236138BD38B50C461AF096
:101BD00081FC6268236813449842054605D3626815
:101BE000934208D26268824205D86268954207D261
:101BF00062689A4204D8A560E36820469847656009
:101C000038BD38B505462C68002CFCD02146284646
:101C1000FFF7DBFF2469F7E708B50148FFF7F1FF9D
:101C20008490FF1F10B54FF47A746143C2600022A4
:101C300001604260026110BD4FF47A735943016044
:101C40007047FFFFF8B504460E4615461F46044A86
:101C5000FFF7E8FF6661E561A7612046F8BD00BFB8
:101C6000851C000010B50021044680F82010FFF705
:101C7000E3FF21460248BDE81040FFF790BF00BFD8
:101C80008490FF1F10B590F8203004463BB9012323
:101C900080F820304169BDE81040FFF7CDBF012B2F
:101CA00010D109482146FFF749FFE36913B9A0693C
:101CB00020B910BD2046984720B1F8E7BDE8104094
:101CC000FFF7D0BF10BD00BF8490FF1F002241610D
:101CD00042740270704741617047437C102B07D0FB
:101CE0005A1CD2B24274C15400238354012070475D
:101CF00000207047002343740370704710B5446997
:101D000002782178002321B9D2F1010038BF0020E8
:101D100010BD914206D1E2185178C2180133102B40
:101D20005278F0D1002010BD2DE9F043B9B004463F
:101D300026F033FE8C4B00221A708C4A1278092A46
:101D4000054619460ED168B9894B224603F11000A9
:101D500053F8045B42F8045B8342F9D101230B7012
:101D6000102505E0062803D81E201AF0D3FBF6E064
:101D70001CA8FFF7F1FD21462A461CA8FFF716FE16
:101D800020221CA87B497C4CFFF710FE1CA80CA944
:101D9000FFF72DFE9DF8303023F007038DF830302B
:101DA0009DF84F3003F03F0343F040030CA900229D
:101DB00020468DF84F300BF07DF91CA8FFF7CCFDC5
:101DC00014A800F082FD1CA814A91022FFF7EEFD54
:101DD0001CA86A491022FFF7E9FD20221CA8214611
:101DE000FFF7E4FD21461CA8FFF701FE1CA8FFF742
:101DF000B3FD1CA814A91022FFF7D8FD1CA85F4949
:101E00001022FFF7D3FD20221CA85D49FFF7CEFD6D
:101E10001CA804A9FFF7EBFD5A4B9DF81050D3F80E
:101E20000080594B20781A68531C02F11F0902F1F7
:101E3000200CC2EB08014B4503F1FF37C2F100064D
:101E4000194477D14F4B504C19608542276004D01C
:101E50004D4B1A6801321A6081E00DF10F0000F05D
:101E60008CFC9DF80F504448012D28D104F0DCF87B
:101E700018B94148454A0CA927E00CA9434A04A8CF
:101E80000BF018F91CA8FFF767FD1CA814A9202265
:101E9000FFF78CFD1CA83E491022FFF787FD1CA808
:101EA00004A92022FFF782FD1CA832492022FFF757
:101EB0007DFD1CA80CA9FFF79AFD00952AE004F00F
:101EC000B3F828B92C482E4A0CA90BF0F3F827E0F8
:101ED0000CA92B4A04A80BF0EDF81CA8FFF73CFD59
:101EE0001CA814A92022FFF761FD1CA82849102274
:101EF000FFF75CFD1CA804A92022FFF757FD1CA8D2
:101F00001C492022FFF752FD1CA80CA9FFF76FFD0A
:101F10000123009318481E490CAA202303F0EEFD6C
:101F200023681C4A01332360002313701A4A0120DE
:101F3000136015E0854204D0124B1960124B1F60EC
:101F400086E704A830442644C55CF05C1E46013395
:101F500063457FF46EAF0B4B19600B4B1E60002086
:101F600039B0BDE8F08300BF88BAFF1FB78CFF1FF0
:101F70007290FF1F9090FF1F1091FF1F7090FF1F26
:101F8000B090FF1F8890FF1F8C90FF1FD090FF1F05
:101F90006090FF1F30BBFF1FCCBAFF1F2DE9F0433D
:101FA000B9B0054626F0F9FC0628044603D81E20E1
:101FB0001AF0B0FA73E01CA8FFF7CEFC29462246BF
:101FC0001CA8FFF7F3FC20221CA86849684CFFF707
:101FD000EDFC1CA80CA9FFF70AFD9DF8303023F09A
:101FE00007038DF830309DF84F3003F03F0343F086
:101FF00040030CA9002220468DF84F300BF05AF810
:102000001CA8FFF7A9FC14A800F05FFC1CA814A9E9
:102010001022FFF7CBFC1CA856491022FFF7C6FC84
:1020200020221CA82146FFF7C1FC21461CA8FFF76F
:10203000DEFC1CA8FFF790FC1CA814A91022FFF7D7
:10204000B5FC1CA84B491022FFF7B0FC20221CA8AD
:102050004949FFF7ABFC1CA804A9FFF7C8FC474B94
:102060009DF81050D3F80080454B20781A68531C17
:1020700002F11F0902F1200CC2EB08014B4503F1EC
:10208000FF37C2F10006194457D13C4B3C4C196054
:102090008542276005D03A4B1A6801321A60002049
:1020A00060E00DF10F0000F068FB9DF80F30022B8F
:1020B00038D02F4803F0B8FF28B90CA9314A2C4872
:1020C0000AF0F8FF27E00CA92E4A04A80AF0F2FF54
:1020D0001CA8FFF741FC1CA814A92022FFF766FCEE
:1020E0001CA829491022FFF761FC1CA804A9202282
:1020F000FFF75CFC20221CA81C49FFF757FC1CA81A
:102100000CA9FFF774FC0123009319481E490CAA7F
:10211000202303F0F3FC1D4B01221A701C4B5422A8
:102120001A7005E01B4A1278002AB8D1174A1370BA
:10213000236801332360012014E0854204D00F4B53
:1021400019600F4B1F60A6E704A830442644C55C05
:10215000F05C1E46013363458ED1084B1960084B75
:102160001E609CE739B0BDE8F08300BF9090FF1F70
:102170001091FF1F7090FF1FD090FF1F8890FF1FCE
:102180008C90FF1FB090FF1F6090FF1F30BBFF1FA0
:10219000CCBAFF1F28BBFF1F30B59DB0054626F007
:1021A000FCFB0628044603D81E201AF0B3F922E0EF
:1021B0006846FFF7D1FB2246684629460F4CFFF7D9
:1021C000F5FB202268460E49FFF7F0FB68462146E2
:1021D000FFF70DFC0B4920780A78002382420AD1D0
:1021E000CA18E01801331E2B52784078F6D1131A22
:1021F0005842584100E000201DB030BD1091FF1F33
:102200009090FF1FF090FF1F23F062BE10B5084BA7
:1022100000F14C0203F1140153F8044B42F8044B53
:102220008B42F9D10023036680F8483010BD00BF0F
:10223000888CFF1F2DE9F04F416D826DC36DD0F882
:102240004C80D0F850C085B099460191029203931A
:102250004646134600240A466146E5B20F2D07D8CC
:1022600083EA020A0AEA010A8AEA030A334F3FE0D4
:1022700004F10D0B04F108070BF00F0B07F00F072B
:102280000BF1020B023705F00F0A50F8277050F8D7
:102290002BB000EB8A0A8BEA070BDAF808708BEA9E
:1022A000070BA71C07F00F070237132D50F82770F4
:1022B0008BEA07074FEAF777CAF80870D0D9272DBD
:1022C00005D882EA010A8AEA030A1D4F10E03B2D75
:1022D00009D842EA010A02EA01070AEA030A4AEABD
:1022E000070A184F04E082EA010A174F8AEA030A34
:1022F00005F00F050235574450F82550013405EB21
:10230000F6653D44502C4D444FEAB10105D0994645
:1023100013460A4631462E469FE7019C21444165FB
:1023200002990A448265039A454466441344C5648D
:102330000665C36505B0BDE8F08F00BF9979825A84
:10234000A1EBD96EDCBC1B8FD6C162CA90F84830B5
:1023500083F003020133DBB20244402B10B511724B
:10236000044680F8483004D1FFF764FF002384F866
:10237000483010BD08B5026E01320266FFF7E6FF75
:10238000012008BD10B580210446FFF7DFFF94F857
:102390004830382B20464FF00001F6D1FFF7D6FF2A
:1023A00020460021FFF7D2FF20460021FFF7CEFF95
:1023B000216E2046490FFFF7C9FF216E2046C1F369
:1023C0004751FFF7C3FF216E2046C1F34731FFF7A6
:1023D000BDFF216E2046C1F34711FFF7B7FF216E05
:1023E000C900204601F0F801BDE81040FFF7AEBF7C
:1023F00010B50446FFF7C6FF0023E2180433D16C82
:10240000142B09BAD164F8D104F14C0010BDF8B511
:1024100000F16406174604460D463046002140226E
:1024200026F04CF8402F18DD2046FFF7EFFE2F4432
:10243000BD4206D0236815F8011B1B68204698474B
:10244000F6E72046FFF7D4FF00F1140250F8041B12
:1024500046F8041B9042F9D104E0304629463A463A
:1024600019F07EF82046FFF7D1FE254604F140061C
:1024700095F86410236820461B6881F03601013509
:102480009847B542F4D1F8BD70B50446FFF7B0FFE8
:1024900004F1A40300F1140250F8041B43F8041BD8
:1024A0009042F9D12046FFF7B1FE04F140062546DF
:1024B00095F86410236820461B6881F05C010135A3
:1024C0009847B542F4D104F114062546236895F8DF
:1024D000A4101B68204601359847B542F6D1204626
:1024E000BDE87040FFF784BF024B00221A71024A18
:1024F0001A6070473091FF1FC891020080E8060003
:102500007047FFFF1E2391FBF3F10B0E70B51E4EBB
:1025100003740B140446002543740B12816083740A
:10252000C174057394E8060045738573C57330461E
:10253000FFF76DFF336804F10C015B680822304639
:1025400098473046FFF7A0FF6061C37CE56103F068
:102550000F03A361E269C1181202E261495D01350E
:102560000A43042DE261F5D1084B22F0004292FBB0
:10257000F3F103FB1122E26120342046044926F0E6
:10258000D1F9204670BD00BF3091FF1F40420F00BF
:10259000D0910200074B1860074B1B681844074B8B
:1025A0001860074B02221A70064B1A68064B1A6015
:1025B000704700BFE891FF1F9C8CFF1FF891FF1F21
:1025C000EC91FF1FCCE2FF1FF491FF1F70B516497D
:1025D000164C0A68236816480068801AB0F57A7F9E
:1025E00002F57A7603F1010502D32B463246F2E773
:1025F000104D0A602A6823609A4213D80E4B1B685C
:1026000083B1984710B1FFF7C5FF0BE00B4B1A6879
:10261000064B1B6813442B60094B1A78003218BF15
:1026200001221A70206870BDF491FF1FE891FF1F0E
:10263000CCE2FF1FF891FF1FF091FF1F9C8CFF1F42
:10264000EC91FF1F08B5FFF7C1FF014B187808BDDB
:10265000EC91FF1FF8B506460D468F180C46BC429C
:1026600006D0204623F06AFC731B18550134F6E7A8
:10267000F8BDF8B506460D468F180C46BC4206D08C
:10268000731B2046195D23F06DFC0134F6E7F8BD9D
:1026900008B54FF4D5610122FFF7DCFF012008BD2A
:1026A0004FF4D5610122FFF7E4BF08B540F2A961FC
:1026B0000122FFF7CFFF012008BD40F2A9610122EE
:1026C000FFF7D7BF08B540F2AA610122FFF7C2FFAA
:1026D000012008BD40F2AA610122FFF7CABF08B578
:1026E00040F2D561D022FFF7B5FFD02008BD40F2FF
:1026F000D561D022FFF7BDBF08B540F2AB61012222
:10270000FFF7A8FF012008BD40F2AB610122FFF7EF
:10271000B0BF08B540F2AC610122FFF79BFF01207A
:1027200008BD40F2AC610122FFF7A3BF08B540F23B
:10273000AD610122FFF78EFF012008BD40F2AD61BF
:102740000122FFF796BF08B540F2A5710122FFF7FD
:1027500081FF012008BD40F2A5710122FFF789BF6A
:1027600008B540F2A6710122FFF774FF012008BDF1
:1027700040F2A6710122FFF77CBF08B540F2AE61BE
:102780000122FFF767FF012008BD40F2AE61012280
:10279000FFF76FBF10B5044629B940F2AF610122BF
:1027A000FFF758FF17E04B1E0B2B08D801F2CB7137
:1027B0000122FFF74FFF237803F00F030AE0A1F196
:1027C0000D030B2B07D801F2CB710122FFF742FF5B
:1027D00023781B092370012010BD70B501F2CB7660
:1027E0000D460446314601300122FFF733FF1DB983
:1027F000204640F2AF6114E06B1E0B2B05D86378C6
:10280000227823F00F03134408E00D3D0B2D0DD863
:102810006378227803F00F0303EB02132370204642
:1028200031460122BDE87040FFF723BF70BD08B5F7
:102830004FF4D6610122FFF70DFF012008BD4FF4D0
:10284000D6610122FFF715BF08B540F2D36101221E
:10285000FFF700FF012008BD40F2D3610122FFF71E
:1028600008BF08B540F2BF710122FFF7F3FE012057
:1028700008BD40F2BF710122FFF7FBBE08B540F270
:10288000D4610122FFF7E6FE012008BD40F2D461C9
:102890000122FFF7EEBE08B540F2B1610122FFF759
:1028A000D9FE012008BD40F2B1610122FFF7E1BE6F
:1028B00008B540F2B2610122FFF7CCFE012008BD4D
:1028C00040F2B2610122FFF7D4BE08B540F2B36115
:1028D0002022FFF7BFFE202008BD40F2B361202276
:1028E000FFF7C7BE08B540F21C610122FFF7B2FE38
:1028F000012008BD40F21C610122FFF7BABE08B5F5
:1029000040F21D610122FFF7A5FE012008BD40F243
:102910001D610122FFF7ADBE08B540F21E61012224
:10292000FFF798FE012008BD40F21E610122FFF76B
:10293000A0BE08B540F21F610122FFF78BFE012007
:1029400008BD40F21F610122FFF793BE08B54FF4A6
:10295000C4610122FFF77EFE012008BD4FF4C4616F
:102960000122FFF786BE08B540F221610122FFF780
:1029700071FE012008BD40F221610122FFF779BEFE
:1029800008B540F222610122FFF764FE012008BD74
:1029900040F222610122FFF76CBE08B540F22361CC
:1029A0000122FFF757FE012008BD40F223610122FA
:1029B000FFF75FBE08B540F224610122FFF74AFE2F
:1029C000012008BD40F224610122FFF752BE08B584
:1029D00040F225610122FFF73DFE012008BD40F2D3
:1029E00025610122FFF745BE08B540F226610122AC
:1029F000FFF730FE012008BD40F226610122FFF7FB
:102A000038BE08B540F227610122FFF723FE0120FE
:102A100008BD40F227610122FFF72BBE08B54FF435
:102A2000C5610122FFF716FE012008BD4FF4C56104
:102A30000122FFF71EBE08B540F229610122FFF70F
:102A400009FE012008BD40F229610122FFF711BEF5
:102A500008B540F22A610122FFF7FCFD012008BD04
:102A600040F22A610122FFF704BE08B540F22B6153
:102A70000122FFF7EFFD012008BD40F22B6101228A
:102A8000FFF7F7BD08B540F22C610122FFF7E2FD28
:102A9000012008BD40F22C610122FFF7EABD08B514
:102AA00040F22D610122FFF7D5FD012008BD40F263
:102AB0002D610122FFF7DDBD08B540F22E61012234
:102AC000FFF7C8FD012008BD40F22E610122FFF78B
:102AD000D0BD08B540F22F610122FFF7BBFD0120F8
:102AE00008BD40F22F610122FFF7C3BD08B54FF4C6
:102AF000C6610122FFF7AEFD012008BD4FF4C6619B
:102B00000122FFF7B6BD08B540F231610122FFF79F
:102B1000A1FD012008BD40F231610122FFF7A9BDEE
:102B200008B540F232610122FFF794FD012008BD93
:102B300040F232610122FFF79CBD08B540F23361DB
:102B40000122FFF787FD012008BD40F23361012219
:102B5000FFF78FBD08B5AC210122FFF77BFD0120F7
:102B600008BDAC210122FFF784BD08B5AD210122CB
:102B7000FFF770FD012008BDAD210122FFF779BDEF
:102B800008B5AE210122FFF765FD012008BDAE2189
:102B90000122FFF76EBD08B5AF210122FFF75AFDF4
:102BA000012008BDAF210122FFF763BD08B5B021A8
:102BB0000122FFF74FFD012008BDB0210122FFF7E0
:102BC00058BD08B5B1210122FFF744FD012008BD21
:102BD000B1210122FFF74DBD08B5B2210122FFF757
:102BE00039FD012008BDB2210122FFF742BD08B521
:102BF000B3210122FFF72EFD012008BDB3210122E0
:102C0000FFF737BD08B5B4210122FFF723FD0120EE
:102C100008BDB4210122FFF72CBD08B5B521012262
:102C2000FFF718FD012008BDB5210122FFF721BDE6
:102C300008B5B6210122FFF70DFD012008BDB62120
:102C40000122FFF716BD08B5B7210122FFF702FDEB
:102C5000012008BDB7210122FFF70BBD08B5B8213F
:102C60000122FFF7F7FC012008BDB8210122FFF780
:102C700000BD08B5B9210122FFF7ECFC012008BD19
:102C8000B9210122FFF7F5BC08B5BA210122FFF7EF
:102C9000E1FC012008BDBA210122FFF7EABC08B51A
:102CA000BB210122FFF7D6FC012008BDBB21012278
:102CB000FFF7DFBC08B5BC210122FFF7CBFC0120E8
:102CC00008BDBC210122FFF7D4BC08B5BD210122FB
:102CD000FFF7C0FC012008BDBD210122FFF7C9BCE0
:102CE00008B5BE210122FFF7B5FC012008BDBE21B9
:102CF0000122FFF7BEBC08B5BF210122FFF7AAFCE5
:102D0000012008BDBF210122FFF7B3BC08B5C021D7
:102D10000122FFF79FFC012008BDC0210122FFF71F
:102D2000A8BC08B5C1210122FFF794FC012008BD11
:102D3000C1210122FFF79DBC08B5C2210122FFF786
:102D400089FC012008BDC2210122FFF792BC08B511
:102D5000C3210122FFF77EFC012008BDC32101220F
:102D6000FFF787BC08B564210122FFF773FC01203F
:102D700008BD64210122FFF77CBC08B56521012252
:102D8000FFF768FC012008BD65210122FFF771BC37
:102D900008B566210122FFF75DFC012008BD662110
:102DA0000122FFF766BC08B567210122FFF752FC3C
:102DB000012008BD67210122FFF75BBC08B568212F
:102DC0000122FFF747FC012008BD68210122FFF71F
:102DD00050BC08B569210122FFF73CFC012008BD69
:102DE00069210122FFF745BC08B56A210122FFF7DE
:102DF00031FC012008BD6A210122FFF73ABC08B569
:102E00006B210122FFF726FC012008BD6B21012266
:102E1000FFF72FBC08B56C210122FFF71BFC012036
:102E200008BD6C210122FFF724BC08B56D210122E9
:102E3000FFF710FC012008BD6D210122FFF719BC2E
:102E400008B56E210122FFF705FC012008BD6E21A7
:102E50000122FFF70EBC08B56F210122FFF7FAFB34
:102E6000012008BD6F210122FFF703BC08B57021C6
:102E70000122FFF7EFFB012008BD70210122FFF7BF
:102E8000F8BB08B571210122FFF7E4FB012008BD62
:102E900071210122FFF7EDBB08B572210122FFF776
:102EA000D9FB012008BD72210122FFF7E2BB08B562
:102EB00073210122FFF7CEFB012008BD73210122FF
:102EC000FFF7D7BB08B574210122FFF7C3FB012030
:102ED00008BD74210122FFF7CCBB08B57521012282
:102EE000FFF7B8FB012008BD75210122FFF7C1BB28
:102EF00008B576210122FFF7ADFB012008BD762140
:102F00000122FFF7B6BB08B577210122FFF7A2FB2C
:102F1000012008BD77210122FFF7ABBB08B578215E
:102F20000122FFF797FB012008BD78210122FFF75E
:102F3000A0BB08B579210122FFF78CFB012008BD59
:102F400079210122FFF795BB08B57A210122FFF70D
:102F500081FB012008BD7A210122FFF78ABB08B559
:102F60007B210122FFF776FB012008BD7B21012296
:102F7000FFF77FBB08B540F264610122FFF76AFBEF
:102F8000012008BD40F264610122FFF772BB08B561
:102F900040F265610122FFF75DFB012008BD40F2B0
:102FA00065610122FFF765BB08B540F26661012249
:102FB000FFF750FB012008BD40F266610122FFF7D8
:102FC00058BB08B540F267610122FFF743FB0120BF
:102FD00008BD40F267610122FFF74BBB08B54FF413
:102FE000CD610122FFF736FB012008BD4FF4CD6112
:102FF0000122FFF73EBB08B540F269610122FFF7ED
:1030000029FB012008BD40F269610122FFF731BBB5
:1030100008B540F26A610122FFF71CFB012008BDE0
:1030200040F26A610122FFF724BB08B540F26B61F0
:103030000122FFF70FFB012008BD40F26B61012266
:10304000FFF717BB08B540F26C610122FFF702FBE6
:10305000012008BD40F26C610122FFF70ABB08B5F0
:1030600040F26D610122FFF7F5FA012008BD40F240
:103070006D610122FFF7FDBA08B540F26E610122D1
:10308000FFF7E8FA012008BD40F26E610122FFF768
:10309000F0BA08B540F26F610122FFF7DBFA0120B8
:1030A00008BD40F26F610122FFF7E3BA08B54FF4A3
:1030B000CE610122FFF7CEFA012008BD4FF4CE61A8
:1030C0000122FFF7D6BA08B540F271610122FFF77D
:1030D000C1FA012008BD40F271610122FFF7C9BAAF
:1030E00008B540F272610122FFF7B4FA012008BD71
:1030F00040F272610122FFF7BCBA08B540F2736179
:103100000122FFF7A7FA012008BD40F273610122F6
:10311000FFF7AFBA08B540F274610122FFF79AFADF
:10312000012008BD40F274610122FFF7A2BA08B580
:1031300040F275610122FFF78DFA012008BD40F2CF
:1031400075610122FFF795BA08B540F27661012258
:10315000FFF780FA012008BD40F276610122FFF7F7
:1031600088BA08B540F277610122FFF773FA0120AF
:1031700008BD40F277610122FFF77BBA08B54FF432
:10318000CF610122FFF766FA012008BD4FF4CF613D
:103190000122FFF76EBA08B540F279610122FFF70C
:1031A00059FA012008BD40F279610122FFF761BAA6
:1031B00008B540F27A610122FFF74CFA012008BD00
:1031C00040F27A610122FFF754BA08B540F27B6100
:1031D0000122FFF73FFA012008BD40F27B61012286
:1031E000FFF747BA08B546211022FFF733FA10203F
:1031F00008BD46211022FFF73CBA38B505460C46FB
:1032000011B9622102220BE04B1E172B0AD801F2E2
:1032100063610122FFF71EFA681C04F2A671012205
:10322000FFF718FA022038BD38B505460C4611B92B
:10323000622102220BE04B1E172B0CD801F26361B6
:103240000122FFF716FA681C04F2A6710122BDE8FC
:103250003840FFF70EBA38BD08B55C210622FFF7EB
:10326000F9F9062008BD5C210622FFF702BA08B56D
:1032700056210622FFF7EEF9062008BD5621062248
:10328000FFF7F7B937B501390446172900F2558120
:10329000DFE811F01800240031003E004B00580018
:1032A000650072007F008C009900A600B300C0008A
:1032B000CD00DA00E700F40001010E011B01280136
:1032C000350142010DF10700FFF70CFB9DF8075097
:1032D0002046382DA8BF3825DC2129E10DF1070053
:1032E000FFF70DFB9DF807502046382DA8BF382565
:1032F0004FF48A711CE10DF10700FFF70DFB9DF8FB
:1033000007502046382DA8BF38254FF4A6710FE18D
:103310000DF10700FFF70DFB9DF807502046382DF3
:10332000A8BF38254FF4C27102E10DF10700FFF785
:103330000DFB9DF807502046382DA8BF38254FF4C7
:10334000DE71F5E00DF10700FFF70DFB9DF807506A
:103350002046382DA8BF38254FF4FA71E8E00DF16A
:103360000700FFF70DFB9DF807502046382DA8BF3A
:1033700038254FF40B71DBE00DF10700FFF70DFB73
:103380009DF807502046382DA8BF38254FF41971F5
:10339000CEE00DF10700FFF70DFB9DF8075020462A
:1033A000382DA8BF38254FF42771C1E00DF1070073
:1033B000FFF70DFB9DF807502046382DA8BF382594
:1033C0004FF43571B4E00DF10700FFF70DFB9DF8E8
:1033D00007502046382DA8BF38254FF44371A7E089
:1033E0000DF10700FFF70DFB9DF807502046382D23
:1033F000A8BF38254FF451719AE00DF10700FFF78F
:103400000DFB9DF807502046382DA8BF38254FF4F6
:103410005F718DE00DF10700FFF70DFB9DF8075080
:103420002046382DA8BF38254FF46D7180E00DF18E
:103430000700FFF70DFB9DF807502046382DA8BF69
:1034400038254FF47B7173E00DF10700FFF70DFB9A
:103450009DF807502046382DA8BF382540F224415A
:1034600066E00DF10700FFF70DFB9DF807502046C1
:10347000382DA8BF382540F25C4159E00DF1070016
:10348000FFF70DFB9DF807502046382DA8BF3825C3
:1034900040F294414CE00DF10700FFF70DFB9DF861
:1034A00007502046382DA8BF382540F2CC413FE0D8
:1034B0000DF10700FFF70DFB9DF807502046382D52
:1034C000A8BF382540F2045132E00DF10700FFF7A4
:1034D0000DFB9DF807502046382DA8BF382540F237
:1034E0003C5125E00DF10700FFF70DFB9DF807505B
:1034F0002046382DA8BF382540F2745118E00DF150
:103500000700FFF70DFB9DF807502046382DA8BF98
:10351000382540F2AC510BE00DF10700FFF70DFB31
:103520009DF807502046382DA8BF382540F2E451B9
:103530003822FFF78FF8284600E0002003B030BDA6
:10354000013A13B50C46172A00F26881DFE812F041
:1035500018002500330041004F005D006B0079002A
:1035600087009500A300B100BF00CD00DB00E9009B
:10357000F7000501130121012F013D014B01590104
:10358000DC213822FFF775F802A8382CA8BF3824B0
:1035900000F8014DFFF7AEF940E14FF48A7138228F
:1035A000FFF767F802A8382CA8BF382400F8014DAF
:1035B000FFF7ADF932E14FF4A6713822FFF759F861
:1035C00002A8382CA8BF382400F8014DFFF7ACF949
:1035D00024E14FF4C2713822FFF74BF802A8382CCF
:1035E000A8BF382400F8014DFFF7ABF916E14FF4FE
:1035F000DE713822FFF73DF802A8382CA8BF382426
:1036000000F8014DFFF7AAF908E14FF4FA713822EA
:10361000FFF72FF802A8382CA8BF382400F8014D76
:10362000FFF7A9F9FAE04FF40B713822FFF721F800
:1036300002A8382CA8BF382400F8014DFFF7A8F9DC
:10364000ECE04FF419713822FFF713F802A8382C78
:10365000A8BF382400F8014DFFF7A7F9DEE04FF4CA
:1036600027713822FFF705F802A8382CA8BF3824A4
:1036700000F8014DFFF7A6F9D0E04FF4357138227C
:10368000FEF7F7FF02A8382CA8BF382400F8014D38
:10369000FFF7A5F9C2E04FF443713822FEF7E9FFC6
:1036A00002A8382CA8BF382400F8014DFFF7A4F970
:1036B000B4E04FF451713822FEF7DBFF02A8382C3A
:1036C000A8BF382400F8014DFFF7A3F9A6E04FF496
:1036D0005F713822FEF7CDFF02A8382CA8BF38242E
:1036E00000F8014DFFF7A2F998E04FF46D71382210
:1036F000FEF7BFFF02A8382CA8BF382400F8014D00
:10370000FFF7A1F98AE04FF47B713822FEF7B1FF91
:1037100002A8382CA8BF382400F8014DFFF7A0F903
:103720007CE040F224413822FEF7A3FF02A8382CA7
:10373000A8BF382400F8014DFFF79FF96EE040F272
:103740005C413822FEF795FF02A8382CA8BF382428
:1037500000F8014DFFF79EF960E040F294413822F5
:10376000FEF787FF02A8382CA8BF382400F8014DC7
:10377000FFF79DF952E040F2CC413822FEF779FF85
:1037800002A8382CA8BF382400F8014DFFF79CF997
:1037900044E040F204513822FEF76BFF02A8382CB7
:1037A000A8BF382400F8014DFFF79BF936E040F23E
:1037B0003C513822FEF75DFF02A8382CA8BF382400
:1037C00000F8014DFFF79AF928E040F274513822D1
:1037D000FEF74FFF02A8382CA8BF382400F8014D8F
:1037E000FFF799F91AE040F2AC513822FEF741FF99
:1037F00002A8382CA8BF382400F8014DFFF798F92B
:103800000CE040F2E4513822FEF733FF02A8382CD6
:10381000A8BF382400F8014DFFF797F902B010BD9A
:10382000013908B5172941D8DFE801F00C0E101254
:103830001416181A1C1E20222426282A2C2E303258
:103840003436383A7C212CE07D212AE07E2128E0A4
:103850007F2126E0802124E0812122E0822120E0D6
:1038600083211EE084211CE085211AE0862118E0D6
:10387000872116E0882114E0892112E08A2110E0D6
:103880008B210EE08C210CE08D210AE08E2108E0D6
:103890008F2106E0902104E0912102E0922100E0D6
:1038A00093210122FEF7D6FE012008BD002008BDAD
:1038B000013917293FD8DFE801F00C0E1012141659
:1038C000181A1C1E20222426282A2C2E3032343688
:1038D000383A7C212CE07D212AE07E2128E07F21DE
:1038E00026E0802124E0812122E0822120E0832142
:1038F0001EE084211CE085211AE0862118E0872142
:1039000016E0882114E0892112E08A2110E08B2141
:103910000EE08C210CE08D210AE08E2108E08F2141
:1039200006E0902104E0912102E0922100E0932141
:103930000122FEF79EBE7047013908B5172941D80C
:10394000DFE801F00C0E10121416181A1C1E2022AB
:103950002426282A2C2E30323436383A94212CE072
:1039600095212AE0962128E0972126E0982124E05D
:10397000992122E09A2120E09B211EE09C211CE05D
:103980009D211AE09E2118E09F2116E0A02114E05D
:10399000A12112E0A22110E0A3210EE0A4210CE05D
:1039A000A5210AE0A62108E0A72106E0A82104E05D
:1039B000A92102E0AA2100E0AB210122FEF74AFE84
:1039C000012008BD002008BD013917293FD8DFE8D4
:1039D00001F00C0E10121416181A1C1E2022242698
:1039E000282A2C2E30323436383A94212CE0952176
:1039F0002AE0962128E0972126E0982124E09921C9
:103A000022E09A2120E09B211EE09C211CE09D21C8
:103A10001AE09E2118E09F2116E0A02114E0A121C8
:103A200012E0A22110E0A3210EE0A4210CE0A521C8
:103A30000AE0A62108E0A72106E0A82104E0A921C8
:103A400002E0AA2100E0AB210122FEF712BE70477E
:103A5000013908B5172941D8DFE801F00C0E101222
:103A60001416181A1C1E20222426282A2C2E303226
:103A70003436383AC4212CE0C5212AE0C62128E09A
:103A8000C72126E0C82124E0C92122E0CA2120E084
:103A9000CB211EE0CC211CE0CD211AE0CE2118E084
:103AA000CF2116E0D02114E0D12112E0D22110E084
:103AB000D3210EE0D4210CE0D5210AE0D62108E084
:103AC000D72106E0D82104E0D92102E0DA2100E084
:103AD000DB210122FEF7BEFD012008BD002008BD4C
:103AE000013917293FD8DFE801F00C0E1012141627
:103AF000181A1C1E20222426282A2C2E3032343656
:103B0000383AC4212CE0C5212AE0C62128E0C7218B
:103B100026E0C82124E0C92122E0CA2120E0CB21EF
:103B20001EE0CC211CE0CD211AE0CE2118E0CF21EF
:103B300016E0D02114E0D12112E0D22110E0D321EF
:103B40000EE0D4210CE0D5210AE0D62108E0D721EF
:103B500006E0D82104E0D92102E0DA2100E0DB21EF
:103B60000122FEF786BD7047013908B5172959D8DB
:103B7000DFE801F00C0F1215181B1E2124272A2D37
:103B8000303336393C3F4245484B4E5140F2346168
:103B900043E040F2356140E040F236613DE040F202
:103BA00037613AE04FF4C76137E040F2396134E001
:103BB00040F23A6131E040F23B612EE040F23C617C
:103BC0002BE040F23D6128E040F23E6125E040F20A
:103BD0003F6122E04FF4C8611FE040F241611CE008
:103BE00040F2426119E040F2436116E040F2446164
:103BF00013E040F2456110E040F246610DE040F212
:103C000047610AE04FF4C96107E040F2496104E00E
:103C100040F24A6101E040F24B610122FEF71AFDD9
:103C2000012008BD002008BD0139172957D8DFE859
:103C300001F00C0F1215181B1E2124272A2D3033DA
:103C400036393C3F4245484B4E5140F2346143E0E7
:103C500040F2356140E040F236613DE040F23761CC
:103C60003AE04FF4C76137E040F2396134E040F2A6
:103C70003A6131E040F23B612EE040F23C612BE0E2
:103C800040F23D6128E040F23E6125E040F23F61B4
:103C900022E04FF4C8611FE040F241611CE040F2B5
:103CA000426119E040F2436116E040F2446113E0E2
:103CB00040F2456110E040F246610DE040F247619C
:103CC0000AE04FF4C96107E040F2496104E040F2C4
:103CD0004A6101E040F24B610122FEF7CABC704725
:103CE000013908B5172959D8DFE801F00C0F121572
:103CF000181B1E2124272A2D303336393C3F4245DC
:103D0000484B4E5140F24C6143E040F24D6140E07F
:103D100040F24E613DE040F24F613AE04FF4CA613B
:103D200037E040F2516134E040F2526131E040F25C
:103D300053612EE040F254612BE040F2556128E0DF
:103D400040F2566125E040F2576122E04FF4CB612A
:103D50001FE040F259611CE040F25A6119E040F264
:103D60005B6116E040F25C6113E040F25D6110E0DF
:103D700040F25E610DE040F25F610AE04FF4CC6119
:103D800007E040F2616104E040F2626101E040F26C
:103D900063610122FEF75EFC012008BD002008BD22
:103DA0000139172957D8DFE801F00C0F1215181B3D
:103DB0001E2124272A2D303336393C3F4245484BBB
:103DC0004E5140F24C6143E040F24D6140E040F220
:103DD0004E613DE040F24F613AE04FF4CA6137E096
:103DE00040F2516134E040F2526131E040F25361FF
:103DF0002EE040F254612BE040F2556128E040F2A1
:103E0000566125E040F2576122E04FF4CB611FE09C
:103E100040F259611CE040F25A6119E040F25B61E6
:103E200016E040F25C6113E040F25D6110E040F2A8
:103E30005E610DE040F25F610AE04FF4CC6107E0A3
:103E400040F2616104E040F2626101E040F26361CE
:103E50000122FEF70EBC7047653908B51F2975D8D9
:103E6000DFE801F0101316191C1F2225282B2E3114
:103E700034373A3D404346494C4F5255585B5E619A
:103E800064676A6D40F27C615BE040F27D6158E0FE
:103E900040F27E6155E040F27F6152E04FF4D06124
:103EA0004FE040F281614CE040F2826149E040F233
:103EB000836146E040F2846143E040F2856140E086
:103EC00040F286613DE040F287613AE04FF4D16113
:103ED00037E040F2896134E040F28A6131E040F23B
:103EE0008B612EE040F28C612BE040F28D6128E086
:103EF00040F28E6125E040F28F6122E04FF4D26102
:103F00001FE040F291611CE040F2926119E040F242
:103F1000936116E040F2946113E040F2956110E085
:103F200040F296610DE040F297610AE04FF4D361F0
:103F300007E040F2996104E040F29A6101E040F24A
:103F40009B610122FEF786FB012008BD002008BD11
:103F500065391F2973D8DFE801F0101316191C1FEB
:103F60002225282B2E3134373A3D404346494C4FC9
:103F70005255585B5E6164676A6D40F27C615BE03C
:103F800040F27D6158E040F27E6155E040F27F6191
:103F900052E04FF4D0614FE040F281614CE040F2DA
:103FA000826149E040F2836146E040F2846143E08F
:103FB00040F2856140E040F286613DE040F2876179
:103FC0003AE04FF4D16137E040F2896134E040F2E9
:103FD0008A6131E040F28B612EE040F28C612BE08F
:103FE00040F28D6128E040F28E6125E040F28F6161
:103FF00022E04FF4D2611FE040F291611CE040F2F8
:10400000926119E040F2936116E040F2946113E08E
:1040100040F2956110E040F296610DE040F2976148
:104020000AE04FF4D36107E040F2996104E040F206
:104030009A6101E040F29B610122FEF71ABB7047D2
:10404000013908B5032913D8DFE801F00205080B90
:1040500040F29C6107E040F29D6104E040F29E6105
:1040600001E040F29F610122FEF7F4FA012008BD51
:10407000002008BD0139032911D8DFE801F002054D
:10408000080B40F29C6107E040F29D6104E040F2C1
:104090009E6101E040F29F610122FEF7EABA70479B
:1040A00008B50846114604F0D5FA002008BDFFFF08
:1040B00010B5044612480CF029FE6379642B1ED912
:1040C000A37903F00F03012B04D1E11D0D4811F07A
:1040D000F7F90DE0022B02D10CF01EFE03E0032BDA
:1040E00006D10CF01DFE0246E11D06480CF01CFE38
:1040F000044800214122BDE8104024F0DFB910BD82
:10410000558600007895FF1F034B0448197801225B
:10411000C901134603F0E6B9FC91FF1F6896FF1F23
:1041200038B5254B1B78032B05460C461CD006D80A
:10413000012B10D0022B39D10CF0EEFD16E0662BCE
:104140001FD0672B28D0042B30D108462A461B49A4
:1041500008F0B0FF1EE00846184A294611F0BEF9E3
:10416000003018BF012038BD0CF0DAFD03461349BA
:10417000284622460CF014FED0F1010038BF002082
:1041800038BD0CF0C9FD0D490346224628460CF007
:104190008FFE08B1002038BD0CF0C2FD0749034670
:1041A000224628460CF084FE0028F3D1044803F090
:1041B000B1FB012038BD00BFFC91FF1FAC92FF1F77
:1041C000489202002DE9F04F91B0DFF8E481734D81
:1041D00098F8003092466A46A2EBC3128B46002143
:1041E00004AF0646954628460A4610F044F807F103
:1041F0000C000EF0FEFB07F118000EF0FAFB07F1C1
:1042000024000EF0F6FB98F8003005F11400DB01F5
:104210004FF001116B600EF05FFC0DF110090446C8
:1042200000286CD15E4B98F800207B60194605F1A0
:104230002C0092010EF0ABFC7B68044600285ED196
:1042400098F80020920105F1380099180EF09FFCB3
:104250000446002853D105F1080005F12C0105F1B1
:1042600038020EF06CFF0446002848D107F10C001C
:1042700005F12C0101220EF04CFF044600283ED12E
:1042800007F1180005F1380101220EF042FF044643
:10429000A8BB07F1240007F10C0107F118020EF08A
:1042A0004EFF044658BB05F1200005F1140107F14B
:1042B00024020FF079FC044608BB05F1440005F127
:1042C000200107F10C020FF077F90446B8B905F1A7
:1042D000500005F1200107F118020FF06DF90446B6
:1042E00068B905F15C00A0F12401A0F130020FF0E3
:1042F0005BFC044618B928460FF0F6FF044607F1A8
:104300000C000EF07DFB07F118000EF079FB07F1B1
:1043100024000EF075FB0CB1224836E098F800300E
:1043200080226FF0090112FB0311B142DCBF6FF074
:104330000A0612FB0366202E0CD003DC1C2E0BD1C8
:1043400005230AE0302E03D0402E05D1082304E0D7
:10435000072302E0062300E000238DE84808124905
:10436000CDF80C90012300220C4810F03DFB98F88A
:10437000002004464946D201504617F0F1F807489C
:1043800010F000FC204624B1084803F0C3FA4FF0B7
:10439000FF303437BD46BDE8F08F00BFCC94FF1F1F
:1043A000CC92FF1F61920200A1400000CB9202005C
:1043B000FC91FF1F2DE9F04F95B0454B19784FF058
:1043C000FF3202EBC11202F1010A083222F00702A9
:1043D00002AFE846ADEB020D3E4A117802AC9B46B7
:1043E00021B90A4605F062FEF8226AE0042967D185
:1043F000394E3A4D33681C2BB1460FD023F01002D2
:10440000202A0BD0402B09D0354803F083FA012035
:1044100003F038FC0021316028684CE0314E3178DF
:10442000727800932868304B05F09EFE2F4B2D6864
:1044300024221A702946D9F800207B6007F1080071
:1044400017F08EF8284600214FF4806224F036F8E9
:104450002246D9F80000264D07F10801FFF7B2FE09
:104460007B680246A0B9F6211970B3789BF800105A
:104470002B70012B20464FEAC11103D11A4603F0DD
:1044800031F80AE0134603F02DF803F0E3FC04E0F2
:10449000002218481A7003F03DFA552003F0F2FB91
:1044A00020460021524624F009F82B78012B0AD02F
:1044B000114B186800214FF4806223F0FFFF02E0E7
:1044C00023220A4B1A704C37C546BD46BDE8F08F13
:1044D000FC91FF1F00BAFF1F4CBAFF1FB88CFF1FD3
:1044E00085920200999BFF1F1091FF1FD5B9FF1FF6
:1044F000D8B9FF1FAE920200A88CFF1F2DE9F04330
:104500004E4C4F4D884600218FB0814617462046BD
:104510000A460FF0B0FE05A80EF06BFA08A80EF0E0
:1045200068FA0BA80EF065FA2B7804F11400DB0191
:104530004FF0011163600EF0CFFA00284FD1414EC9
:104540002A7804F12C00314692010EF020FB00285D
:1045500045D12A78920104F13800B1180EF017FB0A
:1045600000283CD104F1080004F12C0104F13802C8
:104570000EF0E5FD98BB05A804F12C0101220EF018
:10458000C8FD60BB08A804F1380101220EF0C1FD8E
:1045900028BB0BA805A908AA0EF0D1FDF8B904F1B3
:1045A000200004F114010BAA0FF0FEFAB8B904F1CF
:1045B000440004F1200105AA0EF0FEFF78B904F1D1
:1045C000500004F1200108AA0EF0F6FF38B904F1FA
:1045D0005C00A0F12401A0F130020FF0E5FA05A87B
:1045E0000EF00EFA08A80EF00BFA0BA80EF008FA5F
:1045F00012480FF079FE044668B1134803F08AF9B7
:104600000E4810F0BFFA2046ACB1104803F082F912
:104610004FF0FF300FE04FF4007303932146224622
:10462000CDF80090CDF8048002970448012310F0E3
:104630005FF90446E4E70FB0BDE8F0830092FF1F86
:10464000FC91FF1FCC92FF1F61920200C5920200F5
:104650002DE9F04F85B03E4B02AF197800247C6005
:1046600021B90A4605F022FDF9226AE0042967D142
:10467000384DDFF800B12B689BF80020364EB3EBC5
:10468000C21FEA4609D0354803F044F9012003F07F
:10469000F9FA2C60306821464CE0DFF8DC80DFF866
:1046A000D09098F8001098F80120009330682C4BB7
:1046B00005F05AFD242389F800309BF80030366855
:1046C000AAEBC31295460DF1080B31462A68254D19
:1046D000584616F045FF304621464FF4806223F0DD
:1046E000EDFE2A68204E381D5946FFF707FF0246A7
:1046F00098B9F62389F8003098F802303370012B0E
:104700002868796803D11A4602F0ECFE0AE01346E5
:1047100002F0E8FE03F09EFB04E0144889F8004034
:1047200003F0F8F8552003F0ADFA3378012B05D0EB
:10473000286800214FF4806223F0C0FED54602E0D5
:1047400023220B4B1A700C37BD46BDE8F08F00BF1B
:1047500000BAFF1F4CBAFF1FB88CFF1FF492020073
:104760001091FF1FA88CFF1FD8B9FF1F20930200D4
:10477000D5B9FF1FFC91FF1F999BFF1FF0B58BB0B0
:10478000064601A80EF035F936B204A8184F0EF00F
:1047900030F9B50107A80EF02CF901A839462A46D0
:1047A0000EF0F5F9044698B904A879192A460EF0D6
:1047B000EEF9044660B907A801A904AA0EF0BFFCEF
:1047C000044628B907A80B49F2010EF01AFA04466C
:1047D00001A80EF015F904A80EF012F907A80EF0C2
:1047E0000FF914B1044803F095F80BB0F0BD00BF09
:1047F000CC92FF1F6896FF1F3A9302002DE9F04309
:10480000474C484D884600218FB0814617462046C8
:104810000A460FF030FD05A80EF0EBF808A80EF0E0
:10482000E8F80BA80EF0E5F82B7804F11400DB0192
:104830004FF0011163600EF04FF900284FD13A4E4E
:104840002A7804F12C00314692010EF0A0F90028DC
:1048500045D12A78920104F13800B1180EF097F989
:1048600000283CD104F1080004F12C0104F13802C5
:104870000EF065FC98BB05A804F12C0101220EF096
:1048800048FC60BB08A804F1380101220EF041FC8D
:1048900028BB0BA805A908AA0EF051FCF8B904F131
:1048A000200004F114010BAA0FF07EF9B8B904F14D
:1048B000440004F1200105AA0EF07EFE78B904F14F
:1048C000500004F1200108AA0EF076FE38B904F178
:1048D0005C00A0F12401A0F130020FF065F905A8F9
:1048E0000EF08EF808A80EF08BF80BA80EF088F8E2
:1048F0000B480FF0CDFC024670B90C49CDF8009082
:104900001346CDF80480029705480FF07BFF04465C
:10491000034810F037F920460FB0BDE8F08300BF20
:10492000BC95FF1FFC91FF1FCC92FF1FA140000010
:10493000F0B50025ECB20B1B0444DBB2E4B29C42A0
:1049400005F1010504D2165DD75C1755D654F1E781
:10495000F0BDFFFF08B517480021412223F0AEFD4E
:10496000154B1B78012B05D112481449BDE80840AE
:104970000AF0B8BA022B02D10CF0CEF903E0032BF7
:1049800008D10CF0CDF902460A490C48BDE80840B0
:104990000CF0CDBA042B0BD100201F21074AFFF7E2
:1049A000C7FF044805490022BDE8084008F082BB63
:1049B00008BD00BF7895FF1FFC91FF1FAC92FF1F41
:1049C00038B5144D0446407905F018FC2B78012BBE
:1049D00005D1A379042B02D12B70FFF7BBFF2B78F5
:1049E000042B04D0012B14BF4021202100E0202102
:1049F00001221346084802F075FD002140220648B6
:104A000023F05CFD054800212022BDE8384023F05A
:104A100055BD00BFFC91FF1F7895FF1FAC92FF1F93
:104A200038B505462C4608F04DFE044B44F8783B5B
:104A3000204609F0CBFF6C60284638BDE0910200AB
:104A40002DE9F04FADF5097D02AF044607F1A00056
:104A50009A468846164609F059FD07F1A00009F06C
:104A6000FFFC073020F00700ADEB000D07F1A000C0
:104A700009F0F6FC07F58C79FF22BAFBF0FB002168
:104A8000484623F01BFD02AD0022954B13441B79D1
:104A9000022B19D107F130007A60FCF75DFF07F1B6
:104AA000300049467A68FCF781FF07F1300049463B
:104AB000FCF79DFF74B9214607F11000212223F075
:104AC000FDFC07F1100405E0FF2AE3D009F80230ED
:104AD0000132DAE7214607F1A000212209F095FE14
:104AE0004146202207F1A00009F0FEFD07F1A000D9
:104AF00009F0B6FC2146212200902B4607F1A000C8
:104B000009F09CFE07F1A00009F0AAFC00F12103C6
:104B100000F12008283020F00700ADEB000D02ACBA
:104B2000FB60012304F8083007F1A00009F098FCAD
:104B300007F59C7E22184B4603CB734510605160ED
:104B4000994602F10802F6D107F1A00009F088FCAD
:104B50002946024607F1A00009F057FE07F1A00020
:104B600009F07EFC2122211807F1A00009F0BCFD0C
:104B700007F1A00009F074FC814607F1A00009F0DC
:104B80006FFC4A4629460090334607F1A00009F021
:104B900055FE14F80830013304F8083007F1A0007E
:104BA00009F05EFC31460246204616F0D9FC4FF073
:104BB0000109D94507F1A0003EDA09F051FC294668
:104BC000024607F1A00009F020FE2146FA6807F12D
:104BD000A00009F089FD07F1A00009F041FC0246A0
:104BE00007F1A0007A6009F03BFC09FB006307F1C4
:104BF000A000BB6009F034FC00907A68BB682946CD
:104C000007F1A00009F01AFE14F80830013304F887
:104C1000083007F1A00009F023FC09FB006107F14F
:104C2000A000B96009F01CFCB9680246204616F0E5
:104C300097FC09F10109BCE709F012FCBAFBF0F39B
:104C400003FB10A000283DD007F1A00009F008FCEC
:104C5000073020F00700E946ADEB000D07F1A0009A
:104C600009F0FEFB0BFB10AA07F1A00009F0F8FB0E
:104C70002946024607F1A00009F0C7FD2146FA685F
:104C800007F1A00009F030FD07F1A00009F0E8FBF2
:104C9000044607F1A00009F0E3FB0DF108080090BD
:104CA00029462246434607F1A00009F0C7FD07F157
:104CB000A00009F0D5FB41460BFB0060524616F000
:104CC0004FFCCD4607F1A00009F0FAFB07F1A00068
:104CD00009F002FC07F50777BD46BDE8F08F00BF7D
:104CE0001C9CFF1F70B506469CB00D461446CAB901
:104CF000842005F083FA21464122134823F0DEFB8D
:104D00006846FCF729FE684610492022FCF74EFE53
:104D1000684629462022FCF749FE68460B49FCF705
:104D200066FE0AE0802A08D1104605F067FA0749B6
:104D300028460A462023FFF783FE054B1E70FFF727
:104D400009FE1CB070BD00BF7895FF1FAC92FF1F1D
:104D5000FC91FF1F10B504464079042809D8A379B7
:104D60004BB905F09FFAF8B12046BDE81040FFF7B7
:104D7000CBB9742807D805F041FAA8B12046BDE8A0
:104D80001040FFF71DBE84280ED1A07904280BD84F
:104D9000E11D0022FFF7A6FF002204484021134630
:104DA000BDE8104002F09EBB10BD00BF7895FF1F0C
:104DB0002DE9F043654C664E664D23683178727874
:104DC000F1B0074600932868634B05F0CDF94EA873
:104DD0000021882223F072FB604B4E93604B4F936F
:104DE000604B509378794023519320235293C828E5
:104DF0002EAB5393B04632D9C92804D121682B6811
:104E00002039012005E0CA2806D121682B68203905
:104E10000220194400221CE0CB2804D121682B6811
:104E200020390320F5E7D32804D121682B682039E5
:104E300001200CE0D42804D121682B6820390220FD
:104E400005E0D52807D121682B68203903201944B3
:104E50008022FFF747FF2368203B236005E0A0F195
:104E600065030F2B6ED805F0C9F92268DFF8DC90D6
:104E70003D4F202A12AE01D0402A04D102A8296851
:104E800016F06EFB12E03046FCF766FD30462968EE
:104E9000D9F80020FCF78AFD304602A9FCF7A7FDEF
:104EA0003B78012B1CBF2023C9F800302F4A242354
:104EB00013703B78012B174608D1236800933046C6
:104EC0002B492C4A2B6809F089FF10E0022B02D1F4
:104ED0000BF022FF03E0032B09D10BF021FF01901F
:104EE00000962348226802A94EAB0CF060F8F62326
:104EF00098F802203B70204B012A1A7030464FF080
:104F0000400103D1134602F0EDFA05E001221346F9
:104F100002F0E8FA02F09EFF552002F0B3FE286886
:104F200000214FF4806223F0C9FA00214122114888
:104F300023F0C4FA0E480021202271B0BDE8F043EE
:104F400023F0BCBA71B0BDE8F08300BF4CBAFF1FBC
:104F5000999BFF1FB88CFF1F1091FF1FE56901008F
:104F6000EB690100F1690100FC91FF1FD5B9FF1F3A
:104F7000AC92FF1F7895FF1FD8B9FF1F08B5094BEA
:104F8000197821B90A4605F091F8F82206E00429BB
:104F900003D1BDE80840FFF70BBF2322024B1A7074
:104FA00008BD00BF00BAFF1FD5B9FF1F10B50446EA
:104FB0001A480BF0ABFE607964280DD805F072F941
:104FC000174B1B780BB9174819E0420616D5204637
:104FD000BDE81040FFF7EEB900F13702D2B2032A64
:104FE00014D9A0F165020F2A15D805F007F9C0B24F
:104FF0000B4B1B78002BE6D0430607D40A4802F07F
:1050000089FC0020BDE8104002F03CBE2046BDE80F
:105010001040FFF7B3BF0020EAE700BF558600004D
:10502000FC91FF1F58930200769302002DE9F04196
:1050300094B00446002103A8412223F03FFA5B4BC1
:105040001E7846B932462046314605F02FF8584BB7
:10505000F9221A70A7E0042E40F0A580DFF87081D5
:10506000544F554DD8F8003039787A782868009335
:10507000524B05F079F86079C928444632D9CA28DC
:1050800004D121682B682039022005E0CB2806D105
:1050900021682B6820390320194400221CE0CC2809
:1050A00004D121682B6820393046F5E7D42804D193
:1050B00021682B68203902200CE0D52804D1216812
:1050C0002B682039032005E0D62807D121682B68FA
:1050D0002039304619448022FFF704FE2368203B24
:1050E000236005E0A0F165020F2A5CD805F086F880
:1050F000334B1A78911E01299CBF64321A701B78B9
:10510000012B06D12E4B04221A702026FFF722FC19
:1051100000E040262268212A01D0412A05D12968D1
:105120002848013A2260013105E0202A01D0402AB6
:1051300003D12448296816F013FA1D4A232313705B
:105140002368402B144601D0202B03D11D4803A90E
:10515000FEF7E6FFF623BA7823701B4B012A1A707C
:1051600003A8314603D1134602F0BCF905E0012241
:10517000134602F0B7F902F06DFE552002F082FDF1
:10518000286800214FF4806223F098F90021412221
:105190000C4823F093F90D480021202214B0BDE8FB
:1051A000F04123F08BB914B0BDE8F08100BAFF1FC5
:1051B000D5B9FF1F999BFF1FB88CFF1F1091FF1FD0
:1051C000FC91FF1F7895FF1FD8B9FF1FAC92FF1FFE
:1051D0004CBAFF1F10B504461A480BF097FD6079D2
:1051E00064280DD805F05EF8174B1B780BB91748EB
:1051F00019E0820616D52046BDE81040FFF728BA10
:1052000000F13702D2B2032A14D9A0F165020F2AA5
:1052100015D804F0F3FFC0B20B4B1B78002BE6D07F
:10522000830607D40A4802F075FB0020BDE8104051
:1052300002F028BD2046BDE81040FFF7F7BE002071
:10524000EAE700BF55860000FC91FF1F589302005B
:1052500099930200F0B55D4B5D4E1B7896F8405077
:10526000042B89B0344640F0AF80304603F0A2FAF8
:10527000074660B939460922564823F01FF93046DF
:105280003946502209B0BDE8F04023F017B9524B1F
:105290000022382D1A701E4601D1812002E0302DE7
:1052A00003D1822004F0AAFF06E06B1E172B03D85F
:1052B0004A48294604F064FF494B1B7853B9EA1861
:1052C0000DF803200133202BF9D100206946024656
:1052D000FFF708FD94F839200323202A33703C4B54
:1052E00017D193F83A20202A13D193F83B20202A93
:1052F0000FD193F83C20202A0BD193F83D20202A8F
:1053000007D193F83E20202A03D193F83F60202E46
:1053100007D03F22A35C13B9013A0E2AFAD1013219
:10532000D6B2304D2D4928461422FDF770F82B686F
:1053300027495B683246284698472846FDF7A4F877
:105340006A46034600F1100618685968154603C5F9
:105350000833B3422A46F7D118682860202200217A
:105360001E4823F0ABF8142168460BF047FFBDF848
:105370000420A28008AA054652F8191D00989DF83D
:10538000063020601848A160A37191889279C023EB
:10539000E3718271C1228180E27308AA103052F851
:1053A000121D2161928820F8042CC222E27500218E
:1053B000382223F083F8E84380B2C323A075E37753
:1053C00000124B232076237709B0F0BD00BAFF1FEF
:1053D00071BBFF1F5DBAFF1FD8B9FF1FAC92FF1F43
:1053E000FC91FF1F3091FF1F79BBFF1F2DE9F04F8C
:1053F000B5B00C460DF11008002106469246404615
:1054000018229B4623F05AF820686168434603C37C
:10541000BBF1010FA068186076D19DF811309DF89E
:1054200010501D4405F0030505F5B4551035AD00C9
:105430000FCD0AAC0FC495E80F0084E80F001421CB
:1054400012A809F079FF0AAF002312A80293039370
:1054500009F045FF394612A8202209F0CFFE414647
:1054600012A8082209F01AFF02A912A8082209F0BE
:1054700073FF6FF002019AFBF1F1514403239AFB91
:10548000F3FA314412A853460A460AF059F89DF837
:1054900011309DF810401C4404F0030404F5B4548A
:1054A0001834A4000FCCB946A9E80F0094E80F0007
:1054B0004FEAEA7589E80F00314652462B46CDF88F
:1054C0000080019730460FF065FE9DF811309DF881
:1054D00010E09E440EF0030E0EF5B55E4FEA8E0E00
:1054E000BEE80F00BC46ACE80F009EE80F0089E85C
:1054F0000F0006EB0A00CDF80080019701465246E6
:105500002B460FF0BDFE28E1BBF1020F52D19DF8F2
:1055100011309DF810501D4405F0030505F5B455F4
:10552000AD000FCD0AAC0FC495E80F0084E80F0062
:10553000142112A809F000FF0AAF002312A8029359
:10554000039309F0CCFE394612A8202209F056FE3A
:10555000414612A8082209F0A1FE02A912A80822B9
:1055600009F0FAFE9AFBFBFB12A8314632465B4675
:1055700009F0E6FF9DF811309DF810501D4405F02C
:10558000030505F5B4550835AD000FCD3C460FC4F5
:1055900095E80F00CBEB0A0A84E80F0006EB0A003F
:1055A000CDF80080019701465A464FEAEB730FF0A1
:1055B000F1FDD2E0BBF1030F76D19DF811309DF8DB
:1055C00010401C4404F0030404F5B554A4000FCCAF
:1055D0000DF12809A9E80F0094E80F009AFBFBFBE6
:1055E00089E80F000AAF4FEAEB7506EB0B002B467C
:1055F00001465A46CDF8008001970FF041FE9DF814
:1056000011309DF810E09E440EF0030E0EF5B45ECE
:105610000EF1180E4FEA8E0EBEE80F00BC46ACE845
:105620000F009EE80F0089E80F002B4631465A46CE
:10563000CDF80080019730460FF0ACFD9DF8113099
:105640009DF810401C4404F0030404F5B4541034D5
:10565000A4000FCC3D460FC594E80F0089E80F0069
:10566000142112A809F068FE002312A802930393E4
:1056700009F035FE3946202212A809F0BFFD414647
:10568000082212A809F00AFE02A9082212A809F0AD
:1056900063FE6FF002019AFBF1F18A4406EB0A0106
:1056A00012A80A465B4656E0BBF1040F58D19DF89C
:1056B00011309DF810501D4405F0030505F5B45553
:1056C0000835AD000FCD0AAC0FC495E80F0084E893
:1056D0000F0002239AFBF3F0C0EB0A000DF128093A
:1056E0009AFBF3FA3044014652464FEAEA73CDF88A
:1056F0000080CDF804900FF04DFD9DF811309DF81D
:1057000010501D4405F0030505F5B455AD000FCD4F
:105710004F460FC795E80F0084E80F00142112A828
:1057200009F00AFE002312A80293039309F0D7FDA3
:105730004946202212A809F061FD4146082212A81C
:1057400009F0ACFD02A9082212A809F005FE12A872
:1057500031463246534609F04BFD12A809F0CEFD02
:1057600035B0BDE8F08F30B545F6B0359DF80C404A
:105770002D7805F0FD05012D04D11CB1BDE83040A8
:10578000FFF734BE30BDFFFF10B5054B044640F8AF
:105790002C3B09F089F8204609F0C6FC204610BDD4
:1057A000209202002DE9F041CAB005460BAC6846D4
:1057B0000E4690461F4609F0E9FC0F4B0093204629
:1057C00009F004F96846019409F0CBFC41466846AB
:1057D000202209F081FC31466846102209F08FFC36
:1057E000684629462A463B4609F020FC6846FFF7F2
:1057F000CBFF4AB0BDE8F081209202002DE9F041D4
:10580000CAB005460BAC68460E4690461F4609F0E6
:10581000BDFC0F4B0093204609F0D8F86846019470
:1058200009F09FFC41466846202209F055FC3146AC
:105830006846102209F063FC684629462A463B4622
:1058400009F01FFC6846FFF79FFF4AB0BDE8F081F2
:105850002092020010B50446FFF796FF204620F084
:1058600071FF204610BDFFFF10B5054B044640F800
:10587000783B09F019F8204607F0A2FE204610BD3B
:10588000E09102002DE9F043ADF5257D06460C467A
:1058900046A898461546AC9FFFF7C2F88DF8084019
:1058A00003AC0C2120468DF8095000F018FB0EA81F
:1058B000FCF752F80EA821460C22FCF777F80EA848
:1058C00002A90222FCF772F806AD0EA820222B498D
:1058D000FCF76CF80EA82946FCF789F895E8070054
:1058E00084E807002AA8FCF737F82AA841461022C6
:1058F000FCF75CF82AA802A90222FCF757F82AA8AC
:1059000020221E49FCF752F82AA82946FCF76FF816
:10591000237803F00103002B4FF001080CBF022392
:10592000434621463A463046CDF800800CBFC1467A
:105930004FF00209FFF717FF46A807F09FFD294621
:1059400046A8202207F0ADFD214646A80C2207F00C
:1059500035FD46A8314632463B4607F0C9FC304685
:1059600021463A464B46CDF80080FFF7FCFE46A89C
:10597000FFF77AFF0DF5257DBDE8F0836090FF1FEE
:105980002DE9F043ADF5257D06460C4646A8984620
:105990001546AC9FFFF744F88DF8084003AC0C2186
:1059A00020468DF8095000F09AFA0EA8FBF7D4FFB4
:1059B0000EA821460C22FBF7F9FF0EA802A902222D
:1059C000FBF7F4FF06AD0EA820222C49FBF7EEFFF3
:1059D0000EA82946FCF70BF895E8070084E80700B5
:1059E0002AA8FBF7B9FF2AA841461022FBF7DEFFE1
:1059F0002AA802A90222FBF7D9FF2AA820221F49C0
:105A0000FBF7D4FF2AA82946FBF7F1FF237803F020
:105A10000103002B4FF001080CBF03230423214690
:105A20003A463046CDF800800CBF4FF004094FF0E5
:105A30000309FFF798FE46A807F020FD294646A86F
:105A4000202207F02EFD214646A80C2207F0B6FCC6
:105A500046A8314632463B4607F0CFFD3046214648
:105A60003A464B46CDF80080FFF77DFE46A8FFF78B
:105A7000FBFE0DF5257DBDE8F08300BF6090FF1FA4
:105A80002DE9F0430C46E1B0054602A81E469146BA
:105A90009DF8A071FEF7C4FF2378009703F001037F
:105AA000002B0CBF022301232146324628460CBF9F
:105AB0004FF001084FF00208FFF755FE02A807F06B
:105AC000DDFC494602A8202207F0EBFC214602A893
:105AD0000C2207F073FC02A829462A46334607F039
