:1000000000800020BD010000D1AD02009DAD0200C6
:100010009DAD02009DAD02009DAD02009DAD0200B0
:100020009DAD02009DAD02009DAD0200D1AD02006C
:10003000D1AD02009DAD0200D1AD02008DAD020038
:10004000D1AD0200D1AD0200D1AD0200D1AD0200B0
:10005000D1AD0200D1AD0200D1AD0200D1AD0200A0
:10006000D1AD0200D1AD0200D1AD0200D1AD020090
:10007000D1AD0200D1AD0200D1AD0200D1AD020080
:10008000D1AD0200D1AD0200D1AD0200D1AD020070
:10009000D1AD0200D1AD0200D1AD0200D1AD020060
:1000A000D1AD0200D1AD0200D1AD0200D1AD020050
:1000B000D1AD0200D1AD0200D1AD0200D1AD020040
:1000C000D1AD0200D1AD0200D1AD0200D1AD020030
:1000D000D1AD0200D1AD0200D1AD0200D1AD020020
:1000E000D1AD0200D1AD0200D1AD0200D1AD020010
:1000F000D1AD020031D00200D1AD0200A5CA02008C
:10010000D1AD020061C50200D1AD0200D1AD020047
:10011000D1AD0200D1AD0200D1AD0200D1AD0200DF
:10012000D1AD0200D1AD0200D1AD0200D1AD0200CF
:10013000D1AD0200D1AD0200D1AD0200D1AD0200BF
:10014000D1AD0200D1AD0200D1AD0200D1AD0200AF
:10015000D1AD0200D1AD0200D1AD0200D1AD02009F
:10016000D1AD0200B5110200D1AD0200D1AD020047
:10017000D1AD0200D1AD0200D1AD0200D1AD02007F
:10018000D1AD0200D1AD0200D1AD0200D1AD02006F
:10019000D1AD0200D1AD0200D1AD0200D1AD02005F
:1001A000D1AD0200D1AD0200D1AD0200D1AD02004F
:1001B000D1AD0200D1AD0200D1AD0200564B4CF2E0
:1001C000205210B51A804DF628121A8000BF00BFC9
:1001D0002AF002FE514B4FF010621A60504A9A60AA
:1001E000504ADA60A3F53043203B1A6812F480725B
:1001F00004D14D490A604FF4A8521A604B4B1A784B
:10020000110703D51A7842F008021A70484B2A22C7
:100210001A700023474A48499818884204D247492F
:10022000595899500433F5E7454A464B9A424FF0E6
:10023000000302D242F8043BF7E74349434A5958C6
:1002400099500433B3F5DE7FF7D1414B802103F899
:10025000011B40498B42F9D13F4B1A603F4B0A22A8
:100260001A70A3F5805324225A70A0221A709A792A
:100270009207FCD59A79D406FCD4394B9A7902F0CE
:100280000C02082AF9D105221A7143225A719A796F
:100290009006FCD5324B9A795106FBD5314A4FF086
:1002A000817111600521516020221A702C4B9B79BD
:1002B00003F00C030C2BF9D12B4B2C4A1A602C4B5E
:1002C0002C4A1A6000225A60072243F8042C2A4A5A
:1002D000C3F80C2D62B621F061FD134B1B68DA07E1
:1002E00005D5264821F0E6FB254B264A1A60264B09
:1002F0001B785B0609D5224C224A2368934204D11D
:100300001E4821F0D7FB002323602EF063FB2AF068
:1003100069FD2BF02BFEFEE70E20054030800440E7
:10032000823F04000100002B14D0034002D007409C
:1003300000E00740708CFF1FF08EFF1FCC6F0300A2
:10034000F08EFF1FDCE6FF1F000000000082FF1F91
:1003500000E400E05FE400E008ED00E0005006404B
:10036000004006404480044004800440C010050062
:1003700014E000E03F190100000020202290A96A4B
:100380001CE00340A5C3945A00F00740FFFFFFFFA5
:10039000FFFFFFFFFFFFFFFFFFFFFFFFFFFFFFFF6D
:1003A000FFFFFFFFFFFFFFFFFFFFFFFFFFFFFFFF5D
:1003B000FFFFFFFFFFFFFFFFFFFFFFFFFFFFFFFF4D
:1003C000FFFFFFFFFFFFFFFFFFFFFFFFFFFFFFFF3D
:1003D000FFFFFFFFFFFFFFFFFFFFFFFFFFFFFFFF2D
:1003E000FFFFFFFFFFFFFFFFFFFFFFFFFFFFFFFF1D
:1003F000FFFFFFFFFFFFFFFFFFFFFFFFFFFFFFFF0D
:10040000FFFFFFFFFFFFFFFFFFFFFFFFFEFFFFFFFD
:1004100010B5054C237833B9044B13B10448AFF33E
:1004200000800123237010BDF08EFF1F000000002C
:10043000CC6F030008B5064B1BB106480649AFF365
:1004400000800648036813B1054B03B1984708BD07
:1004500000000000CC6F0300F48EFF1FF08EFF1F22
:100460000000000038B5044608460D462EF0C4FDD5
:10047000236802465B6820462946984738BD08B580
:10048000FFF7F0FF08BD0A2200232BF0A6BD38B508
:100490000446FFF7E7FF054620462BF081FD284480
:1004A00038BD38B50446FFF7EEFF054620462BF071
:1004B00077FD284438BD38B504462BF0C6FD054607
:1004C00020462BF06DFD284438BD4FF0FF307047BB
:1004D00008B5C82021F04CFC074A00231370537064
:1004E0009370D37013715371044A1370044A1370DC
:1004F000BDE808402AF07EBECCE4FF1FD2E4FF1F17
:10050000D3E4FF1FF8B51A4B1A481B4E1B4F0025AA
:100510001D701B4B01241C7001F0AEFE194B1A48D4
:100520001C60202229462EF0B5FA082333702AF0E9
:1005300061FE0F233B702AF05DFEFFF7C9FF3470A8
:100540002AF058FE092333702AF054FE14233B701E
:100550002AF050FE4FF4FA7021F00AFC0B4B1D708C
:100560002AF048FEFFF7B4FF094B0A4A1A60F8BDAB
:10057000A5BAFF1F08BBFF1FD2E4FF1FCCE4FF1F7B
:10058000808CFF1F848CFF1F1091FF1FD3E4FF1F7F
:100590000CED00E00400FA052DE9F04FA74C9FB0E8
:1005A000002305460DF10F00237002F0D3FDA44B8C
:1005B0001B7823B99DF80F3003F00F0305E0012BE2
:1005C00008D19DF80F301B090C339D4202D1FFF773
:1005D00099FF34E39B4E2946304602F047FD3178BF
:1005E00011B9304602F042FD337813B9954B04221D
:1005F0001A7029460DF10E0003F07EFD92499348D2
:10060000FFF745FF91489DF80E10FFF74AFF9DF850
:100610000E80C8F3C0038DF80E308D4B1E78002E6F
:1006200040F00D838B498948DFF86492FFF727FF7C
:10063000894B864819683039FFF73DFF3146402223
:100640000EA82EF027FA3146FB2248462EF022FA59
:100650000EA8294606F04EFF071E41DD7F497B4864
:10066000FFF715FF7E497948FFF709FF39467748BC
:10067000FFF721FF7B497548FFF709FF0EA83946B0
:1006800006F09EFC784B00970EA8E9B20F220BF003
:1006900029FD9DF83830082B0AD1013F0DF13900B2
:1006A00049463A4623780EF0F5FA0126277017E0FE
:1006B0000EA849463A4623780EF0ECFAFBB2022225
:1006C00009F80320694961487B1C2370FFF7DFFEAE
:1006D0000EA8394606F074FC5C486549FFF7D7FE62
:1006E000002140220EA82EF0D5F90EA8294603F0CD
:1006F0008FFD9DF83870C8F3800AFFB1002E32D10B
:100700005C495248FFF7C3FE5B495048FFF7B7FE0C
:100710009DF838104D48FFF7B6FE4C485749FFF793
:10072000B6FE9DF838701E2F00F28382237807F101
:100730000A0209F80320013323707BE2BAF1000FAB
:1007400013D09EB937464E494048FFF7A0FE2378A4
:100750003E484C49012209F80320FFF798FE237810
:100760000133237002E0002700E057460EA8294617
:1007700007F020FAB0F1000925DD43493348FFF7BF
:1007800086FE42493148FFF77AFE49462F48FFF777
:1007900092FE49460EA806F013FCCDF800900EA874
:1007A000E9B20222304B0BF09DFC4A4623783849CF
:1007B0000EA80EF06FFA49460EA806F001FC237849
:1007C000994484F800900EA80021402208F0030903
:1007D0002EF060F9DFF8B8B0B9F1000F1ED0EEB915
:1007E000B9F1010F09D12B491848FFF750FE2378C2
:1007F00016480BF8039023490BE0B9F1020F0DD115
:1008000024491248FFF743FE237810480BF8039061
:100810002149FFF73CFE2378013323700021402259
:100820000EA82EF037F90EA8294603F07DFD9DF89D
:1008300038309BBB4FF0000A4FE000BF348FFF1FE2
:100840003CBBFF1FA48CFF1FE60D030010E5FF1F3C
:1008500061BAFF1FEA230300EC9BFF1FBAF70200F7
:10086000D4F70200E2F702001091FF1FECF702003C
:10087000F8F7020011F802002FF8020036F8020023
:1008800058F802007BF802007FF802009EF8020090
:10089000508FFF1FB1F80200D3F80200002EC9D11B
:1008A00090499148FFF7F3FD90498F48FFF7E7FD26
:1008B0009DF838108C48FFF7E6FD8B488C49FFF710
:1008C000E6FD9DF838A0BAF11E0FB3D823780AF1DF
:1008D0000A020BF80320013323700EA8294603F007
:1008E0003DF9B0F100092DDD82497F48FFF7CFFDCA
:1008F00081497D48FFF7C3FD49467B48FFF7DBFD93
:100900007E497948FFF7C3FD49460EA806F058FB1B
:10091000CDF800900EA8E9B20522794B0BF0E2FB6E
:100920004A46237877490EA80EF0B4F976496E4806
:10093000FFF7ADFD49460EA806F042FB2378994427
:1009400084F800900EA800214022C8F301192EF06F
:10095000A1F8DFF8B0B1B9F1000F1AD0CEB96248F2
:100960006A49FFF794FDB9F1010F05D123785E487C
:100970000BF80390664907E0B9F1020F09D123781B
:1009800059480BF803906349FFF781FD2378013341
:100990002370002140220EA82EF07CF80EA82946D4
:1009A00003F04EFD9DF8383013B94FF000091EE0FA
:1009B000002EFAD158494C48FFF769FD4B494A4887
:1009C000FFF75DFD9DF838104748FFF75CFD46488E
:1009D0005249FFF75CFD9DF83890B9F11E0FE4D83D
:1009E000237809F10A020BF80320013323700EA8C3
:1009F000002140222EF04EF89DF80E307BB176B9E2
:100A000047493948FFF743FD2378374840490122D9
:100A10000BF80320FFF73BFD2378013323700EA86A
:100A2000294603F0C9FD9DF83830002B00F0CE8038
:100A3000672B40F091803B492B48DFF8C8B0FFF7A7
:100A400026FD29460EA807F025FC2C490646264817
:100A5000FFF71DFD31460EA806F0B2FA32492248D2
:100A6000FFF70DFD31462048FFF725FD00960EA843
:100A7000E9B20922224B0BF035FB237832460EA84F
:100A800059460EF007F920491748FFF700FD314697
:100A90000EA806F095FA32460EA904A802F0BEF898
:100AA00002F0C6F938448244D14449460E482BF03E
:100AB000CCFA0D482BF074FA494604A802F0B2F8BB
:100AC000064602F02BFA237880BB4E220BF8032057
:100AD0005B444F2253215A70D970542245219A7099
:100AE000197130E0DAF8020010E5FF1F2FF802005C
:100AF000F8F802001AF902003AF90200E2F70200DF
:100B00001091FF1F508FFF1FECF702004DF90200FC
:100B10007BF80200D3F802006FF902008DF90200A1
:100B2000AAF90200C8F90200E7F9020032780BF8CE
:100B300003205B4472785A70B2789A70F278DA7057
:100B400032791A7172795A7123780EA8063300210E
:100B5000402223702DF09EFF9DF83830394E792BBE
:100B60000FD1394B1B78022B0BD038493848FFF78F
:100B70008EFC2078002130440CF094F923782C333B
:100B800023709DF83830322B01D0592B11D12E4BC8
:100B90001B78022B0DD02F492D48FFF778FC2078C9
:100BA000E9B230440CF07EF92378203303EB4000A7
:100BB00020709DF83830752B08D1234B1B78022B01
:100BC00004D023780922F254013323705FEAD8134A
:100BD0001C4D0DD020491E48FFF759FC23781C48B6
:100BE0001E490122EA54FFF752FC23780133237097
:100BF00018F0400F0DD018491548FFF748FC23782E
:100C0000134817490222EA54FFF741FC23780133C5
:100C1000237023780E481349134C0022EA54FFF73F
:100C200036FC14F8011F51B1094803681B68984746
:100C3000F7E73746BAF1000F7FF485AD96E51FB0B0
:100C4000BDE8F08F508FFF1F3CBBFF1FFAF9020079
:100C500010E5FF1F1AFA020033FA02007BF80200C7
:100C6000D3F8020050FA02004F8FFF1F0A4B1A7888
:100C70000A4B18681AB90A4A5278022A01D1243854
:100C800007E0012A01D12A3803E0032A0CBF1E38ED
:100C90003038FFF781BC00BF3CBBFF1FEC9BFF1F40
:100CA00094BAFF1F0D4B1A780D4B18681AB90D4AEC
:100CB0005278022A01D1243807E0012A01D12A38CA
:100CC00003E0032A0CBF1E383038074B1B78092B72
:100CD0000CBF03300630FFF75FBC00BF3CBBFF1FFB
:100CE000EC9BFF1F94BAFF1FB78CFF1FF0B5ADF54B
:100CF000844D9BB0054646F26004684621464FF499
:100D0000804206F0F9F946F260039C4204D128467D
:100D100069464FF4804210E02B460DF5804605F100
:100D2000400718685968324603C20833BB4216466A
:100D3000F7D12846694644F24002002317F0F8F93B
:100D4000044B04F580449C42D7D10DF5844D1BB073
:100D5000F0BD00BF60A0030010B5464B1B68044601
:100D60001878A0F13103082B06D84FF47A73303885
:100D7000584320F0FDFF42E074285CD072285ED01A
:100D80003D4B1B78002B3AD01CB12AF0D1FA00243D
:100D900035E0702832D0682855D0752855D06F2896
:100DA00055D0652855D0642855D0622855D04C2898
:100DB00055D0522855D0552855D0442855D04528CF
:100DC00055D0632804D12D4B1A7842F0010213E06C
:100DD000732804D1294B1A7842F002020CE06128F2
:100DE00004D1264B1A7842F0040205E0672806D1A8
:100DF000224B1A7842F008021A7000E04624204B79
:100E00001A780AB91C7012E05A780AB95C700EE0C0
:100E10009A780AB99C700AE0DA780AB9DC7006E0C0
:100E20001A790AB91C7102E05A7902B95C71BDE8FD
:100E300010402AF0DFB9002CA7D12B24DFE7002CCB
:100E4000A3D12824DBE74A24D9E74B24D7E74E2453
:100E5000D5E74D24D3E74C24D1E72A24CFE750240B
:100E6000CDE74F24CBE75224C9E75124C7E7292413
:100E7000C5E700BF4C90FF1F2CBBFF1FD2E4FF1F34
:100E8000CCE4FF1F2DE9F041644B654A1B781078D4
:100E9000644C4BB1AA2807D121680A7822B1092AEB
:100EA00002D001312160F3E721685F4E0D78377879
:100EB000DFF87081B5B95D48FFF7E1FA5C485D493C
:100EC00001F0FEF85A485C4901F02BF930462946FA
:100ED00002F0CCF83378002B40F09E80042333706E
:100EE000BDE8F08117FB07F7032697FBF6F6012D07
:100EF0004FEAC6064FEA470704D1002B7BD14FF2D9
:100F00002B006EE0022D04D1002B74D14FF228008B
:100F100067E0092D19D1494B1B78022B7CD043483F
:100F20004749484CFFF7B3FA01232360464B1E683C
:100F30001D4606F57A662268002A61D02B68B34206
:100F40005ED200200DF0EAF8F5E7A5F10A02D0B272
:100F500015280DD8002B5FD14FF47A70504320F044
:100F600007FFD8F800300133C8F80030BDE8F08141
:100F7000202D34D14A785C2A31D10131C8F80010D3
:100F80009BB1BDE8F0815C2B14D1264B01321A6075
:100F90000020FFF7E1FE304620F0EAFE23685A1CED
:100FA00022605A78202A07D04AB122681378002B91
:100FB000E9D112E00120ECE71A4A023313602AF06B
:100FC00003FA304620F0D4FE2AF0FEF9FFF780FA4B
:100FD0003846BDE8F04120F0CBBEBDE8F08153B902
:100FE00028462AF0A5F9304620F0C2FE2AF0ECF996
:100FF000384620F0BDFE236801332360BDE8F08150
:1010000000230B480B49236001F05AF808480A49AD
:10101000BDE8F04101F085B8BDE8F08161BAFF1F7D
:10102000E2B9FF1F4C90FF1FA48CFF1F10E5FF1FAC
:101030008490FF1F388FFF1F0C8FFF1F3CBBFF1FCB
:101040006AFA02008CBCFF1FD4E2FF1F08B50748F4
:101050000749FFF714FA074807F034FF064B01224F
:1010600005201A7008F050F8F5E700BF10E5FF1FE3
:1010700080FA02007AFA0200E2B9FF1F2DE9F74F69
:10108000AC4F3B7804465BB9AB4B1B78092B05D1C1
:10109000142803DDA94B1A6803321A602D2000E0E2
:1010A000002007F0E7FFA64B1A68022A984601DDE8
:1010B000FFF7CCFFA34E336801333360A24B1A789D
:1010C000002A45D0684602F05FF89DF8003003B36F
:1010D00001A802F04CF89DF80430132B0AD9002324
:1010E0009A48FF221A540133202BF9D10AF002F852
:1010F000002003E001338DF8043001A802F03FF82E
:1011000093499448FFF7C3F992489DF80410FFF7FC
:10111000C8F9914B1A6801321A609DF800303268A4
:101120000133DBB201320A2B8DF80030326009D96D
:101130008A498848FFF7ABF99DF800108548FFF70A
:10114000B0F939E0684602F027F87F4A00231370AF
:10115000DFF804B2DFF8E4A1DBF800209AF8001011
:101160007F480132CBF8002001F079F83268013273
:1011700032607C4A12680323B2FBF3F101EB4101B8
:10118000501A1A40104420F0F3FD3A785546D946DB
:10119000002A60D1724801F089F800285BD17048BC
:1011A00001F034FA002856D16D4801F06BFB30B1E4
:1011B00068486D49FFF76BF907F0A0FE14E36B4C2C
:1011C000DBF8002023680132092BCBF8002015DC66
:1011D00067496048FFF753F9DAF800105D48303985
:1011E000FFF769F963495B48FFF749F959482168F6
:1011F000FFF761F9236801332360F5E2524B0125C3
:101200001D70D8F800302B44C8F800305A4B03202A
:101210001D7007F079FF59494E48FFF730F96846CD
:1012200001F0B2FF9DF800104A48C1F10A012AF00E
:101230000CFF53494748FFF72AF952494548FFF741
:1012400026F9474801F018F8D8F800302560022B3D
:1012500040F3CA822CE7D9F8003097F800A0013398
:10126000C9F80030BAF1000F43D1504601F094FFA5
:101270003B4801F001F8444BC8F800A01A781D461D
:1012800022B942480CF054FE07F01CFE4048414988
:10129000394C00F015FF40492E48FFF7F8F8207848
:1012A00007F080FB552008F06FF83C4B1B78022BB1
:1012B000264606D019F010FB002001F060FF0DF06B
:1012C000F3FC374B374A196811602A7801203870CF
:1012D0001C4612B1307007F065FB2568C8352368DD
:1012E000AB4203D200200CF019FFF8E71FF020FEFC
:1012F0007AE22D4B187800286CD1542C6ADD2B68CB
:10130000312B53D1254B1B78022B63D00A4B1B7812
:10131000092B0BD106200AE0092B6EDD0A2B40F0C9
:10132000878007F041FE2B68312B4BD101200AF05A
:101330000BF859E2A5BAFF1FB78CFF1FEC9BFF1FEC
:101340004C8FFF1F8890FF1F808CFF1FB090FF1FE6
:10135000DAFA020010E5FF1F8C90FF1F16FB020057
:1013600008BBFF1F04BBFF1FFEFB0200848CFF1F96
:1013700052FB020018FC0200E2B9FF1F44FC02000D
:101380005DFC020093FC020034BBFF1F32FB020035
:101390008490FF1F208FFF1F46FB02003CBBFF1FF6
:1013A000D4E2FF1F58BBFF1F68BAFF1F322B0BD1BF
:1013B000A04B1B78022B0DD09F4B1B78092B01D122
:1013C0000520B4E70220B2E7332B03D1994B1B78F9
:1013D000022BACD1994B1B682BB9994B1B68002B86
:1013E00000F0028224E0032B02DC964896490AE0D2
:1013F000062B91DC9348954905E08E4B1B78022B18
:1014000008D090489249FFF73AF829688D4830395A
:10141000FFF751F88F4B1B78002B00F0E5818E4CC5
:101420002D230120237007F06FFE01232370DBE1E1
:10143000DFF874B289498348DFF870A200238BF883
:101440000030FFF71CF829687E483039FFF733F881
:10145000834B84491868086076490978022900F0AE
:101460009181DFF84CB29BF800100129D8460CD1CD
:101470007D4890F800C0DAF80000604529D17B482B
:10148000007830B36F487A490DE0022919D17948C4
:1014900090F800C0DAF8000060451AD1734800786F
:1014A000B8B168487449FEF7EAFFDAF800106548F9
:1014B0003039FFF700F89BF8002001328BF800204C
:1014C00092E1032905D16D4BDAF800201B789A428E
:1014D00007D06B4B1B78012B03D06A4B1B78012B79
:1014E00005D1624B1B7813B1674B1B787BB903297D
:1014F000654B05D11A78F52A02D15C4A127832B9C7
:101500001B78F62B46D1594B1B78002B42D05F49F4
:101510004C485D4CFEF7B3FF29684A483039FEF766
:10152000CAFF0423564A88F8003000231370554A36
:1015300013702378ED2B06D15548037163784371FE
:1015400004F0E4FB1FE0F02B06D1514803716378EF
:10155000437104F057FD16E0F52B02D104F0A0FD15
:1015600011E0F62B0FD13E4A4A4D166801232B603D
:1015700006F57A662B6823B1394A1368B342C0F086
:101580002F8100232B60002088F80000207007F0D6
:10159000FBFE29E1A1B1344A00231370354A88F8D3
:1015A00000301370354A0120137007F0EDFE3A4801
:1015B00007F088FC394BFF21187820F0D5FA13E1A9
:1015C000A4F148036B2B10D82B68312B0DD1274B7E
:1015D0001B7853B93248334900F072FD0BF08AFC96
:1015E0002F48304900F09DFDFEE0134B1A78092A80
:1015F0000BD1B4F5B47F08DB2B68322B08D1154B27
:101600001B782BB107F07AFCBCE0472C40F3BA8082
:101610002B68322B4ED115490978002940F089807A
:10162000012007F09DFB8B2C40F3DE80012007F0AA
:10163000E1FAD9E03CBBFF1FB78CFF1F80BAFF1F48
:10164000209CFF1F10E5FF1F52FB02004FFB020012
:101650006AFB020034BBFF1FE2B9FF1F8EFB0200D2
:10166000D4E2FF1F58BBFF1F54BBFF1F61BAFF1F0F
:101670009FFB020055BBFF1FB2FB020056BBFF1FC2
:10168000A8BAFF1FA4BAFF1FA59BFF1FC5FB02003E
:1016900018BAFF1F8CBCFF1FD8FB020001BBFF1F45
:1016A0008490FF1F0C8FFF1F508FFF1FEC9BFF1FAD
:1016B0000CBAFF1F332B3CD14D490978002938D192
:1016C000092A1ED1B32C1CDC4A4B5A7822B94A4A4B
:1016D0005421117001220CE0012A04D1464AD6217E
:1016E0001170022205E0022A05D1434A80211170BF
:1016F00003225A7078E0032A76D13F4A597011705C
:1017000072E03E4B3E48002401261E703C7000F003
:10171000B3FD3C4B3C481E60202221462DF0BAF917
:101720003A483B4900F0FDFC3A4B3B4A2C601A60BA
:101730005AE0092A03D1B32C24DD312B02E0472CD7
:1017400020DD362B1ED12A4B1B78DBB932680132E3
:101750003260324A01241470264A1278A2420BD019
:10176000264A27483B70147000F086FD254B274819
:1017700027491C6000F0D5FCD9F800300133C9F8C6
:10178000003031E0002007F075FC142C05DC234B01
:101790001B7813B9FFF76AFA14E0A4F11503442B80
:1017A00005D81E4B1B786BB9FFF77CFA0AE0592C61
:1017B00008DD1A4B1B782BB9194B012202201A7035
:1017C00007F0A2FC174B184A104818491A6000F09D
:1017D00077FC174B0D4817491A7800F083FC03E09B
:1017E00000200CF09BFCC5E603B0BDE8F08F00BF05
:1017F00061BAFF1F94BAFF1FD8BAFF1F808CFF1F6A
:1018000008BBFF1F848CFF1F1091FF1F8490FF1FD8
:10181000208FFF1F0CED00E00400FA0534BBFF1F12
:10182000E2B9FF1F4C90FF1F508FFF1F0C8FFF1F4F
:10183000A48CFF1F388FFF1F73B510202AF0F8F813
:10184000854B864E864C8748874D00221A70874B01
:1018500006221A70864B01221A70864B16221A70C5
:10186000854B17221A70854B11221A70844B0F2258
:101870001A70844B10221A700E2320213370152306
:10188000237005F0D9FC286000F0EEFB30782AF0D8
:10189000F9F8009020782AF0F5F87B4B01901A684F
:1018A00001321A60794B1B78442B24D07848FFF71B
:1018B0001DFA0224764EA319204613F8021C0134A7
:1018C00029F08EFF422CF5D100214FF40062304602
:1018D0002DF0E0F844200DF0F3FA6E4904466E480E
:1018E000FEF7CDFD1CB16C486C49FEF7C8FD6A4897
:1018F0006B49FEF7CCFD2C689CB905F07DFB0321FC
:101900004FF4F86029F06CFF664801F042FB664B2B
:101910006649614801221A70654B1C70FEF7B7FDDD
:101920004AE05A4B1B78442B43D120216148624C3A
:1019300005F0F0FC614805F01BFD614805F082FDF3
:101940000021204601F092FB5E4801F075FB5E49E4
:101950005148FEF79CFD50482178FEF7A2FD237800
:101960000BB9042323705948594C01F0D9FB59484D
:1019700001F0E3FB4B4801F004FB204601F0C3FB00
:1019800055494548FEF783FD21784348FEF789FD18
:1019900020F052FA444B51493F4800221A70444B00
:1019A00001221A70FEF773FD4D484E4900F0B9FB55
:1019B00002E04D4B4D4A1A604D4B4E481A684E4955
:1019C00001321A6040F2FD720FF036F8494869465C
:1019D000022204230EF0E8FF02220423454801A955
:1019E0000EF0E2FF45492C48FEF749FD4FF4FB613C
:1019F0002948FEF760FD254B27481978102200235F
:101A00002AF0EBFA24482AF0CBFA07F033FE07F06D
:101A100011FB08F0A1F83248394900F082FB2B682D
:101A20004BB93848384C01230370237001F0E5FAB4
:101A3000204601F0EFFA354B1B78092B09D11C4BDE
:101A40001B7833B1324800F031FC10B10A20FFF7A7
:101A500015FB02B070BD00BF3CBBFF1F20BBFF1FCA
:101A6000A49BFF1F9090FF1F209CFF1F01BBFF1F27
:101A700074BBFF1F75BBFF1FA6BAFF1F7CBBFF1FF8
:101A80002DBBFF1FCDBBFF1F8890FF1F0200024030
:101A9000289CFF1FD2FC020010E5FF1FE7FC02009C
:101AA000ECFC0200BC8CFF1FA5BAFF1F01FD020069
:101AB00068BAFF1FB090FF1FA48CFF1FF090FF1F9C
:101AC000D090FF1F2CBBFF1F16FD020021BBFF1F84
:101AD000D6E6FF1FA7BAFF1F23FD0200B4250300AF
:101AE0008490FF1F208FFF1F0CED00E00400FA051B
:101AF0008C90FF1FD0BBFF1F3AFB020035FD020098
:101B00000C8FFF1FA8BAFF1FA4BAFF1FB78CFF1FBF
:101B100008BBFF1FF8B521201FF0FCFFE8B94B4BB5
:101B20001D6804461E46326840F6B733521B9A427F
:101B300007D8642020F01CF921201FF0EBFF04449B
:101B4000F1E754B92046012129F04AFE012001465F
:101B500029F046FE3E4B3F4A1A603F4B3F4D1B7AF1
:101B6000012B0DD13E4B1B780BB12B7843B13D4B74
:101B70001B78032B02D0032005F0EEF90CF0B8FD22
:101B8000394B3A4C1A6801321A60394B1A680623ED
:101B9000B2FBF3F003FB102020F0EAF82278354B7B
:101BA000DAB11A68002001321A600CF0B7FA324B31
:101BB0001B78ABB1314B1B6893B106F0E7FE304B9D
:101BC0001B786BB1214A11682E4A12688A1A4EF6A8
:101BD00060214B439A4221D202E01A6801321A6016
:101BE0002B784BB123783BB11D4B1B7823B9264B87
:101BF0000120187006F0D6FE07F0D2FF234A1278B3
:101C00000A32D2B2012A04D82D20BDE8F84007F0EC
:101C100031BAC8B1BDE8F840FFF730BA1C4B1D48D7
:101C2000002601271F70267000F026FB1A4B1B4868
:101C30001F60202231462CF02DFF1948194900F071
:101C400070FA044A024BCAE7F8BD00BFD4E2FF1F96
:101C50000CED00E00400FA0569BAFF1F34BBFF1F5A
:101C600061BAFF1FE4B9FF1F8890FF1FA5BAFF1FCD
:101C700004BBFF1F8C90FF1F68BAFF1F209CFF1F33
:101C8000BC8CFF1F58BBFF1FE2B9FF1FE1B9FF1F4C
:101C9000808CFF1F08BBFF1F848CFF1F1091FF1F4C
:101CA0008490FF1F208FFF1FF8B51E4F3B78092B34
:101CB00030D11D4C0021204629F06EFF40B323791E
:101CC000E12B25D163792F2B22D9184B1B78FBB13F
:101CD000174E3578E5B93B78092B19D1154B1648C5
:101CE00001221A7000F0C8FA0CF0C2FF134B0A2050
:101CF0001860134B1D60FFF7C1F9204629464022AA
:101D00002CF0C8FE337843B10E480CF011F902E014
:101D10000D4800E00D4807F0D5F80C490C48FEF7D7
:101D2000B6FBF8BDB78CFF1F18BAFF1F68BAFF1FBC
:101D3000A5BAFF1F808CFF1F08BBFF1F848CFF1FED
:101D4000EC9BFF1F32FB020042FD0200B4250300A2
:101D500010E5FF1F08B529F0F9FC3221084A0948AF
:101D600000F022FA3221084A084800F01DFA08481B
:101D7000084A4FF47A71BDE8084000F015BA00BF78
:101D8000151B00000C8FFF1F850E0000388FFF1FF2
:101D9000208FFF1FA91C00002DE9F04F0A46C9B093
:101DA0000023CD5CD47844EA0564557844EA0544C0
:101DB000957803F1200644EA052404336D46402B50
:101DC000745102F10402ECD108AB002208AF9C6B05
:101DD0005E6ABD58596835444FEA744686EAF4464F
:101DE00086EA94242C444FEAF11585EAB14585EA48
:101DF000D10104322144C02A196403F10403E5D15E
:101E0000026D0092436D426E0193856D836EC66DC7
:101E1000076E02950396C56E0497059217469DE8D6
:101E2000140006931E46DDF80CC0049B029907952A
:101E3000A846002505F1200BE9465BF809A0DFF86C
:101E4000989055F80990D1444FEAB31A8AEAF32AD8
:101E50008AEA736AD14426EA030B07EA030A8BEA8B
:101E60000A0AD144C84481EA040901EA040A09EAD9
:101E7000020989EA0A094FEAB20A8AEA723A8AEA48
:101E8000B25A0435D144B5F5807FC444C14408D06A
:101E9000B0463E461F4663468C46214614464A4697
:101EA000C8E7009D4D440565019D2A444265029A9C
:101EB000039D1444049A846562440266059A13449F
:101EC00029444366079D069BC1651F442E448766CF
:101ED000C66649B0BDE8F08F50FD020000230364E0
:101EE00000220023C0E912230A4B03650A4B436515
:101EF0000A4B83650A4BC3650A4B03660A4B43666C
:101F00000A4B836603F17453A3F52303A3F69243AC
:101F1000C366704767E6096A85AE67BB72F36E3CBD
:101F20003AF54FA57F520E518C68059BABD9831FA4
:101F30002DE9F04106460F4601EB0208474516D051
:101F4000336C17F8012BF2540133402B3364F5D175
:101F500030463146FFF720FFD6E9124514F50074EC
:101F600045F100050023C6E912453364E6E7BDE804
:101F7000F081026C2DE9F84F372A88464FF0800136
:101F8000814602F10103815406D8382B14D0002277
:101F900009F803200133F8E73F2B04D8002209F8A1
:101FA00003200133F8E748464946FFF7F5FE484667
:101FB000002138222CF06EFDD9F84030D900D9E943
:101FC0001223521843F100034FEA122A160C140E82
:101FD0004AEA036A4FEA132B46EA03461F0C44EA17
:101FE00003241D0EC9E9122389F83B30494689F8BC
:101FF0003F2089F83EA089F83D6089F83C4089F887
:102000003AB089F8397089F838504846FFF7C4FE6D
:1020100043460321D9F85000CA00D0401870D9F8BF
:102020005400D0401871D9F85800D0401872D9F82F
:102030005C00D0401873D9F86000D0401874D9F80B
:102040006400D0401875D9F86800D0401876D9F8E7
:102050006C00013920FA02F21A774A1C03F10103DD
:10206000D8D1BDE8F88FFFFF07B5064B06499A683F
:102070000092DA6801920CCB04482CF03FFF03B0C9
:102080005DF804FB5090FF1F50FE02006090FF1FA0
:10209000064B1A68064B1A60064A12685A60064ACE
:1020A00012689A60054A1268DA60704754800440EA
:1020B0005090FF1F588004405C80044060800440C2
:1020C000036873B18B4205D11B69036070478A4274
:1020D00004D013461A69002AF9D102E00A691A618C
:1020E0007047704770B506460C461546FFF7E8FF87
:1020F00033680BB9346004E01A690AB11346FBE790
:102100001C611FF015FE23680322C01A4FF4FA5316
:102110006B43B5FBF2F55D430023606025602361EE
:1021200070BD38B505460C46FFF7CAFF2B680BB9E2
:102130002C6004E01A690AB11346FBE71C611FF02A
:10214000F7FD2368C01A00236060236138BD38B5ED
:102150000C461FF0EDFD6268236813449842054663
:1021600005D36268934208D26268824205D86268E9
:10217000954207D262689A4204D8A560E368204677
:102180009847656038BD38B505462C68002CFCD0F2
:1021900021462846FFF7DBFF2469F7E708B5014829
:1021A000FFF7F1FF8490FF1F10B54FF47A7461437D
:1021B000C260002201604260026110BD4FF47A7378
:1021C000594301607047FFFFF8B504460E461546B7
:1021D0001F46044AFFF7E8FF6661E561A7612046F4
:1021E000F8BD00BF0922000010B50021044680F8A8
:1021F0002010FFF7E3FF21460248BDE81040FFF73B
:1022000090BF00BF8490FF1F10B590F820300446A7
:102210003BB9012380F820304169BDE81040FFF749
:10222000CDBF012B10D109482146FFF749FFE369D3
:1022300013B9A06920B910BD2046984720B1F8E72E
:10224000BDE81040FFF7D0BF10BD00BF8490FF1F56
:102250000022416142740270704741617047437CC3
:10226000102B07D05A1CD2B24274C154002383549D
:1022700001207047002070470023437403707047AB
:1022800010B5446902782178002321B9D2F1010008
:1022900038BF002010BD914206D1E2185178C21813
:1022A0000133102B5278F0D1002010BD2DE9F043FE
:1022B000B9B004462CF0A0FEAD4B00221A70AD4A16
:1022C0001278092A054619460ED168B9AA4B22464A
:1022D00003F1100053F8045B42F8045B8342F9D128
:1022E00001230B70102505E0062803D81E201FF0DF
:1022F0003FFD82E11CA8FFF7F1FD2A4621461CA8FC
:10230000FFF716FE9D499E48FEF7C1F82046294674
:1023100004F056FE9B499A489B4CFEF7B0F89B4848
:10232000202104F04DFE20221CA89849FFF700FE52
:102330001CA80CA9FFF71DFE9DF8303023F0070301
:102340008DF830309DF84F3003F03F0343F04003E9
:1023500000220CA920468DF84F300DF0E3FA8C498D
:102360008748FEF78CF82021204604F029FE1CA89F
:10237000FFF7B4FD14A800F014FF1CA814A9102244
:10238000FFF7D6FD1CA883491022FFF7D1FD2022BC
:102390001CA82146FFF7CCFD21461CA8FFF7E9FD4C
:1023A0001CA8FFF79BFD1CA814A91022FFF7C0FD75
:1023B0001CA878491022FFF7BBFD20221CA87649F3
:1023C000FFF7B6FD1CA804A9FFF7D3FD73496C48BD
:1023D000FEF755F82046202104F0F2FD70496848C8
:1023E000FEF74DF804A8202104F0EAFD6D4B9DF89E
:1023F0001050D3F800806C4B20781A68531C02F1FF
:102400001F0902F1200CC2EB08014B4503F1FF3715
:10241000C2F10006194440F0DB80624B624C196047
:102420008542276004D0604B1A6801321A60E4E0EC
:102430000DF10F0000F00DFE5C495148FEF71FF84A
:102440004F489DF80F100A22002329F0C6FD9DF881
:102450000F504D48012D40D105F022F818B94A48D7
:10246000534A0CA93FE0524A0CA904A80DF05AFAAD
:1024700050494348FEF703F804A8202104F0A0FDCA
:102480004D493F48FDF7FBFF14A8202104F098FDBB
:102490004A493B48FDF7F3FF1021494804F090FDFD
:1024A0001CA8FFF71BFD1CA814A92022FFF740FD64
:1024B0001CA843491022FFF73BFD1CA804A92022B9
:1024C000FFF736FD1CA831492022FFF731FD1CA87B
:1024D0000CA9FFF74EFD009532E004F0E1FF28B9AA
:1024E00029482D4A0CA90DF01DFA2FE02A4A0CA903
:1024F00004A80DF017FA2F492148FDF7C0FF20214D
:1025000004A804F05DFD1CA8FFF7E8FC1CA814A9B2
:102510002022FFF70DFD1CA829491022FFF708FD16
:102520001CA804A92022FFF703FD1CA8174920229C
:10253000FFF7FEFC1CA80CA9FFF71BFD012300936D
:1025400011481F490CAA202304F024FB1D490C4804
:10255000FDF795FF0C48202104F032FD23681A4A4C
:102560000133236000231370184A0120136045E0F3
:1025700094BAFF1FB78CFF1F7290FF1F68FE020006
:1025800010E5FF1F7EFE02001091FF1F9090FF1FBD
:102590008AFE02007090FF1FB090FF1FA2FE020093
:1025A000BAFE02008890FF1F8C90FF1FD5FE02002C
:1025B000D090FF1FEFFE020007FF0200CC100300C7
:1025C0006090FF1FE2FE02003CBBFF1FD8BAFF1F56
:1025D000854204D00B4B19600B4B1F6023E704A806
:1025E00030442644C55CF05C1E46013363457FF4ED
:1025F0000AAF044B1960044B1E60002039B0BDE8DF
:10260000F08300BF8890FF1F8C90FF1F2DE9F043DF
:10261000B9B005462CF0F0FC0628044603D81E206D
:102620001FF0A6FB93E01CA8FFF758FC22462946A2
:102630001CA8FFF77DFC81498148FDF728FF28464B
:10264000214604F0BDFC7F497D487F4CFDF717FF14
:102650007E48202104F0B4FC20221CA87B49FFF70F
:1026600067FC1CA80CA9FFF784FC9DF8303023F010
:1026700007038DF830309DF84F3003F03F0343F0EF
:1026800040030CA9002220468DF84F300DF04AF986
:102690001CA8FFF723FC14A800F083FD1CA814A9B4
:1026A0001022FFF745FC1CA869491022FFF740FCE7
:1026B00020221CA82146FFF73BFC21461CA8FFF75F
:1026C00058FC1CA8FFF70AFC1CA814A91022FFF74D
:1026D0002FFC1CA85E491022FFF72AFC20221CA810
:1026E0005C49FFF725FC1CA804A9FFF742FC5A49E6
:1026F0005348FDF7C4FE2046202104F061FC5749F1
:102700004F48FDF7BCFE04A8202104F059FC544BAF
:102710009DF81050D3F80080524B20781A68531C53
:1027200002F11F0902F1200CC2EB08014B4503F135
:10273000FF37C2F10006194467D1494B494C196073
:102740008542276005D0474B1A6801321A60002085
:1027500071E00DF10F0000F07CFC9DF80F30022BB2
:1027600048D0394804F09CFE28B90CA93E4A3648A6
:102770000DF0D8F82FE03C4A0CA904A80DF0D2F8CF
:102780003A492F48FDF77BFE202104A804F018FCED
:102790001CA8FFF7A3FB1CA814A92022FFF7C8FB65
:1027A0001CA833491022FFF7C3FB1CA804A9202250
:1027B000FFF7BEFB20221CA82449FFF7B9FB1CA889
:1027C0000CA9FFF7D6FB012300931F4828490CAA48
:1027D000202304F0DFF927491948FDF750FE1A4875
:1027E000202104F0EDFB244B01221A70234B5422CC
:1027F0001A7005E0224A1278002AA8D11E4A1370E6
:10280000236801332360012015E0854204D0144B76
:102810001960144B1F6096E704A830442644C55C39
:10282000F05C1E46013363457FF47EAF0C4B1960AC
:102830000C4B1E608BE739B0BDE8F0830EFF020041
:1028400010E5FF1F7EFE02001091FF1F9090FF1FFA
:102850007090FF1FD090FF1FA2FE020024FF020015
:102860008890FF1F8C90FF1FB090FF1F43FF020056
:102870006090FF1FE2FE02003CBBFF1FD8BAFF1FA3
:1028800034BBFF1F30B59DB005462CF0B5FB0628C4
:10289000044603D81E201FF06BFA35E06846FFF7A8
:1028A0001DFB224629466846FFF742FB1849194896
:1028B000194D1A4CFDF7E3FD1948202104F080FB67
:1028C000202268461649FFF733FB29466846FFF782
:1028D00050FB104829F064FB12490E48FDF7CFFD6C
:1028E0002046202104F06CFB2278287800238242C5
:1028F0000AD1E218E91801331E2B52784878F6D134
:10290000131A5842584100E000201DB030BD00BFEE
:102910007EFE020010E5FF1F1091FF1FF090FF1FC9
:102920009090FF1F5BFF020028F010BF10B5084B0E
:1029300000F14C0203F1140153F8044B42F8044B2C
:102940008B42F9D10023036680F8483010BD00BFE8
:10295000888CFF1F2DE9F04F416D826DC36DD0F85B
:102960004C80D0F850C085B09946019102920393F3
:102970004646134600240A466146E5B20F2D07D8A5
:1029800083EA020A0AEA010A8AEA030A334F3FE0AD
:1029900004F10D0B04F108070BF00F0B07F00F0704
:1029A0000BF1020B023705F00F0A50F8277050F8B0
:1029B0002BB000EB8A0A8BEA070BDAF808708BEA77
:1029C000070BA71C07F00F070237132D50F82770CD
:1029D0008BEA07074FEAF777CAF80870D0D9272D96
:1029E00005D882EA010A8AEA030A1D4F10E03B2D4E
:1029F00009D842EA010A02EA01070AEA030A4AEA96
:102A0000070A184F04E082EA010A174F8AEA030A0C
:102A100005F00F050235574450F82550013405EBF9
:102A2000F6653D44502C4D444FEAB10105D099461E
:102A300013460A4631462E469FE7019C21444165D4
:102A400002990A448265039A454466441344C56466
:102A50000665C36505B0BDE8F08F00BF9979825A5D
:102A6000A1EBD96EDCBC1B8FD6C162CA90F848308E
:102A700083F003020133DBB20244402B10B5117224
:102A8000044680F8483004D1FFF764FF002384F83F
:102A9000483010BD08B5026E01320266FFF7E6FF4E
:102AA000012008BD10B580210446FFF7DFFF94F830
:102AB0004830382B20464FF00001F6D1FFF7D6FF03
:102AC00020460021FFF7D2FF20460021FFF7CEFF6E
:102AD000216E2046490FFFF7C9FF216E2046C1F342
:102AE0004751FFF7C3FF216E2046C1F34731FFF77F
:102AF000BDFF216E2046C1F34711FFF7B7FF216EDE
:102B0000C900204601F0F801BDE81040FFF7AEBF54
:102B100010B50446FFF7C6FF0023E2180433D16C5A
:102B2000142B09BAD164F8D104F14C0010BDF8B5EA
:102B300000F16406174604460D4630460021402247
:102B40002BF0A8FF402F18DD2046FFF7EFFE2F44A3
:102B5000BD4206D0236815F8011B1B682046984724
:102B6000F6E72046FFF7D4FF00F1140250F8041BEB
:102B700046F8041B9042F9D104E0304629463A4613
:102B80001EF01CF92046FFF7D1FE254604F1400651
:102B900095F86410236820461B6881F036010135E2
:102BA0009847B542F4D1F8BD70B50446FFF7B0FFC1
:102BB00004F1A40300F1140250F8041B43F8041BB1
:102BC0009042F9D12046FFF7B1FE04F140062546B8
:102BD00095F86410236820461B6881F05C0101357C
:102BE0009847B542F4D104F114062546236895F8B8
:102BF000A4101B68204601359847B542F6D12046FF
:102C0000BDE87040FFF784BF024B00221A71024AF0
:102C10001A6070473091FF1F78FF020080E80600BD
:102C20007047FFFF1E2391FBF3F10B0E70B51E4E94
:102C300003740B140446002543740B1281608374E3
:102C4000C174057394E8060045738573C5733046F7
:102C5000FFF76DFF336804F10C015B680822304612
:102C600098473046FFF7A0FF6061C37CE56103F041
:102C70000F03A361E269C1181202E261495D0135E7
:102C80000A43042DE261F5D1084B22F0004292FB89
:102C9000F3F103FB1122E2612034204604492CF0B9
:102CA0002DF9204670BD00BF3091FF1F40420F003C
:102CB00080FF02003C23B0FBF3F203FB120008701C
:102CC000B2FBF3F003FB10234B701823B0FBF3F2BD
:102CD00003FB12008870131D0720B3FBF0F0C0EB5C
:102CE000C0001B1AF0B501330024CB702046E7B2B8
:102CF00007F2B27313F0030612D1642593FBF5FCBF
:102D000005FB1C357DB94FF4C87593FBF5FC05FB3D
:102D10001C35002D40F26D1508BF4FF4B77504E067
:102D200040F26D1501E04FF4B7752844904204F16C
:102D30000104DCD98F7196B9642493FBF4F504FB8C
:102D400015347CB94FF4C87493FBF4F504FB1534C7
:102D5000002C40F26D1408BF4FF4B77404E040F249
:102D60006D1401E04FF4B774041B141B642293FB31
:102D7000F2F702FB17374FF4C87293FBF2F002FB35
:102D800010330022D5B2012D06D146B94FB9002B20
:102D90000CBF1D201C2005E00948105C02E01C202F
:102DA00000E01D20844205D301320C2AC0EB04044C
:102DB000E8D11546013501344D710C71F0BD00BFED
:102DC00086FF020038B5054C23689842054603D0BB
:102DD0000349FFF76FFF256038BD00BFE891FF1F73
:102DE000EC91FF1F08B5FFF7EDFF024B987900F259
:102DF000B27008BDEC91FF1F074B1860074B1B68B2
:102E00001844074B1860074B02221A70064B1A68C9
:102E1000064B1A60704700BFF491FF1F9C8CFF1F88
:102E20000492FF1FF891FF1FD4E2FF1F0092FF1FC3
:102E300070B51649164C0A68236816480068801A4F
:102E4000B0F57A7F02F57A7603F1010502D32B46BD
:102E50003246F2E7104D0A602A6823609A4213D87E
:102E60000E4B1B6883B1984710B1FFF7C5FF0BE00D
:102E70000B4B1A68064B1B6813442B60094B1A78DE
:102E8000003218BF01221A70206870BD0092FF1F27
:102E9000F491FF1FD4E2FF1F0492FF1FFC91FF1F5C
:102EA0009C8CFF1FF891FF1F08B5FFF7C1FFFFF7CC
:102EB00089FF014B987808BDEC91FF1F08B5FFF71B
:102EC000B7FFFFF77FFF014B587808BDEC91FF1F5C
:102ED00008B5FFF7ADFFFFF775FF014B187808BD88
:102EE000EC91FF1F08B5FFF7A3FFFFF76BFF014B46
:102EF000187908BDEC91FF1F08B5FFF799FFFFF7A0
:102F000061FF014B587908BDEC91FF1F08B5FFF731
:102F10008FFFBDE80840FFF765BFFFFF08B5FFF76B
:102F200087FF014B187808BDF891FF1FF8B50646DA
:102F30000D468F180C46BC4206D0204628F03CFCBB
:102F4000731B18550134F6E7F8BDF8B506460D4673
:102F50008F180C46BC4206D0731B2046195D28F022
:102F60003FFC0134F6E7F8BD08B54FF4D561012206
:102F7000FFF7DCFF012008BD4FF4D5610122FFF708
:102F8000E4BF08B540F2A9610122FFF7CFFF01209D
:102F900008BD40F2A9610122FFF7D7BF08B540F292
:102FA000AA610122FFF7C2FF012008BD40F2AA6119
:102FB0000122FFF7CABF08B540F2D561D022FFF762
:102FC000B5FFD02008BD40F2D561D022FFF7BDBFCC
:102FD00008B540F2AB610122FFF7A8FF012008BD50
:102FE00040F2AB610122FFF7B0BF08B540F2AC611F
:102FF0000122FFF79BFF012008BD40F2AC610122D6
:10300000FFF7A3BF08B540F2AD610122FFF78EFFC5
:10301000012008BD40F2AD610122FFF796BF08B55F
:1030200040F2A5710122FFF781FF012008BD40F2A7
:10303000A5710122FFF789BF08B540F2A6710122F0
:10304000FFF774FF012008BD40F2A6710122FFF7CF
:103050007CBF08B540F2AE610122FFF767FF012097
:1030600008BD40F2AE610122FFF76FBF10B5044604
:1030700029B940F2AF610122FFF758FF17E04B1E5C
:103080000B2B08D801F2CB710122FFF74FFF2378F9
:1030900003F00F030AE0A1F10D030B2B07D801F297
:1030A000CB710122FFF742FF23781B092370012017
:1030B00010BD70B501F2CB760D46044631460130A5
:1030C0000122FFF733FF1DB9204640F2AF6114E043
:1030D0006B1E0B2B05D86378227823F00F03134463
:1030E00008E00D3D0B2D0DD86378227803F00F0317
:1030F00003EB02132370204631460122BDE87040E5
:10310000FFF723BF70BD08B54FF4D6610122FFF76A
:103110000DFF012008BD4FF4D6610122FFF715BF56
:1031200008B540F2D3610122FFF700FF012008BD7E
:1031300040F2D3610122FFF708BF08B540F2BF712A
:103140000122FFF7F3FE012008BD40F2BF7101220A
:10315000FFF7FBBE08B540F2D4610122FFF7E6FE9F
:10316000012008BD40F2D4610122FFF7EEBE08B590
:1031700040F2B1610122FFF7D9FE012008BD40F203
:10318000B1610122FFF7E1BE08B540F2B261012250
:10319000FFF7CCFE012008BD40F2B2610122FFF72B
:1031A000D4BE08B540F2B3612022FFF7BFFE202055
:1031B00008BD40F2B3612022FFF7C7BE08B540F258
:1031C0001C610122FFF7B2FE012008BD40F21C6124
:1031D0000122FFF7BABE08B540F21D610122FFF7D8
:1031E000A5FE012008BD40F21D610122FFF7ADBE22
:1031F00008B540F21E610122FFF798FE012008BDCC
:1032000040F21E610122FFF7A0BE08B540F21F6127
:103210000122FFF78BFE012008BD40F21F61012251
:10322000FFF793BE08B54FF4C4610122FFF77EFE9D
:10323000012008BD4FF4C4610122FFF786BE08B526
:1032400040F221610122FFF771FE012008BD40F22A
:1032500021610122FFF779BE08B540F22261012207
:10326000FFF764FE012008BD40F222610122FFF752
:103270006CBE08B540F223610122FFF757FE012022
:1032800008BD40F223610122FFF75FBE08B540F29E
:1032900024610122FFF74AFE012008BD40F22461AB
:1032A0000122FFF752BE08B540F225610122FFF767
:1032B0003DFE012008BD40F225610122FFF745BE19
:1032C00008B540F226610122FFF730FE012008BD5B
:1032D00040F226610122FFF738BE08B540F22761AF
:1032E0000122FFF723FE012008BD40F227610122E1
:1032F000FFF72BBE08B54FF4C5610122FFF716FE9C
:10330000012008BD4FF4C5610122FFF71EBE08B5BC
:1033100040F229610122FFF709FE012008BD40F2B9
:1033200029610122FFF711BE08B540F22A6101228E
:10333000FFF7FCFD012008BD40F22A610122FFF7E2
:1033400004BE08B540F22B610122FFF7EFFD01201A
:1033500008BD40F22B610122FFF7F7BD08B540F22E
:103360002C610122FFF7E2FD012008BD40F22C6133
:103370000122FFF7EABD08B540F22D610122FFF7F7
:10338000D5FD012008BD40F22D610122FFF7DDBD12
:1033900008B540F22E610122FFF7C8FD012008BDEB
:1033A00040F22E610122FFF7D0BD08B540F22F6137
:1033B0000122FFF7BBFD012008BD40F22F61012271
:1033C000FFF7C3BD08B54FF4C6610122FFF7AEFD9C
:1033D000012008BD4FF4C6610122FFF7B6BD08B554
:1033E00040F231610122FFF7A1FD012008BD40F24A
:1033F00031610122FFF7A9BD08B540F23261012217
:10340000FFF794FD012008BD40F232610122FFF771
:103410009CBD08B540F233610122FFF787FD012012
:1034200008BD40F233610122FFF78FBD08B5AC2122
:103430000122FFF77BFD012008BDAC210122FFF72F
:1034400084BD08B5AD210122FFF770FD012008BD44
:10345000AD210122FFF779BD08B5AE210122FFF7AA
:1034600065FD012008BDAE210122FFF76EBD08B544
:10347000AF210122FFF75AFD012008BDAF21012233
:10348000FFF763BD08B5B0210122FFF74FFD012012
:1034900008BDB0210122FFF758BD08B5B1210122B6
:1034A000FFF744FD012008BDB1210122FFF74DBD0A
:1034B00008B5B2210122FFF739FD012008BDB22174
:1034C0000122FFF742BD08B5B3210122FFF72EFD0F
:1034D000012008BDB3210122FFF737BD08B5B42193
:1034E0000122FFF723FD012008BDB4210122FFF7CF
:1034F0002CBD08B5B5210122FFF718FD012008BD3C
:10350000B5210122FFF721BD08B5B6210122FFF741
:103510000DFD012008BDB6210122FFF716BD08B53B
:10352000B7210122FFF702FD012008BDB7210122CA
:10353000FFF70BBD08B5B8210122FFF7F7FC01200A
:1035400008BDB8210122FFF700BD08B5B92101224D
:10355000FFF7ECFC012008BDB9210122FFF7F5BC03
:1035600008B5BA210122FFF7E1FC012008BDBA210C
:103570000122FFF7EABC08B5BB210122FFF7D6FC08
:10358000012008BDBB210122FFF7DFBC08B5BC212B
:103590000122FFF7CBFC012008BDBC210122FFF76F
:1035A000D4BC08B5BD210122FFF7C0FC012008BD35
:1035B000BD210122FFF7C9BC08B5BE210122FFF7DA
:1035C000B5FC012008BDBE210122FFF7BEBC08B535
:1035D000BF210122FFF7AAFC012008BDBF21012263
:1035E000FFF7B3BC08B5C0210122FFF79FFC012003
:1035F00008BDC0210122FFF7A8BC08B5C1210122E6
:10360000FFF794FC012008BDC1210122FFF79DBCFA
:1036100008B5C2210122FFF789FC012008BDC221A3
:103620000122FFF792BC08B5C3210122FFF77EFCFF
:10363000012008BDC3210122FFF787BC08B5642122
:103640000122FFF773FC012008BD64210122FFF76E
:103650007CBC08B565210122FFF768FC012008BD8C
:1036600065210122FFF771BC08B566210122FFF731
:103670005DFC012008BD66210122FFF766BC08B58C
:1036800067210122FFF752FC012008BD67210122BA
:10369000FFF75BBC08B568210122FFF747FC01205A
:1036A00008BD68210122FFF750BC08B5692101223D
:1036B000FFF73CFC012008BD69210122FFF745BC52
:1036C00008B56A210122FFF731FC012008BD6A21FB
:1036D0000122FFF73ABC08B56B210122FFF726FC57
:1036E000012008BD6B210122FFF72FBC08B56C211A
:1036F0000122FFF71BFC012008BD6C210122FFF70E
:1037000024BC08B56D210122FFF710FC012008BD83
:103710006D210122FFF719BC08B56E210122FFF7C8
:1037200005FC012008BD6E210122FFF70EBC08B583
:103730006F210122FFF7FAFB012008BD6F21012252
:10374000FFF703BC08B570210122FFF7EFFB012052
:1037500008BD70210122FFF7F8BB08B571210122D5
:10376000FFF7E4FB012008BD71210122FFF7EDBB4B
:1037700008B572210122FFF7D9FB012008BD722193
:103780000122FFF7E2BB08B573210122FFF7CEFB50
:10379000012008BD73210122FFF7D7BB08B57421B2
:1037A0000122FFF7C3FB012008BD74210122FFF7AE
:1037B000CCBB08B575210122FFF7B8FB012008BD7D
:1037C00075210122FFF7C1BB08B576210122FFF761
:1037D000ADFB012008BD76210122FFF7B6BB08B57D
:1037E00077210122FFF7A2FB012008BD77210122EA
:1037F000FFF7ABBB08B578210122FFF797FB01204B
:1038000008BD78210122FFF7A0BB08B5792101226C
:10381000FFF78CFB012008BD79210122FFF795BB42
:1038200008B57A210122FFF781FB012008BD7A212A
:103830000122FFF78ABB08B57B210122FFF776FB47
:10384000012008BD7B210122FFF77FBB08B540F2B4
:1038500064610122FFF76AFB012008BD40F2646148
:103860000122FFF772BB08B540F265610122FFF744
:103870005DFB012008BD40F265610122FFF765BBD9
:1038800008B540F266610122FFF750FB012008BD38
:1038900040F266610122FFF758BB08B540F267614C
:1038A0000122FFF743FB012008BD40F267610122BE
:1038B000FFF74BBB08B54FF4CD610122FFF736FB94
:1038C000012008BD4FF4CD610122FFF73EBB08B5D2
:1038D00040F269610122FFF729FB012008BD40F297
:1038E00069610122FFF731BB08B540F26A6101222C
:1038F000FFF71CFB012008BD40F26A610122FFF7BF
:1039000024BB08B540F26B610122FFF70FFB0120D9
:1039100008BD40F26B610122FFF717BB08B540F20A
:103920006C610122FFF702FB012008BD40F26C61CF
:103930000122FFF70ABB08B540F26D610122FFF7D3
:10394000F5FA012008BD40F26D610122FFF7FDBAD2
:1039500008B540F26E610122FFF7E8FA012008BDC8
:1039600040F26E610122FFF7F0BA08B540F26F61D4
:103970000122FFF7DBFA012008BD40F26F6101224E
:10398000FFF7E3BA08B54FF4CE610122FFF7CEFA94
:10399000012008BD4FF4CE610122FFF7D6BA08B569
:1039A00040F271610122FFF7C1FA012008BD40F227
:1039B00071610122FFF7C9BA08B540F272610122B4
:1039C000FFF7B4FA012008BD40F272610122FFF74F
:1039D000BCBA08B540F273610122FFF7A7FA0120D3
:1039E00008BD40F273610122FFF7AFBA08B540F29B
:1039F00074610122FFF79AFA012008BD40F2746158
:103A00000122FFF7A2BA08B540F275610122FFF763
:103A10008DFA012008BD40F275610122FFF795BAC9
:103A200008B540F276610122FFF780FA012008BD57
:103A300040F276610122FFF788BA08B540F277615B
:103A40000122FFF773FA012008BD40F277610122DD
:103A5000FFF77BBA08B54FF4CF610122FFF766FA92
:103A6000012008BD4FF4CF610122FFF76EBA08B5FF
:103A700040F279610122FFF759FA012008BD40F2B6
:103A800079610122FFF761BA08B540F27A6101223B
:103A9000FFF74CFA012008BD40F27A610122FFF7DE
:103AA00054BA08B540F27B610122FFF73FFA0120CA
:103AB00008BD40F27B610122FFF747BA08B54621F5
:103AC0001022FFF733FA102008BD46211022FFF71D
:103AD0003CBA38B505460C4611B9622102220BE00A
:103AE0004B1E172B0AD801F263610122FFF71EFA61
:103AF000681C04F2A6710122FFF718FA022038BDF3
:103B000038B505460C4611B9622102220BE04B1E66
:103B1000172B0CD801F263610122FFF716FA681C1B
:103B200004F2A6710122BDE83840FFF70EBA38BD95
:103B300008B55C210622FFF7F9F9062008BD5C21D3
:103B40000622FFF702BA08B556210622FFF7EEF962
:103B5000062008BD56210622FFF7F7B937B501390F
:103B60000446172900F25581DFE811F018002400FF
:103B700031003E004B005800650072007F008C0051
:103B80009900A600B300C000CD00DA00E700F40001
:103B900001010E011B012801350142010DF1070051
:103BA000FFF70CFB9DF807502046382DA8BF38259D
:103BB000DC2129E10DF10700FFF70DFB9DF807500F
:103BC0002046382DA8BF38254FF48A711CE10DF12D
:103BD0000700FFF70DFB9DF807502046382DA8BFC2
:103BE00038254FF4A6710FE10DF10700FFF70DFB2B
:103BF0009DF807502046382DA8BF38254FF4C271D4
:103C000002E10DF10700FFF70DFB9DF8075020467C
:103C1000382DA8BF38254FF4DE71F5E00DF107000F
:103C2000FFF70DFB9DF807502046382DA8BF38251B
:103C30004FF4FA71E8E00DF10700FFF70DFB9DF876
:103C400007502046382DA8BF38254FF40B71DBE014
:103C50000DF10700FFF70DFB9DF807502046382DAA
:103C6000A8BF38254FF41971CEE00DF10700FFF71A
:103C70000DFB9DF807502046382DA8BF38254FF47E
:103C80002771C1E00DF10700FFF70DFB9DF807500C
:103C90002046382DA8BF38254FF43571B4E00DF11A
:103CA0000700FFF70DFB9DF807502046382DA8BFF1
:103CB00038254FF44371A7E00DF10700FFF70DFB26
:103CC0009DF807502046382DA8BF38254FF4517174
:103CD0009AE00DF10700FFF70DFB9DF80750204615
:103CE000382DA8BF38254FF45F718DE00DF1070026
:103CF000FFF70DFB9DF807502046382DA8BF38254B
:103D00004FF46D7180E00DF10700FFF70DFB9DF89A
:103D100007502046382DA8BF38254FF47B7173E03B
:103D20000DF10700FFF70DFB9DF807502046382DD9
:103D3000A8BF382540F2244166E00DF10700FFF7E7
:103D40000DFB9DF807502046382DA8BF382540F2BE
:103D50005C4159E00DF10700FFF70DFB9DF807509E
:103D60002046382DA8BF382540F294414CE00DF193
:103D70000700FFF70DFB9DF807502046382DA8BF20
:103D8000382540F2CC413FE00DF10700FFF70DFB75
:103D90009DF807502046382DA8BF382540F2045121
:103DA00032E00DF10700FFF70DFB9DF807502046AC
:103DB000382DA8BF382540F23C5125E00DF1070011
:103DC000FFF70DFB9DF807502046382DA8BF38257A
:103DD00040F2745118E00DF10700FFF70DFB9DF85C
:103DE00007502046382DA8BF382540F2AC510BE0D3
:103DF0000DF10700FFF70DFB9DF807502046382D09
:103E0000A8BF382540F2E4513822FFF78FF8284642
:103E100000E0002003B030BD013A13B50C46172A6C
:103E200000F26881DFE812F018002500330041003D
:103E30004F005D006B00790087009500A300B10082
:103E4000BF00CD00DB00E900F700050113012101EF
:103E50002F013D014B015901DC213822FFF775F894
:103E600002A8382CA8BF382400F8014DFFF7AEF99E
:103E700040E14FF48A713822FFF767F802A8382C26
:103E8000A8BF382400F8014DFFF7ADF932E14FF437
:103E9000A6713822FFF759F802A8382CA8BF382499
:103EA00000F8014DFFF7ACF924E14FF4C27138225C
:103EB000FFF74BF802A8382CA8BF382400F8014DB2
:103EC000FFF7ABF916E14FF4DE713822FFF73DF84A
:103ED00002A8382CA8BF382400F8014DFFF7AAF932
:103EE00008E14FF4FA713822FFF72FF802A8382CB6
:103EF000A8BF382400F8014DFFF7A9F9FAE04FF404
:103F00000B713822FFF721F802A8382CA8BF3824FB
:103F100000F8014DFFF7A8F9ECE04FF419713822D1
:103F2000FFF713F802A8382CA8BF382400F8014D79
:103F3000FFF7A7F9DEE04FF427713822FFF705F805
:103F400002A8382CA8BF382400F8014DFFF7A6F9C5
:103F5000D0E04FF435713822FEF7F7FF02A8382C75
:103F6000A8BF382400F8014DFFF7A5F9C2E04FF4CF
:103F700043713822FEF7E9FF02A8382CA8BF382485
:103F800000F8014DFFF7A4F9B4E04FF45171382265
:103F9000FEF7DBFF02A8382CA8BF382400F8014D3B
:103FA000FFF7A3F9A6E04FF45F713822FEF7CDFFCB
:103FB00002A8382CA8BF382400F8014DFFF7A2F959
:103FC00098E04FF46D713822FEF7BFFF02A8382C3D
:103FD000A8BF382400F8014DFFF7A1F98AE04FF49B
:103FE0007B713822FEF7B1FF02A8382CA8BF382415
:103FF00000F8014DFFF7A0F97CE040F2244138229F
:10400000FEF7A3FF02A8382CA8BF382400F8014D02
:10401000FFF79FF96EE040F25C413822FEF795FF12
:1040200002A8382CA8BF382400F8014DFFF79EF9EC
:1040300060E040F294413822FEF787FF02A8382C56
:10404000A8BF382400F8014DFFF79DF952E040F277
:10405000CC413822FEF779FF02A8382CA8BF3824BB
:1040600000F8014DFFF79CF944E040F2045138227A
:10407000FEF76BFF02A8382CA8BF382400F8014DCA
:10408000FFF79BF936E040F23C513822FEF75DFF26
:1040900002A8382CA8BF382400F8014DFFF79AF980
:1040A00028E040F274513822FEF74FFF02A8382C66
:1040B000A8BF382400F8014DFFF799F91AE040F243
:1040C000AC513822FEF741FF02A8382CA8BF382493
:1040D00000F8014DFFF798F90CE040F2E451382266
:1040E000FEF733FF02A8382CA8BF382400F8014D92
:1040F000FFF797F902B010BD013908B5172941D86B
:10410000DFE801F00C0E10121416181A1C1E2022E3
:104110002426282A2C2E30323436383A7C212CE0C2
:104120007D212AE07E2128E07F2126E0802124E0F5
:10413000812122E0822120E083211EE084211CE0F5
:1041400085211AE0862118E0872116E0882114E0F5
:10415000892112E08A2110E08B210EE08C210CE0F5
:104160008D210AE08E2108E08F2106E0902104E0F5
:10417000912102E0922100E093210122FEF7D6FE78
:10418000012008BD002008BD013917293FD8DFE80C
:1041900001F00C0E10121416181A1C1E20222426D0
:1041A000282A2C2E30323436383A7C212CE07D21DE
:1041B0002AE07E2128E07F2126E0802124E0812161
:1041C00022E0822120E083211EE084211CE0852161
:1041D0001AE0862118E0872116E0882114E0892161
:1041E00012E08A2110E08B210EE08C210CE08D2161
:1041F0000AE08E2108E08F2106E0902104E0912161
:1042000002E0922100E093210122FEF79EBE70475A
:10421000013908B5172941D8DFE801F00C0E10125A
:104220001416181A1C1E20222426282A2C2E30325E
:104230003436383A94212CE095212AE0962128E062
:10424000972126E0982124E0992122E09A2120E07C
:104250009B211EE09C211CE09D211AE09E2118E07C
:104260009F2116E0A02114E0A12112E0A22110E07C
:10427000A3210EE0A4210CE0A5210AE0A62108E07C
:10428000A72106E0A82104E0A92102E0AA2100E07C
:10429000AB210122FEF74AFE012008BD002008BD27
:1042A000013917293FD8DFE801F00C0E101214165F
:1042B000181A1C1E20222426282A2C2E303234368E
:1042C000383A94212CE095212AE0962128E0972184
:1042D00026E0982124E0992122E09A2120E09B21E8
:1042E0001EE09C211CE09D211AE09E2118E09F21E8
:1042F00016E0A02114E0A12112E0A22110E0A321E8
:104300000EE0A4210CE0A5210AE0A62108E0A721E7
:1043100006E0A82104E0A92102E0AA2100E0AB21E7
:104320000122FEF712BE7047013908B5172941D89E
:10433000DFE801F00C0E10121416181A1C1E2022B1
:104340002426282A2C2E30323436383AC4212CE048
:10435000C5212AE0C62128E0C72126E0C82124E0A3
:10436000C92122E0CA2120E0CB211EE0CC211CE0A3
:10437000CD211AE0CE2118E0CF2116E0D02114E0A3
:10438000D12112E0D22110E0D3210EE0D4210CE0A3
:10439000D5210AE0D62108E0D72106E0D82104E0A3
:1043A000D92102E0DA2100E0DB210122FEF7BEFD87
:1043B000012008BD002008BD013917293FD8DFE8DA
:1043C00001F00C0E10121416181A1C1E202224269E
:1043D000282A2C2E30323436383AC4212CE0C5211C
:1043E0002AE0C62128E0C72126E0C82124E0C9210F
:1043F00022E0CA2120E0CB211EE0CC211CE0CD210F
:104400001AE0CE2118E0CF2116E0D02114E0D1210E
:1044100012E0D22110E0D3210EE0D4210CE0D5210E
:104420000AE0D62108E0D72106E0D82104E0D9210E
:1044300002E0DA2100E0DB210122FEF786BD7047B1
:10444000013908B5172959D8DFE801F00C0F12150A
:10445000181B1E2124272A2D303336393C3F424574
:10446000484B4E5140F2346143E040F2356140E048
:1044700040F236613DE040F237613AE04FF4C76107
:1044800037E040F2396134E040F23A6131E040F225
:104490003B612EE040F23C612BE040F23D6128E0C0
:1044A00040F23E6125E040F23F6122E04FF4C861F6
:1044B0001FE040F241611CE040F2426119E040F22D
:1044C000436116E040F2446113E040F2456110E0C0
:1044D00040F246610DE040F247610AE04FF4C961E5
:1044E00007E040F2496104E040F24A6101E040F235
:1044F0004B610122FEF71AFD012008BD002008BD16
:104500000139172957D8DFE801F00C0F1215181BD5
:104510001E2124272A2D303336393C3F4245484B53
:104520004E5140F2346143E040F2356140E040F2E8
:1045300036613DE040F237613AE04FF4C76137E061
:1045400040F2396134E040F23A6131E040F23B61DF
:104550002EE040F23C612BE040F23D6128E040F269
:104560003E6125E040F23F6122E04FF4C8611FE068
:1045700040F241611CE040F2426119E040F24361C7
:1045800016E040F2446113E040F2456110E040F271
:1045900046610DE040F247610AE04FF4C96107E06F
:1045A00040F2496104E040F24A6101E040F24B61AF
:1045B0000122FEF7CABC7047013908B5172959D83E
:1045C000DFE801F00C0F1215181B1E2124272A2DDD
:1045D000303336393C3F4245484B4E5140F24C61F6
:1045E00043E040F24D6140E040F24E613DE040F278
:1045F0004F613AE04FF4CA6137E040F2516134E074
:1046000040F2526131E040F253612EE040F25461D9
:104610002BE040F2556128E040F2566125E040F27F
:10462000576122E04FF4CB611FE040F259611CE07A
:1046300040F25A6119E040F25B6116E040F25C61C1
:1046400013E040F25D6110E040F25E610DE040F287
:104650005F610AE04FF4CC6107E040F2616104E081
:1046600040F2626101E040F263610122FEF75EFC0C
:10467000012008BD002008BD0139172957D8DFE8FF
:1046800001F00C0F1215181B1E2124272A2D303380
:1046900036393C3F4245484B4E5140F24C6143E075
:1046A00040F24D6140E040F24E613DE040F24F612A
:1046B0003AE04FF4CA6137E040F2516134E040F231
:1046C000526131E040F253612EE040F254612BE040
:1046D00040F2556128E040F2566125E040F2576112
:1046E00022E04FF4CB611FE040F259611CE040F240
:1046F0005A6119E040F25B6116E040F25C6113E040
:1047000040F25D6110E040F25E610DE040F25F61F9
:104710000AE04FF4CC6107E040F2616104E040F24E
:10472000626101E040F263610122FEF70EBC704756
:10473000653908B51F2975D8DFE801F0101316197F
:104740001C1F2225282B2E3134373A3D4043464941
:104750004C4F5255585B5E6164676A6D40F27C61F4
:104760005BE040F27D6158E040F27E6155E040F24E
:104770007F6152E04FF4D0614FE040F281614CE044
:1047800040F2826149E040F2836146E040F2846198
:1047900043E040F2856140E040F286613DE040F256
:1047A00087613AE04FF4D16137E040F2896134E04B
:1047B00040F28A6131E040F28B612EE040F28C6180
:1047C0002BE040F28D6128E040F28E6125E040F25E
:1047D0008F6122E04FF4D2611FE040F291611CE052
:1047E00040F2926119E040F2936116E040F2946168
:1047F00013E040F2956110E040F296610DE040F266
:1048000097610AE04FF4D36107E040F2996104E058
:1048100040F29A6101E040F29B610122FEF786FBC3
:10482000012008BD002008BD65391F2973D8DFE8C5
:1048300001F0101316191C1F2225282B2E31343796
:104840003A3D404346494C4F5255585B5E61646760
:104850006A6D40F27C615BE040F27D6158E040F2BD
:104860007E6155E040F27F6152E04FF4D0614FE04D
:1048700040F281614CE040F2826149E040F28361A4
:1048800046E040F2846143E040F2856140E040F25E
:1048900086613DE040F287613AE04FF4D16137E054
:1048A00040F2896134E040F28A6131E040F28B618C
:1048B0002EE040F28C612BE040F28D6128E040F266
:1048C0008E6125E040F28F6122E04FF4D2611FE05B
:1048D00040F291611CE040F2926119E040F2936174
:1048E00016E040F2946113E040F2956110E040F26E
:1048F00096610DE040F297610AE04FF4D36107E062
:1049000040F2996104E040F29A6101E040F29B615B
:104910000122FEF71ABB7047013908B5032913D8E5
:10492000DFE801F00205080B40F29C6107E040F26D
:104930009D6104E040F29E6101E040F29F6101222E
:10494000FEF7F4FA012008BD002008BD0139032953
:1049500011D8DFE801F00205080B40F29C6107E086
:1049600040F29D6104E040F29E6101E040F29F61EF
:104970000122FEF7EABA704708B50846114605F06D
:1049800079FA002008BD38B50A220023044627F032
:1049900024FB0546204627F003FB284438BD38B5E4
:1049A0000A220023044627F018FB0546204627F07C
:1049B000F7FA284438BDFFFF10B5044616480EF03C
:1049C000DDFD164827F0ECFA14481549FBF75FFDAA
:1049D0006379642B1ED9A37903F00F03012B04D153
:1049E000E11D104813F0A4F90DE0022B02D10EF0E6
:1049F000CBFD03E0032B06D10EF0CAFD0246E11DFC
:104A000008480EF0C9FD074800214122BDE81040CA
:104A10002AF040B810BD00BF759E000010E5FF1FD2
:104A2000080003008495FF1F70B5084D084C2978D5
:104A30002046C90102F0C4FA297801222046C901A2
:104A40001346BDE8704003F0E1BF00BF0892FF1FAE
:104A50007496FF1F38B5254B1B78032B05460C4673
:104A60001CD006D8012B10D0022B39D10EF08CFDB2
:104A700016E0662B1FD0672B28D0042B30D10846B8
:104A80002A461B490AF04EFF1EE00846184A2946EE
:104A900013F05CF9003018BF012038BD0EF078FD2E
:104AA00003461349284622460EF0B2FDD0F101001C
:104AB00038BF002038BD0EF067FD0D490346224681
:104AC00028460EF02DFE08B1002038BD0EF060FD26
:104AD00007490346224628460EF022FE0028F3D15D
:104AE000044804F0EFF9012038BD00BF0892FF1F11
:104AF000B892FF1F260003002DE9F04F91B0DFF8B8
:104B00005082874D98F8003093466A46A2EBC31254
:104B10008A46002104AF0646954628460A4611F00B
:104B2000E2FF07F10C0010F09CFB07F1180010F0F9
:104B300098FB07F1240010F094FB98F8003005F181
:104B40001400DB014FF001116B6010F0FDFB0DF163
:104B500010090446002875D1724B98F800207B603C
:104B6000194605F12C00920110F049FC7B680446BF
:104B7000002867D198F80020920105F138009918B3
:104B800010F03DFC044600285CD105F1080005F159
:104B90002C0105F1380210F00AFF0446002851D11B
:104BA00007F10C0005F12C01012210F0EAFE044689
:104BB000002847D107F1180005F13801012210F053
:104BC000E0FE044600283DD107F1240007F10C0166
:104BD00007F1180210F0EBFE044698BB05F1200027
:104BE00005F1140107F1240211F016FC044648BB3C
:104BF00005F1440005F1200107F10C0211F014F950
:104C00000446F8B905F1500005F1200107F118023A
:104C100011F00AF90446A8B905F15C0005F1380164
:104C200005F12C0211F0F8FB044658B93E493F4803
:104C300027F0C6F969683D48FFF7A5FE284611F040
:104C40008BFF044607F10C0010F012FB07F118006F
:104C500010F00EFB07F1240010F00AFB33482CB1D2
:104C60003349224627F0ACF9324851E03249FBF78C
:104C700006FC31462D48FBF71EFC98F800308022D8
:104C80006FF0090112FB0311B142DCBF6FF00A069D
:104C900012FB0366202E0CD003DC1C2E0BD1052347
:104CA0000AE0302E03D0402E05D1082304E007236C
:104CB00002E0062300E0002300228DE848041F499B
:104CC000CDF80C900123164812F0C6FA1C49044690
:104CD0001648FBF7D4FB5046314602F071F998F8BC
:104CE00000204946D20158461CF068F80C4812F0E2
:104CF00081FB0E4824B91349FBF7C9FB20460BE0A2
:104D00001149FBF7BCFB09482146FBF7D4FB0F48D0
:104D100004F0D8F84FF0FF303437BD46BDE8F08FCF
:104D2000D894FF1FD892FF1F3F00030010E5FF1F1C
:104D30004B00030064000300880003007949000071
:104D4000A3000300B1000300C80003009B0103009F
:104D50000892FF1F2DE9F04F95B05B4B19784FF08B
:104D6000FF3202EBC11202F1010A083222F00702FF
:104D700002AFE946ADEB020D544A117802AC9B46F6
:104D800021B90A4607F048F9F82295E0042940F0D5
:104D90008E80DFF868814E4ED8F800301C2B4546D7
:104DA00019D023F01002202A15D0402B13D04948E7
:104DB00004F088F847494848FBF769FBD8F8001029
:104DC0004548FBF778FB012004F0DEFA0021C8F823
:104DD0000010306866E0DFF8288198F8001098F835
:104DE0000120009330683D4B07F07CF93A4827F0EA
:104DF000D7F82A683A49384827F0E2F8364827F0C9
:104E0000CFF83068296802F0DBF8364B3668242288
:104E10001A7031462A687B6007F108001BF0CEFF4C
:104E2000304600214FF4806229F034FE28682E4D70
:104E300007F108012246FFF75FFE7B680646F0B9DE
:104E4000F6222A4924481A70FBF719FB20465146DE
:104E500002F0B6F898F802209BF800102A70012A98
:104E600020464FEAC11103D1134603F0CFFD0BE0FA
:104E70003246334603F0CAFD04F06EFB04E0002224
:104E80001B481A7004F01EF8552004F07DFA2046E5
:104E90000021524629F0FEFD2B78012B0ED0154B38
:104EA000186800214FF4806229F0F4FD06E00A48FA
:104EB0001149FBF7ECFA23220A4B1A704C37CD4606
:104EC000BD46BDE8F08F00BF0892FF1F0CBAFF1F60
:104ED000B88CFF1FE800030010E5FF1F1091FF1FB3
:104EE00011010300E1B9FF1FE4B9FF1F2A0103000C
:104EF00037010300A88CFF1F4E01030058BAFF1FA3
:104F0000A59BFF1F2DE9F0438FB00EAC002544F8A0
:104F1000285D064688466E486E49174627F050F8C9
:104F200021466D4C6A48FFF73AFD29462A4620463D
:104F300011F0D9FD05A810F094F9684D08A810F0FB
:104F400090F90BA810F08DF92B7804F11400DB0117
:104F50004FF00111636010F0F7F90490002862D15E
:104F60002A78DFF8949104F12C004946920110F060
:104F700046FA0490002856D12A78920104F13800AC
:104F800009EB020110F03BFA049000284BD104F128
:104F9000080004F12C0104F1380210F008FD04901F
:104FA000002840D105A804F12C01012210F0E9FCF1
:104FB0000490002837D108A804F13801012210F02C
:104FC000E0FC049078BB0BA805A908AA10F0EFFC40
:104FD000049040BB04F1200004F114010BAA11F06D
:104FE0001BFA0490F8B904F1440004F1200105AA69
:104FF00010F01AFF0490B0B904F1500004F1200140
:1050000008AA10F011FF049068B904F15C0004F1E3
:10501000380104F12C0211F0FFF9049018B92C4862
:105020006168FFF7B0FC05A810F022F908A810F09D
:105030001FF90BA810F01CF92949254826F0C0FFDC
:1050400061682348FFF79FFC234811F085FD049019
:1050500050B124491E48FBF712FA1D480499FBF78A
:105060002AFA214803F02EFF049C84B91F491848EE
:10507000FBF705FA4FF4007303938DE840010297A4
:10508000154821462246012312F06AF8049012487E
:1050900012F0B0F9049C0E4854B91549FBF7F7F922
:1050A0000B4831680A22234626F097FF20460BE082
:1050B0000C49FBF7E4F904990548FBF7FCF90D48A6
:1050C00003F000FF4FF0FF300FB0BDE8F08300BFEA
:1050D00010E5FF1F7A0103000C92FF1F0892FF1FCB
:1050E0003F000300C80003006400030088010300C0
:1050F000B100030095010300D892FF1F2DE9F04F86
:1051000085B0574B02AF197800257D6021B90A465A
:1051100006F082FFF9229DE0042940F09680514C70
:10512000DFF874B123689BF800204F4EB3EBC21F29
:10513000EA4611D04D4803F0C5FE4C494C48FBF7F8
:10514000A6F921684A48FBF7B6F9012004F01CF9DA
:1051500025603068294672E0DFF84081DFF834913D
:1051600098F8001098F8012000933068414B06F041
:10517000B9FF3F4826F014FF22683F493C4826F01B
:105180001FFF3B4826F00CFF3068216801F018FF34
:10519000242389F800309BF800303668AAEBC3124C
:1051A00095460DF1080B31462268344C58461BF0E9
:1051B00005FE304629464FF4806229F06BFC5946C3
:1051C000381D22682E4EFFF79DFE834650BBF62306
:1051D000274889F8003026F0E3FE2A492448FBF7E7
:1051E0004EF979682248FFF7CEFB27492048FBF7A4
:1051F00046F97968206801F0E3FE1D4826F0D0FEEC
:1052000098F802203270012A2068796803D1134689
:1052100003F0FCFB0BE05A465B4603F0F7FB04F09F
:105220009BF904E0194889F8005003F04BFE552023
:1052300004F0AAF83378012B05D0206800214FF440
:10524000806229F027FCD54606E009481049FBF7A3
:105250001EF923220F4B1A700C37BD46BDE8F08FA4
:105260000CBAFF1F58BAFF1FB88CFF1FC401030000
:1052700010E5FF1F1091FF1FF0010300A88CFF1F16
:10528000E4B9FF1F0C0203001D0203002A02030001
:105290004E010300E1B9FF1F0892FF1FA59BFF1FEE
:1052A000F0B52349234F8BB005462348FBF7E7F8B9
:1052B00001A80FF0D6FF2DB204A80FF0D2FFAE0167
:1052C00007A80FF0CEFF01A83946324610F097F834
:1052D000044698B904A8B919324610F090F804466B
:1052E00060B907A801A904AA10F061FB044628B917
:1052F00007A81249EA0110F0BCF8044601A80FF013
:10530000B7FF04A80FF0B4FF07A80FF0B1FF14B95E
:1053100009480B4904E00B4803F0D4FD06480A494C
:10532000FBF7ADF80548E90101F04AFE0BB0F0BD0E
:1053300044020300D892FF1F10E5FF1F7496FF1F61
:105340005B0203006F0203008D0203002DE9F043AE
:105350008FB00EAC002544F8285D80460F466048AB
:105360006049164626F02CFE21465F4C5C48FFF74C
:1053700016FB29462A46204611F0B5FB05A80FF07A
:1053800070FF5A4D08A80FF06CFF0BA80FF069FFD3
:105390002B7804F11400DB014FF0011163600FF072
:1053A000D3FF0490002862D12A78DFF8549104F1E9
:1053B0002C004946920110F022F80490002856D1A2
:1053C0002A78920104F1380009EB020110F017F875
:1053D000049000284BD104F1080004F12C0104F1E1
:1053E000380210F0E4FA0490002840D105A804F136
:1053F0002C01012210F0C5FA0490002837D108A82A
:1054000004F13801012210F0BCFA049078BB0BA81B
:1054100005A908AA10F0CBFA049040BB04F12000C3
:1054200004F114010BAA10F0F7FF0490F8B904F18D
:10543000440004F1200105AA10F0F6FC0490B0B974
:1054400004F1500004F1200108AA10F0EDFC0490D2
:1054500068B904F15C0004F1380104F12C0210F089
:10546000DBFF049018B91E486168FFF78CFA05A8A5
:105470000FF0FEFE08A80FF0FBFE0BA80FF0F8FEE1
:105480001B49174826F09CFD61681548FFF77BFA19
:10549000154811F035FB0246049008B1104814E09D
:1054A0001449CDF800801346019702960E4811F07A
:1054B000E1FD04900C4811F09DFF049C084824B9BC
:1054C0000D49FAF7DCFF204607E00C49FAF7D7FF51
:1054D00003480499FAF7EFFF04980FB0BDE8F08392
:1054E00010E5FF1FA9020300C895FF1F0892FF1FC8
:1054F0003F00030079490000B1000300C800030029
:10550000D892FF1F084100F001007047F0B5002558
:10551000ECB20B1B0444DBB2E4B29C4205F1010582
:1055200004D2165DD75C1755D654F1E7F0BDFFFFE6
:1055300008B519480021412229F0ACFA174B1B7815
:10554000012B04D1144816490CF004F91AE0022B7F
:1055500002D10EF019F803E0032B07D10EF018F872
:1055600002460D490E480EF01AF90BE0042B09D142
:1055700000201F210A4AFFF7C9FF074808490022F7
:105580000AF0D0F907490848FAF781FF024841219B
:10559000BDE8084001F014BD8495FF1F0892FF1F6D
:1055A000B892FF1FB702030010E5FF1F38B5184C73
:1055B0000546407906F0E0FD2378012B05D1AB7953
:1055C000042B02D12370FFF7B3FF12491248FAF7F8
:1055D0005EFF1248412101F0F3FC2378042B04D034
:1055E000012B14BF4021202100E02021012213467D
:1055F0000A4803F00BFA00214022084829F04AFA31
:10560000074800212022BDE8384029F043BA00BFF6
:105610000892FF1FC702030010E5FF1F8495FF1FBC
:10562000B892FF1F38B505462C460AF083FC044BA0
:1056300044F8783B20460BF001FE6C60284638BDEC
:10564000A0FF02002DE9F04FADF5097D02AF044641
:1056500007F1A0009A46F96090460BF08FFB07F126
:10566000A0000BF035FB073020F00700ADEB000D7C
:1056700007F1A0000BF02CFB07F58C76BAFBF0FBD2
:1056800000213046FF2229F005FA02AD4FF0000953
:105690009F4B4B441B79022B28D19E499E48FAF719
:1056A000EEFE4946304601F08BFC07F13000FCF776
:1056B00015FC4A4607F130003146FCF739FC07F18A
:1056C00030003146FCF755FC94499348FAF7D7FE71
:1056D0003046202101F074FC84B9214607F1100006
:1056E000212229F0D7F907F1100407E0B9F1FF0FE3
:1056F000D3D006F8093009F10109C9E7884986487D
:10570000FAF7BDFE2046212101F05AFC214607F19F
:10571000A00021220BF0B1FCF968202207F1A000C3
:105720000BF01AFC07F1A0000BF0D2FA214621225F
:1057300000902B4607F1A0000BF0B8FC07F1A00089
:105740000BF0C6FA00F1210300F12009283020F007
:105750000700ADEB000D02ACFB60012304F809303B
:1057600007F1A0000BF0B4FA07F59C7E221833462F
:1057700003CB7345106051601E4602F10802F6D15A
:1057800007F1A0000BF0A4FA2946024607F1A00099
:105790000BF073FC07F1A0000BF09AFA21222118FC
:1057A00007F1A0000BF0D8FB07F1A0000BF090FA76
:1057B000064607F1A0000BF08BFA3246294600900E
:1057C000434607F1A0000BF071FC14F809300133D7
:1057D00004F8093007F1A0000BF07AFA41460246BE
:1057E00020461BF0EBFA01265E4507F1A0003DDAEA
:1057F0000BF06EFA2946024607F1A0000BF03DFCC3
:105800002146FA6807F1A0000BF0A6FB07F1A00003
:105810000BF05EFA024607F1A0007A600BF058FA2E
:1058200006FB008307F1A000BB600BF051FA00906B
:105830007A68BB68294607F1A0000BF037FC14F822
:105840000930013304F8093007F1A0000BF040FAE9
:1058500006FB008107F1A000B9600BF039FAB968C6
:10586000024620461BF0AAFA0136BDE70BF030FADB
:10587000BAFBF0F303FB10A000283CD007F1A00016
:105880000BF026FA073020F00700E946ADEB000DDB
:1058900007F1A0000BF01CFA0BFB10AA07F1A00007
:1058A0000BF016FA2946024607F1A0000BF0E5FBC3
:1058B0002146FA6807F1A0000BF04EFB07F1A000AB
:1058C0000BF006FA044607F1A0000BF001FA02AE55
:1058D000009029462246334607F1A0000BF0E6FB74
:1058E00007F1A0000BF0F4F931460BFB00805246A3
:1058F0001BF064FACD4607F1A0000BF019FA07F18E
:10590000A0000BF021FA07F50777BD46BDE8F08F40
:10591000289CFF1FEE02030010E5FF1FF3020300A7
:10592000FD02030070B506469CB00D461446F2B960
:10593000842006F021FC21464122244829F0AAF8BF
:105940006846FCF7CBFA684621492022FCF7F0FABA
:10595000202268462946FCF7EBFA1D496846FCF709
:1059600008FB1C4826F01CFB1A481B4922E0802A31
:1059700026D1104606F000FC164826F011FB174908
:105980001448FAF784FD1248202101F019FB14494C
:105990001048FAF77CFD2846212101F011FB0C4943
:1059A00028460A462023FFF74DFE0A4826F0F8FA5B
:1059B00008480C49FAF76BFD0548202101F000FB6F
:1059C000094B1E70FFF7B4FD1CB070BD8495FF1F1E
:1059D000B892FF1F10E5FF1F020303001F0303001F
:1059E000320303003D0303000892FF1F10B5044675
:1059F000174826F0D5FA16481649FAF748FD607997
:105A0000042809D8A3794BB906F038FCF8B1204630
:105A1000BDE81040FFF708B8742807D806F0ACFBC3
:105A2000A8B12046BDE81040FFF7C0BD84280ED1C4
:105A3000A07904280BD8E11D0022FFF773FF002294
:105A4000054840211346BDE8104002F0DFBF10BDFD
:105A500010E5FF1F460303008495FF1F2DE9F04367
:105A6000814D824E824C2B6872783178F1B00746B6
:105A7000009320687F4B06F035FB7F4826F090FAB4
:105A80007E497D48FAF7FBFC29687B48FAF713FD4D
:105A90002068296801F094FA4EA80021882228F095
:105AA000F9FF774B4E93774B4F93774B5093787921
:105AB0004023519320235293C8282EAB5393B146D1
:105AC00032D9C92804D1296823682039012005E08A
:105AD000CA2806D1296823682039022019440022E7
