:1000000000800020BD010000B5770200817702006A
:1000100081770200817702008177020081770200F8
:10002000817702008177020081770200B5770200B4
:10003000B577020081770200B57702007177020080
:10004000B5770200B5770200B5770200B5770200F8
:10005000B5770200B5770200B5770200B5770200E8
:10006000B5770200B5770200B5770200B5770200D8
:10007000B5770200B5770200B5770200B5770200C8
:10008000B5770200B5770200B5770200B5770200B8
:10009000B5770200B5770200B5770200B5770200A8
:1000A000B5770200B5770200B5770200B577020098
:1000B000B5770200B5770200B5770200B577020088
:1000C000B5770200B5770200B5770200B577020078
:1000D000B5770200B5770200B5770200B577020068
:1000E000B5770200B5770200B5770200B577020058
:1000F000B5770200B5770200B5770200B577020048
:10010000B5770200B5770200B5770200B577020037
:10011000B5770200B5770200B5770200B577020027
:10012000B5770200B5770200B5770200B577020017
:10013000B5770200B5770200B5770200B577020007
:10014000B5770200B5770200B5770200B5770200F7
:10015000B5770200B5770200B5770200B5770200E7
:10016000B577020059610200B5770200B577020049
:10017000B5770200B5770200B5770200B5770200C7
:10018000B5770200B5770200B5770200B5770200B7
:10019000B5770200B5770200B5770200B5770200A7
:1001A000B5770200B5770200B5770200B577020097
:1001B000B5770200B5770200B5770200564B4CF2D6
:1001C000205210B51A804DF628121A8000BF00BFC9
:1001D00027F0F4FA514B4FF010621A60504A9A60BF
:1001E000504ADA60A3F53043203B1A6812F480725B
:1001F00004D14D490A604FF4A8521A604B4B1A784B
:10020000110703D51A7842F008021A70484B2A22C7
:100210001A700023474A48499818884204D247492F
:10022000595899500433F5E7454A464B9A424FF0E6
:10023000000302D242F8043BF7E74349434A5958C6
:1002400099500433B3F5DE7FF7D1414B802103F899
:10025000011B40498B42F9D13F4B1A603F4B0A22A8
:100260001A70A3F5805324225A70A0221A709A792A
:100270009207FCD59A79D406FCD4394B9A7902F0CE
:100280000C02082AF9D105221A7143225A719A796F
:100290009006FCD5324B9A795106FBD5314A4FF086
:1002A000817111600521516020221A702C4B9B79BD
:1002B00003F00C030C2BF9D12B4B2C4A1A602C4B5E
:1002C0002C4A1A6000225A60072243F8042C2A4A5A
:1002D000C3F80C2D62B626F033FD134B1B68DA070A
:1002E00005D5264826F0B8FB254B264A1A60264B32
:1002F0001B785B0609D5224C224A2368934204D11D
:100300001E4826F0A9FB0023236029F0DBFE27F01E
:100310005BFA28F0E8F9FEE70E2005403080044043
:10032000823F04000100002B14D0034002D007409C
:1003300000E00740708CFF1FEC8EFF1F7832030037
:10034000F08EFF1FA8000020000000000082FF1FA9
:1003500000E400E05FE400E008ED00E0005006404B
:10036000004006404480044004800440C010050062
:1003700014E000E03F19010000002020013DB56AB3
:100380001CE00340A5C3945A00F00740FFFFFFFFA5
:10039000FFFFFFFFFFFFFFFFFFFFFFFFFFFFFFFF6D
:1003A000FFFFFFFFFFFFFFFFFFFFFFFFFFFFFFFF5D
:1003B000FFFFFFFFFFFFFFFFFFFFFFFFFFFFFFFF4D
:1003C000FFFFFFFFFFFFFFFFFFFFFFFFFFFFFFFF3D
:1003D000FFFFFFFFFFFFFFFFFFFFFFFFFFFFFFFF2D
:1003E000FFFFFFFFFFFFFFFFFFFFFFFFFFFFFFFF1D
:1003F000FFFFFFFFFFFFFFFFFFFFFFFFFFFFFFFF0D
:10040000FFFFFFFFFFFFFFFFFFFFFFFFFEFFFFFFFD
:1004100010B5054C237833B9044B13B10448AFF33E
:1004200000800123237010BDF08EFF1F000000002C
:100430007832030008B5064B1BB106480649AFF3F6
:1004400000800648036813B1054B03B1984708BD07
:100450000000000078320300F48EFF1FEC8EFF1FB7
:100460000000000038B5044608460D462AF03CF965
:10047000236802465B6820462946984738BD08B580
:10048000FFF7F0FF08BD0A22002328F062B938B553
:100490000446FFF7E7FF0546204628F03DF92844CB
:1004A00038BD38B50446FFF7EEFF0546204628F074
:1004B00033F9284438BD38B5044628F082F905469A
:1004C000204628F029F9284438BD70474FF0FF3006
:1004D0007047FFFF08B5C82026F01CFC074A002320
:1004E000137053709370D37013715371044A137067
:1004F000044A1370BDE8084027F050BB4C000020B0
:100500005200002053000020F8B51A4B1A481B4E29
:100510001B4F00251D701B4B01241C7001F05CFE5D
:10052000194B1A481C602022294629F02BFE08236B
:10053000337027F033FB0F233B7027F02FFBFFF7BF
:10054000C9FF347027F02AFB0923337027F026FBFC
:1005500014233B7027F022FB4FF4FA7026F0DAFBED
:100560000B4B1D7027F01AFBFFF7B4FF094B0A4A2B
:100570001A60F8BD24B6FF1F5CA8FF1F52000020C0
:100580004C000020808CFF1F848CFF1F1091FF1FE8
:10059000530000200CED00E00400FA052DE9F04FB7
:1005A000A74C9FB0002305460DF10F00237002F009
:1005B0009BFDA44B1B7823B99DF80F3003F00F036C
:1005C00005E0012B08D19DF80F301B090C339D422B
:1005D00002D1FFF799FF28E39B4E2946304602F0EF
:1005E0000FFD317811B9304602F00AFD337813B9A6
:1005F000954B04221A7029460DF10E0003F046FDBA
:1006000092499348FFF743FF91489DF80E10FFF77A
:1006100048FF9DF80E80C8F3C0038DF80E308D4B57
:100620001E78002E40F001838B498948DFF86492E0
:10063000FFF725FF894B864819683039FFF73BFFE4
:10064000314640220EA829F09DFD3146FB22484646
:1006500029F098FD0EA8294608F046FD071E41DD49
:100660007F497B48FFF713FF7E497948FFF707FF73
:1006700039467748FFF71FFF7B497548FFF707FFAB
:100680000EA8394607F00EFD784B00970EA8E9B288
:100690000F220DF059F89DF83830082B0AD1013F90
:1006A0000DF1390049463A4623780FF0ABFE01269A
:1006B000277017E00EA849463A4623780FF0A2FEAD
:1006C000FBB2022209F80320694961487B1C2370B0
:1006D000FFF7DDFE0EA8394607F0E4FC5C486549EB
:1006E000FFF7D5FE002140220EA829F04BFD0EA8F1
:1006F000294603F057FD9DF83870C8F3800AFFB112
:10070000002E32D15C495248FFF7C1FE5B49504888
:10071000FFF7B5FE9DF838104D48FFF7B4FE4C4882
:100720005749FFF7B4FE9DF838701E2F00F277820C
:10073000237807F10A0209F80320013323706FE2DE
:10074000BAF1000F13D09EB937464E494048FFF723
:100750009EFE23783E484C49012209F80320FFF70A
:1007600096FE23780133237002E0002700E057460D
:100770000EA8294608F03CFEB0F1000925DD4349EA
:100780003348FFF784FE42493148FFF778FE494677
:100790002F48FFF790FE49460EA807F083FCCDF8DE
:1007A00000900EA8E9B20222304B0CF0CDFF4A4671
:1007B000237838490EA80FF025FE49460EA807F009
:1007C00071FC2378994484F800900EA800214022FF
:1007D00008F0030929F0D6FCDFF8B8B0B9F1000F32
:1007E0001ED0EEB9B9F1010F09D12B491848FFF716
:1007F0004EFE237816480BF8039023490BE0B9F11D
:10080000020F0DD124491248FFF741FE237810480A
:100810000BF803902149FFF73AFE23780133237048
:10082000002140220EA829F0ADFC0EA8294603F0B5
:1008300045FD9DF838309BBB4FF0000A4FE000BFEC
:10084000348FFF1F45B6FF1FB58CFF1FB7CB0200CB
:100850007C0000208AA8FF1FBAE20200A4D6FF1F76
:10086000AAAE0200C4AE0200D2AE02001091FF1F79
:10087000DCAE0200E8AE020001AF02001FAF0200D2
:1008800026AF020048AF02006BAF02006FAF02005C
:100890008EAF0200508FFF1FA1AF0200C3AF020056
:1008A000002EC9D190499148FFF7F1FD90498F483A
:1008B000FFF7E5FD9DF838108C48FFF7E4FD8B4805
:1008C0008C49FFF7E4FD9DF838A0BAF11E0FB3D8AC
:1008D00023780AF10A020BF80320013323700EA8D3
:1008E000294603F005F9B0F100092DDD82497F4862
:1008F000FFF7CDFD81497D48FFF7C1FD49467B48A3
:10090000FFF7D9FD7E497948FFF7C1FD49460EA89A
:1009100007F0C8FBCDF800900EA8E9B20522794B8C
:100920000CF012FF4A46237877490EA80FF06AFDB3
:1009300076496E48FFF7ABFD49460EA807F0B2FBBB
:100940002378994484F800900EA800214022C8F32F
:10095000011929F017FCDFF8B0B1B9F1000F1AD076
:10096000CEB962486A49FFF792FDB9F1010F05D18E
:1009700023785E480BF80390664907E0B9F1020F4F
:1009800009D1237859480BF803906349FFF77FFD9D
:10099000237801332370002140220EA829F0F2FBB6
:1009A0000EA8294603F016FD9DF8383013B94FF014
:1009B00000091EE0002EFAD158494C48FFF767FDA8
:1009C0004B494A48FFF75BFD9DF838104748FFF751
:1009D0005AFD46485249FFF75AFD9DF83890B9F143
:1009E0001E0FE4D8237809F10A020BF80320013323
:1009F00023700EA80021402229F0C4FB9DF80E3080
:100A00007BB176B947493948FFF741FD237837482C
:100A1000404901220BF80320FFF739FD2378013309
:100A200023700EA8294603F091FD9DF83830002B65
:100A300000F0C280672B40F091803B492B48DFF8E3
:100A4000C8B0FFF724FD29460EA808F063FE2C4924
:100A500006462648FFF71BFD31460EA807F022FB8D
:100A600032492248FFF70BFD31462048FFF723FDAE
:100A700000960EA8E9B20922224B0CF065FE2378FD
:100A800032460EA859460FF0BDFC20491748FFF723
:100A9000FEFC31460EA807F005FB32460EA904A85D
:100AA00002F06CF802F074F938448244D1444946AB
:100AB0000E4827F086FE0D4827F02EFE494604A872
:100AC00002F060F8064602F0D9F9237880BB4E2286
:100AD0000BF803205B444F2253215A70D9705422E3
:100AE00045219A70197130E0CAAF02007C000020E5
:100AF0001FAF0200E8AF02000AB002002AB00200F5
:100B0000D2AE02001091FF1F508FFF1FDCAE02001B
:100B10003DB002006BAF0200C3AF02005FB0020045
:100B20007DB002009AB00200B8B00200D7B0020057
:100B300032780BF803205B4472785A70B2789A705E
:100B4000F278DA7032791A7172795A7123780EA8B4
:100B5000063300214022237029F014FB9DF8383021
:100B6000334E792B0BD133493348FFF790FC207873
:100B7000002130440DF0D4FC23782C3323709DF8F1
:100B80003830322B01D0592B0DD12C492A48FFF790
:100B90007EFC2078E9B230440DF0C2FC237820338B
:100BA00003EB400020709DF83830752B04D123787A
:100BB0000922F254013323705FEAD8131C4D0DD083
:100BC0001F491D48FFF763FC23781B481D4901227C
:100BD000EA54FFF75CFC23780133237018F0400FD0
:100BE0000DD017491448FFF752FC237812481649D4
:100BF0000222EA54FFF74BFC237801332370237859
:100C00000D481249124C0022EA54FFF740FC14F838
:100C1000011F51B1084803681B689847F7E737463A
:100C2000BAF1000F7FF491ADA2E51FB0BDE8F08FDF
:100C3000508FFF1FEAB002007C0000200AB10200C2
:100C400023B102006BAF0200C3AF020040B102004B
:100C50004F8FFF1F0A4B1A780A4B18681AB90A4AB5
:100C60005278022A01D1243807E0012A01D12A381A
:100C700003E0032A0CBF1E383038FFF78FBC00BFDB
:100C800045B6FF1FA4D6FF1F47D7FF1F0D4B1A788D
:100C90000D4B18681AB90D4A5278022A01D124382E
:100CA00007E0012A01D12A3803E0032A0CBF1E38CD
:100CB0003038074B1B78092B0CBF03300630FFF789
:100CC0006DBC00BF45B6FF1FA4D6FF1F47D7FF1F4F
:100CD000B48CFF1F10B5464B1B6804461878A0F172
:100CE0003103082B06D84FF47A733038584326F076
:100CF00011F842E074285CD072285ED03D4B1B781E
:100D0000002B3AD01CB126F0E7FF002435E0702814
:100D100032D0682855D0752855D06F2855D0652811
:100D200055D0642855D0622855D04C2855D052282B
:100D300055D0552855D0442855D0452855D063283E
:100D400004D12D4B1A7842F0010213E0732804D12C
:100D5000294B1A7842F002020CE0612804D1264B9C
:100D60001A7842F0040205E0672806D1224B1A786F
:100D700042F008021A7000E04624204B1A780AB9A3
:100D80001C7012E05A780AB95C700EE09A780AB9C1
:100D90009C700AE0DA780AB9DC7006E01A790AB9C0
:100DA0001C7102E05A7902B95C71BDE8104026F06E
:100DB000F5BE002CA7D12B24DFE7002CA3D12824DB
:100DC000DBE74A24D9E74B24D7E74E24D5E74D2467
:100DD000D3E74C24D1E72A24CFE75024CDE74F2492
:100DE000CBE75224C9E75124C7E72924C5E700BF50
:100DF0004C90FF1F30B6FF1F520000204C00002017
:100E00002DE9F041624B634A1B781078624C4BB17C
:100E1000AA2807D121680A7822B1092A02D0013113
:100E20002160F3E721685D4E0D783778DFF868813F
:100E3000B5B95B48FFF723FB5A485B4901F0F0F86E
:100E400058485A4901F01DF93046294602F0D8F8B1
:100E50003378002B40F09A8004233370BDE8F08192
:100E600017FB07F7032697FBF6F6012D4FEAC60698
:100E70004FEA470704D1002B77D14FF22B006AE0ED
:100E8000022D04D1002B70D14FF2280063E0092D10
:100E900015D143484649474CFFF7F9FA012323602F
:100EA000454B1E681D4606F57A662268002A61D009
:100EB0002B68B3425ED200200EF076FCF5E7A5F178
:100EC0000A02D0B215280DD8002B5FD14FF47A70EA
:100ED000504325F01FFFD8F800300133C8F8003028
:100EE000BDE8F081202D34D14A785C2A31D101311E
:100EF000C8F800109BB1BDE8F0815C2B14D1264BE3
:100F000001321A600020FFF7E5FE304625F002FFAF
:100F100023685A1C22605A78202A07D04AB12268D6
:100F20001378002BE9D112E00120ECE71A4A0233D2
:100F3000136026F01DFF304625F0ECFE26F018FF6A
:100F4000FFF7C8FA3846BDE8F04125F0E3BEBDE83A
:100F5000F08153B9284626F0BFFE304625F0DAFE70
:100F600026F006FF384625F0D5FE236801332360BE
:100F7000BDE8F08100230B480B49236001F050F8D5
:100F800008480A49BDE8F04101F07BB8BDE8F081AE
:100F90008AA8FF1F44B6FF1F4C90FF1FB58CFF1F90
:100FA0007C0000208490FF1F388FFF1F0C8FFF1FD5
:100FB0005AB1020008D8FF1F54FEFF1F08B50748AA
:100FC0000749FFF75CFA074809F020F8064B0122B1
:100FD00005201A7009F062F9F5E700BF7C000020D7
:100FE00070B102006AB1020044B6FF1F2DE9F74F4D
:100FF000A74F3B7804465BB9A64B1B78092B05D15C
:10100000142803DDA44B1A6803321A602D2000E077
:10101000002009F0F9F8A14B1A68022A984601DD70
:10102000FFF7CCFF9E4E3368013333609D4B1A7837
:10103000002A48D0684602F071F89DF800301BB3D2
:1010400001A802F05EF89DF80430132B0DD900239F
:101050009548FF221A540133202BF9D10BF0CCFB19
:1010600002A8002300F8013D03E001338DF80430AD
:1010700001A802F04EF88D498D48FFF708FA8C4818
:101080009DF80410FFF70DFA8A4B1A6801321A60B6
:101090009DF8003032680133DBB201320A2B8DF843
:1010A0000030326009D984498148FFF7F0F99DF892
:1010B00000107F48FFF7F5F939E0684602F036F88E
:1010C000784A00231370DFF8ECB1DFF8CCA1DBF82D
:1010D00000209AF8001079480132CBF8002001F086
:1010E0006EF8326801323260754A12680323B2FB2F
:1010F000F3F101EB4101501A1A40104425F00AFEA9
:101100003A785546D946002A60D16C4801F07EF8FD
:1011100000285BD1694801F029FA002856D16748B8
:1011200001F060FB30B162486649FFF7B0F908F0A2
:10113000AFFFADE2644CDBF8002023680132092BDD
:10114000CBF8002015DC61495948FFF798F9DAF827
:10115000001057483039FFF7AEF95D495448FFF7A2
:101160008EF953482168FFF7A6F9236801332360FD
:101170008EE24C4B01251D70D8F800302B44C8F886
:101180000030544B03201D7009F088F8524948483C
:10119000FFF775F9684601F0C1FF9DF8001044485B
:1011A000C1F10A0127F00DFB4C494148FFF76FF9E7
:1011B0004B493F48FFF76BF9404801F00DF8D8F86C
:1011C00000302560022B40F3638229E7D9F8003014
:1011D00097F800B00133C9F80030BBF1000F43D1DC
:1011E00002AC04F801BD204601F0A0FF334800F036
:1011F000F3FF3C4BC8F800B01A781E4622B93A48B3
:101200000EF0ECF908F002FF38483949314D00F092
:1012100007FF38492648FFF73AF9287808F082FC9A
:10122000552009F081F91EF043FA00232046324C84
:101230008DF8073001F06DFF0FF0EEF82F4B2268AC
:101240001A6033780120387013B1287008F06AFCF6
:101250002568C8352368AB4203D200200EF0A4FAFB
:10126000F8E724F037FE13E2254B1B682BB9254B1A
:101270001B68002B00F00C8261E0032B02DC0C48A1
:10128000124947E0062B41DC09481F4942E000BFF4
:1012900024B6FF1FB48CFF1FA4D6FF1F4C8FFF1F67
:1012A0008890FF1F808CFF1FB090FF1FCAB1020003
:1012B0007C0000208C90FF1F06B202005CA8FF1F7C
:1012C00000B6FF1F51B30200848CFF1F42B2020020
:1012D0006BB3020044B6FF1F97B30200B0B3020025
:1012E000E6B302004CB7FF1F22B202008490FF1F3A
:1012F000208FFF1F36B2020054FEFF1FD4B6FF1F1F
:1013000040B6FF1FA0D6FF1F3FB20200092B16DC1C
:1013100094489549FFF7B3F8296892483039FFF7A8
:10132000CAF8924B1B78002B00F0B281904C2D2311
:101330000120237008F0B2FF01232370A8E1DFF839
:10134000A4B28C498748DFF8A082DFF8A0A200236E
:101350008BF80030FFF793F8296882483039FFF79F
:10136000AAF8854B1968854B196098F80030012B55
:10137000C3460BD182490878DAF80010814228D19F
:101380008049097829B377487F490CE0022B18D1AE
:101390007E490878DAF8001081421AD17949097833
:1013A000B9B170487A49FFF76AF8DAF800106D4869
:1013B0003039FFF780F898F80030013388F80030B2
:1013C00066E1032B05D17349DAF8002009788A42D7
:1013D00004D0714A1278012A06D173B1694A127891
:1013E00012B16E4A12787AB9032B06D16B4A127881
:1013F000F52A02D1634A127832B9684A1278F62A7D
:1014000011D1604A127872B165495648FFF737F832
:10141000296854483039FFF74EF804238BF8003020
:101420000EF0BEFC34E1F3B15B4B554A1D78554BD1
:101430001C7800231370554A8BF800301370554AFE
:101440000120137009F070F80CB9564803E0012D23
:101450000CBF5548554808F0D9FD554BFF21187869
:1014600025F054FB14E1A4F148036B2B10D82B6832
:10147000312B0DD1434B1B7853B94E484E4900F0E8
:10148000CFFD0DF075F84B484B4900F0FAFDFFE039
:101490004A4B1A78092A0BD1B4F5B47F08DB2B68C4
:1014A000322B08D1314B1B782BB108F0F1FDC2E093
:1014B000472C40F3C0802B68322B0DD1314909787D
:1014C000002949D1012008F0EFFC8B2C40F3E0808B
:1014D000012008F033FCDBE0332B3DD129490978AA
:1014E000002939D1092A1FD1B32C1DDC344B5A787D
:1014F00022B9344A54211170012205E0012A05D194
:10150000304AD621117002225A70C1E0022A04D159
:101510002C4A802111700322F6E7032A40F0B8809C
:10152000284A59701170B3E0274A28480024012640
:1015300016703C7000F050FE254B26481E6020229D
:10154000214628F01FFE1B48234900F09AFD234B3B
:10155000234A2C601A609BE0092A49D1B32C6ADD2A
:10156000312B48E07C0000205AB202004CB7FF1F2C
:1015700044B6FF1F7EB2020054FEFF1FD4B6FF1F09
:101580009CD6FF1F8AA8FF1F8FB2020078A8FF1FFA
:10159000A2B2020089A8FF1F8DB6FF1F30D1FF1F26
:1015A000B5B20200C8B2020007B302002BB30200BA
:1015B0008CB6FF1F8490FF1F0C8FFF1FB48CFF1F82
:1015C00047D7FF1F38B7FF1F808CFF1F5CA8FF1F86
:1015D000848CFF1F1091FF1F208FFF1F0CED00E078
:1015E0000400FA05508FFF1F46D7FF1FA4D6FF1F28
:1015F000472C20DD362B1ED1274B1B78DBB93268F8
:1016000001323260254A01241470254A1278A24220
:101610000BD03B70234B24481C7000F0DDFD234BA6
:10162000234824491C6000F02CFDD9F80030013318
:10163000C9F800302CE0002008F0E6FD142C05DC91
:10164000164B1B7813B9FFF705FB14E0A4F1150343
:10165000442B05D8114B1B786BB9FFF717FB0AE039
:10166000592C08DD0D4B1B782BB9134B012202209E
:101670001A7008F013FE114B114A0D4811491A60F7
:1016800000F0CEFC104B0A4810491A7800F0DAFC42
:1016900003B0BDE8F08F00BF8AA8FF1F4CB7FF1F43
:1016A00047D7FF1F808CFF1F5CA8FF1F848CFF1F84
:1016B0008490FF1F208FFF1F44B6FF1F4C90FF1F19
:1016C000508FFF1F0C8FFF1FB58CFF1F388FFF1F20
:1016D000F8B5212025F0F0F9E8B94F4B1D68044614
:1016E0001E46326840F6B733521B9A4207D8642030
:1016F00025F010FB212025F0DFF90444F1E754B96F
:101700002046012126F040FD0120014626F03CFD47
:10171000424B434A1A60434B434D1B7A012B0DD178
:10172000424B1B780BB12B7843B1414B1B78032BF9
:1017300002D0032006F082FC0EF084FB3D4B3E4CB1
:101740001A6801321A603D4B1A680623B2FBF3F0A7
:1017500003FB102025F0DEFA2278394B22B31A68F9
:10176000002001321A600EF01FF8364B1B782BB1A7
:10177000354B1B78042B01D10EF012FB334B1B7839
:10178000ABB1334B1B6893B108F060F9314B1B7858
:101790006BB1214A1168304A12688A1A4EF66021EC
:1017A0004B439A4221D202E01A6801321A602B7828
:1017B0004BB123783BB11D4B1B7823B9274B01203C
:1017C000187008F0AFF909F08BFB254A12780A323D
:1017D000D2B2012A04D82D20BDE8F84008F014BD8B
:1017E000C8B1BDE8F840FFF701BC1E4B1E480026FB
:1017F00001271F70267000F0EFFC1C4B1C481F6077
:101800002022314628F0BEFC1A481B4900F039FC62
:10181000034A024BCAE7F8BD54FEFF1F0CED00E07F
:101820000400FA0514D1FF1F4CB7FF1F8AA8FF1F41
:1018300020B6FF1F8890FF1F24B6FF1F00B6FF1FB2
:101840008C90FF1F36D1FF1F46D7FF1F88A8FF1FB0
:10185000A0D6FF1FA58CFF1FD4B6FF1F44B6FF1FE5
:10186000BCA8FF1F808CFF1F5CA8FF1F848CFF1F7C
:101870001091FF1F8490FF1F208FFF1FF8B51E4F90
:101880003B78092B30D11D4C0021204626F058FE14
:1018900040B32379E12B25D163792F2B22D9184B23
:1018A0001B78FBB1174E3578E5B93B78092B19D178
:1018B000154B164801221A7000F08EFC0EF090FDB8
:1018C000134B0A201860134B1D60FFF78FFB204657
:1018D0002946402228F056FC337843B10E480DF0DB
:1018E0007DFE02E00D4800E00D4808F08FFB0C493A
:1018F0000C48FEF7CCFDF8BDB48CFF1FD8D5FF1FF8
:1019000088A8FF1F24B6FF1F808CFF1F5CA8FF1F45
:10191000848CFF1FA4D6FF1F22B2020025B4020050
:1019200084E402007C00002008B526F0E3FB3221AD
:10193000084A094800F0E8FB3221084A084800F04C
:10194000E3FB0848084A4FF47A71BDE8084000F00C
:10195000DBBB00BFD11600000C8FFF1F010E000083
:10196000388FFF1F208FFF1F7D18000070B5B8B0A3
:10197000044668460E46154613F038FC684613F0D8
:10198000FFFB684631462A4613F0D6FE68462146DC
:10199000402213F014FF684613F00EFC38B070BDFF
:1019A000F0B5ADF5844D9BB0054646F2600468463F
:1019B00021464FF4804206F0DBFB46F260039C4276
:1019C00004D1284669464FF4804210E02B460DF5BD
:1019D000804605F1400718685968324603C208334B
:1019E000BB421646F7D12846694644F24002FFF74B
:1019F000BDFF044B04F580449C42D8D10DF5844DC5
:101A00001BB0F0BD60A003007FB5102026F0E4FC01
:101A10008A4B8B4E8B4C8C488C4D00221A708C4B11
:101A200006221A708B4B01221A708B4B16221A70E9
:101A30008A4B17221A708A4B11221A70894B0F2277
:101A40001A70894B10221A700E232021337015232F
:101A5000237007F0EBF9286000F0B6FA307826F032
:101A6000E5FC0290207826F0E1FC804B03901A6898
:101A700001321A607E4B1B78442B24D07D48FFF73F
:101A80008FFF02247B4EA319204613F8021C013459
:101A900026F07AFB422CF5D100214FF4006230464B
:101AA00028F070FB442012F005FB7349044673488C
:101AB000FEF7E5FC1CB171487149FEF7E0FC6F4888
:101AC0007049FEF7E4FC2C689CB906F00BFB03217F
:101AD0004FF4F86026F058FB6B4801F00AFA6B4BA4
:101AE0006B49664801221A706A4B1C70FEF7CFFCE6
:101AF0004AE05F4B1B78442B43D120216648674C5A
:101B000007F002FA664807F02DFA664807F094FAE3
:101B10000021204601F074FA634801F057FA634946
:101B20005648FEF7B4FC55482178FEF7BAFC2378F6
:101B30000BB9042323705E485E4C01F0BBFA5E488B
:101B400001F0C5FA504801F0CCF9204601F0A5FAA1
:101B50005A494A48FEF79BFC21784848FEF7A1FC09
:101B600025F03CF9494B5649444800221A70494B2C
:101B700001221A70FEF78BFC5248534900F081FA9B
:101B800002E0524B524A1A60524B53481A6853496A
:101B900001321A6040F2FD7214F048F84E4802A972
:101BA0000222042313F0FAFF022204234A4803A965
:101BB00013F0F4FF4A493148FEF761FC4FF4FB6132
:101BC0002E48FEF778FC2A4B2C4819781022002367
:101BD00026F0BFFD294826F09FFD08F0DDFE08F045
:101BE000F3FA09F059F937483E4900F04AFA2D68EE
:101BF0009DB93D483D4E01240470347001F0ADF9AB
:101C0000304601F0B7F904A800F80A4D01F0BFF919
:101C100004A800F8095D01F0C7F9354B1B78092BC2
:101C200009D11C4B1B7833B1324800F0EFFA10B1E8
:101C30000A20FFF7DBF904B070BD00BF45B6FF1FF7
:101C400081A8FF1F82A8FF1F9090FF1FA0D6FF1F33
:101C50008CB6FF1F0ED1FF1F0FD1FF1F10D1FF1F2A
:101C600011D1FF1F12D1FF1F13D1FF1F8890FF1F3B
:101C70000200024054B7FF1F33B402007C00002072
:101C800048B402004DB40200A58CFF1F24B6FF1F0C
:101C900062B4020088A8FF1FB090FF1FB58CFF1F21
:101CA000F090FF1FD090FF1F30B6FF1F77B40200E7
:101CB0001CB6FF1FA200002038B6FF1F84B402002C
:101CC00084E402008490FF1F208FFF1F0CED00E0D2
:101CD0000400FA058C90FF1F4CD7FF1F2AB20200A8
:101CE00096B402000C8FFF1F59D6FF1FCCB6FF1F02
:101CF000B48CFF1F5CA8FF1F2DE9F04F0A46C9B046
:101D00000023CD5CD47844EA0564557844EA054460
:101D1000957803F1200644EA052404336D46402BF0
:101D2000745102F10402ECD108AB002208AF9C6BA5
:101D30005E6ABD58596835444FEA744686EAF446EF
:101D400086EA94242C444FEAF11585EAB14585EAE8
:101D5000D10104322144C02A196403F10403E5D1FE
:101D6000026D0092436D426E0193856D836EC66D68
:101D7000076E02950396C56E0497059217469DE877
:101D8000140006931E46DDF80CC0049B02990795CB
:101D9000A846002505F1200BE9465BF809A0DFF80D
:101DA000989055F80990D1444FEAB31A8AEAF32A79
:101DB0008AEA736AD14426EA030B07EA030A8BEA2C
:101DC0000A0AD144C84481EA040901EA040A09EA7A
:101DD000020989EA0A094FEAB20A8AEA723A8AEAE9
:101DE000B25A0435D144B5F5807FC444C14408D00B
:101DF000B0463E461F4663468C46214614464A4638
:101E0000C8E7009D4D440565019D2A444265029A3C
:101E1000039D1444049A846562440266059A13443F
:101E200029444366079D069BC1651F442E4487666F
:101E3000C66649B0BDE8F08FA4B402000023036475
:101E400000220023C0E912230A4B03650A4B4365B5
:101E50000A4B83650A4BC3650A4B03660A4B43660C
:101E60000A4B836603F17453A3F52303A3F692434D
:101E7000C366704767E6096A85AE67BB72F36E3C5E
:101E80003AF54FA57F520E518C68059BABD9831F45
:101E90002DE9F04106460F4601EB0208474516D0F2
:101EA000336C17F8012BF2540133402B3364F5D116
:101EB00030463146FFF720FFD6E9124514F500748D
:101EC00045F100050023C6E912453364E6E7BDE8A5
:101ED000F081026C2DE9F84F372A88464FF08001D7
:101EE000814602F10103815406D8382B14D0002218
:101EF00009F803200133F8E73F2B04D8002209F842
:101F000003200133F8E748464946FFF7F5FE484607
:101F10000021382228F036F9D9F84030D900D9E923
:101F20001223521843F100034FEA122A160C140E22
:101F30004AEA036A4FEA132B46EA03461F0C44EAB7
:101F400003241D0EC9E9122389F83B30494689F85C
:101F50003F2089F83EA089F83D6089F83C4089F827
:101F60003AB089F8397089F838504846FFF7C4FE0E
:101F700043460321D9F85000CA00D0401870D9F860
:101F80005400D0401871D9F85800D0401872D9F8D0
:101F90005C00D0401873D9F86000D0401874D9F8AC
:101FA0006400D0401875D9F86800D0401876D9F888
:101FB0006C00013920FA02F21A774A1C03F101037E
:101FC000D8D1BDE8F88FFFFF07B5064B06499A68E0
:101FD0000092DA6801920CCB044828F007FB03B0AA
:101FE0005DF804FB5090FF1FA4B502006090FF1F36
:101FF000064B1A68064B1A60064A12685A60064A6F
:1020000012689A60054A1268DA607047548004408A
:102010005090FF1F588004405C8004406080044062
:10202000036873B18B4205D11B69036070478A4214
:1020300004D013461A69002AF9D102E00A691A612C
:102040007047704770B506460C461546FFF7E8FF27
:1020500033680BB9346004E01A690AB11346FBE730
:102060001C6124F037FE23680322C01A4FF4FA5390
:102070006B43B5FBF2F55D4300236060256023618F
:1020800070BD38B505460C46FFF7CAFF2B680BB983
:102090002C6004E01A690AB11346FBE71C6124F0C6
:1020A00019FE2368C01A00236060236138BD38B56B
:1020B0000C4624F00FFE62682368134498420546DC
:1020C00005D36268934208D26268824205D862688A
:1020D000954207D262689A4204D8A560E368204618
:1020E0009847656038BD38B505462C68002CFCD093
:1020F00021462846FFF7DBFF2469F7E708B50148CA
:10210000FFF7F1FF8490FF1F10B54FF47A7461431D
:10211000C260002201604260026110BD4FF47A7318
:10212000594301607047FFFFF8B504460E46154657
:102130001F46044AFFF7E8FF6661E561A761204694
:10214000F8BD00BF6921000010B50021044680F8E9
:102150002010FFF7E3FF21460248BDE81040FFF7DB
:1021600090BF00BF8490FF1F10B590F82030044648
:102170003BB9012380F820304169BDE81040FFF7EA
:10218000CDBF012B10D109482146FFF749FFE36974
:1021900013B9A06920B910BD2046984720B1F8E7CF
:1021A000BDE81040FFF7D0BF10BD00BF8490FF1FF7
:1021B0000022416142740270704741617047437C64
:1021C000102B07D05A1CD2B24274C154002383543E
:1021D000012070470020704700234374037070474C
:1021E00010B5446902782178002321B9D2F10100A9
:1021F00038BF002010BD914206D1E2185178C218B4
:102200000133102B5278F0D1002010BD2DE9F0439E
:10221000B9B0044628F068FAAD4B00221A70AD4AF6
:102220001278092A054619460ED168B9AA4B2246EA
:1022300003F1100053F8045B42F8045B8342F9D1C8
:1022400001230B70102505E0062803D81E2024F07A
:1022500061FD82E11CA8FFF7F1FD2A4621461CA87A
:10226000FFF716FE9D499E48FEF711F920462946C4
:1022700005F018FF9B499A489B4CFEF700F99B48D4
:10228000202105F00FFF20221CA89849FFF700FE2F
:102290001CA80CA9FFF71DFE9DF8303023F00703A2
:1022A0008DF830309DF84F3003F03F0343F040038A
:1022B00000220CA920468DF84F3012F02DFC8C49DD
:1022C0008748FEF7DCF82021204605F0EBFE1CA82D
:1022D000FFF7B4FD14A800F02EFF1CA814A91022CB
:1022E000FFF7D6FD1CA883491022FFF7D1FD20225D
:1022F0001CA82146FFF7CCFD21461CA8FFF7E9FDED
:102300001CA8FFF79BFD1CA814A91022FFF7C0FD15
:102310001CA878491022FFF7BBFD20221CA8764993
:10232000FFF7B6FD1CA804A9FFF7D3FD73496C485D
:10233000FEF7A5F82046202105F0B4FE7049684854
:10234000FEF79DF804A8202105F0ACFE6D4B9DF82A
:102350001050D3F800806C4B20781A68531C02F19F
:102360001F0902F1200CC2EB08014B4503F1FF37B6
:10237000C2F10006194440F0DB80624B624C1960E8
:102380008542276004D0604B1A6801321A60E4E08D
:102390000DF10F0000F027FE5C495148FEF76FF881
:1023A0004F489DF80F100A22002326F0D2F99DF81D
:1023B0000F504D48012D40D106F06CFE18B94A4827
:1023C000534A0CA93FE0524A0CA904A812F0A4FBFE
:1023D00050494348FEF753F804A8202105F062FE57
:1023E0004D493F48FEF74BF814A8202105F05AFE4E
:1023F0004A493B48FEF743F81021494805F052FE90
:102400001CA8FFF71BFD1CA814A92022FFF740FD04
:102410001CA843491022FFF73BFD1CA804A9202259
:10242000FFF736FD1CA831492022FFF731FD1CA81B
:102430000CA9FFF74EFD009532E006F02BFE28B9FF
:1024400029482D4A0CA912F067FB2FE02A4A0CA953
:1024500004A812F061FB2F492148FEF710F8202153
:1024600004A805F01FFE1CA8FFF7E8FC1CA814A98F
:102470002022FFF70DFD1CA829491022FFF708FDB7
:102480001CA804A92022FFF703FD1CA8174920223D
:10249000FFF7FEFC1CA80CA9FFF71BFD012300930E
:1024A00011481F490CAA202305F036FA1D490C4893
:1024B000FDF7E5FF0C48202105F0F4FD23681A4ADA
:1024C0000133236000231370184A0120136045E094
:1024D00047D7FF1FB48CFF1F7290FF1FBCB50200CF
:1024E0007C000020D2B502001091FF1F9090FF1FCA
:1024F000DEB502007090FF1FB090FF1FF6B502001E
:102500000EB602008890FF1F8C90FF1F29B60200B4
:10251000D090FF1F43B602005BB602009DCE0200C2
:102520006090FF1F36B6020045B6FF1F38B7FF1F89
:10253000854204D00B4B19600B4B1F6023E704A8A6
:1025400030442644C55CF05C1E46013363457FF48D
:102550000AAF044B1960044B1E60002039B0BDE87F
:10256000F08300BF8890FF1F8C90FF1F2DE9F04380
:10257000B9B0054628F0B8F80628044603D81E204E
:1025800024F0C8FB93E01CA8FFF758FC224629461C
:102590001CA8FFF77DFC81498148FDF778FF28469C
:1025A000214605F07FFD7F497D487F4CFDF767FFA1
:1025B0007E48202105F076FD20221CA87B49FFF7EC
:1025C00067FC1CA80CA9FFF784FC9DF8303023F0B1
:1025D00007038DF830309DF84F3003F03F0343F090
:1025E00040030CA9002220468DF84F3012F094FAD7
:1025F0001CA8FFF723FC14A800F09DFD1CA814A93B
:102600001022FFF745FC1CA869491022FFF740FC87
:1026100020221CA82146FFF73BFC21461CA8FFF7FF
:1026200058FC1CA8FFF70AFC1CA814A91022FFF7ED
:102630002FFC1CA85E491022FFF72AFC20221CA8B0
:102640005C49FFF725FC1CA804A9FFF742FC5A4986
:102650005348FDF714FF2046202105F023FD57497C
:102660004F48FDF70CFF04A8202105F01BFD544B3B
:102670009DF81050D3F80080524B20781A68531CF4
:1026800002F11F0902F1200CC2EB08014B4503F1D6
:10269000FF37C2F10006194467D1494B494C196014
:1026A0008542276005D0474B1A6801321A60002026
:1026B00071E00DF10F0000F096FC9DF80F30022B39
:1026C00048D0394806F0E6FC28B90CA93E4A3648FD
:1026D00012F022FA2FE03C4A0CA904A812F01CFACE
:1026E0003A492F48FDF7CBFE202104A805F0DAFC7B
:1026F0001CA8FFF7A3FB1CA814A92022FFF7C8FB06
:102700001CA833491022FFF7C3FB1CA804A92022F0
:10271000FFF7BEFB20221CA82449FFF7B9FB1CA829
:102720000CA9FFF7D6FB012300931F4828490CAAE8
:10273000202305F0F1F827491948FDF7A0FE1A48B3
:10274000202105F0AFFC244B01221A70234B5422A8
:102750001A7005E0224A1278002AA8D11E4A137086
:10276000236801332360012015E0854204D0144B17
:102770001960144B1F6096E704A830442644C55CDA
:10278000F05C1E46013363457FF47EAF0C4B19604D
:102790000C4B1E608BE739B0BDE8F08362B60200D7
:1027A0007C000020D2B502001091FF1F9090FF1F07
:1027B0007090FF1FD090FF1FF6B5020078B60200A0
:1027C0008890FF1F8C90FF1FB090FF1F97B60200EC
:1027D0006090FF1F36B6020045B6FF1F38B7FF1FD7
:1027E0004CB7FF1F30B59DB0054627F07DFF06288A
:1027F000044603D81E2024F08DFA35E06846FFF722
:102800001DFB224629466846FFF742FB1849194836
:10281000194D1A4CFDF733FE1948202105F042FCF2
:10282000202268461649FFF733FB29466846FFF722
:1028300050FB104825F070FF12490E48FDF71FFEAF
:102840002046202105F02EFC2278287800238242A1
:102850000AD1E218E91801331E2B52784878F6D1D4
:10286000131A5842584100E000201DB030BD00BF8F
:10287000D2B502007C0000201091FF1FF090FF1FD6
:102880009090FF1FAFB6020025F034BC10B5084B86
:1028900000F14C0203F1140153F8044B42F8044BCD
:1028A0008B42F9D10023036680F8483010BD00BF89
:1028B000888CFF1F2DE9F04F416D826DC36DD0F8FC
:1028C0004C80D0F850C085B0994601910292039394
:1028D0004646134600240A466146E5B20F2D07D846
:1028E00083EA020A0AEA010A8AEA030A334F3FE04E
:1028F00004F10D0B04F108070BF00F0B07F00F07A5
:102900000BF1020B023705F00F0A50F8277050F850
:102910002BB000EB8A0A8BEA070BDAF808708BEA17
:10292000070BA71C07F00F070237132D50F827706D
:102930008BEA07074FEAF777CAF80870D0D9272D36
:1029400005D882EA010A8AEA030A1D4F10E03B2DEE
:1029500009D842EA010A02EA01070AEA030A4AEA36
:10296000070A184F04E082EA010A174F8AEA030AAD
:1029700005F00F050235574450F82550013405EB9A
:10298000F6653D44502C4D444FEAB10105D09946BF
:1029900013460A4631462E469FE7019C2144416575
:1029A00002990A448265039A454466441344C56407
:1029B0000665C36505B0BDE8F08F00BF9979825AFE
:1029C000A1EBD96EDCBC1B8FD6C162CA90F848302F
:1029D00083F003020133DBB20244402B10B51172C5
:1029E000044680F8483004D1FFF764FF002384F8E0
:1029F000483010BD08B5026E01320266FFF7E6FFEF
:102A0000012008BD10B580210446FFF7DFFF94F8D0
:102A10004830382B20464FF00001F6D1FFF7D6FFA3
:102A200020460021FFF7D2FF20460021FFF7CEFF0E
:102A3000216E2046490FFFF7C9FF216E2046C1F3E2
:102A40004751FFF7C3FF216E2046C1F34731FFF71F
:102A5000BDFF216E2046C1F34711FFF7B7FF216E7E
:102A6000C900204601F0F801BDE81040FFF7AEBFF5
:102A700010B50446FFF7C6FF0023E2180433D16CFB
:102A8000142B09BAD164F8D104F14C0010BDF8B58B
:102A900000F16406174604460D46304600214022E8
:102AA00027F070FB402F18DD2046FFF7EFFE2F4484
:102AB000BD4206D0236815F8011B1B6820469847C5
:102AC000F6E72046FFF7D4FF00F1140250F8041B8C
:102AD00046F8041B9042F9D104E0304629463A46B4
:102AE00023F03EF92046FFF7D1FE254604F14006CB
:102AF00095F86410236820461B6881F03601013583
:102B00009847B542F4D1F8BD70B50446FFF7B0FF61
:102B100004F1A40300F1140250F8041B43F8041B51
:102B20009042F9D12046FFF7B1FE04F14006254658
:102B300095F86410236820461B6881F05C0101351C
:102B40009847B542F4D104F114062546236895F858
:102B5000A4101B68204601359847B542F6D120469F
:102B6000BDE87040FFF784BF024B00221A71024A91
:102B70001A6070473091FF1FC8B6020080E8060057
:102B80007047FFFF1E2391FBF3F10B0E70B51E4E35
:102B900003740B140446002543740B128160837484
:102BA000C174057394E8060045738573C573304698
:102BB000FFF76DFF336804F10C015B6808223046B3
:102BC00098473046FFF7A0FF6061C37CE56103F0E2
:102BD0000F03A361E269C1181202E261495D013588
:102BE0000A43042DE261F5D1084B22F0004292FB2A
:102BF000F3F103FB1122E26120342046044927F05F
:102C0000F5FC204670BD00BF3091FF1F40420F0011
:102C1000D0B602003C23B0FBF3F203FB12000870B5
:102C2000B2FBF3F003FB10234B701823B0FBF3F25D
:102C300003FB12008870131D0720B3FBF0F0C0EBFC
:102C4000C0001B1AF0B501330024CB702046E7B258
:102C500007F2B27313F0030612D1642593FBF5FC5F
:102C600005FB1C357DB94FF4C87593FBF5FC05FBDE
:102C70001C35002D40F26D1508BF4FF4B77504E008
:102C800040F26D1501E04FF4B7752844904204F10D
:102C90000104DCD98F7196B9642493FBF4F504FB2D
:102CA00015347CB94FF4C87493FBF4F504FB153468
:102CB000002C40F26D1408BF4FF4B77404E040F2EA
:102CC0006D1401E04FF4B774041B141B642293FBD2
:102CD000F2F702FB17374FF4C87293FBF2F002FBD6
:102CE00010330022D5B2012D06D146B94FB9002BC1
:102CF0000CBF1D201C2005E00948105C02E01C20D0
:102D000000E01D20844205D301320C2AC0EB0404EC
:102D1000E8D11546013501344D710C71F0BD00BF8D
:102D2000D6B6020038B5054C23689842054603D054
:102D30000349FFF76FFF256038BD00BFE891FF1F13
:102D4000EC91FF1F08B5FFF7EDFF024B987900F2F9
:102D5000B27008BDEC91FF1F074B1860074B1B6852
:102D60001844074B1860074B02221A70064B1A686A
:102D7000064B1A60704700BFF491FF1F9C8CFF1F29
:102D80000492FF1FF891FF1F54FEFF1F0092FF1FC8
:102D900070B51649164C0A68236816480068801AF0
:102DA000B0F57A7F02F57A7603F1010502D32B465E
:102DB0003246F2E7104D0A602A6823609A4213D81F
:102DC0000E4B1B6883B1984710B1FFF7C5FF0BE0AE
:102DD0000B4B1A68064B1B6813442B60094B1A787F
:102DE000003218BF01221A70206870BD0092FF1FC8
:102DF000F491FF1F54FEFF1F0492FF1FFC91FF1F61
:102E00009C8CFF1FF891FF1F08B5FFF7C1FFFFF76C
:102E100089FF014B987808BDEC91FF1F08B5FFF7BB
:102E2000B7FFFFF77FFF014B587808BDEC91FF1FFC
:102E300008B5FFF7ADFFFFF775FF014B187808BD28
:102E4000EC91FF1F08B5FFF7A3FFFFF76BFF014BE6
:102E5000187908BDEC91FF1F08B5FFF799FFFFF740
:102E600061FF014B587908BDEC91FF1F08B5FFF7D2
:102E70008FFFBDE80840FFF765BFFFFF08B5FFF70C
:102E800087FF014B187808BDF891FF1FF8B506467B
:102E90000D468F180C46BC4206D0204625F060F93E
:102EA000731B18550134F6E7F8BDF8B506460D4614
:102EB0008F180C46BC4206D0731B2046195D25F0C6
:102EC00063F90134F6E7F8BD08B54FF4D561012286
:102ED000FFF7DCFF012008BD4FF4D5610122FFF7A9
:102EE000E4BF08B540F2A9610122FFF7CFFF01203E
:102EF00008BD40F2A9610122FFF7D7BF08B540F233
:102F0000AA610122FFF7C2FF012008BD40F2AA61B9
:102F10000122FFF7CABF08B540F2D561D022FFF702
:102F2000B5FFD02008BD40F2D561D022FFF7BDBF6C
:102F300008B540F2AB610122FFF7A8FF012008BDF0
:102F400040F2AB610122FFF7B0BF08B540F2AC61BF
:102F50000122FFF79BFF012008BD40F2AC61012276
:102F6000FFF7A3BF08B540F2AD610122FFF78EFF66
:102F7000012008BD40F2AD610122FFF796BF08B500
:102F80004FF4FB610122FFF781FF012008BD4FF4E0
:102F9000FB610122FFF789BF08B540F2D971012218
:102FA000FFF774FF012008BD40F2D9710122FFF73D
:102FB0007CBF08B540F2A5710122FFF767FF012031
:102FC00008BD40F2A5710122FFF76FBF08B540F2BE
:102FD000A6710122FFF75AFF012008BD40F2A67139
:102FE0000122FFF762BF08B540F2AE610122FFF790
:102FF0004DFF012008BD40F2AE610122FFF755BF31
:1030000010B5044629B940F2AF610122FFF73EFF37
:1030100017E04B1E0B2B08D801F2CB710122FFF7F2
:1030200035FF237803F00F030AE0A1F10D030B2B0A
:1030300007D801F2CB710122FFF728FF23781B0983
:103040002370012010BD70B501F2CB760D46044609
:10305000314601300122FFF719FF1DB9204640F229
:10306000AF6114E06B1E0B2B05D86378227823F038
:103070000F03134408E00D3D0B2D0DD86378227823
:1030800003F00F0303EB02132370204631460122A5
:10309000BDE87040FFF709BF70BD08B54FF4D661B9
:1030A0000122FFF7F3FE012008BD4FF4D661012293
:1030B000FFF7FBBE08B540F2D3610122FFF7E6FE41
:1030C000012008BD40F2D3610122FFF7EEBE08B532
:1030D00040F2BF710122FFF7D9FE012008BD40F286
:1030E000BF710122FFF7E1BE08B540F2D4610122B1
:1030F000FFF7CCFE012008BD40F2D4610122FFF7AA
:10310000D4BE08B540F2B1610122FFF7BFFE012035
:1031100008BD40F2B1610122FFF7C7BE08B540F219
:10312000B2610122FFF7B2FE012008BD40F2B26198
:103130000122FFF7BABE08B540F2B3612022FFF7C3
:10314000A5FE202008BD40F2B3612022FFF7ADBEEE
:1031500008B540F21C610122FFF798FE012008BD6E
:1031600040F21C610122FFF7A0BE08B540F21D61CC
:103170000122FFF78BFE012008BD40F21D610122F4
:10318000FFF793BE08B540F21E610122FFF77EFEF5
:10319000012008BD40F21E610122FFF786BE08B57E
:1031A00040F21F610122FFF771FE012008BD40F2CD
:1031B0001F610122FFF779BE08B54FF4C4610122F7
:1031C000FFF764FE012008BD4FF4C4610122FFF740
:1031D0006CBE08B540F221610122FFF757FE0120C5
:1031E00008BD40F221610122FFF75FBE08B540F241
:1031F00022610122FFF74AFE012008BD40F2226150
:103200000122FFF752BE08B540F223610122FFF709
:103210003DFE012008BD40F223610122FFF745BEBB
:1032200008B540F224610122FFF730FE012008BDFD
:1032300040F224610122FFF738BE08B540F2256153
:103240000122FFF723FE012008BD40F22561012283
:10325000FFF72BBE08B540F226610122FFF716FEEC
:10326000012008BD40F226610122FFF71EBE08B50D
:1032700040F227610122FFF709FE012008BD40F25C
:1032800027610122FFF711BE08B54FF4C561012285
:10329000FFF7FCFD012008BD4FF4C5610122FFF7D7
:1032A00004BE08B540F229610122FFF7EFFD0120BD
:1032B00008BD40F229610122FFF7F7BD08B540F2D1
:1032C0002A610122FFF7E2FD012008BD40F22A61D8
:1032D0000122FFF7EABD08B540F22B610122FFF79A
:1032E000D5FD012008BD40F22B610122FFF7DDBDB5
:1032F00008B540F22C610122FFF7C8FD012008BD8E
:1033000040F22C610122FFF7D0BD08B540F22D61DB
:103310000122FFF7BBFD012008BD40F22D61012213
:10332000FFF7C3BD08B540F22E610122FFF7AEFDE5
:10333000012008BD40F22E610122FFF7B6BD08B59D
:1033400040F22F610122FFF7A1FD012008BD40F2EC
:103350002F610122FFF7A9BD08B54FF4C661012214
:10336000FFF794FD012008BD4FF4C6610122FFF76D
:103370009CBD08B540F231610122FFF787FD0120B5
:1033800008BD40F231610122FFF78FBD08B540F260
:1033900032610122FFF77AFD012008BD40F232615F
:1033A0000122FFF782BD08B540F233610122FFF729
:1033B0006DFD012008BD40F233610122FFF775BDAC
:1033C00008B5AC210122FFF761FD012008BDAC2149
:1033D0000122FFF76ABD08B5AD210122FFF756FDB6
:1033E000012008BDAD210122FFF75FBD08B5AE2168
:1033F0000122FFF74BFD012008BDAE210122FFF79E
:1034000054BD08B5AF210122FFF740FD012008BDE2
:10341000AF210122FFF749BD08B5B0210122FFF716
:1034200035FD012008BDB0210122FFF73EBD08B5E2
:10343000B1210122FFF72AFD012008BDB12101229F
:10344000FFF733BD08B5B2210122FFF71FFD0120B0
:1034500008BDB2210122FFF728BD08B5B321012222
:10346000FFF714FD012008BDB3210122FFF71DBDA8
:1034700008B5B4210122FFF709FD012008BDB421E0
:103480000122FFF712BD08B5B5210122FFF7FEFCAE
:10349000012008BDB5210122FFF707BD08B5B621FF
:1034A0000122FFF7F3FC012008BDB6210122FFF73E
:1034B000FCBC08B5B7210122FFF7E8FC012008BDDC
:1034C000B7210122FFF7F1BC08B5B8210122FFF7AF
:1034D000DDFC012008BDB8210122FFF7E6BC08B5DC
:1034E000B9210122FFF7D2FC012008BDB921012238
:1034F000FFF7DBBC08B5BA210122FFF7C7FC0120AA
:1035000008BDBA210122FFF7D0BC08B5BB210122BA
:10351000FFF7BCFC012008BDBB210122FFF7C5BCA1
:1035200008B5BC210122FFF7B1FC012008BDBC2178
:103530000122FFF7BABC08B5BD210122FFF7A6FCA6
:10354000012008BDBD210122FFF7AFBC08B5BE2197
:103550000122FFF79BFC012008BDBE210122FFF7DD
:10356000A4BC08B5BF210122FFF790FC012008BDD3
:10357000BF210122FFF799BC08B5C0210122FFF746
:1035800085FC012008BDC0210122FFF78EBC08B5D3
:10359000C1210122FFF77AFC012008BDC1210122CF
:1035A000FFF783BC08B5C2210122FFF76FFC0120A1
:1035B00008BDC2210122FFF778BC08B5C321012252
:1035C000FFF764FC012008BDC3210122FFF76DBC99
:1035D00008B564210122FFF759FC012008BD6421D0
:1035E0000122FFF762BC08B565210122FFF74EFCFE
:1035F000012008BD65210122FFF757BC08B56621EF
:103600000122FFF743FC012008BD66210122FFF7DC
:103610004CBC08B567210122FFF738FC012008BD2A
:1036200067210122FFF741BC08B568210122FFF79D
:103630002DFC012008BD68210122FFF736BC08B52A
:1036400069210122FFF722FC012008BD6921012226
:10365000FFF72BBC08B56A210122FFF717FC0120F8
:1036600008BD6A210122FFF720BC08B56B210122A9
:10367000FFF70CFC012008BD6B210122FFF715BCF0
:1036800008B56C210122FFF701FC012008BD6C2167
:103690000122FFF70ABC08B56D210122FFF7F6FBF6
:1036A000012008BD6D210122FFF7FFBB08B56E2187
:1036B0000122FFF7EBFB012008BD6E210122FFF77D
:1036C000F4BB08B56F210122FFF7E0FB012008BD24
:1036D0006F210122FFF7E9BB08B570210122FFF736
:1036E000D5FB012008BD70210122FFF7DEBB08B524
:1036F00071210122FFF7CAFB012008BD71210122BF
:10370000FFF7D3BB08B572210122FFF7BFFB0120F1
:1037100008BD72210122FFF7C8BB08B57321012241
:10372000FFF7B4FB012008BD73210122FFF7BDBBE9
:1037300008B574210122FFF7A9FB012008BD7421FF
:103740000122FFF7B2BB08B575210122FFF79EFBEE
:10375000012008BD75210122FFF7A7BB08B576211E
:103760000122FFF793FB012008BD76210122FFF71C
:103770009CBB08B577210122FFF788FB012008BD1B
:1037800077210122FFF791BB08B578210122FFF7CD
:103790007DFB012008BD78210122FFF786BB08B51B
:1037A00079210122FFF772FB012008BD7921012256
:1037B000FFF77BBB08B57A210122FFF767FB0120E9
:1037C00008BD7A210122FFF770BB08B57B210122D9
:1037D000FFF75CFB012008BD7B210122FFF765BBE1
:1037E00008B540F264610122FFF750FB012008BDDB
:1037F00040F264610122FFF758BB08B540F26561F1
:103800000122FFF743FB012008BD40F26561012260
:10381000FFF74BBB08B540F266610122FFF736FBAC
:10382000012008BD40F266610122FFF73EBB08B5EA
:1038300040F267610122FFF729FB012008BD40F239
:1038400067610122FFF731BB08B54FF4CD6101225A
:10385000FFF71CFB012008BD4FF4CD610122FFF7EB
:1038600024BB08B540F269610122FFF70FFB01207C
:1038700008BD40F269610122FFF717BB08B540F2AD
:103880006A610122FFF702FB012008BD40F26A6174
:103890000122FFF70ABB08B540F26B610122FFF776
:1038A000F5FA012008BD40F26B610122FFF7FDBA75
:1038B00008B540F26C610122FFF7E8FA012008BD6B
:1038C00040F26C610122FFF7F0BA08B540F26D6179
:1038D0000122FFF7DBFA012008BD40F26D610122F1
:1038E000FFF7E3BA08B540F26E610122FFF7CEFAA6
:1038F000012008BD40F26E610122FFF7D6BA08B57B
:1039000040F26F610122FFF7C1FA012008BD40F2C9
:103910006F610122FFF7C9BA08B54FF4CE610122E9
:10392000FFF7B4FA012008BD4FF4CE610122FFF782
:10393000BCBA08B540F271610122FFF7A7FA012075
:1039400008BD40F271610122FFF7AFBA08B540F23D
:1039500072610122FFF79AFA012008BD40F27261FC
:103960000122FFF7A2BA08B540F273610122FFF706
:103970008DFA012008BD40F273610122FFF795BA6C
:1039800008B540F274610122FFF780FA012008BDFA
:1039900040F274610122FFF788BA08B540F2756100
:1039A0000122FFF773FA012008BD40F27561012280
:1039B000FFF77BBA08B540F276610122FFF766FA9D
:1039C000012008BD40F276610122FFF76EBA08B50A
:1039D00040F277610122FFF759FA012008BD40F259
:1039E00077610122FFF761BA08B54FF4CF61012278
:1039F000FFF74CFA012008BD4FF4CF610122FFF719
:103A000054BA08B540F279610122FFF73FFA01206C
:103A100008BD40F279610122FFF747BA08B540F2CC
:103A20007A610122FFF732FA012008BD40F27A6183
:103A30000122FFF73ABA08B540F27B610122FFF795
:103A400025FA012008BD40F27B610122FFF72DBA63
:103A500008B546211022FFF719FA102008BD4621AB
:103A60001022FFF722BA38B505460C4611B962217B
:103A700002220BE04B1E172B0AD801F263610122D0
:103A8000FFF704FA681C04F2A6710122FFF7FEF9A1
:103A9000022038BD38B505460C4611B96221022214
:103AA0000BE04B1E172B0CD801F263610122FFF7CC
:103AB000FCF9681C04F2A6710122BDE83840FFF74A
:103AC000F4B938BD08B55C210622FFF7DFF90620FE
:103AD00008BD5C210622FFF7E8B908B55621062289
:103AE000FFF7D4F9062008BD56210622FFF7DDB9FD
:103AF00037B501390446172900F25581DFE811F086
:103B00001800240031003E004B0058006500720090
:103B10007F008C009900A600B300C000CD00DA0041
:103B2000E700F40001010E011B01280135014201EB
:103B30000DF10700FFF70CFB9DF807502046382DCC
:103B4000A8BF3825DC2129E10DF10700FFF70DFBA7
:103B50009DF807502046382DA8BF38254FF48A71AC
:103B60001CE10DF10700FFF70DFB9DF80750204603
:103B7000382DA8BF38254FF4A6710FE10DF10700CD
:103B8000FFF70DFB9DF807502046382DA8BF3825BC
:103B90004FF4C27102E10DF10700FFF70DFB9DF834
:103BA00007502046382DA8BF38254FF4DE71F5E0C8
:103BB0000DF10700FFF70DFB9DF807502046382D4B
:103BC000A8BF38254FF4FA71E8E00DF10700FFF7C0
:103BD0000DFB9DF807502046382DA8BF38254FF41F
:103BE0000B71DBE00DF10700FFF70DFB9DF80750AF
:103BF0002046382DA8BF38254FF41971CEE00DF1BD
:103C00000700FFF70DFB9DF807502046382DA8BF91
:103C100038254FF42771C1E00DF10700FFF70DFBC8
:103C20009DF807502046382DA8BF38254FF4357130
:103C3000B4E00DF10700FFF70DFB9DF8075020469B
:103C4000382DA8BF38254FF44371A7E00DF10700C8
:103C5000FFF70DFB9DF807502046382DA8BF3825EB
:103C60004FF451719AE00DF10700FFF70DFB9DF83D
:103C700007502046382DA8BF38254FF45F718DE0DE
:103C80000DF10700FFF70DFB9DF807502046382D7A
:103C9000A8BF38254FF46D7180E00DF10700FFF7E4
:103CA0000DFB9DF807502046382DA8BF38254FF44E
:103CB0007B7173E00DF10700FFF70DFB9DF80750D6
:103CC0002046382DA8BF382540F2244166E00DF18A
:103CD0000700FFF70DFB9DF807502046382DA8BFC1
:103CE000382540F25C4159E00DF10700FFF70DFB6C
:103CF0009DF807502046382DA8BF382540F2944142
:103D00004CE00DF10700FFF70DFB9DF80750204632
:103D1000382DA8BF382540F2CC413FE00DF1070017
:103D2000FFF70DFB9DF807502046382DA8BF38251A
:103D300040F2045132E00DF10700FFF70DFB9DF852
:103D400007502046382DA8BF382540F23C5125E0C9
:103D50000DF10700FFF70DFB9DF807502046382DA9
:103D6000A8BF382540F2745118E00DF10700FFF7A5
:103D70000DFB9DF807502046382DA8BF382540F28E
:103D8000AC510BE00DF10700FFF70DFB9DF807505C
:103D90002046382DA8BF382540F2E4513822FFF7DD
:103DA00075F8284600E0002003B030BD013A13B595
:103DB0000C46172A00F26881DFE812F0180025008F
:103DC000330041004F005D006B00790087009500D3
:103DD000A300B100BF00CD00DB00E900F700050142
:103DE000130121012F013D014B015901DC21382232
:103DF000FFF75BF802A8382CA8BF382400F8014D63
:103E0000FFF7AEF940E14FF48A713822FFF74DF821
:103E100002A8382CA8BF382400F8014DFFF7ADF9EF
:103E200032E14FF4A6713822FFF73FF802A8382C90
:103E3000A8BF382400F8014DFFF7ACF924E14FF496
:103E4000C2713822FFF731F802A8382CA8BF3824F5
:103E500000F8014DFFF7ABF916E14FF4DE7138229F
:103E6000FFF723F802A8382CA8BF382400F8014D2A
:103E7000FFF7AAF908E14FF4FA713822FFF715F8B5
:103E800002A8382CA8BF382400F8014DFFF7A9F983
:103E9000FAE04FF40B713822FFF707F802A8382C2C
:103EA000A8BF382400F8014DFFF7A8F9ECE04FF463
:103EB00019713822FEF7F9FF02A8382CA8BF382460
:103EC00000F8014DFFF7A7F9DEE04FF42771382223
:103ED000FEF7EBFF02A8382CA8BF382400F8014DEC
:103EE000FFF7A6F9D0E04FF435713822FEF7DDFF79
:103EF00002A8382CA8BF382400F8014DFFF7A5F917
:103F0000C2E04FF443713822FEF7CFFF02A8382CED
:103F1000A8BF382400F8014DFFF7A4F9B4E04FF42E
:103F200051713822FEF7C1FF02A8382CA8BF3824EF
:103F300000F8014DFFF7A3F9A6E04FF45F713822B6
:103F4000FEF7B3FF02A8382CA8BF382400F8014DB3
:103F5000FFF7A2F998E04FF46D713822FEF7A5FF44
:103F600002A8382CA8BF382400F8014DFFF7A1F9AA
:103F70008AE04FF47B713822FEF797FF02A8382CB5
:103F8000A8BF382400F8014DFFF7A0F97CE040F20B
:103F900024413822FEF789FF02A8382CA8BF382414
:103FA00000F8014DFFF79FF96EE040F25C413822C6
:103FB000FEF77BFF02A8382CA8BF382400F8014D7B
:103FC000FFF79EF960E040F294413822FEF76DFF62
:103FD00002A8382CA8BF382400F8014DFFF79DF93E
:103FE00052E040F2CC413822FEF75FFF02A8382CA5
:103FF000A8BF382400F8014DFFF79CF944E040F2D7
:1040000004513822FEF751FF02A8382CA8BF3824EB
:1040100000F8014DFFF79BF936E040F23C513822A1
:10402000FEF743FF02A8382CA8BF382400F8014D42
:10403000FFF79AF928E040F274513822FEF735FF75
:1040400002A8382CA8BF382400F8014DFFF799F9D1
:104050001AE040F2AC513822FEF727FF02A8382CB4
:10406000A8BF382400F8014DFFF798F90CE040F2A2
:10407000E4513822FEF719FF02A8382CA8BF3824D3
:1040800000F8014DFFF797F902B010BD013908B5EE
:10409000172941D8DFE801F00C0E10121416181A77
:1040A0001C1E20222426282A2C2E30323436383A60
:1040B0007C212CE07D212AE07E2128E07F2126E062
:1040C000802124E0812122E0822120E083211EE062
:1040D00084211CE085211AE0862118E0872116E062
:1040E000882114E0892112E08A2110E08B210EE062
:1040F0008C210CE08D210AE08E2108E08F2106E062
:10410000902104E0912102E0922100E0932101221C
:10411000FEF7BCFE012008BD002008BD01391729AB
:104120003FD8DFE801F00C0E10121416181A1C1EEE
:1041300020222426282A2C2E30323436383A7C216C
:104140002CE07D212AE07E2128E07F2126E08021CD
:1041500024E0812122E0822120E083211EE08421CD
:104160001CE085211AE0862118E0872116E08821CD
:1041700014E0892112E08A2110E08B210EE08C21CD
:104180000CE08D210AE08E2108E08F2106E09021CD
:1041900004E0912102E0922100E093210122FEF748
:1041A00084BE7047013908B5172941D8DFE801F00E
:1041B0000C0E10121416181A1C1E20222426282A4F
:1041C0002C2E30323436383A94212CE095212AE0D6
:1041D000962128E0972126E0982124E0992122E0E9
:1041E0009A2120E09B211EE09C211CE09D211AE0E9
:1041F0009E2118E09F2116E0A02114E0A12112E0E9
:10420000A22110E0A3210EE0A4210CE0A5210AE0E8
:10421000A62108E0A72106E0A82104E0A92102E0E8
:10422000AA2100E0AB210122FEF730FE012008BDEB
:10423000002008BD013917293FD8DFE801F00C0E36
:1042400010121416181A1C1E20222426282A2C2E7E
:1042500030323436383A94212CE095212AE09621E8
:1042600028E0972126E0982124E0992122E09A2154
:1042700020E09B211EE09C211CE09D211AE09E2154
:1042800018E09F2116E0A02114E0A12112E0A22154
:1042900010E0A3210EE0A4210CE0A5210AE0A62154
:1042A00008E0A72106E0A82104E0A92102E0AA2154
:1042B00000E0AB210122FEF7F8BD7047013908B5D7
:1042C000172941D8DFE801F00C0E10121416181A45
:1042D0001C1E20222426282A2C2E30323436383A2E
:1042E000C4212CE0C5212AE0C62128E0C72126E010
:1042F000C82124E0C92122E0CA2120E0CB211EE010
:10430000CC211CE0CD211AE0CE2118E0CF2116E00F
:10431000D02114E0D12112E0D22110E0D3210EE00F
:10432000D4210CE0D5210AE0D62108E0D72106E00F
:10433000D82104E0D92102E0DA2100E0DB210122CA
:10434000FEF7A4FD012008BD002008BD0139172992
:104350003FD8DFE801F00C0E10121416181A1C1EBC
:1043600020222426282A2C2E30323436383AC421F2
:104370002CE0C5212AE0C62128E0C72126E0C8217B
:1043800024E0C92122E0CA2120E0CB211EE0CC217B
:104390001CE0CD211AE0CE2118E0CF2116E0D0217B
:1043A00014E0D12112E0D22110E0D3210EE0D4217B
:1043B0000CE0D5210AE0D62108E0D72106E0D8217B
:1043C00004E0D92102E0DA2100E0DB210122FEF73E
:1043D0006CBD7047013908B5172959D8DFE801F0DD
:1043E0000C0F1215181B1E2124272A2D30333639A5
:1043F0003C3F4245484B4E5140F2346143E040F26D
:10440000356140E040F236613DE040F237613AE02C
:104410004FF4C76137E040F2396134E040F23A616D
:1044200031E040F23B612EE040F23C612BE040F293
:104430003D6128E040F23E6125E040F23F6122E02C
:104440004FF4C8611FE040F241611CE040F242615C
:1044500019E040F2436116E040F2446113E040F29B
:10446000456110E040F246610DE040F247610AE02C
:104470004FF4C96107E040F2496104E040F24A614B
:1044800001E040F24B610122FEF700FD012008BD72
:10449000002008BD0139172957D8DFE801F00C0FBB
:1044A0001215181B1E2124272A2D303336393C3F84
:1044B0004245484B4E5140F2346143E040F2356191
:1044C00040E040F236613DE040F237613AE04FF4BF
:1044D000C76137E040F2396134E040F23A6131E0DF
:1044E00040F23B612EE040F23C612BE040F23D6146
:1044F00028E040F23E6125E040F23F6122E04FF4C7
:10450000C8611FE040F241611CE040F2426119E0E5
:1045100040F2436116E040F2446113E040F245612D
:1045200010E040F246610DE040F247610AE04FF4CE
:10453000C96107E040F2496104E040F24A6101E0EC
:1045400040F24B610122FEF7B0BC7047013908B55B
:10455000172959D8DFE801F00C0F1215181B1E217E
:1045600024272A2D303336393C3F4245484B4E51A3
:1045700040F24C6143E040F24D6140E040F24E6158
:104580003DE040F24F613AE04FF4CA6137E040F25B
:10459000516134E040F2526131E040F253612EE06B
:1045A00040F254612BE040F2556128E040F2566140
:1045B00025E040F2576122E04FF4CB611FE040F26A
:1045C00059611CE040F25A6119E040F25B6116E06B
:1045D00040F25C6113E040F25D6110E040F25E6128
:1045E0000DE040F25F610AE04FF4CC6107E040F279
:1045F000616104E040F2626101E040F26361012226
:10460000FEF744FC012008BD002008BD0139172930
:1046100057D8DFE801F00C0F1215181B1E212427B4
:104620002A2D303336393C3F4245484B4E5140F2FB
:104630004C6143E040F24D6140E040F24E613DE0AC
:1046400040F24F613AE04FF4CA6137E040F2516105
:1046500034E040F2526131E040F253612EE040F22A
:1046600054612BE040F2556128E040F2566125E0AC
:1046700040F2576122E04FF4CB611FE040F25961F4
:104680001CE040F25A6119E040F25B6116E040F232
:104690005C6113E040F25D6110E040F25E610DE0AC
:1046A00040F25F610AE04FF4CC6107E040F26161E3
:1046B00004E040F2626101E040F263610122FEF732
:1046C000F4BB7047653908B51F2975D8DFE801F0DC
:1046D000101316191C1F2225282B2E3134373A3D72
:1046E000404346494C4F5255585B5E6164676A6D62
:1046F00040F27C615BE040F27D6158E040F27E6117
:1047000055E040F27F6152E04FF4D0614FE040F25B
:1047100081614CE040F2826149E040F2836146E011
:1047200040F2846143E040F2856140E040F28661FE
:104730003DE040F287613AE04FF4D16137E040F26A
:10474000896134E040F28A6131E040F28B612EE011
:1047500040F28C612BE040F28D6128E040F28E61E6
:1047600025E040F28F6122E04FF4D2611FE040F279
:1047700091611CE040F2926119E040F2936116E011
:1047800040F2946113E040F2956110E040F29661CE
:104790000DE040F297610AE04FF4D36107E040F288
:1047A000996104E040F29A6101E040F29B610122CC
:1047B000FEF76CFB012008BD002008BD65391F29EC
:1047C00073D8DFE801F0101316191C1F2225282BBF
:1047D0002E3134373A3D404346494C4F5255585B91
:1047E0005E6164676A6D40F27C615BE040F27D610E
:1047F00058E040F27E6155E040F27F6152E04FF4B4
:10480000D0614FE040F281614CE040F2826149E0CA
:1048100040F2836146E040F2846143E040F285610A
:1048200040E040F286613DE040F287613AE04FF4BB
:10483000D16137E040F2896134E040F28A6131E0D1
:1048400040F28B612EE040F28C612BE040F28D61F2
:1048500028E040F28E6125E040F28F6122E04FF4C3
:10486000D2611FE040F291611CE040F2926119E0D8
:1048700040F2936116E040F2946113E040F29561DA
:1048800010E040F296610DE040F297610AE04FF4CB
:10489000D36107E040F2996104E040F29A6101E0DF
:1048A00040F29B610122FEF700BB7047013908B559
:1048B000032913D8DFE801F00205080B40F29C61E0
:1048C00007E040F29D6104E040F29E6101E040F2A9
:1048D0009F610122FEF7DAFA012008BD002008BD21
:1048E0000139032911D8DFE801F00205080B40F275
:1048F0009C6107E040F29D6104E040F29E6101E0AE
:1049000040F29F610122FEF7D0BA704708B5084611
:10491000114606F0B5FD002008BDFFFFF0B5A3B0BD
:1049200006460C466F4601F1200E206861683D4640
:1049300003C5083474452F46F7D108AD02F12007AE
:10494000106851682C4603C40832BA422546F7D194
:1049500010AC03F1200518685968224603C20833D9
:10496000AB421446F7D1289B18AC03F12005186818
:104970005968224603C20833AB421446F7D1094BAB
:10498000186820909B88ADF88430304669468622AE
:104990000EF0ACFE68460021862225F0F3FB23B022
:1049A000F0BD00BFC0C002000A22002323F0D1BE28
:1049B00038B50A220023044623F0CBFE05462046E4
:1049C00023F0AAFE284438BD38B50446FFF7ECFFB3
:1049D0000546204623F0A0FE284438BD094B0A486E
:1049E00010B500241C60094B214620221C7025F0C4
:1049F000C9FB074B214618684FF48C62BDE8104094
:104A000025F0C0BB5096FF1FD892FF1F9996FF1F3D
:104A1000B08CFF1F70B5084D084C29782046C9019D
:104A200003F040FB297801222046C9011346BDE866
:104A3000704005F0ABB800BF0892FF1F9A96FF1FA9
:104A400038B5284B1B78042B05460C4626D00DD8CC
:104A5000022B13D015D8012B3FD10846224A2946F4
:104A600018F070FA003018BF012038BD062B32D084
:104A70002FD3662B18D0672B21D02EE013F07EFEAB
:104A800001E013F07FFE034617492846224613F043
:104A9000B9FED0F1010038BF002038BD08462A46D3
:104AA000114910F039F808E013F068FE0E4903468A
:104AB0002246284613F02EFF08B1002038BD13F01F
:104AC00061FE094903462246284613F023FF0028C9
:104AD000F3D1064802E0064800E0064805F096FAE1
:104AE000012038BD0892FF1FB892FF1F69B702006E
:104AF00093B70200BDB70200014B00221A60704755
:104B00005496FF1F2DE9F04F91B0DFF85082874D8A
:104B100098F8003093466A46A2EBC3128A460021F9
:104B200004AF0646954628460A4617F0D8F807F11E
:104B30000C0015F092FC07F1180015F08EFC07F13F
:104B4000240015F08AFC98F8003005F11400DB0110
:104B50004FF001116B6015F0F3FC0DF110090446E4
:104B6000002875D1724B98F800207B60194605F13A
:104B70002C00920115F03FFD7B680446002867D1A8
:104B800098F80020920105F13800991815F033FDCE
:104B9000044600285CD105F1080005F12C0105F15F
:104BA000380216F000F80446002851D107F10C0035
:104BB00005F12C01012215F0E0FF0446002847D141
:104BC00007F1180005F13801012215F0D6FF04465F
:104BD00000283DD107F1240007F10C0107F118026C
:104BE00015F0E1FF044698BB05F1200005F1140122
:104BF00007F1240216F00CFD044648BB05F1440001
:104C000005F1200107F10C0216F00AFA0446F8B982
:104C100005F1500005F1200107F1180216F000FA25
:104C20000446A8B905F15C0005F1380105F12C0234
:104C300016F0EEFC044658B93E493F4823F07CFD8F
:104C400069683D48FFF7B4FE284617F081F804462E
:104C500007F10C0015F008FC07F1180015F004FC32
:104C600007F1240015F000FC33482CB133492246EB
:104C700023F062FD324851E03249FBF700FC314637
:104C80002D48FBF718FC98F8003080226FF00901DE
:104C900012FB0311B142DCBF6FF00A0612FB036680
:104CA000202E0CD003DC1C2E0BD105230AE0302E65
:104CB00003D0402E05D1082304E0072302E0062399
:104CC00000E0002300228DE848041F49CDF80C9035
:104CD0000123164817F0BCFB1C4904461648FBF795
:104CE000CEFB5046314603F0DDF998F800204946E6
:104CF000D201584621F034F80C4817F077FC0E48E2
:104D000024B91349FBF7C3FB20460BE01149FBF71D
:104D1000B6FB09482146FBF7CEFB0F4805F076F9B4
:104D20004FF0FF303437BD46BDE8F08FA495FF1F2C
:104D3000F892FF1FD6B702007C000020E2B7020005
:104D4000FBB702001FB802000D4900003AB802008C
:104D500048B802005FB8020032B902000892FF1F93
:104D60002DE9F04F95B05C4B19784FF0FF3202EB14
:104D7000C11202F1010A083222F0070202AFE9462D
:104D8000ADEB020D554A117802AC9B4621B90A469B
:104D900008F074FCF82297E0042940F09080DFF8D6
:104DA0006C814F4ED8F800301C2B45461BD023F0A9
:104DB0001002202A17D0402B15D04A4805F026F9BA
:104DC00048494948FBF763FBD8F800104648FBF711
:104DD00072FB012005F0A8FB0021C8F80010306824
:104DE0004FF48C6268E0DFF8288198F8001098F89A
:104DF0000120009330683D4B08F0A6FC3A4823F0B0
:104E00008BFC2A683A49384823F096FC364823F050
:104E100083FC3068296803F045F9364B3668242254
:104E20001A7031462A687B6007F1080020F098FF6D
:104E3000304600214FF48C6225F0A4F928682E4DED
:104E400007F108012246FFF75DFE7B680646F0B9D0
:104E5000F6222A4924481A70FBF711FB20465146D6
:104E600003F020F998F802209BF800102A60012A2C
:104E700020464FEAC11103D1134604F087FE0BE030
:104E80003246334604F082FE05F036FC04E0002290
:104E90001B481A7005F0BAF8552005F045FB20466E
:104EA0000021524625F06EF92B68012B0ED0154BD0
:104EB000186800214FF4546225F064F906E00A48AE
:104EC0001149FBF7E4FA23220A4B1A704C37CD46FE
:104ED000BD46BDE8F08F00BF0892FF1F46D7FF1FF9
:104EE000B08CFF1F7FB802007C0000201091FF1FD4
:104EF000A8B80200BCA8FF1F20B6FF1FC1B802005F
:104F0000CEB80200A08CFF1FE5B8020048B7FF1F13
:104F100030D1FF1F2DE9F0438FB00EAC002544F8CF
:104F2000285D064688466E486E49174623F004FC05
:104F300021466D4C6A48FFF747FD29462A46204620
:104F400016F0CDFE05A815F088FA684D08A815F0F2
:104F500084FA0BA815F081FA2B7804F11400DB0118
:104F60004FF00111636015F0EBFA0490002862D154
:104F70002A78DFF8949104F12C004946920115F04B
:104F80003AFB0490002856D12A78920104F13800A7
:104F900009EB020115F02FFB049000284BD104F11E
:104FA000080004F12C0104F1380215F0FCFD049016
:104FB000002840D105A804F12C01012215F0DDFDE7
:104FC0000490002837D108A804F13801012215F017
:104FD000D4FD049078BB0BA805A908AA15F0E3FD41
:104FE000049040BB04F1200004F114010BAA16F058
:104FF0000FFB0490F8B904F1440004F1200105AA64
:1050000016F00EF80490B0B904F1500004F120013C
:1050100008AA16F005F8049068B904F15C0004F1E0
:10502000380104F12C0216F0F3FA049018B92C4858
:105030006168FFF7BDFC05A815F016FA08A815F081
:1050400013FA0BA815F010FA2949254823F074FB30
:1050500061682348FFF7ACFC234816F079FE049002
:1050600050B124491E48FBF70AFA1D480499FBF782
:1050700022FA214804F0CAFF049C84B91F49184849
:10508000FBF7FDF94FF4007303938DE8400102979D
:10509000154821462246012317F05EF90490124874
:1050A00017F0A4FA049C0E4854B91549FBF7EFF920
:1050B0000B4831680A22234623F04BFB20460BE0C5
:1050C0000C49FBF7DCF904990548FBF7F4F90D48A6
:1050D00004F09CFF4FF0FF300FB0BDE8F08300BF3D
:1050E0007C00002011B902000C92FF1F0892FF1FE4
:1050F000D6B702005FB80200FBB702001FB902007A
:1051000048B802002CB90200F892FF1F2DE9F04FB9
:1051100085B0584B02AF197800257D6021B90A4649
:1051200008F0ACFAF9229FE0042940F09880524C34
:10513000DFF878B123689BF80020504EB3EBC21F14
:10514000EA4613D04E4804F061FF4D494D48FBF745
:105150009EF921684B48FBF7AEF9012005F0E4F910
:105160002560306829464FF48C6274E0DFF8408196
:10517000DFF8349198F8001098F801200093306817
:10518000414B08F0E1FA3F4823F0C6FA22683F4954
:105190003C4823F0D1FA3B4823F0BEFA306821683E
:1051A00002F080FF242389F800309BF80030366835
:1051B000AAEBC31295460DF1080B31462268344C18
:1051C000584620F0CDFD304629464FF48C6224F03D
:1051D000D9FF5946381D22682E4EFFF79BFE8346A5
:1051E00050BBF623274889F8003023F095FA2A4966
:1051F0002448FBF744F979682248FFF7D9FB27498F
:105200002048FBF73CF97968206802F04BFF1D4805
:1052100023F082FA98F802203260012A2068796827
:1052200003D1134604F0B2FC0BE05A465B4604F08F
:10523000ADFC05F061FA04E0194889F8005004F06B
:10524000E5FE552005F070F93368012B05D0206884
:1052500000214FF4546224F095FFD54606E009483A
:105260001049FBF714F923220F4B1A700C37BD4677
:10527000BDE8F08F46D7FF1F48B7FF1FB08CFF1F58
:105280005BB902007C0000201091FF1F87B902006B
:10529000A08CFF1F20B6FF1FA3B90200B4B9020003
:1052A000C1B90200E5B80200BCA8FF1F0892FF1FA9
:1052B00030D1FF1FF0B52349234F8BB0054623485B
:1052C000FBF7DDF801A815F0C8F82DB204A815F019
:1052D000C4F8AE0107A815F0C0F801A83946324657
:1052E00015F089F9044698B904A8B919324615F0A1
:1052F00082F9044660B907A801A904AA15F053FC75
:10530000044628B907A81249EA0115F0AEF9044687
:1053100001A815F0A9F804A815F0A6F807A815F03B
:10532000A3F814B909480B4904E00B4804F06EFED9
:1053300006480A49FBF7A3F80548E90102F0B2FE66
:105340000BB0F0BDDBB90200F892FF1F7C0000201B
:105350009A96FF1FF2B9020006BA020024BA0200B0
:105360002DE9F0438FB00EAC002544F8285D80464F
:105370000F4660486049164623F0DEF921465F4C2F
:105380005C48FFF721FB29462A46204616F0A7FC79
:1053900005A815F062F85A4D08A815F05EF80BA89C
:1053A00015F05BF82B7804F11400DB014FF00111CC
:1053B000636015F0C5F80490002862D12A78DFF800
:1053C000549104F12C004946920115F014F904900F
:1053D000002856D12A78920104F1380009EB020125
:1053E00015F009F9049000284BD104F1080004F1EC
:1053F0002C0104F1380215F0D6FB0490002840D1AE
:1054000005A804F12C01012215F0B7FB0490002837
:1054100037D108A804F13801012215F0AEFB049041
:1054200078BB0BA805A908AA15F0BDFB049040BBEA
:1054300004F1200004F114010BAA16F0E9F804901D
:10544000F8B904F1440004F1200105AA15F0E8FDC3
:105450000490B0B904F1500004F1200108AA15F03D
:10546000DFFD049068B904F15C0004F1380104F137
:105470002C0216F0CDF8049018B91E486168FFF7A9
:1054800097FA05A814F0F0FF08A814F0EDFF0BA898
:1054900014F0EAFF1B49174823F04EF961681548DC
:1054A000FFF786FA154816F027FC0246049008B16B
:1054B000104814E01449CDF8008013460197029675
:1054C0000E4816F0D3FE04900C4817F08FF8049C99
:1054D000084824B90D49FAF7D2FF204607E00C49E5
:1054E000FAF7CDFF03480499FAF7E5FF04980FB0E7
:1054F000BDE8F0837C00002040BA0200F894FF1F52
:105500000892FF1FD6B702000D49000048B80200FC
:105510005FB80200F892FF1FF0B5044699B0364814
:1055200023F0FAF8E51D35493348FAF7B0FF28466D
:10553000202105F0A5FF2B4604F127026D461868CF
:1055400059682E4603C6083393423546F7D12523C2
:10555000A37120460021012206F05AFF202308A84B
:1055600040216A460EF00CF800212022684624F003
:1055700009FE234808AAA0F516610EF08AFB04462E
:1055800098B1204804F042FD002004F0CDFF08A8A7
:105590000021402224F0F6FD1B4800214FF46062F8
:1055A00019B0BDE8F04024F0EDBD18491248FAF7F3
:1055B0006EFF17491048FAF762FF1148102102F0F8
:1055C00071FD144B0E48F6221A70012213464FF457
:1055D000946104F0DBFA214608A8402224F0D2FDB1
:1055E00021464FF46062084824F0CCFD552004F0B9
:1055F0009BFF19B0F0BD00BF7C0000204EBA020036
:10560000B4C0FF1F6CBA020054B7FF1F87BA020074
:10561000A0BA0200BCA8FF1FF0B504469BB05548D5
:1056200023F07AF854495348FAF731FF534B19786D
:1056300039B90A46204608F021F8514BF9221A7070
:1056400096E0042940F090804E4C4F4D4F4E236819
:10565000009331784E4B7278286808F075F823680B
:10566000B3F5886F2F460CD04A4804F0CFFC0020D9
:1056700004F05AFF286800214FF48C6224F082FD68
:1056800076E00AA84021444A20230DF079FF4348E0
:105690000AAAA0F516610EF0FCFA0446A8B140482B
:1056A00004F0B4FC002140220AA824F06BFD002184
:1056B0004FF460623B4824F065FD286800214FF4F8
:1056C0008C6224F05FFD00204BE0214640220AA8B6
:1056D00024F058FD02A82968324A0EF0E0FBA8B178
:1056E000314804F093FC2146202202A824F04AFD10
:1056F00021464FF460622B4824F044FD286821467F
:105700004FF48C6224F03EFD20462AE027491948D8
:10571000274CFAF7B4FE02A8202102F0C3FC184B74
:10572000F6221A70B37823600122134602A82021C2
:1057300004F02CFA2368012B01D004F0DDFF0021D6
:10574000202202A824F01EFD00214FF460621548BB
:1057500024F018FD386800214FF48C6224F012FD0B
:10576000552004F0E1FE03E002481249FAF78FFEEB
:105770001BB0F0BD7C000020B4BA020046D7FF1F6A
:10578000BCA8FF1F48B7FF1FB08CFF1F30D1FF1F01
:105790001091FF1FD2BA0200B892FF1FB4C0FF1FC2
:1057A000EDBA020054B7FF1F0FBB02002ABB020074
:1057B00020B6FF1FE5B8020010B51D4890B022F0DA
:1057C000ABFF1C491A48FAF762FE684640211A4AA4
:1057D00020230DF0D5FE19486A46A0F516610EF09B
:1057E00058FA0446684674B10021402224F0CAFCED
:1057F00000214FF46062124824F0C4FC114804F008
:1058000005FC10B010BD2146402224F0BBFC012253
:1058100013460A484FF4946104F0B8F90848214649
:105820004FF4606210B0BDE8104024F0ABBC00BF84
:105830007C0000203ABB0200B892FF1FB4C0FF1FDB
:1058400054B7FF1F5BBB0200F0B50446A9B0444843
:1058500022F062FFE51D43494148FAF718FE284649
:10586000202105F00DFE2B4604F127026D46186835
:1058700059682E4603C6083393423546F7D126238E
:10588000A37120460021012210AC06F0C1FD204684
:1058900060216A4620230DF073FE00212022684615
:1058A00024F070FC30482246A0F516610EF0F1F9A4
:1058B00098B12E4804F0AAFB002004F035FE2046E3
:1058C0000021602224F05EFC294800214FF4606230
:1058D00029B0BDE8F04024F055BC08A820A917F075
:1058E0001DFB244A08AD2B4603CBA3421060516038
:1058F0001D4602F10802F6D11F491948FAF7C7FD03
:105900001E491748FAF7BBFD1748102102F0CAFBE1
:105910001B491348FAF7B3FD08A8202102F0C2FB87
:10592000184B1148F6221A70012213464FF4986161
:1059300004F02CF920460021602224F023FC08A862
:105940000021202224F01EFC00214FF462620E4848
:1059500024F018FC552004F0E7FD29B0F0BD00BF8D
:105960007C0000206FBB0200B4C0FF1F8DBB020093
:1059700054B7FF1F54C5FF1FAFBB0200C8BB0200D6
:10598000D8BB0200BCA8FF1F54B7FF1F10B50446C8
:10599000204812F0EDFE204822F0BEFE1E481F49AE
:1059A000FAF775FD6379642B33D9A37903F00F03FC
:1059B000052B04D12046BDE81040FFF7ADBD062BF6
:1059C00004D12046BDE81040FFF73EBF012B04D1B3
:1059D000E11D134817F0A8FA14E0022B02D112F0CF
:1059E000CDFE03E0032B07D112F0CCFE0246E11DF1
:1059F0000B4812F0CBFE05E0042B03D1E01D202163
:105A000005F03EFD064800214122BDE8104024F08B
:105A1000B9BB10BD81B400007C000020DFBB0200D8
:105A20005896FF1F2DE9F0470446BAB0724822F09D
:105A300073FE72497048FAF72AFD714B197839B92B
:105A40000A46204607F01AFE6E4BF9221A70CFE084
:105A5000042940F0C9806C4C6C4D6D4F2368397837
:105A60007A78286800936B4B07F06EFED4F80080BC
:105A7000B8F58C6FAA460CD0674804F0C7FA00202E
:105A800004F052FD286800214FF48C6224F07AFB68
:105A9000AEE022A86021614AD5F8009020230DF0E5
:105AA0006FFD5F4822AAA0F516610EF0F2F80446D9
:105AB000A0B15C4804F0AAFA0021602222A824F0D8
:105AC00061FB00214FF46062574824F05BFB2868BB
:105AD0000021424624F056FB002082E01AAE32A993
