:1000000000800020BD010000911202005D1202007C
:100010005D1202005D1202005D1202005D1202001C
:100020005D1202005D1202005D12020091120200D8
:10003000911202005D120200911202004D120200A4
:10004000911202009112020091120200911202001C
:10005000911202009112020091120200911202000C
:1000600091120200911202009112020091120200FC
:1000700091120200911202009112020091120200EC
:1000800091120200911202009112020091120200DC
:1000900091120200911202009112020091120200CC
:1000A00091120200911202009112020091120200BC
:1000B00091120200911202009112020091120200AC
:1000C000911202009112020091120200911202009C
:1000D000911202009112020091120200911202008C
:1000E000911202009112020091120200911202007C
:1000F000911202009112020091120200911202006C
:10010000911202009112020091120200911202005B
:10011000911202009112020091120200911202004B
:10012000911202009112020091120200911202003B
:10013000911202009112020091120200911202002B
:10014000911202009112020091120200911202001B
:10015000911202009112020091120200911202000B
:10016000911202003D05020091120200911202005C
:1001700091120200911202009112020091120200EB
:1001800091120200911202009112020091120200DB
:1001900091120200911202009112020091120200CB
:1001A00091120200911202009112020091120200BB
:1001B000911202009112020091120200564B4CF271
:1001C000205210B51A804DF628121A8000BF00BFC9
:1001D00021F062F8514B4FF010621A60504A9A6059
:1001E000504ADA60A3F53043203B1A6812F480725B
:1001F00004D14D490A604FF4A8521A604B4B1A784B
:10020000110703D51A7842F008021A70484B2A22C7
:100210001A700023474A48499818884204D247492F
:10022000595899500433F5E7454A464B9A424FF0E6
:10023000000302D242F8043BF7E74349434A5958C6
:1002400099500433B3F5DE7FF7D1414B802103F899
:10025000011B40498B42F9D13F4B1A603F4B0A22A8
:100260001A70A3F5805324225A70A0221A709A792A
:100270009207FCD59A79D406FCD4394B9A7902F0CE
:100280000C02082AF9D105221A7143225A719A796F
:100290009006FCD5324B9A795106FBD5314A4FF086
:1002A000817111600521516020221A702C4B9B79BD
:1002B00003F00C030C2BF9D12B4B2C4A1A602C4B5E
:1002C0002C4A1A6000225A60072243F8042C2A4A5A
:1002D000C3F80C2D62B620F025FF134B1B68DA071C
:1002E00005D5264820F0AAFD254B264A1A60264B44
:1002F0001B785B0609D5224C224A2368934204D11D
:100300001E4820F09BFD0023236022F093FD20F087
:10031000C9FF21F04EFFFEE70E200540308004406B
:10032000823F04000100002B14D0034002D007409C
:1003300000E00740708CFF1FF08EFF1FE0B102004D
:10034000F08EFF1FE0FFFF1F000000000082FF1F74
:1003500000E400E05FE400E008ED00E0005006404B
:10036000004006404480044004800440C010050062
:1003700014E000E03F19010000002020352DBD6A87
:100380001CE00340A5C3945A00F00740FFFFFFFFA5
:10039000FFFFFFFFFFFFFFFFFFFFFFFFFFFFFFFF6D
:1003A000FFFFFFFFFFFFFFFFFFFFFFFFFFFFFFFF5D
:1003B000FFFFFFFFFFFFFFFFFFFFFFFFFFFFFFFF4D
:1003C000FFFFFFFFFFFFFFFFFFFFFFFFFFFFFFFF3D
:1003D000FFFFFFFFFFFFFFFFFFFFFFFFFFFFFFFF2D
:1003E000FFFFFFFFFFFFFFFFFFFFFFFFFFFFFFFF1D
:1003F000FFFFFFFFFFFFFFFFFFFFFFFFFFFFFFFF0D
:10040000FFFFFFFFFFFFFFFFFFFFFFFFFEFFFFFFFD
:1004100010B5054C237833B9044B13B10448AFF33E
:1004200000800123237010BDF08EFF1F000000002C
:10043000E0B1020008B5064B1BB106480649AFF310
:1004400000800648036813B1054B03B1984708BD07
:1004500000000000E0B10200F48EFF1FF08EFF1FCD
:10046000000000007047FFFF08B5C82020F044FEE0
:10047000074A0023137053709370D3701371537134
:10048000044A1370044A1370BDE8084021F0ECB828
:1004900084FFFF1F8AFFFF1F8BFFFF1FF8B51A4B5A
:1004A0001A481B4E1B4F00251D701B4B01241C704E
:1004B00001F0C8FB194B1A481C602022294622F083
:1004C00019FD0823337021F0CFF80F233B7021F082
:1004D000CBF8FFF7C9FF347021F0C6F80923337059
:1004E00021F0C2F814233B7021F0BEF84FF4FA70EB
:1004F00020F002FE0B4B1D7021F0B6F8FFF7B4FFA1
:10050000094B0A4A1A60F8BDFDC7FF1FBCC7FF1F91
:100510008AFFFF1F84FFFF1F808CFF1F848CFF1F3B
:100520001091FF1F8BFFFF1F0CED00E00400FA0588
:100530002DE9F04F964C9FB0002305460DF10F00BA
:10054000237002F05DF9934B1B7823B99DF80F30AF
:1005500003F00F0305E0012B08D19DF80F301B09B4
:100560000C339D4202D1FFF799FFBFE18A4E294625
:10057000304602F0D1F8317811B9304602F0CCF8AB
:10058000337813B9844B04221A700DF10E002946FA
:1005900003F008F99DF80E90C9F3C0038DF80E30F2
:1005A0007E4B1F78002F40F0A1817D4E39464022BE
:1005B0000EA822F09FFC3946FB22304622F09AFC1E
:1005C0000EA8294607F074FAB0F1000826DD754B35
:1005D000CDF800800EA8E9B20F220AF0B7FE9DF810
:1005E0003830082B0CD108F1FF380DF139003146B5
:1005F000424623780DF086F8012784F800800DE04C
:10060000424623780EA831460DF07CF85FFA88F355
:10061000022208F10108F25484F8008000214022EF
:100620000EA822F067FC0EA8294603F047F99DF8B2
:100630003830C9F3800A5BB1AFB91E2B00F250818C
:100640009846237808F10A02F2540133237048E1F6
:10065000BAF1000F0AD05FB9B84623780122F254EC
:100660001344237005E04FF0000802E0D04600E09C
:1006700098460EA8294607F09FFBB0F1000A11DD4D
:10068000CDF800A00EA8E9B20222464B0AF05EFEA9
:100690005246237842490EA80DF034F823789A4444
:1006A00084F800A009F0030A0EA80021402222F0DD
:1006B00021FCBAF1000F0BD057B9BAF1010F02D0EB
:1006C000BAF1020F04D1237806F803A00133237096
:1006D000002140220EA822F00DFC0EA8294603F0AE
:1006E00079F99DF838B00BF1FF331D2B07D837B9D6
:1006F00023780BF10A02F2540133237001E04FF02A
:10070000000B0EA8294602F07FFDB0F1000A11DDB2
:10071000CDF800A00EA8E9B20522224B0AF016FE81
:10072000524623781E490EA80CF0ECFF23789A4419
:1007300084F800A0C9F3011A0EA80021402222F07B
:10074000D9FBBAF1000F0BD057B9BAF1010F02D0A3
:10075000BAF1020F04D1237806F803A00133237005
:10076000002140220EA822F0C5FB0EA8294603F066
:10077000BDF99DF838A00AF1FF331D2B14D89FB99D
:1007800023780AF10A02F254013323700EE000BF0D
:10079000348FFF1FB4D5FF1FA48CFF1FA1C7FF1FFD
:1007A000508FFF1F1091FF1F4FF0000A0EA800216D
:1007B000402222F09FFB9DF80E302BB127B9237801
:1007C0000122F254134423700EA8294603F04AFA7A
:1007D0009DF83830002B6ED0672B46D129460EA8E5
:1007E00007F07CFC434F00900646E9B20EA80922B0
:1007F000414B0AF0ABFD237832460EA839460CF087
:1008000081FF32460EA904A801F020FE01F086FE09
:10081000404400EB0B01514404A801F01BFE0646C6
:1008200001F0B8FE237858B94E22FA541F445322DF
:100830004F237B70FA7054234522BB703A710BE052
:100840003278FA541F4472787A70B378BB70F378B8
:10085000FB7033793B7173797B7123780EA8063373
:1008600000214022237022F045FB9DF83830214EB4
:10087000792B07D12078002130440BF07DFA2378C2
:100880002C3323709DF83830322B01D0592B09D1ED
:100890002078E9B230440BF06FFA2378203303EB71
:1008A000400020709DF83830752B04D12378092240
:1008B000F254013323705FEAD9130E4B04D022782F
:1008C000012199540A44227019F0400F04D0227873
:1008D000022199540132227022780021995405E0B6
:1008E000B846BAF1000F7FF4B8AEC2E61FB0BDE85B
:1008F000F08F00BF508FFF1F1091FF1F0A4B1A7817
:100900000A4B18681AB90A4A5278022A01D12438C7
:1009100007E0012A01D12A3803E0032A0CBF1E3860
:100920003038FFF705BE00BFB4D5FF1F30ADFF1F45
:10093000E8C7FF1F0D4B1A780D4B18681AB90D4AFE
:100940005278022A01D1243807E0012A01D12A383D
:1009500003E0032A0CBF1E383038074B1B78092BE5
:100960000CBF03300630FFF7E3BD00BFB4D5FF1F57
:1009700030ADFF1FE8C7FF1FB78CFF1F10B5464BF8
:100980001B6804461878A0F13103082B06D84FF4F1
:100990007A733038584320F0AFFB42E074285CD0C3
:1009A00072285ED03D4B1B78002B3AD01CB120F052
:1009B000F9FE002435E0702832D0682855D075281B
:1009C00055D06F2855D0652855D0642855D0622859
:1009D00055D04C2855D0522855D0552855D04428AC
:1009E00055D0452855D0632804D12D4B1A7842F0B4
:1009F000010213E0732804D1294B1A7842F0020255
:100A00000CE0612804D1264B1A7842F0040205E07C
:100A1000672806D1224B1A7842F008021A7000E0CB
:100A20004624204B1A780AB91C7012E05A780AB989
:100A30005C700EE09A780AB99C700AE0DA780AB91C
:100A4000DC7006E01A790AB91C7102E05A7902B921
:100A50005C71BDE8104020F007BE002CA7D12B240C
:100A6000DFE7002CA3D12824DBE74A24D9E74B2475
:100A7000D7E74E24D5E74D24D3E74C24D1E72A24E9
:100A8000CFE75024CDE74F24CBE75224C9E75124C8
:100A9000C7E72924C5E700BF4C90FF1FACD5FF1F57
:100AA0008AFFFF1F84FFFF1F2DE9F0415F4B604A63
:100AB0001B7810785F4C4BB1AA2807D121680A78BF
:100AC00022B1092A02D001312160F3E722685A4E8F
:100AD00015783778DFF85C819DB95848584900F09F
:100AE000D5FF5648574901F002F83046294601F033
:100AF00013FE3378002B40F0968004233370BDE85A
:100B0000F08117FB07F7032697FBF6F6012D4FEA56
:100B1000C6064FEA470704D1002B73D14FF22B00D2
:100B200066E0022D04D1002B6CD14FF228005FE06B
:100B3000092D11D1444C01232360444B1E681D46EE
:100B400006F57A662268002A61D02B68B3425ED22D
:100B500000200CF059F8F5E7A5F10A01C8B21528F4
:100B60000DD8002B5FD14FF47A70484320F0C4FABF
:100B7000D8F800300133C8F80030BDE8F081202DEE
:100B800034D151785C2931D10132C8F800209BB1B1
:100B9000BDE8F0815C2B14D1264B01321A60002095
:100BA000FFF7ECFE304620F0A7FA23685A1C2260BB
:100BB0005A78202A07D04AB122681378002BE9D14D
:100BC00012E00120ECE71B4A0233136020F036FEEE
:100BD000304620F091FA20F031FEFFF745FC384610
:100BE000BDE8F04120F088BABDE8F08153B928464D
:100BF00020F0D8FD304620F07FFA20F01FFE384666
:100C000020F07AFA236801332360BDE8F0810023E5
:100C10000A480B49236000F039FF08480949BDE83C
:100C2000F04100F064BFBDE8F08100BFA1C7FF1F25
:100C300026C7FF1F4C90FF1FA48CFF1F8490FF1F2F
:100C4000388FFF1F0C8FFF1F44D7FF1F8CFDFF1F26
:100C500008B5054807F09AFE044B012205201A70DA
:100C600007F0A2FFF5E700BF2C3A020026C7FF1FDE
:100C70002DE9F74F9B4F3B7804465BB99A4B1B78A5
:100C8000092B05D1142803DD984B1A6803321A602A
:100C90002D2000E0002007F03DFF954B1A68022A46
:100CA000994601DDFFF7D4FF924E3368013333607C
:100CB000914B1A789A46002A35D0684601F0BAFD61
:100CC0009DF80030D3B101A801F0A7FD9DF80430D4
:100CD000132B0DD900238948FF221A540133202BEE
:100CE000F9D109F0B1FC02A8002300F8013D03E0AE
:100CF00001338DF8043001A801F097FD804B1A688C
:100D000001321A609DF8003032680133DBB20132E3
:100D10000A2B8DF8003032602FD8684601F092FD22
:100D200000238AF80030DFF8D881704DD8F8003001
:100D3000297874480133C8F8003000F076FF336832
:100D400001333360704B1B680321B3FBF1F202EBFC
:100D50004202981A0B40184420F0CEF93B78C34663
:100D6000A3BB684800F088FF80BB664801F0BEF86E
:100D700060BB644801F0B8F910B107F023FEF6E15A
:100D8000D8F80030614C0133C8F800302368092BD3
:100D900002DC01332360EAE1D9F8003001252B445D
:100DA000C9F800305A4B8AF8005003201D7007F034
:100DB000FBFE684601F03EFD524800F043FFD9F8C3
:100DC00000302560022B40F3D2816BE7DBF8003066
:100DD00097F800800133CBF80030B8F1000F3FD115
:100DE00002AC04F8018D204601F02CFD454800F0CE
:100DF00029FF484BC9F800801A781E4622B9464898
:100E00000BF06EFE07F0C2FD414D4449444800F02E
:100E10003DFE287807F06AFB552007F073FF1AF0B3
:100E200053FB002320463F4C8DF8073001F0FDFCBA
:100E30000CF072FC3C4B22681A6033780120387049
:100E400013B1287007F052FB2568C8352368AB4200
:100E500003D200200BF0D8FEF8E71FF02DFA86E150
:100E6000324B1B682BB9324B1B68002B00F07F8183
:100E70000FE0092B0DDC274B1B78002B00F077814E
:100E8000234C2D230120237007F08EFE01232370B5
:100E90006DE1284900230B70224B1868224B186023
:100EA00025480378012B884602460BD1234991F847
:100EB0000090296849454ED12149097800294AD036
:100EC00002230CE0022B3FD11E4991F800902968C3
:100ED000494540D11A49097800293CD003230370C1
:100EE00045E100BFFDC7FF1FB78CFF1F30ADFF1FDF
:100EF0004C8FFF1F8890FF1F808CFF1FB090FF1F3B
:100F00008C90FF1FBCC7FF1F5CC8FF1F848CFF1F96
:100F100026C7FF1FAFD5FF1F8C3A0200208FFF1F8F
:100F20008490FF1F8CFDFF1F10D6FF1FB8C7FF1F47
:100F300028D6FF1F508FFF1F50C7FF1F0CD6FF1F63
:100F4000A1C7FF1F0DD6FF1F032B04D189490878C5
:100F50002968814204D088490978012906D173B1F2
:100F60008649097811B18649097879B9032B06D1E8
:100F700083490978F52902D18049097831B9804936
:100F80000978F62907D17D49097821B10423137026
:100F90000CF0C4F8EBE0EBB1774B1D78774B1C7885
:100FA00000231370774A1370774A1370714A012037
:100FB000137007F0A7FE0CB9744803E0012D0CBFB5
:100FC0007348744807F0E2FC734BFF2118781FF058
:100FD0008FFFCCE0A4F148036B2B10D82B68312B8A
:100FE0000DD1664B1B7853B96C486D4900F04EFD2E
:100FF0000AF0EAFE69486A4900F079FDB7E0694BFA
:10100000197809290BD1B4F5B47F08DB2B68322B92
:1010100007D1654B1B7823B107F0D4FC7AE0472C4D
:1010200078DD2B68322B0DD154480078002848D148
:10103000012007F005FC8B2C40F39980012007F07C
:1010400055FB94E0332B3CD14C480078002838D134
:1010500009291ED1B32C1CDC544B5A7822B9544AAE
:1010600054211170012205E0012A05D1504AD621F0
:10107000117002225A707AE0022A04D14C4A80216F
:1010800011700322F6E7032A71D1494A5870107093
:101090006DE00024012647483C708AF8006000F0AB
:1010A000D1FD454B45481E602022214621F022FFFC
:1010B0003A48434900F01BFD424B434A2C601A60FA
:1010C00055E0092903D1B32C24DD312B02E0472C54
:1010D00020DD362B1ED1294B1B78DBB9316801315D
:1010E0003160314901240C7030490978A1420BD09C
:1010F00030483B708AF8004000F0A4FD2E4B274892
:101100002F491C6000F0F3FCDBF800300133CBF812
:1011100000302CE0002007F0FDFC142C05DC224BF5
:101120001B7813B9FFF7EAFB14E0A4F11503442B75
:1011300005D81D4B1B786BB9FFF7FCFB0AE0592C57
:1011400008DD194B1B782BB9204B012202201A70A5
:1011500007F02AFD1E4B11481149C3F8008000F02A
:1011600095FC1C4B0D481C491A7800F0A1FC03B0FB
:10117000BDE8F08F0ED6FF1F51C7FF1FA1C7FF1F8D
:10118000E5ACFF1F0CD6FF1F0DD6FF1FA03A0200D3
:10119000DF3A0200033B020059C8FF1F8490FF1F83
:1011A0000C8FFF1FB78CFF1FAFD5FF1FE8C7FF1FB6
:1011B00030C8FF1FBCC7FF1F848CFF1F1091FF1F8B
:1011C000208FFF1F0CED00E00400FA0526C7FF1F6B
:1011D0004C90FF1FA48CFF1F388FFF1FF8B52120F4
:1011E0001FF05CFEE8B94F4B1D6804461E4632688E
:1011F00040F6B733521B9A4207D864201FF07CFF99
:1012000021201FF04BFE0444F1E754B92046012190
:1012100020F020FD0120014620F01CFD424B434AF6
:101220001A60434B434D1B7A012B0DD1424B1B7867
:101230000BB12B7843B1414B1B78032B02D0032019
:1012400005F044FD0BF0BCFF3D4B3E4C1A680132EB
:101250001A603D4B1A680623B2FBF3F003FB102023
:101260001FF04AFF2278394B22B31A68002001325E
:101270001A600BF0C9FC364B1B782BB1354B1B7831
:10128000042B01D10BF04AFF334B1B78ABB1334B2E
:101290001B6893B107F0BEF8314B1B786BB1214A44
:1012A0001168304A12688A1A4EF660214B439A42FE
:1012B00021D202E01A6801321A602B784BB12378F0
:1012C0003BB11D4B1B7823B9274B0120187007F049
:1012D0000DF908F061F9254A12780A32D2B2012AD2
:1012E00004D82D20BDE8F84007F014BCC8B1BDE813
:1012F000F840FFF7BDBC1E4B1E48002601271F709B
:10130000267000F09FFC1C4B1C481F6020223146B9
:1013100021F0F0FD1A481B4900F0E9FB034A024B9B
:10132000CAE7F8BD8CFDFF1F0CED00E00400FA05D4
:10133000A3C7FF1FAFD5FF1FA1C7FF1F28C7FF1FF0
:101340008890FF1FFDC7FF1F5CC8FF1F8C90FF1F09
:1013500060C8FF1F50C7FF1FA2C7FF1F28D6FF1F6F
:10136000BC8CFF1F10D6FF1F26C7FF1F25C7FF1FFE
:10137000808CFF1FBCC7FF1F848CFF1F1091FF1FB5
:101380008490FF1F208FFF1FF8B51D4F3B78092B5E
:1013900030D11C4C0021204620F038FE40B3237988
:1013A000E12B25D163792F2B22D9174B1B78FBB169
:1013B000164E3578E5B93B78092B19D1144B1548F1
:1013C00001221A7000F03EFC0CF08AF9124B0A2040
:1013D0001860124B1D60FFF74BFC20462946402247
:1013E00021F088FD337853B10D480BF079FB02E012
:1013F0000C4800E00C48BDE8F84007F0C7BAF8BD5B
:10140000B78CFF1F58C7FF1FA2C7FF1FFDC7FF1FD5
:10141000808CFF1FBCC7FF1F848CFF1F30ADFF1FD8
:101420008C3A0200293B0200373B020008B520F04D
:10143000C7FB3221084A094800F09CFB3221084AC8
:10144000084800F097FB0848084A4FF47A71BDE855
:10145000084000F08FBB00BFDD1100000C8FFF1FA4
:10146000A90A0000388FFF1F208FFF1F891300007B
:1014700070B5B8B0044668460E46154611F036F809
:10148000684610F0FDFF684631462A4611F0D4FA4E
:1014900068462146402211F012FB684611F00CF814
:1014A00038B070BDF0B5ADF5844D9BB0054646F241
:1014B0006004684621464FF4804205F053FC46F232
:1014C00060039C4204D1284669464FF4804210E0F4
:1014D0002B460DF5804605F14007186859683246DD
:1014E00003C20833BB421646F7D12846694644F288
:1014F0004002FFF7BDFF044B04F580449C42D8D165
:101500000DF5844D1BB0F0BD60A003007FB5102029
:1015100020F0C8FC6D4B6E4E6E4C6F486F4D002234
:101520001A706F4B06221A706E4B01221A706E4BA6
:1015300016221A706D4B17221A706D4B11221A70F9
:101540006C4B0F221A706C4B10221A700E23202144
:1015500033701523237006F0F1F9286000F06AFA61
:10156000307820F0C9FC0290207820F0C5FC634B55
:1015700003901A6801321A60614B1B78442B16D015
:101580006048FFF78FFF02245E4EA319204613F830
:10159000021C013420F05EFB422CF5D130460021C4
:1015A0004FF4006221F0A6FC44200FF003FF2C68EA
:1015B0007CB905F0BFFB4FF4F860032120F04AFB33
:1015C000514801F022F8514B01221A70504B1C7007
:1015D00035E04B4B1B78442B2ED120214D484E4CEF
:1015E00006F0F0F94D4806F003FA4D4806F036FAD9
:1015F0000021204601F090F84A4801F073F8237862
:101600000BB904232370484801F0E0F8474801F083
:10161000EAF83D4800F0F1FF454801F0CAF81FF034
:10162000CFFD3A4B4348444900221A70384B0122FF
:101630001A7000F05CFA02E0404B414A1A60414BDC
:1016400041481A68414901321A6040F2FD7211F0B6
:101650006DFC3D4802A90222042311F01FFC3A4808
:1016600003A90222042311F019FC07F07BFD07F007
:1016700031FA07F06DFF2F48354900F038FA2D6830
:101680009DB93448344E01240470347000F0F1FFE9
:10169000304600F0FBFF04A800F80A4D01F003F803
:1016A00004A800F8095D01F00BF82C4B1B78092BFE
:1016B00009D1174B1B7833B1294800F0DDFA10B17E
:1016C0000A20FFF7D5FA04B070BD00BFB4D5FF1FE4
:1016D000A1D5FF1FE4ACFF1F9090FF1F28D6FF1F6E
:1016E00059C8FF1F2CD6FF1F2DD6FF1FFEC7FF1F97
:1016F00034D6FF1FADD5FF1F85D6FF1F8890FF1F73
:10170000020002406CADFF1FBC8CFF1FFDC7FF1F16
:10171000A2C7FF1FB090FF1FA48CFF1FF090FF1FF8
:10172000D090FF1FACD5FF1FA2D5FF1FFFC7FF1F23
:10173000DAFFFF1F8490FF1F208FFF1F0CED00E0DA
:101740000400FA058C90FF1F88D6FF1F943A020010
:101750000C8FFF1F00C8FF1FFCC7FF1FB78CFF1FA8
:10176000BCC7FF1F2DE9F04F0A46C9B00023CD5C6E
:10177000D47844EA0564557844EA0544957803F141
:10178000200644EA052404336D46402B745102F1CF
:101790000402ECD108AB002208AF9C6B5E6ABD5816
:1017A000596835444FEA744686EAF44686EA94243A
:1017B0002C444FEAF11585EAB14585EAD10104329E
:1017C0002144C02A196403F10403E5D1026D00929B
:1017D000436D426E0193856D836EC66D076E0295F3
:1017E0000396C56E0497059217469DE8140006936C
:1017F0001E46DDF80CC0049B02990795A8460025FB
:1018000005F1200BE9465BF809A0DFF8989055F840
:101810000990D1444FEAB31A8AEAF32A8AEA736A32
:10182000D14426EA030B07EA030A8BEA0A0AD144E9
:10183000C84481EA040901EA040A09EA020989EABA
:101840000A094FEAB20A8AEA723A8AEAB25A0435B7
:10185000D144B5F5807FC444C14408D0B0463E466B
:101860001F4663468C46214614464A46C8E7009DFB
:101870004D440565019D2A444265029A039D144426
:10188000049A846562440266059A134429444366B7
:10189000079D069BC1651F442E448766C66649B0F6
:1018A000BDE8F08F443B02000023036400220023C4
:1018B000C0E912230A4B03650A4B43650A4B836553
:1018C0000A4BC3650A4B03660A4B43660A4B8366A1
:1018D00003F17453A3F52303A3F69243C366704741
:1018E00067E6096A85AE67BB72F36E3C3AF54FA5B1
:1018F0007F520E518C68059BABD9831F2DE9F041B7
:1019000006460F4601EB0208474516D0336C17F820
:10191000012BF2540133402B3364F5D1304631466C
:10192000FFF720FFD6E9124514F5007445F10005D4
:101930000023C6E912453364E6E7BDE8F081026C96
:101940002DE9F84F372A88464FF08001814602F191
:101950000103815406D8382B14D0002209F8032043
:101960000133F8E73F2B04D8002209F803200133A4
:10197000F8E748464946FFF7F5FE48460021382279
:1019800021F0B8FAD9F84030D900D9E91223521819
:1019900043F100034FEA122A160C140E4AEA036AB6
:1019A0004FEA132B46EA03461F0C44EA03241D0E9C
:1019B000C9E9122389F83B30494689F83F2089F864
:1019C0003EA089F83D6089F83C4089F83AB089F832
:1019D000397089F838504846FFF7C4FE4346032162
:1019E000D9F85000CA00D0401870D9F85400D0403F
:1019F0001871D9F85800D0401872D9F85C00D0405E
:101A00001873D9F86000D0401874D9F86400D04039
:101A10001875D9F86800D0401876D9F86C000139EB
:101A200020FA02F21A774A1C03F10103D8D1BDE86B
:101A3000F88FFFFF07B5064B06499A680092DA68EF
:101A400001920CCB044821F089FC03B05DF804FB43
:101A50005090FF1F443C02006090FF1F064B1A6825
:101A6000064B1A60064A12685A60064A12689A6063
:101A7000054A1268DA607047548004405090FF1F96
:101A8000588004405C80044060800440036873B167
:101A90008B4205D11B69036070478A4204D013460C
:101AA0001A69002AF9D102E00A691A617047704781
:101AB00070B506460C461546FFF7E8FF33680BB9CC
:101AC000346004E01A690AB11346FBE71C611FF099
:101AD000F3FA23680322C01A4FF4FA536B43B5FBA1
:101AE000F2F55D43002360602560236170BD38B569
:101AF00005460C46FFF7CAFF2B680BB92C6004E0C3
:101B00001A690AB11346FBE71C611FF0D5FA236876
:101B1000C01A00236060236138BD38B50C461FF041
:101B2000CBFA6268236813449842054605D362687D
:101B3000934208D26268824205D86268954207D211
:101B400062689A4204D8A560E368204698476560B9
:101B500038BD38B505462C68002CFCD021462846F7
:101B6000FFF7DBFF2469F7E708B50148FFF7F1FF4E
:101B70008490FF1F10B54FF47A746143C260002255
:101B800001604260026110BD4FF47A7359430160F5
:101B90007047FFFFF8B504460E4615461F46044A37
:101BA000FFF7E8FF6661E561A7612046F8BD00BF69
:101BB000D51B000010B50021044680F82010FFF767
:101BC000E3FF21460248BDE81040FFF790BF00BF89
:101BD0008490FF1F10B590F8203004463BB90123D4
:101BE00080F820304169BDE81040FFF7CDBF012BE0
:101BF00010D109482146FFF749FFE36913B9A069ED
:101C000020B910BD2046984720B1F8E7BDE8104044
:101C1000FFF7D0BF10BD00BF8490FF1F00224161BD
:101C200042740270704741617047437C102B07D0AB
:101C30005A1CD2B24274C15400238354012070470D
:101C400000207047002343740370704710B5446947
:101C500002782178002321B9D2F1010038BF002099
:101C600010BD914206D1E2185178C2180133102BF1
:101C70005278F0D1002010BD2DE9F043B9B00446F0
:101C800021F0A7FB8C4B00221A708C4A1278092A8B
:101C9000054619460ED168B9894B224603F110005A
:101CA00053F8045B42F8045B8342F9D101230B70C3
:101CB000102505E0062803D81E201FF01DFAF6E0C7
:101CC0001CA8FFF7F1FD21462A461CA8FFF716FEC7
:101CD00020221CA87B497C4CFFF710FE1CA80CA9F5
:101CE000FFF72DFE9DF8303023F007038DF83030DC
:101CF0009DF84F3003F03F0343F040030CA900224E
:101D000020468DF84F3010F087F81CA8FFF7CCFD67
:101D100014A800F09CFD1CA814A91022FFF7EEFDEA
:101D20001CA86A491022FFF7E9FD20221CA82146C1
:101D3000FFF7E4FD21461CA8FFF701FE1CA8FFF7F2
:101D4000B3FD1CA814A91022FFF7D8FD1CA85F49F9
:101D50001022FFF7D3FD20221CA85D49FFF7CEFD1E
:101D60001CA804A9FFF7EBFD5A4B9DF81050D3F8BF
:101D70000080594B20781A68531C02F11F0902F1A8
:101D8000200CC2EB08014B4503F1FF37C2F10006FE
:101D9000194477D14F4B504C19608542276004D0CD
:101DA0004D4B1A6801321A6081E00DF10F0000F00E
:101DB000A6FC9DF80F504448012D28D105F064FE83
:101DC00018B94148454A0CA927E00CA9434A04A880
:101DD00010F022F81CA8FFF767FD1CA814A9202208
:101DE000FFF78CFD1CA83E491022FFF787FD1CA8B9
:101DF00004A92022FFF782FD1CA832492022FFF708
:101E00007DFD1CA80CA9FFF79AFD00952AE005F0BE
:101E10003BFE28B92C482E4A0CA90FF0FDFF27E005
:101E20000CA92B4A04A80FF0F7FF1CA8FFF73CFDF4
:101E30001CA814A92022FFF761FD1CA82849102224
:101E4000FFF75CFD1CA804A92022FFF757FD1CA882
:101E50001C492022FFF752FD1CA80CA9FFF76FFDBB
:101E60000123009318481E490CAA202304F04AFCC1
:101E700023681C4A01332360002313701A4A01208F
:101E8000136015E0854204D0124B1960124B1F609D
:101E900086E704A830442644C55CF05C1E46013346
:101EA00063457FF46EAF0B4B19600B4B1E60002037
:101EB00039B0BDE8F08300BFE8C7FF1FB78CFF1F34
:101EC0007290FF1F9090FF1F1091FF1F7090FF1FD7
:101ED000B090FF1F8890FF1F8C90FF1FD090FF1FB6
:101EE0006090FF1FB4D5FF1F30C8FF1F2DE9F043DE
:101EF000B9B0054621F06DFA0628044603D81E2025
:101F00001FF0FAF873E01CA8FFF7CEFC2946224622
:101F10001CA8FFF7F3FC20221CA86849684CFFF7B7
:101F2000EDFC1CA80CA9FFF70AFD9DF8303023F04A
:101F300007038DF830309DF84F3003F03F0343F036
:101F400040030CA9002220468DF84F300FF064FFAB
:101F50001CA8FFF7A9FC14A800F079FC1CA814A980
:101F60001022FFF7CBFC1CA856491022FFF7C6FC35
:101F700020221CA82146FFF7C1FC21461CA8FFF720
:101F8000DEFC1CA8FFF790FC1CA814A91022FFF788
:101F9000B5FC1CA84B491022FFF7B0FC20221CA85E
:101FA0004949FFF7ABFC1CA804A9FFF7C8FC474B45
:101FB0009DF81050D3F80080454B20781A68531CC8
:101FC00002F11F0902F1200CC2EB08014B4503F19D
:101FD000FF37C2F10006194457D13C4B3C4C196005
:101FE0008542276005D03A4B1A6801321A600020FA
:101FF00060E00DF10F0000F082FB9DF80F30022B26
:1020000038D02F4805F040FD28B90CA9314A2C489A
:102010000FF002FF27E00CA92E4A04A80FF0FCFEE7
:102020001CA8FFF741FC1CA814A92022FFF766FC9E
:102030001CA829491022FFF761FC1CA804A9202232
:10204000FFF75CFC20221CA81C49FFF757FC1CA8CA
:102050000CA9FFF774FC0123009319481E490CAA30
:10206000202304F04FFB1D4B01221A701C4B5422FD
:102070001A7005E01B4A1278002AB8D1174A13706B
:10208000236801332360012014E0854204D00F4B04
:1020900019600F4B1F60A6E704A830442644C55CB6
:1020A000F05C1E46013363458ED1084B1960084B26
:1020B0001E609CE739B0BDE8F08300BF9090FF1F21
:1020C0001091FF1F7090FF1FD090FF1F8890FF1F7F
:1020D0008C90FF1FB090FF1F6090FF1FB4D5FF1FB3
:1020E00030C8FF1FAFD5FF1F30B59DB0054621F0AA
:1020F00070F90628044603D81E201EF0FDFF22E0DA
:102100006846FFF7D1FB2246684629460F4CFFF789
:10211000F5FB202268460E49FFF7F0FB6846214692
:10212000FFF70DFC0B4920780A78002382420AD180
:10213000CA18E01801331E2B52784078F6D1131AD2
:102140005842584100E000201DB030BD1091FF1FE3
:102150009090FF1FF090FF1F1FF032BD10B5084B8D
:1021600000F14C0203F1140153F8044B42F8044B04
:102170008B42F9D10023036680F8483010BD00BFC0
:10218000888CFF1F2DE9F04F416D826DC36DD0F833
:102190004C80D0F850C085B09946019102920393CB
:1021A0004646134600240A466146E5B20F2D07D87D
:1021B00083EA020A0AEA010A8AEA030A334F3FE085
:1021C00004F10D0B04F108070BF00F0B07F00F07DC
:1021D0000BF1020B023705F00F0A50F8277050F888
:1021E0002BB000EB8A0A8BEA070BDAF808708BEA4F
:1021F000070BA71C07F00F070237132D50F82770A5
:102200008BEA07074FEAF777CAF80870D0D9272D6D
:1022100005D882EA010A8AEA030A1D4F10E03B2D25
:1022200009D842EA010A02EA01070AEA030A4AEA6D
:10223000070A184F04E082EA010A174F8AEA030AE4
:1022400005F00F050235574450F82550013405EBD1
:10225000F6653D44502C4D444FEAB10105D09946F6
:1022600013460A4631462E469FE7019C21444165AC
:1022700002990A448265039A454466441344C5643E
:102280000665C36505B0BDE8F08F00BF9979825A35
:10229000A1EBD96EDCBC1B8FD6C162CA90F8483066
:1022A00083F003020133DBB20244402B10B51172FC
:1022B000044680F8483004D1FFF764FF002384F817
:1022C000483010BD08B5026E01320266FFF7E6FF26
:1022D000012008BD10B580210446FFF7DFFF94F808
:1022E0004830382B20464FF00001F6D1FFF7D6FFDB
:1022F00020460021FFF7D2FF20460021FFF7CEFF46
:10230000216E2046490FFFF7C9FF216E2046C1F319
:102310004751FFF7C3FF216E2046C1F34731FFF756
:10232000BDFF216E2046C1F34711FFF7B7FF216EB5
:10233000C900204601F0F801BDE81040FFF7AEBF2C
:1023400010B50446FFF7C6FF0023E2180433D16C32
:10235000142B09BAD164F8D104F14C0010BDF8B5C2
:1023600000F16406174604460D463046002140221F
:1023700020F0C0FD402F18DD2046FFF7EFFE2F4470
:10238000BD4206D0236815F8011B1B6820469847FC
:10239000F6E72046FFF7D4FF00F1140250F8041BC3
:1023A00046F8041B9042F9D104E0304629463A46EB
:1023B0001DF0C8FE2046FFF7D1FE254604F1400679
:1023C00095F86410236820461B6881F036010135BA
:1023D0009847B542F4D1F8BD70B50446FFF7B0FF99
:1023E00004F1A40300F1140250F8041B43F8041B89
:1023F0009042F9D12046FFF7B1FE04F14006254690
:1024000095F86410236820461B6881F05C01013553
:102410009847B542F4D104F114062546236895F88F
:10242000A4101B68204601359847B542F6D12046D6
:10243000BDE87040FFF784BF024B00221A71024AC8
:102440001A6070473091FF1F683C020080E8060068
:102450007047FFFF1E2391FBF3F10B0E70B51E4E6C
:1024600003740B140446002543740B1281608374BB
:10247000C174057394E8060045738573C5733046CF
:10248000FFF76DFF336804F10C015B6808223046EA
:1024900098473046FFF7A0FF6061C37CE56103F019
:1024A0000F03A361E269C1181202E261495D0135BF
:1024B0000A43042DE261F5D1084B22F0004292FB61
:1024C000F3F103FB1122E26120342046044920F09D
:1024D00045FF204670BD00BF3091FF1F40420F00F6
:1024E000703C0200074B1860074B1B681844074BF1
:1024F0001860074B02221A70064B1A68064B1A60C6
:10250000704700BFE891FF1F9C8CFF1FF891FF1FD1
:10251000EC91FF1F8CFDFF1FF491FF1F70B5164952
:10252000164C0A68236816480068801AB0F57A7F4E
:1025300002F57A7603F1010502D32B463246F2E723
:10254000104D0A602A6823609A4213D80E4B1B680C
:1025500083B1984710B1FFF7C5FF0BE00B4B1A682A
:10256000064B1B6813442B60094B1A78003218BFC6
:1025700001221A70206870BDF491FF1FE891FF1FBF
:102580008CFDFF1FF891FF1FF091FF1F9C8CFF1F18
:10259000EC91FF1F08B5FFF7C1FF014B187808BD8C
:1025A000EC91FF1FF8B506460D468F180C46BC424D
:1025B00006D020461FF03AFB731B18550134F6E78E
:1025C000F8BDF8B506460D468F180C46BC4206D03D
:1025D000731B2046195D1FF03DFB0134F6E7F8BD83
:1025E00008B54FF4D5610122FFF7DCFF012008BDDB
:1025F0004FF4D5610122FFF7E4BF08B540F2A961AD
:102600000122FFF7CFFF012008BD40F2A96101229E
:10261000FFF7D7BF08B540F2AA610122FFF7C2FF5A
:10262000012008BD40F2AA610122FFF7CABF08B528
:1026300040F2D561D022FFF7B5FFD02008BD40F2AF
:10264000D561D022FFF7BDBF08B540F2AB610122D2
:10265000FFF7A8FF012008BD40F2AB610122FFF7A0
:10266000B0BF08B540F2AC610122FFF79BFF01202B
:1026700008BD40F2AC610122FFF7A3BF08B540F2EC
:10268000AD610122FFF78EFF012008BD40F2AD6170
:102690000122FFF796BF08B54FF4FB610122FFF757
:1026A00081FF012008BD4FF4FB610122FFF789BFC4
:1026B00008B540F2D9710122FFF774FF012008BD6F
:1026C00040F2D9710122FFF77CBF08B540F2A57135
:1026D0000122FFF767FF012008BD40F2A57101222A
:1026E000FFF76FBF08B540F2A6710122FFF75AFF4E
:1026F000012008BD40F2A6710122FFF762BF08B5B4
:1027000040F2AE610122FFF74DFF012008BD40F20B
:10271000AE610122FFF755BF10B5044629B940F25A
:10272000AF610122FFF73EFF17E04B1E0B2B08D8CD
:1027300001F2CB710122FFF735FF237803F00F037D
:102740000AE0A1F10D030B2B07D801F2CB71012296
:10275000FFF728FF23781B092370012010BD70B5F7
:1027600001F2CB760D460446314601300122FFF7D7
:1027700019FF1DB9204640F2AF6114E06B1E0B2B10
:1027800005D86378227823F00F03134408E00D3D49
:102790000B2D0DD86378227803F00F0303EB02139F
:1027A0002370204631460122BDE87040FFF709BF83
:1027B00070BD08B54FF4D6610122FFF7F3FE01208A
:1027C00008BD4FF4D6610122FFF7FBBE08B540F209
:1027D000D3610122FFF7E6FE012008BD40F2D3617C
:1027E0000122FFF7EEBE08B540F2BF710122FFF7EC
:1027F000D9FE012008BD40F2BF710122FFF7E1BE02
:1028000008B540F2D4610122FFF7CCFE012008BDDB
:1028100040F2D4610122FFF7D4BE08B540F2B161A5
:102820000122FFF7BFFE012008BD40F2B161012285
:10283000FFF7C7BE08B540F2B2610122FFF7B2FE52
:10284000012008BD40F2B2610122FFF7BABE08B50F
:1028500040F2B3612022FFF7A5FE202008BD40F220
:10286000B3612022FFF7ADBE08B540F21C61012222
:10287000FFF798FE012008BD40F21C610122FFF71E
:10288000A0BE08B540F21D610122FFF78BFE0120BA
:1028900008BD40F21D610122FFF793BE08B540F26A
:1028A0001E610122FFF77EFE012008BD40F21E617D
:1028B0000122FFF786BE08B540F21F610122FFF733
:1028C00071FE012008BD40F21F610122FFF779BEB1
:1028D00008B54FF4C4610122FFF764FE012008BD72
:1028E0004FF4C4610122FFF76CBE08B540F22161CC
:1028F0000122FFF757FE012008BD40F221610122AD
:10290000FFF75FBE08B540F222610122FFF74AFEE1
:10291000012008BD40F222610122FFF752BE08B536
:1029200040F223610122FFF73DFE012008BD40F285
:1029300023610122FFF745BE08B540F22461012260
:10294000FFF730FE012008BD40F224610122FFF7AD
:1029500038BE08B540F225610122FFF723FE0120B1
:1029600008BD40F225610122FFF72BBE08B540F2F9
:1029700026610122FFF716FE012008BD40F2266104
:102980000122FFF71EBE08B540F227610122FFF7C2
:1029900009FE012008BD40F227610122FFF711BEA8
:1029A00008B54FF4C5610122FFF7FCFD012008BD09
:1029B0004FF4C5610122FFF704BE08B540F229615A
:1029C0000122FFF7EFFD012008BD40F2296101223D
:1029D000FFF7F7BD08B540F22A610122FFF7E2FDDB
:1029E000012008BD40F22A610122FFF7EABD08B5C7
:1029F00040F22B610122FFF7D5FD012008BD40F216
:102A00002B610122FFF7DDBD08B540F22C610122E8
:102A1000FFF7C8FD012008BD40F22C610122FFF73D
:102A2000D0BD08B540F22D610122FFF7BBFD0120AA
:102A300008BD40F22D610122FFF7C3BD08B540F289
:102A40002E610122FFF7AEFD012008BD40F22E618C
:102A50000122FFF7B6BD08B540F22F610122FFF752
:102A6000A1FD012008BD40F22F610122FFF7A9BDA1
:102A700008B54FF4C6610122FFF794FD012008BD9F
:102A80004FF4C6610122FFF79CBD08B540F23161E9
:102A90000122FFF787FD012008BD40F231610122CC
:102AA000FFF78FBD08B540F232610122FFF77AFDD2
:102AB000012008BD40F232610122FFF782BD08B556
:102AC00040F233610122FFF76DFD012008BD40F2A5
:102AD00033610122FFF775BD08B5AC210122FFF774
:102AE00061FD012008BDAC210122FFF76ABD08B5D8
:102AF000AD210122FFF756FD012008BDAD210122C5
:102B0000FFF75FBD08B5AE210122FFF74BFD0120A5
:102B100008BDAE210122FFF754BD08B5AF21012247
:102B2000FFF740FD012008BDAF210122FFF749BD9D
:102B300008B5B0210122FFF735FD012008BDB02105
:102B40000122FFF73EBD08B5B1210122FFF72AFDA2
:102B5000012008BDB1210122FFF733BD08B5B22124
:102B60000122FFF71FFD012008BDB2210122FFF75E
:102B700028BD08B5B3210122FFF714FD012008BDCF
:102B8000B3210122FFF71DBD08B5B4210122FFF7D3
:102B900009FD012008BDB4210122FFF712BD08B5CF
:102BA000B5210122FFF7FEFC012008BDB52101225D
:102BB000FFF707BD08B5B6210122FFF7F3FC01209E
:102BC00008BDB6210122FFF7FCBC08B5B7210122E0
:102BD000FFF7E8FC012008BDB7210122FFF7F1BC97
:102BE00008B5B8210122FFF7DDFC012008BDB8219E
:102BF0000122FFF7E6BC08B5B9210122FFF7D2FC9C
:102C0000012008BDB9210122FFF7DBBC08B5BA21BC
:102C10000122FFF7C7FC012008BDBA210122FFF7FE
:102C2000D0BC08B5BB210122FFF7BCFC012008BDC8
:102C3000BB210122FFF7C5BC08B5BC210122FFF76B
:102C4000B1FC012008BDBC210122FFF7BABC08B5C8
:102C5000BD210122FFF7A6FC012008BDBD210122F4
:102C6000FFF7AFBC08B5BE210122FFF79BFC012096
:102C700008BDBE210122FFF7A4BC08B5BF21012277
:102C8000FFF790FC012008BDBF210122FFF799BC8E
:102C900008B5C0210122FFF785FC012008BDC02135
:102CA0000122FFF78EBC08B5C1210122FFF77AFC93
:102CB000012008BDC1210122FFF783BC08B5C22154
:102CC0000122FFF76FFC012008BDC2210122FFF79E
:102CD00078BC08B5C3210122FFF764FC012008BDC0
:102CE000C3210122FFF76DBC08B564210122FFF763
:102CF00059FC012008BD64210122FFF762BC08B520
:102D000065210122FFF74EFC012008BD652101224B
:102D1000FFF757BC08B566210122FFF743FC0120ED
:102D200008BD66210122FFF74CBC08B567210122CE
:102D3000FFF738FC012008BD67210122FFF741BCE5
:102D400008B568210122FFF72DFC012008BD68218C
:102D50000122FFF736BC08B569210122FFF722FCEA
:102D6000012008BD69210122FFF72BBC08B56A21AB
:102D70000122FFF717FC012008BD6A210122FFF79D
:102D800020BC08B56B210122FFF70CFC012008BD17
:102D90006B210122FFF715BC08B56C210122FFF75A
:102DA00001FC012008BD6C210122FFF70ABC08B517
:102DB0006D210122FFF7F6FB012008BD6D210122E4
:102DC000FFF7FFBB08B56E210122FFF7EBFB0120E7
:102DD00008BD6E210122FFF7F4BB08B56F21012267
:102DE000FFF7E0FB012008BD6F210122FFF7E9BBDF
:102DF00008B570210122FFF7D5FB012008BD702125
:102E00000122FFF7DEBB08B571210122FFF7CAFBE3
:102E1000012008BD71210122FFF7D3BB08B5722143
:102E20000122FFF7BFFB012008BD72210122FFF73D
:102E3000C8BB08B573210122FFF7B4FB012008BD10
:102E400073210122FFF7BDBB08B574210122FFF7F2
:102E5000A9FB012008BD74210122FFF7B2BB08B510
:102E600075210122FFF79EFB012008BD752101227B
:102E7000FFF7A7BB08B576210122FFF793FB0120DE
:102E800008BD76210122FFF79CBB08B577210122FE
:102E9000FFF788FB012008BD77210122FFF791BBD6
:102EA00008B578210122FFF77DFB012008BD7821BC
:102EB0000122FFF786BB08B579210122FFF772FBDB
:102EC000012008BD79210122FFF77BBB08B57A21DB
:102ED0000122FFF767FB012008BD7A210122FFF7DD
:102EE00070BB08B57B210122FFF75CFB012008BD08
:102EF0007B210122FFF765BB08B540F26461012226
:102F0000FFF750FB012008BD40F264610122FFF78A
:102F100058BB08B540F265610122FFF743FB012071
:102F200008BD40F265610122FFF74BBB08B540F2D6
:102F300066610122FFF736FB012008BD40F26661A1
:102F40000122FFF73EBB08B540F267610122FFF79F
:102F500029FB012008BD40F267610122FFF731BB68
:102F600008B54FF4CD610122FFF71CFB012008BD1D
:102F70004FF4CD610122FFF724BB08B540F269612F
:102F80000122FFF70FFB012008BD40F26961012219
:102F9000FFF717BB08B540F26A610122FFF702FB99
:102FA000012008BD40F26A610122FFF70ABB08B5A3
:102FB00040F26B610122FFF7F5FA012008BD40F2F3
:102FC0006B610122FFF7FDBA08B540F26C61012286
:102FD000FFF7E8FA012008BD40F26C610122FFF71B
:102FE000F0BA08B540F26D610122FFF7DBFA01206B
:102FF00008BD40F26D610122FFF7E3BA08B540F267
:103000006E610122FFF7CEFA012008BD40F26E6129
:103010000122FFF7D6BA08B540F26F610122FFF72F
:10302000C1FA012008BD40F26F610122FFF7C9BA61
:1030300008B54FF4CE610122FFF7B4FA012008BDB4
:103040004FF4CE610122FFF7BCBA08B540F27161BE
:103050000122FFF7A7FA012008BD40F271610122A9
:10306000FFF7AFBA08B540F272610122FFF79AFA92
:10307000012008BD40F272610122FFF7A2BA08B533
:1030800040F273610122FFF78DFA012008BD40F282
:1030900073610122FFF795BA08B540F2746101220D
:1030A000FFF780FA012008BD40F274610122FFF7AA
:1030B00088BA08B540F275610122FFF773FA012062
:1030C00008BD40F275610122FFF77BBA08B540F2F6
:1030D00076610122FFF766FA012008BD40F27661B1
:1030E0000122FFF76EBA08B540F277610122FFF7BF
:1030F00059FA012008BD40F277610122FFF761BA59
:1031000008B54FF4CF610122FFF74CFA012008BD4A
:103110004FF4CF610122FFF754BA08B540F279614C
:103120000122FFF73FFA012008BD40F27961012238
:10313000FFF747BA08B540F27A610122FFF732FA89
:10314000012008BD40F27A610122FFF73ABA08B5C2
:1031500040F27B610122FFF725FA012008BD40F211
:103160007B610122FFF72DBA08B546211022FFF737
:1031700019FA102008BD46211022FFF722BA38B5EF
:1031800005460C4611B9622102220BE04B1E172B9B
:103190000AD801F263610122FFF704FA681C04F205
:1031A000A6710122FFF7FEF9022038BD38B50546A9
:1031B0000C4611B9622102220BE04B1E172B0CD8D2
:1031C00001F263610122FFF7FCF9681C04F2A671A9
:1031D0000122BDE83840FFF7F4B938BD08B55C21DD
:1031E0000622FFF7DFF9062008BD5C210622FFF763
:1031F000E8B908B556210622FFF7D4F9062008BD24
:1032000056210622FFF7DDB937B5013904461729E3
:1032100000F25581DFE811F01800240031003E0073
:103220004B005800650072007F008C009900A600DA
:10323000B300C000CD00DA00E700F40001010E0188
:103240001B012801350142010DF10700FFF70CFBBE
:103250009DF807502046382DA8BF3825DC2129E1EC
:103260000DF10700FFF70DFB9DF807502046382DA4
:10327000A8BF38254FF48A711CE10DF10700FFF754
:103280000DFB9DF807502046382DA8BF38254FF478
:10329000A6710FE10DF10700FFF70DFB9DF8075038
:1032A0002046382DA8BF38254FF4C27102E10DF138
:1032B0000700FFF70DFB9DF807502046382DA8BFEB
:1032C00038254FF4DE71F5E00DF10700FFF70DFB37
:1032D0009DF807502046382DA8BF38254FF4FA71C5
:1032E000E8E00DF10700FFF70DFB9DF807502046C1
:1032F000382DA8BF38254FF40B71DBE00DF1070026
:10330000FFF70DFB9DF807502046382DA8BF382544
:103310004FF41971CEE00DF10700FFF70DFB9DF89A
:1033200007502046382DA8BF38254FF42771C1E03B
:103330000DF10700FFF70DFB9DF807502046382DD3
:10334000A8BF38254FF43571B4E00DF10700FFF741
:103350000DFB9DF807502046382DA8BF38254FF4A7
:103360004371A7E00DF10700FFF70DFB9DF8075033
:103370002046382DA8BF38254FF451719AE00DF141
:103380000700FFF70DFB9DF807502046382DA8BF1A
:1033900038254FF45F718DE00DF10700FFF70DFB4D
:1033A0009DF807502046382DA8BF38254FF46D7181
:1033B00080E00DF10700FFF70DFB9DF80750204658
:1033C000382DA8BF38254FF47B7173E00DF107004D
:1033D000FFF70DFB9DF807502046382DA8BF382574
:1033E00040F2244166E00DF10700FFF70DFB9DF868
:1033F00007502046382DA8BF382540F25C4159E0DF
:103400000DF10700FFF70DFB9DF807502046382D02
:10341000A8BF382540F294414CE00DF10700FFF7BA
:103420000DFB9DF807502046382DA8BF382540F2E7
:10343000CC413FE00DF10700FFF70DFB9DF8075071
:103440002046382DA8BF382540F2045132E00DF156
:103450000700FFF70DFB9DF807502046382DA8BF49
:10346000382540F23C5125E00DF10700FFF70DFB38
:103470009DF807502046382DA8BF382540F27451DA
:1034800018E00DF10700FFF70DFB9DF807502046EF
:10349000382DA8BF382540F2AC510BE00DF10700E4
:1034A000FFF70DFB9DF807502046382DA8BF3825A3
:1034B00040F2E4513822FFF775F8284600E000207A
:1034C00003B030BD013A13B50C46172A00F26881EB
:1034D000DFE812F018002500330041004F005D00C6
:1034E0006B00790087009500A300B100BF00CD00FC
:1034F000DB00E900F7000501130121012F013D0167
:103500004B015901DC213822FFF75BF802A8382C67
:10351000A8BF382400F8014DFFF7AEF940E14FF4A1
:103520008A713822FFF74DF802A8382CA8BF38243A
:1035300000F8014DFFF7ADF932E14FF4A6713822E2
:10354000FFF73FF802A8382CA8BF382400F8014D37
:10355000FFF7ACF924E14FF4C2713822FFF731F8DC
:1035600002A8382CA8BF382400F8014DFFF7ABF9AA
:1035700016E14FF4DE713822FFF723F802A8382C49
:10358000A8BF382400F8014DFFF7AAF908E14FF46D
:10359000FA713822FFF715F802A8382CA8BF382492
:1035A00000F8014DFFF7A9F9FAE04FF40B7138224A
:1035B000FFF707F802A8382CA8BF382400F8014DFF
:1035C000FFF7A8F9ECE04FF419713822FEF7F9FF84
:1035D00002A8382CA8BF382400F8014DFFF7A7F93E
:1035E000DEE04FF427713822FEF7EBFF02A8382CFB
:1035F000A8BF382400F8014DFFF7A6F9D0E04FF43A
:1036000035713822FEF7DDFF02A8382CA8BF382418
:1036100000F8014DFFF7A5F9C2E04FF443713822DD
:10362000FEF7CFFF02A8382CA8BF382400F8014DC0
:10363000FFF7A4F9B4E04FF451713822FEF7C1FF4F
:1036400002A8382CA8BF382400F8014DFFF7A3F9D1
:10365000A6E04FF45F713822FEF7B3FF02A8382CC2
:10366000A8BF382400F8014DFFF7A2F998E04FF405
:103670006D713822FEF7A5FF02A8382CA8BF3824A8
:1036800000F8014DFFF7A1F98AE04FF47B71382271
:10369000FEF797FF02A8382CA8BF382400F8014D88
:1036A000FFF7A0F97CE040F224413822FEF789FFC1
:1036B00002A8382CA8BF382400F8014DFFF79FF965
:1036C0006EE040F25C413822FEF77BFF02A8382C06
:1036D000A8BF382400F8014DFFF79EF960E040F2E2
:1036E00094413822FEF76DFF02A8382CA8BF382479
:1036F00000F8014DFFF79DF952E040F2CC4138222D
:10370000FEF75FFF02A8382CA8BF382400F8014D4F
:10371000FFF79CF944E040F204513822FEF751FFD4
:1037200002A8382CA8BF382400F8014DFFF79BF9F8
:1037300036E040F23C513822FEF743FF02A8382C15
:10374000A8BF382400F8014DFFF79AF928E040F2AD
:1037500074513822FEF735FF02A8382CA8BF382450
:1037600000F8014DFFF799F91AE040F2AC51382208
:10377000FEF727FF02A8382CA8BF382400F8014D17
:10378000FFF798F90CE040F2E4513822FEF719FFF8
:1037900002A8382CA8BF382400F8014DFFF797F98C
:1037A00002B010BD013908B5172941D8DFE801F092
:1037B0000C0E10121416181A1C1E20222426282A59
:1037C0002C2E30323436383A7C212CE07D212AE010
:1037D0007E2128E07F2126E0802124E0812122E053
:1037E000822120E083211EE084211CE085211AE053
:1037F000862118E0872116E0882114E0892112E053
:103800008A2110E08B210EE08C210CE08D210AE052
:103810008E2108E08F2106E0902104E0912102E052
:10382000922100E093210122FEF7BCFE012008BD99
:10383000002008BD013917293FD8DFE801F00C0E40
:1038400010121416181A1C1E20222426282A2C2E88
:1038500030323436383A7C212CE07D212AE07E213A
:1038600028E07F2126E0802124E0812122E08221BE
:1038700020E083211EE084211CE085211AE08621BE
:1038800018E0872116E0882114E0892112E08A21BE
:1038900010E08B210EE08C210CE08D210AE08E21BE
:1038A00008E08F2106E0902104E0912102E09221BE
:1038B00000E093210122FEF784BE7047013908B56C
:1038C000172941D8DFE801F00C0E10121416181A4F
:1038D0001C1E20222426282A2C2E30323436383A38
:1038E00094212CE095212AE0962128E0972126E0DA
:1038F000982124E0992122E09A2120E09B211EE0DA
:103900009C211CE09D211AE09E2118E09F2116E0D9
:10391000A02114E0A12112E0A22110E0A3210EE0D9
:10392000A4210CE0A5210AE0A62108E0A72106E0D9
:10393000A82104E0A92102E0AA2100E0AB21012294
:10394000FEF730FE012008BD002008BD013917290F
:103950003FD8DFE801F00C0E10121416181A1C1EC6
:1039600020222426282A2C2E30323436383A94212C
:103970002CE095212AE0962128E0972126E0982145
:1039800024E0992122E09A2120E09B211EE09C2145
:103990001CE09D211AE09E2118E09F2116E0A02145
:1039A00014E0A12112E0A22110E0A3210EE0A42145
:1039B0000CE0A5210AE0A62108E0A72106E0A82145
:1039C00004E0A92102E0AA2100E0AB210122FEF7D8
:1039D000F8BD7047013908B5172941D8DFE801F073
:1039E0000C0E10121416181A1C1E20222426282A27
:1039F0002C2E30323436383AC4212CE0C5212AE04E
:103A0000C62128E0C72126E0C82124E0C92122E000
:103A1000CA2120E0CB211EE0CC211CE0CD211AE000
:103A2000CE2118E0CF2116E0D02114E0D12112E000
:103A3000D22110E0D3210EE0D4210CE0D5210AE000
:103A4000D62108E0D72106E0D82104E0D92102E000
:103A5000DA2100E0DB210122FEF7A4FD012008BDF0
:103A6000002008BD013917293FD8DFE801F00C0E0E
:103A700010121416181A1C1E20222426282A2C2E56
:103A800030323436383AC4212CE0C5212AE0C62130
:103A900028E0C72126E0C82124E0C92122E0CA216C
:103AA00020E0CB211EE0CC211CE0CD211AE0CE216C
:103AB00018E0CF2116E0D02114E0D12112E0D2216C
:103AC00010E0D3210EE0D4210CE0D5210AE0D6216C
:103AD00008E0D72106E0D82104E0D92102E0DA216C
:103AE00000E0DB210122FEF76CBD7047013908B50B
:103AF000172959D8DFE801F00C0F1215181B1E21E9
:103B000024272A2D303336393C3F4245484B4E510D
:103B100040F2346143E040F2356140E040F236610A
:103B20003DE040F237613AE04FF4C76137E040F2E0
:103B3000396134E040F23A6131E040F23B612EE01D
:103B400040F23C612BE040F23D6128E040F23E61F2
:103B500025E040F23F6122E04FF4C8611FE040F2EF
:103B600041611CE040F2426119E040F2436116E01D
:103B700040F2446113E040F2456110E040F24661DA
:103B80000DE040F247610AE04FF4C96107E040F2FE
:103B9000496104E040F24A6101E040F24B610122D8
:103BA000FEF700FD012008BD002008BD01391729DE
:103BB00057D8DFE801F00C0F1215181B1E2124271F
:103BC0002A2D303336393C3F4245484B4E5140F266
:103BD000346143E040F2356140E040F236613DE05F
:103BE00040F237613AE04FF4C76137E040F23961A3
:103BF00034E040F23A6131E040F23B612EE040F2C5
:103C00003C612BE040F23D6128E040F23E6125E05E
:103C100040F23F6122E04FF4C8611FE040F2416191
:103C20001CE040F2426119E040F2436116E040F2CC
:103C3000446113E040F2456110E040F246610DE05E
:103C400040F247610AE04FF4C96107E040F2496180
:103C500004E040F24A6101E040F24B610122FEF7CC
:103C6000B0BC7047013908B5172959D8DFE801F011
:103C70000C0F1215181B1E2124272A2D303336391C
:103C80003C3F4245484B4E5140F24C6143E040F2CC
:103C90004D6140E040F24E613DE040F24F613AE05C
:103CA0004FF4CA6137E040F2516134E040F25261B2
:103CB00031E040F253612EE040F254612BE040F2DB
:103CC000556128E040F2566125E040F2576122E05C
:103CD0004FF4CB611FE040F259611CE040F25A61A1
:103CE00019E040F25B6116E040F25C6113E040F2E3
:103CF0005D6110E040F25E610DE040F25F610AE05C
:103D00004FF4CC6107E040F2616104E040F262618F
:103D100001E040F263610122FEF744FC012008BD8E
:103D2000002008BD0139172957D8DFE801F00C0F32
:103D30001215181B1E2124272A2D303336393C3FFB
:103D40004245484B4E5140F24C6143E040F24D61D8
:103D500040E040F24E613DE040F24F613AE04FF406
:103D6000CA6137E040F2516134E040F2526131E023
:103D700040F253612EE040F254612BE040F2556175
:103D800028E040F2566125E040F2576122E04FF40E
:103D9000CB611FE040F259611CE040F25A6119E02A
:103DA00040F25B6116E040F25C6113E040F25D615D
:103DB00010E040F25E610DE040F25F610AE04FF416
:103DC000CC6107E040F2616104E040F2626101E031
:103DD00040F263610122FEF7F4BB7047653908B514
:103DE0001F2975D8DFE801F0101316191C1F2225B2
:103DF000282B2E3134373A3D404346494C4F5255DB
:103E0000585B5E6164676A6D40F27C615BE040F222
:103E10007D6158E040F27E6155E040F27F6152E002
:103E20004FF4D0614FE040F281614CE040F282619A
:103E300049E040F2836146E040F2846143E040F2B1
:103E4000856140E040F286613DE040F287613AE002
:103E50004FF4D16137E040F2896134E040F28A6189
:103E600031E040F28B612EE040F28C612BE040F2B9
:103E70008D6128E040F28E6125E040F28F6122E002
:103E80004FF4D2611FE040F291611CE040F2926178
:103E900019E040F2936116E040F2946113E040F2C1
:103EA000956110E040F296610DE040F297610AE002
:103EB0004FF4D36107E040F2996104E040F29A6167
:103EC00001E040F29B610122FEF76CFB012008BD7E
:103ED000002008BD65391F2973D8DFE801F01013F1
:103EE00016191C1F2225282B2E3134373A3D40430A
:103EF00046494C4F5255585B5E6164676A6D40F2AB
:103F00007C615BE040F27D6158E040F27E6155E00B
:103F100040F27F6152E04FF4D0614FE040F28161A6
:103F20004CE040F2826149E040F2836146E040F2B9
:103F3000846143E040F2856140E040F286613DE00B
:103F400040F287613AE04FF4D16137E040F2896195
:103F500034E040F28A6131E040F28B612EE040F2C1
:103F60008C612BE040F28D6128E040F28E6125E00B
:103F700040F28F6122E04FF4D2611FE040F2916184
:103F80001CE040F2926119E040F2936116E040F2C9
:103F9000946113E040F2956110E040F296610DE00B
:103FA00040F297610AE04FF4D36107E040F2996173
:103FB00004E040F29A6101E040F29B610122FEF7C9
:103FC00000BB7047013908B5032913D8DFE801F0B9
:103FD0000205080B40F29C6107E040F29D6104E09D
:103FE00040F29E6101E040F29F610122FEF7DAFAA1
:103FF000012008BD002008BD0139032911D8DFE8E0
:1040000001F00205080B40F29C6107E040F29D615F
:1040100004E040F29E6101E040F29F610122FEF760
:10402000D0BA704708B50846114605F01FFC0020BD
:1040300008BDFFFFF0B5A3B006460C466F4601F180
:10404000200E206861683D4603C5083474452F463C
:10405000F7D108AD02F12007106851682C4603C45F
:104060000832BA422546F7D110AC03F12005186892
:104070005968224603C20833AB421446F7D1289B45
:1040800018AC03F1200518685968224603C20833AA
:10409000AB421446F7D1094B186820909B88ADF8C5
:1040A00084303046694686220CF0A0FC6846002128
:1040B00086221EF01FFF23B0F0BD00BFCF400200DC
:1040C000094B0A4810B500241C60094B21462022E8
:1040D0001C701EF00FFF074B214618684FF48C62CE
:1040E000BDE810401EF006BF4496FF1FCC92FF1F94
:1040F0008D96FF1FB88CFF1F034B044819780122CF
:10410000C901134604F026BAFC91FF1F8E96FF1FCB
:1041100038B52C4B1B78042B05460C4622D00DD805
:10412000022B13D015D8012B47D10846264A294621
:1041300016F088F8003018BF012038BD062B3AD0A1
:1041400037D3662B20D0672B29D036E011F096FCB0
:1041500001E011F097FC03461B492846224611F066
:10416000D1FC0CE008462A4617490DF055FE002305
:104170001846E25C0133202B40EA0200F9D1D0F16D
:10418000010038BF002038BD11F078FC0E4903460D
:104190002246284611F03EFD08B1002038BD11F03E
:1041A00071FC094903462246284611F033FD0028D8
:1041B000F3D1064802E0064800E0064804F0E6FBBA
:1041C000012038BDFC91FF1FAC92FF1FF93C02009B
:1041D000233D02004D3D0200014B00221A60704752
:1041E0004896FF1F2DE9F04F91B0DFF8E481734D41
:1041F00098F8003092466A46A2EBC3128B46002123
:1042000004AF0646954628460A4614F0E8FE07F134
:104210000C0013F0A2FA07F1180013F09EFA07F150
:10422000240013F09AFA98F8003005F11400DB012D
:104230004FF001116B6013F003FB0DF11009044600
:1042400000286CD15E4B98F800207B60194605F180
:104250002C00920113F04FFB7B68044600285ED1CE
:1042600098F80020920105F13800991813F043FBEB
:104270000446002853D105F1080005F12C0105F191
:10428000380213F010FE0446002848D107F10C0054
:1042900005F12C01012213F0F0FD044600283ED167
:1042A00007F1180005F13801012213F0E6FD04467C
:1042B000A8BB07F1240007F10C0107F1180213F065
:1042C000F2FD044658BB05F1200005F1140107F189
:1042D000240214F01DFB044608BB05F1440005F15F
:1042E000200107F10C0214F01BF80446B8B905F1DF
:1042F000500005F1200107F1180214F011F80446EE
:1043000068B905F15C00A0F12401A0F1300214F0BD
:10431000FFFA044618B9284614F09AFE044607F13D
:104320000C0013F021FA07F1180013F01DFA07F141
:10433000240013F019FA0CB1224836E098F8003046
:1043400080226FF0090112FB0311B142DCBF6FF054
:104350000A0612FB0366202E0CD003DC1C2E0BD1A8
:1043600005230AE0302E03D0402E05D1082304E0B7
:10437000072302E0062300E000238DE848081249E5
:10438000CDF80C90012300220C4815F0E1F998F8C3
:10439000002004464946D20150461BF0D3FE074890
:1043A00015F0A4FA204624B1084804F0EFFA4FF0C3
:1043B000FF303437BD46BDE8F08F00BF9895FF1F32
:1043C000EC92FF1F663D020025400000D03D020038
:1043D000FC91FF1F2DE9F04F95B0464B19784FF037
:1043E000FF3202EBC11202F1010A083222F0070289
:1043F00002AFE846ADEB020D3F4A117802AC9B4696
:1044000021B90A4606F044FFF8226CE0042969D17C
:104410003A4E3B4D33681C2BB14611D023F01002AD
:10442000202A0DD0402B0BD0364804F0AFFA0120E3
:1044300004F068FC0021316028684FF48C624EE083
:10444000314E3178727800932868304B06F07EFF49
:104450002F4B2D6824221A702946D9F800207B6042
:1044600007F108001BF06EFE284600214FF48C6215
:104470001EF040FD2246D9F80000264D07F1080144
:10448000FFF7B0FE7B680246A0B9F6211970B37839
:104490009BF800102B60012B20464FEAC11103D17D
:1044A0001A4604F057F80AE0134604F053F804F0F3
:1044B00011FD04E0002218481A7004F067FA552034
:1044C00004F020FC2046002152461EF013FD2B680C
:1044D000012B0AD0114B186800214FF454621EF0D2
:1044E00009FD02E023220A4B1A704C37C546BD462F
:1044F000BDE8F08FFC91FF1F50C7FF1F98C7FF1F3B
:10450000B88CFF1F8A3D0200E5ACFF1F1091FF1F12
:1045100025C7FF1F28C7FF1FB33D0200A88CFF1F40
:104520002DE9F0434E4C4F4D884600218FB0814617
:10453000174620460A4614F052FD05A813F00DF95F
:1045400008A813F00AF90BA813F007F92B7804F167
:104550001400DB014FF00111636013F071F90028C2
:104560004FD1414E2A7804F12C003146920113F0CC
:10457000C2F9002845D12A78920104F13800B11817
:1045800013F0B9F900283CD104F1080004F12C0122
:1045900004F1380213F087FC98BB05A804F12C0144
:1045A000012213F06AFC60BB08A804F13801012263
:1045B00013F063FC28BB0BA805A908AA13F073FC31
:1045C000F8B904F1200004F114010BAA14F0A0F9C9
:1045D000B8B904F1440004F1200105AA13F0A0FECB
:1045E00078B904F1500004F1200108AA13F098FEF4
:1045F00038B904F15C00A0F12401A0F1300214F0FC
:1046000087F905A813F0B0F808A813F0ADF80BA8C7
:1046100013F0AAF8124814F01BFD044668B11348C1
:1046200004F0B4F90E4815F061F92046ACB1104819
:1046300004F0ACF94FF0FF300FE04FF40073039338
:1046400021462246CDF80090CDF804800297044818
:10465000012315F001F80446E4E70FB0BDE8F0834C
:104660000092FF1FFC91FF1FEC92FF1F663D0200AE
:10467000CA3D02002DE9F04F85B03F4B02AF1978DB
:1046800000247C6021B90A4606F002FEF9226CE0A3
:10469000042969D1394DDFF804B12B689BF800205B
:1046A000374EB3EBC21FEA460BD0364804F06EF922
:1046B000012004F027FB2C60306821464FF48C6207
:1046C0004EE0DFF8DC80DFF8D09098F8001098F822
:1046D0000120009330682C4B06F038FE242389F823
:1046E00000309BF800303668AAEBC31295460DF1F6
:1046F000080B31462A68254D58461BF023FD3046ED
:1047000021464FF48C621EF0F5FB2A68204E381DBE
:104710005946FFF705FF024698B9F62389F800309D
:1047200098F802303360012B2868796803D11A4663
:1047300003F010FF0AE0134603F00CFF04F0CAFB7D
:1047400004E0144889F8004004F020F9552004F0F2
:10475000D9FA3368012B05D0286800214FF4546240
:104760001EF0C8FBD54602E023220B4B1A700C3713
:10477000BD46BDE8F08F00BF50C7FF1F98C7FF1FA1
:10478000B88CFF1FF93D02001091FF1FA88CFF1F7E
:1047900028C7FF1F253E020025C7FF1FFC91FF1FF2
:1047A000E5ACFF1FF0B58BB0064601A812F0D5FFAF
:1047B00036B204A8184F12F0D0FFB50107A812F0C6
:1047C000CCFF01A839462A4613F095F8044698B95B
:1047D00004A879192A4613F08EF8044660B907A890
:1047E00001A904AA13F05FFB044628B907A80B49E6
:1047F000F20113F0BAF8044601A812F0B5FF04A8BC
:1048000012F0B2FF07A812F0AFFF14B1044804F091
:10481000BDF80BB0F0BD00BFEC92FF1F8E96FF1FDE
:104820003F3E02002DE9F043474C484D88460021A9
:104830008FB08146174620460A4614F0D0FB05A8E3
:1048400012F08BFF08A812F088FF0BA812F085FF6A
:104850002B7804F11400DB014FF00111636012F0BA
:10486000EFFF00284FD13A4E2A7804F12C00314650
:10487000920113F040F8002845D12A78920104F102
:104880003800B11813F037F800283CD104F10800C3
:1048900004F12C0104F1380213F005FB98BB05A8C4
:1048A00004F12C01012213F0E8FA60BB08A804F11E
:1048B0003801012213F0E1FA28BB0BA805A908AAC8
:1048C00013F0F1FAF8B904F1200004F114010BAA75
:1048D00014F01EF8B8B904F1440004F1200105AA4F
:1048E00013F01EFD78B904F1500004F1200108AA6C
:1048F00013F016FD38B904F15C00A0F12401A0F119
:10490000300214F005F805A812F02EFF08A812F0E6
:104910002BFF0BA812F028FF0B4814F06DFB02468A
:1049200070B90C49CDF800901346CDF80480029779
:10493000054814F01BFE0446034814F0D7FF204638
:104940000FB0BDE8F08300BFEC94FF1FFC91FF1F88
:10495000EC92FF1F25400000F0B5C51D99B004463C
:104960002021284604F082FF2B4604F127026D46E1
:10497000186859682E4603C6083393423546F7D166
:104980002523A37120460021012205F063FC20238A
:1049900008A840216A460BF073FF002120226846D8
:1049A0001EF0A8FA1A4808AAA0F516610CF0F1FA50
:1049B000044698B1174803F0E9FF002004F0A2F97B
:1049C00008A8002140221EF095FA134800214FF458
:1049D000606219B0BDE8F0401EF08CBA0F4B0C4875
:1049E000F6221A70012213464FF4946103F0B2FDCF
:1049F000214608A840221EF07DFA21464FF460624D
:104A000005481EF077FA552004F07CF919B0F0BD86
:104A1000CCB6FF1F5D3E02006CADFF1F25C7FF1F18
:104A2000F0B54B4B19789BB031B90A4606F030FC13
:104A3000484BF9221A7089E0042940F08780464CDF
:104A4000464D474E236800933178464B727828686C
:104A500006F07CFC2368B3F5886F2F460CD04248E3
:104A600003F094FF002004F04DF9286800214FF472
:104A70008C621EF03FFA69E00AA840213B4A2023DD
:104A80000BF0FEFE3A480AAAA0F516610CF081FA76
:104A90000446A8B1374803F079FF002140220AA854
:104AA0001EF028FA00214FF4606233481EF022FA0B
:104AB000286800214FF48C621EF01CFA002043E0AD
:104AC000214640220AA81EF015FA02A829682A4A9F
:104AD0000CF065FBA8B1294803F058FF21462022BD
:104AE00002A81EF007FA21464FF4606222481EF029
:104AF00001FA286821464FF48C621EF0FBF920462B
:104B000022E0144B1E4CF6221A70B3782360012267
:104B1000134602A8202103F01DFD2368012B01D0BC
:104B200004F0D8F90021202202A81EF0E3F90021A8
:104B30004FF4606210481EF0DDF9386800214FF430
:104B40008C621EF0D7F9552004F0DCF81BB0F0BDE4
:104B500050C7FF1F25C7FF1F98C7FF1FB88CFF1F37
:104B6000E5ACFF1F1091FF1F783E0200AC92FF1FC3
:104B7000CCB6FF1F933E02006CADFF1FB53E020096
:104B800028C7FF1F10B590B068464021174A202360
:104B90000BF076FE16486A46A0F516610CF0F9F99E
:104BA0000446684674B1002140221EF0A3F900219A
:104BB0004FF460620F481EF09DF90F4803F0E6FEC7
:104BC00010B010BD214640221EF094F90122134678
:104BD00007484FF4946103F0BDFC064821464FF4AA
:104BE000606210B0BDE810401EF084B9AC92FF1FA7
:104BF000CCB6FF1F6CADFF1FD03E0200F0B5C51D47
:104C0000A9B004462021284604F030FE2B4604F1CA
:104C100027026D46186859682E4603C6083393422A
:104C20003546F7D12623A37120460021012210AC7E
:104C300005F010FB204660216A4620230BF020FE81
:104C40000021202268461EF055F924482246A0F58E
:104C500016610CF09EF998B1214803F097FE0020F0
:104C600004F050F82046002160221EF043F91D4850
:104C700000214FF4606229B0BDE8F0401EF03AB95F
:104C800008A820A915F0CAFA174A08AD2B4603CB8D
:104C9000A342106051601D4602F10802F6D1134B89
:104CA0000E48F6221A70012213464FF4986103F061
:104CB00051FC2046002160221EF01CF908A80021AA
:104CC00020221EF017F900214FF4626208481EF0FE
:104CD00011F9552004F016F829B0F0BDCCB6FF1F2D
:104CE000E43E02006CADFF1F6CBBFF1F25C7FF1F1A
:104CF0006CADFF1F10B50446234810F0B9FE637970
:104D0000642B3FD9A37903F00F03052B04D1204670
:104D1000BDE81040FFF720BE062B04D12046BDE8B9
:104D20001040FFF76BBF012B04D1E11D174815F0B0
:104D30007BFA20E0022B02D110F0A0FE03E0032B4F
:104D400007D110F09FFE0246E11D104810F09EFEB4
:104D500011E0042B0FD1E01D202104F087FD94F811
:104D6000263023F0070384F82630E37903F03F036D
:104D700043F04003E371054800214122BDE81040A3
:104D80001EF0B8B810BD00BF6D9800004C96FF1F14
:104D90002DE9F047604B1978BAB031B90A4606F0F0
:104DA00077FA5E4BF9221A70B2E0042940F0B08025
:104DB0005B4C5C4D5C4F236839787A7828680093A7
:104DC0005A4B06F0C3FAD4F80080B8F58C6FAA46A7
:104DD0000CD0574803F0DAFD002003F093FF286859
:104DE00000214FF48C621EF085F891E022A860212A
:104DF000504AD5F8009020230BF042FD4E4822AADD
:104E0000A0F516610CF0C5F80446A0B14B4803F0BC
:104E1000BDFD0021602222A81EF06CF800214FF495
:104E2000606247481EF066F82868002142461EF07E
:104E300061F800206AE01AAE32A9304615F0EEF9AA
:104E400002A849463E4A0CF0AAF9C8B13D4803F011
:104E50009DFD2146202202A81EF04CF8214660222A
:104E600022A81EF047F821464FF4606234481EF035
:104E700041F82868214642461EF03CF8204645E0AD
:104E800009F5886932A94A460AA815F0CBF812A894
:104E900002A90AAA4B460096FFF7CCF81F4B2A4CF2
:104EA000F6221A70BB7823600122134612A8202133
:104EB00003F050FB2368012B01D004F00BF8002114
:104EC000202202A81EF016F8002120220AA81EF0B7
:104ED00011F80021202212A81EF00CF800216022F7
:104EE00022A81EF007F80021202230461EF002F80A
:104EF00000214FF4606212481DF0FCFFDAF8000058
:104F000000214FF48C621DF0F5FF552003F0FAFEEE
:104F10003AB0BDE8F08700BF50C7FF1F25C7FF1F8D
:104F200098C7FF1FB88CFF1FE5ACFF1F1091FF1F34
:104F3000063F0200AC92FF1FCCB6FF1F213F0200CC
:104F40006CADFF1F433F020028C7FF1F30B5A1B063
:104F500008AC20466021224A20230BF091FC214816
:104F60002246A0F516610CF014F878B12046002115
:104F700060221DF0BFFF00214FF462621A481DF04D
:104F8000B9FF1A4803F002FD21B030BD684618A9E8
:104F900015F044F9164A6D462B4603CBA342106028
:104FA00051601D4602F10802F6D1012213460D4858
:104FB0004FF4986103F0CEFA2046002160221DF0E4
:104FC00099FF6846002120221DF094FF0948002126
:104FD0004FF4626221B0BDE830401DF08BBF00BFCE
:104FE000AC92FF1FCCB6FF1F6CADFF1FD03E02007E
:104FF0006CBBFF1F6CADFF1FF0B50025ECB20B1BA7
:105000000444DBB2E4B29C4205F1010504D2165D12
:10501000D75C1755D654F1E7F0BDFFFF08B5412224
:10502000174800211DF066FF164B1B785A1F012AF6
:1050300025D9012B05D112481349BDE808400EF0CF
:1050400003BE022B02D110F019FD03E0032B08D19F
:1050500010F018FD02460A490B48BDE8084010F060
:1050600018BE042B0BD100201F21074AFFF7C4FFF5
:10507000034805490022BDE808400CF0CDBE08BD3C
:105080004C96FF1FFC91FF1FAC92FF1F38B5144DCB
:105090000446407906F0A4F92B78012B05D1A379B9
:1050A000042B02D12B70FFF7B9FF2B78042B04D00F
:1050B000012B14BF4021202100E0202101221346B2
:1050C000084803F047FA0021402206481DF012FF6D
:1050D000054800212022BDE838401DF00BBF00BF6D
:1050E000FC91FF1F4C96FF1FAC92FF1F38B5054681
:1050F0002C460DF099F9044B44F8783B20460EF00D
:1051000017FB6C60284638BD803C02002DE9F04F4B
:10511000ABB080460CA89B4689469246349F00253A
:105120000EF0A6F801238DF80F302C46BC422ED28B
:105130000CA8414620220EF01AFA25B10CA804A9A9
:105140002A460EF083F90CA8494652460EF07EF925
:1051500020250CA80DF10F0101223E1B0EF076F95F
:10516000AE4228BF2E4604AB0CA841462A46009505
:105170000EF016FA0BEB040004A932461AF0E2FF17
:105180009DF80F30013334448DF80F30CEE7002105
:10519000202204A81DF0AEFE0CA80EF04FF82BB094
:1051A000BDE8F08F30B5B3B0044621220D460BA800
:1051B00000211DF09FFE20460DF12D0204F1200379
:1051C00050F8041B42F8041B9842F9D1802006F0E5
:1051D00007F914A80EF04CF814A80BA921220EF020
:1051E000C6F9202414A8134920220EF02FF914A880
:1051F0000BA903AB009421220EF0D2F92B4603A891
:1052000000940D491522FFF781FF224603A80021D3
:105210001DF070FE0BA8002121221DF06BFE002165
:10522000224604481DF066FE14A80EF007F833B0BD
:1052300030BD00BFAC92FF1FB940020030B5A1B035
:105240000D466946FFF7AEFF08A860216A46202395
:105250000BF016FB204808AAA0F516610BF099FE8A
:105260000446D0B16846002120221DF043FE08A864
:10527000002160221DF03EFE00214FF460621748BD
:105280001DF038FE00214FF4986228461DF032FED2
:10529000134803F07BFB21B030BD4FF494622846E5
:1052A0000D491AF04FFF18A905F5946014F0B6FFE8
:1052B0002146684620221DF01DFE214608A86022D6
:1052C0001DF018FE054821464FF4606221B0BDE88C
:1052D00030401DF00FBE00BF25BEFF1FC5B4FF1F2D
:1052E000D03E0200F0B5BBB00D4602A91746FFF74D
:1052F00059FF22A8602102AA20230BF0C1FA2348FB
:1053000022AAA0F516610BF044FE1AAC10B14FF0C2
:10531000FF3619E032A9204614F080FF0AA829467A
:105320001B4A0BF03CFF06460028F0D105F58865C6
:1053300032A92A4612A814F075FE009438460AA92C
:1053400012AA2B46FEF776FE02A8002120221DF0AD
:10535000D1FD22A8002160221DF0CCFD0AA8002169
:1053600020221DF0C7FD12A8002120221DF0C2FD41
:105370002046002120221DF0BDFD00214FF4606277
:1053800003481DF0B7FD30463BB0F0BD25BEFF1F02
:10539000C5B4FF1FF0B50D46B3B016461F46044610
:1053A00028B921460BA821221DF0A4FD0BAC14A89E
:1053B0000DF05EFF14A8214621220EF0D8F814A8A3
:1053C0002946202220250EF041F8214603AB14A8DF
:1053D000212200950EF0E4F814A80DF023FF3346C7
:1053E00003A83899399A0097FFF790FE00212A46C2
:1053F00003A81DF07FFD14A80DF020FF33B0F0BD11
:1054000013B5044C009415240194FFF7C3FF02B0B8
:1054100010BD00BFA340020070B506469EB00D4609
:105420001446CAB9842005F0DBFF214641222D48ED
:105430001DF060FD02A8FCF737FA02A82A492022D5
:10544000FCF75CFA02A829462022FCF757FA02A8CA
:105450002549FCF774FA3FE0802A09D1104605F08F
:10546000BFFF214928460A462023FFF7C9FF26E04F
:10547000842A24D1104605F0B3FF002141221948A7
:105480001DF038FD20238DF8083029460DF1090361
:1054900005F1200251F8040B43F8040B9142F9D1B5
:1054A0001149124B009310230A46019302A82023AE
:1054B000FFF770FF02A8002121221DF01BFD042E22
:1054C0000AD1094BDA7F22F00702DA771A7802F064
:1054D0003F0242F040021A70054B1E70FFF79EFD1E
:1054E0001EB070BD4C96FF1FAC92FF1FE83C02003F
:1054F000FC91FF1F70B504464079042815D8A379A4
:10550000ABB905F0C1FF002853D02A4B1B7803F03C
:105510000F03072B04D12848BDE8704003F036BACA
:105520002046BDE87040FEF7E7BD742816D805F0A8
:1055300057FF00283DD01F4B1B78052B204603D179
:10554000BDE87040FFF71EBB062B03D1BDE87040DD
:10555000FFF7FCBCBDE87040FFF798BD842805D17B
:10556000A079042825D8E11D002207E0E8280BD106
:10557000A079431E032B1CD8E11D8422FFF74CFFAA
:105580000E48402100220FE0802812D1A37903F0B9
:105590000F03062B0DD10A4DE01D2968FFF74EFEC3
:1055A00028684FF4986101221346BDE8704002F06C
:1055B000D1BF70BDFC91FF1F653F02004C96FF1FDD
:1055C000A88CFF1F2DE9F0416D4C6E4E6E4D236887
:1055D00031787278F0B00746009328686B4B05F07D
:1055E000B5FE4EA8002188221DF084FC684B4E9326
:1055F000684B4F93684B5093787940235193202305
:105600005293C8282EAB5393B0463ED900F13703CE
:10561000DBB2022B0CD9D32819D0D4281CD0D52822
:105620001FD000F12303DBB2022B21D95B4858E0E5
:1056300021682B68C928A1F1200101D1012003E0D4
:10564000CA280CBF022003201944002217E0216859
:105650002B682039012008E021682B6820390220BE
:1056600003E021682B68203903201944802206E0DA
:1056700021682B6824302039C0B219448422FFF7F6
:10568000CBFE2368203B236005E0A0F165030F2BD0
:1056900073D805F0A5FE2268394E414F202A01D06B
:1056A000402A04D102A829681AF04CFD10E012A883
:1056B000FCF7FAF812A829683268FCF71FF912A85B
:1056C00002A9FCF73CF93B78012B1CBF2023336077
:1056D000344A242313703B78591E0229174606D9F1
:1056E000314803F053F9002003F00CFB45E0012B97
:1056F00012AE08D12368009330462C492C4A2B68FF
:105700000EF01EFA0EE0022B02D110F0B7F901E004
:1057100010F0B8F9019000962448226802A94EAB17
:1057200010F0F7FAF62398F802203B70214B012A7B
:105730001A6030464FF0400103D1134602F00AFFD1
:1057400005E00122134602F005FF03F0C3FB5520DC
:1057500003F0D8FA286800214FF48C621DF0CAFBD0
:105760000021412212481DF0C5FB104800212022D3
:1057700070B0BDE8F0411DF0BDBB70B0BDE8F08178
:1057800098C7FF1FE5ACFF1FB88CFF1F1091FF1FCC
:10579000E1B20100E7B20100EDB20100923F020068
:1057A000FC91FF1F25C7FF1FB13F0200AC92FF1FF6
:1057B0004C96FF1F28C7FF1F08B5094B197821B960
:1057C0000A4605F065FDF82206E0042903D1BDE88C
:1057D0000840FFF7F7BE2322024B1A7008BD00BF36
:1057E00050C7FF1F25C7FF1F10B50446214810F002
:1057F0003FF96079642816D805F046FE1E4B1B78E9
:105800000BB91E4827E003F00F03072B04D12046F5
:10581000BDE8104000F0CABF42061BD52046BDE8D7
:105820001040FEF7D7BD00F13702D2B2032A19D9D2
:1058300000F12302D2B2032A14D9A0F165020F2A83
:1058400015D805F0CDFDC0B20B4B1B78002BD8D07E
:10585000430607D40A4803F099F80020BDE8104039
:1058600003F050BA2046BDE81040FFF7A5BF002066
:10587000EAE700BF6D980000FC91FF1FD43F0200D3
:10588000B13F0200F0B595B000210746412203A8C0
:105890001DF030FB6A4B197839B90A46384605F0D5
:1058A000F7FC684BF9221A70C8E0042940F0C68062
:1058B000654C664E664D236831787278286800938F
:1058C000644B05F043FD7879C828374655D900F177
:1058D0003603DBB2022B10D900F12C03DBB2022B12
:1058E0000BD900F12203DBB2022B06D95A4803F090
:1058F0004DF8002003F006FAA0E0CA2804D1216880
:105900002B682039022005E0CB2806D121682B68BE
:10591000203903201944002229E0CC2804D1216831
:105920002B6820390420F5E7D42804D121682B689E
:10593000203902200CE0D52804D121682B682039B9
:10594000032005E0D62806D121682B6820390420E1
:10595000194480220BE000F12203DBB2022B08D8AD
:1059600021682B6824302039C0B219448422FFF703
:1059700053FD2368203B236005E0A0F165030F2B56
:105980005CD805F02DFD354B1A78911E01299CBF7E
:1059900064321A701B78012B06D1304B04221A7026
:1059A0002026FFF73BFB00E040262268212A01D099
:1059B000412A05D129682A48013A2260013105E0CF
:1059C000202A01D0402A03D1254829681AF0BAFBC1
:1059D0001C4A232313702368402B144601D0202B2C
:1059E00003D11F4803A9FEF793FBF623BA7823706F
:1059F0001C4B012A1A6003A8314603D1134602F05A
:105A0000A9FD05E00122134602F0A4FD03F062FAAD
:105A1000552003F077F9286800214FF48C621DF0BF
:105A200069FA002141220E481DF064FA0E48002157
:105A3000202215B0BDE8F0401DF05CBA15B0F0BDF5
:105A400050C7FF1F25C7FF1F98C7FF1FE5ACFF1FEB
:105A5000B88CFF1F1091FF1F923F0200FC91FF1FA7
:105A60004C96FF1F28C7FF1FAC92FF1FF0B50446DE
:105A7000A5B088480FF0FCFF6179802940F0B18023
:105A8000854B1D78042D33D1844B9A78844B1A6052
:105A9000844B1D78012D01D08348BDE0834E84489E
:105AA0003168002408AA1C70FFF71CFC30B1814843
:105AB00002F06CFF204603F025F905E008A820213C
:105AC0002A462B4602F046FD0021202208A81DF0A0
:105AD00011FA0021202276481DF00CFA30680021CE
